:100000000C94BA020C94D7020C94D7020C94D70229
:100010000C94D8090C94D7020C94D7020C94D702F4
:100020000C94D7020C94D7020C94D7020C94D702EC
:100030000C94D7020C94450A0C94D7020C94D70266
:100040000C94E7090C94D7020C94D7020C94D702B5
:100050000C94D7020C94D7020C94D7020C94D702BC
:100060000C94D7020C94D7021B5B33376D000A0D3A
:100070004665686C6572206265696D204C616465D7
:100080006E20646572204944730A0D001B5B333196
:100090006D000A0D001B5B3144201B5B3144000ADC
:1000A0000D4B65696E6520C46E646572756E67651B
:1000B0006E20766F7267656E6F6D6D656E0A0A0DE4
:1000C000000A0D4E657573746172742E2E2E0A0A25
:1000D0000D0044657669636520697374206A6574F0
:1000E0007A74205472616E736D6974746572210A3A
:1000F0000D001B5B33376D001B5B33316D004E65AC
:10010000756520556E697175652D4944202830311B
:100110002D3330293A20001B5B33376D001B5B33D6
:10012000316D004E65756520536C6176652D4944CF
:10013000202830312D3330293A2020000A0D000AC2
:100140000D002855296E697175652D494420E46EAE
:100150006465726E2C202853296C6176652D4944A4
:1001600020E46E6465726E2C200A0D7A7520285486
:100170002972616E736D6974746572206D61636854
:10018000656E2C2041626272756368206D6974200F
:1001900062656C6965626967657220616E6465722B
:1001A00065722054617374652120000A0A0A0D00EB
:1001B0000A0A0D4465766963652069737420646575
:1001C000727A65697420616C73205472616E736D0C
:1001D0006974746572206B6F6E66696775726965A4
:1001E00072742E001B5B33376D000A0D00464548C4
:1001F0004C4552001B5B33316D00416B7475656C6F
:100200006C6520536C6176652D49443A2020001BB3
:100210005B33376D000A0D004645484C4552001BC4
:100220005B33316D00416B7475656C6C6520556E88
:10023000697175652D49443A20001B5B33376D00A9
:100240001B5B33376D000A0D4665686C6572206272
:1002500065696D204C6164656E2064657220494457
:10026000730A0D001B5B33316D000A0A4B6F6E661B
:10027000696775726174696F6E7370726F677261AE
:100280006D6D0A0D3D3D3D3D3D3D3D3D3D3D3D3DA1
:100290003D3D3D3D3D3D3D3D3D3D0A0D001B5B333C
:1002A000336D000A0D001B5B33376D004665686CCB
:1002B000657268616674652F646F7070656C7465D3
:1002C000204944733A20001B5B33316D000A0D0A4C
:1002D0000D002020202020000A0D002D2D2D2D00A6
:1002E0002D00202D002C20002D2D2D2D006E2E6197
:1002F0002E002C20002D002C20002E002D2D2D2D29
:10030000002C2000300020002D2D2D003A20000A66
:100310000A0D556E697175652D49443A20536C611B
:1003200076652D49442C2042617474657269657349
:1003300070616E6E756E67202856292C2053636895
:100340006172663F2C2054656D70657261747572C0
:100350002028B043292C2052535349202864426D51
:10036000290A0D001B5B33376D003D3D3D3D3D3D92
:100370003D3D3D3D3D3D3D3D3D0A0D000A0A0D53CD
:10038000797374656DFC62657273696368740A0DD4
:10039000001B5B33336D000A0D0020000A0D002D99
:1003A0002D2D003A20000A0A0D536C6176652D4907
:1003B000443A20416E7A61686C20426F78656E0A1B
:1003C0000D000A0A0D00556E67FC6C7469676520A4
:1003D00045696E6761626500203D20000A0D4B6132
:1003E0006E616C3A20202020202000556E67FC6C46
:1003F000746967652045696E6761626500203D200C
:10040000000A0D536C6176652D49443A2020200086
:100410000A0D4D6F64757328662F69293A20000A0A
:100420000A0D000A0D526164696F206D6F64756C6E
:10043000653A2052464D0061746D6567613332380C
:1004400070000A0D436F6E74726F6C6C65723A20A7
:100450002020000A0D0A0D00B043006E2E612E0010
:1004600054656D706572617475723A20000A0D00F2
:100470000A0A0D576965646572686F6C746573204C
:1004800053656E64656E20646573206C65747A7460
:10049000656E2042656665686C73204155530A0D90
:1004A000000A0A0D576965646572686F6C7465733C
:1004B0002053656E64656E20646573206C65747A84
:1004C00074656E2042656665686C732045494E0A06
:1004D0000D001B5D303B454C204655455241444F75
:1004E000524F07001B5B31440020001B5B3144006E
:1004F0001B5D303B454C204655455241444F524FC1
:1005000007001B5B334A001B5B303B3048001B5B22
:10051000324A0045696E204665686C6572206973D1
:100520007420617566676574726574656E2E20420D
:10053000697474652065726E657574207665727372
:10054000756368656E210A0D000A0A0DC46E646544
:1005500072756E67206572666F6C67726569636835
:1005600020FC6265726E6F6D6D656E210A0D002054
:10057000002D000011241FBECFEFD8E0DEBFCDBF9D
:1005800011E0A0E0B1E0E8E2F7E302C005900D92CF
:10059000AA3CB107D9F711E0AAECB1E001C01D9265
:1005A000A23DB107E1F70E94560A0C94921B0C94ED
:1005B0000000F999FECF92BD81BDF89A80B512BCBA
:1005C00011BC08950F931F93CF93DF9300D000D0F9
:1005D00000D0CDB7DEB7DC0119821A821B821C82E3
:1005E00080E88D831E822198299834EA3A95F1F7A4
:1005F000199B98C0219A83E393E10197F1F7219821
:1006000091E29A95F1F780E0199B08C08E3109F4C8
:100610008BC0E1E2EA95F1F78F5FF6CF893108F000
:1006200083C080E0199908C0893109F47FC0F1E2E4
:10063000FA95F1F78F5FF6CF893109F477C080E042
:10064000199B08C0893109F473C031E23A95F1F77A
:100650008F5FF6CF893109F46BC0FE01319625E03A
:100660002E0F88E092E3199907C0915048F030E1CD
:100670003A95F1F700C0F7CF911102C084E65DC052
:100680009081990F908332E63A95F1F70000199B1B
:1006900002C09160908392E3199B07C0915038F09B
:1006A00030E13A95F1F700C0F7CF992339F3815043
:1006B000C9F631962E13D5CF49813A812B81EC8131
:1006C000932F940F920F9E0F5D81591333C0922F79
:1006D000991F9927991F990F50E0542F4427430FD2
:1006E000511D493EF3E05F0738F52F7730E0322F98
:1006F00022272E0F311DE1E0F0E0E91BF109E29F16
:100700008001E39F100DF29F100D112498012057D6
:100710003E4F233E344080F40D931C93FB015183E4
:1007200040830BC081E009C082E007C083E005C0C0
:1007300084E003C088EC01C089EC26960FB6F894DB
:10074000DEBF0FBECDBFDF91CF911F910F910895F6
:10075000219A90E19A95F1F700C0811121989EE2CB
:100760009A95F1F7199B80E096E89A95F1F700C009
:1007700021980895CF93DF9300D000D0CDB7DEB796
:100780001C821B821A821982BE016F5F7F4FCE01CD
:1007900003960E94E202882331F0843011F48FE640
:1007A00003C080E001C084E60F900F900F900F907F
:1007B000DF91CF9108955D985F985E98289808958D
:1007C000439842984198409808951F93CF93DF93A0
:1007D0001F92CDB7DEB7339902C090E001C090E11F
:1007E000329902C080E001C080E2982B319902C0AA
:1007F00080E001C080E4982B309902C080E001C005
:1008000080E8192F182B439A429A419A409A3B98B4
:100810003A98399838985C98459A80E887FF39C0AB
:10082000449A00000000339902C090E001C090E1BA
:10083000329902C080E001C080E2319902C050E0EC
:1008400001C050E4309902C040E001C040E8449843
:1008500000000000449A0000000026B123FB22277C
:1008600020F9922B892B852B842B329902C030E002
:1008700001C032E0832B319902C020E001C024E0A6
:10088000822B309902C090E001C098E0892B4498F7
:10089000C5CF45983B9A3A9A399A389A89830E94EB
:1008A000E003898114FD439A15FD429A16FD419A91
:1008B00017FD409A0F90DF91CF911F910895449AB0
:1008C00000C000C044980895CF93C82F0E94E00351
:1008D000C4FD439AC5FD429AC6FD419AC7FD409AA0
:1008E0000E945F040E94E003C0FD439AC1FD429A4A
:1008F000C2FD419AC3FD409ACF910C945F048530AC
:1009000008F081E0653108F061E0982F90959170D2
:10091000282F30E0215031093595279545985C986E
:10092000892F8295880F880F807C815894E1299FB8
:10093000800D1124860F0E9464040C94E503CF936C
:10094000DF931F92CDB7DEB74598611124C05C9844
:1009500069830E9464040E94E50369816623E9F0CB
:100960000E94E503803481F028F48431B1F461E021
:1009700082E00CC0843529F0883679F461E081E0AA
:1009800005C061E083E002C061E084E00F90DF9188
:10099000CF910C947F045C9ADBCF0F90DF91CF91C5
:1009A0000895CF93DF93EC018991882321F061E0D2
:1009B0000E949F04F9CFDF91CF91089545985C9AEA
:1009C0000E9464040C94E503F999FECF72BD61BDE9
:1009D00080BDFA9AF99A12BC11BC0895862798E056
:1009E0002CE8382F31708695311182279150C9F744
:1009F00008957F928F929F92AF92BF92CF92DF9293
:100A0000EF92FF920F931F93CF93DF93082F162F30
:100A1000C8E1D0E0E82EE60ECE010E94D902782E81
:100A2000CE0101960E94D902882ECE0102960E9424
:100A3000D902982ECE0103960E94D902A82ECE018B
:100A400004960E94D902B82ECE0105960E94D902C2
:100A5000D82E602F80E10E94EE04F82E612F80E1F5
:100A60000E94EE04C82E612F8F2D0E94EE0470129A
:100A70000AC0811208C09E1006C0AF1004C0BC108E
:100A800002C0D81631F0A496C438D10529F680E00A
:100A900001C081E0DF91CF911F910F91FF90EF9006
:100AA000DF90CF90BF90AF909F908F907F900895F0
:100AB000AF92BF92CF92DF92EF92FF920F931F936C
:100AC000CF93DF936C015B01C8E1D0E0E12CCE0154
:100AD0000E94D902182FCE0101960E94D902082F38
:100AE000682F812F0E94F904F82E8823B9F188E13C
:100AF00090E00E94D902C82F8CE390E00E94D902B6
:100B0000C81729F188E190E00E94D902C82F80E639
:100B100090E00E94D902C8131AC089E190E00E94B7
:100B2000D902C82F8DE390E00E94D902C8130FC0EC
:100B300089E190E00E94D902C82F81E690E00E94EE
:100B4000D902C81304C0602F812F0E940608F60145
:100B50001083F5010083FF24F39416C0F2E0EF1236
:100B60000DC0602F812F0E94F904811107C085E418
:100B7000F601808385E6F501808306C0E394A496A0
:100B8000C438D10509F0A3CF8F2DDF91CF911F91EC
:100B90000F91FF90EF90DF90CF90BF90AF900895AE
:100BA000CF93DF93C82FD8E08C2F81700E94A803C9
:100BB000C6958111C068D150B9F78C2FDF91CF91C4
:100BC00008950F931F93CF93DF9300D000D0CDB73C
:100BD000DEB720E83FEF3C832B838436D1F18F369C
:100BE00009F04FC084E40E94520681E00E94A803ED
:100BF0008823D9F38EEB0E9452068FEF0E94D00516
:100C0000082F10E08FEF0E94D00590E0982F8827E2
:100C1000800F911F9C012227387F232BA1F521E013
:100C200030E0AC014C5F5F4F880F991F880F991F10
:100C3000840F951F73E0969587957A95E1F7829FCB
:100C4000A001839F500D929F500D11245C834B8314
:100C500007C0BE016F5F7F4FCE0103960E94E20284
:100C60002B813C8137FD03C085E090E002C08BEF13
:100C70009FEF820F931F6AE070E00E94291B862F6E
:100C800008C080E806C09195819591092FEF3FEF4C
:100C9000C8CF0F900F900F900F90DF91CF911F91C1
:100CA0000F910895CF93C82F219A8CEC94E001976F
:100CB000F1F700C00000219898ED9A95F1F7000037
:100CC000199905C08AE294E00197F1F700C08CEC15
:100CD0000E94D0058C2FCF910C94D00580917C0080
:100CE000887F80937C0080917C00856080937C006D
:100CF00020917C002095221F2227221F8BE0821B3F
:100D0000282F30E080E090E0DC0140917A004064E0
:100D100040937A0040917A0046FDFCCF40917800E4
:100D200050917900840F951FA11DB11D3F5F3213B3
:100D3000ECCF8096A11DB11D26E0B695A79597959D
:100D400087952A95D1F7089535B516BC81E085BB06
:100D500080EA86BD85E085BD80E095E541E050EA0A
:100D60002FEF290F2E3F68F4990F21E0349B20E0EC
:100D7000922BA89BFECF45BB56BD883088F78F5F6E
:100D8000EFCF883088F335BD81E0911180E0089580
:100D90009FEB980F9A3130F0843C21F0863D11F0A2
:100DA0008C3D09F480620895CF93DF93FC01DF014D
:100DB000EB018991BE01882329F031969C91981707
:100DC000B1F303C081E09081911180E0DF91CF9178
:100DD0000895282F40E050EC62E170E099B1892F2E
:100DE000887093FF06C04150510961097109B1F73C
:100DF00014C0452B462B472B81F040E050EC62E1BC
:100E000070E09091C00095FD05C041505109610905
:100E10007109B9F72093C600089581E00895CF9332
:100E2000DF93EC01FE018491882329F00E94E906FA
:100E300021968823B9F3DF91CF9108954F925F9265
:100E40006F927F928F929F92AF92BF92CF92DF92DA
:100E5000EF92FF920F931F93CF93DF93CDB7DEB73F
:100E6000A1970FB6F894DEBF0FBECDBF6B017C011A
:100E7000CE0101965C0181E2F50111928A95E9F7B4
:100E8000C701B60111E02AE0422E512C612C712CD1
:100E9000A30192010E943D1BCA01B9012115310530
:100EA0004105510511F01F5FF3CF012FF7FE0CC074
:100EB00081E795E00E940F07F094E094D094C094ED
:100EC000C11CD11CE11CF11C8AE0482E512C612C64
:100ED000712C002381F04E01800E911CC701B601D8
:100EE000A30192010E943D1B605DF40160836901D2
:100EF0007A010150EECF75018E2D8A19811730F4D9
:100F0000F70181917F010E94E906F6CFA1960FB605
:100F1000F894DEBF0FBECDBFDF91CF911F910F912F
:100F2000FF90EF90DF90CF90BF90AF909F908F9009
:100F30007F906F905F904F9008958F929F92AF92A5
:100F4000BF92CF92DF92EF92FF92CF93DF936B012C
:100F50007C01C42FD0E02AE0822E912CA12CB12C50
:100F6000611571058105910541F0A50194010E946B
:100F70003D1BCA01B901DF5FF3CFF7FE02C0C1110B
:100F8000C150CD1770F4C701B601DF91CF91FF902A
:100F9000EF90DF90CF90BF90AF909F908F900C9488
:100FA0001E07CD1BD0E0DC1771F38FE695E00E94A1
:100FB0000F07DF5FF8CF80E090ECA2E1B0E0209176
:100FC000C00027FD05C00197A109B109C1F709C0FB
:100FD000892B8A2B8B2B29F05A9A8091C6005A981C
:100FE000089580E0089581E086BB109285001092FC
:100FF00084000895E1E8F0E08081887F808308958F
:10100000E1E8F0E08081826080830895CF92DF92F2
:10101000EF92FF920F931F93CF93DF93082F162F1A
:10102000C82EC60E682F80E10E94EE04F82E612FB4
:1010300080E10E94EE04D82E612F8F2D0E94EE04D5
:10104000E82EC8E1D0E0BE01802F0E94E404BE017A
:101050006F5F7F4F812F0E94E404BE016E5F7F4F60
:101060008C2D0E94E404BE016D5F7F4F8F2D0E9486
:10107000E404BE016C5F7F4F8D2D0E94E404BE012D
:101080006B5F7F4F8E2D0E94E404A496C438D10577
:10109000D1F6612F802F0E94F904882319F089E48A
:1010A00095E002C083E195E0DF91CF911F910F9110
:1010B000FF90EF90DF90CF900C940F07CF93DF93CA
:1010C000D3E680ED8D0F843020F00E94DB07D82F0F
:1010D000F8CF8D2F0E94E906C3E6D03341F48FECA0
:1010E0008C0F893020F00E94DB07C82FF8CF8FECDF
:1010F0008D0F823040F480ED8C0F8A3058F00E94C2
:10110000DB07C82FF8CFD33329F40E94DB07C82FA1
:101110008033D9F78C2F0E94E9068C2F9AE0D99F53
:10112000800D11248051DF91CF9108958EE095E0DC
:101130000E940F0787E095E00E940F0782E095E08C
:101140000E940F0780EF94E00C940F07BC014098B9
:101150004398429890E120E030E848E0F901E62326
:10116000F723EF2B09F0409A46B946B940983695D7
:101170002795915099F784E086B986B90895419AE8
:10118000389A399A3A9A3B9A40984298439893E011
:1011900028E034E084E126B926B98150E1F736B978
:1011A00036B99150B9F72FEF8FE791E02150804089
:1011B0009040E1F700C000C0419808958EBD0DB485
:1011C00007FEFDCF8EB50895CF93C82F611102C0E1
:1011D00080E001C080E8892B611101C0CFEF2D981C
:1011E0002B982A980E94DE088C2F0E94DE082B98EC
:1011F0002D982A9ACF910895CF92DF92EF92FF9285
:1012000061E084E091E00E94E408C12C80E6D82EE1
:1012100089E0E82EF12C81E0C81AD108E108F10834
:1012200039F060E08FEF97E20E94E40887FFF3CF88
:1012300081E0CD28CE28CF2809F080E0FF90EF9004
:10124000DF90CF900895CF92DF92EF92FF9261E00E
:1012500080E191E00E94E408C12C80E6D82E89E06C
:10126000E82EF12C81E0C81AD108E108F10839F024
:1012700060E08FEF97E20E94E40887FFF3CF81E000
:10128000CD28CE28CF2809F080E0FF90EF90DF90A6
:10129000CF900895CF92DF92EF92FF921F93CF935A
:1012A000DF93CDB7DEB76F970FB6F894DEBF0FBEF2
:1012B000CDBFF82EE92E162F0E94FC0861E080E1D8
:1012C00098E20E94E408612F1E3108F06DE1698305
:1012D0003F2DDE011296EF2DFE2DCD012E2F231B6B
:1012E000261718F421912D93F9CFFC01E60FF11D7B
:1012F00010822A9889818F3110F08EE1898380E8ED
:101300000E94DE08F9808F2D0E94DE0811E0F116A0
:1013100058F0E1E0F0E0EC0FFD1FE10FF11D8081DE
:101320000E94DE081F5FF3CF2A9A61E08CE091E013
:101330000E94E408C12C90E6D92E99E0E92EF12C08
:1013400081E0C81AD108E108F10839F4C12C80E61F
:10135000D82E89E0E82EF12C0EC060E08FEF97E2E6
:101360000E94E40887FFECCFF1CF81E0C81AD108D2
:10137000E108F10839F060E08FEF98E20E94E4089C
:1013800083FFF3CF0E94230981E0CD28CE28CF2808
:1013900009F080E06F960FB6F894DEBF0FBECDBFA8
:1013A000DF91CF911F91FF90EF90DF90CF90089544
:1013B0001F920F920FB60F9211248F9381E08093AA
:1013C000D1018F910F900FBE0F901F9018951F9213
:1013D0000F920FB60F9211242F938F939F938091AA
:1013E000CF019091D001892B49F08091CF0190914C
:1013F000D00101969093D0018093CF018091CD01CF
:101400009091CE01892B49F08091CD019091CE0130
:1014100001969093CE018093CD018091CB01909164
:10142000CC01892B49F08091CB019091CC010196A0
:101430009093CC018093CB018091CF019091D0010A
:10144000893E934020F01092D0011092CF018091FC
:10145000CD019091CE01893E934020F01092CE01B3
:101460001092CD018091CB019091CC0181319742B6
:1014700020F01092CC011092CB019F918F912F916F
:101480000F900FBE0F901F9018951F920F920FB6DE
:101490000F9211248F938091CA018F5F8093CA01AC
:1014A0008F910F900FBE0F901F901895CF93DF93E1
:1014B000CDB7DEB7C35AD1400FB6F894DEBF0FBE2A
:1014C000CDBF88E10FB6F894809360001092600061
:1014D0000FBE10E000E09E012F5F3F4F590180E2F8
:1014E000D9011D928A95E9F7FE01E95AFE4FC958C4
:1014F000DE4FF983E883C757D1408FE1E82E119280
:10150000EA94E9F77E0128ECE21A2EEFF20AD701FD
:10151000E82F1D92EA95E9F79E01275E3E4FC758D6
:10152000DE4F39832883C957D140D901E82F1D9256
:10153000EA95E9F7FE01E650FF4FDF01282F1D92E3
:101540002A95E9F7BE0165527F4FC558DE4F798372
:101550006883CB57D140DB01E82F1D92EA95E9F76C
:101560009E0124543F4FC358DE4F39832883CD5703
:10157000D140D901E82F1D92EA95E9F72F513109A1
:10158000C158DE4F39832883CF57D140D901E82F86
:101590001D92EA95E9F7FE01E258FF4FDF01282F7F
:1015A0001D922A95E9F76C577109CF57DE4F798361
:1015B0006883C158D140DB01E82F1D92EA95E9F715
:1015C000FE01E05CFF4FDF011D928A95E9F70E9462
:1015D000BF0880916400806C8093640080B780684D
:1015E00080BF0E9400082898209A5E98569A5F98BB
:1015F000579A5D98559A2701DE01A356BF4F9E0169
:10160000215A3F4FAE0144545F4FFE01E552FF4F58
:101610003F01BE01675E7E4F7B01CE01895A9E4F1E
:101620006C0180E090E0E0E89E2E8824839499B8D5
:10163000F50181925F01F20111922F01F6011192E1
:101640006F01F70111927F01F30111923F01FA013D
:101650001192AF01F90111929F019D92FFEF6FE787
:1016600071E0F15060407040E1F700C000C00196A9
:101670008E319105E1F68EE1CA58DE4F8883C65758
:10168000D14089A3BE016A587E4FCE0181960E9447
:10169000580581110CC08CE890E00E940F078EE67F
:1016A00090E00E940F0788E690E00E940F07CA585A
:1016B000DE4F8881C657D1408111E2C089A18111D6
:1016C000DFC01092CE011092CD011092D001109285
:1016D000CF011092CC011092CB0144983C9898B164
:1016E00085B198130AC0809168008E7F809368004E
:1016F00080916B008F7E80936B0098B18BB19813B3
:101700000AC0809168008B7F8093680080916D0093
:101710008F7E80936D0098B188B198130AC0809134
:1017200068008D7F8093680080916C008F7E80932D
:101730006C001092D1010E94DB03449845985C989C
:101740000E94E0033C9A3D9A549A3B9A3A9A399AFD
:10175000389A8FEF9FEFA5E081509040A040E1F7CD
:1017600000C000C0429A439A0E945F04EFEFFFE579
:101770003197F1F700C000000E945F048FEF9FE5F2
:101780000197F1F700C000000E945F04AFEFBFE5D2
:101790001197F1F700C000000E94E003429A0E94F6
:1017A0005F040E94E50360E088E20E949F0460E01D
:1017B0008CE00E949F0460E086E00E949F0460E04D
:1017C00081E00E949F0460E080E40E949F0484E026
:1017D0000E94DE0484E00E94DE048AE00E94DE04AF
:1017E0008AE00E94DE0485E10E94DE0481E10E941D
:1017F000DE048AE00E94DE0484E00E94DE0482E0CF
:101800000E94DE0485E00E94DE0482E00E94DE0485
:1018100080E00E94DE0480E00E94DE0480E00E94FE
:10182000DE0480E00E94DE0480E00E94DE0460E0CE
:1018300080E80E949F0461E082E00E947F0461E0F2
:1018400080E00E949F0461E080E00E949F0480E0AD
:1018500091E00E94D10461E080E00E949F0461E079
:1018600080E00E949F0460E082E00E949F0485B5B2
:10187000856085BD80916E00816080936E008DC013
:101880000E94BF08449A3C9898B185B198130AC049
:101890008091680081608093680080916B00806116
:1018A00080936B0098B18BB198130AC08091680047
:1018B00084608093680080916D00806180936D00EA
:1018C00098B188B198130AC08091680082608093B3
:1018D000680080916C00806180936C0081E080934F
:1018E000D10180B7806880BF80917C00856480933F
:1018F0007C0080917A00866080937A0080917A00E3
:10190000806880937A0080917A00806480937A0066
:1019100080917A0086FDFCCF8091780090917900CB
:10192000BFEFEFE7F7E0B150E040F040E1F700C073
:10193000000028E080E090E030917A00306430933D
:101940007A0030917A0036FDFCCF409178005091BA
:101950007900840F951F215079F780389C40D8F486
:1019600080917C00806880937C003FEF6FE777E098
:10197000315060407040E1F700C0000080917A0073
:10198000806480937A0080917A0086FDFCCF8091FC
:101990007800909179000E94DB03CA58DE4FF880EE
:1019A000C657D14029A08FB7F8945B9A5398529AA2
:1019B0001092C5009FE39093C40098E19093C100FA
:1019C00096E09093C2008FBF5A980E94BA03C45702
:1019D000DE4F8883CC58D1400E94E105C857DE4FC6
:1019E0008883C858D1402A9A2C9A2498239A259AF9
:1019F000229A8CB580658CBD74E1E72E8FEF9FE253
:101A00000197F1F700C0000061E080E092E00E94E1
:101A1000E40861E082E095E00E94E40861E081EE84
:101A200096E00E94E40861E08DE093E00E94E40803
:101A300061E08DE094E00E94E40861E083E499E1D4
:101A40000E94E40861E089E49AE10E94E40861E010
:101A50008BE193E10E94E40861E080E095E20E945E
:101A6000E40861E087E096E20E94E40861E088ED26
:101A700097E00E94E40861E086EE98E00E94E408A6
:101A800061E084E199E00E94E40861E080E997E385
:101A90000E94E40861E08EE198E30E94E40861E0BE
:101AA00080E89CE30E94E40861E080E39DE30E94FB
:101AB000E40861E080E09CE20E94E40861E083E0E9
:101AC0009DE20E94E40861E088E89EE20E94E4084A
:101AD00061E08DE29FE20E94E40861E084ED90E322
:101AE0000E94E40861E080E098E10E94E40861E07F
:101AF0008DE298E50E94E40861E080E39FE60E94A1
:101B0000E40861E08CED99E20E94E40861E08DE078
:101B10009EE10E94E40860E08FEF9EE10E94E408ED
:101B200084FFF9CF61E08AE991E10E94E408EA9438
:101B3000E11064CF61E080E89AE00E94E408812C23
:101B400060E6962E69E0A62EB12C60E080E09AE077
:101B50000E94E40886FD06C091E0891A9108A10858
:101B6000B10899F70E942309F11035C0211033C044
:101B700089E6C85CDE4F8883C853D14084E6C75CE1
:101B8000DE4F8883C953D14080E3C65CDE4F888333
:101B9000CA53D14080916E00816080936E0055E001
:101BA000E52E5F9A65E081E191E00E944A095F9825
:101BB000AFEFBFEFEDE1A150B040E040E1F700C072
:101BC0000000EA94E110EDCF60E081E00E949F0404
:101BD000312C33E02FC080E7C85CDE4F8883C853C8
:101BE000D140C75CDE4FF882C953D140C65CDE4F9E
:101BF0002882CA53D1400E946E06C55CDE4F88839E
:101C0000CB53D1400E94A406382E882311F05E9A4F
:101C100001C05E98C45CDE4F3882CC53D140C857B7
:101C2000DE4FE880C858D140C35CDE4FE882CD5318
:101C3000D14036E0CB57DE4F3883C558D1401061D4
:101C40007894822D90E0BC01660F771F660F771F96
:101C5000CF55DE4F79836883C15AD14034E0C257F3
:101C6000DE4F3883CE58D1403FE0C357DE4F388334
:101C7000CD58D14043E0842E31E0CA57DE4F38833F
:101C8000C658D140912CC957DE4F3883C758D14030
:101C900035E0C557DE4F3883CB58D140BE01665082
:101CA0007F4FCD57DE4F79836883C358D140DC0125
:101CB0001197C757DE4FB983A883C958D140E9E1CE
:101CC000F1E0EC0FFD1FEA0FFB1FCA56DE4FF98350
:101CD000E883C659D140CB018F0D911D9C01215045
:101CE0003109C856DE4F39832883C859D1406BED7E
:101CF00070E06C0F7D1F6A0F7B1FC656DE4F798325
:101D00006883CA59D1408CEB90E08C0F9D1F8A0FDD
:101D10009B1FC456DE4F99838883CC59D140EDE98F
:101D2000F0E0EC0FFD1FEA0FFB1FC256DE4FF983F8
:101D3000E883CE59D1408091D101882369F0DFB684
:101D4000F8941092D1010E94A406382E882311F035
:101D50005E9A01C05E98DFBE8091C000881F882710
:101D6000881F80FB10F910FF5CC1DFB6F8941E7F5E
:101D7000289A0E94DB0789838F3F59F40E94DB0772
:101D80008A830E94DB078B830E94DB078C831D8282
:101D900055C0982F9D7F983021F08D3011F08F37EE
:101DA00011F419824BC00E94C80689830E94E9067B
:101DB000C12C0E94DB070E94C806982F8D3039F095
:101DC0008A3029F0883029F18F3719F101C090E06D
:101DD000E2E0F0E0EC0FFD1FEC0DF11D9083892F88
:101DE000CD55DE4F9883C35AD1400E94E906CD55A8
:101DF000DE4F9881C35AD140992311F40C940018F6
:101E0000C394FCE1FC15A8F682E990E00E940F075C
:101E100011C0C1100C94A41A1A828BEE94E00E9497
:101E20000F0789EE94E00E940F0784EE94E00E9471
:101E30000F07198282ED94E00E940F0767E171E0BD
:101E4000CE0101960E94D406882311F012601F7EF5
:101E50006CE171E0CE0101960E94D406811100620E
:101E600066E271E0CE0101960E94D406882311F04B
:101E700018601F7E61E271E0CE0101960E94D406D7
:101E8000882311F010641F7E6BE271E0CE01019691
:101E90000E94D406882341F0F11006C0211004C02E
:101EA000026001600460106862E371E0CE01019697
:101EB0000E94D406882321F0F11001C0211008608F
:101EC00067E371E0CE0101960E94D40681110E9461
:101ED00096086BE371E0CE0101960E94D406811151
:101EE000006160E471E0CE0101960E94D406811188
:101EF000006465E471E0CE0101960E94D406811170
:101F000007C068E471E0CE0101960E94D4068111F9
:101F1000006861E571E0CE0101960E94D406882335
:101F200069F081EA94E00E940F070E94F3070E9483
:101F3000000880916F00816080936F0066E571E01A
:101F4000CE0101960E94D406882379F080E794E0C0
:101F50000E940F071092CA010E94FA0780916F0039
:101F60008E7F80936F000E94F30789818F3F09F075
:101F70004EC0BA808B0D8E3108F049C0CB80AA24A8
:101F8000AA94AC0C2FE0E22EEA1408F440C0EC80D6
:101F90006B2D80E00E94EE046C2D0E94EE04E8128E
:101FA00036C086E6C85CDE4F8883C853D140C75C24
:101FB000DE4FB882C953D140C65CDE4FC882CA53D7
:101FC000D14085E0C55CDE4F8883CB53D1401061A2
:101FD000FB1017C0EFE5F0E0EC0FFD1FEA0DF11D5F
:101FE000808181110EC012FD0CC0C75ADE4FC8821D
:101FF000C955D140146031E0C557DE4F3883CB5806
:10200000D14034E0CB57DE4F3883C558D1402898B3
:10201000898181508E3F20F48DE694E00E940F0765
:10202000DFBE06FF53C0EFB6F8940F7BC457DE4FF8
:102030008881CC58D1400E94E105C857DE4F888383
:10204000C858D14080E694E00E940F07C857DE4F81
:102050003881C858D140303819F48BE594E010C06D
:1020600044E0C857DE4F3881C858D140632F7727E6
:1020700067FD7095872F972F0E949D0788E594E054
:102080000E940F0783E594E00E940F0784E7C85C75
:10209000DE4F8883C853D14085E6C75CDE4F888316
:1020A000C953D1408DE6C65CDE4F8883CA53D14008
:1020B00080E7C55CDE4F8883CB53D1401061EFBE13
:1020C00034E0CB57DE4F3883C558D14007FF1AC0E4
:1020D000DFB6F8940F7782E494E00E940F0787E35D
:1020E00094E00E940F0783E294E00E940F0765E4EA
:1020F00070E080E090E00E941E078FE194E00E9473
:102100000F07DFBE11FF2EC1CFB6F8941D7F0E94CE
:10211000F3070E94FA070E9496088DE992E00E9458
:102120000F078AE692E00E940F07BE016A587E4FB1
:10213000CE0181960E94580581110CC084E692E080
:102140000E940F0786E492E00E940F0780E492E06D
:102150000E940F078AE392E00E940F0785E292E057
:102160000E940F078FE192E00E940F0769A165347A
:1021700031F070E080E090E00E941E0704C088E12A
:1021800092E00E940F0785E192E00E940F078FE026
:1021900092E00E940F078AEF91E00E940F0784EF00
:1021A00091E00E940F07CA58DE4F6881C657D140A0
:1021B000653631F070E080E090E00E941E0704C0B8
:1021C0008DEE91E00E940F078AEE91E00E940F07CA
:1021D00084EE91E00E940F07CA58DE4F8881C657EF
:1021E000D14099A1891306C0811104C080EB91E010
:1021F0000E940F078BEA91E00E940F0782E491E0B2
:102200000E940F070E94DB078823E1F3282FCD559A
:10221000DE4F2883C35AD1400E94E9068FE391E044
:102220000E940F07D12CCD55DE4F2881C35AD140D3
:102230008CE391E0CD55DE4F2883C35AD1400E94F4
:102240000F07CD55DE4F2881C35AD140253561F1A6
:1022500028F4233551F02435E1F165C02437C9F164
:10226000253711F1233709F05EC083E291E00E9427
:102270000F078DE191E00E940F07CA58DE4FB8802A
:10228000C657D1400E945E08CA58DE4F8883C657A1
:10229000D14087E191E00E940F07CA58DE4F888144
:1022A000C657D14025E712C08EEF90E00E940F077D
:1022B00088EF90E00E940F07B9A00E945E0889A3F2
:1022C00082EF90E00E940F0789A123E78B1129C0BC
:1022D0002AC0CA58DE4F8881C657D140882389F06A
:1022E00089A1882371F082ED90E0CD55DE4F2883DF
:1022F000C35AD1400E940F07CD55DE4F2881C35AE3
:10230000D140CA58DE4F8881C657D14099A1CA58DA
:10231000DE4F1882C657D14019A2911102C08823FE
:1023200011F0DD24D394CA58DE4F6881C657D140DE
:1023300089A131E0611101C030E091E0811101C05B
:1023400090E0391375CFDD2041F00E94060881EC42
:1023500090E00E940F07006104C08FE990E00E94A6
:102360000F07CFBE03FF10C08FB7F894077FFE01A1
:10237000E15AFF4FCF57DE4F9881C158D140905F4F
:1023800011929E13FDCF8FBF13FFF6C0CFB6F89406
:10239000177F89E6C85CDE4F8883C853D14084E646
:1023A000C75CDE4F8883C953D14080E3C65CDE4FF3
:1023B0008883CA53D1400E94F3070E94FA0780E144
:1023C00094E00E940F070E94DB07982F8823D9F31F
:1023D000CD55DE4F9883C35AD1400E94E906CD55B2
:1023E000DE4F9881C35AD140C85CDE4F9883C853F2
:1023F000D140963661F0993609F0A9C033E0CB5749
:10240000DE4F3883C558D140DD24D39480C0DD240D
:10241000D39481E094E00E940F070E94DB07E82E2E
:102420008823D9F30E94E90680ED8E0DE82EEE0C8C
:102430008E2D880F880FE80E0E94DB07B82E8823A8
:10244000D9F30E94E906EB0C8DEF93E00E940F0791
:102450008FEC8E0D8E3170F460EDE60E6E2D70E017
:1024600080E090E00E941E07C75CDE4FE882C953FF
:10247000D14005C08BEE93E00E940F07D12C8CED6C
:1024800093E00E940F070E94DB07E82E8823D9F310
:102490000E94E90680ED8E0DE82EEE0C8E2D880F41
:1024A000880FE80E0E94DB07B82E8823D9F30E941C
:1024B000E906EB0C88ED93E00E940F078FEC8E0D80
:1024C0008E31D0F470EDE70E6E2D70E080E090E07C
:1024D0000E941E07C65CDE4FE882CA53D14085E0E9
:1024E000C55CDE4F8883CB53D14034E0CB57DE4F01
:1024F0003883C558D1400BC086EC93E00E940F078B
:1025000033E0CB57DE4F3883C558D140D12C82EC15
:1025100093E00E940F07DD2021F11061C75CDE4FC0
:102520008881C953D140F8121DC0C65CDE4F888136
:10253000CA53D140C75ADE4F8883C955D140146071
:1025400031E0C557DE4F3883CB58D1400BC082EC09
:1025500093E00E940F0733E0CB57DE4F3883C55816
:10256000D1401F7E8091C00087FF03C08091C600CC
:10257000F9CF0E940008CFBE16FFBCC1EFB6C0560F
:10258000DE4FE882C05AD140F8941F7B0E94960823
:1025900081E993E00E940F078CE793E00E940F0708
:1025A0008AE693E00E940F0784E693E00E940F07FB
:1025B0008FE093E00E940F079E0122583F4FCC56B8
:1025C000DE4F39832883C459D140235A3F4FCF5619
:1025D000DE4F39832883C159D140BE01675E7E4FEB
:1025E0005B01CE0184549F4F6C012E533109C157BA
:1025F000DE4F39832883CF58D140412C512C3201F2
:102600004394C157DE4F3881CF58D140C158DE4F77
:102610006881CF57D140361BCD56DE4F3883C35922
:10262000D140393018F480E30E94E906C301B201B9
:102630000E941E078CE093E00E940F07D501EC90EA
:10264000E11005C088E093E00E940F0714C0B3E6D4
:10265000BE1558F086E093E00E940F07E9E0EE1502
:1026600020F084E093E00E940F076E2D70E080E080
:1026700090E00E941E0781E093E00E940F07CF5672
:10268000DE4FA881B981C159D1408D91CF56DE4F1F
:10269000B983A883C159D1406AE00E941D1BE92E6D
:1026A000811105C08CEF92E00E940F0711C0682FC6
:1026B00070E080E090E042E00E949D078AEF92E0A7
:1026C0000E940F076E2D70E080E090E00E941E07D0
:1026D00087EF92E00E940F07F501E1905F01EE2085
:1026E00029F0D6018C910E94E90604C085EF92E0A2
:1026F0000E940F0782EF92E00E940F07C157DE4F42
:10270000E881F981CF58D1406191C157DE4FF983FB
:10271000E883CF58D140603849F0772767FD70953E
:10272000872F972F44E00E949D0709C0EE2019F0E3
:102730008DEE92E002C088EE92E00E940F0785EED7
:1027400092E00E940F07CC56DE4FA881B981C45990
:10275000D140ED90CC56DE4FB983A883C459D14007
:10276000EE2099F0B3E6BE151CF082EE92E002C0B6
:1027700080EE92E00E940F076E2D772767FD70951F
:10278000872F972F0E941E0704C08BED92E00E94B6
:102790000F07CD56DE4F8881C359D14063E00E94B8
:1027A0001D1B923019F488ED92E002C082ED92E098
:1027B0000E940F07EFEFCE1ADE0AFFEF4F1A5F0AF3
:1027C0006F0A7F0A2FE1421651046104710409F077
:1027D00018CF8DEC92E00E940F07992021F087EC32
:1027E00092E00E940F078CEA92E00E940F07692D89
:1027F00070E080E090E00E941E07992021F086EAB8
:1028000092E00E940F0783EA92E00E940F07DE0128
:10281000A650BF4F81E0C758DE4F2881C957D1402D
:10282000225EFE01E75EFE4F90E03191381301C059
:102830009F5F2E13FACF9D938F5F8F3191F786EABA
:1028400093E00E940F07BE0166507F4F6B01412C41
:10285000512C32014394BC2CCD57DE4F7881C358A4
:10286000D140B71A88E08B1518F080E30E94E90682
:10287000C301B2010E941E0783EA93E00E940F0782
:10288000D6016D916D01611105C08FE993E00E9441
:102890000F0706C070E080E090E043E00E949D07D3
:1028A0008B2D63E00E941D1B923029F48CE993E08C
:1028B0000E940F0709C0BAE1BB2E8AE993E00E948B
:1028C0000F07BA94B110F9CFBFEF4B1A5B0A6B0A2E
:1028D0007B0AEFE14E1651046104710409F0BBCF8D
:1028E00087E993E00E940F07C056DE4FE880C05A88
:1028F000D140EFBE202F2071D22E04FF1AC0F894D1
:10290000F1100AC0211008C060E081E00E949F041D
:102910008BE591E00E94D1040E9496089CE088E13A
:102920000FB6F894A895809360000FBE9093600056
:10293000FFCF05FD0AC014FF69C3C85CDE4F888164
:10294000C853D140893609F01AC3CFB6F8940F7D29
:10295000BE0166507F4F3E013EE7630E711CCE0103
:1029600083569F4F9E0124543F4FAE0145525F4F07
:10297000FE01E75EFE4FA0E8AA2EC758DE4FB880E2
:10298000C957D140AEE1BA0E1192DB011D92BD01D3
:10299000DA011D92AD01D9011D929D01DC01AD92BC
:1029A000CD01D3011D923D01BE12EECFF11002C048
:1029B0002220E9F1CA56DE4FE881F981C659D1409B
:1029C000F08281E0C856DE4FA881B981C859D14054
:1029D0008C930E946E06C656DE4FE881F981CA5973
:1029E000D1408083311002C08EE601C08AE6C45611
:1029F000DE4FA881B981CC59D1408C93C857DE4FA6
:102A0000E880C858D140C256DE4FE881F981CE59DE
:102A1000D140E082EEE7F0E0EC0FFD1FC757DE4F3C
:102A200028813981C958D140E20FF31F1082CFBEEF
:102A3000C957DE4F3881C758D140912C311112C08F
:102A40008091CA0190E0CF55DE4F68817981C15AEB
:102A5000D1406817790734F0C957DE4F1882C7583C
:102A6000D1400DC014FD93C28091CA018E3708F089
:102A70008EC231E0C957DE4F3883C758D14012FFAC
:102A800066C0CFB6F8941B7FC557DE4F8881CB5800
:102A9000D140815031F0A9E9B9E61197F1F700C0B2
:102AA000F8CF23B121704F9922604D9924604E993F
:102AB00028605D9A5F9A5E9A289A332089F1C75AF6
:102AC000DE4FB880C955D1408FEF8B0D803140F576
:102AD00030E180E090E0880F991F3B1101C08160D8
:102AE0003150C9F7CD55DE4F2883C35AD1400E94DB
:102AF000A608E9E9F9E63197F1F700C080E090E037
:102B00000E94A608EFE5F0E0EC0FFD1FEB0DF11DB4
:102B1000319781E08083CD55DE4F2881C35AD14063
:102B2000CD55DE4F2883C35AD1400E94DB03CD55DB
:102B3000DE4F2881C35AD14020FD289A21FD5F9A9B
:102B400022FD5D9A23FD5E9A0E942309CFBE2A983A
:102B500060E08FEF98E20E94E4082A9A82FF03C0A7
:102B60008095817001C080E080FB15F915FF93C14D
:102B7000BFB6F8941F7D5D9A60E08FEF9FE60E94DC
:102B8000E408882399F060E08FEF94E20E94E40863
:102B9000C82E0E94FC082A9880E00E94DE088FEF71
:102BA0000E94DE088F31D8F08EE119C061E081E02B
:102BB00093E20E94E408412C60E6562E69E0662EFE
:102BC000712C60E08FEF93E20E94E40881FDDBCF7F
:102BD000F1E04F1A51086108710899F7D4CF89A321
:102BE000AA24A39489A18A1560F08FEF0E94DE08C1
:102BF000E1E2F0E0EC0FFD1FEA0DF11D8083A394EC
:102C0000F1CF2A9A89A18E3108F08DE1DE019296EA
:102C1000FE01E95AFE4F9E2FC958DE4FE880C75784
:102C2000D1409E19981718F49D919193F4CFE7E540
:102C3000F1E0EC0FFD1FE80FF11D108261E080E173
:102C400098E20E94E4080E9423095D98C95ADE4F69
:102C50008881C755D140893609F442C018F48636B8
:102C6000B1F016C1803709F4BBC0843709F010C138
:102C70000E94BA03C457DE4F8883CC58D1400E94CB
:102C8000E105C857DE4F8883C858D14001C1C85AF2
:102C9000DE4F8881C855D1408F11FAC0F11003C0B2
:102CA000222009F4F5C0C75ADE4F8881C955D140AA
:102CB0008150EFE5F0E0EC0FFD1FE80FF11D808182
:102CC0008111E6C012FDE4C01460C65ADE4F38819F
:102CD000CA55D140C557DE4F3883CB58D140D8C0F4
:102CE00080E7C85CDE4F8883C853D140C75CDE4FA5
:102CF000F882C953D140C65CDE4F2882CA53D14006
:102D0000F11002C0222019F00E946E0601C082E379
:102D1000C55CDE4F8883CB53D140F11001C0211038
:102D2000D32CC45CDE4FD882CC53D140C857DE4F81
:102D3000E880C858D140C35CDE4FE882CD53D14013
:102D40000E94F3071092CA0180916F008160809306
:102D50006F000E94000810610860F11003C022207B
:102D600009F48BC0CA56DE4FA881B981C659D1403B
:102D7000FC9281E0C856DE4FE881F981C859D14004
:102D800080830E946E06C656DE4FA881B981CA595B
:102D9000D1408C93311002C08EE601C08AE6C45641
:102DA000DE4FE881F981CC59D1408083C857DE4F8E
:102DB000E880C858D140C256DE4FA881B981CE59AB
:102DC000D140EC92EEE7F0E0EC0FFD1FC757DE4F6D
:102DD00028813981C958D140E20FF31F10824DC0BC
:102DE000C75ADE4FE881C955D140E53421F0EE23C2
:102DF00011F0E21102C093944BC0E150F0E0A9E160
:102E0000B1E0AC0FBD1FAE0FBF1FC85ADE4F8881A7
:102E1000C855D1408C93ABEDB0E0AC0FBD1FAE0FE9
:102E2000BF1FC65ADE4F8881CA55D1408C93C55A00
:102E3000DE4F8881CB55D140811102C08EE601C0A2
:102E40008AE6ACEBB0E0AC0FBD1FAE0FBF1F8C939A
:102E5000ADE9B0E0AC0FBD1FAE0FBF1FC45ADE4FCF
:102E60008881CC55D1408C936EE770E06C0F7D1F4C
:102E7000E60FF71FC694C0820BC0C957DE4F1882F9
:102E8000C758D14036E0CB57DE4F3883C558D140C4
:102E900010680260BFBEF1100C949B0E21100C94C0
:102EA0009B0E8091CF019091D0018C3F910578F4D9
:102EB0008091CD019091CE018C3F910540F480919D
:102EC000CB019091CC01823F924008F4A8C017FD3D
:102ED000A6C0DFB6F8948091CF019091D0018C3FCD
:102EE000910540F48091CD019091CE018C3F9105E8
:102EF00020F112C01092D0011092CF0161E081E068
:102F00000E947F0454E1C52E87E891E00E94D1041D
:102F1000CA94C110F9CFE6CF1092CE011092CD0124
:102F200061E082E00E947F0444E1C42E87E891E0E2
:102F30000E94D104CA94C110F9CF8091CB01909125
:102F4000CC01823F9240C8F01092CC011092CB018C
:102F500061E083E00E947F0434E1C32E86E891E0C3
:102F60000E94D104CA94C110F9CF23E0822E31E02F
:102F7000CA57DE4F3883C658D140DFBE50C0C9574C
:102F8000DE4F3881C758D140332309F459CDCFB62D
:102F9000F8941F7E5F9A5E0178ECA71A7EEFB70A5D
:102FA000CB57DE4F6881C558D140C5010E944A0900
:102FB000D5018C91863679F05F988091CA018D3762
:102FC000C8F40E94FA070E94F30780916F008E7F79
:102FD00080936F000FC0F501838181508383882324
:102FE00059F3CB57DE4F6881C558D140C5010E94C7
:102FF0004A09F1CF1092CA0110680160CFBE39CDE5
:10300000CC2011F40C940D0F0C94040FC957DE4F13
:10301000E880C758D140EE2009F412CD25CD17FD28
:1030200002C00C949B0EDFB6F8941F7700FFAEC170
:1030300061E081E00E947F048DE691E00E94D1046E
:10304000C85CDE4F8881C853D140893609F4B6C0C8
:1030500030F4813609F406C1863659F090C18237C2
:1030600009F486C1843709F486C1803709F087C125
:10307000FCC061E080E00E949F0482E791E00E9432
:10308000D104C75CDE4F6881C953D14070E080E055
:1030900090E022E0AE01405C5F4F0E94AB1ACE018F
:1030A000805C9F4F0E94D10485E791E00E94D1048B
:1030B000C65CDE4F6881CA53D14070E080E090E08A
:1030C00022E0AE01405C5F4F0E94AB1ACE01805CF3
:1030D0009F4F0E94D10485E891E00E94D10402FD37
:1030E000BFC0C357DE4F6881CD58D140C257DE4FB5
:1030F0008881CE58D1400E947F0487E891E00E94E9
:10310000D104CA57DE4F6881C658D140882D0E942D
:103110007F0489E791E00E94D104C75CDE4F68819B
:10312000C953D14070E080E090E022E0AE01405C05
:103130005F4F0E94AB1ACE01805C9F4F0E94D1046A
:1031400061E080E00E949F04C65CDE4F6881CA5344
:10315000D14070E080E090E022E0AE01405C5F4F43
:103160000E94AB1ACE01805C9F4F0E94D104CA57C7
:10317000DE4F8881C658D140895F21E0863108F44E
:1031800020E0280D65E10E941D1B253008F023E09A
:1031900041E050E05093CC014093CB01C257DE4F49
:1031A0008882CE58D140CA57DE4FE880C658D140F9
:1031B000C357DE4FE882CD58D1404CC08BE791E039
:1031C0000E94D10402FD4CC0C357DE4F6881CD5828
:1031D000D140C257DE4F8881CE58D1400E947F0433
:1031E00087E891E00E94D104CA57DE4F6881C65833
:1031F000D140882D0E947F0489E791E00E94D1048C
:1032000089E891E00E94D104CA57DE4F8881C658F0
:10321000D140895F21E0863108F420E0280D65E186
:103220000E941D1B253008F023E041E050E0509340
:10323000CC014093CB01C257DE4F8882CE58D1409B
:10324000CA57DE4F3881C658D140C357DE4F388346
:10325000CD58D140822ECA57DE4F9883C658D140F0
:103260000B7F8DC08FE891E088C083E791E00E94DA
:10327000D104C75CDE4F6881C953D14070E080E063
:1032800090E022E0AE01405C5F4F0E94AB1ACE019D
:10329000805C9F4F0E94D10482E991E00E94D1049A
:1032A000C65CDE4F6881CA53D14070E080E090E098
:1032B00022E0AE01405C5F4F0E94AB1ACE01805C01
:1032C0009F4F0E94D10487E891E00E94D104C55C21
:1032D000DE4F8881CB53D140843620F487E891E0DB
:1032E0000E94D104C55CDE4F8881CB53D1409AE067
:1032F000C92E6C2D0E941D1B682F70E080E090E0AD
:1033000021E0AE01405C5F4F0E94AB1ACE01805CB1
:103310009F4F0E94D10485E991E00E94D104C55CD1
:10332000DE4F8881CB53D1406C2D0E941D1B692F2D
:1033300070E080E090E021E0AE01405C5F4F0E94D1
:10334000AB1ACE01805C9F4F0E94D10487E991E0C7
:103350000E94D104C45CDE4F8881CC53D1408111DE
:1033600002C08EE601C08AE661E00E949F0407C0A9
:103370008AE991E002C081EA91E00E94D1040E7FC7
:1033800081E090E09093D0018093CF0101FFD9C0FC
:1033900061E082E00E947F048FEA91E00E94D10404
:1033A000C95ADE4F8881C755D1408636B9F040F4FE
:1033B000813689F0853609F0BDC081EC91E03EC0D0
:1033C000803709F441C08237E1F1893609F0B2C093
:1033D00088EB91E033C084EB91E030C061E080E0A5
:1033E0000E949F0482E791E00E94D104C85ADE4FF8
:1033F0006881C855D14070E080E090E022E0AE01E5
:10340000405C5F4F0E94AB1ACE01805C9F4F0E94D0
:10341000D10485E791E00E94D104C75ADE4F68814C
:10342000C955D14070E080E090E022E0AE01405C00
:103430005F4F0E94AB1ACE01805C9F4F0E94D10467
:1034400079C085EC91E0FACF83E791E00E94D10446
:10345000C85ADE4F6881C855D14070E080E090E0E6
:1034600022E0AE01405C5F4F0E94AB1ACE01805C4F
:103470009F4F0E94D10482E991E00E94D104C75A73
:10348000DE4F6881C955D14070E080E090E022E0D5
:10349000AE01405C5F4F0E94AB1ACE01805C9F4F33
:1034A0000E94D10487E891E00E94D104C65ADE4F01
:1034B000C880CA55D14063E66C1520F087E891E0DA
:1034C0000E94D1048C2D6AE00E941D1BC92E682F1A
:1034D00070E080E090E021E0AE01405C5F4F0E9430
:1034E000AB1ACE01805C9F4F0E94D10485E991E028
:1034F0000E94D1046C2D70E080E090E021E0AE01EC
:10350000405C5F4F0E94AB1ACE01805C9F4F0E94CF
:10351000D10487E991E00E94D104C55ADE4F888129
:10352000CB55D140811102C08EE601C08AE661E030
:103530000E949F040D7F81E090E09093CE018093E4
:10354000CD01DFBE0C949B0ECA9485E990E00E94E9
:103550000F070C94010F4F925F926F927F929F9290
:10356000AF92BF92CF92DF92EF92FF920F931F9391
:10357000CF93DF936B017C015A01D22F97FF0EC0CE
:103580008DE2FA018083F094E094D094C094C11C41
:10359000D11CE11CF11C9924939401C0912CD111F0
:1035A00001C0D1E0A7019601C1E09AE0492E512C5B
:1035B000612C712CCA01B901A30192010E943D1B2B
:1035C000211531054105510511F0CF5FF3CFCD171E
:1035D00008F4CD2FDC2FD90D8AE0482E512C612C18
:1035E000712C8D2F90E0D91591F08A0D9B1D8C01C7
:1035F00001501109C701B601A30192010E943D1BB0
:10360000605DF801608369017A01D150EACFAC0EA8
:10361000B11CF501E80FF91F1082DF91CF911F91C6
:103620000F91FF90EF90DF90CF90BF90AF909F9061
:103630007F906F905F904F900895991B79E004C040
:10364000991F961708F0961B881F7A95C9F78095E1
:10365000089597FB072E16F4009407D077FD09D044
:103660000E945C1B07FC05D03EF4909581959F4F0E
:103670000895709561957F4F0895052E97FB1EF470
:1036800000940E94541B57FD07D00E94701B07FC3A
:1036900003D04EF40C94541B5095409530952195D1
:1036A0003F4F4F4F5F4F089590958095709561956E
:1036B0007F4F8F4F9F4F0895AA1BBB1B51E107C03F
:1036C000AA1FBB1FA617B70710F0A61BB70B881FB2
:1036D000991F5A95A9F780959095BC01CD01089541
:1036E000A1E21A2EAA1BBB1BFD010DC0AA1FBB1F06
:1036F000EE1FFF1FA217B307E407F50720F0A21B78
:10370000B30BE40BF50B661F771F881F991F1A94E4
:1037100069F760957095809590959B01AC01BD010E
:08372000CF010895F894FFCFDA
:103728002020456C204675657261646F726F202099
:1037380000555555555500636F6E6600636C65619D
:10374800726C6973740073656E64006F726465727D
:1037580073007A65726F00636C73006B696C6C0040
:1037680074656D700068770068617264776172656E
:1037780000696E743100696E743000526573657447
:1037880074696E6720646576696365210054783AC8
:1037980020002053002043480078004964656E7477
:1037A8006966792020202020004944454E54004F66
:1037B8004B002055002E00562000524550454154DC
:1037C8000054656D702E20726566726573680052CC
:1037D800783A20004F4B20004964656E7469667919
:0A37E8000045525200524550000007
:00000001FF
