:100000000C947E020C949B020C949B020C949B0219
:100010000C94130A0C949B020C949B020C949B026C
:100020000C949B020C949B020C949B020C949B02DC
:100030000C949B020C94800A0C949B020C949B02DF
:100040000C94220A0C949B020C949B020C949B022D
:100050000C949B020C949B020C949B020C949B02AC
:100060000C949B020C949B021B5B33376D000A0DB2
:100070004665686C6572206265696D204C616465D7
:100080006E20646572204944730A0D001B5B333196
:100090006D000A0D000A0D4B65696E6520C46E6423
:1000A0006572756E67656E20766F7267656E6F6DCF
:1000B0006D656E0A0A0D000A0D4E657573746172E6
:1000C000742E2E2E0A0A0D00446576696365206938
:1000D0007374206A65747A74205472616E736D69EA
:1000E00074746572210A0D001B5B33376D001B5B56
:1000F00033316D004E65756520556E697175652DDE
:100100004944202830312D3330293A20001B5B33FD
:10011000376D001B5B33316D004E65756520536C88
:100120006176652D4944202830312D3330293A201D
:1001300020000A0D000A0D002855296E69717565A9
:100140002D494420E46E6465726E2C202853296C7E
:100150006176652D494420E46E6465726E2C200A38
:100160000D7A752028542972616E736D69747465F7
:1001700072206D616368656E2C20416262727563E6
:1001800068206D69742062656C6965626967657273
:1001900020616E64657265722054617374652120FC
:1001A000000A0A0A0D000A0A0D4465766963652093
:1001B000697374206465727A65697420616C732058
:1001C0005472616E736D6974746572206B6F6E66C4
:1001D00069677572696572742E001B5B33376D0039
:1001E0000A0D004645484C4552001B5B33316D00FB
:1001F000416B7475656C6C6520536C6176652D4937
:10020000443A2020001B5B33376D000A0D00464541
:10021000484C4552001B5B33316D00416B74756572
:100220006C6C6520556E697175652D49443A2000E6
:100230001B5B33376D001B5B33376D000A0D466562
:10024000686C6572206265696D204C6164656E2022
:10025000646572204944730A0D001B5B33316D00E5
:100260000A0A4B6F6E66696775726174696F6E73A7
:1002700070726F6772616D6D0A0D3D3D3D3D3D3D94
:100280003D3D3D3D3D3D3D3D3D3D3D3D3D3D3D3D9E
:100290000A0D001B5B33336D000A0D001B5B333707
:1002A0006D004665686C65726861667465204944D6
:1002B000733A20001B5B33316D000A0D0A0D0020DC
:1002C00020202020000A0D002D2D2D2D002D002096
:1002D0002D002C20002D2D2D2D006E2E612E002C9A
:1002E00020002D002C20002E002D2D2D2D002C2047
:1002F00000300020002D2D2D003A20000A0A0D5557
:100300006E697175652D49443A20536C6176652D8F
:1003100049442C2042617474657269657370616E22
:100320006E756E67202856292C20536368617266AB
:100330003F2C2054656D706572617475722028B011
:1003400043292C2052535349202864426D290A0D19
:10035000001B5B33376D003D3D3D3D3D3D3D3D3D2B
:100360003D3D3D3D3D3D0A0D000A0A0D5379737434
:10037000656DFC62657273696368740A0D001B5BCE
:1003800033336D000A0D0020000A0D002D2D2D00C5
:100390003A20000A0A0D536C6176652D49443A20D3
:1003A000416E7A61686C20426F78656E0A0D000AB2
:1003B0000A0D00556E67FC6C746967652045696EAF
:1003C0006761626500203D20000A0D4B616E616C23
:1003D0003A20202020202000556E67FC6C7469674D
:1003E000652045696E6761626500203D20000A0D49
:1003F000536C6176652D49443A202020000A0D4D4A
:100400006F64757328662F69293A20000A0D0A0D5A
:1004100000B043006E2E612E0054656D70657261F0
:100420007475723A20000A0D000A0A0D5769656456
:100430006572686F6C7465732053656E64656E20B9
:10044000646573206C65747A74656E2042656665B8
:10045000686C73204155530A0D000A0A0D576965EF
:10046000646572686F6C7465732053656E64656E45
:1004700020646573206C65747A74656E20426566CD
:1004800065686C732045494E0A0D0045696E20462B
:1004900065686C6572206973742061756667657440
:1004A000726574656E2E2042697474652065726E83
:1004B0006575742076657273756368656E210A0DC3
:1004C000000A0A0DC46E646572756E6720657266F7
:1004D0006F6C67726569636820FC6265726E6F6D30
:1004E0006D656E210A0D001B5B334A001B5B303BC0
:1004F0003048001B5B324A002D00200011241FBE33
:10050000CFEFD4E0DEBFCDBF11E0A0E0B1E0E0E985
:10051000F3E302C005900D92A23CB107D9F721E0A8
:10052000A2ECB1E001C01D92AA3CB207E1F70E9423
:10053000910A0C94C6190C940000F999FECF72BD73
:1005400061BD80BDFA9AF99A12BC11BC0895F9995F
:10055000FECF92BD81BDF89A80B512BC11BC089542
:10056000219A90E19A95F1F700C0811121989EE2BD
:100570009A95F1F7199B80E096E89A95F1F700C0FB
:1005800021980895CF93DF93C82FD8E08C2F8170E6
:100590000E94B002C6958111C068D150B9F78C2F66
:1005A000DF91CF910895CF93C82F219A8CEC94E0DE
:1005B0000197F1F700C00000219898ED9A95F1F7A6
:1005C0000000199905C08AE294E00197F1F700C094
:1005D0008CEC0E94C2028C2FCF910C94C20280E05E
:1005E00090E8A5E2B0E02091C00027FD08C0019787
:1005F000A109B1090097A105B105A9F709C0892B87
:100600008A2B8B2B29F05A9A8091C6005A9808950C
:1006100080E008950F931F9380917C00887F8093E2
:100620007C0080917C00856080937C0068E000E025
:1006300010E0980180917A00806480937A00809124
:100640007A0086FDFCCF8091780090917900080FA8
:10065000191F211D311D615069F7A90198012C5FF7
:100660003F4F4F4F5F4F83E05695479537952795FE
:100670008A95D1F7A5E0B0E00E947619605F7F4FC0
:100680008F4F9F4F25E096958795779567952A958B
:10069000D1F7862F1F910F91089535B516BC81E0D3
:1006A00085BB80EA86BD85E085BD80E095E541E0BB
:1006B00050EA2FEF290F2E3F68F4990F21E0349B69
:1006C00020E0922BA89BFECF45BB56BD883088F713
:1006D0008F5FEFCF883088F335BD81E0911180E0E6
:1006E0000895CF93DF93FC01DF01EB018991BE01F7
:1006F000882329F031969C919817B1F303C081E0CB
:100700009081911180E0DF91CF91089540E050E811
:1007100065E270E04B9B0AC04150510961097109C3
:100720004115510561057105A9F719C0452B462BE7
:10073000472BA9F040E050E865E270E09091C000DE
:1007400095FD09C0415051096109710941155105D3
:100750006105710599F78093C60080E0089581E0F6
:100760000895CF93DF93D3E680ED8D0F843020F092
:100770000E94EF02D82FF8CF8D2F0E948603C3E688
:10078000D03341F48FEC8C0F893020F00E94EF02BF
:10079000C82FF8CF8FEC8D0F823040F480ED8C0F96
:1007A0008A3058F00E94EF02C82FF8CFD33329F4D3
:1007B0000E94EF02C82F8033D9F78C2F0E94860346
:1007C0008C2F9AE0D99F800D11248051DF91CF9119
:1007D0000895CF93DF93EC01FE018491882329F0E3
:1007E0000E94860321968823B9F3DF91CF91089563
:1007F0004F925F926F927F928F929F92AF92BF9231
:10080000CF92DF92EF92FF920F931F93CF93DF93DC
:10081000CDB7DEB7A1970FB6F894DEBF0FBECDBF40
:100820006B017C018E010F5F1F4F81E2F801119275
:100830008A95E9F7C701B601992493944AE0442EBA
:10084000512C612C712CA30192010E945719CA01ED
:10085000B901211531054105510511F09394F3CFEC
:10086000892CF7FE0CC088EF94E00E94E903F09415
:10087000E094D094C094C11CD11CE11CF11C3AE05E
:10088000432E512C612C712C992081F05E01A90C12
:10089000B11CC701B601A30192010E945719605D06
:1008A000F501608369017A019A94EECF78018E2D6B
:1008B000801B881530F4F70181917F010E94860327
:1008C000F6CFA1960FB6F894DEBF0FBECDBFDF9175
:1008D000CF911F910F91FF90EF90DF90CF90BF903D
:1008E000AF909F908F907F906F905F904F90089502
:1008F0008F929F92AF92BF92CF92DF92EF92FF9230
:10090000CF93DF936B017C01C42FD0E05AE0852E9A
:10091000912CA12CB12C611571058105910541F037
:10092000A50194010E945719CA01B901DF5FF3CFF5
:10093000F7FE02C0C111C150CD1770F4C701B60156
:10094000DF91CF91FF90EF90DF90CF90BF90AF906D
:100950009F908F900C94F803CD1BD0E0DC1771F3BF
:100960008AEF94E00E94E903DF5FF8CF83EF94E021
:100970000E94E9038CEE94E00E94E90387EE94E084
:100980000C94E903419A389A399A3A9A3B9A4098DA
:100990004298439893E028E034E084E126B926B9F0
:1009A0008150E1F736B936B99150B9F72FEF8FE79B
:1009B00091E0215080409040E1F700C000C0419894
:1009C000089540984398429860E120E030E878E04C
:1009D000A90148235923452B09F0409A76B976B9E5
:1009E000409836952795615099F784E086B986B985
:1009F00008958EBD0DB407FEFDCF8EB50895CF933B
:100A0000C82F662311F020E801C020E0822F892B37
:100A1000611101C0CFEF2D982B982A980E94F904FC
:100A20008C2F0E94F9042B982D982A9ACF91089523
:100A3000CF92DF92EF92FF9261E084E091E00E941A
:100A4000FF04C12CF0E8DF2EF5E2EF2EF12C60E080
:100A50008FEF97E20E94FF0487FD0AC081E0C81A69
:100A6000D108E108F108C114D104E104F10479F7D7
:100A7000FF90EF90DF90CF900895CF92DF92EF92AA
:100A8000FF9261E080E191E00E94FF04C12CB0E898
:100A9000DB2EB5E2EB2EF12C60E08FEF97E20E94A7
:100AA000FF0487FF07C0C12CA0E8DA2EA5E2EA2EDA
:100AB000F12C15C081E0C81AD108E108F108C11471
:100AC000D104E104F10441F7EECF81E0C81AD10866
:100AD000E108F108C114D104E104F10439F060E047
:100AE0008FEF97E20E94FF0486FFEFCFFF90EF9019
:100AF000DF90CF900895CF92DF92EF92FF921F93F5
:100B0000CF93DF93CDB7DEB76F970FB6F894DEBF04
:100B10000FBECDBF182FF92EE62E0E94180561E0FA
:100B200080E198E20E94FF046E2D6E3108F06DE1C5
:100B30006983312FDE011296E12FFF2D9A2F8B2F23
:100B40002E2F231B261718F421912D93F9CFE92F6F
:100B5000F82FE60FF11D10822A9880E80E94F90410
:100B60001981812F0E94F9041F3110F08EE18983D1
:100B700011E08981811758F0E1E0F0E0EC0FFD1FF2
:100B8000E10FF11D80810E94F9041F5FF2CF2A9AC4
:100B900061E08CE091E00E94FF04C12C90E8D92E26
:100BA00095E2E92EF12C60E08FEF97E20E94FF04BE
:100BB00087FF07C0C12C80E8D82E85E2E82EF12CF3
:100BC00015C081E0C81AD108E108F108C114D104A8
:100BD000E104F10441F7EECF81E0C81AD108E10841
:100BE000F108C114D104E104F10439F060E08FEFA1
:100BF00097E20E94FF0485FFEFCFC12C10E8D12EB1
:100C000015E2E12EF12C60E08FEF98E20E94FF04E4
:100C100083FD0AC081E0C81AD108E108F108C114B7
:100C2000D104E104F10479F70E943D0580E06F965C
:100C30000FB6F894DEBF0FBECDBFDF91CF911F91ED
:100C4000FF90EF90DF90CF9008955D985E985F9849
:100C500028980895289808954F925F926F927F92F6
:100C60009F92AF92BF92CF92DF92EF92FF920F933B
:100C70001F93CF93DF936B017C01EA01122F0111C7
:100C800003C097FF12C002C097FF02C08DE201C0EF
:100C90008BE28883F7FE08C0F094E094D094C0946F
:100CA000C11CD11CE11CF11C01E0111101C011E0BB
:100CB000C701B601992493943AE0432E512C612C3C
:100CC000712CA30192010E945719CA01B901211583
:100CD00031054105510511F09394F3CF911608F4B5
:100CE000912E192D100F2AE0422E512C612C712CBF
:100CF000A12EB12C101791F0AC0EBD1E81E0A81AE8
:100D0000B108C701B601A30192010E945719605DA5
:100D1000F501608369017A011150EACFC90DD11D37
:100D2000CA0DDB1D1882DF91CF911F910F91FF90AB
:100D3000EF90DF90CF90BF90AF909F907F906F909B
:100D40005F904F9008954398429841984098089535
:100D50001F93CF93DF931F92CDB7DEB7339B02C0B3
:100D600080E101C080E0329B02C090E201C090E0CF
:100D7000982B319B02C080E401C080E0982B309B0F
:100D800002C080E801C080E0192F182B439A429AD4
:100D9000419A409A3B983A98399838985C98459A85
:100DA00080E887FF39C0449A00000000339B02C0EE
:100DB00040E101C040E0329B02C030E201C030E0BF
:100DC000319B02C020E401C020E0309B02C090E8CB
:100DD00001C090E0449800000000449A0000000028
:100DE00086B183FB882780F9842B832B822B892B68
:100DF000329B02C092E001C090E0892B319B02C07F
:100E000094E001C090E0892B309B02C098E001C0C3
:100E100090E0892B4498C5CF45983B9A3A9A399AE5
:100E2000389A89830E94A306898114FD439A15FD8F
:100E3000429A16FD419A17FD409A0F90DF91CF918B
:100E40001F910895449A00C000C044980895CF931C
:100E5000C82F0E94A306C4FD439AC5FD429AC6FD51
:100E6000419AC7FD409A0E9422070E94A306C0FD36
:100E7000439AC1FD429AC2FD419AC3FD409ACF9167
:100E80000C942207853008F081E0653108F061E0BC
:100E9000282F30E0215031093595279545985C98E9
:100EA000809581708295880F880F807C815894E1AD
:100EB000299F800D1124860F0E9427070C94A806F5
:100EC000CF93DF931F92CDB7DEB74598611124C051
:100ED0005C9869830E9427070E94A806698166239F
:100EE000E9F00E94A806803481F028F48431B1F43E
:100EF00061E082E00CC0843529F0883679F461E045
:100F000081E005C061E083E002C061E084E00F9011
:100F1000DF91CF910C9442075C9ADBCF0F90DF9169
:100F2000CF910895CF93DF93EC018991882321F02D
:100F300061E00E946007F9CFDF91CF910895459855
:100F40005C9A0E9427070C94A8061F93CF93DF9307
:100F500000D000D000D0CDB7DEB719821A821B8234
:100F60001C8220E82D831E822198299824EA2A9544
:100F7000F1F7199B9BC0219AE3E3F3E13197F1F775
:100F80002198F1E2FA95F1F720E0199B08C02E3183
:100F900009F48EC031E23A95F1F72F5FF6CF29318F
:100FA00008F086C020E0199908C0293109F482C0F0
:100FB00051E25A95F1F72F5FF6CF293109F47AC043
:100FC00020E0199B08C0293109F476C0E1E2EA95D6
:100FD000F1F72F5FF6CF293109F46EC0FE0131968B
:100FE0009E012A5F3F4F18E042E3199907C0415024
:100FF00048F050E15A95F1F700C0F7CF411102C017
:1010000014E65FC04081440F408352E65A95F1F7E1
:101010000000199B02C04160408342E3199B07C056
:10102000415038F050E15A95F1F700C0F7CF442312
:1010300039F31150C9F63196E217F307A1F6298169
:101040005A814B81EC81352F320F340F3E0FFD81D9
:10105000F31334C0A42FAA1FAA27AA1FAA0F30E097
:10106000322F2227250F311D293EF3E03F0740F59F
:101070004F7750E0542F44274E0F511DE1E0F0E030
:10108000EA1BF109E49FD001E59FB00DF49FB00D7C
:101090001124AD0140575E4F433E544088F4FC019B
:1010A000B183A083FB01318320830BC011E009C011
:1010B00012E007C013E005C014E003C018EC01C043
:1010C00019EC812F26960FB6F894DEBF0FBECDBF68
:1010D000DF91CF911F9108950F931F93CF93DF93CB
:1010E00000D000D0CDB7DEB720E83FEF3C832B83A4
:1010F0008436D1F18F3609F04FC084E40E94D302C8
:1011000081E00E94B0028823D9F38EEB0E94D302C3
:101110008FEF0E94C202082F10E08FEF0E94C202E0
:10112000282F30E0322F2227200F311FC9018827B6
:10113000987F892B99F541E050E0C9010496220F70
:10114000331F220F331F820F931F03E0969587955D
:101150000A95E1F7849F9001859F300D949F300D93
:1011600011243C832B8307C0BE016F5F7F4FCE01EC
:1011700003960E94A5072B813C8137FF03C08BEFAC
:101180009FEF02C085E090E0820F931F6AE070E05D
:101190000E944319862F08C080E806C0319521952A
:1011A00031094FEF5FEFC9CF0F900F900F900F9065
:1011B000DF91CF911F910F910895682788E09CE8F7
:1011C000262F21706695211169278150C9F7862F36
:1011D00008957F928F929F92AF92BF92CF92DF92AB
:1011E000EF92FF920F931F93CF93DF93082F162F49
:1011F000C8E1D0E0E82EE60ECE010E94A702982EAC
:10120000CE0101960E94A702A82ECE0102960E944E
:10121000A702B82ECE0103960E94A702C82ECE01C7
:1012200004960E94A702D82ECE0105960E94A7021E
:10123000882E602F80E10E94DD08F82E612F80E16A
:101240000E94DD08782E612F8F2D0E94DD089012FC
:101250000AC0A11208C0BE1006C0CF1004C0D7102B
:1012600002C0881631F0A496C438D10529F680E072
:1012700001C081E0DF91CF911F910F91FF90EF901E
:10128000DF90CF90BF90AF909F908F907F90089508
:10129000CF92DF92EF92FF920F931F93CF93DF9342
:1012A000082F162FC82EC60E682F80E10E94DD0879
:1012B000F82E612F80E10E94DD08D82E612F8F2D3E
:1012C0000E94DD08E82EC8E1D0E0BE01802F0E9418
:1012D0009D02BE016F5F7F4F812F0E949D02BE0164
:1012E0006E5F7F4F8C2D0E949D02BE016D5F7F4F10
:1012F0008F2D0E949D02BE016C5F7F4F8D2D0E943D
:101300009D02BE016B5F7F4F8E2D0E949D02A496B1
:10131000C438D105D1F6612F802F0E94E9088823B7
:1013200019F081EC94E002C08BE894E0DF91CF915A
:101330001F910F91FF90EF90DF90CF900C94E903F5
:10134000BF92CF92DF92EF92FF920F931F93CF93B2
:10135000DF938C017B01C8E1D0E0B12CCE010E946B
:10136000A702D82ECE0101960E94A702C82E682F90
:101370008D2D0E94E9088823B1F188E190E00E9458
:10138000A702C82F8CE390E00E94A702C81729F19A
:1013900088E190E00E94A702C82F80E690E00E94BA
:1013A000A702C8131AC089E190E00E94A702C82FC3
:1013B0008DE390E00E94A702C8130FC089E190E07E
:1013C0000E94A702C82F81E690E00E94A702C813DE
:1013D00004C06C2D8D2D0E944809F801D082F701C0
:1013E000C08281E016C0F2E0BF120DC06C2D8D2DC1
:1013F0000E94E908811107C085E4F801808385E631
:10140000F701808305C0B394A496F3E0BF12A6CF82
:1014100080E0DF91CF911F910F91FF90EF90DF90CF
:10142000CF90BF9008951F920F920FB60F92112484
:101430008F9381E08093C9018F910F900FBE0F9021
:101440001F9018951F920F920FB60F9211242F9391
:101450008F939F938091C7019091C801892B49F088
:101460008091C7019091C80101969093C801809323
:10147000C7018091C5019091C601892B49F08091E7
:10148000C5019091C60101969093C6018093C50154
:101490008091C3019091C401892B49F08091C301CF
:1014A0009091C40101969093C4018093C3018091EF
:1014B000C7019091C801893E934020F01092C80165
:1014C0001092C7018091C5019091C601893E934059
:1014D00020F01092C6011092C5018091C301909135
:1014E000C4018131974220F01092C4011092C301CF
:1014F0009F918F912F910F900FBE0F901F90189575
:101500001F920F920FB60F9211248F938091C201F8
:101510008F5F8093C2018F910F900FBE0F901F902D
:101520001895CF93DF93CDB7DEB7CA59D1400FB628
:10153000F894DEBF0FBECDBF88E10FB6F89480935C
:101540006000109260000FBE10E0F12C4E010AEA1C
:10155000801A0EEF900A8FE1D401E82F1D92EA95D0
:10156000E9F76E01F9ECCF1AFEEFDF0AD601E82F9A
:101570001D92EA95E9F75E01F8EEAF1AFEEFBF0A99
:10158000D501E82F1D92EA95E9F79E0127503F4FBC
:10159000C958DE4F39832883C757D140D901E82F76
:1015A0001D92EA95E9F7FE01E652FF4FDF01082F91
:1015B0001D920A95E9F72E533109C758DE4F39833A
:1015C0002883C957D140D901E82F1D92EA95E9F740
:1015D0002F513109C558DE4F39832883CB57D1406D
:1015E000D901E82F1D92EA95E9F72F513109C35827
:1015F000DE4F39832883CD57D140D901E82F1D9282
:10160000EA95E9F7FE01E25AFF4FDF01082F1D922C
:101610000A95E9F72E533109C158DE4F39832883E3
:10162000CF57D140D901E82F1D92EA95E9F7FE0185
:10163000B096DF011D928A95E9F70E94C20480915D
:101640006400806C8093640080B7806880BF809164
:1016500081008460809381000E942A06209A5F980E
:10166000579A5E98569A5D98559AFE01E358FF4F37
:101670009E01215C3F4F2901235A3F4FAE01455443
:101680005F4FBE0167507F4F80E090E0A0E47A2E6C
:10169000EE24E394B0E86B2E79B8D401ED924D01BD
:1016A000D5011D925D01D6011D926D01DB011D92D8
:1016B000BD01DA011D92AD01D9011D929D01D2013A
:1016C0001D922D016192BFEF0FE7A1E0B1500040E4
:1016D000A040E1F700C000C001968E319105E1F60F
:1016E0008EE1CB58DE4F8883C557D1408983BE0138
:1016F0006B587E4FCE0101960E94A00981110CC04B
:101700008CE890E00E94E9038EE690E00E94E903F5
:1017100088E690E00E94E903CB58DE4F8881C557E8
:10172000D1408111E2C089818111DFC01092C601D0
:101730001092C5011092C8011092C7011092C40105
:101740001092C30144983C9898B185B198130AC08F
:10175000809168008E7F8093680080916B008F7EFF
:1017600080936B0098B18BB198130AC08091680088
:101770008B7F8093680080916D008F7E80936D00D9
:1017800098B188B198130AC0809168008D7F8093CA
:10179000680080916C008F7E80936C001092C9016C
:1017A0000E942506449845985C980E94A3063C9A9E
:1017B0003D9A549A3B9A3A9A399A389ABFEFEFEF8A
:1017C000F5E0B150E040F040E1F700C000C0429ABF
:1017D000439A0E9422078FEF9FE50197F1F700C01F
:1017E00000000E942207AFEFBFE51197F1F700C09C
:1017F00000000E942207EFEFFFE53197F1F700C0EC
:1018000000000E94A306429A0E9422070E94A80696
:1018100060E088E20E94600760E08CE00E94600760
:1018200060E086E00E94600760E081E00E9460075F
:1018300060E080E40E94600784E00E949F0784E0EB
:101840000E949F078AE00E949F078AE00E949F07EC
:1018500085E10E949F0781E10E949F078AE00E9424
:101860009F0784E00E949F0782E00E949F0785E017
:101870000E949F0782E00E949F0780E00E949F07CE
:1018800080E00E949F0780E00E949F0780E00E9406
:101890009F0780E00E949F0760E080E80E94600749
:1018A00061E082E00E94420761E080E00E94600700
:1018B00061E080E00E94600780E091E00E94920772
:1018C00061E080E00E94600761E080E00E946007C4
:1018D00060E082E00E94600785B5856085BD8091EB
:1018E0006E00816080936E0052C00E94C204449AD0
:1018F0003C9898B185B198130AC0809168008160C6
:101900008093680080916B00806180936B0098B138
:101910008BB198130AC0809168008460809368003E
:1019200080916D00806180936D0098B188B19813AB
:101930000AC08091680082608093680080916C008A
:10194000806180936C0081E08093C90180B78068DA
:1019500080BF80917C00856480937C0080917A00B8
:10196000866080937A0080917A00806880937A0004
:1019700080917A00806480937A0080917A0086FD5D
:10198000FCCF80917800909179000E942506CB5879
:10199000DE4FE880C557D14059808FB7F8945B9AE5
:1019A0005398529A1092C5009FE39093C40098E117
:1019B0009093C10096E09093C2008FBF5A98CB5885
:1019C000DE4F19821882C557D1401A821982BE0192
:1019D0006F5F7F4FCE018B589E4F0E94A5078823D3
:1019E00041F0843041F0C457DE4F1882CC58D140CA
:1019F00008C034E601C03FE6C457DE4F3883CC58F8
:101A0000D140C457DE4F8881CC58D1400E946C0829
:101A1000C957DE4F8883C758D1402A9A2C9A2498F8
:101A2000239A259A229A8CB580658CBD04E18FEFAC
:101A30009FE20197F1F700C0000061E080E092E0D2
:101A40000E94FF0461E082E095E00E94FF0461E0F3
:101A500081EE96E00E94FF0461E08DE093E00E9439
:101A6000FF0461E08DE094E00E94FF0461E082E801
:101A700099E10E94FF0461E08BE193E10E94FF0481
:101A800061E080E095E20E94FF0461E087E096E279
:101A90000E94FF0461E088ED97E00E94FF0461E08E
:101AA00086EE98E00E94FF0461E084E199E00E94E4
:101AB000FF0461E080E997E30E94FF0461E08EE1AA
:101AC00098E30E94FF0461E080E89CE30E94FF0429
:101AD00061E082E19DE30E94FF0461E080E09CE21E
:101AE0000E94FF0461E083E09DE20E94FF0461E048
:101AF00088E89EE20E94FF0461E08DE29FE20E947E
:101B0000FF0461E084ED90E30E94FF0461E080E067
:101B100098E10E94FF0461E08DE298E50E94FF04D5
:101B200061E080E39FE60E94FF0461E08CED99E2B2
:101B30000E94FF0461E08DE29EE10E94FF0460E0EC
:101B40008FEF9EE10E94FF0484FFF9CF61E082E9FC
:101B500091E10E94FF04015009F069CF61E080E843
:101B60009AE00E94FF04812C00E8902E05E2A02E4E
:101B7000B12C60E080E09AE00E94FF0486FD0AC07C
:101B800091E0891A9108A108B10881149104A10477
:101B9000B10479F70E943D05E11033C0511031C006
:101BA00089E6C85EDE4F8883C851D14084E6C75EAF
:101BB000DE4F8883C951D14080E3C65EDE4F888303
:101BC000CA51D14080916E00816080936E0005E023
:101BD0005E9A65E081E191E00E947B055E98AFEF3F
:101BE000BFEFEDE1A150B040E040E1F700C00000E0
:101BF000015071F760E081E00E946007212C33E022
:101C000030C080E7C85EDE4F8883C851D140C75ED0
:101C1000DE4FE882C951D140C65EDE4F5882CA51BC
:101C2000D1400E940A03C55EDE4F8883CB51D1406C
:101C30000E944D03282E882311F0289A02C00E948A
:101C40002A06C45EDE4F2882CC51D140C957DE4FF0
:101C50003881C758D140C35EDE4F3883CD51D14063
:101C600036E0CA57DE4F3883C658D14010617894A9
:101C700034E0C657DE4F3883CA58D1403FE0C557DD
:101C8000DE4F3883CB58D14033E0CB57DE4F38831B
:101C9000C558D14044244394312C35E0C157DE4F20
:101CA0003883CF58D1403E0189EC681A8EEF780A0C
:101CB000AFE3B0E0AC0FBD1F5096CA56DE4FB983FC
:101CC000A883C659D140FE01E25AFF4FCF57DE4FDD
:101CD000F983E883C158D1409E0126523F4FCD572A
:101CE000DE4F39832883C358D14089EF90E08C0FB1
:101CF0009D1F4E96C856DE4F99838883C859D140A0
:101D00008091C901882371F00FB7F8941092C9012E
:101D10000E944D03282E882311F0289A02C00E94A9
:101D20002A060FBF8091C000881F8827881F80FB6C
:101D300010F910FF7BC1DFB6F8941E7F289A0E942D
:101D4000EF02082F8F3F01F5CA5ADE4F8883C65530
:101D5000D1400E94EF02C95ADE4F8883C755D14057
:101D60000E94EF02C85ADE4F8883C855D1400E94B6
:101D7000EF02C75ADE4F8883C955D140C65ADE4F9D
:101D80001882CA55D1404BC00E9486039EEFC12CD9
:101D9000992319F19CE19C1518F10E94EF02982FEC
:101DA0008D3011F08A3009F490E0E6E5F1E0EC0FB7
:101DB000FD1FEC0DF11D9083992379F0892FC656F4
:101DC000DE4F9883CA59D1400E948603C394C656F9
:101DD000DE4F9881CA59D140DBCF8C2DCC2029F021
:101DE00082E990E00E94E9038C2DE6E5F1E0EC0F3A
:101DF000FD1FEC0DF11D1182882361F0E6E5F1E095
:101E0000EC0FFD1FE80FF11DDF0111979C919083EE
:101E10008150F2CFCA5ADE4F0883C655D14067E1E0
:101E200071E0CE018A5A9E4F0E947103882311F0FF
:101E300012601F7E6CE171E0CE018A5A9E4F0E94B3
:101E40007103882331F0E11004C0511002C068947E
:101E5000F5F866E271E0CE018A5A9E4F0E94710346
:101E6000882331F0E11004C0511002C018601F7EB9
:101E700061E271E0CE018A5A9E4F0E94710388236D
:101E800031F0E11004C0511002C010641F7E6BE2FB
:101E900071E0CE018A5A9E4F0E947103882359F047
:101EA000E11009C0511007C06894F1F86894F0F887
:101EB0006894F2F8106862E371E0CE018A5A9E4F8E
:101EC0000E947103882331F0E11002C0552011F007
:101ED0006894F3F867E371E0CE018A5A9E4F0E943E
:101EE000710381110E94B6046BE371E0CE018A5A3E
:101EF0009E4F0E947103882311F06894F4F860E407
:101F000071E0CE018A5A9E4F0E947103882311F01E
:101F10006894F6F865E471E0CE018A5A9E4F0E94FB
:101F20007103882369F0E1100BC0511009C08AE5E4
:101F300094E00E94E90380916F00816080936F00BC
:101F40006AE471E0CE018A5A9E4F0E947103882391
:101F500079F0E1100DC051100BC089E294E00E94AD
:101F6000E9031092C20180916F008E7F80936F0011
:101F7000CA5ADE4F0881C655D1400F3F09F04DC007
:101F8000C95ADE4F6881C755D1408FEF860F8E3119
:101F900008F043C0C85ADE4FC880C855D1408FEF03
:101FA0008C0D8031D0F5C75ADE4FB880C955D1406D
:101FB00080E00E94DD086C2D0E94DD0821E030E009
:101FC000B81611F020E030E0232B39F186E6C85E28
:101FD000DE4F8883C851D140C95ADE4F8881C7552A
:101FE000D140C75EDE4F8883C951D140C85ADE4F09
:101FF0008881C855D140C65EDE4F8883CA51D14022
:1020000085E0C55EDE4F8883CB51D140106134E05E
:10201000CA57DE4F3883C658D1400E942A060F3F68
:1020200021F086E294E00E94E903DFBEF6FE71C073
:10203000DFB6F894E894F6F8C457DE4F8881CC58A0
:10204000D1400E946C08C957DE4F8883C758D140E1
:1020500089E194E00E94E903C957DE4F3881C758EF
:10206000D140303819F484E194E010C044E0C957FD
:10207000DE4F3881C758D140632F772767FD7095B1
:10208000872F972F0E94780481E194E00E94E90352
:102090008CE094E00E94E903E1103AC0511038C08E
:1020A00081E090E09093C4018093C30161E083E0FC
:1020B0000E9442078FE491E00E949207C957DE4FC9
:1020C0003881C758D140303829F48FE591E00E941B
:1020D00092071EC001E022E0AE01405E5F4FC9578B
:1020E000DE4F3881C758D140632F772767FD709541
:1020F000872F972F0E942C06CE0180960E94920770
:1021000061E081E00E94600761E083E40E94600773
:10211000DFBE11FF34C1DFB6F8941D7F81E086BBBE
:10212000109285001092840080918100887F8093B6
:1021300081000E94B60483E992E00E94E90380E6F0
:1021400092E00E94E903BE016B587E4FCE010196DA
:102150000E94A00981110CC08AE592E00E94E90367
:102160008CE392E00E94E90386E392E00E94E90397
:1021700080E392E00E94E9038BE192E00E94E90390
:1021800085E192E00E94E9036981653431F070E0F5
:1021900080E090E00E94F80304C08EE092E00E948C
:1021A000E9038BE092E00E94E90385E092E00E945F
:1021B000E90380EF91E00E94E9038AEE91E00E943A
:1021C000E903CB58DE4F6881C557D140653631F001
:1021D00070E080E090E00E94F80304C083EE91E09C
:1021E0000E94E90380EE91E00E94E9038AED91E00C
:1021F0000E94E903CB58DE4F8881C557D1409981B1
:10220000891306C0811104C086EA91E00E94E903A7
:1022100081EA91E00E94E90388E391E00E94E903EA
:102220000E94EF02282F8823D9F3C656DE4F288359
:10223000CA59D1400E94860385E391E00E94E903D8
:1022400000E0C656DE4F2881CA59D14082E391E0B2
:10225000C656DE4F2883CA59D1400E94E903C656AC
:10226000DE4F2881CA59D140253561F128F4233544
:1022700051F02435E1F163C02437C9F1253711F15C
:10228000233709F05CC089E191E00E94E90383E112
:1022900091E00E94E903CB58DE4FC880C557D1407A
:1022A0000E94B103CB58DE4F8883C557D1408DE0E3
:1022B00091E00E94E903CB58DE4F8881C557D14099
:1022C00025E712C084EF90E00E94E9038EEE90E0D3
:1022D0000E94E903C9800E94B103898388EE90E0DF
:1022E0000E94E903898123E78C1128C028C0CB58BC
:1022F000DE4F8881C557D140882389F089818823A2
:1023000071F088EC90E0C656DE4F2883CA59D14060
:102310000E94E903C656DE4F2881CA59D140CB58E6
:10232000DE4F8881C557D1409981CB58DE4F188246
:10233000C557D1401982911101C0811101E0CB58DC
:10234000DE4F6881C557D140898131E0811101C0DC
:1023500030E091E0611101C090E0391377CF0023A4
:1023600049F00E94480987EB90E00E94E9036894D5
:10237000F4F804C085E990E00E94E903DFBE12FF93
:1023800035C00FB7F8941B7FC157DE4F8881CF58F7
:10239000D140815031F0A9E9B9E61197F1F700C0B9
:1023A000F8CFF301D2808FEF8D0D8031E0F4222041
:1023B000D1F020E180E090E0880F991F2D1101C03D
:1023C00081602150C9F70E94E10489E999E60197EB
:1023D000F1F700C080E090E00E94E104FE01ED0D05
:1023E000F11D81E086AF0E943D050FBFF3FE11C0D5
:1023F0008FB7F894E894F3F8FE01FF961192CA564D
:10240000DE4FA881B981C659D140EA17FB07B1F761
:102410008FBF13FFCFC0DFB6F894177F89E6C85E81
:10242000DE4F8883C851D14084E6C75EDE4F888383
:10243000C951D14080E3C65EDE4F8883CA51D14086
:1024400081E086BB1092850010928400809181000B
:10245000887F809381008DEF93E00E94E9030E94C2
:10246000EF02982F8823D9F3C656DE4F9883CA59B6
:10247000D1400E948603C656DE4F9881CA59D1408A
:10248000C85EDE4F9883C851D140963631F001E0E6
:10249000993609F000E033E066C08EEE93E00E94CA
:1024A000E9030E94EF02082F8823D9F30E948603D4
:1024B00080ED800F880F082F000F000F080F0E947B
:1024C000EF02C82E8823D9F30E9486030C0D8AEEF2
:1024D00093E00E94E9038FEC800F8E3108F0C1C6B3
:1024E0000053602F70E080E090E00E94F803C75E28
:1024F000DE4F0883C951D14001E089EC93E00E948E
:10250000E9030E94EF02C82E8823D9F30E948603B4
:1025100080ED8C0D880FC82ECC0CCC0CC80E0E9400
:10252000EF02B82E8823D9F30E948603CB0C85ECEA
:1025300093E00E94E9038FEC8C0D8E31D0F480ED96
:10254000C80E6C2D70E080E090E00E94F803C65E3B
:10255000DE4FC882CA51D14085E0C55EDE4F888318
:10256000CB51D14034E0CA57DE4F3883C658D140F2
:102570000BC083EB93E00E94E90333E0CA57DE4FC0
:102580003883C658D14000E08FEA93E00E94E90307
:10259000002311F0106101C01F7E8091C00087FFF1
:1025A00003C08091C600F9CF809181008460809340
:1025B0008100DFBE16FFCBC10FB7CB56DE4F0883BD
:1025C000C559D140F8941F7B0E94B6048EE793E072
:1025D0000E94E90389E693E00E94E90387E593E01E
:1025E0000E94E90381E593E00E94E9038CEF92E009
:1025F0000E94E9039E0123583F4FC057DE4F3983A5
:102600002883C059D1406E013CE9C30ED11C9E0104
:1026100025543F4FCD56DE4F39832883C359D140CF
:10262000225C3F4FC857DE4F39832883C858D140BA
:102630002B593109C357DE4F39832883CD58D140F8
:10264000812C912C54018394C357DE4F3881CD588F
:10265000D140CF57DE4F8881C158D140381BCE566C
:10266000DE4F3883C259D140393018F480E30E94DC
:102670008603C501B4010E94F80389EF92E00E942D
:10268000E903C857DE4FA881B981C858D1400C91E1
:10269000011105C085EF92E00E94E90312C00436E3
:1026A00050F483EF92E00E94E9030A3020F481EFB6
:1026B00092E00E94E903602F70E080E090E00E94C9
:1026C000F8038EEE92E00E94E903CD56DE4FE881DA
:1026D000F981C359D1408191CD56DE4FF983E8830A
:1026E000C359D1406AE00E943719092F811105C0F2
:1026F00089EE92E00E94E90311C0682F70E080E04B
:1027000090E042E00E94780487EE92E00E94E903A4
:10271000602F70E080E090E00E94F80384EE92E089
:102720000E94E903C857DE4FA881B981C858D1403B
:102730000D91C857DE4FB983A883C858D1400023F4
:1027400029F0F60180810E94860304C082EE92E0A7
:102750000E94E9038FED92E00E94E903C057DE4F2B
:10276000A881B981C059D1406D91C057DE4FB9835E
:10277000A883C059D140603849F0772767FD70952C
:10278000872F972F44E00E94780409C0002319F096
:102790008AED92E002C085ED92E00E94E90382EDAD
:1027A00092E00E94E903C357DE4FE881F981CD58DA
:1027B000D1400191C357DE4FF983E883CD58D14012
:1027C000002391F004361CF48FEC92E002C08DECF3
:1027D00092E00E94E903602F772767FD7095872FAD
:1027E000972F0E94F80304C088EC92E00E94E9034E
:1027F000CE56DE4F8881C259D14063E00E9437191E
:10280000923019F485EC92E002C08FEB92E00E94C6
:10281000E903FFEFCF1ADF0A0FEF801A900AA00A30
:10282000B00A2FE182169104A104B10409F00CCF83
:102830008AEB92E00E94E903332021F084EB92E0DE
:102840000E94E90382EA92E00E94E903632D70E0AE
:1028500080E090E00E94F803332021F08CE992E0C0
:102860000E94E90389E992E00E94E903DE01A65291
:10287000BF4F81E0FE01E750FF4F90E02191281308
:1028800001C09F5FC856DE4F28813981C859D140A9
:10289000E217F30799F79D938F5F8F3159F783E91B
:1028A00093E00E94E903CE0186529F4F6C01812C78
:1028B000912C540183940C2DCD57DE4F9881C35831
:1028C000D140091B093018F480E30E948603C5013A
:1028D000B4010E94F80380E993E00E94E903D60165
:1028E0006D916D01611105C08CE893E00E94E903D0
:1028F00006C070E080E090E043E00E947804802F02
:1029000063E00E943719923029F489E893E00E942D
:10291000E90307C00AE187E893E00E94E903015058
:10292000D1F7BFEF8B1A9B0AAB0ABB0AEFE18E16F9
:102930009104A104B10409F0BECF84E893E00E94A1
:10294000E903CB56DE4F0881C559D1400FBFF4FED5
:102950001BC0F894E1100AC0511008C060E081E08B
:102960000E94600785E691E00E9492070E94B604EB
:102970002CE088E190E00FB6F894A8958093600071
:102980000FBE20936000FFCFF5FC09C014FF34C0D8
:10299000C85EDE4F8881C851D140893669F5DFB6FF
:1029A000F894E894F5F8AE0146525F4F9E01225A22
:1029B0003F4F5901DE01A358BF4FCE0184569F4FB0
:1029C000235A3F4FBE0167507F4F0EE1E0E8CE2E05
:1029D000FB011192BF01FA011192AF01F9011192AD
:1029E0009F01FC011192CF01CD92F50111925F017F
:1029F000015071F7DFBE312C14FD04C08091C2017B
:102A00008430A8F10FB7F8941F7E1092C2015E9A2D
:102A1000CA57DE4F6881C658D140CE01885E9E4FAE
:102A20000E947B05C85EDE4F8881C851D140863642
:102A300031F05E9810686894F0F80FBF18C0C55E5A
:102A4000DE4F8881CB51D1408150C55EDE4F8883F7
:102A5000CB51D140882369F3CA57DE4F6881C658ED
:102A6000D140CE01885E9E4F0E947B05E8CF2A9818
:102A700060E08FEF98E20E94FF042A9A82FB882789
:102A800080F980FB15F915FF2AC10FB7F8941F7D57
:102A90005D9A60E08FEF9FE60E94FF04882399F023
:102AA00060E08FEF94E20E94FF04D82E0E94180588
:102AB0002A9880E00E94F9048FEF0E94F9048F3178
:102AC000F8F08EE11DC061E081E093E20E94FF0416
:102AD000812C50E8952E55E2A52EB12C60E08FEFA9
:102AE00093E20E94FF0480FDDBCFF1E08F1A910892
:102AF000A108B10881149104A104B10479F7D0CFE1
:102B00008983CC24C39489818C1560F08FEF0E9457
:102B1000F904E1E0F0E0EC0FFD1FEC0DF11D808306
:102B2000C394F1CF2A9A89818E3108F08DE1DE01BC
:102B30001296F3019E2F9619981718F49D91919370
:102B4000F9CFF301E80FF11D108261E080E198E216
:102B50000E94FF040E943D055D98D3018C91893647
:102B600049F1803709F465C0863609F0A3C0119693
:102B70008C918E119FC0E11003C0552009F49AC0BA
:102B8000F30182818150EFE3F0E0EC0FFD1FE80FCD
:102B9000F11D808181118EC012FD8CC014600E94D5
:102BA0001805D3011396BC91C157DE4FB883CF5897
:102BB000D14080C00E94180580E7C85EDE4F888340
:102BC000C851D140C75EDE4FE882C951D140C65ED0
:102BD000DE4F5882CA51D140E11002C0552019F091
:102BE0000E940A0301C082E3C55EDE4F8883CB5199
:102BF000D140E11004C0511002C080E001C0822D1C
:102C0000C45EDE4F8883CC51D140C957DE4F388136
:102C1000C758D140C35EDE4F3883CD51D1401061DB
:102C20006894F3F836E0CA57DE4F3883C658D1406F
:102C300041C0E1103FC051103DC0D30112968C91AC
:102C4000853411F0811102C0339434C0815090E07A
:102C5000E9EFF0E0EC0FFD1FE80FF91FD30111962B
:102C60002C9111972083FE01E554FF4FE80FF91FC7
:102C700013962C911397208314962C91222311F0F4
:102C80002AE601C02EE6FE01E456FF4FE80FF91FC9
:102C90002083FE01E358FF4FE80FF91FD30115967B
:102CA0002C912083EEE5F0E0EC0FFD1FE80FF91FFB
:102CB000D694D08214FF0DC080E0851561F0B0E796
:102CC000EDEFF0E0B150E040F040E1F700C08F5F81
:102CD000F4CF0E943D0510686894F1F80FBF809111
:102CE000C7019091C8018C3F910578F48091C5018E
:102CF0009091C6018C3F910540F48091C301909161
:102D0000C401823F924008F45AC0E1100C94800E36
:102D1000511058C017FD59C00FB7F8948091C701E2
:102D20009091C8018C3F910540F48091C50190912C
:102D3000C6018C3F910510F111C01092C80110928C
:102D4000C70161E081E00E94420744E1D42E8DE595
:102D500091E00E949207DA94D1F7E7CF1092C60172
:102D60001092C50161E082E00E94420734E1D32E57
:102D70008DE591E00E949207DA94D1F78091C3012A
:102D80009091C401823F9240C0F01092C401109211
:102D9000C30161E083E00E94420724E1D22E8CE56A
:102DA00091E00E949207DA94D1F733E0CB57DE4FDF
:102DB0003883C558D140442443940FBF06C0E11066
:102DC0000C94800E51100C94800E17FD02C00C94D0
:102DD000800EDFB6F8941F77F0FE7BC161E081E0E2
:102DE0000E94420787E791E00E949207C85EDE4F8B
:102DF0008881C851D140893609F486C030F48136C3
:102E000009F4D9C0863651F05CC1803709F4D6C0C8
:102E1000823709F056C181EA91E051C161E080E05A
:102E20000E9460078CE791E00E949207C75EDE4F28
:102E30006881C951D14070E080E090E000E022E07C
:102E4000AE01405E5F4F0E942C06CE0180960E942C
:102E500092078FE791E00E949207C65EDE4F68817D
:102E6000CA51D14070E080E090E022E0AE01405EC7
:102E70005F4F0E942C06CE0180960E949207F2FCC2
:102E800097C0C557DE4F6881CB58D140C657DE4F3B
:102E90008881CA58D1400E9442078DE591E00E9486
:102EA0009207642DCB57DE4F8881C558D1400E94D0
:102EB000420783E891E00E949207C75EDE4F688177
:102EC000C951D14070E080E090E022E0AE01405E68
:102ED0005F4F0E942C06CE0180960E94920761E00F
:102EE00080E00E946007C65EDE4F6881CA51D14013
:102EF00070E080E090E022E0AE01405E5F4F0E9413
:102F00002C06CE01809624C085E891E00E949207AD
:102F1000F2FC4EC0C557DE4F6881CB58D140C65732
:102F2000DE4F8881CA58D1400E9442078DE591E06A
:102F30000E949207642DCB57DE4F8881C558D1403F
:102F40000E94420783E891E00E94920780E991E0A5
:102F50000E94920787E0840D21E0863108F420E08A
:102F6000CB57DE4F3881C558D140230F65E10E9411
:102F70003719392F253008F023E081E090E0909355
:102F8000C4018093C301CB57DE4F8881C558D1401F
:102F9000C657DE4F8883CA58D140C557DE4F488296
:102FA000CB58D140CB57DE4F2883C558D140432E54
:102FB000E894F2F886C086E991E081C08DE791E05F
:102FC0000E949207C75EDE4F6881C951D14070E010
:102FD00080E090E000E022E0AE01405E5F4F0E94A2
:102FE0002C06CE0180960E94920789E991E00E940A
:102FF0009207C65EDE4F6881CA51D14070E080E022
:1030000090E022E0AE01405E5F4F0E942C06CE01B0
:1030100080960E9492078DE591E00E949207C55E1E
:10302000DE4F8881CB51D140843620F48DE591E08C
:103030000E949207C55EDE4F8881CB51D1409AE055
:10304000C92E6C2D0E943719682F70E080E090E047
:1030500000E021E0AE01405E5F4F0E942C06CE01F1
:1030600080960E9492078CE991E00E949207C55ECB
:10307000DE4F8881CB51D1406C2D0E943719692FCA
:1030800070E080E090E021E0AE01405E5F4F0E9482
:103090002C06CE0180960E9492078EE991E00E9454
:1030A0009207C45EDE4F8881CC51D140882311F055
:1030B0008AE601C08EE661E00E94600702C00E94BD
:1030C0009207E894F0F881E090E09093C801809333
:1030D000C701F1FEC3C061E082E00E94420788EAB6
:1030E00091E00E949207D3018C918636B1F040F4B2
:1030F000813681F0853609F0A9C08AEB91E037C0AE
:103100008037D9F18237B1F1893609F09FC081EB60
:1031100091E02DC08DEA91E02AC061E080E00E943C
:1031200060078CE791E00E949207F301618170E0F3
:1031300080E090E000E022E0AE01405E5F4F0E9440
:103140002C06CE0180960E9492078FE791E00E94A4
:103150009207D30112966C9170E080E090E022E03B
:10316000AE01405E5F4F0E942C06CE0180960E9409
:1031700092076CC08EEB91E0FACF8DE791E00E9450
:103180009207F301618170E080E090E000E022E0CE
:10319000AE01405E5F4F0E942C06CE0180960E94D9
:1031A000920789E991E00E949207D30112966C91EF
:1031B00070E080E090E022E0AE01405E5F4F0E9450
:1031C0002C06CE0180960E9492078DE591E00E9428
:1031D0009207F3010381043620F48DE591E00E940B
:1031E0009207802F6AE00E943719C92E682F70E07D
:1031F00080E090E000E021E0AE01405E5F4F0E9481
:103200002C06CE0180960E9492078CE991E00E94E4
:1032100092076C2D70E080E090E021E0AE01405E0E
:103220005F4F0E942C06CE0180960E9492078EE985
:1032300091E00E949207D30114968C91882311F09B
:103240008AE601C08EE661E00E946007E894F1F82A
:1032500081E090E09093C6018093C501DFBE0C949D
:10326000800E88ED93E00E94E90300E046C9991BB7
:1032700079E004C0991F961708F0961B881F7A956D
:10328000C9F78095089597FB072E16F4009407D090
:1032900077FD09D00E94811907FC05D03EF4909576
:1032A00081959F4F0895709561957F4F0895052EE4
:1032B00097FB1EF400940E946E1957FD07D00E94E0
:1032C000951907FC03D04EF40C946E195095409557
:1032D000309521953F4F4F4F5F4F089590958095C2
:1032E000709561957F4F8F4F9F4F08950E94B7193A
:1032F000A59F900DB49F900DA49F800D911D11244A
:103300000895AA1BBB1B51E107C0AA1FBB1FA6172C
:10331000B70710F0A61BB70B881F991F5A95A9F77E
:1033200080959095BC01CD010895A1E21A2EAA1BAB
:10333000BB1BFD010DC0AA1FBB1FEE1FFF1FA21765
:10334000B307E407F50720F0A21BB30BE40BF50B62
:10335000661F771F881F991F1A9469F760957095EB
:10336000809590959B01AC01BD01CF010895A29F6E
:10337000B001B39FC001A39F700D811D1124911D49
:10338000B29F700D811D1124911D0895F894FFCFF7
:103390002020456C204675657261646F726F202035
:1033A00000555555555500636F6E6600636C656139
:1033B000726C6973740073656E64006F7264657219
:1033C00073007A65726F00636C73006B696C6C00DC
:1033D00074656D7000696E743100696E74300054EC
:1033E000656D706572617475723A20202020006EE0
:1033F0002E612E2000526573657474696E672064B7
:103400006576696365210054783A200020530020D6
:1034100043480078004964656E746966792020002D
:103420004944454E54004F4B002055002E00562075
:10343000005245504541540052783A20004F4B20ED
:10344000004964656E7469667900455252005245C0
:0234500050002A
:00000001FF
