:100000000C94F8020C9415030C9415030C9415032E
:100010000C94CF090C9415030C9415030C94150340
:100020000C9415030C9415030C9415030C941503F0
:100030000C9415030C94260A0C9415030C941503C8
:100040000C94DE090C9415030C9415030C94150301
:100050000C9415030C9415030C9415030C941503C0
:100060000C9415030C9415030A0D001B5B314420FE
:100070001B5B3144000A0D44657669636520697332
:1000800074205472616E736D69747465722C2049AA
:100090004473206E6963687420E46E646572626103
:1000A00072210A0A0D000A0D4B65696E6520C46E47
:1000B000646572756E6720766F7267656E6F6D6DC1
:1000C000656E0A0A0D000A0D4E65757374617274CF
:1000D0002E2E2E0A0A0D004665686C65722120429C
:1000E000697474652065726E6575742076657273C7
:1000F000756368656E210A0D000A0A0DC46E646599
:1001000072756E67206572666F6C67726569636889
:10011000210A0D001B5B33376D001B5B33316D0013
:100120000A0D4E65756520536C6176652D49442036
:100130002830312D33302C20454E544552203D205F
:10014000616C7465722057657274293A2020001B17
:100150005B33376D001B5B33316D004E6575652079
:10016000556E697175652D4944202830312D333025
:100170002C20454E544552203D20616C7465722000
:1001800057657274293A20000A0D000A0D002849AB
:1001900029447320E46E6465726E2C2041626272A1
:1001A000756368206D69742062656C696562696752
:1001B000657220616E646572657220546173746546
:1001C0002120000A0A0A0D001B5B33376D000A0D5F
:1001D000004645484C4552001B5B33316D00416B76
:1001E0007475656C6C6520536C6176652D49443A75
:1001F0002020001B5B33376D000A0D004645484C3C
:100200004552001B5B33316D000A0A0D416B74755A
:10021000656C6C6520556E697175652D49443A2091
:10022000000A0D416E67657363686C6F7373656E6A
:100230006573204465766963653A20001B5B33373C
:100240006D001B5B33376D000A0D4665686C657287
:10025000206265696D2049442D4C6164656E0A0D0C
:10026000001B5B33316D000A4B6F6E6669677572F8
:100270006174696F6E7370726F6772616D6D0A0D74
:100280003D3D3D3D3D3D3D3D3D3D3D3D3D3D3D3D9E
:100290003D3D3D3D3D3D0A0D001B5B33336D004947
:1002A000442D5765636873656C206D6974206A20FE
:1002B00062657374E4746967656E2C2061626272B2
:1002C000656368656E206D697420616E6465726532
:1002D000722054617374652120000A0A0D004E6576
:1002E000756520536C6176652D49443A20202020A5
:1002F000202020000A0D004E65756520556E69713D
:1003000075652D49443A202020202020000A0D0048
:100310000A0D0042697368657269676520536C61F4
:1003200076652D49443A2020000A0D004269736821
:10033000657269676520556E697175652D49443A26
:1003400020001B5B33376D000A0A52656D6F7465C0
:100350002D4B6F6E66696775726174696F6E73702D
:10036000726F6772616D6D0A0D3D3D3D3D3D3D3DD6
:100370003D3D3D3D3D3D3D3D3D3D3D3D3D3D3D3DAD
:100380003D3D3D3D3D3D0A0D001B5B33336D000A95
:100390000D000A0D4665686C657268616674652FAC
:1003A000646F7070656C7465204944733A2000096D
:1003B000000A0D002D2D2D2D002D00202D002C20AC
:1003C000002D2D2D2D006E2E612E002C20002D00D5
:1003D0002C20002E002D2D2D2D002C200030002053
:1003E000002D2D2D003A200030000A0D556E697148
:1003F00075652D49443A20536C6176652D49442C2E
:100400002042617474657269657370616E6E756E99
:1004100067202856292C205363686172663F2C2080
:1004200054656D706572617475722028B043292C13
:100430002052535349202864426D290A0D001B5B4A
:1004400033376D003D3D3D3D3D3D3D3D3D3D3D3DF9
:100450003D3D3D0A0D000A0D53797374656DFC62D4
:10046000657273696368740A0D001B5B33336D003A
:100470000A0A0D0009200920092009000A0D002D93
:100480002D2D003A20000A0D536C6176652D4944EC
:100490003A20416E7A61686C20426F78656E0A0D71
:1004A000000A0A0D00B043006E2E612E0054656DE7
:1004B000706572617475723A2000556E67FC6C74D9
:1004C0006967652045696E6761626500203D2000AF
:1004D0000A0D4B616E616C3A202009000A0D536CC5
:1004E0006176652D49443A09000A0D4D6F647573B4
:1004F00028662F692F74293A20000A0A0D000A0D78
:1005000049442D4B6F6E66696775726174696F6ED1
:100510007362656665686C207769726420676573CD
:10052000656E646574210A0D000A0D4944732077D5
:10053000657264656E206C6F6B616C20616E6765BF
:100540007061737374210A0D000A0A0D000A0D52BE
:10055000464D0061746D65676131363870000A0D73
:10056000000A0D000A0D000A0A0D4C65747A7465C4
:100570006E2042656665686C20776965646572689F
:100580006F6C742073656E64656E204155530A0D5F
:10059000000A0A0D4C65747A74656E2042656665C2
:1005A000686C20776965646572686F6C7420736528
:1005B0006E64656E2045494E0A0D001B5B31440098
:1005C00020001B5B3144001B5D303B454C204655F1
:1005D000455241444F524F07001B5B334A001B5B9F
:1005E000303B3048001B5B324A002D0030002000B9
:1005F00011241FBECFEFD4E0DEBFCDBF12E0A0E0DC
:10060000B1E0E4ECF9E302C005900D92AE33B1071E
:10061000D9F712E0AEE3B2E001C01D92A434B107F5
:10062000E1F70E94370A0C94E01C0C940000F99941
:10063000FECF72BD61BD80BDFA9AF99A12BC11BCA1
:100640000895F999FECF92BD81BDF89A80B512BC8C
:1006500011BC0895219A90E19A95F1F700C081119B
:1006600021989EE29A95F1F7199B80E096E89A9579
:10067000F1F700C021980895CF93DF93C82FD8E0F9
:100680008C2F81700E942A03C6958111C068D150B9
:10069000B9F78C2FDF91CF9108955D9A5F9A5E9A9A
:1006A000289A08955D985F985E98289808955F98B5
:1006B000089543984298419840980895A1E0B0E089
:1006C000E4E6F3E00C94821C339902C090E001C090
:1006D00090E1329902C080E001C080E2982B31990C
:1006E00002C080E001C080E4982B309902C080E015
:1006F00001C080E8192F182B439A429A419A409AD8
:100700003B983A98399838985C98459A80E887FFE2
:1007100039C0449A00000000339902C090E001C043
:1007200090E1329902C080E001C080E2319902C0BC
:1007300050E001C050E4309902C040E001C040E800
:10074000449800000000449A0000000026B123FBFA
:10075000222720F9922B892B852B842B329902C0DA
:1007600030E001C032E0832B319902C020E001C0AB
:1007700024E0822B309902C090E001C098E0892BE0
:100780004498C5CF45983B9A3A9A399A389A8983C2
:100790000E945903898114FD439A15FD429A16FD62
:1007A000419A17FD409A2196E3E00C949E1C449ACE
:1007B00000C000C044980895CF93C82F0E945903E9
:1007C000C4FD439AC5FD429AC6FD419AC7FD409AB1
:1007D0000E94D7030E945903C0FD439AC1FD429A6B
:1007E000C2FD419AC3FD409A0E94D703CF9108955C
:1007F000853008F081E0653108F061E0982F909530
:100800009170282F30E02150310935952795459872
:100810005C98892F8295880F880F807C815894E19D
:10082000299F800D1124860F0E94DC030E945E0325
:100830000895A1E0B0E0EFE1F4E00C94831C45984A
:10084000611122C05C9869830E94DC030E945E03F0
:1008500069816623D9F00E945E03803481F028F418
:100860008431A1F461E082E00CC0843529F088363F
:1008700069F461E081E005C061E083E002C061E00D
:1008800084E00E94F80302C05C9ADDCF2196E2E08A
:100890000C949F1CCF93DF93EC018991882321F066
:1008A00061E00E941904F9CFDF91CF910895459836
:1008B0005C9A0E94DC030E945E030895862798E0FC
:1008C0002CE8382F31708695311182279150C9F765
:1008D0000895962728E0AC01880F991F57FF04C0A0
:1008E00031E2832730E193272150A9F70895A0E052
:1008F000B0E0EDE7F4E00C947D1C082F162FC82E15
:10090000C60E682F80E10E945E04F82E612F80E100
:100910000E945E04D82E612F8F2D0E945E04E82E67
:10092000C8E1D0E0BE01802F0E941703BE016F5FB7
:100930007F4F812F0E941703BE016E5F7F4F8C2D6A
:100940000E941703BE016D5F7F4F8F2D0E9417031A
:10095000BE016C5F7F4F8D2D0E941703BE016B5F40
:100960007F4F8E2D0E941703A496C438D105D1F66F
:10097000CDB7DEB7E8E00C94991CA0E0B0E0E3EC62
:10098000F4E00C94781C082F162FC8E1D0E0E82E74
:10099000E60ECE010E942103782ECE0101960E9420
:1009A0002103882ECE0102960E942103982ECE01AB
:1009B00003960E942103A82ECE0104960E942103D3
:1009C000B82ECE0105960E942103D82E602F80E11B
:1009D0000E945E04F82E612F80E10E945E04C82E02
:1009E000612F8F2D0E945E0470120AC0811208C010
:1009F0009E1006C0AF1004C0BC1002C0D81631F063
:100A0000A496C438D10529F680E001C081E0CDB7B5
:100A1000DEB7EDE00C94941CA0E0B0E0E2E1F5E07C
:100A20000C947B1C6C015B01C8E1D0E0E12CCE0191
:100A30000E942103182FCE0101960E942103082F46
:100A4000682F812F0E94BD04F82E8823B9F188E118
:100A500090E00E942103C82F8CE390E00E942103C4
:100A6000C81729F188E190E00E942103C82F80E691
:100A700090E00E942103C8131AC089E190E00E940F
:100A80002103C82F8DE390E00E942103C8130FC0FB
:100A900089E190E00E942103C82F81E690E00E9446
:100AA0002103C81304C0602F812F0E947704F60130
:100AB0001083F5010083FF24F39416C0F2E0EF12D7
:100AC0000DC0602F812F0E94BD04811107C085E4F5
:100AD000F601808385E6F501808306C0E394A49641
:100AE000C438D10509F0A3CF8F2DCDB7DEB7EAE02A
:100AF0000C94971C80B7806880BF80917C008564CF
:100B000080937C0080917A00866080937A00809147
:100B10007A00806880937A0080917A008064809364
:100B20007A0080917A0086FDFCCF809178009091C8
:100B300079002FEF8FE797E0215080409040E1F758
:100B400000C0000028E080E090E030917A0030643E
:100B500030937A0030917A0036FDFCCF40917800D6
:100B600050917900840F951F215079F780389C406F
:100B7000D8F480917C00806880937C008FEF9FE7A1
:100B800027E0815090402040E1F700C000008091B4
:100B90007A00806480937A0080917A0086FDFCCF91
:100BA000809178009091790008952998219A8CEC91
:100BB00094E00197F1F700C00000219898ED9A9514
:100BC000F1F7000083B1EAE2F4E03197F1F700C0F9
:100BD000869581700895CF92DF92EF92FF928823DD
:100BE00009F46BC00E94D5058CEC0E943C038EE496
:100BF0000E943C038DE70E943C0388ED0E943C0369
:100C00008FE10E943C030E94D5058CEC0E943C03BE
:100C100084E40E943C03C12CFCE2DF2EEE24E3942A
:100C2000F12C81E00E942A03811106C081E0C81ADC
:100C3000D108E108F108A9F70E94D5058CEC0E94C3
:100C40003C038EEB0E943C038FEF0E943C03F82E86
:100C50008FEF0E943C03282F30E0322F2227C9015A
:100C60008F0D911D9C012227387F232B41F541E0F8
:100C700050E09C012C5F3F4F880F991F880F991FF0
:100C8000280F391F73E0369527957A95E1F7249F51
:100C9000B001259F700D349F700D112477FD03C0A6
:100CA00085E090E002C08BEF9FEF860F971F6AE010
:100CB00070E00E94401C862F08C080E806C0919515
:100CC000819591094FEF5FEFD4CFFF90EF90DF90C8
:100CD000CF90089580917C00887F80937C008091E4
:100CE0007C00856080937C0090917C009095991F9A
:100CF0009927991F8BE0891B982F40E050E0BA019B
:100D000080917A00806480937A0080917A0086FDD9
:100D1000FCCF2091780030917900420F531F611D64
:100D2000711D915069F7DB01CA018096A11DB11DAB
:100D300026E0B695A795979587952A95D1F70895BA
:100D400035B516BC81E085BB80EA86BD85E085BDF2
:100D500080E095E541E050EA2FEF290F2E3F68F43F
:100D6000990F21E0349B20E0922BA89BFECF45BB3E
:100D700056BD883088F78F5FEFCF883088F335BD58
:100D800081E0911180E008959FEB980F9A3130F047
:100D9000843C21F0863D11F08C3D09F48062089579
:100DA000CF93DF93FC01DF01EB018991BE01882322
:100DB00029F031969C919817B1F303C081E090819E
:100DC000911180E0DF91CF910895282F40E050E00D
:100DD00066E970E099B1892F887093FF06C0415091
:100DE000510961097109B1F714C0452B462B472BF6
:100DF00081F040E050E066E970E09091C00095FD20
:100E000005C04150510961097109B9F72093C60025
:100E1000089581E00895CF93DF93EC01FE01849162
:100E2000882329F00E94E50621968823B9F3DF91F3
:100E3000CF910895A1E2B0E0E0E2F7E00C94751CD8
:100E40006B017C01FE01319681E2DF011D928A95E2
:100E5000E9F7483449F018F4423441F073C042369F
:100E600029F0483609F06EC080E052C081E090E081
:100E7000A0E0B0E08C159D05AE05BF0528F4880FF5
:100E8000991FAA1FBB1FF6CF80389105A105B10598
:100E900058F081159048A105B10560F0812C912C86
:100EA000A12C50E8B52E0BC040E8842E912CA12C2B
:100EB000B12C05C0812C30E8932EA12CB12CD5018A
:100EC000C4018C219D21AE21BF21892B8A2B8B2B24
:100ED00011F480E301C081E30E94E506B694A79473
:100EE0009794879481149104A104B10441F76AC0D6
:100EF000811114C0DF01A80FB11D9C2D9F709C9320
:100F000094E0F594E794D794C7949A95D1F78F5FBE
:100F1000C114D104E104F10469F7EACFF82E80FF8F
:100F20000CC0F3940AC0FE01EF0DF11D80818A30E0
:100F300038F0895C0E94E506FA94F110F4CF42C0C3
:100F4000805DF8CFC114D104E104F10429F48CEEE2
:100F500095E00E940B0736C0F7FE0AC0F094E094BB
:100F6000D094C094C11CD11CE11CF11C01E001C053
:100F700000E05F0110E08AE0482E512C612C712CBA
:100F80001F5FC701B601A30192010E94541CD50145
:100F90006D935D0169017A01C114D104E104F1048A
:100FA00011F0113269F7002321F08AEE95E00E94DA
:100FB0000B07FE01E10FF11D8081805D0E94E506B7
:100FC0001150B9F7A196E0E10C94911C8F929F9279
:100FD000AF92BF92CF92DF92EF92FF92CF93DF93C7
:100FE0006B017C01C42FD0E02AE0822E912CA12C31
:100FF000B12C611571058105910541F0A5019401A0
:101000000E94541CCA01B901DF5FF3CFF7FE02C092
:10101000C111C150CD1780F444E6C701B6010E944A
:101020001A07DF91CF91FF90EF90DF90CF90BF90A4
:10103000AF909F908F900895CD1BCC2369F38EEED7
:1010400095E00E940B07C150F8CFCF93DF93EC01DE
:1010500090E08991882331F0911104C00E94E50647
:10106000982FF7CFDF91CF91089580E090E0A6E927
:10107000B0E02091C00027FD05C00197A109B1098A
:10108000C1F709C0892B8A2B8B2B29F05A9A8091A2
:10109000C6005A98089580E0089581E086BB1092BA
:1010A0008500109284000895E1E8F0E08081887F57
:1010B00080830895E1E8F0E0808182608083089574
:1010C000CF93DF93C3E680ED8C0F843050F00E9405
:1010D0003508C82F8A3011F48FEF1EC08D3099F774
:1010E000FBCF8C2F0E94E506CC0F84E0C89FC00D7B
:1010F0001124C051D0E083E69FEF9D0F9E3148F050
:101100000E9435088A3041F38D3031F3D82FDC0F3F
:10111000F3CF0E94E5068D2FDF91CF91089585EEE4
:1011200095E00E940B078EED95E00E940B0789ED7C
:1011300095E00E940B0787EC95E00E940B0708954D
:10114000BC0140984398429890E120E030E848E0A4
:10115000F901E623F723EF2B09F0409A46B946B987
:10116000409836952795915099F784E086B986B9CD
:101170000895419A389A399A3A9A3B9A40984298F7
:10118000439893E028E034E084E126B926B9815001
:10119000E1F736B936B99150B9F789E999E0019785
:1011A000F1F700C0419808952B9800C02A9800C01C
:1011B00083B12A9A8295817008952D982B982A9848
:1011C0009EBD0DB407FEFDCF9EB58EBD0DB407FECE
:1011D000FDCF8EB52A9A2D982B98089580E090E047
:1011E0000E94DD080895CF92DF92EF92FF92CF9395
:1011F000C82FC12C80EBD82E84E0E82EF12C0E9461
:10120000D40881110BC081E0C81AD108E108F108A7
:101210008FEFC816D806E806F80689F78C2F90E0FD
:1012200098540E94DD0881E0CD28CE28CF2809F00F
:1012300080E0CF91FF90EF90DF90CF900895A0E0F5
:10124000B0E0E5E2F9E00C947B1CD82EB92ED62F45
:1012500089E092E80E94DD0800C00E94EE0889E360
:1012600092E80E94DD0800C08AEA0E94F308C82FB5
:101270008AEA0E94F308C80F8AEA0E94F308C80F9E
:101280008AEA0E94F308C80F8DE20E94F308C80F93
:1012900084ED0E94F308C80F8D2F0E94F308C80F39
:1012A0006D2F8FE09DE10E9469048C01DF3108F011
:1012B000DEE1CD2CED2CFB2C8E2D8C198D1770F4CE
:1012C0005701F70181917F010E94F308C80FF501D2
:1012D0006081C8010E9469048C01EECF00951095D1
:1012E000812F0E94F308C80F802F0E94F308C80FB7
:1012F0008AEA0E94F308C80F8AEA0E94F308C80F1E
:1013000089E092E80E94DD0800C00E94EE0881E0BA
:10131000C11101C080E0CDB7DEB7EAE00C94971CA4
:10132000CF92DF92EF92FF92CF93DF93EC01C12C2B
:1013300080EBD82E84E0E82EF12C0E94D408811195
:101340000CC081E0C81AD108E108F1088FEFC81677
:10135000D806E806F80689F707C0CD28CE28CF289A
:1013600019F498819F5F988380E090EB0E94DD08DC
:10137000DF91CF91FF90EF90DF90CF90089589EDAE
:1013800092E80E94DD0881E89AEC0E94DD0800C026
:1013900000C083E89AEC0E94DD0880E008951F9267
:1013A0000F920FB60F9211248F9381E08093430226
:1013B0008F910F900FBE0F901F9018951F920F9254
:1013C0000FB60F9211242F938F939F938091420217
:1013D000882329F0809142028F5F8093420280919E
:1013E0004102882329F0809141028F5F809341025E
:1013F00080913F0290914002892B49F080913F02F9
:101400009091400201969093400280933F02809118
:1014100042028E3F10F010924202809141028E3FB4
:1014200010F01092410280913F0290914002813170
:10143000974220F01092400210923F029F918F91AC
:101440002F910F900FBE0F901F9018951F920F9223
:101450000FB60F9211248F9380913E028F5F80937D
:101460003E028F910F900FBE0F901F901895A3E82A
:10147000B1E0EDE3FAE00C94731C88E10FB6F89448
:1014800080936000109260000FBE10E000E09E01AB
:101490002F5F3F4F690180E2D9011D928A95E9F7DC
:1014A000FE01E85CFE4FC35ADE4FF983E883CD5559
:1014B000D1408FE1A82E1192AA94E9F77E0127EE80
:1014C000E21A2EEFF20AD701E82F1D92EA95E9F70A
:1014D0009E0126503F4FC15ADE4F39832883CF5596
:1014E000D140D901E82F1D92EA95E9F7FE01E552B6
:1014F000FF4FDF01A82E1D92AA94E9F72E53310960
:10150000CF59DE4F39832883C156D140D901E82F06
:101510001D92EA95E9F7FE01E356FF4FDF01A82E81
:101520001D92AA94E9F77F97DF01A82E1D92AA9435
:10153000E9F77F97DF01A82E1D92AA94E9F77F971C
:10154000DF01A82E1D92AA94E9F77F97DF011D9273
:101550008A95E9F70E94B90880916400806C8093B5
:10156000640080B7806880BF0E945A082898209A3B
:101570005E98569A0E945703579A5D98559A0E9412
:101580007A050E946A06222423948C3908F0212CC3
:101590008EE1C85ADE4F8883C855D140C95ADE4F04
:1015A0008883C755D140BE01685A7E4FCE01895A03
:1015B0009E4F0E940C05811102C00E944D03C85A23
:1015C000DE4FB880C855D140C95ADE4F5880C75544
:1015D000D1402220D1F0552019F0BB2029F028C09D
:1015E000AEE15A2EB11002C0FEE1BF2E6B2D852D4B
:1015F0000E9477049EE088E10FB6F894A895809346
:1016000060000FBE90936000FFCF511002C0BB205E
:1016100079F060E080E00E9477049EE088E10FB6F8
:10162000F894A895809360000FBE90936000FFCF60
:101630005F9AC259DE4FD982C882CE56D140C7596F
:10164000DE4FF982E882C956D140FE01E05CFF4FCF
:10165000C75ADE4FF983E883C955D1409E0122580D
:101660003F4FC55ADE4F39832883CB55D140C9013E
:101670009F01AE0143565F4FBE0164547F4FDE01B0
:10168000A650BF4F7D01E850FF4F6F01A12CB0E87D
:101690009B2EE0E27E2E88248394AB1458F499B8F4
:1016A00079B8FFEFAFEFB5E0F150A040B040E1F7FF
:1016B00000C000C0C259DE4FE881F981CE56D1404A
:1016C0008192C259DE4FF983E883CE56D140C75983
:1016D000DE4FA881B981C956D1401D92C759DE4F4E
:1016E000B983A883C956D140F60111926F01D70181
:1016F0001D927D01FB011192BF01DA011D92AD0126
:10170000F90111929F01DC019D92CD01A394BEE1EC
:10171000AB12C3CF0E9457035D982110DFC0109217
:101720004102109242021092400210923F024498ED
:101730003C9898B185B198130AC0809168008E7F5B
:101740008093680080916B008F7E80936B0098B1CE
:101750008BB198130AC0809168008B7F80936800DA
:1017600080916D008F7E80936D0098B188B1981341
:101770000AC0809168008D7F8093680080916C0022
:101780008F7E80936C0010927C0010927A001092F1
:1017900043020E945203449845985C980E94590362
:1017A0003C9A3D9A549A3B9A3A9A399A389AEFEF72
:1017B000FFEF25E0E150F0402040E1F700C000C01D
:1017C000429A439A0E94D7038FEF9FE50197F1F762
:1017D00000C000000E94D703AFEFBFE51197F1F7FB
:1017E00000C000000E94D703EFEFFFE53197F1F74B
:1017F00000C000000E945903429A0E94D7030E9431
:101800005E0360E088E20E94190460E08CE00E94C0
:10181000190460E086E00E94190460E081E00E9403
:10182000190460E080E40E94190484E00E945704D7
:1018300084E00E9457048AE00E9457048AE00E94D4
:10184000570485E10E94570481E10E9457048AE011
:101850000E94570484E00E94570482E00E945704CB
:1018600085E00E94570482E00E94570480E00E94B5
:10187000570480E00E94570480E00E94570480E0F3
:101880000E94570480E00E94570460E080E80E94B4
:10189000190461E082E00E94F80361E080E00E94A8
:1018A000190461E080E00E94190488E391E00E943D
:1018B0004A0461E080E00E94190461E080E00E9437
:1018C000190460E082E00E94190485B5856085BD39
:1018D00080916E00816080936E0037C00E94B908CD
:1018E000449A3C9898B185B198130AC080916800D9
:1018F00081608093680080916B00806180936B00B1
:1019000098B18BB198130AC080916800846080936D
:10191000680080916D00806180936D0098B188B1FE
:1019200098130AC08091680082608093680080915B
:101930006C00806180936C0081E0809343020E9480
:101940007A050E94520354985C9A8FB7F8945B9A78
:101950005398529A1092C5009FE39093C40098E167
:101960009093C10096E09093C2008FBF5A9835E0E3
:10197000C959DE4F3883C756D140F12CEE24E39489
:101980000E94D50593B1969591709E25890FF80E0A
:10199000C959DE4F3881C756D1403150C959DE4F41
:1019A0003883C756D1403111EBCFF11006C03FE666
:1019B000C959DE4F3883C756D140C959DE4F888197
:1019C000C756D1400E94EB05C859DE4F8883C856E0
:1019D000D1402A9A2C9A2498239A259A229A8CB537
:1019E00081658CBD4FEF5FEF8EE0415050408040ED
:1019F000E1F700C00000A5E0FA2E80E090EC0E9424
:101A0000DD0888EE90E80E94DD0883E296EC0E94F3
:101A1000DD0881EC94E90E94DD0880E298E90E94EB
:101A2000DD088CEA92EC0E94DD0881E89AEC0E94C5
:101A3000DD0880E098EC0E94DD0887EF94EC0E94BE
:101A4000DD0880E090EE0E94DD0889E092E80E94C7
:101A5000DD088FEE95EA0E94DD08A6E6B6E2119752
:101A6000F1F70000FA94F110C8CF0E94EE080E942E
:101A7000BF09211033C089E6C75EDE4F8883C95194
:101A8000D14084E6C65EDE4F8883CA51D14080E3F0
:101A9000C55EDE4F8883CB51D140F5E0FF2E5F9AC3
:101AA0006AE089E491E00E941F090E945703BFEF9A
:101AB000EFEFFEE0B150E040F040E1F700C0000081
:101AC000FA94F110ECCF60E081E00E94190480915B
:101AD0006E00816080936E00412C2FC00E94A00692
:101AE000482E882311F05E9A01C05E98006280E75C
:101AF000C75EDE4F8883C951D140C65EDE4F588233
:101B0000CA51D140C55EDE4FB882CB51D1400E9450
:101B10006A06C45EDE4F8883CC51D140C35EDE4F7F
:101B20004882CD51D140C859DE4FA880C856D14017
:101B3000C25EDE4FA882CE51D14010617894852DCF
:101B400090E09C01220F331FA9014D5F5F4FC958E0
:101B5000DE4F59834883C757D14034E0C459DE4F24
:101B60003883CC56D1403FE0C559DE4F3883CB5641
:101B7000D140E3E03E2E31E0CB59DE4F3883C556ED
:101B8000D140C359DE4F1882CD56D140CA59DE4FDD
:101B90003883C656D140AE0145525F4FCD59DE4F16
:101BA00059834883C356D140DC011197C259DE4F97
:101BB000B983A883CE56D140EAEFF0E0EC0FFD1FC9
:101BC000EA0FFB1FC758DE4FF983E883C957D1409E
:101BD000CA018B0D911D9C0121503109C558DE4F62
:101BE00039832883CB57D1404CEB50E04C0F5D1F1D
:101BF0004A0F5B1FC358DE4F59834883CD57D140EE
:101C00008DE990E08C0F9D1F8A0F9B1FC158DE4FFE
:101C100099838883CF57D140EEE7F0E0EC0FFD1FAA
:101C2000EA0FFB1FCF57DE4FF983E883C158D1403D
:101C300080914302882369F0FFB6F8941092430222
:101C40000E94A006482E882311F05E9A01C05E987B
:101C5000FFBE8091C000881F8827881F80FB10F975
:101C600010FFAAC1FFB6F8941E7F289A0E9435087B
:101C700089838D3009F45DC030F4883009F459C08F
:101C80008A3089F456C08F3709F453C08F3F59F416
:101C90000E9435088A830E9435088B830E9435088C
:101CA0008C831D8247C00E94C40689830E94E5067A
:101CB000E12C0E9435080E94C406982F8D3039F01F
:101CC0008A3029F0883029F18F3719F101C090E06E
:101CD000E2E0F0E0EC0FFD1FEE0DF11D9083892F87
:101CE000CD57DE4F9883C358D1400E94E506CD57AB
:101CF000DE4F9881C358D140992311F40C942818D1
:101D0000E394FCE1FE15A8F688E690E00E940B073C
:101D100011C0E1100C94BB1B1A8282EC95E00E946A
:101D20000B0780EC95E00E940B078BEB95E00E947F
:101D30000B07198264E571E0CE0101960E94D0067E
:101D4000882311F012601F7E69E571E0CE010196D3
:101D50000E94D006882311F000681F7E60E671E0C3
:101D6000CE0101960E94D006811100626AE671E000
:101D7000CE0101960E94D006811118C06FE671E075
:101D8000CE0101960E94D006811110C064E771E077
:101D9000CE0101960E94D006811108C06AE771E069
:101DA000CE0101960E94D006882311F018601F7E94
:101DB00065E671E0CE0101960E94D006882311F0FD
:101DC00010641F7E6FE771E0CE0101960E94D0067D
:101DD000882331F0211004C00260016004601068A3
:101DE00066E871E0CE0101960E94D006882311F0CA
:101DF000211008606BE871E0CE0101960E94D006C8
:101E000081110E948F086FE871E0CE0101960E9457
:101E1000D0068111006164E971E0CE0101960E9453
:101E2000D006811107C067E971E0CE0101960E94DA
:101E3000D0068111006460EA71E0CE0101960E9433
:101E4000D006882309F444C084EA91E00E94250862
:101E500064E0A62EE12C80E090E06C0154E0CC0C14
:101E6000DD1C5A95E1F70E943508982E0E94E50680
:101E7000892D806290ED980F9A3040F09FE9980F7D
:101E8000963018F499EA980F01C09FEF81E09F3FC8
:101E900009F080E0E80E9601292BC901AA94A1104F
:101EA000DCCFE11011C08F3F3FEF930769F00E9434
:101EB000DD086C0187EC91E00E942508B60180E006
:101EC00090E048E60E941A0781ED91E00E94250803
:101ED00065ED71E0CE0101960E94D006882369F07D
:101EE00081E995E00E940B070E944D080E945A0864
:101EF00080916F00816080936F006AED71E0CE0188
:101F000001960E94D006882379F087E695E00E942A
:101F10000B0710923E020E94540880916F008E7F42
:101F200080936F000E944D0889818F3FD9F5DA8038
:101F30008D0D8E31B8F5EB80CC24CA94CE0C4FE0D9
:101F40004C1580F1AC806D2D80E00E945E046E2DFA
:101F50000E945E04A81226C086E6C75EDE4F888314
:101F6000C951D140C65EDE4FD882CA51D140C55E4C
:101F7000DE4FE882CB51D1401061BD1013C022204A
:101F800089F0E0E4F0E0EC0FFD1FEC0DF11D808125
:101F9000811108C012FD06C0C65CDE4FE882CA533C
:101FA000D14014602898898181508E3F20F484E6C6
:101FB00095E00E940B07FFBE06FF28C0FFB6F8940D
:101FC0000F7B81E695E00E940B07211003C08CE295
:101FD00091E002C084E291E00E9425088EE595E040
:101FE0000E940B0783E595E00E940B078DE495E0C6
:101FF0000E940B0744E66CE070E080E090E00E94F5
:102000001A0789E495E00E940B07FFBE11FF0BC180
:10201000DFB6F8941D7F0E944D080E9454080E946C
:102020008F0889E992E00E940B0787E692E00E9400
:102030000B07BE01685A7E4FCE01895A9E4F0E94FF
:102040000C0581110CC081E692E00E940B0788E428
:1020500092E00E940B0782E492E00E940B078CE35F
:1020600092E00E940B0781E292E00E940B07211090
:1020700003C08CE291E002C084E291E00E94250856
:10208000222009F4CBC089E092E00E940B0783E094
:1020900092E00E940B07C95ADE4F8881C755D14094
:1020A000853489F08A3018F480E30E94E506C95A25
:1020B000DE4F6881C755D14070E080E090E044E693
:1020C0000E941A0704C08CEF91E00E940B0789EF71
:1020D00091E00E940B0783EF91E00E940B078EEDC9
:1020E00091E00E940B0788ED91E00E940B07C85A0F
:1020F000DE4F8881C855D140853689F08A3018F482
:1021000080E30E94E506C85ADE4F6881C855D14079
:1021100070E080E090E044E60E941A0704C081ED80
:1021200091E00E940B078EEC91E00E940B0788EC77
:1021300091E00E940B0783EC91E00E940B078EE870
:1021400091E00E940B070E9435088823E1F3282FB5
:102150002062822FCD57DE4F2883C358D1400E9482
:10216000E5068BE891E00E940B0788E891E00E9469
:102170000B07CD57DE4F2881C358D140293609F0CF
:10218000F1C68BE591E00E940B0785E591E00E9486
:102190000B07C95ADE4FE880C755D1400E9460083E
:1021A000C95ADE4F8883C755D1408F3F29F4C95A99
:1021B000DE4FE882C755D1408FE491E00E940B07C3
:1021C00080E291E00E940B078AE191E00E940B07F8
:1021D000C85ADE4FF880C855D1400E946008C85ADE
:1021E000DE4F8883C855D1408F3F29F4C85ADE4F4F
:1021F000F882C855D14084E191E00E940B07C95A8A
:10220000DE4F8881C755D1408E11AFC6C85ADE4F08
:102210009881C855D1409F11A8C6A4C685E790E013
:102220000E940B07DFBE07FFA1C0AFB6F8940F777F
:102230000E944D080E94540889E893E00E940B0711
:1022400088E493E00E940B0782E493E00E940B076E
:102250008CE293E00E940B070E946008E82E89E25E
:1022600093E00E940B075FEFE51609F47EC083E15F
:1022700093E00E940B070E946008F82E80E193E033
:102280000E940B078DE093E00E940B078FEFF8167A
:1022900009F46BC087EF92E00E940B070E94600870
:1022A000C82E84EF92E00E940B079FEFC91609F435
:1022B0005CC08EED92E00E940B070E946008D82E51
:1022C0008AED92E00E940B07AFEFDA1609F44DC0D9
:1022D000EC1003C0FD1409F448C08FE992E00E949D
:1022E0000B070E943508982E8823D9F30E94E50633
:1022F000892D80628A36C9F583E6C75EDE4F888302
:10230000C951D140C65EDE4FE882CA51D140C55E98
:10231000DE4FF882CB51D140C45EDE4FC882CC5133
:10232000D140C35EDE4FD882CD51D140E51014C0FC
:10233000FB1012C089E295E00E940B07C35EDE4FDE
:102340006881CD51D140C45EDE4F8881CC51D140EF
:102350000E947704006105C08EEF94E00E940B0795
:1023600010618AEF94E00E940B07AFBE03FF10C01C
:102370008FB7F894077FFE01E05CFF4FC75ADE4F2E
:102380009881C955D140905F11929E13FDCF8FBFA8
:1023900013FFFFC0CFB6F894177F0E944D080E942C
:1023A000540899819936C9F09437B9F09636A9F056
:1023B00089EE94E00E940B070E943508982F9062E6
:1023C000892FCD57DE4F9883C358D1400E94E50630
:1023D000CD57DE4F9881C358D140FE01E75EFE4FD6
:1023E0009083963641F0993609F455C0943709F434
:1023F00058C0E12C9CC0DD24D394EE24E3942CED52
:1024000034E04F01C9010E940B070E943508F82EE5
:102410008823D9F30E94E506B0EDFB0E0E94350833
:10242000A82E8823D9F30E94E506FF0C9F2D990F53
:10243000990F9F0D9053F92EFA0C8CEC94E00E94AA
:102440000B07FF20D1F02F2D30E0E1E0DE1619F070
:1024500081E190E002C08FE190E0281739076CF429
:102460006F2D70E080E090E044E60E941A07F401CE
:10247000ED0DF11DF0829D2D06C08AEB94E00E94C7
:102480000B0793E0E12C20ED34E042E0D42E9130B4
:1024900009F4B8CF4CC0908384E6818380E38283C3
:1024A00044C0C959DE4F8881C756D1400E94EB0510
:1024B000C859DE4F8883C856D1408DEA94E00E9407
:1024C0000B07C859DE4F3881C856D140303819F44F
:1024D00088EA94E010C044E0C859DE4FA880C8568E
:1024E000D1406A2D772767FD7095872F972F0E941F
:1024F000E60785EA94E00E940B0784E7C75EDE4F9B
:102500008883C951D14085E6C65EDE4F8883CA51B3
:10251000D1408DE6C55EDE4F8883CB51D14080E748
:10252000C45EDE4F8883CC51D140EE24E39481EA2F
:1025300094E00E940B07EE2009F11061C75EDE4FA8
:102540008881C951D1408636D1F4C65EDE4F88817C
:10255000CA51D140B81213C0C55EDE4F8881CB513D
:10256000D140FE01E80FF11D97AD911108C0C65C86
:10257000DE4F8883CA53D140146001C01F7E809112
:10258000C00087FF03C08091C600F9CF0E945A089F
:10259000CFBE16FFBCC12FB7CA58DE4F2883C6571F
:1025A000D140F8941F7B0E948F088AE694E00E9435
:1025B0000B0786E594E00E940B0784E494E00E94F8
:1025C0000B078EE394E00E940B078AEE93E00E94D3
:1025D0000B079E01215A3F4FCE58DE4F3983288387
:1025E000C257D140235A3F4FCC58DE4F39832883FE
:1025F000C457D140225C3F4FC059DE4F39832883F6
:10260000C057D140AE0143565F4F4A012C573109A4
:10261000C759DE4F39832883C956D140C12CD12CEC
:102620007601C3949AE0692EC759DE4FA880C95637
:10263000D140C55ADE4F3881CB55D140A31A48E06E
:102640004A1520F088EE93E00E940B0744E6C7018C
:10265000B6010E941A0785EE93E00E940B07C0594D
:10266000DE4FA881B981C057D1407C90711005C060
:1026700081EE93E00E940B0712C08FED93E00E9461
:102680000B07B9E0B71520F08DED93E00E940B0722
:10269000672D70E080E090E044E60E941A078AED22
:1026A00093E00E940B07CC58DE4FE881F981C457B4
:1026B000D1408191CC58DE4FF983E883C457D14093
:1026C000662D0E94341C792E811105C085ED93E0A2
:1026D0000E940B0712C0682F70E080E090E042E09B
:1026E0000E94E60783ED93E00E940B07672D70E0E0
:1026F00080E090E044E60E941A0780ED93E00E949B
:102700000B07C059DE4FA881B981C057D1407D90D9
:10271000C059DE4FB983A883C057D140772029F034
:10272000F40180810E94E50604C08EEC93E00E94D3
:102730000B078BEC93E00E940B07C759DE4FA88173
:10274000B981C956D1406D91C759DE4FB983A8836D
:10275000C956D140603849F0772767FD7095872FBB
:10276000972F44E00E94E60709C0772019F086EC15
:1027700093E002C081EC93E00E940B078EEB93E0A4
:102780000E940B07CE58DE4FE881F981C257D14035
:102790007190CE58DE4FF983E883C257D14077203D
:1027A000A1F0F3E6F7151CF08BEB93E002C089EB88
:1027B00093E00E940B07672D772767FD7095872FA1
:1027C000972F44E60E941A0704C084EB93E00E940E
:1027D0000B078A2D63E00E94341C923019F481EBC0
:1027E00093E002C08FEA93E00E940B072FEF821A5A
:1027F000920A3FEFC31AD30AE30AF30A4FE1C41661
:10280000D104E104F10409F00FCF82E993E00E94C2
:102810000B07C359DE4FA880CD56D1408A2D90E0DA
:10282000A0E0B0E044E6BC01CD010E941A078FE8A9
:1028300093E00E940B07DE01A552BF4F81E0C15A11
:10284000DE4F2881CF55D140225EFE01E650FF4F7A
:1028500090E03191381301C09F5F2E13FACF9D9302
:102860008F5F8F3191F786E894E00E940B079E01FD
:1028700025523F4F7901612C712C43016394DE2C6A
:10288000CD59DE4F3881C356D140D31A48E04D159B
:1028900018F080E30E94E50644E6C401B3010E94FB
:1028A0001A0783E894E00E940B07D7016D917D0120
:1028B000611105C08FE794E00E940B0706C070E02D
:1028C00080E090E043E00E94E6078D2D63E00E94E7
:1028D000341C923019F48CE794E002C084E794E051
:1028E0000E940B07BFEF6B1A7B0A8B0A9B0AEFE172
:1028F0006E1671048104910411F680E794E00E9441
:102900000B07CA58DE4FA880C657D140AFBE202F54
:102910002071F22E04FF18C0F894211008C060E066
:1029200081E00E9419048FED91E00E944A049EE02C
:1029300088E10FB6F894A895809360000FBE90933D
:1029400060000E948F08FFCF05FD0AC014FF86C3F8
:10295000C75EDE4F8881C951D140893609F027C34F
:10296000EFB6F8940F7DBE0165527F4F4E013FE5F3
:10297000830E911CCE0182589F4F9E0123563F4FDC
:10298000AE0144545F4FFE01E650FF4FA0E8CA2E4F
:10299000C15ADE4FD880CF55D140AEE1DA0E119248
:1029A000DB011D92BD01DA011D92AD01D9011D921D
:1029B0009D01DC01CD92CD01D4011D924D01DE12AD
:1029C000EECF2220E9F1C758DE4FE881F981C957DF
:1029D000D140B08281E0C558DE4FA881B981CB5784
:1029E000D1408C930E946A06C358DE4FE881F9817A
:1029F000CD57D1408083411002C08EE601C08AE6E7
:102A0000C158DE4FA881B981CF57D1408C93C859A6
:102A1000DE4FA880C856D140CF57DE4FE881F981FC
:102A2000C158D140A082EFE5F0E0EC0FFD1FC25984
:102A3000DE4F28813981CE56D140E20FF31F10823C
:102A4000EFBECA59DE4F3881C656D140C359DE4F5A
:102A50001882CD56D140311112C080913E0290E0D3
:102A6000C958DE4F48815981C757D1404817590787
:102A700034F0CA59DE4F1882C656D1400DC014FD3D
:102A80009EC280913E028E3708F099C231E0CA5949
:102A9000DE4F3883C656D14012FF30C0EFB6F894EF
:102AA0001B7F442041F1C65CDE4FD880CA53D14021
:102AB0008FEF8D0D8031F8F40E944D0320E180E00E
:102AC00090E0880F991F2D1101C081602150C9F736
:102AD0000E94A00889E999E60197F1F700C080E01B
:102AE00090E00E94A008FE01ED0DF11D81E087AF8E
:102AF0000E9452035E9A0E94BF09EFBE0E94D40852
:102B000080FB15F915FFCDC1EFB6F8941F7D5D9AD6
:102B1000C95ADE4F1882C755D1400E94EE08CE0137
:102B2000895A9E4F0E949009D82E682F8FE09DE110
:102B30000E9469044C012D2D2F3108F02EE1DE0199
:102B4000A85CBE4F6D018C2DC35ADE4FF881CD5568
:102B5000D1408F1B8217C0F4CE01895A9E4FCD57AA
:102B6000DE4F2883C358D1400E949009F60181931B
:102B70006F01682FC4010E9469044C01CD57DE4FDC
:102B80002881C358D140DFCFE8E3F1E0EC0FFD1F0F
:102B9000E20FF11D108280949094CE01895A9E4FCD
:102BA0000E949009682FC4010E9469046C01CE0143
:102BB000895A9E4F0E949009682FC6010E9469049D
:102BC0006C010E94EE0800C089E092E80E94DD08D6
:102BD00000C0CD2869F431E020E0C95ADE4F888179
:102BE000C755D140811101C030E0832F922F02C020
:102BF00081E090E05D98892B39F085E6C85CDE4F76
:102C00008883C853D1404AC1C85CDE4F8881C8530D
:102C1000D140893609F455C060F4833609F405C102
:102C2000863609F039C1C55CDE4F8881CB53D1406F
:102C30000CC0803709F492C0843709F02DC1C45C00
:102C4000DE4F8881CC53D14028C0815031F0A0E4C0
:102C5000B9E81197F1F70000F8CF442009F41CC13E
:102C6000C75CDE4F8881C953D1408B1115C122202A
:102C700009F412C1C65CDE4F8881CA53D14081502D
:102C8000E0E4F0E0EC0FFD1FE80FF11D8081811101
:102C900003C112FD01C11460FFC0815029F0E3E5BA
:102CA000F1E93197F1F7F9CFC959DE4F8881C7565D
:102CB000D1400E94EB05C859DE4F8883C856D140E9
:102CC000EBC0C55CDE4F8881CB53D140815031F0E1
:102CD000A0E4B9E81197F1F70000F8CF80E7C75EEC
:102CE000DE4F8883C951D140C65EDE4F5882CA513B
:102CF000D140C55EDE4FB882CB51D140222019F0C1
:102D00000E946A0601C082E3C45EDE4F8883CC5114
:102D1000D1402110F42CC35EDE4FF882CD51D1405A
:102D2000C859DE4FA880C856D140C25EDE4FA88287
:102D3000CE51D1400E944D0810923E0280916F000A
:102D4000816080936F000E945A08106108600062E1
:102D5000CA59DE4F1882C656D1409EC0C25CDE4FB3
:102D60008881CE53D140815039F0A8E7B1EA11975C
:102D7000F1F700C00000F7CFC75CDE4F8881C95370
:102D8000D140853479F0882369F0851559F0815058
:102D900090E0EAEFF0E0EC0FFD1FE80FF91F208153
:102DA000222361F0C359DE4F3881CD56D1403F5FB9
:102DB000C359DE4F3883CD56D1406EC0C65CDE4F5E
:102DC0002881CA53D1402083C55CDE4F2881CB5374
:102DD000D140ECEBF0E0EC0FFD1FE80FF91F208372
:102DE000C45CDE4F2881CC53D140211102C02EE6B5
:102DF00001C02AE6EDE9F0E0EC0FFD1FE80FF91F36
:102E00002083EEE7F0E0EC0FFD1FE80FF91FC35C35
:102E1000DE4F2881CD53D1402083EFE5F0E0EC0F69
:102E2000FD1FE80FF91F108237C0C35CDE4F888199
:102E3000CD53D140815039F0A5E6B9E91197F1F7AA
:102E400000C00000F7CF411027C0C75CDE4F88816B
:102E5000C953D140581220C0C65CDE4F8881CA5386
:102E6000D140B81219C0C55CDE4F8881CB53D14028
:102E7000C45CDE4F6881CC53D1409FEF980F9E31E8
:102E800058F49FEF960F9E3138F4851102C06B15F0
:102E900019F00E9477040061106802600E94BF0967
:102EA000EFBE21100C94180E809142028C3F60F40A
:102EB000809141028C3F40F480913F02909140020A
:102EC000823F924008F4D3C017FDD1C0FFB6F894FA
:102ED000809142028C3F28F4809141028C3F00F1A6
:102EE00010C01092420261E081E00E94F80354E1B8
:102EF000E52E8CE092E00E944A04EA94E110F9CFBA
:102F0000EBCF1092410261E082E00E94F80344E1BD
:102F1000E42E8CE092E00E944A04EA94E110F9CF9A
:102F200080913F0290914002823F9240C8F01092FF
:102F3000400210923F0261E083E00E94F80334E116
:102F4000E32E8BE092E00E944A04EA94E110F9CF6C
:102F500023E0322E31E0CB59DE4F3883C556D140C5
:102F6000FFBE85C086EA90E05BC9C85ADE4F688123
:102F7000C855D1400E947704C85ADE4F6881C855B1
:102F8000D140C95ADE4F8881C755D1400E94BD0447
:102F9000882319F089EF90E002C087ED90E00E944D
:102FA0000B0786EC90E00E940B0700613BC9CA59F1
:102FB000DE4F3881C656D140332309F44ECDEFB6EB
:102FC000F8941F7EC75EDE4F8881C951D140835679
:102FD000823150F490E0FC01EE5EFE4F9080FC01E7
:102FE000E050FF4FA08002C0A12C912CC92CD12C05
:102FF000E9E1F1E0EC0FFD1FEC0DFD1DA082118257
:1030000093946F01AA2079F05F9A692DCE01875EB3
:103010009E4F0E941F09D6018C9181508C930E9473
:103020005703AA94EFCF80913E028D3748F40E9457
:1030300054080E944D0880916F008E7F80936F002E
:1030400010923E020E94BF0910680160EFBE1ECDC3
:10305000EE2011F40C948D0E0C94840ECA59DE4FA0
:10306000A880C656D140AA2009F4F7CC0ACD17FD96
:1030700002C00C94180EDFB6F8941F7700FF21C22F
:1030800061E081E00E94F80381EF91E00E944A0430
:10309000C75EDE4F8881C951D140893609F499C095
:1030A00030F4833609F4ADC1863641F006C280376C
:1030B00009F4D7C0843709F455C1FFC1C65EDE4F9D
:1030C0008881CA51D14081508E3108F098C1C55EC7
:1030D000DE4F8881CB51D1408150803108F08FC1C3
:1030E00061E080E00E94190485EF91E00E944A04AB
:1030F000C65EDE4F6881CA51D14070E080E090E04A
:1031000022E0AE014F5D5F4F0E94C21BCE0181964F
:103110000E944A0488EF91E00E944A04C55EDE4F97
:103120006881CB51D14070E080E090E022E0AE01B8
:103130004F5D5F4F0E94C21BCE0181960E944A04E0
:1031400086E092E00E944A0402FD59C1C559DE4F53
:103150006881CB56D140C459DE4F8881CC56D140CE
:103160000E94F8038CE092E00E944A04CB59DE4FA3
:103170006881C556D140832D0E94F8038FEC91E001
:103180000E944A04C65EDE4F6881CA51D14070E099
:1031900080E090E022E0AE014F5D5F4F0E94C21BD5
:1031A000CE0181960E944A0461E080E00E941904E9
:1031B000C55EDE4F6881CB51D14070E080E090E089
:1031C00022E0AE014F5D5F4F0E94C21BCE0181968F
:1031D000E9C08CEF91E00E944A0402FD10C1C5597C
:1031E000DE4F6881CB56D140C459DE4F8881CC5622
:1031F000D1400E94F8038CE092E00E944A04CB592F
:10320000DE4F6881C556D140832D0E94F8038EE0C1
:1032100092E00E944A04CB59DE4F9881C556D140B6
:10322000995F963120F081E0830D91E001C0832DFC
:10323000853008F083E021E030E0309340022093B5
:103240003F02C459DE4F3882CC56D140CB59DE4FB5
:103250003881C556D140C559DE4F3883CB56D14051
:10326000C8C082E392E00E944A04C65EDE4F6881D5
:10327000CA51D14070E080E090E022E0AE014F5DA5
:103280005F4F0E94C21BCE0181960E944A0486EFC6
:1032900091E00E944A04C55EDE4F6881CB51D14067
:1032A00070E080E090E022E0AE014F5D5F4F0E9451
:1032B000C21BCE0181960E944A048CE092E00E94DB
:1032C0004A04C45EDE4F8881CC51D140843620F45C
:1032D0008CE092E00E944A04C45EDE4F8881CC51AB
:1032E000D1409AE0F92E6F2D0E94341C682F70E0B7
:1032F00080E090E021E0AE014F5D5F4F0E94C21B75
:10330000CE0181960E944A0485E192E00E944A041F
:10331000C45EDE4F8881CC51D1406F2D0E94341C99
:10332000692F70E080E090E021E0AE014F5D5F4FDB
:103330000E94C21BCE0181960E944A048CE092E05A
:103340000E944A04C35EDE4F8881CD51D140811175
:1033500002C08EE601C08AE661E00E94190489E09D
:1033600092E0A9C087E192E00E944A0402FD47C0B2
:10337000C559DE4F6881CB56D140C459DE4F888194
:10338000CC56D1400E94F8038CE092E00E944A049F
:10339000CB59DE4F6881C556D140832D0E94F8037A
:1033A00089E292E00E944A04CB59DE4F9881C556CB
:1033B000D140995F963120F081E0830D91E001C00A
:1033C000832D853008F083E021E030E03093400227
:1033D00020933F02C459DE4F3882CC56D140CB599E
:1033E000DE4FA880C556D140C559DE4FA882CB56C6
:1033F000D140382ECB59DE4F9883C556D1400B7F34
:103400005CC082E392E00E944A04C65EDE4F68819F
:10341000CA51D14070E080E090E022E0AE014F5D03
:103420005F4F0E94C21BCE0181960E944A0485EF25
:1034300091E00E944A04C55EDE4F6881CB51D140C5
:1034400070E080E090E022E0AE014F5D5F4F0E94AF
:10345000C21BCE0181960E944A0480E392E00E9442
:103460004A04C45EDE4F6881CC51D14070E080E0F8
:1034700090E022E0AE014F5D5F4F0E94C21BCE0183
:1034800081960E944A0485EF91E00E944A04C35E3F
:10349000DE4F6881CD51D14070E080E090E022E0C5
:1034A000AE014F5D5F4F0E94C21BCE0181960E940C
:1034B0004A048CE092E00E944A040E7F81E08093EF
:1034C000420201FF55C161E082E00E94F80384E3FB
:1034D00092E00E944A04C85CDE4F8881C853D14004
:1034E000893609F44FC030F4833609F4C7C08636F4
:1034F00051F03AC1803709F448C0843709F034C12B
:1035000087E192E02FC1C75CDE4FE880C953D1400C
:103510008FEF8E0D8E3108F027C1C65CDE4FF8802C
:10352000CA53D1408FEF8F0D803108F01DC161E08B
:1035300080E00E94190485EF91E00E944A046E2DFC
:1035400070E080E090E022E0AE014F5D5F4F0E94AE
:10355000C21BCE0181960E944A0488EF91E00E942E
:103560004A046F2D70E080E090E022E0AE014F5DF4
:103570005F4F0E94C21BCE0181960E944A0485E0E3
:1035800092E0F0C08CEF91E0EDC082E392E00E9407
:103590004A04C75CDE4F6881C953D14070E080E0C7
:1035A00090E022E0AE014F5D5F4F0E94C21BCE0152
:1035B00081960E944A0486EF91E00E944A04C65C0C
:1035C000DE4F6881CA53D14070E080E090E022E095
:1035D000AE014F5D5F4F0E94C21BCE0181960E94DB
:1035E0004A048CE092E00E944A04C55CDE4FF880F9
:1035F000CB53D14023E62F1520F08CE092E00E94BF
:103600004A048F2D6AE00E94341CF92E682F70E066
:1036100080E090E021E0AE014F5D5F4F0E94C21B51
:10362000CE0181960E944A0485E192E00E944A04FC
:103630006F2D70E080E090E021E0AE014F5D5F4FC4
:103640000E94C21BCE0181960E944A048CE092E047
:103650000E944A04C45CDE4F8881CC53D140811162
:1036600002C08EE601C08AE661E00E94190488E388
:1036700092E00E944A048BE392E074C0C75CDE4F84
:10368000A880C953D140AA2009F46EC0C65CDE4FA1
:10369000E880CA53D140EE2009F466C0C55CDE4F15
:1036A000F880CB53D140FF2009F45EC0C45CDE4FEC
:1036B000C880CC53D140CC2009F456C03EE13A1525
:1036C00008F452C03E1508F44FC03F1508F44CC032
:1036D00082E392E00E944A046A2D70E080E090E06C
:1036E00022E0AE014F5D5F4F0E94C21BCE0181966A
:1036F0000E944A0485EF91E00E944A046E2D70E01A
:1037000080E090E022E0AE014F5D5F4F0E94C21B5F
:10371000CE0181960E944A0480E392E00E944A040E
:103720006F2D70E080E090E022E0AE014F5D5F4FD2
:103730000E94C21BCE0181960E944A0485EF91E04F
:103740000E944A046C2D70E080E090E022E0AE011F
:103750004F5D5F4F0E94C21BCE0181960E944A04BA
:103760008CE092E00E944A040D7F81E08093410248
:10377000DFBE0C94180EEA948BE690E00E940B07D3
:103780000C94810E4F925F926F927F929F92AF92B4
:10379000BF92CF92DF92EF92FF920F931F93CF933E
:1037A000DF936B017C015A01D22F97FF0EC08DE28F
:1037B000FA018083F094E094D094C094C11CD11C91
:1037C000E11CF11C9924939401C0912CD11101C0EA
:1037D000D1E0A7019601C1E09AE0492E512C612C5D
:1037E000712CCA01B901A30192010E94541C211538
:1037F00031054105510511F0CF5FF3CFCD1708F426
:10380000CD2FDC2FD90D8AE0482E512C612C712C44
:103810008D2F90E0D91591F08A0D9B1D8C010150E0
:103820001109C701B601A30192010E94541C605DF9
:10383000F801608369017A01D150EACFAC0EB11C66
:10384000F501E80FF91F1082DF91CF911F910F91C1
:10385000FF90EF90DF90CF90BF90AF909F907F90C0
:103860006F905F904F900895991B79E004C0991F65
:10387000961708F0961B881F7A95C9F780950895CA
:1038800097FB072E16F4009407D077FD09D00E940D
:10389000AA1C07FC05D03EF4909581959F4F089592
:1038A000709561957F4F0895052E97FB1EF4009447
:1038B0000E946B1C57FD07D00E94BE1C07FC03D062
:1038C0004EF40C946B1C50954095309521953F4FCC
:1038D0004F4F5F4F089590958095709561957F4FFC
:1038E0008F4F9F4F08952F923F924F925F926F920A
:1038F0007F928F929F92AF92BF92CF92DF92EF9280
:10390000FF920F931F93CF93DF93CDB7DEB7CA1B00
:10391000DB0B0FB6F894DEBF0FBECDBF09942A882B
:10392000398848885F846E847D848C849B84AA84D3
:10393000B984C884DF80EE80FD800C811B81AA8160
:10394000B981CE0FD11D0FB6F894DEBF0FBECDBF2B
:10395000ED010895AA1BBB1B51E107C0AA1FBB1FA5
:10396000A617B70710F0A61BB70B881F991F5A950B
:10397000A9F780959095BC01CD010895A1E21A2E7A
:10398000AA1BBB1BFD010DC0AA1FBB1FEE1FFF1F03
:10399000A217B307E407F50720F0A21BB30BE40B53
:1039A000F50B661F771F881F991F1A9469F760959A
:1039B0007095809590959B01AC01BD01CF01089554
:0439C000F894FFCFA9
:1039C40003000005000003000000000000020000E6
:1039D40000020500000300000300000000000006D0
:1039E400000000045AFC6E64626F78005472616EC9
:1039F400736D6974746572002020456C204675658A
:103A04007261646F726F2020005555555555555598
:103A140055555500636F6E660072656D6F74650071
:103A2400636C6561726C6973740073656E640066BF
:103A3400697265006964656E740074656D70006F09
:103A44007264657273007A65726F00636C73006BE5
:103A5400696C6C00687700686172647761726500F4
:103A640072666D000A0D4B6F6D6D616E646F202878
:103A740031362D4269742D4865782D466F726D611B
:103A840074293A20307800202D2D3E203A203078B9
:103A9400000A0A0D00696E743100696E74300052B8
:103AA4006573657474696E672064657669636521FE
:103AB4000054783A00205300204348004964656E5E
:103AC4007469667920202020202020202000784955
:103AD40044454E54002E0054656D706572617475D2
:103AE4007265202020202020007854454D5020006D
:0E3AF4002D3E550052783A00202D002D2D0059
:00000001FF
