:100000000C94F8020C9415030C9415030C9415032E
:100010000C94240A0C9415030C9415030C941503EA
:100020000C9415030C9415030C9415030C941503F0
:100030000C9415030C947B0A0C9415030C94150373
:100040000C94330A0C9415030C9415030C941503AB
:100050000C9415030C9415030C9415030C941503C0
:100060000C9415030C9415030A0D001B5B314420FE
:100070001B5B3144000A0D44657669636520697332
:1000800074205472616E736D69747465722C2049AA
:100090004473206E6963687420E46E646572626103
:1000A00072210A0A0D000A0D4B65696E6520C46E47
:1000B000646572756E6720766F7267656E6F6D6DC1
:1000C000656E0A0A0D000A0D4E65757374617274CF
:1000D0002E2E2E0A0A0D004665686C65722120429C
:1000E000697474652065726E6575742076657273C7
:1000F000756368656E210A0D000A0A0DC46E646599
:1001000072756E67206572666F6C67726569636889
:10011000210A0D001B5B33376D001B5B33316D0013
:100120000A0D4E65756520536C6176652D49442036
:100130002830312D33302C20454E544552203D205F
:10014000616C7465722057657274293A2020001B17
:100150005B33376D001B5B33316D004E6575652079
:10016000556E697175652D4944202830312D333025
:100170002C20454E544552203D20616C7465722000
:1001800057657274293A20000A0D000A0D002849AB
:1001900029447320E46E6465726E2C2041626272A1
:1001A000756368206D69742062656C696562696752
:1001B000657220616E646572657220546173746546
:1001C0002120000A0A0A0D001B5B33376D000A0D5F
:1001D000004645484C4552001B5B33316D00416B76
:1001E0007475656C6C6520536C6176652D49443A75
:1001F0002020001B5B33376D000A0D004645484C3C
:100200004552001B5B33316D000A0A0D416B74755A
:10021000656C6C6520556E697175652D49443A2091
:10022000000A0D416E67657363686C6F7373656E6A
:100230006573204465766963653A20001B5B33373C
:100240006D001B5B33376D000A0D4665686C657287
:10025000206265696D2049442D4C6164656E0A0D0C
:10026000001B5B33316D000A4B6F6E6669677572F8
:100270006174696F6E7370726F6772616D6D0A0D74
:100280003D3D3D3D3D3D3D3D3D3D3D3D3D3D3D3D9E
:100290003D3D3D3D3D3D0A0D001B5B33336D004947
:1002A000442D5765636873656C206D6974206A20FE
:1002B00062657374E4746967656E2C2061626272B2
:1002C000656368656E206D697420616E6465726532
:1002D000722054617374652120000A0A0D004E6576
:1002E000756520536C6176652D49443A20202020A5
:1002F000202020000A0D004E65756520556E69713D
:1003000075652D49443A202020202020000A0D0048
:100310000A0D0042697368657269676520536C61F4
:1003200076652D49443A2020000A0D004269736821
:10033000657269676520556E697175652D49443A26
:1003400020001B5B33376D000A0A52656D6F7465C0
:100350002D4B6F6E66696775726174696F6E73702D
:10036000726F6772616D6D0A0D3D3D3D3D3D3D3DD6
:100370003D3D3D3D3D3D3D3D3D3D3D3D3D3D3D3DAD
:100380003D3D3D3D3D3D0A0D001B5B33336D000A95
:100390000D000A0D4665686C657268616674652FAC
:1003A000646F7070656C7465204944733A2000096D
:1003B000000A0D002D2D2D2D002D00202D002C20AC
:1003C000002D2D2D2D006E2E612E002C20002D00D5
:1003D0002C20002E002D2D2D2D002C200030002053
:1003E000002D2D2D003A200030000A0D556E697148
:1003F00075652D49443A20536C6176652D49442C2E
:100400002042617474657269657370616E6E756E99
:1004100067202856292C205363686172663F2C2080
:1004200054656D706572617475722028B043292C13
:100430002052535349202864426D290A0D001B5B4A
:1004400033376D003D3D3D3D3D3D3D3D3D3D3D3DF9
:100450003D3D3D0A0D000A0D53797374656DFC62D4
:10046000657273696368740A0D001B5B33336D003A
:100470000A0A0D0009200920092009000A0D002D93
:100480002D2D003A20000A0D536C6176652D4944EC
:100490003A20416E7A61686C20426F78656E0A0D71
:1004A000000A0A0D00B043006E2E612E0054656DE7
:1004B000706572617475723A2000556E67FC6C74D9
:1004C0006967652045696E6761626500203D2000AF
:1004D0000A0D4B616E616C3A202009000A0D536CC5
:1004E0006176652D49443A09000A0D4D6F647573B4
:1004F00028662F692F74293A20000A0A0D000A0D78
:1005000049442D4B6F6E66696775726174696F6ED1
:100510007362656665686C207769726420676573CD
:10052000656E646574210A0D000A0D4944732077D5
:10053000657264656E206C6F6B616C20616E6765BF
:100540007061737374210A0D000A0A0D000A0D52BE
:10055000464D0061746D65676131363870000A0D73
:10056000000A0D000A0D000A0A0D4C65747A7465C4
:100570006E2042656665686C20776965646572689F
:100580006F6C742073656E64656E204155530A0D5F
:10059000000A0A0D4C65747A74656E2042656665C2
:1005A000686C20776965646572686F6C7420736528
:1005B0006E64656E2045494E0A0D001B5B31440098
:1005C00020001B5B3144001B5D303B454C204655F1
:1005D000455241444F524F07001B5B334A001B5B9F
:1005E000303B3048001B5B324A002D0030002000B9
:1005F00011241FBECFEFD4E0DEBFCDBF12E0A0E0DC
:10060000B1E0ECE3FBE302C005900D92A036B10728
:10061000D9F712E0A0E6B2E001C01D92A636B107FC
:10062000E1F70E948C0A0C949C1D0C940000F9992F
:10063000FECF72BD61BD80BDFA9AF99A12BC11BCA1
:100640000895F999FECF92BD81BDF89A80B512BC8C
:1006500011BC0895219A90E19A95F1F700C081119B
:1006600021989EE29A95F1F7199B80E096E89A9579
:10067000F1F700C021980895CF93DF93C82FD8E0F9
:100680008C2F81700E942A03C6958111C068D150B9
:10069000B9F78C2FDF91CF9108955D9A5F9A5E9A9A
:1006A000289A08955D985F985E98289808955F98B5
:1006B0000895439842984198409808951F93CF9386
:1006C000DF931F92CDB7DEB7339902C090E001C02F
:1006D00090E1329902C080E001C080E2982B31990C
:1006E00002C080E001C080E4982B309902C080E015
:1006F00001C080E8192F182B439A429A419A409AD8
:100700003B983A98399838985C98459A80E887FFE2
:1007100039C0449A00000000339902C090E001C043
:1007200090E1329902C080E001C080E2319902C0BC
:1007300050E001C050E4309902C040E001C040E800
:10074000449800000000449A0000000026B123FBFA
:10075000222720F9922B892B852B842B329902C0DA
:1007600030E001C032E0832B319902C020E001C0AB
:1007700024E0822B309902C090E001C098E0892BE0
:100780004498C5CF45983B9A3A9A399A389A8983C2
:100790000E945903898114FD439A15FD429A16FD62
:1007A000419A17FD409A0F90DF91CF911F910895C4
:1007B000449A00C000C044980895CF93C82F0E9467
:1007C0005903C4FD439AC5FD429AC6FD419AC7FD2F
:1007D000409A0E94D8030E945903C0FD439AC1FD6C
:1007E000429AC2FD419AC3FD409ACF910C94D8031E
:1007F000853008F081E0653108F061E0982F909530
:100800009170282F30E02150310935952795459872
:100810005C98892F8295880F880F807C815894E19D
:10082000299F800D1124860F0E94DD030C945E0326
:10083000CF93DF931F92CDB7DEB74598611124C0E7
:100840005C9869830E94DD030E945E0369816623D0
:10085000E9F00E945E03803481F028F48431B1F421
:1008600061E082E00CC0843529F0883679F461E0DB
:1008700081E005C061E083E002C061E084E00F90A8
:10088000DF91CF910C94F8035C9ADBCF0F90DF914E
:10089000CF910895CF93DF93EC018991882321F0C4
:1008A00061E00E941804F9CFDF91CF910895862767
:1008B00098E02CE8382F31708695311182279150BD
:1008C000C9F70895CF92DF92EF92FF920F931F9393
:1008D000CF93DF93082F162FC82EC60E682F80E106
:1008E0000E945704F82E612F80E10E945704D82EF1
:1008F000612F8F2D0E945704E82EC8E1D0E0BE0181
:10090000802F0E941703BE016F5F7F4F812F0E94CF
:100910001703BE016E5F7F4F8C2D0E941703BE012F
:100920006D5F7F4F8F2D0E941703BE016C5F7F4F5D
:100930008D2D0E941703BE016B5F7F4F8E2D0E948D
:100940001703A496C438D105D1F6DF91CF911F913A
:100950000F91FF90EF90DF90CF9008957F928F924C
:100960009F92AF92BF92CF92DF92EF92FF920F933E
:100970001F93CF93DF93082F162FC8E1D0E0E82E06
:10098000E60ECE010E942103782ECE0101960E9430
:100990002103882ECE0102960E942103982ECE01BB
:1009A00003960E942103A82ECE0104960E942103E3
:1009B000B82ECE0105960E942103D82E602F80E12B
:1009C0000E945704F82E612F80E10E945704C82E20
:1009D000612F8F2D0E94570470120AC0811208C027
:1009E0009E1006C0AF1004C0BC1002C0D81631F073
:1009F000A496C438D10529F680E001C081E0DF91DA
:100A0000CF911F910F91FF90EF90DF90CF90BF900B
:100A1000AF909F908F907F900895AF92BF92CF92AA
:100A2000DF92EF92FF920F931F93CF93DF936C01AE
:100A30005B01C8E1D0E0E12CCE010E942103182F18
:100A4000CE0101960E942103082F682F812F0E945A
:100A5000AE04F82E8823B9F188E190E00E942103CA
:100A6000C82F8CE390E00E942103C81729F188E188
:100A700090E00E942103C82F80E690E00E942103AD
:100A8000C8131AC089E190E00E942103C82F8DE3AA
:100A900090E00E942103C8130FC089E190E00E94FA
:100AA0002103C82F81E690E00E942103C81304C0EF
:100AB000602F812F0E946204F6011083F5010083EC
:100AC000FF24F39416C0F2E0EF120DC0602F812FC7
:100AD0000E94AE04811107C085E4F601808385E69B
:100AE000F501808306C0E394A496C438D10509F0CB
:100AF000A3CF8F2DDF91CF911F910F91FF90EF909A
:100B0000DF90CF90BF90AF90089580B7806880BF8E
:100B100080917C00856480937C0080917A0086605F
:100B200080937A0080917A00806880937A00809127
:100B30007A00806480937A0080917A0086FDFCCFF1
:100B400080917800909179002FEF8FE797E0215006
:100B500080409040E1F700C0000028E080E090E095
:100B600030917A00306430937A0030917A0036FD0B
:100B7000FCCF4091780050917900840F951F21504F
:100B800079F780389C40D8F480917C00806880930D
:100B90007C008FEF9FE727E0815090402040E1F7F5
:100BA00000C0000080917A00806480937A00809178
:100BB0007A0086FDFCCF80917800909179000895AD
:100BC000219A8CEC94E00197F1F700C00000219885
:100BD00098ED9A95F1F7000093B1892F827091FDFD
:100BE00006C0EAE2F4E03197F1F700C0089581E031
:100BF0000895CF938F3609F05FC00E94E0058CEC1A
:100C00000E943C038EE40E943C038DE70E943C035B
:100C100088ED0E943C038FE10E943C030E94E005A6
:100C20008CEC0E943C0384E40E943C0381E00E941F
:100C30002A038823D9F30E94E0058CEC0E943C0330
:100C40008EEB0E943C038FEF0E943C03C82F8FEF76
:100C50000E943C03282F30E0322F2227C9018C0F3D
:100C6000911D9C012227387F232B41F541E050E064
:100C70009C012C5F3F4F880F991F880F991F280FE9
:100C8000391F73E0369527957A95E1F7249FB001D7
:100C9000259F700D349F700D112477FD03C085E0F2
:100CA00090E002C08BEF9FEF860F971F6AE070E025
:100CB0000E94331D862F08C080E806C0919581955B
:100CC00091094FEF5FEFD4CFCF91089580917C00D1
:100CD000887F80937C0080917C00856080937C007D
:100CE00090917C009095991F9927991F8BE0891B03
:100CF000982F40E050E0BA0180917A0080648093A0
:100D00007A0080917A0086FDFCCF209178003091A6
:100D10007900420F531F611D711D915069F7DB016E
:100D2000CA018096A11DB11D26E0B695A79597959D
:100D300087952A95D1F7089535B516BC81E085BB16
:100D400080EA86BD85E085BD80E095E541E050EA1A
:100D50002FEF290F2E3F68F4990F21E0349B20E0FC
:100D6000922BA89BFECF45BB56BD883088F78F5F7E
:100D7000EFCF883088F335BD81E0911180E0089590
:100D80009FEB980F9A3130F0843C21F0863D11F0B2
:100D90008C3D09F480620895CF93DF93FC01DF015D
:100DA000EB018991BE01882329F031969C91981717
:100DB000B1F303C081E09081911180E0DF91CF9188
:100DC0000895282F40E050E066E970E099B1892F3E
:100DD000887093FF06C04150510961097109B1F74C
:100DE00014C0452B462B472B81F040E050E066E9CC
:100DF00070E09091C00095FD05C041505109610916
:100E00007109B9F72093C600089581E00895CF9342
:100E1000DF93EC01FE018491882329F00E94E10612
:100E200021968823B9F3DF91CF9108954F925F9275
:100E30006F927F928F929F92AF92BF92CF92DF92EA
:100E4000EF92FF920F931F93CF93DF93CDB7DEB74F
:100E5000A1970FB6F894DEBF0FBECDBF6B017C012A
:100E6000FE01319681E2DF011D928A95E9F748344F
:100E700049F018F4423441F073C0423629F0483644
:100E800009F06EC080E052C081E090E0A0E0B0E0E8
:100E90008C159D05AE05BF0528F4880F991FAA1F64
:100EA000BB1FF6CF80389105A105B10558F081151B
:100EB0009048A105B10560F0812C912CA12C50E83F
:100EC000B52E0BC040E8842E912CA12CB12C05C06E
:100ED000812C30E8932EA12CB12CD501C4018C219A
:100EE0009D21AE21BF21892B8A2B8B2B11F480E30E
:100EF00001C081E30E94E106B694A7949794879479
:100F000081149104A104B10441F77FC0811114C080
:100F1000DF01A80FB11D9C2D9F709C9394E0F59468
:100F2000E794D794C7949A95D1F78F5FC114D104F1
:100F3000E104F10469F7EACFF82E80FF0CC0F394C6
:100F40000AC0FE01EF0DF11D80818A3038F0895C06
:100F50000E94E106FA94F110F4CF57C0805DF8CFFB
:100F6000C114D104E104F104D1F48CEE95E0A19612
:100F70000FB6F894DEBF0FBECDBFDF91CF911F91AA
:100F80000F91FF90EF90DF90CF90BF90AF909F9028
:100F90008F907F906F905F904F900C940707F7FEB3
:100FA0000AC0F094E094D094C094C11CD11CE11C00
:100FB000F11C01E001C000E05F0110E08AE0482E72
:100FC000512C612C712C1F5FC701B601A301920146
:100FD0000E94471DD5016D935D0169017A01C1141D
:100FE000D104E104F10411F0113269F7002321F07A
:100FF0008AEE95E00E940707FE01E10FF11D808156
:10100000805D0E94E1061150B9F7A1960FB6F894E1
:10101000DEBF0FBECDBFDF91CF911F910F91FF902B
:10102000EF90DF90CF90BF90AF909F908F907F9088
:101030006F905F904F9008958F929F92AF92BF9262
:10104000CF92DF92EF92FF92CF93DF936B017C01FF
:10105000C42FD0E02AE0822E912CA12CB12C611556
:1010600071058105910541F0A50194010E94471D7C
:10107000CA01B901DF5FF3CFF7FE02C0C111C15051
:10108000CD1778F444E6C701B601DF91CF91FF9008
:10109000EF90DF90CF90BF90AF909F908F900C9487
:1010A0001607CD1BCC2371F38EEE95E00E94070747
:1010B000C150F8CFCF93DF93EC0190E08991882362
:1010C00031F0911104C00E94E106982FF7CFDF9113
:1010D000CF91089580E090E0A6E9B0E02091C000B3
:1010E00027FD05C00197A109B109C1F709C0892BE6
:1010F0008A2B8B2B29F05A9A8091C6005A98089512
:1011000080E0089581E086BB1092850010928400F3
:101110000895E1E8F0E08081887F80830895E1E828
:10112000F0E08081826080830895CF93DF93C3E6EF
:1011300080ED8C0F843050F00E946A08C82F8A30EE
:1011400011F48FEF1EC08D3099F7FBCF8C2F0E94CA
:10115000E106CC0F84E0C89FC00D1124C051D0E03F
:1011600083E69FEF9D0F9E3148F00E946A088A3007
:1011700041F38D3031F3D82FDC0FF3CF0E94E1061D
:101180008D2FDF91CF91089585EE95E00E9407079E
:101190008EED95E00E94070789ED95E00E94070714
:1011A00087EC95E00C940707BC014098439842985F
:1011B00090E120E030E848E0F901E623F723EF2B47
:1011C00009F0409A46B946B940983695279591500E
:1011D00099F784E086B986B90895419A389A399A80
:1011E0003A9A3B9A40984298439893E028E034E03A
:1011F00084E126B926B98150E1F736B936B9915064
:10120000B9F789E999E00197F1F700C0419808958D
:101210008EBD0DB407FEFDCF8EB50895CF93662326
:1012200019F09068C82F02C09F77CFEF2D982B98A8
:10123000892F0E9408098C2F0E9408092B982D984D
:10124000CF910895CF92DF92EF92FF9261E084E018
:1012500091E00E940E09C12CD12C8BE4E82EF12CD8
:1012600081E0C81AD108E108F10839F060E08FEF99
:1012700097E20E940E0987FFF3CF81E0CD28CE28A8
:10128000CF2809F080E0FF90EF90DF90CF90089595
:101290008F929F92AF92BF92CF92DF92EF92FF9286
:1012A0001F93CF93DF93CDB7DEB76F970FB6F89448
:1012B000DEBF0FBECDBFF82EE92E162F0E942209E9
:1012C00061E080E198E20E940E09612F1E3108F072
:1012D0006DE169833F2DDE011296EF2DFE2DCD01CC
:1012E0002E2F231B261718F421912D93F9CFFC01E3
:1012F000E60FF11D10822A9889818F3110F08EE15E
:10130000898380E80E940809F9808F2D0E940809CE
:1013100011E0F11658F0E1E0F0E0EC0FFD1FE10FF5
:10132000F11D80810E9408091F5FF3CF2A9A61E0B6
:101330008CE091E00E940E09C12CD12C2BE4E22E0E
:10134000F12C81E0C81AD108E108F10831F4C12C70
:10135000D12C9BE4E92EF12C0EC060E08FEF97E2D8
:101360000E940E0987FFEDCFF2CF81E0C81AD108A5
:10137000E108F10839F060E08FEF98E20E940E0971
:1013800083FFF3CF61E084E091E00E940E09812C9D
:10139000912C8BE4A82EB12C81E0881A9108A10829
:1013A000B10839F481E0CD28CE28CF2851F080E073
:1013B00008C060E08FEF97E20E940E0987FFECCF34
:1013C000F1CF6F960FB6F894DEBF0FBECDBFDF91A1
:1013D000CF911F91FF90EF90DF90CF90BF90AF9093
:1013E0009F908F900895CF92DF92EF92FF9260E0EE
:1013F0008FEF9DE30E940E0990E061E084609D63A1
:101400000E940E0961E080E191E00E940E09C12C6A
:10141000D12C8BE4E82EF12C81E0C81AD108E10828
:10142000F10839F060E08FEF97E20E940E0987FF24
:10143000F3CF81E0CD28CE28CF2809F080E0FF90BF
:10144000EF90DF90CF9008951F920F920FB60F92FA
:1014500011248F9381E0809365028F910F900FBECE
:101460000F901F9018951F920F920FB60F92112494
:101470002F938F939F9380916402882329F080910A
:1014800064028F5F8093640280916302882329F055
:10149000809163028F5F80936302809161029091DB
:1014A0006202892B49F0809161029091620201965B
:1014B0009093620280936102809164028E3F10F0EB
:1014C00010926402809163028E3F10F010926302CA
:1014D00080916102909162028131974220F01092D6
:1014E0006202109261029F918F912F910F900FBE17
:1014F0000F901F9018951F920F920FB60F92112404
:101500008F93809160028F5F809360028F910F9024
:101510000FBE0F901F901895CF93DF93CDB7DEB716
:10152000C05AD1400FB6F894DEBF0FBECDBF88E1E0
:101530000FB6F89480936000109260000FBE10E028
:1015400000E09E012F5F3F4F690180E2D9011D92AB
:101550008A95E9F7FE01E95AFE4FC558DE4FF98337
:10156000E883CB57D1408FE1A82E1192AA94E9F7D6
:101570007E0128ECE21A2EEFF20AD701E82F1D9225
:10158000EA95E9F79E01275E3E4FC358DE4F398347
:101590002883CD57D140D901E82F1D92EA95E9F76C
:1015A000FE01E650FF4FDF01A82E1D92AA94E9F735
:1015B0002E533109C158DE4F39832883CF57D1408C
:1015C000D901E82F1D92EA95E9F7FE01E454FF4F97
:1015D000DF01A82E1D92AA94E9F77F97DF01A82EBC
:1015E0001D92AA94E9F77F97DF01A82E1D92AA9475
:1015F000E9F77F97DF01A82E1D92AA94E9F77F975C
:10160000DF011D928A95E9F70E94ED088091640040
:10161000806C8093640080B7806880BF0E948F08D0
:101620002898209A5E98569A0E945703579A5D9878
:10163000559A0E9485050E946606222423948C39BF
:1016400008F0212C8EE1CA58DE4F8883C657D1405E
:1016500089A3BE016A587E4FCE0181960E940D0576
:10166000811102C00E944D03CA58DE4FB880C65790
:10167000D140A9A0CC57DE4FA882C458D140222027
:1016800011F1AA2019F0BB2049F035C03EE1CC573A
:10169000DE4F3883C458D140B11002C0AEE1BA2E3B
:1016A0006B2DCC57DE4F8881C458D1400E94620414
:1016B0009EE088E10FB6F894A895809360000FBE75
:1016C00090936000FFCFCC57DE4FA880C458D14024
:1016D000A11002C0BB2079F060E080E00E946204AB
:1016E0009EE088E10FB6F894A895809360000FBE45
:1016F00090936000FFCF5F9A2601C557DE4FF982B5
:10170000E882CB58D1409E01215A3F4FC758DE4F47
:1017100039832883C957D140AE0143565F4FC9581A
:10172000DE4F59834883C757D140CA01415E5F4F9E
:10173000BE0165527F4FDE01A75EBE4F7D01FE01F7
:10174000E95AFE4F6F01A12CE0E89E2EF0E27F2EB9
:1017500088248394AB1458F499B879B8FFEFAFEFAD
:10176000B5E0F150A040B040E1F700C000C0F20188
:1017700081922F01C557DE4FA881B981CB58D14046
:101780001D92C557DE4FB983A883CB58D140F601CF
:1017900011926F01D7011D927D01FB011192BF01D2
:1017A000DA011D92AD01F90111929F01DC019D92B8
:1017B000CD01A394BEE1AB12CDCF0E9457035D983B
:1017C0002110DFC010926302109264021092620234
:1017D0001092610244983C9898B185B198130AC060
:1017E000809168008E7F8093680080916B008F7E6F
:1017F00080936B0098B18BB198130AC080916800F8
:101800008B7F8093680080916D008F7E80936D0048
:1018100098B188B198130AC0809168008D7F809339
:10182000680080916C008F7E80936C0010927C0029
:1018300010927A00109265020E94520344984598D3
:101840005C980E9459033C9A3D9A549A3B9A3A9A62
:10185000399A389AEFEFFFEF25E0E150F040204051
:10186000E1F700C000C0429A439A0E94D8038FEF6C
:101870009FE50197F1F700C000000E94D803AFEF89
:10188000BFE51197F1F700C000000E94D803EFEF09
:10189000FFE53197F1F700C000000E945903429A1A
:1018A0000E94D8030E945E0360E088E20E94180450
:1018B00060E08CE00E94180460E086E00E9418045A
:1018C00060E081E00E94180460E080E40E94180457
:1018D00084E00E94AF1C84E00E94AF1C8AE00E945A
:1018E000AF1C8AE00E94AF1C85E10E94AF1C81E121
:1018F0000E94AF1C8AE00E94AF1C84E00E94AF1CD3
:1019000082E00E94AF1C85E00E94AF1C82E00E9432
:10191000AF1C80E00E94AF1C80E00E94AF1C80E002
:101920000E94AF1C80E00E94AF1C80E00E94AF1CB0
:1019300060E080E80E94180461E082E00E94F80301
:1019400061E080E00E94180461E080E00E941804D9
:1019500088E391E00E944A0461E080E00E9418045C
:1019600061E080E00E94180460E082E00E941804B8
:1019700085B5856085BD80916E00816080936E0025
:1019800035C00E94ED08449A3C9898B185B19813EF
:101990000AC08091680081608093680080916B002C
:1019A000806180936B0098B18BB198130AC08091CD
:1019B000680084608093680080916D0080618093EE
:1019C0006D0098B188B198130AC080916800826058
:1019D0008093680080916C00806180936C0081E04E
:1019E000809365020E9485050E9452038FB7F89488
:1019F0005B9A5398529A1092C5009FE39093C4004B
:101A000098E19093C10096E09093C2008FBF5A98DE
:101A10000E94E005882331F0C857DE4F1882C8586D
:101A2000D14006C03FE6C857DE4F3883C858D14082
:101A3000C857DE4F8881C858D1400E94F905C95760
:101A4000DE4F8883C758D1402A9A2C9A2498239A2B
:101A5000259A229A8CB581658CBDBAE0FB2E86E66C
:101A600096E20197F1F7000061E080E092E00E94C9
:101A70000E0961E082E095E00E940E0961E081EECE
:101A800096E00E940E0961E08DE093E00E940E094D
:101A900061E08DE094E00E940E0961E083E499E149
:101AA0000E940E0961E082E49AE10E940E0961E061
:101AB0008BE193E10E940E0961E080E095E20E94D3
:101AC0000E0961E087E096E20E940E0961E088ED70
:101AD00097E00E940E0961E086EE98E00E940E09F0
:101AE00061E084E199E00E940E0961E080E997E3FA
:101AF0000E940E0961E08EE198E30E940E0961E008
:101B000080E89CE30E940E0961E080EA9DE30E9468
:101B10000E0961E080E09CE20E940E0961E084E031
:101B20009DE20E940E0961E088E89EE20E940E0993
:101B300061E08DE29FE20E940E0961E084ED90E396
:101B40000E940E0961E080E098E10E940E0961E0C8
:101B50008DE298E50E940E0961E080E39FE60E9415
:101B60000E0961E084EC99E20E940E0961E08DE2C9
:101B70009EE10E940E0961E080E09AE20E940E0957
:101B800061E088E29BE20E940E0961E08AE991E14E
:101B90000E940E09FA94F11062CF61E080E89AE0A9
:101BA0000E940E09C12CD12CABE4EA2EF12C60E08E
:101BB00080E09AE00E940E0986FD06C091E0C91AF5
:101BC000D108E108F10899F70E94F309211037C004
:101BD00089E6C85CDE4F8883C853D14084E6C75C81
:101BE000DE4F8883C953D14080E3C65CDE4F8883D3
:101BF000CA53D140F5E0FF2E5F9A6AE089E491E094
:101C00000E9448090E945703AFEFBFEFEEE0A150DA
:101C1000B040E040E1F700C00000FA94F110ECCFD2
:101C200060E081E00E94180480916E0081608093E2
:101C30006E00CB57DE4F1882C558D1403DC00E9480
:101C40009C06CB57DE4F8883C558D140882311F0BE
:101C50005E9A01C05E98006280E7C85CDE4F8883B0
:101C6000C853D140CC57DE4FA880C458D140C75C80
:101C7000DE4FA882C953D140C65CDE4FB882CA533A
:101C8000D1400E946606C55CDE4F8883CB53D140AD
:101C9000CB57DE4F3881C558D140C45CDE4F388306
:101CA000CC53D140C957DE4FA880C758D140C35C40
:101CB000DE4FA882CD53D14010617894CC57DE4FCF
:101CC0003881C458D140832F90E09C01220F331FEC
:101CD000A9014D5F5F4FCC56DE4F59834883C459ED
:101CE000D14034E0C657DE4F3883CA58D1403FE078
:101CF000C757DE4F3883C958D140E3E03E2E31E06C
:101D0000CD57DE4F3883C358D140C357DE4F1882BA
:101D1000CD58D140CA57DE4F3883C658D140AE01A6
:101D200046505F4FCF57DE4F59834883C158D1404B
:101D3000DC011197C257DE4FB983A883CE58D1403A
:101D4000E9E1F1E0EC0FFD1FEA0FFB1FCA56DE4F81
:101D5000F983E883C659D140CA018B0D911D9C01BE
:101D600021503109C856DE4F39832883C859D140E4
:101D70004BED50E04C0F5D1F4A0F5B1FC656DE4F08
:101D800059834883CA59D1408CEB90E08C0F9D1F3A
:101D90008A0F9B1FC456DE4F99838883CC59D1404C
:101DA000EDE9F0E0EC0FFD1FEA0FFB1FC256DE4F1E
:101DB000F983E883CE59D14080916502882389F068
:101DC000FFB6F894109265020E949C06CB57DE4F36
:101DD0008883C558D140882311F05E9A01C05E986F
:101DE000FFBE8091C000881F8827881F80FB10F9E4
:101DF00010FFAFC1FFB6F8941E7F289A0E946A08B0
:101E000089838D3009F45DC030F4883009F459C0FD
:101E10008A3089F456C08F3709F453C08F3F59F484
:101E20000E946A088A830E946A088B830E946A085B
:101E30008C831D8247C00E94C00689830E94E106F0
:101E4000E12C0E946A080E94C006982F8D3039F05C
:101E50008A3029F0883029F18F3719F101C090E0DC
:101E6000E2E0F0E0EC0FFD1FEE0DF11D9083892FF5
:101E7000C056DE4F9883C05AD1400E94E106C0563A
:101E8000DE4F9881C05AD140992311F40C940B195C
:101E9000E394FCE1FE15A8F688E690E00E940707AF
:101EA00011C0E1100C94A81C1A8282EC95E00E94EB
:101EB000070780EC95E00E9407078BEB95E00E94F6
:101EC0000707198264E571E0CE0101960E94CC06F5
:101ED000882311F012601F7E69E571E0CE01019642
:101EE0000E94CC06882311F000681F7E60E671E036
:101EF000CE0101960E94CC06811100626AE671E073
:101F0000CE0101960E94CC06811118C06FE671E0E7
:101F1000CE0101960E94CC06811110C064E771E0E9
:101F2000CE0101960E94CC06811108C06AE771E0DB
:101F3000CE0101960E94CC06882311F018601F7E06
:101F400065E671E0CE0101960E94CC06882311F06F
:101F500010641F7E6FE771E0CE0101960E94CC06EF
:101F6000882331F0211004C0026001600460106811
:101F700066E871E0CE0101960E94CC06882311F03C
:101F8000211008606BE871E0CE0101960E94CC063A
:101F900081110E94C4086FE871E0CE0101960E9491
:101FA000CC068111006164E971E0CE0101960E94C6
:101FB000CC06811107C067E971E0CE0101960E944D
:101FC000CC068111006460EA71E0CE0101960E94A6
:101FD000CC06882309F449C084EA91E00E945A089B
:101FE00064E0A62EE12C80E090E06C0154E0CC0C83
:101FF000DD1C5A95E1F70E946A08982E0E94E106BE
:10200000892D806290ED980F9A3040F09FE9980FEB
:10201000963018F499EA980F01C09FEF81E09F3F36
:1020200009F080E0E80E9601292BC901AA94A110BD
:10203000DCCFE11016C08F3F3FEF930791F0692F7F
:10204000661F6627661F0E940E09E82E8BEE91E040
:102050000E945A086E2D70E080E090E048E60E94F1
:10206000160785EF91E00E945A0869EF71E0CE01F2
:1020700001960E94CC06882369F081E995E00E94D0
:1020800007070E9482080E948F0880916F0081607C
:1020900080936F006EEF71E0CE0101960E94CC0636
:1020A000882379F087E695E00E9407071092600286
:1020B0000E94890880916F008E7F80936F000E943C
:1020C000820889818F3FD9F5DA808D0D8E31B8F580
:1020D000EB80CC24CA94CE0C4FE04C1580F1AC8040
:1020E0006D2D80E00E9457046E2D0E945704A812A7
:1020F00026C086E6C85CDE4F8883C853D140C75CE3
:10210000DE4FD882C953D140C65CDE4FE882CA5345
:10211000D1401061BD1013C0222089F0EFE5F0E03E
:10212000EC0FFD1FEC0DF11D8081811108C012FD27
:1021300006C0C75ADE4FE882C955D14014602898BE
:10214000898181508E3F20F484E695E00E94070744
:10215000FFBE06FF28C0FFB6F8940F7B81E695E02E
:102160000E940707211003C08CE291E002C084E2C4
:1021700091E00E945A088EE595E00E94070783E5EA
:1021800095E00E9407078DE495E00E94070744E66A
:1021900065E470E080E090E00E94160789E495E035
:1021A0000E940707FFBE11FFF2C0DFB6F8941D7F43
:1021B0000E9482080E9489080E94C40889E992E06E
:1021C0000E94070787E692E00E940707BE016A584F
:1021D0007E4FCE0181960E940D0581110CC081E6D3
:1021E00092E00E94070788E492E00E94070782E4D9
:1021F00092E00E9407078CE392E00E94070781E2C9
:1022000092E00E940707211003C08CE291E002C017
:1022100084E291E00E945A08222009F4B3C089E0C8
:1022200092E00E94070783E092E00E94070789A1DD
:10223000853469F08A3018F480E30E94E10669A1D0
:1022400070E080E090E044E60E94160704C08CEF46
:1022500091E00E94070789EF91E00E94070783EF52
:1022600091E00E9407078EED91E00E94070788ED3C
:1022700091E00E940707CA58DE4F8881C657D140B7
:10228000853689F08A3018F480E30E94E106CA5846
:10229000DE4F6881C657D14070E080E090E044E6B0
:1022A0000E94160704C081ED91E00E9407078EECA2
:1022B00091E00E94070788EC91E00E94070783ECF9
:1022C00091E00E9407078EE891E00E9407070E94B4
:1022D0006A088823E1F3282F2062822FC056DE4F40
:1022E0002883C05AD1400E94E1068BE891E00E9409
:1022F000070788E891E00E940707C056DE4F288153
:10230000C05AD140293609F0C9C48BE591E00E943A
:10231000070785E591E00E940707E9A00E9495085C
:1023200089A38F3F09F4E9A28FE491E00E94070797
:1023300080E291E00E9407078AE191E00E9407078E
:10234000CA58DE4FF880C657D1400E949508CA5837
:10235000DE4F8883C657D1408F3F29F4CA58DE4FDD
:10236000F882C657D14084E191E00E94070789A115
:102370008E1197C4CA58DE4F9881C657D1409F111D
:1023800090C48CC485E790E00E940707DFBE07FF7A
:10239000A6C0AFB6F8940F770E9482080E94890801
:1023A00089E893E00E94070788E493E00E9407070A
:1023B00082E493E00E9407078CE293E00E94070703
:1023C0000E949508E82E89E293E00E9407075FEFDC
:1023D000E51609F483C083E193E00E9407070E9499
:1023E0009508F82E80E193E00E9407078DE093E0C6
:1023F0000E9407078FEFF81609F470C087EF92E08C
:102400000E9407070E949508C82E84EF92E00E9460
:1024100007079FEFC91609F461C08EED92E00E9494
:1024200007070E949508D82E8AED92E00E940707C0
:10243000AFEFDA1609F452C0EC1003C0FD1409F432
:102440004DC08FE992E00E9407070E946A08982E0B
:102450008823D9F30E94E106892D80628A36F1F53E
:1024600083E6C85CDE4F8883C853D140C75CDE4F2B
:10247000E882C953D140C65CDE4FF882CA53D140CE
:10248000C55CDE4FC882CB53D140C45CDE4FD882DE
:10249000CC53D140CC57DE4F3881C458D140E312E1
:1024A00014C0FB1012C089E295E00E940707C45CCB
:1024B000DE4F6881CC53D140C55CDE4F8881CB5361
:1024C000D1400E946204006105C08EEF94E00E943A
:1024D000070710618AEF94E00E940707AFBE03FF71
:1024E00010C08FB7F894077FFE01E15AFF4FC7581D
:1024F000DE4F9881C957D140905F11929E13FDCF56
:102500008FBF13FF03C1CFB6F894177F0E948208D4
:102510000E94890899819936C9F09437B9F09636A6
:10252000A9F089EE94E00E9407070E946A08982F9C
:102530009062892FC056DE4F9883C05AD1400E94C6
:10254000E106C056DE4F9881C05AD140FE01E85CDA
:10255000FE4F9083963641F0993609F455C0943772
:1025600009F458C0E12C9CC0EE24E394DD24D394FC
:102570002CED34E04F01C9010E9407070E946A0850
:10258000F82E8823D9F30E94E10640EDF40E0E9454
:102590006A08A82E8823D9F30E94E106FF0C9F2D1C
:1025A000990F990F9F0D9053F92EFA0C8CEC94E033
:1025B0000E940707FF20D1F02F2D30E051E0D51603
:1025C00019F081E190E002C08FE190E0281739070F
:1025D0006CF46F2D70E080E090E044E60E941607F6
:1025E000F401ED0DF11DF0829D2D06C08AEB94E003
:1025F0000E94070793E0E12C20ED34E042E0D42E66
:10260000913009F4B8CF4CC0908384E6818380E395
:10261000828344C0C857DE4F8881C858D1400E9489
:10262000F905C957DE4F8883C758D1408DEA94E039
:102630000E940707C957DE4F3881C758D14030384C
:1026400019F488EA94E010C044E0C957DE4FA8802E
:10265000C758D1406A2D772767FD7095872F972F30
:102660000E941C0885EA94E00E94070784E7C85C82
:10267000DE4F8883C853D14085E6C75CDE4F888330
:10268000C953D1408DE6C65CDE4F8883CA53D14022
:1026900080E7C55CDE4F8883CB53D140EE24E394C2
:1026A00081EA94E00E940707EE2029F11061C85CDE
:1026B000DE4F8881C853D1408636F1F4C75CDE4FC7
:1026C0008881C953D140B81217C0C65CDE4F8881DB
:1026D000CA53D140EFE5F0E0EC0FFD1FE80FF11D0C
:1026E00031979081911108C0C75ADE4F8883C95530
:1026F000D140146001C01F7E8091C00087FF03C0DD
:102700008091C600F9CF0E948F08CFBE16FF9EC1F0
:102710002FB7CD56DE4F2883C359D140F8941F7B85
:102720000E94C4088AE694E00E94070786E594E0C8
:102730000E94070784E494E00E9407078EE394E078
:102740000E9407078AEE93E00E9407079E01225825
:102750003F4FC057DE4F39832883C059D140235A99
:102760003F4FC557DE4F39832883CB58D140AE0148
:10277000475E5E4F4A01CE0184549F4F7C01DE01CB
:10278000A356BF4F6D01412C512C32014394AC2C08
:10279000C958DE4F2881C757D140A21ACE56DE4F06
:1027A000A882C259D1403A2D393020F488EE93E006
:1027B0000E94070744E6C301B2010E94160785EE96
:1027C00093E00E940707D401AC90A11005C081EEF0
:1027D00093E00E94070712C08FED93E00E94070765
:1027E000B9E0BA1520F08DED93E00E9407076A2D3D
:1027F00070E080E090E044E60E9416078AED93E0E6
:102800000E940707C557DE4FE881F981CB58D140B8
:102810008191C557DE4FF983E883CB58D1406AE0F8
:102820000E94271DA92E811105C085ED93E00E940D
:10283000070712C0682F70E080E090E042E00E943D
:102840001C0883ED93E00E9407076A2D70E080E08A
:1028500090E044E60E94160780ED93E00E9407078F
:10286000D401AD904D01AA2029F0F70180810E948A
:10287000E10604C08EEC93E00E9407078BEC93E026
:102880000E940707D6016D916D01603849F07727E6
:1028900067FD7095872F972F44E00E941C0809C0A0
:1028A000AA2019F086EC93E002C081EC93E00E942C
:1028B00007078EEB93E00E940707C057DE4FE881C1
:1028C000F981C059D140A190C057DE4FF983E88308
:1028D000C059D140AA20A1F0F3E6FA151CF08BEB09
:1028E00093E002C089EB93E00E9407076A2D7727E7
:1028F00067FD7095872F972F44E60E94160704C046
:1029000084EB93E00E940707CE56DE4F8881C259C0
:10291000D14063E00E94271D923019F481EB93E0CF
:1029200002C08FEA93E00E9407072FEFE21AF20A33
:102930003FEF431A530A630A730A4FE144165104E6
:102940006104710409F023CF82E993E00E94070734
:10295000C357DE4FA880CD58D1408A2D90E0A0E02B
:10296000B0E044E6BC01CD010E9416078FE893E079
:102970000E940707DE01A650BF4F81E0C358DE4F1B
:102980002881CD57D140225EFE01E75EFE4F90E0E8
:102990003191381301C09F5F2E13FACF9D938F5F43
:1029A0008F3191F786E894E00E9407079E01265038
:1029B0003F4F7901412C512C32014394DE2CCF57EB
:1029C000DE4F3881C158D140D31A48E04D1518F078
:1029D00080E30E94E10644E6C301B2010E941607AB
:1029E00083E894E00E940707D7016D917D01611192
:1029F00005C08FE794E00E94070706C070E080E002
:102A000090E043E00E941C088D2D63E00E94271D8A
:102A1000923019F48CE794E002C084E794E00E94BD
:102A20000707BFEF4B1A5B0A6B0A7B0AEFE14E16F2
:102A300051046104710411F680E794E00E940707D5
:102A4000CD56DE4FA880C359D140AFBE202F207194
:102A5000F22E04FF18C0F894211008C060E081E055
:102A60000E94180483E092E00E944A049EE088E1FC
:102A70000FB6F894A895809360000FBE9093600005
:102A80000E94C408FFCF05FD0AC014FFCAC3C85C7A
:102A9000DE4F8881C853D140893609F020C1EFB696
:102AA000F8940F7DBE0166507F4F4E013EE7830EC6
:102AB000911CCE0183569F4F9E0124543F4FAE017F
:102AC00045525F4FFE01E75EFE4FA0E8CA2EC35895
:102AD000DE4FD880CD57D140AEE1DA0E1192DB0146
:102AE0001D92BD01DA011D92AD01D9011D929D011A
:102AF000DC01CD92CD01D4011D924D01DE12EECF4D
:102B0000222009F442C0CA56DE4FE881F981C65935
:102B1000D140B08281E0C856DE4FA881B981C85942
:102B2000D1408C930E946606C656DE4FE881F9813B
:102B3000CA59D1408083CB57DE4FA880C558D140B9
:102B4000A11002C08EE601C08AE6C456DE4FA881FD
:102B5000B981CC59D1408C93C957DE4FA880C75852
:102B6000D140C256DE4FE881F981CE59D140A082D2
:102B7000EEE7F0E0EC0FFD1FC257DE4F28813981F0
:102B8000CE58D140E20FF31F1082EFBECA57DE4F7E
:102B90003881C658D140C357DE4F1882CD58D14036
:102BA000311112C08091600290E0CC56DE4F488116
:102BB0005981C459D1404817590734F0CA57DE4FDC
:102BC0001882C658D1400DC014FD91C0809160029A
:102BD0008E3708F08CC031E0CA57DE4F3883C658B4
:102BE000D14012FF39C0EFB6F8941B7F0E944D030D
:102BF000CB57DE4FA880C558D140AA2039F1C75A1B
:102C0000DE4FD880C955D1408FEF8D0D8031F0F463
:102C100020E180E090E0880F991F2D1101C08160B4
:102C20002150C9F70E94D40889E999E60197F1F784
:102C300000C080E090E00E94D408EFE5F0E0EC0FE7
:102C4000FD1FED0DF11D319781E080830E9452033D
:102C50005E9A0E94F309EFBE60E080E097E20E9476
:102C60000E09E82E60E080E098E20E940E092E2D09
:102C700030E0322F2227D901A82BCD0182FD80C060
:102C800092FFC6C260E08FEF9DE30E940E0990E0C4
:102C900061E084609D630E940E09BAC286EA90E0FA
:102CA00073CBCA58DE4F6881C657D1400E94620478
:102CB000CA58DE4F6881C657D14089A10E94AE0430
:102CC000882319F089EF90E002C087ED90E00E9420
:102CD000070786EC90E00E940707006157CBCA57B0
:102CE000DE4F3881C658D140332309F45BCFEFB6AD
:102CF000F8941F7EC85CDE4F8881C853D14083564C
:102D0000823150F490E0FC01EE5EFE4F9080FC01B9
:102D1000E050FF4FA08002C0A12C912CC92CD12CD7
:102D2000E8E3F1E0EC0FFD1FEC0DFD1DA082118228
:102D300093946F01AA2079F05F9A692DCE01885C87
:102D40009E4F0E944809D6018C9181508C930E941D
:102D50005703AA94EFCF809160028D3748F40E9408
:102D600089080E94820880916F008E7F80936F0097
:102D7000109260020E94F30910680160EFBE2BCF31
:102D80008170992741E0842780FB15F915FFDFC189
:102D9000DFB6F8941F7D5D9A60E08FEF9FE60E949A
:102DA0000E09882399F060E08FEF94E20E940E09EB
:102DB000E82E0E9422092A9880E00E9408098FEFDD
:102DC0000E9408098F31D0F08EE118C061E081E0E7
:102DD00093E20E940E09412C512C6BE4662E712C5B
:102DE00060E08FEF93E20E940E0981FDDCCFB1E03D
:102DF0004B1A51086108710899F7D5CF89A3CC24E3
:102E0000C39489A18C1560F08FEF0E940809E1E25C
:102E1000F0E0EC0FFD1FEC0DF11D8083C394F1CFAA
:102E20002A9A89A18E3108F08DE1DE019296FE0189
:102E3000E95AFE4F9E2FC558DE4FA880CB57D14090
:102E40009A19981718F49D919193F4CFE7E5F1E062
:102E5000EC0FFD1FE80FF11D108261E080E198E2A8
:102E60000E940E095D98C95ADE4F8881C755D1402E
:102E7000893609F462C060F4833609F422C18636CB
:102E800009F060C1C65ADE4F8881CA55D1400CC0D6
:102E9000803709F4A9C0843709F054C1C55ADE4F00
:102EA0008881CB55D14025C0815031F0A0E4B9E8EC
:102EB0001197F1F70000F8CFC85ADE4F8881C85546
:102EC000D1408B113FC1222009F43CC1C75ADE4FCB
:102ED0008881C955D1408150EFE5F0E0EC0FFD1F2E
:102EE000E80FF11D808181112DC112FD2BC11460ED
:102EF00029C1815029F0E3E5F1E93197F1F7F9CFE4
:102F00000E94E005882331F0C857DE4F1882C85868
:102F1000D14006C03FE6C857DE4F3883C858D1407D
:102F2000C857DE4F8881C858D1400E94F905C9575B
:102F3000DE4F8883C758D14005C1C65ADE4F88810D
:102F4000CA55D140815031F0A0E4B9E81197F1F7AA
:102F50000000F8CF80E7C85CDE4F8883C853D140BB
:102F6000CC57DE4FA880C458D140C75CDE4FA88242
:102F7000C953D140C65CDE4FB882CA53D14022202B
:102F800019F00E94660601C082E3C55CDE4F8883AB
:102F9000CB53D140222029F0CB57DE4FF880C558C3
:102FA000D140C45CDE4FF882CC53D140C957DE4FCC
:102FB0003881C758D140C35CDE4F3883CD53D140F0
:102FC0000E9482081092600280916F00816080935D
:102FD0006F000E948F08106108600062CA57DE4FC0
:102FE0001882C658D140AEC0C35ADE4F8881CD5535
:102FF000D140815039F0A8E7B1EA1197F1F700C04C
:103000000000F7CFC85ADE4F8881C855D1408534BB
:10301000A1F0882391F0CC57DE4FA880C458D1404E
:103020008A1559F0815090E0E9E1F1E0EC0FFD1FC5
:10303000E80FF91F2081222361F0C357DE4F38814A
:10304000CD58D1403F5FC357DE4F3883CD58D14074
:1030500079C0C75ADE4F2881C955D1402083C65A4E
:10306000DE4F2881CA55D140EBEDF0E0EC0FFD1F9B
:10307000E80FF91F2083C55ADE4F2881CB55D14078
:10308000211102C02EE601C02AE6ECEBF0E0EC0FC5
:10309000FD1FE80FF91F2083EDE9F0E0EC0FFD1FA5
:1030A000E80FF91FC45ADE4F2881CC55D140208348
:1030B000EEE7F0E0EC0FFD1FE80FF91FE694E08269
:1030C00041C0C45ADE4F8881CC55D140815039F07F
:1030D000A5E6B9E91197F1F700C00000F7CFCB578B
:1030E000DE4FA880C558D140A1102CC0C85ADE4F71
:1030F0008881C855D140CC57DE4F3881C458D14063
:10310000381320C0C75ADE4F8881C955D140B81244
:1031100019C0C65ADE4F8881CA55D140C55ADE4F04
:103120006881CB55D1409FEF980F9E3158F49FEFA7
:10313000960F9E3138F4831302C06B1519F00E946C
:1031400062040061106802600E94F309DFBE211072
:103150000C94DC0E809164028C3F60F480916302D9
:103160008C3F40F48091610290916202823F9240D4
:1031700008F460C017FD5EC0FFB6F8948091640249
:103180008C3F28F4809163028C3F00F110C01092B4
:10319000640261E081E00E94F80354E1E52E80E3DF
:1031A00092E00E944A04EA94E110F9CFEBCF10922A
:1031B000630261E082E00E94F80344E1E42E80E3D0
:1031C00092E00E944A04EA94E110F9CF80916102F2
:1031D00090916202823F9240C8F010926202109277
:1031E000610261E083E00E94F80334E1E32E8FE2A4
:1031F00092E00E944A04EA94E110F9CF23E0322ED3
:1032000031E0CD57DE4F3883C358D140FFBE12C0E6
:1032100080E090E0B9CDEE2011F40C94550F0C94A1
:103220004C0FCA57DE4FA880C658D140AA2009F4D7
:10323000B9CCCCCC17FD02C00C94DC0EDFB6F894F0
:103240001F7700FF29C261E081E00E94F80385E159
:1032500092E00E944A04C85CDE4F8881C853D14086
:10326000893609F49DC030F4833609F4B5C1863639
:1032700041F00EC2803709F4DBC0843709F45DC128
:1032800007C2C75CDE4F8881C953D14081508E315F
:1032900008F0A0C1C65CDE4F8881CA53D14081507E
:1032A000803108F097C161E080E00E9418048AE153
:1032B00092E00E944A04C75CDE4F6881C953D14046
:1032C00070E080E090E022E0AE01405C5F4F0E9441
:1032D000B51CCE01805C9F4F0E944A048DE192E0B4
:1032E0000E944A04C65CDE4F6881CA53D14070E038
:1032F00080E090E022E0AE01405C5F4F0E94B51C90
:10330000CE01805C9F4F0E944A048BE292E00E94B3
:103310004A0402FD5FC1C757DE4F6881C958D140DA
:10332000C657DE4F8881CA58D1400E94F80380E317
:1033300092E00E944A04CD57DE4F6881C358D140C5
:10334000832D0E94F80383EF91E00E944A04C75C3A
:10335000DE4F6881C953D14070E080E090E022E008
:10336000AE01405C5F4F0E94B51CCE01805C9F4F58
:103370000E944A0461E080E00E941804C65CDE4FAF
:103380006881CA53D14070E080E090E022E0AE0155
:10339000405C5F4F0E94B51CCE01805C9F4FEDC02A
:1033A00081E292E00E944A0402FD14C1C757DE4F39
:1033B0006881C958D140C657DE4F8881CA58D1406C
:1033C0000E94F80380E392E00E944A04CD57DE4F4A
:1033D0006881C358D140832D0E94F80382E392E0B4
:1033E0000E944A04CD57DE4F9881C358D140995F5F
:1033F000963120F081E0830D91E001C0832D85306E
:1034000008F083E021E030E0309362022093610213
:10341000C657DE4F3882CA58D140CD57DE4F38816B
:10342000C358D140C757DE4F3883C958D140CCC0AC
:1034300088E592E00E944A04C75CDE4F6881C95368
:10344000D14070E080E090E022E0AE01405C5F4F50
:103450000E94B51CCE01805C9F4F0E944A048AE105
:1034600092E00E944A04C65CDE4F6881CA53D14094
:1034700070E080E090E022E0AE01405C5F4F0E948F
:10348000B51CCE01805C9F4F0E944A0480E392E00D
:103490000E944A04C55CDE4F8881CB53D1408436FC
:1034A00020F480E392E00E944A04C55CDE4F8881EC
:1034B000CB53D1409AE0F92E6F2D0E94271D682F23
:1034C00070E080E090E021E0AE01405C5F4F0E9440
:1034D000B51CCE01805C9F4F0E944A0489E392E0B4
:1034E0000E944A04C55CDE4F8881CB53D1406F2DCA
:1034F0000E94271D692F70E080E090E021E0AE017E
:10350000405C5F4F0E94B51CCE01805C9F4F0E94C3
:103510004A048BE392E00E944A04C45CDE4F888137
:10352000CC53D140811102C08EE601C08AE661E031
:103530000E94180480E392E0A9C08EE392E00E940A
:103540004A0402FD47C0C757DE4F6881C958D140C1
:10355000C657DE4F8881CA58D1400E94F80380E3E5
:1035600092E00E944A04CD57DE4F6881C358D14093
:10357000832D0E94F8038FE492E00E944A04CD5705
:10358000DE4F9881C358D140995F963120F081E099
:10359000830D91E001C0832D853008F083E021E0A8
:1035A00030E03093620220936102C657DE4F3882CA
:1035B000CA58D140CD57DE4FA880C358D140C75715
:1035C000DE4FA882C958D140382ECD57DE4F9883A0
:1035D000C358D1400B7F5CC088E592E00E944A044A
:1035E000C75CDE4F6881C953D14070E080E090E055
:1035F00022E0AE01405C5F4F0E94B51CCE01805CB2
:103600009F4F0E944A048AE192E00E944A04C65CED
:10361000DE4F6881CA53D14070E080E090E022E044
:10362000AE01405C5F4F0E94B51CCE01805C9F4F95
:103630000E944A0486E592E00E944A04C55CDE4F7F
:103640006881CB53D14070E080E090E022E0AE0191
:10365000405C5F4F0E94B51CCE01805C9F4F0E9472
:103660004A048AE192E00E944A04C45CDE4F688109
:10367000CC53D14070E080E090E022E0AE01405CAD
:103680005F4F0E94B51CCE01805C9F4F0E944A0490
:103690000E7F81E08093640201FF57C161E082E008
:1036A0000E94F8038AE592E00E944A04C95ADE4F5C
:1036B0008881C755D140893609F451C030F483362A
:1036C00009F4C9C0863651F03CC1803709F44AC0BC
:1036D000843709F036C18EE392E031C1C85ADE4F1B
:1036E000E880C855D1408FEF8E0D8E3108F029C18A
:1036F000C75ADE4FF880C955D1408FEF8F0D80310A
:1037000008F01FC161E080E00E9418048AE192E0A5
:103710000E944A046E2D70E080E090E022E0AE014D
:10372000405C5F4F0E94B51CCE01805C9F4F0E94A1
:103730004A048DE192E00E944A046F2D70E080E01F
:1037400090E022E0AE01405C5F4F0E94B51CCE01CC
:10375000805C9F4F0E944A048BE292E0F0C081E2BD
:1037600092E0EDC088E592E00E944A04C85ADE4F1C
:103770006881C855D14070E080E090E022E0AE0161
:10378000405C5F4F0E94B51CCE01805C9F4F0E9441
:103790004A048AE192E00E944A04C75ADE4F6881D7
:1037A000C955D14070E080E090E022E0AE01405C7D
:1037B0005F4F0E94B51CCE01805C9F4F0E944A045F
:1037C00080E392E00E944A04C65ADE4FF880CA5550
:1037D000D14023E62F1520F080E392E00E944A04B6
:1037E0008F2D6AE00E94271DF92E682F70E080E07F
:1037F00090E021E0AE01405C5F4F0E94B51CCE011D
:10380000805C9F4F0E944A0489E392E00E944A0430
:103810006F2D70E080E090E021E0AE01405C5F4FF2
:103820000E94B51CCE01805C9F4F0E944A048BE32E
:1038300092E00E944A04C55ADE4F8881CB55D140A0
:10384000811102C08EE601C08AE661E00E94180480
:1038500080E392E074C0C85ADE4FA880C855D140BA
:10386000AA2009F46EC0C75ADE4FE880C955D1407E
:10387000EE2009F466C0C65ADE4FF880CA55D14022
:10388000FF2009F45EC0C55ADE4FC880CB55D14039
:10389000CC2009F456C03EE13A1508F452C03E155A
:1038A00008F44FC03F1508F44CC088E592E00E9430
:1038B0004A046A2D70E080E090E022E0AE01405CB6
:1038C0005F4F0E94B51CCE01805C9F4F0E944A044E
:1038D0008AE192E00E944A046E2D70E080E090E060
:1038E00022E0AE01405C5F4F0E94B51CCE01805CBF
:1038F0009F4F0E944A0486E592E00E944A046F2D81
:1039000070E080E090E022E0AE01405C5F4F0E94FA
:10391000B51CCE01805C9F4F0E944A048AE192E070
:103920000E944A046C2D70E080E090E022E0AE013D
:10393000405C5F4F0E94B51CCE01805C9F4F0E948F
:103940004A040D7F81E080936302DFBE0C94DC0E9D
:10395000EA948BE690E00E9407070C94490F459883
:103960005C9A0E94DD030C945E034F925F926F920B
:103970007F929F92AF92BF92CF92DF92EF92FF928F
:103980000F931F93CF93DF936B017C015A01D22FCA
:1039900097FF0EC08DE2FA018083F094E094D094FA
:1039A000C094C11CD11CE11CF11C9924939401C04A
:1039B000912CD11101C0D1E0A7019601C1E09AE09C
:1039C000492E512C612C712CCA01B901A30192011D
:1039D0000E94471D211531054105510511F0CF5FAA
:1039E000F3CFCD1708F4CD2FDC2FD90D8AE0482E68
:1039F000512C612C712C8D2F90E0D91591F08A0DEE
:103A00009B1D8C0101501109C701B601A301920150
:103A10000E94471D605DF801608369017A01D15001
:103A2000EACFAC0EB11CF501E80FF91F1082DF914F
:103A3000CF911F910F91FF90EF90DF90CF90BF90AB
:103A4000AF909F907F906F905F904F900895991BDB
:103A500079E004C0991F961708F0961B881F7A9585
:103A6000C9F78095089597FB072E16F4009407D0A8
:103A700077FD09D00E94661D07FC05D03EF49095A5
:103A800081959F4F0895709561957F4F0895052EFC
:103A900097FB1EF400940E945E1D57FD07D00E9404
:103AA0007A1D07FC03D04EF40C945E1D5095409592
:103AB000309521953F4F4F4F5F4F089590958095DA
:103AC000709561957F4F8F4F9F4F0895AA1BBB1B29
:103AD00051E107C0AA1FBB1FA617B70710F0A61B0E
:103AE000B70B881F991F5A95A9F780959095BC012F
:103AF000CD010895A1E21A2EAA1BBB1BFD010DC02A
:103B0000AA1FBB1FEE1FFF1FA217B307E407F5078D
:103B100020F0A21BB30BE40BF50B661F771F881F69
:103B2000991F1A9469F760957095809590959B01FF
:0C3B3000AC01BD01CF010895F894FFCF57
:103B3C00030000050000030000000000000200006C
:103B4C000002050000030000030000000000000656
:103B5C00000000045AFC6E64626F78005472616E4F
:103B6C00736D6974746572002020456C2046756510
:103B7C007261646F726F202000555555555555551F
:103B8C0055555500636F6E660072656D6F746500F8
:103B9C00636C6561726C6973740073656E64006646
:103BAC00697265006964656E740074656D70006F90
:103BBC007264657273007A65726F00636C73006B6C
:103BCC00696C6C006877006861726477617265007B
:103BDC0072666D000A0D4B6F6D6D616E646F2028FF
:103BEC0031362D4269742D4865782D466F726D61A2
:103BFC00742C204D5342207A752031207365747AD1
:103C0C00656E2066FC7220536368726569627A7512
:103C1C006772696666293A20307800202D2D3E2087
:103C2C003A203078000A0A0D00696E743100696E12
:103C3C00743000526573657474696E6720646576C0
:103C4C00696365210054783A2000205300204348D2
:103C5C00004964656E74696679202020202020203C
:103C6C002000784944454E54002E005620005465DF
:103C7C006D7065726174757265202020202000784B
:103C8C0054454D5020002D3E550052783A200000EE
:00000001FF
