:1000000087C40000A1C400009FC400009DC400007C
:100010009BC400000C94B40897C4000095C4000071
:1000200093C4000091C400008FC400000C94C50864
:100030008BC4000089C4000087C4000085C4000090
:1000400083C4000081C400007FC400007DC40000A0
:100050007BC4000079C4000077C4000075C40000B0
:1000600073C4000071C400000A0D001B5B31442002
:100070001B5B3144000D0A000D0A417573776168FE
:100080006C3A202845292D416E7AC3BC6E64657296
:100090002C202846296C616D65722C20285429611A
:1000A0006C6F6E2C2041626272756368206D69749A
:1000B00020616E64657265722054617374653A20C4
:1000C00000452D414E5AC39C4E44455220283230A3
:1000D000206D732900464C414D4552202833353060
:1000E000206D73290054414C4F4E2028322E343558
:1000F000207329000D0A4465727A65697420656968
:100100006E67657374656C6C74657320416E7AC339
:10011000BC6E646D697474656C0D0A3D3D3D3D3D7A
:100120003D3D3D3D3D3D3D3D3D3D3D3D3D3D3D3DFF
:100130003D3D3D3D3D3D3D3D3D3D3D3D3D0D0A0A85
:10014000005665727363686CC3BC7373656C756EBF
:1001500067206E6963687420616B74697669657283
:100160007421000D0A4B65696E6520C3846E646559
:1001700072756E67656E2067657370656963686523
:100180007274210D0A0A000D0A4572666F6C67725F
:100190006569636820676573706569636865727413
:1001A0002C2044657669636520737461727465748C
:1001B000206E6575210D0A0A000D0A446965736594
:1001C0006E205363686CC3BC7373656C2073706579
:1001D00069636865726E20286A2F6E293F200020AF
:1001E000000D0A4162627275636820776567656E0B
:1001F00020756E7A756CC3A4737369676572204548
:10020000696E67616265210D0A4B65696E6520C381
:10021000846E646572756E67656E20676573706560
:10022000696368657274210D0A0A000D0A0A4E6539
:10023000756572205363686CC3BC7373656C3A2038
:10024000000A0D000D0A0A4E6575656E20285329B7
:1002500063686CC3BC7373656C2065696E676562A7
:10026000656E2C2041626272756368206D6974202E
:1002700062656C6965626967657220616E6465724A
:10028000657220546173746521200020000D0A53AB
:1002900063686CC3BC7373656C206C742E20454519
:1002A00050524F4D3A202020200020005665727396
:1002B00063686CC3BC7373656C756E6720616B7427
:1002C000697669657274210D0A5363686CC3BC73E7
:1002D00073656C206C742E2046756E6B6D6F647543
:1002E0006C3A20000A0D416B7475656C6C65204595
:1002F000696E7374656C6C756E673A20003D3D3DA8
:100300003D3D3D3D3D3D3D3D3D3D3D3D3D3D3D3D1D
:100310003D3D3D3D3D3D3D3D3D3D3D3D3D3D0A0D70
:10032000000A0D4B6F6E66696775726174696F6E56
:1003300020646572205665727363686CC3BC737306
:10034000656C756E670A0D000A0D4B65696E652058
:10035000C3846E646572756E6720766F7267656EB2
:100360006F6D6D656E0A0A0D000A0D4E657573742A
:100370006172742E2E2E0A0A0D004665686C657235
:10038000212042697474652065726E6575742076EB
:10039000657273756368656E210A0D000A0A0DC3E4
:1003A000846E646572756E67206572666F6C6772C5
:1003B00065696368210A0D001B5B33376D001B5BA9
:1003C00033316D002C20454E544552203D20616C48
:1003D0007465722057657274293A20003530000A1E
:1003E0000D4E65756520536C6176652D4944202856
:1003F00030312D001B5B33376D001B5B33316D00DB
:100400002C20454E544552203D20616C746572206D
:1004100057657274293A20003530004E65756520A5
:10042000556E697175652D4944202830312D000ABB
:100430000D000A0D00284929447320C3A46E646589
:10044000726E2C2041626272756368206D6974203F
:1004500062656C6965626967657220616E64657268
:1004600065722054617374652120000A0A0A0D0028
:100470001B5B33376D000A0D004645484C45520062
:100480001B5B33316D00416B7475656C6C6520537B
:100490006C6176652D49443A2020001B5B33376D33
:1004A000000A0D004645484C4552001B5B33316D38
:1004B000000A0A0D416B7475656C6C6520556E6998
:1004C0007175652D49443A20000A0D416E676573C8
:1004D00063686C6F7373656E6573204465766963DA
:1004E000653A20001B5B33376D001B5B33376D00B3
:1004F0000A0D4665686C6572206265696D20494425
:100500002D4C6164656E0A0D001B5B33316D000A72
:100510004B6F6E66696775726174696F6E73707226
:100520006F6772616D6D0A0D3D3D3D3D3D3D3D3D49
:100530003D3D3D3D3D3D3D3D3D3D3D3D3D3D0A0D4E
:10054000001B5B33336D0049442D57656368736549
:100550006C206D6974206A2062657374C3A4746929
:1005600067656E2C2061626272656368656E206DDE
:10057000697420616E64657265722054617374657C
:100580002120000A0A0D004E65756520536C6176C6
:10059000652D49443A20202020202020000A0D000B
:1005A0004E65756520556E697175652D49443A2013
:1005B0002020202020000A0D000A0D0042697368E7
:1005C000657269676520536C6176652D49443A20F0
:1005D00020000A0D004269736865726967652055DD
:1005E0006E697175652D49443A20001B5B33376D88
:1005F000000A0A52656D6F74652D4B6F6E666967F0
:1006000075726174696F6E7370726F6772616D6D10
:100610000A0D3D3D3D3D3D3D3D3D3D3D3D3D3D3D6D
:100620003D3D3D3D3D3D3D3D3D3D3D3D3D3D3D0A2D
:100630000D001B5B33336D000A0D000A0D46656823
:100640006C657268616674652F646F7070656C7438
:1006500065204944733A200009000A0D002D2D2D14
:100660002D002D00200020002C20002C20002D2DFE
:100670002D2D006E2E612E002C20002D002C200030
:100680002E002D2D2D2D002C2000300020002D2D92
:100690002D003A200030000A0D556E697175652DE8
:1006A00049443A20536C6176652D49442C204261BF
:1006B0007474657269657370616E6E756E672028FB
:1006C00056292C205363686172663F2C2054656D57
:1006D000706572617475722028C2B043292C204B5A
:1006E000616E616C7A61686C2C20525353492028EA
:1006F00064426D290A0D001B5B33376D003D3D3DA3
:100700003D3D3D3D3D3D3D3D3D3D3D3D0A0D000AEC
:100710000D53797374656DC3BC62657273696368E8
:10072000740A0D001B5B33336D000A0A0D000920AB
:100730000920092009000A0D002D2D2D003A200066
:100740000A0D536C6176652D49443A20416E7A61F9
:10075000686C20426F78656E0A0D000A0A0D4465C8
:100760007669636520776972642061626765736387
:1007700068616C7465740A0D000A0A0D00C2B0430A
:10078000006E2E612E0054656D7065726174757215
:100790003A2000556E67C3BC6C7469676520456973
:1007A0006E6761626500203D20000A0D4B616E613D
:1007B0006C3A20200900536C6176652D49443A0952
:1007C000000D0A000A0D4D6F64757328662F692F9E
:1007D00074293A20000A0A0D000A0D49442D4B6F76
:1007E0006E66696775726174696F6E73626566655E
:1007F000686C207769726420676573656E646574E0
:10080000210A0D000A0D4944732077657264656EF4
:10081000206C6F6B616C20616E67657061737374BF
:10082000210A0D000A0A0D0030393035003230320D
:1008300032303333300044617465636F6465200087
:100840000A0D00202D20383638204D487A004357B5
:10085000000A0D52464D0061746D65676133323890
:1008600070000A0D000A0D000D0A0A0A000D0A00A8
:100870004F6666656E00202020200020003D3D3D33
:100880003D3D3D3D3D3D3D3D3D3D3D3D3D3D3D3D98
:100890003D3D3D3D3D3D3D0A0D4B616E616C205738
:1008A000696465727374616E640D0A000A0A0D470B
:1008B000656D657373656E65204B616E616C7769FC
:1008C0006465727374C3A46E64650A0D000A0D003A
:1008D000202D2D3E203A203078001B5B3144002033
:1008E000001B5B3144001B5D303B454C20465545A9
:1008F0005241444F524F07001B5B334A001B5B3091
:100900003B3048001B5B324A002D003000200000C5
:1009100011241FBECFEFD8E0DEBFCDBF12E0A0E0B4
:10092000B1E0EAE0F3E402C005900D92A433B10710
:10093000D9F722E0A4E3B2E001C01D92A634B207C9
:10094000E1F7DCD40C9471215BCB9FEB980F9A31CB
:1009500030F0843C21F0863D11F08C3D09F480623A
:100960000895FC01DB018C919081811104C081E02C
:10097000911105C00895319611968917A1F380E071
:10098000F9CF4AE350EC68EA70E04150510961093F
:10099000710921F09091C00095FFF7CF8093C600B8
:1009A00080E00895CF93DF93EC01FE0184912196BE
:1009B000882319F0E6DF8823C1F3DF91CF910895F2
:1009C0008F929F92AF92BF92EF92FF920F931F93DD
:1009D000CF93DF93CDB7DEB7A1970FB6F894DEBF04
:1009E0000FBECDBF1A821982FE0133962FE1DF01BF
:1009F0001D922A95E9F74836D9F510E011C0E1E0DB
:100A0000F0E0EC0FFD1FE10FF11D262F2F7020836A
:100A100044E095958795779567954A95D1F71F5F3F
:100A2000611571058105910551F7112341F310FD01
:100A30001F5F111111C0A1960FB6F894DEBF0FBE53
:100A4000CDBFDF91CF911F910F91FF90EF90BF909D
:100A5000AF909F908F900895FE01E10FF11D80816E
:100A60008A3020F0895C8DDF1150E3CF805DFBCFB1
:100A7000611571058105910521F48BE099E092DF04
:100A8000DACF00E097FF08C090958095709561954A
:100A90007F4F8F4F9F4F01E010E03AE0832E912C63
:100AA000A12CB12C611571058105910511F0113250
:100AB00081F4002319F089E099E074DF112309F42F
:100AC000BACFFE01E10FF11D8081805D5ADF115028
:100AD000F5CFEE24E394F12CEC0EFD1EE10EF11C9B
:100AE000A50194010E94FF20F7016083B901CA01AA
:100AF0001F5FD8CFCF92DF92EF92FF92CF93DF9319
:100B0000CDB7DEB72A970FB6F894DEBF0FBECDBFC4
:100B100069837A838B839C83498789819A81AB819E
:100B2000BC818D839E83AF83B8871A868AE0C82EE6
:100B3000D12CE12CF12C8D819E81AF81B885892B40
:100B40008A2B8B2B01F589819A81AB81BC81B7FF00
:100B500003C0998591509987AA85B985BA1718F568
:100B600044E669817A818B819C812ADF2A960FB6BF
:100B7000F894DEBF0FBECDBFDF91CF91FF90EF9015
:100B8000DF90CF9008956D817E818F819885A70138
:100B900096010E94FF202D833E834F8358879A85BC
:100BA0009F5F9A87C8CF89859A85891B8D83BD8170
:100BB000BB23B1F28DE099E0F5DEAD81A150AD83AC
:100BC000F6CFCF93DF93EC0190E08881882311F07A
:100BD000992319F0DF91CF9108952196D2DE982FB5
:100BE000F4CF8AE390ECA8EAB0E00197A109B1093B
:100BF00039F02091C00027FFF8CF8091C6000895FA
:100C000080E00895CF93DF93ECDFC82F8A3029F47A
:100C1000DFEF8D2FDF91CF9108958D30C9F380EDF7
:100C20008C0F863088F78C2FACDE8AE0C89FC02DF1
:100C30001124C051D6DF8A3059F38D3049F3D82FB3
:100C4000DC0F9FEF9D0F9233A8F79BDEE2CF84E08D
:100C500099E0A8DE8DEF98E0A5DE88EF98E0A2DEAF
:100C600086EE98E09FCE2B982D9841986EBD0DB4DE
:100C700007FEFDCF82E086B986B908958EBD0DB41A
:100C800007FEFDCF8EB50895CF93439887E2F6DF38
:100C900080E0F4DFC82F80E0F1DF439A9C2FCF91F2
:100CA0000895CF93C82F892F662361F080682D980F
:100CB0002B984398E3DF8C2FE1DF439A2B982D98F4
:100CC000CF9108958F77CFEFF2CF61E08BE193E181
:100CD000E8DF61E085E59AE5E4DF61E080E79CE537
:100CE000E0CFCF92DF92EF92FF9261E084E091E05B
:100CF000D8DF8DE1C82E80E6D82E84E5E82EF12CD1
:100D000081E0C81AD108E108F10831F060E08FEF06
:100D100097E2C7DF87FFF4CF81E0CD28CE28CF2828
:100D200009F080E0FF90EF90DF90CF900895CF9290
:100D3000DF92EF92FF92C9DF60E08FEF9DE3B1DFBA
:100D400090E061E084609D63ACDF61E080E191E070
:100D5000A8DF8DE1C82E80E6D82E84E5E82EF12CA0
:100D600081E0C81AD108E108F10831F060E08FEFA6
:100D700097E297DF87FFF4CF81E0CD28CE28CF28F8
:100D800009F080E0FF90EF90DF90CF9008957CDF36
:100D900082FD0DC092FF10C060E08FEF9DE381DF08
:100DA00090E061E084609D637CDF82E0089580953F
:100DB000909581709927089580E008955D9A5F9AD3
:100DC0005E9A289A08955D985F985E98289808958D
:100DD0005D9A08955F9A08955E9A0895289A0895F5
:100DE0009B01F999FECF32BD21BD80BDFA9AF99AD7
:100DF00012BC11BC08959C01F999FECF32BD21BDF2
:100E0000F89A80B512BC11BC0895862798E02CE8AA
:100E1000382F31708695311182279150C9F7089586
:100E2000B0E0A0E0E6E1F7E00C943421082F162FA3
:100E3000B82EB60E682F80E1E8DFE82E612F80E142
:100E4000E4DFC82E612F8E2DE0DFD82E88E1F82E4A
:100E5000CF2DD0E0BE01802FC3DFBE016F5F7F4F7B
:100E6000812FBEDFBE016E5F7F4F8B2DB9DFBE01CC
:100E70006D5F7F4F8E2DB4DFBE016C5F7F4F8C2D79
:100E8000AFDFBE016B5F7F4F8D2DAADF84E2F80ECE
:100E900084E8F812DDCFCDB7DEB7E9E00C9450213D
:100EA000B0E0A0E0E6E5F7E00C943221D82FC62FA1
:100EB00088E1F82E9D2E960E0F2D10E0C8019BDFC5
:100EC000A82EC801019697DFB82EC801029693DFBD
:100ED000C82EC80103968FDFE82EC80104968BDF69
:100EE000D82EC801059687DF182FAD1213C0BC128B
:100EF00011C0C9100FC06D2F80E187DFE8120AC052
:100F00006C2F80E182DFD81205C06C2F8E2D7DDF23
:100F1000181759F084E2F80E84E8F812CDCF80E07B
:100F2000CDB7DEB7EBE00C944E2181E0F9CFB0E015
:100F3000A0E0EDE9F7E00C9432217C016B0100E0C8
:100F400084E2982E099D50011124C501489653DF73
:100F5000C82FC50149964FDFD82F682F8C2FA0DFEF
:100F6000182F882391F188E190E045DF182F8CE35A
:100F700090E041DF1817F1F088E190E03CDF182F96
:100F800080E690E038DF181315C089E190E033DF88
:100F9000182F8DE390E02FDF18130CC089E190E04B
:100FA0002ADF182F81E690E026DF181303C06D2F8B
:100FB0008C2F36DFF701C083F601D08311E0812F3B
:100FC000CDB7DEB7EBE00C944E21023061F46D2F0B
:100FD0008C2F66DF811107C085E4F701808385E6E9
:100FE000F6018083ECCF0F5F033009F0ABCFE7CF82
:100FF00020917C00287F20937C0090917C00982B8E
:1010000090937C0029E090E080E030917A00306499
:1010100030937A0030917A0036FDFCCF4091780011
:1010200050917900840F951F293011F490E080E0F1
:10103000215059F723E0969587952A95E1F7089571
:10104000219A9BE09A95F1F700008111219898E28E
:101050009A95F1F700C0199B80E099EA9A95F1F70B
:1010600000C0219897E09A95F1F700C00895CF93BA
:10107000DF93C82FD8E08C2F8170E2DFC6958111F5
:10108000C068D150C1F78C2FDF91CF910895299876
:10109000219A86E695E00197F1F70000219893EFF9
:1010A0009A95F1F7000083B1EFEAF4E03197F1F798
:1010B00000C00000869581700895CF92DF92EF9274
:1010C000FF92CF93DF93882309F44CC0E0DF8CECD0
:1010D000CEDF8EE4CCDF8DE7CADF88EDC8DF8FE19D
:1010E000C6DFD5DF8CECC3DF84E4C1DF50E8C52E5A
:1010F00051E5D52EEE24E394F12C81E0C81AD108F5
:10110000E108F10821F081E09BDF8823B1F3BFDF24
:101110008CECADDF8EEBABDF8FEFA9DFC82FD0E01B
:101120008FEFA5DF90E0982F88278C0F9D1F9C01E3
:101130002227387F232BA1F09195819591092FEFDC
:10114000089634E0969587953A95E1F7829F802D31
:101150001124DF91CF91FF90EF90DF90CF90089511
:1011600021E0EECF80E8F5CF1F921FB61F92112429
:101170008F9380914502811103C081E080934502E5
:101180008F911F901FBE1F9018951F921FB61F9220
:1011900011242F933F938F939F93AF93BF9380918D
:1011A00044028F5F8D3708F043C0809344028091E2
:1011B0003E02813071F480913C0290913D02019693
:1011C000853F21E0920708F091C090933D02809303
:1011D0003C0280913B0281FF09C0809139029091CD
:1011E0003A02019690933A02809339028091350237
:1011F00090913602A0913702B0913802892B8A2B48
:101200008B2B19F081E08093340280914502882372
:1012100029F080913B02846080933B02BF91AF91A3
:101220009F918F913F912F911F901FBE1F901895F6
:1012300010924402809143028111B9CF2091410262
:101240003091420223303105C0F0209141023091AB
:1012500042022531310518F184E0809343028091E8
:101260004102909142028F3F910509F090F58091E3
:1012700041029091420280934002809141029091FC
:101280004202892B41F580913F028F5F80933F029C
:10129000893020F5109242021092410288CF2091AD
:1012A0004102309142022630310510F082E0D5CF64
:1012B00020914102309142022630310580F6209182
:1012C000410230914202909140029217130628F693
:1012D000EDCF8FEFD0CF10923F02DCCF8FEF809316
:1012E000430210923F0210924002D4CF10923D026E
:1012F00010923C0282E080933E026BCFCDB7DEB706
:10130000CE59D2400FB6F894DEBF0FBECDBF409A83
:10131000389A0FB6F894A895809160008861809300
:101320006000109260000FBE42983A9A7E0122EC53
:10133000E21A2DEFF20A80E1D7011D928A95E9F7B2
:101340006E01BEE8CB1ABDEFDB0AF6011082BE01CA
:101350006D587D4FDB011C9211961C929E012B58FB
:101360003D4FF9011082AE014A585D4FFA011082DB
:10137000CE0189589D4FFC01108210E0EE5DF1090D
:101380001192119208E211920A95E9F7FE01E451D7
:10139000FE4F1192119207E2402E11924A94E9F702
:1013A000FE01EB5EFD4F1192119211920A95E9F741
:1013B0005E01FAE9AF1AFEEFBF0AF5011192119230
:1013C00001E311920A95E9F7C05ADD4F198218829C
:1013D000C056D240CE59DD4F19821882C256D24033
:1013E000CC59DD4F19821882C456D240CA59DD4FFC
:1013F00019821882C656D240609000017090010197
:1014000080900201C859DD4F688279828A82C8566D
:10141000D240C25BDD4FD982C882CE54D240C05B7D
:10142000DD4F79836883C055D240CE5ADD4FB983F2
:10143000A883C255D24066E0E3E0F1E090970190C6
:101440000D926A95E1F760902B0270902C028090CB
:101450002D02C559DD4F688279828A82CB56D240EF
:1014600060902F027090300280903102C259DD4F9F
:10147000688279828A82CE56D240C65ADD4F59831D
:101480004883CA55D240C45ADD4F39832883CC558E
:10149000D240C25ADD4F99838883CE55D2402A9AD2
:1014A000239A229A399A259A2B9841982D9893E05D
:1014B00020E232E08CE023B923B98150E1F736B95C
:1014C00036B99150B9F78CEC9AE00197F1F700C06A
:1014D00000002A980CB406FC03C08CB581658CBD55
:1014E00080916400806C8093640080B7806880BFC6
:1014F0008FEF95E39093890080938800809181001D
:1015000088608093810080916F00826080936F007B
:10151000809181008260809381002898209A5E9853
:10152000569A5F98579A5D98559A80B7806880BFA1
:1015300080917C00856C80937C0080917A0086602D
:1015400080937A0080917A00806880937A008091FD
:101550007A00806480937A0080917A00082F00746A
:1015600086FDFACF809178009091790082E3CD5387
:10157000DE4F8883C35CD1408983BE016D537E4FAB
:10158000CE010196D4DC811101C018DCCD53DE4FB1
:101590003880C35CD1404980C058DD4F4882C05874
:1015A000D240442009F4D9C3332009F4DEC38DE6C8
:1015B00091E021DCCE57DD4F8883C258D240853F71
:1015C00071F0833261F0823051F06DE671E082E0BB
:1015D00007DC42E0CE57DD4F4883C258D24020E0BE
:1015E00031E0822F90E0E9E9F1E0EC0FFD1FE80F18
:1015F000F91F3083E5E1F2E0EC0FFD1FE80FF91F62
:1016000010826CEE71E06C0F7D1F860F971FDC015E
:101610001C922F5F283229F797E080E8E1E0F0E0A4
:10162000EC0FFD1F909FE00DF11D1124108211821F
:1016300012828383858316820F5F023379F704E079
:1016400088E090E0A0E0B0E0202F2150330BF901BA
:10165000EE0FFF1FEE0FFF1FEE0DFF1D8083918326
:10166000A283B383B695A79597958795015061F7A7
:101670005A9A52985C9A54985B9A53988091680051
:1016800084608093680080916D00846080936D0019
:1016900080916D00806180936D0080916D00886005
:1016A00080936D0042983A9A8EDB8FB7F89410922F
:1016B000C50097E49093C40098E19093C10096E030
:1016C0009093C200589A8FBF85E0F82EEE24E394E1
:1016D000DEDC93B1969591709E25980F090FFA94D0
:1016E000F110F6CF002309F45BC32198299ACF5655
:1016F000DD4F1882C159D240CF56DD4F8881C15984
:10170000D240DBDCCC57DD4F8883C458D240439AAB
:101710002C9A2498239A259A3B9A0CB406FC03C071
:101720008CB581658CBD60E08FEF90E1BADACA5666
:10173000DD4F8883C659D240B3E07B2E83E39BE222
:101740000197F1F7000061E082E092E0AADAA0E8F8
:101750008A2E912CA12CB12C78E1C72ED12CE12C12
:10176000F12CA7019601C501B4010E94C2209B0182
:10177000AC0162E0220F331F441F551F6A95D1F759
:1017800060E078E488EE91E00E94DD20203238436A
:101790004105510558F4D701C601880D991DAA1DB0
:1017A000BB1D4297A105B10508F001C3B694A794EB
:1017B0009794879400E081149104A104B10409F086
:1017C00013C3F0E1CF1AD108E108F10892E0F694D2
:1017D000E794D794C7949A95D1F7CC0CCC0CCC0C49
:1017E0000C2920E8822E912CA12CB12CA8E1CA2E24
:1017F000D12CE12CF12CA7019601C501B4010E9466
:10180000C2209B01AC01F2E0220F331F441F551F81
:10181000FA95D1F760E078E488EE91E00E94DD204F
:10182000293139444105510558F4D701C601880DC5
:10183000991DAA1DBB1D4297A105B10508F0DAC28A
:10184000B694A7949794879480E081149104A1049E
:10185000B10409F0ECC270E1C71AD108E108F1083F
:1018600062E0F694E794D794C7946A95D1F7CC0CCC
:10187000CC0CCC0CC82A61E080E095E012DA61E083
:101880008DE996E00EDA61E08DE093E00ADA61E03E
:101890008DE094E006DA802F90E061E08064996149
:1018A00000DA8C2D90E061E080649A61FAD961E001
:1018B00080E495E2F6D961E087EA96E2F2D961E048
:1018C0008CE697E0EED961E080EA98E0EAD961E041
:1018D00080E099E0E6D961E080E997E3E2D961E050
:1018E00088E298E3DED961E080E89CE3DAD961E040
:1018F00080E39DE3D6D961E080E09CE2D2D961E04B
:1019000084E09DE2CED961E088E89EE2CAD961E038
:101910008DE29FE2C6D961E084ED90E3C2D961E037
:1019200080E098E1BED961E08DE298E5BAD961E046
:1019300080E39FE6B6D961E08FEC99E2B2D961E02D
:101940008DE29EE1AED961E080E09AE2AAD99FE003
:101950009150292F30E051F0F901EE0FFF1FE75FA2
:10196000FE4F408151814832510590F361E0C90139
:10197000926197D960E08FEF9DE293D9082F60E0E4
:101980008FEF9EE28ED9282F30E043E035952795E2
:101990004A95E1F7822F87700B5E800F869590E065
:1019A00061E09B627ED961E08BE193E17AD961E0ED
:1019B0008CE991E176D97A947110C0CE61E080E82B
:1019C0009AE06FD99DE1C92E90E6D92E94E5E92ED3
:1019D000F12C81E0C81AD108E108F10809F02DC204
:1019E000A6D960E080E097E05CD9C859DD4F8883D4
:1019F000C856D24060E080E098E053D9C759DD4F27
:101A00008883C956D24060E080E099E04AD9C6593F
:101A1000DD4F8883CA56D24061E081EA9DE341D917
:101A200000E0E02EF12CC7018096E5D99EE3E90E97
:101A3000F11C61E09E2D35D90F5F003191F7C3D9BC
:101A4000A1E0B0E1E5E0A150B040E040E1F700C026
:101A500060EF70E080E090E006D9C0D9F1E020E1CD
:101A600035E0F15020403040E1F700C0B3D941E00B
:101A700050E165E0415050406040E1F700C0A8D916
:101A800071E080E195E0715080409040E1F700C046
:101A9000A3D9A1E0B0E1E5E0A150B040E040E1F71A
:101AA00000C091D9F2E020E738E0F150204030400A
:101AB000E1F700C00000032D02950F7034FC8ED9B1
:101AC00001FD88D902FD84D9087009F085D946E165
:101AD00050E863E4415050406040E1F700C000C06E
:101AE00072D972E080E798E0715080409040E1F751
:101AF00000C0000071D9A1E0B0E1E5E0A150B04024
:101B0000E040E1F700C064D9F1E020E135E0F150B8
:101B100020403040E1F700C05DD941E050E165E090
:101B2000415050406040E1F700C058D971E080E179
:101B300095E0715080409040E1F700C044D9A2E0A8
:101B4000B0E7E8E0A150B040E040E1F700C000009D
:101B500030FC44D931FC3ED932FC3AD933FC3CD973
:101B6000F6E120E833E4F15020403040E1F700C0D6
:101B700000C060E070E0CB0176D825D942E050EC9F
:101B800066E0415050406040E1F771E0C458DD4FDD
:101B90007883CC57D2404A9B58C1C458DD4F188235
:101BA000CC57D2405E9880E7CB5EDD4F8883C5512D
:101BB000D240C058DD4F4880C058D240CA5EDD4F89
:101BC0004882C651D240C95EDD4F3882C751D240EB
:101BD00085E00EDA4BE0489F9001499F300D1124BB
:101BE00020583F4FC85EDD4F3883C851D240C4589B
:101BF000DD4F5880CC57D240C75EDD4F5882C95167
:101C0000D240CC57DD4F6880C458D240C65EDD4F0D
:101C10006882CA51D24084E0C55EDD4F8883CB51D3
:101C2000D24080E8C45EDD4F8883CC51D24060E072
:101C300080E099E236D88695C35EDD4F8883CD512A
:101C4000D240106402E281E080933E02809345021C
:101C50007894842D90E09C012F5F3F4F4AE0429F93
:101C60004001439F900C1124CE56DD4F998288820B
:101C7000C259D24094012A503109CC56DD4F3983E4
:101C80002883C459D240C057DD4F1882C059D24072
:101C9000C557DD4F1882CB58D240C957DD4F188247
:101CA00019821A821B82C758D240C457DD4F18824E
:101CB00019821A821B82CC58D24030E7CF57DD4FB1
:101CC0003883C158D2402224239447E0CD57DD4FBA
:101CD0004883C358D24026E631E02C0F3D1F230D28
:101CE000311DB90161507109C556DD4F7983688393
:101CF000CB59D2400197489F9001499F300D112444
:101D000044244394512C4C0E5D1E420E531ECB575F
:101D1000DD4F59824882C558D24092012F5F3F4F14
:101D2000C356DD4F39832883CD59D2408091450277
:101D3000882309F4B6C0EFB6F8948091450281304B
:101D400009F486C0823009F412C110924502C557C9
:101D5000DD4FF880CB58D2409EC031101AC022E32C
:101D6000C058DD4F2883C058D24042E3342E632D43
:101D7000C058DD4F8881C058D24052D888E19EE0DB
:101D80000FB6F894A895809360000FBE9093600002
:101D9000FFCF32E3C058DD4F3883C058D240E7CF81
:101DA0003FE6CF56DD4F3883C159D240A5CC94E0F1
:101DB000C91AD108E108F108A0E1CA16D104E1046A
:101DC000F10408F0CECCF0E1CF2ED12CE12CF12C97
:101DD000B1E08B169104A104B10409F4C2CCB6940D
:101DE000A79497948794B8CCB694A7949794879423
:101DF0000F5FE1CC24E0C21AD108E108F10830E11C
:101E0000C316D104E104F10408F0F5CC80E1C82E3A
:101E1000D12CE12CF12C41E084169104A104B104F1
:101E200009F4E9CCB694A79497948794DFCCB69440
:101E3000A794979487948F5F08CD60E080E09AE044
:101E40000E94510686FFC5CDCBCD0E94EC06ABCEDD
:101E5000C25BDD4FE881F981CE54D2401082C05B75
:101E6000DD4FE881F981C055D2401082CE5ADD4F56
:101E7000E881F981C255D240108282E08093450208
:101E8000C557DD4FF880CB58D24037E0CD57DD4FF6
:101E90003883C358D240EFBEC557DD4FF882CB58C8
:101EA000D240CA56DD4F2881C659D240243221F093
:101EB0000E94EA060E94E8068091C00087FB10F9A4
:101EC000312F3170D32E10FFE5C38FB6F8941E7FEB
:101ED0000E94EE060E94F105C756DE4F8883C9595D
:101EE000D1408F3709F43DC087FD06C128EF280F88
:101EF000263038F491E001C0990F2A95EAF79572DF
:101F000081F50E94A504C756DE4F8883C959D14088
:101F10000E94C104E12C0E94F1050E94A504F82E44
:101F20004DE0841709F4B8C25AE0851709F4B4C229
:101F300068E0861719F07FE78713AFC2E110A6C2E9
:101F4000C656DE4F1882CA59D14081EE98E00E94F1
:101F5000D2048FED98E00E94D2048AED98E00E94AE
:101F6000D204C756DE4F1882C959D140E2C08091D1
:101F70003B0282FFECCE80913B028B7F80933B0241
:101F8000F0E0F12CE1E0CD57DD4F8881C358D2401D
:101F90008E23A9F12F2F30E0C901880F991FA4E5E6
:101FA000B2E0AC0FBD1FA80FB91F0D90BC91A02DC2
:101FB0006C91ABE6B2E0AC0FBD1FA20FB31F4C910A
:101FC000642341E050E011F450E040E0E49FB001B0
:101FD000E59F700D1124F62AAEE4B2E0AC0FBD1FF0
:101FE000A80FB91F0D90BC91A02DC557DD4F48819A
:101FF000CB58D2404F254E2309F44DC01C92EE0F12
:10200000FF5FF33009F0BFCFCD57DD4F4880C35895
:10201000D240411040CF10924502C958DD4F88810F
:10202000C757D24081110260CB58DD4F8881C55718
:10203000D240882361F081E0C458DD4F5880CC57EE
:10204000D2405826C458DD4F5882CC57D240C4588D
:10205000DD4F6880CC57D240662009F44AC00E9408
:10206000EC0660E070E0CB010E943306CA58DD4FF9
:102070008881C657D240882341F0C458DD4F78800C
:10208000CC57D240711007CF0061CD57DD4F188279
:10209000C358D24000CF4C914F5F4C936EE672E034
:1020A0006C0F7D1F260F371FD9012C91241708F0C4
:1020B000A6CF2E2F2095CD57DD4F4880C358D24054
:1020C0004222CD57DD4F4882C358D240AAE56A2E3E
:1020D000A2E07A2E6C0E7D1E860D971DDC012D91DF
:1020E0003C9191E08F2D8E2309F090E0D9019C93D3
:1020F00086CF42985E98BACF8F3F09F002CF0E94F8
:10210000F105C656DE4F8883CA59D1400E94F105B9
:10211000C556DE4F8883CB59D1400E94F105C45685
:10212000DE4F8883CC59D140C356DE4F1882CD593B
:10213000D14069E571E0CE0187569E4F0E94B104FF
:10214000882311F01D7B12606EE571E0CE01875689
:102150009E4F0E94B104882311F000681F7B65E642
:1021600071E0CE0187569E4F0E94B104811100623A
:102170006FE671E0CE0187569E4F0E94B104811137
:102180001BC064E771E0CE0187569E4F0E94B104E8
:10219000811112C069E771E0CE0187569E4F0E94FF
:1021A000B104811109C06FE771E0CE0187569E4FDF
:1021B0000E94B104882311F01F7910626AE671E071
:1021C000CE0187569E4F0E94B104882311F0016012
:1021D0001F7B64E871E0CE0187569E4F0E94B104D8
:1021E0008111066068E871E0CE0187569E4F0E941B
:1021F000B10481110E9427066CE871E0CE01875678
:102200009E4F0E94B1048111086061E971E0CE0126
:1022100087569E4F0E94B104811100616AE971E006
:10222000CE0187569E4F0E94B104811108C06DE90E
:1022300071E0CE0187569E4F0E94B1048111006467
:1022400066EA71E0CE0187569E4F0E94B104882352
:1022500061F184EF90E00E94D204CE57DD4F988167
:10226000C258D240953F09F02FC185EE90E00E9400
:10227000D20488E790E00E94D2040E94F105F82E73
:102280008823D9F30E94C10485E790E00E94D2041C
:102290008F2D8062863609F424C1843709F436C153
:1022A00072E0F72E853609F41EC16EEA71E0CE01A8
:1022B00087569E4F0E94B104882309F457C082EBD1
:1022C00091E00E94E105B12C44E0A42E90E080E072
:1022D0007C0134E0EE0CFF1C3A95E1F70E94F10519
:1022E000C82E0E94C1048C2D806290ED980F9A3008
:1022F00038F09FE9980F963008F00BC199EA980FD3
:1023000081E09F3F09F080E0B80E3701692AC301E0
:10231000AA94A110DDCFB11025C08F3F980711F10D
:10232000692F661F6627661F0E945106F82E80EDF2
:1023300098E00E94D2044F2D50E070E060E0C85851
:10234000DD4F488359836A837B83C857D24048E670
:10235000C858DD4F688179818A819B81C857D240F6
:102360000E94E0048AEF91E00E94E1056EEF71E0C7
:10237000CE0187569E4F0E94B104882309F427C1DD
:10238000FE01ED53FE4F119211928EE0DF011D927E
:102390008A95E9F781E293E00E94D2048DEF92E002
:1023A0000E94D20484EE92E00E94D20460E08FEF9B
:1023B0009DE30E945106B82FB170BB2E80FF4AC129
:1023C0008CEA92E00E94D204EE24EA942EE3F22EEC
:1023D00060E0C7010E945106482E512C712C612CDF
:1023E00048E6C301B2010E94E0048AEA92E00E943A
:1023F000D204F394E1143EE4F30650F38DE892E046
:102400000E94D204F12C8F2D90E080960E94FB0652
:10241000482F50E070E060E0C858DD4F4883598392
:102420006A837B83C857D24048E6C858DD4F68812D
:1024300079818A819B81C857D2400E94E0048BE851
:1024400092E00E94D204F39450E1F512DCCF84E4D0
:1024500092E00E94D2040E94F1058823E1F3F82E55
:102460006894F5F88F2D0E94C10481E492E00E94E7
:10247000D20463E7F612ABC08BE292E00E94D20472
:10248000C12CE12C912C82E0A82E46C0EA948BE668
:1024900090E00E94D2043FCDF12CEAE9F1E0EC0F8C
:1024A000FD1FEE0DF11DF0828F2D0E94C104FF2053
:1024B00011F40C94BC20E39487E2E8122CCD88E65A
:1024C00090E00E94D20435CECE57DD4FA881C2588D
:1024D000D24085ED90E0A33209F4C9CE81EC90E0C2
:1024E000C6CE63E2F62ECE57DD4F4880C258D240AA
:1024F0004F1409F4DACE6DE671E08F2D0E94F006DC
:10250000CE57DD4FF882C258D240CFCE55EFF52ED0
:10251000EACF9FEFF5CEAB2C929490EF99220E94D8
:10252000F105F82E0E94C1048F2D806290ED980F66
:102530009A3030F09FE9980F963090F499EA980F0E
:1025400081E09F3F09F080E0E80E992A71E0A71230
:10255000E2CFEE2039F081EE91E00E94D20437C044
:102560009FEFEECF8FED91E00E94D204E3ECF1E01B
:10257000EC0FFD1FEC0DF11D9082C39480E1C81299
:1025800080CF89EB91E00E94D2040E94F105806225
:102590008A3629F08E36C9F783E691E0DECF8E2D9C
:1025A00090E0BC01605E7F4FA3ECB1E0AC0FBD1FBB
:1025B0008A0F9B1FFC0180810E94F006E394F0E1EA
:1025C000EF12EDCF87E891E00E94D2040860C75671
:1025D000DE4F8881C959D1408F3F09F04DC0C656A2
:1025E000DE4FF880CA59D1408F0D823308F044C0C5
:1025F000C556DE4FE880CB59D1408FEF8E0D843029
:10260000D8F5C456DE4FC880CC59D1406F2D80E03C
:102610000E9405076E2D0E940507C8122DC086E690
:10262000CB5EDD4F8883C551D240CA5EDD4FF88254
:10263000C651D240C95EDD4FE882C751D240106416
:102640003F1459F02D2C36E6CF57DD4F3883C15853
:10265000D24012C081E491E080CF12FDF3CFC2518D
:10266000DE4FE882CE5ED14014602D2C26E6CF5797
:10267000DD4F2883C158D2402898C756DE4F888145
:10268000C959D14081508E3F20F48DEC98E00E94D2
:10269000D2048FBEFFB6F8940E94C70691E017FDE2
:1026A00003C0813009F090E090FB17F9823049F4C3
:1026B0008091410290914202019690934202809350
:1026C0004102FFBE01FFC7C017FDC5C0812F807446
:1026D00016FF08C0CF57DD4F4881C158D2404A3756
:1026E00009F0B9C04FB6C858DD4F4882C857D2402C
:1026F000F8940D7FB12C882351F081E0CF57DD4F46
:102700002881C158D2402A3709F080E0B82E42987B
:10271000A12CC12CD12C7601412C512C3201439497
:1027200091E017FD06C00E94C70691E0811101C02B
:1027300090E090FB17F9B1102BC3812F012E000CF4
:10274000990B992E991C9924991C97FD30C0C301AF
:10275000B2010E94330689E995E10197F1F700C0C3
:1027600084E00E94F807A9E1A89F9001A99F300D7D
:1027700011243395832E8694E0E6F2E0EC0FFD1FE2
:10278000EA0DF11D882D811001C081E0808360E099
:1027900070E0CB010E943306B1E3B81520F0C428E5
:1027A000D528E628F728440C551C661C771CA394F2
:1027B000E4E0AE1609F4EEC2992009F4B1CF16FF99
:1027C00044C0CF57DD4F3881C158D2403A37E9F580
:1027D000CB5EDD4F3883C551D240C058DD4F4880B5
:1027E000C058D240CA5EDD4F4882C651D24084E014
:1027F000C95EDD4F8883C751D240C05ADD4F888102
:10280000C056D240C85EDD4F8883C851D240CF59F0
:10281000DD4F8881C156D240C75EDD4F8883C951E4
:10282000D240CE59DD4F8881C256D240C65EDD4FC0
:102830008883CA51D240CD59DD4F8881C356D240DA
:10284000C55EDD4F8883CB51D240C858DD4F5880DC
:10285000C857D2405FBE802F8670843009F059C0BF
:1028600017FD57C0CFB6F8940B7F8CEA98E00E9412
:10287000D2048DE798E00E94D204D12C8BE798E037
:102880000E94D204ED2CF12CC70101963C01990F56
:1028900088089908C858DD4F688279828A829B82AD
:1028A000C857D24044E6C401B3010E94E00486E761
:1028B00098E00E94D204E0E6F2E0EC0FFD1FEE0D7E
:1028C000FF1D8081823308F090C2282F30E050E055
:1028D00040E0C858DD4F288339834A835B83C8575B
:1028E000D24044E6C858DD4F688179818A819B8156
:1028F000C857D2400E94E0048DE698E00E94D204BE
:10290000D39434E0D312BACF88E698E00E94D20480
:10291000CFBE80913E02823071F4C458DD4F4880B2
:10292000CC57D240411007C010923E0260E070E0E8
:10293000CB010E94330606FF46C0FFB6F8940F7B1A
:1029400085E698E00E94D20485E092E00E94E105CD
:1029500044E664E070E080E090E00E94E00489E1F9
:1029600092E00E94E10582E698E00E94D20487E5A9
:1029700098E00E94D20481E598E00E94D20444E6E7
:1029800065E470E080E090E00E94E0048EE498E06E
:102990000E94D20483E498E00E94D20480E498E08C
:1029A0000E94D20486E398E00E94D2048DE298E06F
:1029B0000E94D20488E298E00E94D20484E298E067
:1029C0000E94D204FFBE11FF2DC1DFB6F8941D7F17
:1029D0000E94270681E495E00E94D2048FE095E0F2
:1029E0000E94D204BE016F587D4FCE018D539E4F81
:1029F0000E94970781110CC089E095E00E94D204E3
:102A000080EF94E00E94D2048AEE94E00E94D20407
:102A100084EE94E00E94D20489EC94E00E94D204F7
:102A200082E292E00E94E10581EB94E00E94D204F0
:102A30008BEA94E00E94D204CD53DE4F8881C35CC0
:102A4000D140853409F4D6C18A3018F480E30E945D
:102A5000C104CD53DE4F8881C35CD140682E712CF8
:102A6000912C812CC858DD4F688279828A829B82A2
:102A7000C857D24044E6C401B3010E94E00481EA91
:102A800094E00E94D2048BE994E00E94D20486E88C
:102A900094E00E94D20480E894E00E94D204CF58CF
:102AA000DD4F8881C157D240853609F4A8C18A30EC
:102AB00018F480E30E94C104CF58DD4F8881C157CC
:102AC000D240282F30E050E040E0C858DD4F288346
:102AD00039834A835B83C857D24044E6C858DD4FE8
:102AE000688179818A819B81C857D2400E94E00425
:102AF00086E794E00E94D20480E794E00E94D2042A
:102B00008BE694E00E94D20485E394E00E94D20414
:102B10000E94F1058823E1F3F82E6894F5F88F2DD3
:102B20000E94C10482E394E00E94D2048FE294E008
:102B30000E94D20439E6F31276C18BE194E00E9440
:102B4000D20488E194E00E94D20480E094E00E94E4
:102B5000D2048AEF93E00E94D204CD53DE4FE88086
:102B6000C35CD1400E9402068F3F09F44DC1CD5392
:102B7000DE4F8883C35CD14084EF93E00E94D2048F
:102B80008FED93E00E94D2048CED93E00E94D2047A
:102B900084EC93E00E94D2048EEB93E00E94D20476
:102BA000CF58DD4FF880C157D2400E9402068F3FB8
:102BB00009F430C1CF58DD4F8883C157D24088EB2C
:102BC00093E00E94D204CD53DE4F8881C35CD14094
:102BD000E81208C0CF58DD4F9881C157D240F9168E
:102BE00009F421C1CF58DD4F6881C157D2400E94FE
:102BF0001007CF58DD4F6881C157D240CD53DE4F0B
:102C00008881C35CD1400E945007882309F408C121
:102C10008CE993E00E94D20489E693E00E94D204FA
:102C20000860DFBE07FF94C0AFB6F8940F7782E369
:102C300096E00E94D20481EF95E00E94D2048BEED0
:102C400095E00E94D20485ED95E00E94D2040E9496
:102C50000206B82E82ED95E00E94D2044FEFB41622
:102C600009F475C08CEB95E00E94D2040E94020624
:102C7000C82E89EB95E00E94D20486EB95E00E9475
:102C8000D2045FEFC51609F462C080EA95E00E94A5
:102C9000D2040E940206E82E8DE995E00E94D2043B
:102CA0006FEFE61609F453C087E895E00E94D2045E
:102CB0000E940206D82E83E895E00E94D2047FEF9E
:102CC000D71609F444C0BE1003C0CD1409F43FC0A8
:102CD00087E495E00E94D2040E94F105F82E882333
:102CE000D9F30E94C1048F2D80628A3681F583E674
:102CF000CB5EDD4F8883C551D240CA5EDD4FB882BE
:102D0000C651D240C95EDD4FC882C751D240C85EAD
:102D1000DD4FE882C851D240C75EDD4FD882C9512D
:102D2000D240C058DD4F4880C058D2404B1080C0C0
:102D30003C107EC084E098E00E94D2046D2D8E2D60
:102D40000E941007086085ED97E00E94D204AFBE94
:102D500015FF29C1CFB6F8941F7DC756DE4FF88006
:102D6000C959D140E9E65E2EF51068C0CB5EDD4F53
:102D7000F882C551D24084E6CA5EDD4F8883C651D1
:102D8000D24080E3C95EDD4F8883C751D240F1C293
:102D9000912CDDCC911013CDC458DD4F4880CC5719
:102DA000D24041101CC0F4E0CC0CDD1CEE1CFF1C1A
:102DB000FA95D1F7A7019601332744275527C9561D
:102DC000DD4F288339834A835B83C759D240CA01C8
:102DD000B9010E94330681E080933E02F0CC60E0AE
:102DE00070E0CB010E943306EACC80E798E00E94B5
:102DF000D20482CD84EA94E00E94D20440CE89E7D6
:102E000094E00E94D20474CECD53DE4FE882C35CBE
:102E1000D140B2CECF58DD4FF882C157D240CFCE8D
:102E20008AE793E0F7CE88E493E00E94D204F9CEDB
:102E300089ED97E00E94D204106485CF74E7672E75
:102E4000F61050C0CB5EDD4FF882C551D240CF5650
:102E5000DD4F8881C159D2400E945D08CC57DD4FBB
:102E60008883C458D24086E897E00E94D204CC57A9
:102E7000DD4F2881C458D24081E897E02038B9F06E
:102E800044E0CC57DD4F6881C458D240062E000C78
:102E9000770B880B990BC858DD4F688379838A8339
:102EA0009B83C857D2400E947A058DE797E00E9425
:102EB000D20484E7CB5EDD4F8883C551D24085E6DE
:102EC000CA5EDD4F8883C651D2408DE6C95EDD4FB4
:102ED0008883C751D24080E7C85EDD4F8883C851E0
:102EE000D24047C266E6762EF7100CC0CB5EDD4FAF
:102EF000F882C551D240EE24E39486EB97E02AE0B5
:102F0000D22EE3C184EC97E00E94D2040E94F10526
:102F1000F82E6894F5F88F2D0E94C10481EC97E09B
:102F20000E94D204CB5EDD4FF882C551D24056E6F6
:102F3000852EF81401F349E6942EF91409F41BCFF9
:102F400034E7B32EFB1409F482CFF12C89E797E024
:102F50000E94D204FF2009F414C2CB5EDD4F4880EA
:102F6000C551D240CF57DD4F4882C158D24010647E
:102F7000242D263691F4CA5EDD4F8881C651D24099
:102F800083110BC0C95EDD4F8881C751D240C25149
:102F9000DE4F8883CE5ED14014608091C00087FDF3
:102FA000F3C1CFBE2F2C302F3170C32E00FF77C15D
:102FB0009FB6F8940E7F0E94270684E297E00E9455
:102FC000D2048FE097E00E94D2048DEF96E00E9439
:102FD000D20487EF96E00E94D20487E996E00E942F
:102FE000D204D12C8AE0782E93E0892E48E04D154A
:102FF00020F085E996E00E94D2048D2D90E00196A4
:103000009C01990F440B550BC858DD4F2883398319
:103010004A835B83C857D24044E6C858DD4F688175
:1030200079818A819B81C857D2400E94E00482E95D
:1030300096E00E94D204EE24E394F12CEC0EFD1EE7
:1030400037E0D39EE00CF11C1124D701BC90B110E5
:103050009EC18EE896E00E94D20487E896E00E9426
:10306000D204F70181818A3008F0AEC182E896E08F
:103070000E94D2048DE796E00E94D204BB2009F49E
:10308000D9C1D70112968C910E94C10488E796E0BD
:103090000E94D204F7018381803809F4D0C1282F1F
:1030A000880F330B440B550BC858DD4F28833983E9
:1030B0004A835B83C857D24044E0C858DD4F6881DB
:1030C00079818A819B81C857D2400E947A058BE61C
:1030D00096E00E94D204D70114968C91282F30E0FC
:1030E00050E040E0C858DD4F288339834A835B8332
:1030F000C857D24044E6C858DD4F688179818A813B
:103100009B81C857D2400E94E00488E696E00E9466
:10311000D204D7011596FC90FF2009F499C1B3E6BB
:10312000BF1520F086E696E00E94D204E9E0EF1594
:1031300020F084E696E00E94D20482E696E00E94A7
:10314000D2042F2D30E050E040E0C858DD4F2883F6
:1031500039834A835B83C857D24044E6C858DD4F61
:10316000688179818A819B81C857D2400E94E0049E
:103170008D2D682D0E94D120923009F06EC18AE514
:1031800096E00E94D204D39432E3D3122FCF8BE384
:1031900096E00E94D204C057DD4F4880C059D2400B
:1031A000842D90E0B0E0A0E044E6C858DD4F88836D
:1031B0009983AA83BB83C857D240BC01CD010E942A
:1031C000E00488E396E00E94D20490E080E0E1E031
:1031D000F0E0EC0FFD1FA7E05A2E859DE00DF11DDC
:1031E000112420812C1101C09F5F8F5F823379F7FA
:1031F000E5E6F1E0EC0FFD1FEC0DF11D9083C394AB
:1032000073E3672EC610E1CF80E497E00E94D204FA
:10321000D12C68E0762E7D1418F080E30E94C10462
:10322000ED2CF12CC70101969C01990F440B550B15
:10323000C858DD4F288339834A835B83C857D240FF
:1032400044E6C858DD4F688179818A819B81C857DF
:10325000D2400E94E0048DE397E00E94D204E6E6AB
:10326000F1E0EC0FFD1FEE0DFF1D80818111F8C014
:1032700089E397E00E94D2048D2D63E092D79230CB
:1032800009F006C186E397E00E94D204D39452E38A
:10329000D512BFCF8AE297E00E94D2049FBE602F72
:1032A0006870A62E03FFF7C0F8942A9A88E19EE082
:1032B0000FB6F894A895809360000FBE90936000BD
:1032C0000E942706FFCF22E0E22E0E94D2040E9435
:1032D000F105B82E8823D9F30E94C10420EDB20E67
:1032E0000E94F105F82E8823D9F30E94C104BD9CE9
:1032F000F00C112430EDF30E86EA97E00E94D20420
:10330000FF20D1F14F2D50E070E060E0C858DD4F54
:10331000488359836A837B83C857D24052E085E053
:1033200090E0A0E0B0E0E51621F083E390E0A0E0BB
:10333000B0E0C858DD4F488059806A807B80C8570C
:10334000D240481659066A067B06B0F444E6C3012B
:10335000B2010E94E004E5E1F2E0EC0FFD1FEE0D8A
:10336000F11DF0828AEA97E055245394E51409F49C
:10337000AACFFF24F394EACD83E997E00E94D20418
:10338000E4CD1F7BF22C09CE8091C60006CE8CE8DE
:1033900096E00E94D204B9E0BB1520F08AE896E0DE
:1033A0000E94D2048B2D90E0B0E0A0E044E6C85823
:1033B000DD4F88839983AA83BB83C857D240BC0161
:1033C000CD010E94E00449CE672DEBD6A92E282F0F
:1033D00030E050E040E0C858DD4F288339834A830D
:1033E0005B83C857D24042E0C858DD4F688179817D
:1033F0008A819B81C857D2400E947A0580E896E076
:103400000E94D2044A2D50E070E060E0C858DD4FC1
:10341000488359836A837B83C857D24044E6C8589F
:10342000DD4F688179818A819B81C857D2400E9493
:10343000E00420CE8BE796E00E94D20427CE83E7FB
:1034400096E0B11002C08EE696E00E94D2043FCE14
:103450008DE596E00E94D2048BCE88E596E091CE71
:10346000482F50E070E060E0C858DD4F4883598332
:103470006A837B83C857D24043E0C858DD4F6881D8
:1034800079818A819B81C857D2400E947A05F4CE07
:103490008EE297E0F9CE04FF07C0F8942A9A8BE5F4
:1034A00097E00E94D204409805FD0AC016FF7BC039
:1034B000CB5EDD4F8881C551D240893609F073C09B
:1034C000FFB6F8940F7D80E090E8282F30E0E6E624
:1034D000F1E0EC0FFD1FE20FF31F108277E0729F07
:1034E000F001739FF00D1124A1E0B0E0AC0FBD1FFF
:1034F000EA0FFB1F1082118212829383958316823A
:103500008F5F823311F781E0C556DD4FE881F98185
:10351000CB59D2408083CB57DD4FA881B981C558A4
:10352000D2403C9285E00E94F8074BE0489F900112
:10353000499F300D112420583F4FC356DD4FE8817D
:10354000F981CD59D2403083C458DD4F4880CC57E3
:10355000D2408EE641108AE6CB57DD4FA881B98173
:10356000C558D24012968C931297CC57DD4F4880A5
:10357000C458D24013964C92139715961C9260E053
:1035800080E099E20E9451068695CB57DD4FA881D5
:10359000B981C558D24016968C93FFBEC057DD4FF7
:1035A0001882C059D240211017C080913B02B82F19
:1035B000B2702B2E81FF10C08091390290913A0297
:1035C00022242394CE56DD4F48805980C259D240E0
:1035D0004816590608F0212C16FF3EC02220E1F1C2
:1035E0009FB6F8941F7BCB5EDD4F8881C551D240DA
:1035F0008356B12CE12C883148F490E0FC01EF5B5C
:10360000FE4FE080875D9E4FDC01BC90CE2CD12C1C
:10361000E5E1F2E0EC0FFD1FEC0DFD1DB082118223
:10362000CB5EDD4F8881C551D240863609F0F3C1AB
:10363000C458DD4F4880CC57D2404110ECC1809136
:103640003B028D7F80933B0210923A021092390226
:103650000E9497069FBE212C12FF54C0FFB6F8941B
:103660001B7FC458DD4F5880CC57D240552009F4F9
:1036700046C0C957DD4F688079808A809B80C758D3
:10368000D2406114710481049104C9F110610E9457
:10369000DE068091350290913602A0913702B091FA
:1036A000380286299729A829B929AC01BD01E4E08F
:1036B000440F551F661F771FEA95D1F72A013B017A
:1036C000482A592A6A2A7B2AC858DD4F48825982DB
:1036D0006A827B82C857D240429AC858DD4F6881BF
:1036E00079818A819B81C857D2400E9433064092DB
:1036F00035025092360260923702709238020E9470
:103700009706FFBE14FF62C080913402882309F43B
:103710005DC0EFB6F8941092340213FBFF24F0F86A
:1037200020E080E090E0DC0141E050E060E070E00B
:103730004090350250903602609037027090380207
:10374000442255226622772245284628472889F0B8
:10375000E4E6F2E0EC0FFD1FE20FF11D30813F5F68
:10376000CE57DD4F5880C258D240531608F45FC17F
:103770003083440F551F661F771F2F5F2430C1F61B
:10378000F0FA13F9AC01BD0124E0440F551F661F88
:10379000771F2A95D1F7842B952BA62BB72B409119
:1037A00035025091360260913702709138023C0127
:1037B0004D016426752686269726C457DD4F6882FC
:1037C00079828A829B82CC58D240EFBE13FF28C0F8
:1037D000FFB6F894177FC457DD4F688179818A81DD
:1037E0009B81CC58D2400E943306C457DD4F48809D
:1037F00059806A807B80CC58D240409235025092EA
:1038000036026092370270923802452846284728CF
:1038100031F442981F7E0E94E3060E94EC06FFBE30
:10382000FFB6F8940E94C70691E017FD03C08130EF
:1038300009F090E090FB17F9823049F48091410241
:103840009091420201969093420280934102FFBE02
:1038500017FF89C1DFB6F8941F770E94E80660E081
:103860008FEF9FE60E945106882309F4E8C060E0CC
:103870008FEF94E20E945106B82E0E947106439881
:1038800080E00E943E068FEF0E943E06893208F0DB
:10389000F1C0CD53DE4F8883C35CD140FF24F39445
:1038A000F6C0282F30E063EC71E06C0F7D1F620FD3
:1038B000731F45E1642E42E0742E6C0E7D1E260DB2
:1038C000371DD9019C91DB0111969C938F5F53C0EA
:1038D000E3ECF1E0EC0FFD1FEF0DF11D80810E9484
:1038E0003E06F3946EC060E080E098E20E945106CC
:1038F0008970F82ED301C2012C013D0131E0431A39
:10390000510861087108892B8A2B8B2B09F47EC022
:10391000FF2049F30E947106F0FAFF24F0F84528D1
:103920004628472811F4FF24F394D6018C91815046
:103930008C93882321F0E0E0F6E33197F1F7F11062
:1039400001C05F98BA94BB2009F479CE0E94EA06C0
:103950000E94710661E080E198E20E945106EE2D1E
:1039600057E2552E5E1408F4E7E2CD53DE4FE883AC
:10397000C35CD14080E08E1708F493CF93EC492EBE
:10398000552453944C0E5D1E4E0E511CF2011182B3
:103990004398CD53DE4F8881C35CD140893228F0F3
:1039A000CD53DE4F8882C35CD14080E80E943E0642
:1039B000CD53DE4F7880C35CD140872D0E943E06F8
:1039C000F22C7F1408F084CF439A0E94650661E0D0
:1039D0008CE091E00E9451068DE1482E80E6582E41
:1039E00084E5682E712C21E0421A510861087108A3
:1039F00039F060E08FEF97E20E94510687FFF3CF26
:103A0000F12C84E295E1A0E0B0E076CF44244A9422
:103A1000542C32017FCFE394F8E28F2EA5E14A2E99
:103A2000A2E05A2E4C0E5D1EC40CD51C8CCF842BEC
:103A3000952BA62BB72B1082FF24F3949ACE61E02E
:103A400081E093E20E945106BDE14B2EB0E65B2E71
:103A5000B4E56B2E712C21E0421A510861087108FF
:103A600009F405CF60E08FEF93E20E94510681FFD9
:103A7000F2CFFDCE88E20DCF8FEF0E943E06E3EC41
:103A8000F1E0EC0FFD1FEF0DF11D8083F394CD539A
:103A9000DE4F8881C35CD1408F1570F7439ACD53B8
:103AA000DE4FC880C35CD14037E23C1510F4A7E27A
:103AB000CA2EAC14E0F0EC2CF12CECEEF1E0EC0FA3
:103AC000FD1FEE0DFF1D108261E080E198E20E9473
:103AD00051065D98C451DE4FE881CC5ED140E3567B
:103AE000E23108F03DC0F0E0ED58FE4DA4C38A2D50
:103AF00090E0ECEEF1E0EC0FFD1FE80FF91F43EC56
:103B000051E04C0F5D1F840F951FDC0111968C91C5
:103B10008083A394CECFFE01EE0DFF1DE551FE4F35
:103B20008081815009F053C0A7014250510957FFCD
:103B300002C04F5F5F4F5595479512FB992790F94B
:103B4000C957DD4F188219821A821B82C758D2408A
:103B5000282F30E0241735070CF442C090FB12F9EF
:103B60000E949706DFBE80914302882311F40C94D3
:103B7000960EFFB6F8940E94440684749170892BC7
:103B800019F560E080E099E20E94510690914302AD
:103B900019160CF0E5C2873908F4E2C2909143028D
:103BA000282F30E0291B310997FD3395273931053E
:103BB0000CF4E0C290914302891B90E061E09962AD
:103BC0000E94510610924302FFBE0C94960EB2E181
:103BD000E8EFF0E0B150E040F040E1F700C0A1CFE5
:103BE000C458DD4F4880CC57D2404420E1F1220F29
:103BF000331FECEEF1E0EC0FFD1FE20FF31F21810C
:103C0000231131C0E281E150E43068F524E0E29F05
:103C1000D00111246EE372E06C0F7D1FA60FB71F59
:103C20008D909D90AD90BC90C957DD4F48805980D4
:103C30006A807B80C758D240482859286A287B2848
:103C4000C957DD4F488259826A827B82C758D24069
:103C500074E6672E72E0772E6C0E7D1E6E0E711C60
:103C6000F301108291E08F5F73CFECEEF1E0EC0F87
:103C7000FD1FEC0DF11D31978081815069F4CF5605
:103C8000DD4F8881C159D2400E945D08CC57DD4F7D
:103C90008883C458D24064CF22E138EF40E02150FD
:103CA00030404040E1F700C0E8CFECEEF1E0EC0F2F
:103CB000FD1FEC0DF11D3197808122242A94280EDE
:103CC000211068C080E7CB5EDD4F8883C551D240AC
:103CD000C058DD4F4880C058D240CA5EDD4F488290
:103CE000C651D240C95EDD4F3882C751D24085E00F
:103CF0000E94F8074BE0489F9001499F300D112426
:103D000020583F4FC85EDD4F3883C851D240C45859
:103D1000DD4F5880CC57D240C75EDD4F5882C95125
:103D2000D240CC57DD4F6880C458D240C65EDD4FCC
:103D30006882CA51D24084E0C55EDD4F8883CB5192
:103D4000D240B694C45EDD4FB882CC51D24060E020
:103D500080E099E20E9451068695C35EDD4F88831C
:103D6000CD51D24082E086BB109285001092840033
:103D700080913B02826080933B0210923A02109243
:103D800039021064006220E7CF57DD4F2883C15805
:103D9000D240E6CE52E168EF70E051506040704092
:103DA000E1F700C02A948CCFECEEF1E0EC0FFD1FA0
:103DB000EC0DF11D31978081815061F5C351DE4FCB
:103DC0008881CD5ED1408534C9F08823B9F0C058D0
:103DD000DD4F4880C058D240841581F08150282F93
:103DE00030E0E1E0F0E0EC0FFD1F67E0562E589E5A
:103DF000E00DF11D112480818823A9F0C057DD4F0B
:103E00002881C059D2402F5FC057DD4F2883C05949
:103E1000D240A6CE32E148EF50E031504040504011
:103E2000E1F700C0C9CFC251DE4F8881CE5ED140DC
:103E30008083C151DE4F8881CF5ED1408183C051E4
:103E4000DE4F8881C05FD140811127C08EE647E0F8
:103E5000429FF001439FF00D112461E070E06C0F70
:103E60007D1FE60FF71F8283CF50DE4F8881C15F31
:103E7000D1408383CE50DE4F8881C25FD14084839E
:103E8000CD50DE4F8881C35FD1408583CC50DE4F5B
:103E90008881C45FD140868363CE8AE6D8CFECEEBA
:103EA000F1E0EC0FFD1FEC0DF11D31978081815089
:103EB000B9F5C458DD4F4880CC57D240411050CEA0
:103EC000C351DE4F8881CD5ED140C058DD4F588050
:103ED000C058D240851144CEC251DE4F8881CE5E9B
:103EE000D14083113DCEC151DE4F8881CF5ED1409C
:103EF0009FEF980F923308F033CEC051DE4F6881A8
:103F0000C05FD1409FEF960F923308F029CE851104
:103F100003C0631509F424CE0E941007086020CE68
:103F200072E198EFA0E071509040A040E1F700C02E
:103F3000BECFECEEF1E0EC0FFD1FEC0DF11D319763
:103F40008081815031F5C351DE4F8881CD5ED140F3
:103F5000C058DD4F4880C058D240841101CE026065
:103F6000106482E086BB10928500109284008091DC
:103F70003B02826080933B02CC56DD4F68807980A3
:103F8000C459D24070923A0260923902212C2AE739
:103F9000FBCE22E138EF40E0215030404040E1F7D5
:103FA00000C0CFCFECEEF1E0EC0FFD1FEC0DF11DEA
:103FB00031978081815059F4C351DE4F8881CD5EA5
:103FC000D14090E061E099620E945106C9CD32E192
:103FD00048EF50E0315040405040E1F700C0EACF98
:103FE000ECEEF1E0EC0FFD1FEC0DF11D319780813F
:103FF000815009F0A7C0C351DE4F8881CD5ED1400A
:10400000C058DD4F4880C058D240841519F08F3F0A
:1040100009F0A6CD90E021E02223C9F0292F30E05D
:10402000ECEEF1E0EC0FFD1FE20FF31F428158E6CA
:10403000652E52E0752E6C0E7D1E260D371DD901A2
:104040008C91841709F487C081E04A3A09F080E036
:10405000282F9F5F933001F7882309F481CD0E94B8
:104060007106CF50DE4FC880C15FD1408C2D90E0EB
:1040700061E097600E945106CE50DE4FE880C25F3B
:10408000D1408E2D90E061E098600E945106CD50A5
:10409000DE4FF880C35FD1408F2D90E061E09960E2
:1040A0000E9451060E949706C859DD4FC882C85623
:1040B000D240C759DD4FE882C956D240C659DD4FBC
:1040C000F882CA56D24010648EE6CB5EDD4F8883FC
:1040D000C551D240C058DD4F4880C058D240CA5E5A
:1040E000DD4F4882C651D240C95EDD4FC882C751FC
:1040F000D240C85EDD4FE882C851D240C75EDD4F76
:10410000F882C951D24082E086BB1092850010929D
:10411000840080913B02826080933B02C351DE4F5A
:104120008881CD5ED1408F3FC1F0CC56DD4F888174
:104130009981C459D24090933A0280933902212C3C
:104140002EE622CE62E178EF90E061507040904020
:10415000E1F700C04DCF81E07BCF90E080E0EBCF76
:10416000909143029F3F09F028CD8F3F09F425CD60
:104170008F5F23CD86E921CDEE2011F40C94A50F9D
:104180000C945F12DB018F939F935BD0BF91AF9133
:10419000A29F800D911DA39F900DB29F900D1124A1
:1041A0000895991B79E004C0991F961708F0961B93
:1041B000881F7A95C9F780950895A1E21A2EAA1B47
:1041C000BB1BFD010DC0AA1FBB1FEE1FFF1FA217C7
:1041D000B307E407F50720F0A21BB30BE40BF50BC4
:1041E000661F771F881F991F1A9469F7609570954D
:1041F000809590959B01AC01BD01CF010895052EDE
:1042000097FB16F400940FD057FD05D0D6DF07FCBE
:1042100002D046F408C050954095309521953F4F07
:104220004F4F5F4F089590958095709561957F4FA2
:104230008F4F9F4F0895EE0FFF1F0590F491E02DD3
:10424000099440D0A59F900DB49F900DA49F800D20
:10425000911D112408952F923F924F925F926F9279
:104260007F928F929F92AF92BF92CF92DF92EF9206
:10427000FF920F931F93CF93DF93CDB7DEB7CA1B87
:10428000DB0B0FB6F894DEBF0FBECDBF09942A88B2
:10429000398848885F846E847D848C849B84AA845A
:1042A000B984C884DF80EE80FD800C811B81AA81E7
:1042B000B981CE0FD11D0FB6F894DEBF0FBECDBFB2
:1042C000ED010895A29FB001B39FC001A39F700D9F
:1042D000811D1124911DB29F700D811D1124911D0E
:1042E0000895F894FFCF4F1FB01DB01D8B1DB01D5A
:1042F000F01F551EB01DB01DB01D991FB01DB01D83
:0A430000D41EB01DD21FB01D351EE3
:10430A00000000290029002900480DD007E803F41D
:10431A0001FA007D0064003E00320028001F0019E7
:10432A000014000F000C000A000300000300000341
:10433A00000000020200020000000200000000006B
:10434A000205000003000003000000030500090045
:10435A00000004000000000007636F6E66007265CB
:10436A006D6F746500636C6561726C697374007358
:10437A00656E640066697265006964656E740074CE
:10438A00656D7000696D7000636C73006B696C6CAD
:10439A000073687574646F776E006877006861727D
:1043AA0064776172650069676E6974657200726626
:1043BA006D000A0D4B6F6D6D616E646F202831368A
:1043CA002D4269742D4865782D466F726D61742C83
:1043DA00204D5342207A752031207365747A656EB8
:1043EA002066C3BC7220536368726569627A756716
:1043FA0072696666293A203078000A0A0D006165FA
:10440A00736B6579005AC3BC6E64626F78204D691C
:10441A006E69207631202D2000204B616EC3A46C7A
:10442A0065005AC3BC6E64626F78000804100032DB
:04443A00641E0000FC
:00000001FF
