:100000000C94FE020C941B030C941B030C941B0316
:100010000C94200A0C941B030C941B030C941B03DC
:100020000C941B030C941B030C941B030C941B03D8
:100030000C941B030C94770A0C941B030C941B0365
:100040000C942F0A0C941B030C941B030C941B039D
:100050000C941B030C941B030C941B030C941B03A8
:100060000C941B030C941B030A0D001B5B314420F2
:100070001B5B3144000A0D44657669636520697332
:1000800074205472616E736D69747465722C2049AA
:100090004473206E6963687420E46E646572626103
:1000A00072210A0A0D000A0D4B65696E6520C46E47
:1000B000646572756E6720766F7267656E6F6D6DC1
:1000C000656E0A0A0D000A0D4E65757374617274CF
:1000D0002E2E2E0A0A0D004665686C65722120429C
:1000E000697474652065726E6575742076657273C7
:1000F000756368656E210A0D000A0A0DC46E646599
:1001000072756E67206572666F6C67726569636889
:10011000210A0D001B5B33376D001B5B33316D0013
:100120000A0D4E65756520536C6176652D49442036
:100130002830312D33302C20454E544552203D205F
:10014000616C7465722057657274293A2020001B17
:100150005B33376D001B5B33316D004E6575652079
:10016000556E697175652D4944202830312D333025
:100170002C20454E544552203D20616C7465722000
:1001800057657274293A20000A0D000A0D002849AB
:1001900029447320E46E6465726E2C2041626272A1
:1001A000756368206D69742062656C696562696752
:1001B000657220616E646572657220546173746546
:1001C0002120000A0A0A0D001B5B33376D000A0D5F
:1001D000004645484C4552001B5B33316D00416B76
:1001E0007475656C6C6520536C6176652D49443A75
:1001F0002020001B5B33376D000A0D004645484C3C
:100200004552001B5B33316D000A0A0D416B74755A
:10021000656C6C6520556E697175652D49443A2091
:10022000000A0D416E67657363686C6F7373656E6A
:100230006573204465766963653A20001B5B33373C
:100240006D001B5B33376D000A0D4665686C657287
:10025000206265696D2049442D4C6164656E0A0D0C
:10026000001B5B33316D000A4B6F6E6669677572F8
:100270006174696F6E7370726F6772616D6D0A0D74
:100280003D3D3D3D3D3D3D3D3D3D3D3D3D3D3D3D9E
:100290003D3D3D3D3D3D0A0D001B5B33336D004947
:1002A000442D5765636873656C206D6974206A20FE
:1002B00062657374E4746967656E2C2061626272B2
:1002C000656368656E206D697420616E6465726532
:1002D000722054617374652120000A0A0D004E6576
:1002E000756520536C6176652D49443A20202020A5
:1002F000202020000A0D004E65756520556E69713D
:1003000075652D49443A202020202020000A0D0048
:100310000A0D0042697368657269676520536C61F4
:1003200076652D49443A2020000A0D004269736821
:10033000657269676520556E697175652D49443A26
:1003400020001B5B33376D000A0A52656D6F7465C0
:100350002D4B6F6E66696775726174696F6E73702D
:10036000726F6772616D6D0A0D3D3D3D3D3D3D3DD6
:100370003D3D3D3D3D3D3D3D3D3D3D3D3D3D3D3DAD
:100380003D3D3D3D3D3D0A0D001B5B33336D000A95
:100390000D001B5B33376D000A0D4665686C657296
:1003A00068616674652F646F7070656C7465204950
:1003B00044733A20001B5B33316D0009000A0D00C5
:1003C0002D2D2D2D002D00202D002C20002D2D2D2C
:1003D0002D006E2E612E002C20002D002C20002ED2
:1003E000002D2D2D2D002C2000300020002D2D2D36
:1003F000003A200030000A0D556E697175652D496F
:10040000443A20536C6176652D49442C2042617436
:1004100074657269657370616E6E756E67202856BB
:10042000292C205363686172663F2C2054656D70DF
:100430006572617475722028B043292C2052535381
:1004400049202864426D290A0D001B5B33376D007B
:100450003D3D3D3D3D3D3D3D3D3D3D3D3D3D3D0AFF
:100460000D000A0D53797374656DFC6265727369D2
:100470006368740A0D001B5B33336D000A0A0D00BC
:1004800009200920092009000A0D002D2D2D003A10
:1004900020000A0D536C6176652D49443A20416E67
:1004A0007A61686C20426F78656E0A0D000A0A0D49
:1004B00000B043006E2E612E0054656D7065726150
:1004C0007475723A2000556E67FC6C74696765201C
:1004D00045696E6761626500203D20000A0D4B6131
:1004E0006E616C3A202009000A0D536C6176652D0F
:1004F00049443A09000A0D4D6F64757328662F69E7
:100500002F74293A20000A0A0D000A0D49442D4B88
:100510006F6E66696775726174696F6E7362656626
:1005200065686C207769726420676573656E6465C1
:1005300074210A0D000A0D494473207765726465C1
:100540006E206C6F6B616C20616E67657061737398
:1005500074210A0D000A0A0D000A0D52464D006171
:10056000746D65676133323870000A0D000A0D0042
:100570000A0D000A0A0D4C65747A74656E20426596
:100580006665686C20776965646572686F6C742055
:1005900073656E64656E204155530A0D000A0A0D9D
:1005A0004C65747A74656E2042656665686C207768
:1005B0006965646572686F6C742073656E64656EDE
:1005C0002045494E0A0D001B5B31440020001B5B97
:1005D0003144001B5D303B454C204655455241445B
:1005E0004F524F07001B5B334A001B5B303B3048C8
:1005F000001B5B324A002D003000200011241FBE7A
:10060000CFEFD8E0DEBFCDBF12E0A0E0B1E0E4E084
:10061000FAE302C005900D92AC33B107D9F712E0AE
:10062000ACE3B2E001C01D92A234B107E1F70E9431
:10063000880A0C94001D0C940000F999FECF72BD3D
:1006400061BD80BDFA9AF99A12BC11BC0895F9995E
:10065000FECF92BD81BDF89A80B512BC11BC089541
:10066000219A90E19A95F1F700C0811121989EE2BC
:100670009A95F1F7199B80E096E89A95F1F700C0FA
:1006800021980895CF93DF93C82FD8E08C2F8170E5
:100690000E943003C6958111C068D150B9F78C2FE4
:1006A000DF91CF9108955D9A5F9A5E9A289A089596
:1006B0005D985F985E98289808955F98089543988C
:1006C00042984198409808951F93CF93DF931F92CB
:1006D000CDB7DEB7339902C090E001C090E1329906
:1006E00002C080E001C080E2982B319902C080E016
:1006F00001C080E4982B309902C080E001C080E8FE
:10070000192F182B439A429A419A409A3B983A984B
:10071000399838985C98459A80E887FF39C0449AA0
:1007200000000000339902C090E001C090E13299CE
:1007300002C080E001C080E2319902C050E001C0F7
:1007400050E4309902C040E001C040E84498000005
:100750000000449A0000000026B123FB222720F964
:10076000922B892B852B842B329902C030E001C05B
:1007700032E0832B319902C020E001C024E0822BBB
:10078000309902C090E001C098E0892B4498C5CF11
:1007900045983B9A3A9A399A389A89830E945F031E
:1007A000898114FD439A15FD429A16FD419A17FD61
:1007B000409A0F90DF91CF911F910895449A00C005
:1007C00000C044980895CF93C82F0E945F03C4FDD2
:1007D000439AC5FD429AC6FD419AC7FD409A0E94C0
:1007E000DE030E945F03C0FD439AC1FD429AC2FD31
:1007F000419AC3FD409ACF910C94DE03853008F0F6
:1008000081E0653108F061E0982F90959170282F74
:1008100030E0215031093595279545985C98892F0E
:100820008295880F880F807C815894E1299F800DE4
:100830001124860F0E94E3030C946403CF93DF938B
:100840001F92CDB7DEB74598611124C05C986983CB
:100850000E94E3030E94640369816623E9F00E9419
:100860006403803481F028F48431B1F461E082E0E3
:100870000CC0843529F0883679F461E081E005C048
:1008800061E083E002C061E084E00F90DF91CF91EE
:100890000C94FE035C9ADBCF0F90DF91CF9108950B
:1008A000CF93DF93EC018991882321F061E00E94CE
:1008B0001E04F9CFDF91CF910895862798E02CE8A8
:1008C000382F31708695311182279150C9F70895DC
:1008D000962728E0AC01880F991F57FF04C031E22A
:1008E000832730E193272150A9F70895CF92DF9213
:1008F000EF92FF920F931F93CF93DF93082F162F42
:10090000C82EC60E682F80E10E945D04F82E612F6C
:1009100080E10E945D04D82E612F8F2D0E945D041E
:10092000E82EC8E1D0E0BE01802F0E941D03BE0169
:100930006F5F7F4F812F0E941D03BE016E5F7F4F4F
:100940008C2D0E941D03BE016D5F7F4F8F2D0E9475
:100950001D03BE016C5F7F4F8D2D0E941D03BE01E4
:100960006B5F7F4F8E2D0E941D03A496C438D10566
:10097000D1F6DF91CF911F910F91FF90EF90DF9013
:10098000CF9008957F928F929F92AF92BF92CF9215
:10099000DF92EF92FF920F931F93CF93DF93082F75
:1009A000162FC8E1D0E0E82EE60ECE010E94270304
:1009B000782ECE0101960E942703882ECE01029642
:1009C0000E942703982ECE0103960E942703A82E8B
:1009D000CE0104960E942703B82ECE0105960E94F0
:1009E0002703D82E602F80E10E945D04F82E612F2E
:1009F00080E10E945D04C82E612F8F2D0E945D044E
:100A000070120AC0811208C09E1006C0AF1004C048
:100A1000BC1002C0D81631F0A496C438D10529F60E
:100A200080E001C081E0DF91CF911F910F91FF9095
:100A3000EF90DF90CF90BF90AF909F908F907F907E
:100A40000895AF92BF92CF92DF92EF92FF920F93F1
:100A50001F93CF93DF936C015B01C8E1D0E0E12CE1
:100A6000CE010E942703182FCE0101960E94270372
:100A7000082F682F812F0E94C204F82E8823B9F115
:100A800088E190E00E942703C82F8CE390E00E9449
:100A90002703C81729F188E190E00E942703C82F97
:100AA00080E690E00E942703C8131AC089E190E015
:100AB0000E942703C82F8DE390E00E942703C813EC
:100AC0000FC089E190E00E942703C82F81E690E0E3
:100AD0000E942703C81304C0602F812F0E94760450
:100AE000F6011083F5010083FF24F39416C0F2E0B1
:100AF000EF120DC0602F812F0E94C204811107C028
:100B000085E4F601808385E6F501808306C0E394E1
:100B1000A496C438D10509F0A3CF8F2DDF91CF91D2
:100B20001F910F91FF90EF90DF90CF90BF90AF900B
:100B3000089580B7806880BF80917C008564809331
:100B40007C0080917A00866080937A0080917A00A0
:100B5000806880937A0080917A00806480937A0024
:100B600080917A0086FDFCCF809178009091790089
:100B70002FEF8FE797E0215080409040E1F700C0D1
:100B8000000028E080E090E030917A0030643093FB
:100B90007A0030917A0036FDFCCF40917800509178
:100BA0007900840F951F215079F780389C40D8F444
:100BB00080917C00806880937C008FEF9FE727E026
:100BC000815090402040E1F700C0000080917A0001
:100BD000806480937A0080917A0086FDFCCF8091BA
:100BE0007800909179000895219A8CEC94E0019717
:100BF000F1F700C00000219898ED9A95F1F70000F8
:100C000093B1892F827091FD06C0EAE2F4E031973A
:100C1000F1F700C0089581E00895CF938F3609F071
:100C20005FC00E94F4058CEC0E9442038EE40E9497
:100C300042038DE70E94420388ED0E9442038FE148
:100C40000E9442030E94F4058CEC0E94420384E45B
:100C50000E94420381E00E9430038823D9F30E945E
:100C6000F4058CEC0E9442038EEB0E9442038FEF4E
:100C70000E944203C82F8FEF0E944203282F30E0CA
:100C8000322F2227C9018C0F911D9C012227387F0A
:100C9000232B41F541E050E09C012C5F3F4F880F32
:100CA000991F880F991F280F391F73E036952795D4
:100CB0007A95E1F7249FB001259F700D349F700D48
:100CC000112477FD03C085E090E002C08BEF9FEF19
:100CD000860F971F6AE070E00E94971C862F08C05D
:100CE00080E806C09195819591094FEF5FEFD4CFD1
:100CF000CF91089580917C00887F80937C008091C3
:100D00007C00856080937C0090917C009095991F79
:100D10009927991F8BE0891B982F40E050E0BA017A
:100D200080917A00806480937A0080917A0086FDB9
:100D3000FCCF2091780030917900420F531F611D44
:100D4000711D915069F7DB01CA018096A11DB11D8B
:100D500026E0B695A795979587952A95D1F708959A
:100D600035B516BC81E085BB80EA86BD85E085BDD2
:100D700080E095E541E050EA2FEF290F2E3F68F41F
:100D8000990F21E0349B20E0922BA89BFECF45BB1E
:100D900056BD883088F78F5FEFCF883088F335BD38
:100DA00081E0911180E008959FEB980F9A3130F027
:100DB000843C21F0863D11F08C3D09F48062089559
:100DC000CF93DF93FC01DF01EB018991BE01882302
:100DD00029F031969C919817B1F303C081E090817E
:100DE000911180E0DF91CF910895282F40E050E0ED
:100DF00066E970E099B1892F887093FF06C0415071
:100E0000510961097109B1F714C0452B462B472BD5
:100E100081F040E050E066E970E09091C00095FDFF
:100E200005C04150510961097109B9F72093C60005
:100E3000089581E00895CF93DF93EC01FE01849142
:100E4000882329F00E94F50621968823B9F3DF91C3
:100E5000CF9108954F925F926F927F928F929F925F
:100E6000AF92BF92CF92DF92EF92FF920F931F93B8
:100E7000CF93DF93CDB7DEB7A1970FB6F894DEBF5F
:100E80000FBECDBF6B017C01FE01319681E2DF0117
:100E90001D928A95E9F7483449F018F4423441F03C
:100EA00073C0423629F0483609F06EC080E052C067
:100EB00081E090E0A0E0B0E08C159D05AE05BF0597
:100EC00028F4880F991FAA1FBB1FF6CF8038910501
:100ED000A105B10558F081159048A105B10560F054
:100EE000812C912CA12C50E8B52E0BC040E8842E0B
:100EF000912CA12CB12C05C0812C30E8932EA12C73
:100F0000B12CD501C4018C219D21AE21BF21892B9B
:100F10008A2B8B2B11F480E301C081E30E94F5063C
:100F2000B694A7949794879481149104A104B10472
:100F300041F77FC0811114C0DF01A80FB11D9C2DA6
:100F40009F709C9394E0F594E794D794C7949A95F6
:100F5000D1F78F5FC114D104E104F10469F7EACF3E
:100F6000F82E80FF0CC0F3940AC0FE01EF0DF11DB6
:100F700080818A3038F0895C0E94F506FA94F1107D
:100F8000F4CF57C0805DF8CFC114D104E104F1045F
:100F9000D1F488EF95E0A1960FB6F894DEBF0FBEAE
:100FA000CDBFDF91CF911F910F91FF90EF90DF9018
:100FB000CF90BF90AF909F908F907F906F905F90F9
:100FC0004F900C941B07F7FE0AC0F094E094D09465
:100FD000C094C11CD11CE11CF11C01E001C000E067
:100FE0005F0110E08AE0482E512C612C712C1F5FAC
:100FF000C701B601A30192010E94AB1CD5016D93FC
:101000005D0169017A01C114D104E104F10411F018
:10101000113269F7002321F086EF95E00E941B074B
:10102000FE01E10FF11D8081805D0E94F5061150E7
:10103000B9F7A1960FB6F894DEBF0FBECDBFDF9112
:10104000CF911F910F91FF90EF90DF90CF90BF90C5
:10105000AF909F908F907F906F905F904F9008958A
:101060008F929F92AF92BF92CF92DF92EF92FF92B8
:10107000CF93DF936B017C01C42FD0E02AE0822E56
:10108000912CA12CB12C611571058105910541F0C0
:10109000A50194010E94AB1CCA01B901DF5FF3CF27
:1010A000F7FE02C0C111C150CD1778F444E6C70164
:1010B000B601DF91CF91FF90EF90DF90CF90BF907E
:1010C000AF909F908F900C942A07CD1BCC2371F387
:1010D0008AEF95E00E941B07C150F8CFCF93DF93B2
:1010E000EC0190E08991882331F0911104C00E94B5
:1010F000F506982FF7CFDF91CF91089580E090E02B
:10110000A6E9B0E02091C00027FD05C00197A10924
:10111000B109C1F709C0892B8A2B8B2B29F05A9A68
:101120008091C6005A98089580E0089581E086BBBA
:1011300010928500109284000895E1E8F0E080812B
:10114000887F80830895E1E8F0E080818260808379
:101150000895CF93DF93C3E680ED8C0F843050F079
:101160000E947E08C82F8A3011F48FEF1EC08D3088
:1011700099F7FBCF8C2F0E94F506CC0F84E0C89F17
:10118000C00D1124C051D0E083E69FEF9D0F9E312A
:1011900048F00E947E088A3041F38D3031F3D82F19
:1011A000DC0FF3CF0E94F5068D2FDF91CF910895CC
:1011B00081EF95E00E941B078AEE95E00E941B07D5
:1011C00085EE95E00E941B0783ED95E00C941B07CC
:1011D000BC0140984398429890E120E030E848E014
:1011E000F901E623F723EF2B09F0409A46B946B9F7
:1011F000409836952795915099F784E086B986B93D
:101200000895419A389A399A3A9A3B9A4098429866
:10121000439893E028E034E084E126B926B9815070
:10122000E1F736B936B99150B9F789E999E00197F4
:10123000F1F700C0419808952B9800C02A9800C08B
:1012400083B12A9A8295817008952D982B982A98B7
:101250009EBD0DB407FEFDCF9EB58EBD0DB407FE3D
:10126000FDCF8EB52D982B982A9A089580E090E0B6
:101270000C942509CF92DF92EF92FF92CF93C82F63
:10128000C12C80EBD82E84E0E82EF12C0E941C09A2
:1012900081110BC081E0C81AD108E108F1088FEF75
:1012A000C816D806E806F80689F78C2F90E09854FF
:1012B0000E94250981E0CD28CE28CF2809F080E0C2
:1012C000CF91FF90EF90DF90CF900895AF92BF92B3
:1012D000CF92DF92EF92FF920F931F93CF93DF9302
:1012E000D82EB92ED62F89E092E80E94250900C099
:1012F0000E94360989E392E80E94250900C08AEA23
:101300000E943A09C82F8AEA0E943A09C80F8AEA5D
:101310000E943A09C80F8AEA0E943A09C80F8DE272
:101320000E943A09C80F84ED0E943A09C80F8D2F18
:101330000E943A09C80F6D2F8FE09DE10E9468045A
:101340008C01DF3108F0DEE1CD2CED2CFB2C8E2D55
:101350008C198D1770F45701F70181917F010E945C
:101360003A09C80FF5016081C8010E9468048C0128
:10137000EECF00951095812F0E943A09C80F802F5B
:101380000E943A09C80F8AEA0E943A09C80F8AEAFD
:101390000E943A09C80F89E092E80E94250900C01E
:1013A0000E94360981E0C11101C080E0DF91CF9138
:1013B0001F910F91FF90EF90DF90CF90BF90AF9073
:1013C0000895CF92DF92EF92FF92CF93DF93EC01DB
:1013D000C12C80EBD82E84E0E82EF12C0E941C0951
:1013E00081110CC081E0C81AD108E108F1088FEF23
:1013F000C816D806E806F80689F707C0CD28CE2813
:10140000CF2819F498819F5F988380E090EB0E9429
:101410002509DF91CF91FF90EF90DF90CF90089555
:1014200089ED92E80E94250981E89AEC0E9425093D
:1014300000C000C083E89AEC0E94250980E008956E
:101440001F920F920FB60F9211248F9381E0809319
:1014500041028F910F900FBE0F901F9018951F9211
:101460000F920FB60F9211242F938F939F93809119
:101470004002882329F0809140028F5F80934002D0
:1014800080913F02882329F080913F028F5F8093F3
:101490003F0280913D0290913E02892B49F080915C
:1014A0003D0290913E02019690933E0280933D0250
:1014B000809140028E3F10F01092400280913F02D6
:1014C0008E3F10F010923F0280913D0290913E02BB
:1014D0008131974220F010923E0210923D029F917E
:1014E0008F912F910F900FBE0F901F9018951F9204
:1014F0000F920FB60F9211248F9380913C028F5F51
:1015000080933C028F910F900FBE0F901F90189503
:10151000CF93DF93CDB7DEB7C358D1400FB6F89461
:10152000DEBF0FBECDBF88E10FB6F8948093600098
:10153000109260000FBE10E000E09E012F5F3F4F51
:10154000690180E2D9011D928A95E9F7FE01E85C04
:10155000FE4FC35ADE4FF983E883CD55D1408FE16A
:10156000A82E1192AA94E9F77E0127EEE21A2EEF37
:10157000F20AD701E82F1D92EA95E9F79E0126505D
:101580003F4FC15ADE4F39832883CF55D140D9010F
:10159000E82F1D92EA95E9F7FE01E552FF4FDF01C2
:1015A000A82E1D92AA94E9F72E533109CF59DE4F88
:1015B00039832883C156D140D901E82F1D92EA957D
:1015C000E9F7FE01E356FF4FDF01A82E1D92AA9412
:1015D000E9F77F97DF01A82E1D92AA94E9F77F977C
:1015E000DF01A82E1D92AA94E9F77F97DF01A82EAC
:1015F0001D92AA94E9F77F97DF011D928A95E9F77A
:101600000E94010980916400806C8093640080B71F
:10161000806880BF0E94A3082898209A5E98569AF6
:101620000E945D03579A5D98559A0E9499050E9401
:101630007A06222423948C3908F0212C8EE1C85A92
:10164000DE4F8883C855D140C95ADE4F8883C755BD
:10165000D140BE01685A7E4FCE01895A9E4F0E94EA
:101660002105811102C00E945303C85ADE4FB88081
:10167000C855D140C95ADE4F5880C755D1402220A5
:10168000D1F0552019F0BB2029F028C0AEE15A2E28
:10169000B11002C0FEE1BF2E6B2D852D0E94760495
:1016A0009EE088E10FB6F894A895809360000FBE85
:1016B00090936000FFCF511002C0BB2079F060E032
:1016C00080E00E9476049EE088E10FB6F894A89529
:1016D000809360000FBE90936000FFCF5F9AC25965
:1016E000DE4FD982C882CE56D140C759DE4FF9822B
:1016F000E882C956D140FE01E05CFF4FC55ADE4F7B
:10170000F983E883CB55D1409E0122583F4FC75AF9
:10171000DE4F39832883C955D140C9019F01AE01ED
:1017200043565F4FBE0164547F4FDE01A650BF4F4A
:101730007D01E850FF4F6F01A12CB0E89B2EE0E245
:101740007E2E88248394AB1458F499B879B8FFEFAF
:10175000AFEFB5E0F150A040B040E1F700C000C0ED
:10176000C259DE4FE881F981CE56D1408192C259EB
:10177000DE4FF983E883CE56D140C759DE4FA881AA
:10178000B981C956D1401D92C759DE4FB983A8838C
:10179000C956D140F60111926F01D7011D927D010A
:1017A000FB011192BF01DA011D92AD01F901119205
:1017B0009F01DC019D92CD01A394BEE1AB12C3CF8A
:1017C0000E945D035D982110DFC010923F021092CD
:1017D000400210923E0210923D0244983C9898B10B
:1017E00085B198130AC0809168008E7F809368004D
:1017F00080916B008F7E80936B0098B18BB19813B2
:101800000AC0809168008B7F8093680080916D0092
:101810008F7E80936D0098B188B198130AC0809133
:1018200068008D7F8093680080916C008F7E80932C
:101830006C0010927C0010927A00109241020E947B
:101840005803449845985C980E945F033C9A3D9ADF
:10185000549A3B9A3A9A399A389AEFEFFFEF25E07B
:10186000E150F0402040E1F700C000C0429A439AA6
:101870000E94DE038FEF9FE50197F1F700C00000A3
:101880000E94DE03AFEFBFE51197F1F700C0000043
:101890000E94DE03EFEFFFE53197F1F700C0000093
:1018A0000E945F03429A0E94DE030E94640360E08C
:1018B00088E20E941E0460E08CE00E941E0460E04A
:1018C00086E00E941E0460E081E00E941E0460E049
:1018D00080E40E941E0484E00E94131C84E00E94A5
:1018E000131C8AE00E94131C8AE00E94131C85E1ED
:1018F0000E94131C81E10E94131C8AE00E94131CA9
:1019000084E00E94131C82E00E94131C85E00E9468
:10191000131C82E00E94131C80E00E94131C80E0D4
:101920000E94131C80E00E94131C80E00E94131C84
:1019300080E00E94131C60E080E80E941E0461E0C9
:1019400082E00E94FE0361E080E00E941E0461E0EC
:1019500080E00E941E0488E391E00E94500461E050
:1019600080E00E941E0461E080E00E941E0460E0AE
:1019700082E00E941E0485B5856085BD80916E0061
:10198000816080936E0035C00E940109449A3C98A2
:1019900098B185B198130AC08091680081608093E6
:1019A000680080916B00806180936B0098B18BB16F
:1019B00098130AC0809168008460809368008091C9
:1019C0006D00806180936D0098B188B198130AC052
:1019D0008091680082608093680080916C008061D3
:1019E00080936C0081E0809341020E9499050E94DF
:1019F00058038FB7F8945B9A5398529A1092C50087
:101A00009FE39093C40098E19093C10096E0909377
:101A1000C2008FBF5A980E94F405882331F0C5593F
:101A2000DE4F1882CB56D14006C03FE6C559DE4F87
:101A30003883CB56D140C559DE4F8881CB56D14033
:101A40000E940D06C859DE4F8883C856D1402A9A95
:101A50002C9A2498239A259A229A8CB581658CBD5C
:101A60004FEF5FEF8EE0415050408040E1F700C003
:101A70000000A5E0FA2E80E090EC0E94250988EE97
:101A800090E80E94250983E296EC0E94250981ECEA
:101A900094E90E94250980E298E90E9425098CEAD0
:101AA00092EC0E94250981E89AEC0E94250980E0C9
:101AB00098EC0E94250987EF94EC0E94250980E0AC
:101AC00090EE0E94250989E092E80E9425098FEE98
:101AD00095EA0E942509A6E6B6E21197F1F7000003
:101AE000FA94F110C8CF0E9436090E94100A211002
:101AF00033C089E6C75EDE4F8883C951D14084E692
:101B0000C65EDE4F8883CA51D14080E3C55EDE4F9A
:101B10008883CB51D140F5E0FF2E5F9A6AE089E4DB
:101B200091E00E9466090E945D03BFEFEFEFFEE0C7
:101B3000B150E040F040E1F700C00000FA94F1102D
:101B4000ECCF60E081E00E941E0480916E00816015
:101B500080936E00312C2FC00E94B006382E88234F
:101B600011F05E9A01C05E98006280E7C75EDE4FAA
:101B70008883C951D140C65EDE4F5882CA51D140D8
:101B8000C55EDE4FB882CB51D1400E947A06C45E5A
:101B9000DE4F8883CC51D140C35EDE4F3882CD51B9
:101BA000D140C859DE4FA880C856D140C25EDE4F32
:101BB000A882CE51D14010617894852D90E09C018F
:101BC000220F331FA9014D5F5F4FC958DE4F598364
:101BD0004883C757D14034E0C359DE4F3883CD56D0
:101BE000D1403FE0C459DE4F3883CC56D140E3E0CA
:101BF0004E2E31E0CB59DE4F3883C556D140C959FE
:101C0000DE4F1882C756D140CA59DE4F3883C656B8
:101C1000D140AE0145525F4FCD59DE4F59834883C5
:101C2000C356D140DC011197C259DE4FB983A88356
:101C3000CE56D140EAEFF0E0EC0FFD1FEA0FFB1F9C
:101C4000C758DE4FF983E883C957D140CA018B0DCD
:101C5000911D9C0121503109C558DE4F39832883DD
:101C6000CB57D1404CEB50E04C0F5D1F4A0F5B1F30
:101C7000C358DE4F59834883CD57D1408DE990E05A
:101C80008C0F9D1F8A0F9B1FC158DE4F998388833D
:101C9000CF57D140EEE7F0E0EC0FFD1FEA0FFB1F3E
:101CA000CF57DE4FF983E883C158D140809141027C
:101CB000882369F0FFB6F894109241020E94B006A2
:101CC000382E882311F05E9A01C05E98FFBE809185
:101CD000C000881F8827881F80FB10F910FFAAC149
:101CE000FFB6F8941E7F289A0E947E0889838D3063
:101CF00009F45DC030F4883009F459C08A3089F4A1
:101D000056C08F3709F453C08F3F59F40E947E08A4
:101D10008A830E947E088B830E947E088C831D82AA
:101D200047C00E94D40689830E94F506E12C0E94D8
:101D30007E080E94D406982F8D3039F08A3029F021
:101D4000883029F18F3719F101C090E0E2E0F0E02E
:101D5000EC0FFD1FEE0DF11D9083892FCD57DE4F47
:101D60009883C358D1400E94F506CD57DE4F988125
:101D7000C358D140992311F40C948518E394FCE1E5
:101D8000FE15A8F688E690E00E941B0711C0E1103E
:101D90000C940C1C1A828EEC95E00E941B078CECB4
:101DA00095E00E941B0787EC95E00E941B071982B3
:101DB00064E571E0CE0101960E94E006882311F0EF
:101DC00012601F7E69E571E0CE0101960E94E00677
:101DD000882311F000681F7E60E671E0CE01019655
:101DE0000E94E006811100626AE671E0CE01019670
:101DF0000E94E006811118C06FE671E0CE010196E5
:101E00000E94E006811110C064E771E0CE010196E6
:101E10000E94E006811108C06AE771E0CE010196D8
:101E20000E94E006882311F018601F7E65E671E0CD
:101E3000CE0101960E94E006882311F010641F7EF7
:101E40006FE771E0CE0101960E94E006882331F031
:101E5000211004C0026001600460106866E871E04F
:101E6000CE0101960E94E006882311F0211008603F
:101E70006BE871E0CE0101960E94E00681110E949C
:101E8000D8086FE871E0CE0101960E94E00681114A
:101E9000006164E971E0CE0101960E94E0068111C3
:101EA00007C067E971E0CE0101960E94E00681114A
:101EB000006460EA71E0CE0101960E94E00688238A
:101EC00009F444C084EA91E00E946E0864E0A62E02
:101ED000E12C80E090E06C0154E0CC0CDD1C5A95C4
:101EE000E1F70E947E08982E0E94F506892D8062F7
:101EF00090ED980F9A3040F09FE9980F963018F4C3
:101F000099EA980F01C09FEF81E09F3F09F080E0C0
:101F1000E80E9601292BC901AA94A110DCCFE1108B
:101F200011C08F3F3FEF930769F00E9425096C01B4
:101F300087EC91E00E946E08B60180E090E048E6F0
:101F40000E942A0781ED91E00E946E0865ED71E024
:101F5000CE0101960E94E006882369F08DE995E0A4
:101F60000E941B070E9496080E94A30880916F00A0
:101F7000816080936F006AED71E0CE0101960E944E
:101F8000E006882379F083E795E00E941B07109212
:101F90003C020E949D0880916F008E7F80936F00AD
:101FA0000E94960889818F3FD9F5DA808D0D8E3198
:101FB000B8F5EB80CC24CA94CE0C4FE04C1580F1E0
:101FC000AC806D2D80E00E945D046E2D0E945D044A
:101FD000A81226C086E6C75EDE4F8883C951D1406D
:101FE000C65EDE4FD882CA51D140C55EDE4FE88260
:101FF000CB51D1401061BD1013C0222089F0E0E424
:10200000F0E0EC0FFD1FEC0DF11D8081811108C087
:1020100012FD06C0C65CDE4FE882CA53D140146090
:102020002898898181508E3F20F480E795E00E94B6
:102030001B07FFBE06FF28C0FFB6F8940F7B8DE696
:1020400095E00E941B07211003C08CE291E002C0C2
:1020500084E291E00E946E088AE695E00E941B07E8
:102060008FE595E00E941B0789E595E00E941B071C
:1020700044E66CE070E080E090E00E942A0785E58D
:1020800095E00E941B07FFBE11FF0BC1DFB6F8945D
:102090001D7F0E9496080E949D080E94D80889E929
:1020A00092E00E941B0787E692E00E941B07BE0198
:1020B000685A7E4FCE01895A9E4F0E942105811198
:1020C0000CC081E692E00E941B0788E492E00E9427
:1020D0001B0782E492E00E941B078CE392E00E94BF
:1020E0001B0781E292E00E941B07211003C08CE2D3
:1020F00091E002C084E291E00E946E08222009F47F
:10210000CBC089E092E00E941B0783E092E00E942E
:102110001B07C95ADE4F8881C755D140853489F0E5
:102120008A3018F480E30E94F506C95ADE4F6881B0
:10213000C755D14070E080E090E044E60E942A0755
:1021400004C08CEF91E00E941B0789EF91E00E9490
:102150001B0783EF91E00E941B078EED91E00E9428
:102160001B0788ED91E00E941B07C85ADE4F88814B
:10217000C855D140853689F08A3018F480E30E9432
:10218000F506C85ADE4F6881C855D14070E080E03E
:1021900090E044E60E942A0704C081ED91E00E948D
:1021A0001B078EEC91E00E941B0788EC91E00E94D7
:1021B0001B0783EC91E00E941B078EE891E00E94D0
:1021C0001B070E947E088823E1F3282F2062822FBC
:1021D000CD57DE4F2883C358D1400E94F5068BE8C7
:1021E00091E00E941B0788E891E00E941B07CD57F1
:1021F000DE4F2881C358D140293609F032C78BE51C
:1022000091E00E941B0785E591E00E941B07C95AD7
:10221000DE4FE880C755D1400E94A908C95ADE4F59
:102220008883C755D1408F3F29F4C95ADE4FE882D1
:10223000C755D1408FE491E00E941B0780E291E0F6
:102240000E941B078AE191E00E941B07C85ADE4FDB
:10225000F880C855D1400E94A908C85ADE4F88832B
:10226000C855D1408F3F29F4C85ADE4FF882C8556F
:10227000D14084E191E00E941B07C95ADE4F88815A
:10228000C755D1408E11CBC6C85ADE4F9881C8556C
:10229000D1409F11C4C6E5C685E790E00E941B07A8
:1022A000DFBE07FFA1C0AFB6F8940F770E94960873
:1022B0000E949D0889E893E00E941B0788E493E050
:1022C0000E941B0782E493E00E941B078CE293E0CC
:1022D0000E941B070E94A908E82E89E293E00E9451
:1022E0001B075FEFE51609F47EC083E193E00E94CF
:1022F0001B070E94A908F82E80E193E00E941B07AB
:102300008DE093E00E941B078FEFF81609F46BC075
:1023100087EF92E00E941B070E94A908C82E84EF55
:1023200092E00E941B079FEFC91609F45CC08EED76
:1023300092E00E941B070E94A908D82E8AED92E025
:102340000E941B07AFEFDA1609F44DC0EC1003C072
:10235000FD1409F448C08FE992E00E941B070E9417
:102360007E08982E8823D9F30E94F506892D806275
:102370008A36C9F583E6C75EDE4F8883C951D140EE
:10238000C65EDE4FE882CA51D140C55EDE4FF8829C
:10239000CB51D140C45EDE4FC882CC51D140C35E28
:1023A000DE4FD882CD51D140E51014C0FB1012C0D1
:1023B00085E395E00E941B07C35EDE4F6881CD5127
:1023C000D140C45EDE4F8881CC51D1400E9476045A
:1023D000006105C08AE095E00E941B07106186E05D
:1023E00095E00E941B07AFBE03FF10C08FB7F894A3
:1023F000077FFE01E05CFF4FC55ADE4F9881CB5549
:10240000D140905F11929E13FDCF8FBF13FFFFC08D
:10241000CFB6F894177F0E9496080E949D08998174
:102420009936C9F09437B9F09636A9F085EF94E063
:102430000E941B070E947E08982F9062892FCD571B
:10244000DE4F9883C358D1400E94F506CD57DE4F2A
:102450009881C358D140FE01E75EFE4F90839636C7
:1024600041F0993609F455C0943709F458C0E12C6D
:102470009CC0EE24E394DD24D39428EE34E04F0195
:10248000C9010E941B070E947E08F82E8823D9F3F9
:102490000E94F506B0EDFB0E0E947E08A82E882350
:1024A000D9F30E94F506FF0C9F2D990F990F9F0DF0
:1024B0009053F92EFA0C88ED94E00E941B07FF2040
:1024C000D1F02F2D30E0E1E0DE1619F081E190E04F
:1024D00002C08FE190E0281739076CF46F2D70E08F
:1024E00080E090E044E60E942A07F401ED0DF11D22
:1024F000F0829D2D06C086EC94E00E941B0793E0BD
:10250000E12C2CED34E042E0D42E913009F4B8CF28
:102510004CC0908384E6818380E3828344C0C559A4
:10252000DE4F8881CB56D1400E940D06C859DE4F40
:102530008883C856D14089EB94E00E941B07C85994
:10254000DE4F3881C856D140303819F484EB94E01E
:1025500010C044E0C859DE4FA880C856D1406A2D4B
:10256000772767FD7095872F972F0E94300881EBA2
:1025700094E00E941B0784E7C75EDE4F8883C95141
:10258000D14085E6C65EDE4F8883CA51D1408DE6D4
:10259000C55EDE4F8883CB51D14080E7C45EDE4FFD
:1025A0008883CC51D140EE24E3948DEA94E00E94DC
:1025B0001B07EE2009F11061C75EDE4F8881C9510B
:1025C000D1408636D1F4C65EDE4F8881CA51D140F3
:1025D000B81213C0C55EDE4F8881CB51D140FE01D9
:1025E000E80FF11D97AD911108C0C65CDE4F8883DE
:1025F000CA53D140146001C01F7E8091C00087FF84
:1026000003C08091C600F9CF0E94A308CFBE16FF79
:10261000D2C12FB7CA58DE4F2883C657D140F8948D
:102620001F7B0E94D80886E794E00E941B0782E681
:1026300094E00E941B0780E594E00E941B078AE457
:1026400094E00E941B0786EF93E00E941B079E0107
:10265000215A3F4FCE58DE4F39832883C257D1408D
:10266000235A3F4FCC58DE4F39832883C457D1407B
:10267000225C3F4FC059DE4F39832883C057D14079
:10268000AE0143565F4F4A012C573109C759DE4FFF
:1026900039832883C956D140C12CD12C7601C394EB
:1026A0009AE0692EC759DE4FA880C956D140C75A53
:1026B000DE4F3881C955D140A31A48E04A1520F0B1
:1026C00084EF93E00E941B0744E6C701B6010E9415
:1026D0002A0781EF93E00E941B07C059DE4FA881B3
:1026E000B981C057D1407C90711005C08DEE93E048
:1026F0000E941B0712C08BEE93E00E941B07B9E0FB
:10270000B71520F089EE93E00E941B07672D70E05B
:1027100080E090E044E60E942A0786EE93E00E9463
:102720001B07CC58DE4FE881F981C457D140819115
:10273000CC58DE4FF983E883C457D140662D0E9400
:102740008B1C792E811105C081EE93E00E941B073E
:1027500012C0682F70E080E090E042E00E943008F4
:102760008FED93E00E941B07672D70E080E090E002
:1027700044E60E942A078CED93E00E941B07C05993
:10278000DE4FA881B981C057D1407D90C059DE4F3E
:10279000B983A883C057D140772029F0F401808104
:1027A0000E94F50604C08AED93E00E941B0787EDA6
:1027B00093E00E941B07C759DE4FA881B981C95613
:1027C000D1406D91C759DE4FB983A883C956D14016
:1027D000603849F0772767FD7095872F972F44E081
:1027E0000E94300809C0772019F082ED93E002C002
:1027F0008DEC93E00E941B078AEC93E00E941B077C
:10280000CE58DE4FE881F981C257D1407190CE5841
:10281000DE4FF983E883C257D1407720A1F0F3E679
:10282000F7151CF087EC93E002C085EC93E00E9462
:102830001B07672D772767FD7095872F972F44E635
:102840000E942A0704C080EC93E00E941B078A2D97
:1028500063E00E948B1C923019F48DEB93E002C070
:102860008BEB93E00E941B072FEF821A920A3FEF37
:10287000C31AD30AE30AF30A4FE1C416D104E104F0
:10288000F10409F00FCFC959DE4FA880C756D140D7
:10289000AA2021F085EB93E00E941B0788E993E0D2
:1028A0000E941B07C959DE4F3881C756D140832F7C
:1028B00090E0A0E0B0E044E6BC01CD010E942A0710
:1028C000C959DE4FA880C756D140AA2021F082E91D
:1028D00093E00E941B078FE893E00E941B07DE0134
:1028E000A552BF4F81E0C15ADE4F2881CF55D1405C
:1028F000225EFE01E650FF4F90E03191381301C097
:102900009F5F2E13FACF9D938F5F8F3191F782E9EE
:1029100094E00E941B079E0125523F4F7901612CD4
:10292000712C43016394DE2CCD59DE4F3881C356A0
:10293000D140D31A48E04D1518F080E30E94F50607
:1029400044E6C401B3010E942A078FE894E00E9484
:102950001B07D7016D917D01611105C08BE894E0E3
:102960000E941B0706C070E080E090E043E00E94F8
:1029700030088D2D63E00E948B1C923019F488E89A
:1029800094E002C080E894E00E941B07BFEF6B1A3E
:102990007B0A8B0A9B0AEFE16E1671048104910495
:1029A00011F68CE794E00E941B07CA58DE4FA880FE
:1029B000C657D140AFBE202F2071F22E04FF18C0A1
:1029C000F894211008C060E081E00E941E048FEDA1
:1029D00091E00E9450049EE088E10FB6F894A8951B
:1029E000809360000FBE909360000E94D808FFCFD4
:1029F00005FD0AC014FF8FC3C75EDE4F8881C95131
:102A0000D140893609F030C3EFB6F8940F7DBE018E
:102A100065527F4F4E013FE5830E911CCE018258D7
:102A20009F4F9E0123563F4FAE0144545F4FFE011E
:102A3000E650FF4FA0E8CA2EC15ADE4FD880CF55CE
:102A4000D140AEE1DA0E1192DB011D92BD01DA0137
:102A50001D92AD01D9011D929D01DC01CD92CD01E8
:102A6000D4011D924D01DE12EECF2220E9F1C758AC
:102A7000DE4FE881F981C957D140B08281E0C55865
:102A8000DE4FA881B981CB57D1408C930E947A0642
:102A9000C358DE4FE881F981CD57D1408083311092
:102AA00002C08EE601C08AE6C158DE4FA881B98116
:102AB000CF57D1408C93C859DE4FA880C856D1401B
:102AC000CF57DE4FE881F981C158D140A082EFE5B0
:102AD000F0E0EC0FFD1FC259DE4F28813981CE5640
:102AE000D140E20FF31F1082EFBECA59DE4F38818A
:102AF000C656D140C959DE4F1882C756D140311150
:102B000012C080913C0290E0C958DE4F4881598143
:102B1000C757D1404817590734F0CA59DE4F1882B9
:102B2000C656D1400DC014FDA7C280913C028E371D
:102B300008F0A2C231E0CA59DE4F3883C656D140F0
:102B400012FF30C0EFB6F8941B7F0E94530333206E
:102B500019F1C65CDE4FD880CA53D1408FEF8D0D7E
:102B60008031D0F420E180E090E0880F991F2D1192
:102B700001C081602150C9F70E94E80889E999E6FF
:102B80000197F1F700C080E090E00E94E808FE01A4
:102B9000ED0DF11D81E087AF0E9458035E9A0E94FF
:102BA000100AEFBE0E941C0980FB15F915FFD6C163
:102BB000EFB6F8941F7D5D9AC95ADE4F1882C7554B
:102BC000D1400E943609CE01895A9E4F0E94E109E8
:102BD000D82E682F8FE09DE10E9468044C012D2DB6
:102BE0002F3108F02EE1DE01A85CBE4F6D018C2D67
:102BF000C35ADE4FF881CD55D1408F1B8217C0F4E8
:102C0000CE01895A9E4FCD57DE4F2883C358D140FD
:102C10000E94E109F60181936F01682FC4010E94AF
:102C200068044C01CD57DE4F2881C358D140DFCF17
:102C3000E8E3F1E0EC0FFD1FE20FF11D1082CE0181
:102C4000895A9E4F0E94E109C82ED12CDC2CCC243D
:102C5000CE01895A9E4F0E94E109C82A0E94360976
:102C600000C089E092E80E94250900C080949094F9
:102C7000C814D90469F431E020E0C95ADE4F8881D4
:102C8000C755D140811101C030E0832F922F02C07F
:102C900081E090E05D98892B39F085E6C85CDE4FD5
:102CA0008883C853D14057C1C85CDE4F8881C85360
:102CB000D140893609F462C060F4833609F412C148
:102CC000863609F046C1C55CDE4F8881CB53D140C2
:102CD0000CC0803709F49FC0843709F03AC1C45C46
:102CE000DE4F8881CC53D14025C0815031F0A0E423
:102CF000B9E81197F1F70000F8CFC75CDE4F888183
:102D0000C953D1408B1125C1222009F422C1C65CD0
:102D1000DE4F8881CA53D1408150E0E4F0E0EC0FEF
:102D2000FD1FE80FF11D8081811113C112FD11C13A
:102D300014600FC1815029F0E3E5F1E93197F1F713
:102D4000F9CF0E94F405882331F0C559DE4F18826F
:102D5000CB56D14006C03FE6C559DE4F3883CB562F
:102D6000D140C559DE4F8881CB56D1400E940D0617
:102D7000C859DE4F8883C856D140EBC0C55CDE4FD2
:102D80008881CB53D140815031F0A0E4B9E811974C
:102D9000F1F70000F8CF80E7C75EDE4F8883C951A6
:102DA000D140C65EDE4F5882CA51D140C55EDE4F6B
:102DB000B882CB51D140222019F00E947A0601C07E
:102DC00082E3C45EDE4F8883CC51D1402110F32CC6
:102DD000C35EDE4FF882CD51D140C859DE4FA88086
:102DE000C856D140C25EDE4FA882CE51D1400E946B
:102DF000960810923C0280916F00816080936F0072
:102E00000E94A308106108600062CA59DE4F188250
:102E1000C656D1409EC0C25CDE4F8881CE53D140A1
:102E2000815039F0A8E7B1EA1197F1F700C000002E
:102E3000F7CFC75CDE4F8881C953D140853479F024
:102E4000882369F0851559F0815090E0EAEFF0E0B1
:102E5000EC0FFD1FE80FF91F2081222361F0C959F3
:102E6000DE4F3881C756D1403F5FC959DE4F3883A6
:102E7000C756D1406EC0C65CDE4F2881CA53D140D0
:102E80002083C55CDE4F2881CB53D140ECEBF0E0D2
:102E9000EC0FFD1FE80FF91F2083C45CDE4F288173
:102EA000CC53D140211102C02EE601C02AE6EDE943
:102EB000F0E0EC0FFD1FE80FF91F2083EEE7F0E0D4
:102EC000EC0FFD1FE80FF91FC35CDE4F2881CD53C7
:102ED000D1402083EFE5F0E0EC0FFD1FE80FF91F74
:102EE000108237C0C35CDE4F8881CD53D140815002
:102EF00039F0A5E6B9E91197F1F700C00000F7CF66
:102F0000311027C0C75CDE4F8881C953D1405812A9
:102F100020C0C65CDE4F8881CA53D140B81219C0A8
:102F2000C55CDE4F8881CB53D140C45CDE4F6881E5
:102F3000CC53D1409FEF980F9E3158F49FEF960FDE
:102F40009E3138F4851102C06B1519F00E94760489
:102F50000061106802600E94100AEFBE21100C94FC
:102F6000560E809140028C3F60F480913F028C3F6E
:102F700040F480913D0290913E02823F924008F4DD
:102F8000D3C017FDD1C0FFB6F894809140028C3FAA
:102F900028F480913F028C3F00F110C01092400253
:102FA00061E081E00E94FE0354E1E52E8CE092E0B6
:102FB0000E945004EA94E110F9CFEBCF10923F0247
:102FC00061E082E00E94FE0344E1E42E8CE092E0A6
:102FD0000E945004EA94E110F9CF80913D02909153
:102FE0003E02823F9240C8F010923E0210923D0293
:102FF00061E083E00E94FE0334E1E32E8BE092E087
:103000000E945004EA94E110F9CF23E0422E31E00F
:10301000CB59DE4F3883C556D140FFBE85C0C85A54
:10302000DE4F6881C855D1400E947604C85ADE4FF1
:103030006881C855D140C95ADE4F8881C755D140F3
:103040000E94C204882319F089EF90E002C087ED46
:1030500090E00E941B0786EC90E00E941B07006135
:103060001FC986EA90E01AC9CA59DE4F3881C65690
:10307000D140332309F445CDEFB6F8941F7EC75EE7
:10308000DE4F8881C951D1408356823150F490E09F
:10309000FC01EE5EFE4F9080FC01E050FF4FA080EF
:1030A00002C0A12C912CC92CD12CE9E1F1E0EC0F4C
:1030B000FD1FEC0DFD1DA082118293946F01AA20CB
:1030C00079F05F9A692DCE01875E9E4F0E94660956
:1030D000D6018C9181508C930E945D03AA94EFCF0E
:1030E00080913C028D3748F40E949D080E9496080A
:1030F00080916F008E7F80936F0010923C020E943F
:10310000100A10680160EFBE15CDEE2011F40C948A
:10311000CB0E0C94C20ECA59DE4FA880C656D140C1
:10312000AA2009F4EECC01CD17FD02C00C94560E76
:10313000CFB6F8941F7700FF1DC261E081E00E94C6
:10314000FE0381EF91E00E945004C75EDE4F88814C
:10315000C951D140893609F499C030F4833609F455
:10316000ADC1863641F002C2803709F4D7C084373A
:1031700009F455C1FBC1C65EDE4F8881CA51D140FA
:1031800081508E3108F098C1C55EDE4F8881CB51E9
:10319000D1408150803108F08FC161E080E00E9411
:1031A0001E0486EF91E00E945004C65EDE4F6881E7
:1031B000CA51D14070E080E090E022E0AE014F5D66
:1031C0005F4F0E94191CCE0181960E94500489EF26
:1031D00091E00E945004C55EDE4F6881CB51D14022
:1031E00070E080E090E022E0AE014F5D5F4F0E9412
:1031F000191CCE0181960E94500487E092E00E9443
:10320000500402FD59C1C459DE4F6881CC56D140EB
:10321000C359DE4F8881CD56D1400E94FE038CE019
:1032200092E00E945004CB59DE4F6881C556D140D0
:10323000842D0E94FE038FEC91E00E945004C65E34
:10324000DE4F6881CA51D14070E080E090E022E01A
:10325000AE014F5D5F4F0E94191CCE0181960E9406
:10326000500461E080E00E941E04C55EDE4F68816C
:10327000CB51D14070E080E090E022E0AE014F5DA4
:103280005F4F0E94191CCE018196E9C08DEF91E03D
:103290000E94500402FD10C1C459DE4F6881CC5613
:1032A000D140C359DE4F8881CD56D1400E94FE03E4
:1032B0008CE092E00E945004CB59DE4F6881C556E5
:1032C000D140842D0E94FE038EE092E00E945004C3
:1032D000CB59DE4F9881C556D140995F963120F089
:1032E00081E0840D91E001C0842D853008F083E0F9
:1032F00021E030E030933E0220933D02C359DE4F7F
:103300004882CD56D140CB59DE4F3881C556D14089
:10331000C459DE4F3883CC56D140C8C084E392E014
:103320000E945004C65EDE4F6881CA51D14070E0F1
:1033300080E090E022E0AE014F5D5F4F0E94191CDB
:10334000CE0181960E94500486EF91E00E945004C5
:10335000C55EDE4F6881CB51D14070E080E090E0E7
:1033600022E0AE014F5D5F4F0E94191CCE01819695
:103370000E9450048CE092E00E945004C45EDE4F34
:103380008881CC51D140843620F48CE092E00E94B8
:103390005004C45EDE4F8881CC51D1409AE0F92EB2
:1033A0006F2D0E948B1C682F70E080E090E021E080
:1033B000AE014F5D5F4F0E94191CCE0181960E94A5
:1033C000500485E192E00E945004C45EDE4F888183
:1033D000CC51D1406F2D0E948B1C692F70E080E092
:1033E00090E021E0AE014F5D5F4F0E94191CCE01BD
:1033F00081960E94500487E192E00E945004C35ECF
:10340000DE4F8881CD51D140811102C08EE601C0CE
:103410008AE661E00E941E048CE092E0A5C08AE189
:1034200092E00E94500402FD47C0C459DE4F6881FB
:10343000CC56D140C359DE4F8881CD56D1400E9431
:10344000FE038CE092E00E945004CB59DE4F68816D
:10345000C556D140842D0E94FE038BE292E00E946B
:103460005004CB59DE4F9881C556D140995F9631B3
:1034700020F081E0840D91E001C0842D853008F0BA
:1034800083E021E030E030933E0220933D02C359B7
:10349000DE4F4882CD56D140CB59DE4FA880C5566D
:1034A000D140C459DE4FA882CC56D140482ECB59CA
:1034B000DE4F9883C556D1400B7F58C084E392E01D
:1034C0000E945004C65EDE4F6881CA51D14070E050
:1034D00080E090E022E0AE014F5D5F4F0E94191C3A
:1034E000CE0181960E94500486EF91E00E94500424
:1034F000C55EDE4F6881CB51D14070E080E090E046
:1035000022E0AE014F5D5F4F0E94191CCE018196F3
:103510000E94500482E392E00E945004C45EDE4F99
:103520006881CC51D14070E080E090E022E0AE01B3
:103530004F5D5F4F0E94191CCE0181960E9450047E
:1035400086EF91E00E945004C35EDE4F6881CD514A
:10355000D14070E080E090E022E0AE014F5D5F4F2F
:103560000E94191CCE0181960E9450040E7F81E0BA
:103570008093400201FF4DC161E082E00E94FE03A2
:1035800086E392E00E945004C85CDE4F8881C853F5
:10359000D140893609F44FC030F4833609F4C3C0F2
:1035A000863651F032C1803709F448C0843709F0BB
:1035B0002CC18AE192E027C1C75CDE4FE880C95385
:1035C000D1408FEF8E0D8E3108F01FC1C65CDE4FEB
:1035D000F880CA53D1408FEF8F0D803108F015C1AC
:1035E00061E080E00E941E0486EF91E00E9450049A
:1035F0006E2D70E080E090E022E0AE014F5D5F4F05
:103600000E94191CCE0181960E94500489EF91E01E
:103610000E9450046F2D70E080E090E022E0AE0147
:103620004F5D5F4F0E94191CCE0181960E9450048D
:1036300087E092E0E8C08DEF91E0E5C084E392E09E
:103640000E945004C75CDE4F6881C953D14070E0CE
:1036500080E090E022E0AE014F5D5F4F0E94191CB8
:10366000CE0181960E94500486EF91E00E945004A2
:10367000C65CDE4F6881CA53D14070E080E090E0C4
:1036800022E0AE014F5D5F4F0E94191CCE01819672
:103690000E9450048CE092E00E945004C55CDE4F12
:1036A000F880CB53D14023E62F1520F08CE092E038
:1036B0000E9450048F2D6AE00E948B1CF92E682F07
:1036C00070E080E090E021E0AE014F5D5F4F0E942E
:1036D000191CCE0181960E94500485E192E00E945F
:1036E00050046F2D70E080E090E021E0AE014F5D6E
:1036F0005F4F0E94191CCE0181960E94500487E101
:1037000092E00E945004C45CDE4F8881CC53D140CB
:10371000811102C08EE601C08AE661E00E941E04AB
:103720008CE092E070C0C75CDE4FA880C953D140E6
:10373000AA2009F46AC0C65CDE4FE880CA53D140B3
:10374000EE2009F462C0C55CDE4FF880CB53D14057
:10375000FF2009F45AC0C45CDE4FD880CC53D1405E
:10376000DD2009F452C03EE13A1508F44EC03E1582
:1037700008F44BC03F1508F448C084E392E00E946F
:1037800050046A2D70E080E090E022E0AE014F5DD1
:103790005F4F0E94191CCE0181960E94500486EF53
:1037A00091E00E9450046E2D70E080E090E022E0F5
:1037B000AE014F5D5F4F0E94191CCE0181960E94A1
:1037C000500482E392E00E9450046F2D70E080E08C
:1037D00090E022E0AE014F5D5F4F0E94191CCE01C8
:1037E00081960E94500486EF91E00E9450046D2D56
:1037F00070E080E090E022E0AE014F5D5F4F0E94FC
:10380000191CCE0181960E9450040D7F81E08093A7
:103810003F02CFBE0C94560EEA948BE690E00E94D5
:103820001B070C94BF0E45985C9A0E94E3030C940E
:1038300064034F925F926F927F929F92AF92BF927A
:10384000CF92DF92EF92FF920F931F93CF93DF936C
:103850006B017C015A01D22F97FF0EC08DE2FA0155
:103860008083F094E094D094C094C11CD11CE11CDE
:10387000F11C9924939401C0912CD11101C0D1E085
:10388000A7019601C1E09AE0492E512C612C712CC0
:10389000CA01B901A30192010E94AB1C2115310597
:1038A0004105510511F0CF5FF3CFCD1708F4CD2FAF
:1038B000DC2FD90D8AE0482E512C612C712C8D2FD4
:1038C00090E0D91591F08A0D9B1D8C0101501109D2
:1038D000C701B601A30192010E94AB1C605DF80113
:1038E000608369017A01D150EACFAC0EB11CF501B9
:1038F000E80FF91F1082DF91CF911F910F91FF9078
:10390000EF90DF90CF90BF90AF909F907F906F909F
:103910005F904F900895991B79E004C0991F961706
:1039200008F0961B881F7A95C9F78095089597FB34
:10393000072E16F4009407D077FD09D00E94CA1C08
:1039400007FC05D03EF4909581959F4F08957095A2
:1039500061957F4F0895052E97FB1EF400940E94F9
:10396000C21C57FD07D00E94DE1C07FC03D04EF49A
:103970000C94C21C50954095309521953F4F4F4F68
:103980005F4F089590958095709561957F4F8F4F0B
:103990009F4F0895AA1BBB1B51E107C0AA1FBB1F65
:1039A000A617B70710F0A61BB70B881F991F5A95CB
:1039B000A9F780959095BC01CD010895A1E21A2E3A
:1039C000AA1BBB1BFD010DC0AA1FBB1FEE1FFF1FC3
:1039D000A217B307E407F50720F0A21BB30BE40B13
:1039E000F50B661F771F881F991F1A9469F760955A
:1039F0007095809590959B01AC01BD01CF01089514
:043A0000F894FFCF68
:103A040003000005000003000000000000020000A5
:103A1400000205000003000003000000000000068F
:103A2400000000045AFC6E64626F78005472616E88
:103A3400736D6974746572002020456C2046756549
:103A44007261646F726F2020005555555555555558
:103A540055555500636F6E660072656D6F74650031
:103A6400636C6561726C6973740073656E6400667F
:103A7400697265006964656E740074656D70006FC9
:103A84007264657273007A65726F00636C73006BA5
:103A9400696C6C00687700686172647761726500B4
:103AA40072666D000A0D4B6F6D6D616E646F202838
:103AB40031362D4269742D4865782D466F726D61DB
:103AC40074293A20307800202D2D3E203A20307879
:103AD400000A0A0D00696E743100696E7430005278
:103AE4006573657474696E672064657669636521BE
:103AF4000054783A2000205300204348004964656C
:103B04006E746966792020202020202020007849C6
:103B140044454E54002E0056200054656D70657265
:103B240061747572652020202020007854454D5022
:0C3B340020002D3E550052783A20000081
:00000001FF
