:1000000062C400007CC400007AC4000078C4000010
:1000100076C400000C94B30872C4000070C40000E1
:100020006EC400006CC400006AC400000C94C408D4
:1000300066C4000064C4000062C4000060C4000024
:100040005EC400005CC400005AC4000058C4000034
:1000500056C4000054C4000052C4000050C4000044
:100060004EC400004CC400000A0D001B5B3144204C
:100070001B5B3144000D0A000D0A417573776168FE
:100080006C3A202845292D416E7AC3BC6E64657296
:100090002C20285429616C6F6E2C2041626272758D
:1000A0006368206D697420616E64657265722054A6
:1000B000617374653A2000452D414E5AC39C4E44ED
:1000C000455220283230206D73290054414C4F4E48
:1000D000202832207329000D0A4465727A656974FC
:1000E0002065696E67657374656C6C746573204117
:1000F0006E7AC3BC6E646D697474656C0D0A3D3DA7
:100100003D3D3D3D3D3D3D3D3D3D3D3D3D3D3D3D1F
:100110003D3D3D3D3D3D3D3D3D3D3D3D3D3D3D3D0F
:100120000D0A0A005665727363686CC3BC7373650D
:100130006C756E67206E6963687420616B74697694
:100140006965727421000D0A4B65696E6520C38470
:100150006E646572756E67656E206765737065693C
:100160006368657274210D0A0A000D0A4572666F94
:100170006C67726569636820676573706569636839
:100180006572742C204465766963652073746172AE
:10019000746574206E6575210D0A0A000D0A4469A4
:1001A0006573656E205363686CC3BC7373656C20A4
:1001B00073706569636865726E20286A2F6E293FC7
:1001C000200020000D0A4162627275636820776525
:1001D00067656E20756E7A756CC3A4737369676505
:1001E000722045696E67616265210D0A4B65696E13
:1001F0006520C3846E646572756E67656E20676581
:10020000737065696368657274210D0A0A000D0ACE
:100210000A4E65756572205363686CC3BC73736561
:100220006C3A20000A0D000D0A0A4E6575656E20B5
:1002300028532963686CC3BC7373656C2065696E51
:10024000676562656E2C2041626272756368206D1D
:1002500069742062656C6965626967657220616EA8
:1002600064657265722054617374652120002000FA
:100270000D0A5363686CC3BC7373656C206C742E79
:1002800020454550524F4D3A202020200020005656
:1002900065727363686CC3BC7373656C756E67203D
:1002A000616B74697669657274210D0A5363686CB9
:1002B000C3BC7373656C206C742E2046756E6B6DB9
:1002C0006F64756C3A20000A0D416B7475656C6C37
:1002D000652045696E7374656C6C756E673A2000B5
:1002E0003D3D3D3D3D3D3D3D3D3D3D3D3D3D3D3D3E
:1002F0003D3D3D3D3D3D3D3D3D3D3D3D3D3D3D3D2E
:100300003D0A0D000A0D4B6F6E6669677572617468
:10031000696F6E20646572205665727363686CC382
:10032000BC7373656C756E670A0D000A0D4B6569C9
:100330006E6520C3846E646572756E6720766F7219
:1003400067656E6F6D6D656E0A0A0D000A0D4E656C
:100350007573746172742E2E2E0A0A0D004665683C
:100360006C6572212042697474652065726E6575D2
:10037000742076657273756368656E210A0D000AD4
:100380000A0DC3846E646572756E67206572666F50
:100390006C677265696368210A0D001B5B33376DFA
:1003A000001B5B33316D002C20454E544552203DDF
:1003B00020616C7465722057657274293A2000358B
:1003C00030000A0D4E65756520536C6176652D49C8
:1003D00044202830312D001B5B33376D001B5B330D
:1003E000316D002C20454E544552203D20616C74E7
:1003F00065722057657274293A20003530004E65C9
:10040000756520556E697175652D49442028303118
:100410002D000A0D000A0D00284929447320C3A4A9
:100420006E6465726E2C2041626272756368206D25
:1004300069742062656C6965626967657220616EC6
:1004400064657265722054617374652120000A0A24
:100450000A0D001B5B33376D000A0D004645484C02
:100460004552001B5B33316D00416B7475656C6CDC
:100470006520536C6176652D49443A2020001B5B52
:1004800033376D000A0D004645484C4552001B5B52
:1004900033316D000A0A0D416B7475656C6C652013
:1004A000556E697175652D49443A20000A0D416EFB
:1004B00067657363686C6F7373656E6573204465FD
:1004C000766963653A20001B5B33376D001B5B3335
:1004D000376D000A0D4665686C6572206265696D4E
:1004E0002049442D4C6164656E0A0D001B5B33315D
:1004F0006D000A4B6F6E66696775726174696F6E25
:100500007370726F6772616D6D0A0D3D3D3D3D3DCB
:100510003D3D3D3D3D3D3D3D3D3D3D3D3D3D3D3D0B
:100520003D0A0D001B5B33336D0049442D57656355
:100530006873656C206D6974206A2062657374C38A
:10054000A4746967656E2C20616262726563686578
:100550006E206D697420616E6465726572205461ED
:100560007374652120000A0A0D004E6575652053DD
:100570006C6176652D49443A2020202020202000FF
:100580000A0D004E65756520556E697175652D49BA
:10059000443A202020202020000A0D000A0D0042AD
:1005A000697368657269676520536C6176652D496A
:1005B000443A2020000A0D00426973686572696739
:1005C0006520556E697175652D49443A20001B5BA5
:1005D00033376D000A0A52656D6F74652D4B6F6E6F
:1005E00066696775726174696F6E7370726F677236
:1005F000616D6D0A0D3D3D3D3D3D3D3D3D3D3D3D0A
:100600003D3D3D3D3D3D3D3D3D3D3D3D3D3D3D3D1A
:100610003D3D0A0D001B5B33336D000A0D000A0DD2
:100620004665686C657268616674652F646F70708A
:10063000656C7465204944733A200009000A0D0076
:100640002D2D2D2D002D00200020002C20002C20F1
:10065000002D2D2D2D006E2E612E002C20002D0042
:100660002C20002E002D2D2D2D002C2000300020C0
:10067000002D2D2D003A200030000A0D556E6971B5
:1006800075652D49443A20536C6176652D49442C9B
:100690002042617474657269657370616E6E756E07
:1006A00067202856292C205363686172663F2C20EE
:1006B00054656D706572617475722028C2B04329EB
:1006C0002C204B616E616C7A61686C2C2052535304
:1006D00049202864426D290A0D001B5B33376D00E9
:1006E0003D3D3D3D3D3D3D3D3D3D3D3D3D3D3D0A6D
:1006F0000D000A0D53797374656DC3BC6265727326
:10070000696368740A0D001B5B33336D000A0A0DC0
:100710000009200920092009000A0D002D2D2D00B7
:100720003A20000A0D536C6176652D49443A204108
:100730006E7A61686C20426F78656E0A0D000A0A55
:100740000D00C2B043006E2E612E0054656D7065C1
:1007500072617475723A2000556E67C3BC6C74691F
:1007600067652045696E6761626500203D20000A6B
:100770000D4B616E616C3A20200900536C61766507
:100780002D49443A09000D0A000A0D4D6F64757336
:1007900028662F692F74293A20000A0A0D000A0DD5
:1007A00049442D4B6F6E66696775726174696F6E2F
:1007B0007362656665686C2077697264206765732B
:1007C000656E646574210A0D000A0D494473207733
:1007D000657264656E206C6F6B616C20616E67651D
:1007E0007061737374210A0D000A0A0D00313735E8
:1007F0003900323032313032303600446174656352
:100800006F646520000A0D000A0D52464D006174A8
:100810006D65676133323870000A0D000A0D000DF6
:100820000A0A0A000D0A004F6666656E0020202045
:10083000200020003D3D3D3D3D3D3D3D3D3D3D3D9C
:100840003D3D3D3D3D3D3D3D3D3D3D3D3D3D0A0D3B
:100850004B616E616C2057696465727374616E647C
:100860000D0A000A0A0D47656D657373656E652094
:100870004B616E616C77696465727374C3A46E6456
:10088000650A0D000A0D00202D2D3E203A203078FB
:10089000001B5B31440020001B5B3144001B5D30BA
:1008A0003B454C204655455241444F524F07001B93
:1008B0005B334A001B5B303B3048001B5B324A0015
:1008C0002D003000200011241FBECFEFD8E0DEBF86
:1008D000CDBF12E0A0E0B1E0E4EEFAE302C0059083
:1008E0000D92A830B107D9F722E0A8E0B2E001C02C
:1008F0001D92A231B207E1F78AD40C945E1D80CB21
:100900009FEB980F9A3130F0843C21F0863D11F036
:100910008C3D09F480620895FC01DB018C9190818B
:10092000811104C081E0911105C00895319611969E
:100930008917A1F380E0F9CF40E050E066E970E06C
:10094000415051096109710921F09091C00095FF52
:10095000F7CF8093C60080E00895CF93DF93EC013A
:10096000FE0184912196882319F0E6DF8823C1F3E4
:10097000DF91CF9108958F929F92AF92BF92EF92A5
:10098000FF920F931F93CF93DF93CDB7DEB7A1975D
:100990000FB6F894DEBF0FBECDBF1A821982FE01DA
:1009A00033962FE1DF011D922A95E9F74836D9F5F4
:1009B00010E011C0E1E0F0E0EC0FFD1FE10FF11DD0
:1009C000262F2F70208344E095958795779567951E
:1009D0004A95D1F71F5F611571058105910551F7A2
:1009E000112341F310FD1F5F111111C0A1960FB625
:1009F000F894DEBF0FBECDBFDF91CF911F910F9155
:100A0000FF90EF90BF90AF909F908F900895FE0160
:100A1000E10FF11D80818A3020F0895C8DDF11505B
:100A2000E3CF805DFBCF611571058105910521F450
:100A300082EC98E092DFDACF00E097FF08C0909553
:100A40008095709561957F4F8F4F9F4F01E010E02B
:100A50003AE0832E912CA12CB12C611571058105F2
:100A6000910511F0113281F4002319F080EC98E027
:100A700074DF112309F4BACFFE01E10FF11D80816B
:100A8000805D5ADF1150F5CFEE24E394F12CEC0E8B
:100A9000FD1EE10EF11CA50194010E94EC1CF70162
:100AA0006083B901CA011F5FD8CFCF92DF92EF9266
:100AB000FF92CF93DF93CDB7DEB72A970FB6F894A6
:100AC000DEBF0FBECDBF69837A838B839C8349874A
:100AD00089819A81AB81BC818D839E83AF83B887E6
:100AE0001A868AE0C82ED12CE12CF12C8D819E81B2
:100AF000AF81B885892B8A2B8B2B01F589819A814F
:100B0000AB81BC81B7FF03C0998591509987AA85B5
:100B1000B985BA1718F544E669817A818B819C8181
:100B20002ADF2A960FB6F894DEBF0FBECDBFDF9145
:100B3000CF91FF90EF90DF90CF9008956D817E81EF
:100B40008F819885A70196010E94EC1C2D833E831E
:100B50004F8358879A859F5F9A87C8CF89859A85E2
:100B6000891B8D83BD81BB23B1F284EC98E0F5DE57
:100B7000AD81A150AD83F6CFCF93DF93EC0190E030
:100B80008881882311F0992319F0DF91CF9108957E
:100B90002196D2DE982FF4CF80E090E0A6E9B0E075
:100BA0000197A109B10939F02091C00027FFF8CFC2
:100BB0008091C600089580E00895CF93DF93ECDF25
:100BC000C82F8A3029F4DFEF8D2FDF91CF91089560
:100BD0008D30C9F380ED8C0F863088F78C2FACDE1A
:100BE0008AE0C89FC02D1124C051D6DF8A3059F346
:100BF0008D3049F3D82FDC0F9FEF9D0F9233A8F76C
:100C00009BDEE2CF8BEB98E0A8DE84EB98E0A5DEDC
:100C10008FEA98E0A2DE8DE998E09FCE0F931F93B4
:100C2000462F572FBC012B982D98429884E0072F10
:100C30001127222733270EBD762F652F542F4427E7
:100C40000DB407FEFDCF815091F784E086B986B9D7
:100C50001F910F9108958EBD0DB407FEFDCF8EB587
:100C60000895CF93C82F892F662361F080682D984F
:100C70002B984198F0DF8C2FEEDF419A2B982D981E
:100C8000CF9108958F77CFEFF2CF61E08BE193E1C1
:100C9000E8DF61E085E59AE5E4DF61E080E79CE577
:100CA000E0CFCF92DF92EF92FF9261E084E091E09B
:100CB000D8DFC12CD12C8BE4E82EF12C81E0C81AAE
:100CC000D108E108F10831F060E08FEF97E2C9DF69
:100CD00087FFF4CF81E0CD28CE28CF2809F080E02F
:100CE000FF90EF90DF90CF900895CF92DF92EF9238
:100CF000FF92CBDF60E08FEF9DE3B3DF90E061E038
:100D000084609D63AEDF61E080E191E0AADFC12CE9
:100D1000D12C8BE4E82EF12C81E0C81AD108E1082F
:100D2000F10831F060E08FEF97E29BDF87FFF4CFAF
:100D300081E0CD28CE28CF2809F080E0FF90EF9009
:100D4000DF90CF900895CF93419887E284DF80E0D1
:100D500082DFC82F80E07FDF9C2F419A82FD0EC08A
:100D600092FF09C060E08FEF9DE37BDF90E061E0E0
:100D700084609D6376DF80E0CF91089580959095A3
:100D800081709927F9CF5D9A5F9A5E9A289A0895A3
:100D90005D985F985E98289808955D9A08955F9A87
:100DA00008955E9A0895289A08959B01F999FECFB7
:100DB00032BD21BD80BDFA9AF99A12BC11BC0895CA
:100DC0009C01F999FECF32BD21BDF89A80B512BCC5
:100DD00011BC08950F931F93462F572FBC012B98DA
:100DE0002D98409884E0072F1127222733270EBD26
:100DF000762F652F542F44270DB407FEFDCF815069
:100E000091F781E086B986B91F910F9108958627E1
:100E100098E02CE8382F3170869531118227915057
:100E2000C9F70895B0E0A0E0E8E1F7E00C94211DD7
:100E3000082F162FB82EB60E682F80E1E8DFE82EB7
:100E4000612F80E1E4DFC82E612F8E2DE0DFD82EE8
:100E500088E1F82ECF2DD0E0BE01802FA6DFBE01A5
:100E60006F5F7F4F812FA1DFBE016E5F7F4F8B2DA4
:100E70009CDFBE016D5F7F4F8E2D97DFBE016C5FE3
:100E80007F4F8C2D92DFBE016B5F7F4F8D2D8DDFED
:100E900084E2F80E84E8F812DDCFCDB7DEB7E9E0E2
:100EA0000C943D1DB0E0A0E0E8E5F7E00C941F1DB8
:100EB000D82FC62F88E1F82E9D2E960E0F2D10E00C
:100EC000C8017EDFA82EC80101967ADFB82EC801BE
:100ED000029676DFC82EC801039672DFE82EC8019D
:100EE00004966EDFD82EC80105966ADF182FAD1262
:100EF00013C0BC1211C0C9100FC06D2F80E187DF75
:100F0000E8120AC06C2F80E182DFD81205C06C2F76
:100F10008E2D7DDF181759F084E2F80E84E8F81260
:100F2000CDCF80E0CDB7DEB7EBE00C943B1D81E088
:100F3000F9CFB0E0A0E0EFE9F7E00C941F1D7C01D1
:100F40006B0100E084E2982E099D50011124C50137
:100F5000489636DFC82FC501499632DFD82F682F53
:100F60008C2FA0DF182F882391F188E190E028DFF3
:100F7000182F8CE390E024DF1817F1F088E190E05F
:100F80001FDF182F80E690E01BDF181315C089E1E2
:100F900090E016DF182F8DE390E012DF18130CC0DD
:100FA00089E190E00DDF182F81E690E009DF18134A
:100FB00003C06D2F8C2F36DFF701C083F601D0837D
:100FC00011E0812FCDB7DEB7EBE00C943B1D023072
:100FD00061F46D2F8C2F66DF811107C085E4F70166
:100FE000808385E6F6018083ECCF0F5F033009F044
:100FF000ABCFE7CF20917C00287F20937C0090919D
:101000007C00982B90937C0029E090E080E0309168
:101010007A00306430937A0030917A0036FDFCCF4C
:101020004091780050917900840F951F293011F478
:1010300090E080E0215059F723E0969587952A9516
:10104000E1F70895219A9AE09A95F1F78111219894
:1010500094E29A95F1F70000199B80E097E99A9540
:10106000F1F7219896E09A95F1F700C00895CF9393
:10107000DF93C82FD8E08C2F8170E4DFC6958111F3
:10108000C068D150C1F78C2FDF91CF910895299876
:10109000219A8CEC94E00197F1F700C000002198B0
:1010A00098ED9A95F1F7000083B1EAE2F4E0319708
:1010B000F1F700C0869581700895CF92DF92EF928C
:1010C000FF92CF93DF93882309F44BC0E0DF8CECD1
:1010D000CEDF8EE4CCDF8DE7CADF88EDC8DF8FE19D
:1010E000C6DFD5DF8CECC3DF84E4C1DFC12C5CE25A
:1010F000D52EEE24E394F12C81E0C81AD108E10842
:10110000F10821F081E09EDF8823B1F3C0DF8CEC91
:10111000AEDF8EEBACDF8FEFAADFC82FD0E08FEF12
:10112000A6DF90E0982F88278C0F9D1F9C01222717
:10113000387F232BA1F09195819591092FEF089687
:1011400034E0969587953A95E1F7829F802D11249A
:10115000DF91CF91FF90EF90DF90CF90089521E045
:10116000EECF80E8F5CF1F921FB61F9211248F9308
:1011700080911102811103C081E0809311028F914F
:101180001F901FBE1F9018951F921FB61F9211240B
:101190008F939F93AF93BF93809110028F5F809343
:1011A00010028D3738F080910F02816080930F021A
:1011B0001092100280910F0281FF09C080910D02F0
:1011C00090910E02019690930E0280930D028091F1
:1011D000090290910A02A0910B02B0910C02892B96
:1011E0008A2B8B2B19F081E08093080280911102E9
:1011F000882329F080910F02846080930F02BF91B1
:10120000AF919F918F911F901FBE1F901895CDB7E2
:10121000DEB7CE56D2400FB6F894DEBF0FBECDBFBC
:101220000FB6F894A8958091600088618093600063
:10123000109260000FBE43983B9A10E0FE01EA59FD
:10124000FE4F1192119288E2DF011D928A95E9F713
:10125000FE01E754FE4F1192119287E2DF01482E02
:101260001D924A94E9F7FE01EE51FE4F1192119240
:10127000DF011D928A95E9F7FE01ED5CFE4F1192A8
:10128000119281E3DF011D928A95E9F7FE01E55F86
:10129000FD4F119211928EE1DF01482E1D924A946A
:1012A000E9F7FE01E55DFD4F11921192DF011D92FC
:1012B0008A95E9F72A9A229A5C9A239A549A259A4F
:1012C0003A9A389A2B98429840982D9893E020E2C9
:1012D00034E041E084E223B923B98150E1F736B923
:1012E00036B946B946B99150A9F7E9E9F9E031971D
:1012F000F1F700C05C980CB406FC03C08CB58165A6
:101300008CBD80916400806C8093640080B780689D
:1013100080BF8FEF9FE29093890080938800809137
:10132000810088608093810080916F00826080934B
:101330006F00809181008260809381002898209ABC
:101340005E98569A5F98579A5D98559A80B78068CC
:1013500080BF80917C00856C80937C0080917A00B6
:10136000866080937A0080917A00806880937A000A
:1013700080917A00806480937A0080917A00082FAF
:10138000007486FDFACF809178009091790082E315
:10139000C057DE4F8883C059D1408983BE01605752
:1013A0007E4FCE010196C5DD811101C0ECDCC05736
:1013B000DE4FF880C059D1403980332009F46DC325
:1013C000FF2009F46EC38DE691E0FADC853F49F019
:1013D0008DE691E0F5DC823021F06DE671E082E08F
:1013E000E4DC8DE691E0ECDCCB5ADD4F8883C5551B
:1013F000D240853F31F0F2E0CB5ADD4FF883C5553E
:10140000D24020E031E0822F90E0E6E6F1E0EC0F00
:10141000FD1FE80FF91F3083E2EEF1E0EC0FFD1F36
:10142000E80FF91F108249EB442E552453944C0EBB
:101430005D1E840D951DDC011C922F5F283219F76B
:1014400080E096E0E92E90E8E1E0F0E0EC0FFD1F8F
:10145000E89EE00DF11D1124108211821282938307
:1014600095838F5F823381F75A9A529880916800F2
:1014700084608093680080916D00846080936D002B
:1014800043983B9A85DC8FB7F8941092C5009FE390
:101490009093C40098E19093C100E092C200589AE2
:1014A0008FBF85E0E82EDD24D394F1DD93B19695CE
:1014B00091709D25980F090FEA94E110F6CF002353
:1014C00009F4FFC22198299AC05ADD4F1882C056EC
:1014D000D240C05ADD4F8881C056D240EEDDCC5A92
:1014E000DD4F8883C455D240419A2C9A2498239A80
:1014F000259A399A0CB406FC03C08CB581658CBD65
:1015000060E08FEF90E1ADDBC859DD4F8883C856AE
:10151000D240B3E0EB2EE6E6F6E23197F1F70000B9
:1015200061E082E092E09DDBA0E84A2E512C612C24
:10153000712C78E1872E912CA12CB12CA50194015E
:10154000C301B2010E94AF1C9B01AC0162E0220FFB
:10155000331F441F551F6A95D1F760E078E488EE89
:1015600091E00E94CA1C223430474105510508F41D
:10157000AFC200E0411451046104710409F0C4C217
:1015800070E1871A9108A108B108B2E0B694A79457
:1015900097948794BA95D1F7880C880C880C082901
:1015A00080E8482E512C612C712CE8E18E2E912C74
:1015B000A12CB12CA5019401C301B2010E94AF1C62
:1015C0009B01AC0172E0220F331F441F551F7A9517
:1015D000D1F760E078E488EE91E00E94CA1C2A30DE
:1015E000344B4105510508F495C280E04114510483
:1015F0006104710409F0AAC2B0E18B1A9108A10834
:10160000B10852E0B694A794979487945A95D1F76D
:10161000880C880C880C882A61E080E095E021DB4A
:1016200061E08DE996E01DDB61E08DE093E019DB80
:1016300061E08DE094E015DB802F90E061E0806454
:1016400099610FDB882D90E061E080649A6109DB8D
:1016500061E080E495E205DB61E087EA96E201DB88
:1016600061E089ED97E0FDDA61E080E698E0F9DA83
:1016700061E080E099E0F5DA61E080E997E3F1DA92
:1016800061E088E298E3EDDA61E080E89CE3E9DA82
:1016900061E080E39DE3E5DA61E080E09CE2E1DA8D
:1016A00061E084E09DE2DDDA61E088E89EE2D9DA7B
:1016B00061E08DE29FE2D5DA61E084ED90E3D1DA7A
:1016C00061E080E098E1CDDA61E08DE298E5C9DA89
:1016D00061E080E39FE6C5DA61E08FEC99E2C1DA70
:1016E00061E08DE29EE1BDDA61E080E09AE2B9DA84
:1016F0009FE09150292F30E051F0F901EE0FFF1FCC
:10170000E050FF4F408151814832510590F361E034
:10171000C9019261A6DA60E08FEF9DE2A2DA082F9C
:1017200060E08FEF9EE29DDA282F30E083E0359570
:1017300027958A95E1F7822F87700B5E800F86953B
:1017400090E061E09B628DDA61E08BE193E189DA00
:1017500061E08FE991E185DAEA94E110DCCE61E0A5
:1017600080E89AE07EDA812C912CBBE4AB2EB12C80
:10177000E1E08E1A9108A108B10809F0EDC1B5DACF
:1017800061E081EA9DE36DDA00E0C02ED12CC60154
:10179000809616DBFEE3CF0ED11C61E09C2D61DA52
:1017A0000F5F003191F7F4DA2FEF3FE744E021506B
:1017B00030404040E1F700C000006FEF7FEFCB0109
:1017C00009DBF1DA5FEF6FE774E051506040704081
:1017D000E1F700C00000E3DA8FEF9FE7A4E081505B
:1017E0009040A040E1F700C00000D7DABFEFEFE77C
:1017F000F4E0B150E040F040E1F700C00000D1DA81
:101800002FEF3FE744E0215030404040E1F700C077
:101810000000BEDA5FEF6FE777E051506040704044
:10182000E1F700C000000F2D02950F70F4FCBBDA49
:1018300001FDB5DA02FDB1DA087009F0B2DA8FEF16
:101840009FEFABE381509040A040E1F700C0000063
:101850009FDABFEFEFE7F7E0B150E040F040E1F78B
:1018600000C000009EDA2FEF3FE744E021503040F7
:101870004040E1F700C0000090DA5FEF6FE774E0EE
:10188000515060407040E1F700C0000088DA8FEFEF
:101890009FE7A4E081509040A040E1F700C0000025
:1018A00082DABFEFEFE7F4E0B150E040F040E1F75B
:1018B00000C000006DDA2FEF3FE747E021503040D5
:1018C0004040E1F700C00000F0FC6DDAF1FC67DA9F
:1018D000F2FC63DAF3FC65DA5FEF6FEF7BE3515004
:1018E00060407040E1F700C0000060E070E0CB01B4
:1018F00071DA4EDA8FEF9FEFA5E081509040A04063
:10190000E1F700C000C0222423944A9B2CC1212C63
:101910005E9880E7CE51DE4F8883C25ED140CD51C4
:10192000DE4F3882C35ED140CC51DE4FF882C45EB8
:10193000D14085E05FDB4BE0489F9001499F300D2F
:101940001124205E3F4FF6E036952795FA95E1F792
:10195000CB51DE4F2883C55ED140CA51DE4F28826D
:10196000C65ED140CC5ADD4F4880C455D240C951E3
:10197000DE4F4882C75ED14080E2C851DE4F888387
:10198000C85ED14080E8C751DE4F8883C95ED14030
:10199000106402E181E0809311027894832D90E03D
:1019A0009C012F5F3F4F4AE0429F3001439F700CE4
:1019B0001124CC59DD4F79826882C456D2409301FC
:1019C0002A503109C759DD4F39832883C956D2407F
:1019D000C25ADD4F1882CE55D240C15ADD4F18820F
:1019E000CF55D240C85ADD4F188219821A821B8205
:1019F000C855D2404AEA5AEACA5ADD4F5983488349
:101A0000C655D24050E7C05BDD4F5883C055D24029
:101A1000EE24E39461E0CF59DD4F6883C156D24094
:101A200023E331E02C0F3D1F2F0D311DD9011197FC
:101A3000C559DD4FB983A883CB56D2400197B6E094
:101A4000B89F9001B99F300D112444244394512C28
:101A50004C0E5D1E420E531EC45ADD4F5982488201
:101A6000CC55D24092012F5F3F4FC359DD4F398390
:101A70002883CD56D24080911102882309F48CC06E
:101A8000DFB6F89480911102813009F46EC0823083
:101A900009F4E5C0109211027EC062E3362EF11007
:101AA00002C052E3F52E6F2D832DBCD988E19EE054
:101AB0000FB6F894A895809360000FBE90936000D5
:101AC000FFCFBFE6C05ADD4FB883C056D24001CD2C
:101AD000F4E08F1A9108A108B10820E18216910460
:101AE000A104B10408F02ACDF0E18F2E912CA12C95
:101AF000B12C411451046104710409F41FCD769492
:101B000067945794479415CD769467945794479467
:101B10000F5F30CD84E0881A9108A108B10890E1E8
:101B200089169104A104B10408F044CDA0E18A2EE5
:101B3000912CA12CB12C411451046104710409F4BD
:101B400039CD76946794579447942FCD76946794C3
:101B5000579447948F5F4ACD60E080E09AE081D847
:101B600086FF06CE0CCE1DD9D4CEC25ADD4F1882C8
:101B7000CE55D2404AEA5AEACA5ADD4F59834883C1
:101B8000C655D24051E0CF59DD4F5883C156D2409F
:101B900082E080931102DFBEC859DD4F3881C856FC
:101BA000D240343211F0FBD8F8D88091C00087FBC6
:101BB00010F9412F4170B42E10FF72C36FB6F89424
:101BC0001E7FF1D80E94CC05CA59DE4F8883C656C5
:101BD000D1408F3709F43DC087FDA1C028EF280F01
:101BE000263038F491E001C0990F2A95EAF79572F2
:101BF00081F50E948004CA59DE4F8883C656D140C1
:101C00000E949C04C12C0E94CC050E948004D82E06
:101C10005DE0851709F456C26AE0861709F452C2DE
:101C200078E0871719F08FE7D8124DC2C11044C26F
:101C3000C959DE4F1882C756D14088E998E00E9402
:101C4000AD0486E998E00E94AD0481E998E00E9425
:101C5000AD04CA59DE4F1882C656D1407DC080916E
:101C60000F0282FF98CF80910F028B7F80930F022B
:101C7000CF59DD4F4880C156D2404420E9F1C25AC5
:101C8000DD4F2881CE55D2402F5FC25ADD4F2883C9
:101C9000CE55D24089B182FB882780F9CA59DD4FE1
:101CA0008883C656D240C959DD4F1882C756D240E4
:101CB000CA5ADD4F88819981C655D240880F991F35
:101CC000CA59DD4F48805980C656D240482A592A01
:101CD000CA5ADD4F59824882C655D2402F3108F486
:101CE0005ACFC20101978E3F9F4F08F454CF222450
:101CF0002394452809F0212C10921102211003C0D1
:101D000043985E9805C04DD860E070E0CB0162D882
:101D10000260CF59DD4F1882C156D2403CCF8F3F71
:101D200009F067CF0E94CC05C959DE4F8883C7569A
:101D3000D1400E94CC05C859DE4F8883C856D14097
:101D40000E94CC05C759DE4F8883C956D140C65979
:101D5000DE4F1882CA56D14060E571E0CE018A5943
:101D60009E4F0E948C04882311F01D7B126065E554
:101D700071E0CE018A599E4F0E948C04882311F095
:101D800000641F7B6CE571E0CE018A599E4F0E9472
:101D90008C048111006166E671E0CE018A599E4F84
:101DA0000E948C0481111BC06BE671E0CE018A5940
:101DB0009E4F0E948C04811112C060E771E0CE0139
:101DC0008A599E4F0E948C04811109C066E771E018
:101DD000CE018A599E4F0E948C04882311F01F79EE
:101DE000106261E671E0CE018A599E4F0E948C0418
:101DF000882311F001601F7B6BE771E0CE018A59E7
:101E00009E4F0E948C04811106606FE771E0CE0145
:101E10008A599E4F0E948C0481110E94020663E839
:101E200071E0CE018A599E4F0E948C048111086096
:101E300068E871E0CE018A599E4F0E948C0481119E
:101E400008C06BE871E0CE018A599E4F0E948C0455
:101E50008111006264E971E0CE018A599E4F0E94AF
:101E60008C04882351F187ED90E00E94AD04CB5A99
:101E7000DD4FA881C555D2408BEC90E0A83C11F015
:101E800087EB90E00E94AD0488E790E00E94AD04EB
:101E90000E94CC05D82E8823D9F30E949C0485E7A4
:101EA00090E00E94AD048D2D8062853609F422C138
:101EB00078ECD72E843709F41FC16CE971E0CE01AC
:101EC0008A599E4F0E948C04882309F457C080EAE7
:101ED00091E00E94BC05912C54E0852E90E080E0BA
:101EE0006C0144E0CC0CDD1C4A95E1F70E94CC0566
:101EF000A82E0E949C048A2D806290ED980F9A3043
:101F000038F09FE9980F963008F009C199EA980FC8
:101F100081E09F3F09F080E0980E9601292BC901CE
:101F20008A948110DDCF911025C08F3F980711F161
:101F3000692F661F6627661F0E943106D82E87E824
:101F400098E00E94AD044D2D50E070E060E0C45B6D
:101F5000DD4F488359836A837B83CC54D24048E663
:101F6000C45BDD4F688179818A819B81CC54D240EA
:101F70000E94BB0488EE91E00E94BC056CEE71E00B
:101F8000CE018A599E4F0E948C04882309F425C1F2
:101F9000FE01E057FE4F119211928EE0DF011D927B
:101FA0008A95E9F784E093E00E94AD0480EE92E028
:101FB0000E94AD0487EC92E00E94AD0460E08FEFD8
:101FC0009DE30E943106B82FB1709B2E80FF48C15F
:101FD0008FE892E00E94AD04CC24CA943EE3D32E55
:101FE00060E0C6010E943106282F30E050E040E05A
:101FF000C45BDD4F288339834A835B83CC54D24052
:1020000048E6C45BDD4F688179818A819B81CC542D
:10201000D2400E94BB048DE892E00E94AD04D394AC
:10202000C1144EE4D406E0F280E792E00E94AD04D1
:10203000D12C8D2D90E080960E94E006282F30E074
:1020400050E040E0C45BDD4F288339834A835B83E3
:10205000CC54D24048E6C45BDD4F688179818A81E7
:102060009B81CC54D2400E94BB048EE692E00E9439
:10207000AD04D39430E1D312DCCF87E292E00E942A
:10208000AD040E94CC058823E1F3D82E6894D5F8DE
:102090008D2D0E949C0484E292E00E94AD0443E7EF
:1020A000D4129BC08EE092E00E94AD04A12CC12C02
:1020B000712C92E0892E36C0CA948BE690E00E9483
:1020C000AD04A1CDD12CE7E6F1E0EC0FFD1FEC0D46
:1020D000F11DD0828D2D0E949C04DD2011F40C9402
:1020E000A91CC39497E2C9128ECD88E690E00E94A5
:1020F000AD0432CE62E0D62ECB5ADD4F4880C555B6
:10210000D2404D1409F4D9CE6DE671E08D2D0E94B8
:10211000D506CB5ADD4FD882C555D240CECE9FEFE3
:10212000F7CE892C729420EF72220E94CC05D82E13
:102130000E949C048D2D806290ED980F9A3030F0B3
:102140009FE9980F963090F499EA980F81E09F3FAD
:1021500009F080E0C80E792A51E08512E2CFCC2048
:1021600039F084EC91E00E94AD0437C09FEFEECFD0
:1021700082EC91E00E94AD04E0E9F1E0EC0FFD1F7C
:10218000EA0DF11D7082A39460E1A61290CF8CE954
:1021900091E00E94AD040E94CC0580628A3629F04D
:1021A0008E36C9F786E491E0DECF8C2D90E0BC013D
:1021B000605E7F4FA0E9B1E0AC0FBD1F8A0F9B1F8F
:1021C000FC0180810E94D506C394F0E1CF12EDCFCF
:1021D0008AE691E00E94AD040860CA59DE4F88810A
:1021E000C656D1408F3F09F04DC0C959DE4FD88047
:1021F000C756D1408D0D823308F044C0C859DE4F18
:10220000C880C856D1408FEF8C0D8032D8F5C759A1
:10221000DE4FA880C956D1406D2D80E00E9407078F
:102220006C2D0E940707A8122DC086E6CE51DE4F06
:102230008883C25ED140CD51DE4FD882C35ED1408B
:10224000CC51DE4FC882C45ED1401064FD1459F0F9
:10225000EB2CB6E6C05BDD4FB883C055D24012C050
:1022600084E291E080CF12FD31C3C554DE4FC882B5
:10227000CB5BD1401460EB2C26E6C05BDD4F28839E
:10228000C055D2402898CA59DE4F8881C656D140E1
:1022900081508E3F20F484E898E00E94AD046FBE28
:1022A000DFB6F8940E94A30680FB17F9DFBE211069
:1022B00004C080910F0280FD02C001FF93C017FD92
:1022C00091C0912F907416FF08C0C05BDD4F48810C
:1022D000C055D2404A3709F085C05FB6F8940D7FEB
:1022E00080910F028E7F80930F02D12C992351F0A1
:1022F00081E0C05BDD4F5881C055D2405A3709F0AC
:1023000080E0D82E4398C12CC45BDD4F188219821F
:102310001A821B82CC54D240812C912C540183947C
:1023200089E1482E91E017FD06C00E94A30691E0C6
:10233000811101C090E090FB17F9D110CFC2812F1D
:10234000012E000C990B792E771C7724771C97FDB2
:102350003EC0C501B4010E940E0683E393E10197DC
:10236000F1F784E00E94FA07489E9001499E300DE3
:1023700011243395632E6694EBE0F2E0EC0FFD1F21
:10238000EC0DF11D862D611001C081E0808360E0BD
:1023900070E0CB010E940E0691E39615A0F0C45B9D
:1023A000DD4F288139814A815B81CC54D240282974
:1023B00039294A295B29C45BDD4F288339834A8345
:1023C0005B83CC54D240880C991CAA1CBB1CC394C0
:1023D00030E2C31609F484C2772009F4A3CF16FDB6
:1023E00091C25FBE802F8670843009F05CC017FDFB
:1023F0005AC0AFB6F8940B7F83E698E00E94AD0414
:1024000084E398E00E94AD04B12CB8E0BB1520F045
:1024100082E398E00E94AD04CB2CD12CC60101963A
:102420002C01990F66087708C45BDD4F48825982FA
:102430006A827B82CC54D24044E6C301B2010E943E
:10244000BB048DE298E00E94AD04EBE0F2E0EC0FFB
:10245000FD1FEC0DFD1D8081823308F076C2282F10
:1024600030E050E040E0C45BDD4F288339834A838D
:102470005B83CC54D24044E6C45BDD4F68817981F4
:102480008A819B81CC54D2400E94BB0484E298E0B4
:102490000E94AD04B39430E2B312B7CF8FE198E05D
:1024A0000E94AD04AFBE05FF33C0DFB6F8940F7DC8
:1024B0008CE198E00E94AD0483EF91E00E94BC059E
:1024C00089E198E00E94AD048EE098E00E94AD049E
:1024D00088E098E00E94AD0444E665E470E080E0A6
:1024E00090E00E94BB0485E098E00E94AD048BEF71
:1024F00097E00E94AD0482EF97E00E94AD048DEE5C
:1025000097E00E94AD0489EE97E00E94AD04DFBE23
:1025100011FF2EC1CFB6F8941D7F0E94020684E2FF
:1025200095E00E94AD0482EF94E00E94AD04BE01EC
:10253000655B7D4FCE0180579E4F0E9499078111A8
:102540000CC08CEE94E00E94AD0483ED94E00E94F8
:10255000AD048DEC94E00E94AD0487EC94E00E9401
:10256000AD048CEA94E00E94AD048FEF91E00E94EC
:10257000BC0584E994E00E94AD048EE894E00E94DA
:10258000AD04C057DE4F8881C059D140853409F46D
:10259000E1C18A3018F480E30E949C04C057DE4FEA
:1025A0008881C059D140482F50E070E060E0C45BA2
:1025B000DD4F488359836A837B83CC54D24044E601
:1025C000C45BDD4F688179818A819B81CC54D24084
:1025D0000E94BB0484E894E00E94AD048EE794E07E
:1025E0000E94AD0489E694E00E94AD0483E694E085
:1025F0000E94AD04C55BDD4F8881CB54D240853647
:1026000009F4ADC18A3018F480E30E949C04C55BD4
:10261000DD4F8881CB54D240482E512C712C612C37
:10262000C45BDD4F488259826A827B82CC54D2409F
:1026300044E6C301B2010E94BB0489E594E00E9414
:10264000AD0483E594E00E94AD048EE494E00E9422
:10265000AD0488E194E00E94AD040E94CC0588237B
:10266000E1F3D82E6894D5F88D2D0E949C0485E165
:1026700094E00E94AD0482E194E00E94AD04F9E68A
:102680005F2ED51080C18EEF93E00E94AD048BEFDA
:1026900093E00E94AD0483EE93E00E94AD048DEDC3
:1026A00093E00E94AD04C057DE4FB880C059D140BE
:1026B0000E94DD058F3F09F457C1C057DE4F888364
:1026C000C059D14087ED93E00E94AD0482EC93E0C5
:1026D0000E94AD048FEB93E00E94AD0487EA93E083
:1026E0000E94AD0481EA93E00E94AD04C55BDD4F1A
:1026F000D880CB54D2400E94DD058F3F09F43AC107
:10270000C55BDD4F8883CB54D2408BE993E00E94B8
:10271000AD04C057DE4F8881C059D140B81208C0FF
:10272000C55BDD4F9881CB54D240D91609F42BC13B
:10273000C55BDD4F6881CB54D2400E941207C55B58
:10274000DD4F6881CB54D240C057DE4F8881C059DD
:10275000D1400E945207882309F412C18FE793E009
:102760000E94AD048CE493E00E94AD040860CFBEEB
:1027700006FF8CC08FB6F8940F7B85E196E00E942F
:10278000AD0484ED95E00E94AD048EEC95E00E94CE
:10279000AD0488EB95E00E94AD040E94DD05982E03
:1027A00085EB95E00E94AD0466246A94961409F4C2
:1027B0006CC08FE995E00E94AD040E94DD05A82E53
:1027C0008CE995E00E94AD0489E995E00E94AD0492
:1027D000A61409F45AC083E895E00E94AD040E9453
:1027E000DD05C82E80E895E00E94AD04C61409F40A
:1027F0004CC08AE695E00E94AD040E94DD05B82E2B
:1028000086E695E00E94AD04B61409F43EC09C1023
:1028100002C0AB14D1F18AE295E00E94AD040E949F
:10282000CC05D82E8823D9F30E949C048D2D80627C
:102830008A3659F583E6CE51DE4F8883C25ED14099
:10284000CD51DE4F9882C35ED140CC51DE4FA8827D
:10285000C45ED140CB51DE4FC882C55ED140CA5163
:10286000DE4FB882C65ED140391092C0FA1090C0D7
:1028700089EC97E00E94AD046B2D8C2D0E9412070D
:1028800008608AE997E00E94AD048FBE15FF37C14A
:102890009FB6F8941F7DCA59DE4FD880C656D140E6
:1028A000E9E67E2ED7107AC0CE51DE4FD882C25EC6
:1028B000D14084E6CD51DE4F8883C35ED14080E3B2
:1028C000CC51DE4F8883C45ED140F9C2EB2C36E692
:1028D000C05BDD4F3883C055D240D4CC712C39CD8C
:1028E00071107DCD60E070E0CB01211008C0C45BA9
:1028F000DD4F688179818A819B81CC54D2400E94CE
:10290000EA066DCDC05BDD4F4881C055D2404A37E5
:1029100009F067CDFE01EE51FE4F4083318280E227
:10292000828320E0CF01422F50E0FC01E40FF51F2D
:102930006BE072E06C0F7D1F460F571FDA013C9170
:1029400033832F5F203279F74CCD87E298E00E94E5
:10295000AD049CCD87E894E00E94AD043BCE8CE5AD
:1029600094E00E94AD0469CEC057DE4FB882C059D2
:10297000D140A8CEC55BDD4FD882CB54D240C5CE66
:102980008DE593E0EDCE8BE293E00E94AD04EFCEB7
:102990008EE997E00E94AD04106473CF74E7B72E00
:1029A000DB1050C0CE51DE4FD882C25ED140C05A3B
:1029B000DD4F8881C056D2400E945D08CC5ADD4F61
:1029C0008883C455D2408BE497E00E94AD04CC5A72
:1029D000DD4F2881C455D24086E497E02038B9F015
:1029E00044E0CC5ADD4F6881C455D240062E000C1D
:1029F000770B880B990BC45BDD4F688379838A83DF
:102A00009B83CC54D2400E94550582E497E00E94FB
:102A1000AD0484E7CE51DE4F8883C25ED14085E6A7
:102A2000CD51DE4F8883C35ED1408DE6CC51DE4F61
:102A30008883C45ED14080E7CB51DE4F8883C55E7A
:102A4000D1403DC226E6D2120CC0CE51DE4FD88214
:102A5000C25ED140BB24B3948BE797E02AE0A22E5C
:102A6000DEC189E897E00E94AD040E94CC05D82E13
:102A70006894D5F88D2D0E949C0486E897E00E940A
:102A8000AD04CE51DE4FD882C25ED14036E6D316B9
:102A900009F349E6D41609F40CCF54E7D51609F426
:102AA00086CFD12C8EE397E00E94AD04DD2009F49F
:102AB00013C2CE51DE4F4880C25ED140C05BDD4FB5
:102AC0004882C055D2401064242D263691F4CD5151
:102AD000DE4F8881C35ED1408F110BC0CC51DE4FD9
:102AE0008881C45ED140C554DE4F8883CB5BD14022
:102AF00014608091C00087FDF2C19FBEED2C302F85
:102B00003170A32E00FF75C17FB6F8940E7F0E942E
:102B1000020687E097E00E94AD0482EF96E00E94F3
:102B2000AD0480EE96E00E94AD048AED96E00E942E
:102B3000AD048AE796E00E94AD04B12C4AE0542E21
:102B400053E0652E48E04B1520F088E796E00E94A0
:102B5000AD048B2D90E001969C01990F440B550B11
:102B6000C45BDD4F288339834A835B83CC54D240D6
:102B700044E6C45BDD4F688179818A819B81CC54B6
:102B8000D2400E94BB0485E796E00E94AD04CC24AD
:102B9000C394D12CCC0EDD1E36E0B39EC00CD11CEC
:102BA0001124D6019C9091109DC181E796E00E946E
:102BB000AD048AE696E00E94AD04F60181818A3078
:102BC00008F0ADC185E696E00E94AD0480E696E08F
:102BD0000E94AD04992009F4D8C1D60112968C91B7
:102BE0000E949C048BE596E00E94AD04F60183816F
:102BF000803809F4CFC1282F880F330B440B550BB5
:102C0000C45BDD4F288339834A835B83CC54D24035
:102C100044E0C45BDD4F688179818A819B81CC541B
:102C2000D2400E9455058EE496E00E94AD04D60184
:102C300014968C91282F30E050E040E0C45BDD4FCB
:102C4000288339834A835B83CC54D24044E6C45BF7
:102C5000DD4F688179818A819B81CC54D2400E946A
:102C6000BB048BE496E00E94AD04D6011596DC907F
:102C7000DD2009F498C1B3E6BD1520F089E496E0A3
:102C80000E94AD04E9E0ED1520F087E496E00E9493
:102C9000AD0485E496E00E94AD042D2D30E050E0B7
:102CA00040E0C45BDD4F288339834A835B83CC5487
:102CB000D24044E6C45BDD4F688179818A819B8183
:102CC000CC54D2400E94BB048B2D662D57D6923037
:102CD00009F06EC18DE396E00E94AD04B39432E337
:102CE000B31230CF8EE196E00E94AD04C15ADD4FA1
:102CF0004880CF55D240842D90E0B0E0A0E044E67B
:102D0000C45BDD4F88839983AA83BB83CC54D240B4
:102D1000BC01CD010E94BB048BE196E00E94AD0492
:102D200090E080E0E1E0F0E0EC0FFD1F26E0522EA5
:102D3000859DE00DF11D112420812A1101C09F5FA6
:102D40008F5F823379F7E2E3F1E0EC0FFD1FEA0DCC
:102D5000F11D9083A39493E3692EA610E1CF83E243
:102D600097E00E94AD04B12C28E02B1518F080E309
:102D70000E949C04CB2CD12CC6010196AC01990F6A
:102D8000660B770BC45BDD4F488359836A837B8373
:102D9000CC54D24044E6C45BDD4F688179818A819E
:102DA0009B81CC54D2400E94BB0480E297E00E94F9
:102DB000AD04E3E3F1E0EC0FFD1FEC0DFD1D8081A0
:102DC0008111F9C08CE197E00E94AD048B2D63E086
:102DD000D5D5923009F007C189E197E00E94AD0492
:102DE000B39432E3B312C0CF8DE097E00E94AD04FC
:102DF0007FBE402F4870842E03FFF8C0F8945C9A81
:102E000088E19EE00FB6F894A895809360000FBE0D
:102E1000909360000E940206FFCF62E0B62E0E94EF
:102E2000AD040E94CC05C82E8823D9F30E949C04CF
:102E300060EDC60E0E94CC05D82E8823D9F30E94DF
:102E40009C04CA9CD00C112470EDD70E8BE697E041
:102E50000E94AD04DD20D9F18D2D90E0B0E0A0E01E
:102E6000C45BDD4F88839983AA83BB83CC54D24053
:102E700092E0B91227C081E290E0A0E0B0E0C45B2C
:102E8000DD4F488059806A807B80CC54D240481600
:102E900059066A067B06D8F444E6C301B2010E94D3
:102EA000BB04E2EEF1E0EC0FFD1FEB0DF11DD08253
:102EB0008FE697E055245394B51409F4AECFDD2482
:102EC000D394F0CD83E390E0A0E0B0E0D8CF88E5E4
:102ED00097E00E94AD04E5CD1F7BDE2C0ACE8091E9
:102EE000C60007CE8FE696E00E94AD04B9E0B915A2
:102EF00020F08DE696E00E94AD04892D90E0B0E0D0
:102F0000A0E044E6C45BDD4F88839983AA83BB833A
:102F1000CC54D240BC01CD010E94BB044ACE652DE9
:102F20002DD5892E282F30E050E040E0C45BDD4FE6
:102F3000288339834A835B83CC54D24042E0C45B0C
:102F4000DD4F688179818A819B81CC54D2400E9477
:102F5000550583E696E00E94AD04482D50E070E0F0
:102F600060E0C45BDD4F488359836A837B83CC5424
:102F7000D24044E6C45BDD4F688179818A819B81C0
:102F8000CC54D2400E94BB0421CE8EE596E00E9434
:102F9000AD0428CE86E596E0911002C081E596E06A
:102FA0000E94AD0440CE80E496E00E94AD048CCE39
:102FB0008BE396E091CE282F30E050E040E0C45BF8
:102FC000DD4F288339834A835B83CC54D24043E06E
:102FD000C45BDD4F688179818A819B81CC54D2406A
:102FE0000E945505F3CE81E197E0F8CE04FD0AC0BA
:102FF00016FF67C0CE51DE4F8881C25ED140893650
:1030000009F05FC0DFB6F8940F7E80E090E8282FCB
:1030100030E0E3E3F1E0EC0FFD1FE20FF31F10825D
:1030200056E0529FF001539FF00D112461E070E0D3
:103030006C0F7D1FE60FF71F10821182128293839F
:1030400095838F5F823319F781E0C559DD4FA881E1
:10305000B981CB56D2408C93C45ADD4FE881F981B7
:10306000CC55D240F08285E00E94FA074BE0489FA1
:103070009001499F300D1124205E3F4F86E0369528
:1030800027958A95E1F7C359DD4FA881B981CD56BF
:10309000D2402C938EE621108AE6C45ADD4FE88197
:1030A000F981CC55D2408283CC5ADD4F4880C4553B
:1030B000D24043821582DFBEC15ADD4F1882CF5500
:1030C000D240E11017C080910F02282F2270E22E0B
:1030D00081FF10C080910D0290910E02EE24E394C6
:1030E000CC59DD4F48805980C456D2404816590605
:1030F00008F0E12C16FF44C0EE2009F441C05FB691
:10310000C45BDD4F5882CC54D240F8941F7BCE5123
:10311000DE4F8881C25ED1408356C12CD12C8831CC
:1031200048F490E0FC01E85CFE4FD080805E9E4F4A
:10313000DC01CC90AD2CB12CE2EEF1E0EC0FFD1FE8
:10314000EA0DFB1DC0821182CE51DE4F8881C25E26
:10315000D140863609F0FCC12110FAC180910F02DE
:103160008D7F80930F0210920E0210920D020E942A
:103170007506C45BDD4F4880CC54D2404FBEE12C75
:1031800012FF56C0CFB6F8941B7F222009F44DC021
:10319000C554DE4FD880CB5BD1408FEF8D0D803290
:1031A00008F043C010610E94C30680E090E0DC019B
:1031B00020E2880F991FAA1FBB1FD21201C0816095
:1031C0002150B9F74091090250910A0260910B0217
:1031D00070910C022C013D01442A552A662A772A57
:1031E000C45BDD4F488259826A827B82CC54D240D4
:1031F000439AC45BDD4F688179818A819B81CC547D
:10320000D2400E940E06C45BDD4F688179818A81BD
:103210009B81CC54D2400E94EA064092090250920F
:103220000A0260920B0270920C020E947506CFBED9
:1032300014FF55C080910802882309F450C0DFB6FE
:10324000F8941092080213FB332730F920E080E055
:1032500090E0DC0141E050E060E070E04090090265
:1032600050900A0260900B0270900C02442255228A
:103270006622772245284628472889F0EBE2F2E0CB
:10328000EC0FFD1FE20FF11DC080C394CB5ADD4F40
:103290005880C555D240C51408F064C1C082440F9F
:1032A000551F661F771F2F5F2032C1F630FB13F9C1
:1032B0004091090250910A0260910B0270910C0238
:1032C0002C013D014426552666267726C85ADD4F37
:1032D000488259826A827B82C855D240DFBE13FF82
:1032E00032C0DFB6F894177FC85ADD4F6881798104
:1032F0008A819B81C855D2400E940E06C85ADD4F74
:10330000688179818A819B81C855D2400E94EA06F2
:10331000C85ADD4F288139814A815B81C855D24026
:103320002093090230930A0240930B0250930C023F
:10333000232B242B252B31F443981F7E0E94C80693
:103340000E94D106DFBEDFB6F89491E017FD06C0FB
:103350000E94A30691E0811101C090E090FB17F953
:10336000DFBE17FD02C00C943B0DDFB6F8941F774B
:103370000E94CD0660E08FEF9FE60E943106882311
:1033800009F4F7C060E08FEF94E20E943106C82E86
:10339000C6940E945106419880E00E942B068FEF50
:1033A0000E942B06893208F0FDC0C057DE4F88838B
:1033B000C059D140BB24B39402C1282F30E060E94A
:1033C00071E06C0F7D1F620F731FA2EE6A2E7724CF
:1033D00073946C0E7D1E260D371DD9019C91DB0167
:1033E00011969C938F5F5BC0E0E9F1E0EC0FFD1F4D
:1033F000E90DF11D80810E942B06939478C060E056
:1034000080E098E20E9431068970982ED301C201B3
:103410002C013D0131E0431A510861087108892BE4
:103420008A2B8B2B09F486C0992049F30E94510600
:1034300045284628472809F482C0492D4170CE59B5
:10344000DD4F4883C256D240CD59DD4F1882C35656
:10345000D240D5018C9181508C93CE59DD4F48805C
:103460005980C256D240452809F45F98CA94CC20AE
:1034700009F474CE0E94CF060E94510661E080E1FB
:1034800098E20E943106ED2DB7E25B2E5D1408F440
:10349000E7E2C057DE4FE883C059D14080E08E1785
:1034A00008F48BCFF0E94F2E552453944C0E5D1E3B
:1034B0004E0E511CF20111824198C057DE4F888197
:1034C000C059D140893238F078E2572EC057DE4FCC
:1034D0005882C059D14080E80E942B06C057DE4F69
:1034E0007880C059D140872D0E942B069E2C7914DC
:1034F00008F07ACF419A0E94450661E08CE091E0A5
:103500000E943106412C512C6BE4662E712C21E077
:10351000421A51086108710839F060E08FEF97E2B4
:103520000E94310687FFF3CF912C8BEC92E1A0E053
:10353000B0E06ECF44244A94542C320177CF61E03E
:1035400070E0CE59DD4F79836883C256D24081CF77
:10355000D39442EE642E772473946C0E7D1EA60CD9
:10356000B71C85CF842B952BA62BB72B108231E06F
:1035700096CE61E081E093E20E943106412C512C0D
:10358000EBE46E2E712C31E0431A5108610871088A
:1035900009F4F8CE60E08FEF93E20E94310681FFDC
:1035A000F2CFF0CE88E201CF8FEF0E942B06E0E948
:1035B000F1E0EC0FFD1FEB0DF11D8083B394C057BC
:1035C000DE4F8881C059D1408B1570F7419AC057A2
:1035D000DE4FE881C059D140E83208F0E7E28E16AC
:1035E000E0F079EB472E552453944C0E5D1E4E0EA1
:1035F000511CF201108261E080E198E20E943106E4
:103600005D98C754DE4FE881C95BD140E356E23193
:1036100058F5F0E0E05AF24EFBC1882D90E049EBFE
:1036200051E04C0F5D1F480F591F60E971E06C0FAE
:103630007D1F860F971FDC0111968C91DA018C9308
:103640008394CDCFC454DE4F8881CC5BD140815070
:1036500081F4222049F0C654DE4F8881CA5BD140F4
:103660008F1102C012FF14600E947506DFBE0C9419
:103670003B0DA0EFB2ED1197F1F700C00000E7CFCE
:10368000C354DE4F8881CD5BD140815069F4C05A6C
:10369000DD4F8881C056D2400E945D08CC5ADD4F74
:1036A0008883C455D240E0CFE0EFF2ED3197F1F7D7
:1036B00000C00000EACFC454DE4FE880CC5BD140AC
:1036C000EA94E11057C080E7CE51DE4F8883C25E96
:1036D000D140CD51DE4F3882C35ED140CC51DE4F58
:1036E000F882C45ED14085E00E94FA074BE0489F13
:1036F0009001499F300D1124205E3F4F66E03695C2
:1037000027956A95E1F7CB51DE4F2883C55ED140FE
:10371000CA51DE4F2882C65ED140CC5ADD4F488068
:10372000C455D240C951DE4F4882C75ED14080E2C5
:10373000C851DE4F8883C85ED140C751DE4FC88272
:10374000C95ED14082E086BB109285001092840051
:1037500080910F02826080930F0210920E021092ED
:103760000D021064006120E7C05BDD4F2883C05567
:10377000D2407ACF80EF92ED0197F1F700C00000C0
:103780009FCFCF53DE4F8881C15CD140815031F54E
:10379000C654DE4F8881CA5BD140853499F08823B6
:1037A00089F0831579F08150282F30E0E1E0F0E0D6
:1037B000EC0FFD1FB6E0B89FE00DF11D11248081D4
:1037C000882399F0C15ADD4FE881CF55D240EF5F91
:1037D000C15ADD4FE883CF55D24046CFA0EFB2EDBE
:1037E0001197F1F700C00000D1CFC554DE4F88819A
:1037F000CB5BD1408083C454DE4F8881CC5BD14009
:103800008183C354DE4F8881CD5BD14081111EC0BE
:103810008EE646E0442E429EF001439EF00D1124B8
:1038200066246394712C6C0E7D1EE60DF71D828359
:10383000C254DE4F8881CE5BD1408383C154DE4FBA
:103840008881CF5BD1408483C5820ECF8AE6E1CFE9
:10385000C254DE4F8881CE5BD140815069F5211082
:1038600003CFC654DE4F8881CA5BD1408311FCCEA2
:10387000C554DE4F8881CB5BD1408F11F5CEC45447
:10388000DE4F8881CC5BD1409FEF980F923308F0D8
:10389000EBCEC354DE4F6881CD5BD1409FEF960FD6
:1038A000923308F0E1CE831103C06F1509F4DCCE2A
:1038B0000E9412070860D8CEA0EFB2ED1197F1F781
:1038C00000C00000CACFC454DE4F8881CC5BD14019
:1038D000815009F5C654DE4F8881CA5BD1408311FF
:1038E000C3CE0260106482E086BB10928500109205
:1038F000840080910F02826080930F02C759DD4FD0
:1039000048805980C956D24050920E0240920D0212
:10391000E12C2AE729CFE0EFF2ED3197F1F700C073
:103920000000D6CFC654DE4F8881CA5BD1409FEFDE
:10393000980F911106C090E061E099620E943106F3
:1039400093CEA0EFB2ED1197F1F700C000009150B7
:10395000F0CFCC2011F40C941D0E0C947510DB01EB
:103960008F939F935BD0BF91AF91A29F800D911DCC
:10397000A39F900DB29F900D11240895991B79E09B
:1039800004C0991F961708F0961B881F7A95C9F7EF
:1039900080950895A1E21A2EAA1BBB1BFD010DC044
:1039A000AA1FBB1FEE1FFF1FA217B307E407F507EF
:1039B00020F0A21BB30BE40BF50B661F771F881FCB
:1039C000991F1A9469F760957095809590959B0161
:1039D000AC01BD01CF010895052E97FB16F40094AC
:1039E0000FD057FD05D0D6DF07FC02D046F408C043
:1039F00050954095309521953F4F4F4F5F4F08951B
:103A000090958095709561957F4F8F4F9F4F08954A
:103A1000EE0FFF1F0590F491E02D099440D0A59F73
:103A2000900DB49F900DA49F800D911D11240895B9
:103A30002F923F924F925F926F927F928F929F92BE
:103A4000AF92BF92CF92DF92EF92FF920F931F93AC
:103A5000CF93DF93CDB7DEB7CA1BDB0B0FB6F8945D
:103A6000DEBF0FBECDBF09942A88398848885F849D
:103A70006E847D848C849B84AA84B984C884DF800E
:103A8000EE80FD800C811B81AA81B981CE0FD11DF2
:103A90000FB6F894DEBF0FBECDBFED010895A29F13
:103AA000B001B39FC001A39F700D811D1124911D12
:103AB000B29F700D811D1124911D0895F894FFCFC0
:103AC000281C341B341B221B341B341B5B1B341B74
:103AD000341B341B631C341B341BC11B341B921C52
:043AE000341B401B38
:103AE400480DD007E803F401FA007D0064003E00AD
:103AF400320028001F00190014000F000C000A00F7
:103B040003000003000003000000020000020000A4
:103B14000002000000000002050000030000030092
:103B2400000003000008000000040000000000235F
:103B3400636F6E660072656D6F746500636C6561BA
:103B4400726C6973740073656E64006669726500F3
:103B54006964656E740074656D7000696D700063EE
:103B64006C73006B696C6C006877006861726477D1
:103B74006172650069676E697465720072666D00D2
:103B84000A0D4B6F6D6D616E646F202831362D42C6
:103B940069742D4865782D466F726D61742C204DC3
:103BA4005342207A752031207365747A656E2066DD
:103BB400C3BC7220536368726569627A75677269FF
:103BC4006666293A203078000A0A0D006165736B35
:103BD4006579005AC3BC6E64626F78207633005AEC
:083BE400C3BC6E64626F78003F
:00000001FF
