:100000000C9460030C947D030C947D030C947D038D
:100010000C94D00A0C947D030C947D030C947D0306
:100020000C947D030C947D030C947D030C947D0350
:100030000C947D030C943D0B0C947D030C947D0378
:100040000C94DF0A0C947D030C947D030C947D03C7
:100050000C947D030C947D030C947D030C947D0320
:100060000C947D030C947D03FF19251BC91A251BD5
:10007000251B6919251B251BE219251B251B251B83
:10008000251B251B251B021A251B871A251B8A1ACF
:10009000481B5E1C021C5E1C831B4B1B5E1C5E1CF3
:1000A000801B5E1C5E1C5E1C5E1C5E1C5E1C891B35
:1000B0005E1C861B0A0D001B5B3144201B5B314418
:1000C000000A0D4B65696E6520C46E646572756EBD
:1000D00067656E20766F7267656E6F6D6D656E0A0F
:1000E0000A0D000A0D4E657573746172742E2E2E02
:1000F0000A0A0D0045696E204665686C65722069C4
:10010000737420617566676574726574656E2E2000
:1001100042697474652065726E65757420766572C7
:1001200073756368656E210A0D000A0A0DC46E645A
:100130006572756E67206572666F6C67726569635C
:100140006820FC6265726E6F6D6D656E210A0D0030
:1001500044657669636520697374206A65747A748E
:10016000205472616E736D6974746572210A0D009A
:100170001B5B33376D001B5B33316D004E6575655E
:1001800020556E697175652D4944202830312D3315
:1001900030293A20001B5B33376D001B5B33316D18
:1001A000004E65756520536C6176652D49442028A5
:1001B00030312D3330293A2020000A0D000A0D007D
:1001C0002855296E697175652D494420E46E646572
:1001D000726E2C202853296C6176652D494420E4E9
:1001E0006E6465726E2C200A0D7A7520285429726F
:1001F000616E736D6974746572206D616368656E9C
:100200002C2041626272756368206D69742062659A
:100210006C6965626967657220616E64657265729A
:100220002054617374652120000A0A0A0D000A0A2D
:100230000D44657669636520697374206465727A1C
:1002400065697420616C73205472616E736D69749A
:10025000746572206B6F6E6669677572696572741A
:100260002E001B5B33376D000A0D004645484C4598
:1002700052001B5B33316D00416B7475656C6C65AE
:1002800020536C6176652D49443A2020001B5B3376
:10029000376D000A0D004645484C4552001B5B3344
:1002A000316D00416B7475656C6C6520556E6971BC
:1002B00075652D49443A20001B5B33376D001B5B8D
:1002C00033376D000A0D4665686C6572206265699A
:1002D0006D204C6164656E20646572204944730A28
:1002E0000D001B5B33316D000A0A4B6F6E66696748
:1002F00075726174696F6E7370726F6772616D6D24
:100300000A0D3D3D3D3D3D3D3D3D3D3D3D3D3D3D80
:100310003D3D3D3D3D3D3D3D0A0D001B5B33336D95
:100320000049442D5765636873656C206D697420BE
:100330006A2062657374E4746967656E2C2061627B
:100340006272656368656E206D697420616E6465B4
:100350007265722054617374652120000A0A0D00D1
:100360004E65756520536C6176652D49443A2020B1
:100370002020202020000A0D004E65756520556E56
:10038000697175652D49443A202020202020000AFB
:100390000D000A0D00426973686572696765205334
:1003A0006C6176652D49443A2020000A0D004269AF
:1003B0007368657269676520556E697175652D4949
:1003C000443A20001B5B33376D000A0A52656D6F9B
:1003D00074652D4B6F6E66696775726174696F6EB7
:1003E0007370726F6772616D6D0A0D3D3D3D3D3DED
:1003F0003D3D3D3D3D3D3D3D3D3D3D3D3D3D3D3D2D
:100400003D3D3D3D3D3D3D3D0A0D001B5B33336DA4
:10041000000A0D001B5B33376D004665686C657222
:1004200068616674652F646F7070656C74652049CF
:1004300044733A20001B5B33316D000A0D0A0D0036
:100440002020202020000A0D002D2D2D2D002D0014
:10045000202D002C20002D2D2D2D006E2E612E0024
:100460002C20002D002C20002E002D2D2D2D002CB9
:100470002000300020002D2D2D003A200030000AF1
:100480000A0D556E697175652D49443A20536C61AA
:1004900076652D49442C20426174746572696573D8
:1004A00070616E6E756E67202856292C2053636824
:1004B0006172663F2C2054656D706572617475724F
:1004C0002028B043292C2052535349202864426DE0
:1004D000290A0D001B5B33376D003D3D3D3D3D3D21
:1004E0003D3D3D3D3D3D3D3D3D0A0D000A0A0D535C
:1004F000797374656DFC62657273696368740A0D63
:10050000001B5B33336D000A0D0020000A0D002D27
:100510002D2D003A20000A0A0D536C6176652D4995
:10052000443A20416E7A61686C20426F78656E0AA9
:100530000D000A0A0D00B043006E2E612E005465B6
:100540006D706572617475723A2000556E67FC6C4F
:10055000746967652045696E6761626500203D20AA
:10056000000A0D4B616E616C3A2020202020200093
:100570000A0D536C6176652D49443A202020000A0B
:100580000D4D6F64757328662F692F74293A20000A
:100590000A0A0D000A0D49442D4B6F6E6669677596
:1005A000726174696F6E7362656665686C207769E5
:1005B000726420676573656E646574210A0D000AB4
:1005C0000D4944732077657264656E206C6F6B61B2
:1005D0006C20616E67657061737374210A0D000A87
:1005E0000A0D000A0D526164696F206D6F64756CAD
:1005F000653A2052464D0061746D65676131363849
:1006000070000A0D436F6E74726F6C6C65723A20E5
:100610002020000A0D000A0A0D576965646572689A
:100620006F6C7465732053656E64656E20646573CA
:10063000206C65747A74656E2042656665686C73BB
:10064000204155530A0D000A0A0D57696564657209
:10065000686F6C7465732053656E64656E206465A5
:1006600073206C65747A74656E2042656665686C8B
:10067000732045494E0A0D001B5D303B454C20461A
:1006800055455241444F524F07001B5B31440020F7
:10069000001B5B3144001B5D303B454C20465545FB
:1006A0005241444F524F07001B5B334A001B5B30E3
:1006B0003B3048001B5B324A0020002D0030000018
:1006C00011241FBECFEFD4E0DEBFCDBF12E0A0E00B
:1006D000B1E0ECEBFAE302C005900D92A831B1074E
:1006E000D9F712E0A8E1B2E001C01D92A032B10733
:1006F000E1F70E944E0B0C945C1D0C940000F999DC
:10070000FECF92BD81BDF89A80B512BC11BC089590
:100710000F931F93CF93DF9300D000D000D0CDB7BD
:10072000DEB7DC0119821A821B821C8280E88D836D
:100730001E822198299834EA3A95F1F7199B98C0BE
:10074000219A83E393E10197F1F7219891E29A9539
:10075000F1F780E0199B08C08E3109F48BC0E1E20B
:10076000EA95F1F78F5FF6CF893108F083C080E01A
:10077000199908C0893109F47FC0F1E2FA95F1F7BF
:100780008F5FF6CF893109F477C080E0199B08C0EC
:10079000893109F473C031E23A95F1F78F5FF6CFF2
:1007A000893109F46BC0FE01319625E02E0F88E0F7
:1007B00092E3199907C0915048F030E13A95F1F76A
:1007C00000C0F7CF911102C084E65DC09081990FFF
:1007D000908332E63A95F1F70000199B02C09160D0
:1007E000908392E3199B07C0915038F030E13A951D
:1007F000F1F700C0F7CF992339F38150C9F631964C
:100800002E13D5CF49813A812B81EC81932F940F00
:10081000920F9E0F5D81591333C0922F991F992714
:10082000991F990F50E0542F4427430F511D493E03
:10083000F3E05F0738F52F7730E0322F22272E0FB5
:10084000311DE1E0F0E0E91BF109E29F8001E39F47
:10085000100DF29F100D1124980120573E4F233E9A
:10086000344080F40D931C93FB01518340830BC0F3
:1008700081E009C082E007C083E005C084E003C0D6
:1008800088EC01C089EC26960FB6F894DEBF0FBE47
:10089000CDBFDF91CF911F910F910895219A90E1E3
:1008A0009A95F1F700C0811121989EE29A95F1F78F
:1008B000199B80E096E89A95F1F700C02198089579
:1008C000CF93DF9300D000D0CDB7DEB71C821B8260
:1008D0001A821982BE016F5F7F4FCE0103960E947C
:1008E0008803882331F0843011F48FE603C080E060
:1008F00001C084E60F900F900F900F90DF91CF9181
:1009000008955D9A5F9A5E9A289A08955D985F9817
:100910005E98289808954398429841984098089581
:100920001F93CF93DF931F92CDB7DEB7339902C0E9
:1009300090E001C090E1329902C080E001C080E205
:10094000982B319902C080E001C080E4982B309947
:1009500002C080E001C080E8192F182B439A429A08
:10096000419A409A3B983A98399838985C98459AB9
:1009700080E887FF39C0449A00000000339902C024
:1009800090E001C090E1329902C080E001C080E2B5
:10099000319902C050E001C050E4309902C040E0FB
:1009A00001C040E8449800000000449A00000000A4
:1009B00026B123FB222720F9922B892B852B842B10
:1009C000329902C030E001C032E0832B319902C07D
:1009D00020E001C024E0822B309902C090E001C0E9
:1009E00098E0892B4498C5CF45983B9A3A9A399A12
:1009F000389A89830E948B04898114FD439A15FDDE
:100A0000429A16FD419A17FD409A0F90DF91CF91BF
:100A10001F910895449A00C000C044980895CF9350
:100A2000C82F0E948B04C4FD439AC5FD429AC6FD9F
:100A3000419AC7FD409A0E940A050E948B04C0FD9E
:100A4000439AC1FD429AC2FD419AC3FD409ACF919B
:100A50000C940A05853008F081E0653108F061E00A
:100A6000982F90959170282F30E0215031093595BD
:100A7000279545985C98892F8295880F880F807CF0
:100A8000815894E1299F800D1124860F0E940F0543
:100A90000C949004CF93DF931F92CDB7DEB74598A7
:100AA000611124C05C9869830E940F050E94900424
:100AB00069816623E9F00E949004803481F028F473
:100AC0008431B1F461E082E00CC0843529F08836CD
:100AD00079F461E081E005C061E083E002C061E09B
:100AE00084E00F90DF91CF910C942A055C9ADBCFC4
:100AF0000F90DF91CF910895CF93DF93EC0189910F
:100B0000882321F061E00E944A05F9CFDF91CF915F
:100B1000089545985C9A0E940F050C949004F999E9
:100B2000FECF72BD61BD80BDFA9AF99A12BC11BCAC
:100B30000895862798E02CE8382F3170869531117A
:100B400082279150C9F708957F928F929F92AF921A
:100B5000BF92CF92DF92EF92FF920F931F93CF93AA
:100B6000DF93082F162FC8E1D0E0E82EE60ECE0165
:100B70000E947F03782ECE0101960E947F03882E6B
:100B8000CE0102960E947F03982ECE0103960E940A
:100B90007F03A82ECE0104960E947F03B82ECE01BB
:100BA00005960E947F03D82E602F80E10E94990550
:100BB000F82E612F80E10E949905C82E612F8F2D9C
:100BC0000E94990570120AC0811208C09E1006C0CA
:100BD000AF1004C0BC1002C0D81631F0A496C438BF
:100BE000D10529F680E001C081E0DF91CF911F910E
:100BF0000F91FF90EF90DF90CF90BF90AF909F90BC
:100C00008F907F900895AF92BF92CF92DF92EF9234
:100C1000FF920F931F93CF93DF936C015B01C8E1A9
:100C2000D0E0E12CCE010E947F03182FCE01019667
:100C30000E947F03082F682F812F0E94A405F82EA1
:100C40008823B9F188E190E00E947F03C82F8CE3EC
:100C500090E00E947F03C81729F188E190E00E948C
:100C60007F03C82F80E690E00E947F03C8131AC05C
:100C700089E190E00E947F03C82F8DE390E00E94FD
:100C80007F03C8130FC089E190E00E947F03C82F43
:100C900081E690E00E947F03C81304C0602F812F7B
:100CA0000E940309F6011083F5010083FF24F394E9
:100CB00016C0F2E0EF120DC0602F812F0E94A40534
:100CC000811107C085E4F601808385E6F501808304
:100CD00006C0E394A496C438D10509F0A3CF8F2DA4
:100CE000DF91CF911F910F91FF90EF90DF90CF9008
:100CF000BF90AF90089580B7806880BF80917C00DE
:100D0000856480937C0080917A00866080937A006D
:100D100080917A00806880937A0080917A00806464
:100D200080937A0080917A0086FDFCCF80917800D4
:100D3000909179002FEF8FE797E02150804090400D
:100D4000E1F700C0000028E080E090E030917A00F8
:100D5000306430937A0030917A0036FDFCCF4091B8
:100D6000780050917900840F951F215079F78038D1
:100D70009C40D8F480917C00806880937C008FEF49
:100D80009FE727E0815090402040E1F700C000003D
:100D900080917A00806480937A0080917A0086FD49
:100DA000FCCF80917800909179000895CF93DF93E4
:100DB000C82FD8E08C2F81700E944E04C6958111F7
:100DC000C068D150B9F78C2FDF91CF9108950F9360
:100DD0001F93CF93DF9300D000D0CDB7DEB720E8CC
:100DE0003FEF3C832B838436D1F18F3609F04FC01F
:100DF00084E40E94580781E00E944E048823D9F3BE
:100E00008EEB0E9458078FEF0E94D606082F10E045
:100E10008FEF0E94D60690E0982F8827800F911FB1
:100E20009C012227387F232BA1F521E030E0AC0183
:100E30004C5F5F4F880F991F880F991F840F951F74
:100E400073E0969587957A95E1F7829FA001839F3D
:100E5000500D929F500D11245C834B8307C0BE013F
:100E60006F5F7F4FCE0103960E9488032B813C81E8
:100E700037FD03C085E090E002C08BEF9FEF820F4B
:100E8000931F6AE070E00E94ED1C862F08C080E886
:100E900006C09195819591092FEF3FEFC8CF0F9034
:100EA0000F900F900F90DF91CF911F910F910895A8
:100EB000CF93C82F219A8CEC94E00197F1F700C0F2
:100EC0000000219898ED9A95F1F70000199905C056
:100ED0008AE294E00197F1F700C08CEC0E94D606FC
:100EE0008C2FCF910C94D60680917C00887F8093C4
:100EF0007C0080917C00856080937C0020917C0048
:100F00002095221F2227221F8BE0821B282F30E0F2
:100F100080E090E0DC0140917A00406440937A00E8
:100F200040917A0046FDFCCF4091780050917900C5
:100F3000840F951FA11DB11D3F5F3213ECCF80962A
:100F4000A11DB11D26E0B695A795979587952A9581
:100F5000D1F7089535B516BC81E085BB80EA86BD22
:100F600085E085BD80E095E541E050EA2FEF290F4F
:100F70002E3F68F4990F21E0349B20E0922BA89B30
:100F8000FECF45BB56BD883088F78F5FEFCF8830E6
:100F900088F335BD81E0911180E008959FEB980FB3
:100FA0009A3130F0843C21F0863D11F08C3D09F4FB
:100FB00080620895CF93DF93FC01DF01EB018991FB
:100FC000BE01882329F031969C919817B1F303C094
:100FD00081E09081911180E0DF91CF910895282FD9
:100FE00040E050E066E970E099B1892F887093FF86
:100FF00006C04150510961097109B1F714C0452B70
:10100000462B472B81F040E050E066E970E090917C
:10101000C00095FD05C04150510961097109B9F73A
:101020002093C600089581E00895CF93DF93EC01EB
:10103000FE018491882329F00E94EF0721968823DE
:10104000B9F3DF91CF9108958F929F92AF92BF92A3
:10105000EF92FF920F931F93CF93DF93CDB7DEB73D
:10106000A1970FB6F894DEBF0FBECDBFFE0131963B
:1010700021E2DF011D922A95E9F7611571058105CD
:101080009105A1F48DEB96E0A1960FB6F894DEBF22
:101090000FBECDBFDF91CF911F910F91FF90EF90C9
:1010A000BF90AF909F908F900C94150897FF09C048
:1010B00090958095709561957F4F8F4F9F4F01E080
:1010C00001C000E07F0110E02AE0822E912CA12CCB
:1010D000B12C1F5FA50194010E94011DF7016193CE
:1010E0007F01B901CA01611571058105910511F0F2
:1010F000113279F7002321F08BEB96E00E9415085E
:10110000FE01E10FF11D8081805D0E94EF0711500B
:10111000B9F7A1960FB6F894DEBF0FBECDBFDF9131
:10112000CF911F910F91FF90EF90BF90AF909F9044
:101130008F9008958F929F92AF92BF92CF92DF923D
:10114000EF92FF92CF93DF936B017C01C42FD0E02D
:101150002AE0822E912CA12CB12C611571058105FC
:10116000910541F0A50194010E94011DCA01B90138
:10117000DF5FF3CFF7FE02C0C111C150CD1770F48D
:10118000C701B601DF91CF91FF90EF90DF90CF9034
:10119000BF90AF909F908F900C942408CD1BD0E00F
:1011A000DC1771F389EB96E00E941508DF5FF8CF3A
:1011B00080E090E0A6E9B0E02091C00027FD05C0E6
:1011C0000197A109B109C1F709C0892B8A2B8B2B83
:1011D00029F05A9A8091C6005A98089580E008959F
:1011E00081E086BB10928500109284000895E1E8AA
:1011F000F0E08081887F80830895E1E8F0E08081DD
:10120000826080830895CF92DF92EF92FF920F93D6
:101210001F93CF93DF93082F162FC82EC60E682F6B
:1012200080E10E949905F82E612F80E10E949905C6
:10123000D82E612F8F2D0E949905E82EC8E1D0E0AD
:10124000BE01802F0E948F05BE016F5F7F4F812FEF
:101250000E948F05BE016E5F7F4F8C2D0E948F050F
:10126000BE016D5F7F4F8F2D0E948F05BE016C5FA9
:101270007F4F8D2D0E948F05BE016B5F7F4F8E2D9E
:101280000E948F05A496C438D105D1F6DF91CF9185
:101290001F910F91FF90EF90DF90CF900895CF9323
:1012A000DF93D3E680ED8D0F843020F00E94D808C4
:1012B000D82FF8CF8D2F0E94EF07C3E6D03341F42B
:1012C0008FEC8C0F893020F00E94D808C82FF8CFFF
:1012D0008FEC8D0F823040F480ED8C0F8A3058F007
:1012E0000E94D808C82FF8CFD33329F40E94D80819
:1012F000C82F8033D9F78C2F0E94EF078C2F9AE0EC
:10130000D99F800D11248051DF91CF91089584EBF6
:1013100096E00E9415088DEA96E00E94150888EA7A
:1013200096E00E94150886E996E00C941508BC0129
:1013300040984398429890E120E030E848E0F90175
:10134000E623F723EF2B09F0409A46B946B94098B7
:1013500036952795915099F784E086B986B9089516
:10136000419A389A399A3A9A3B9A409842984398C7
:1013700093E028E034E084E126B926B98150E1F712
:1013800036B936B99150B9F72FEF8FE791E0215078
:1013900080409040E1F700C000C0419808958EBDA4
:1013A0000DB407FEFDCF8EB50895CF93C82F611100
:1013B00002C080E001C080E8892B611101C0CFEF3D
:1013C0002D982B982A980E94CF098C2F0E94CF0924
:1013D0002B982D982A9ACF910895CF92DF92EF9271
:1013E000FF9261E084E091E00E94D509C12CD12CEC
:1013F0008BE4E82EF12C81E0C81AD108E108F1084D
:1014000039F060E08FEF97E20E94D50987FFF3CFB4
:1014100081E0CD28CE28CF2809F080E0FF90EF9022
:10142000DF90CF900895CF92DF92EF92FF9260E02D
:101430008FEF9DE30E94D50990E061E084609D6399
:101440000E94D50961E080E191E00E94D509C12C9C
:10145000D12C8BE4E82EF12C81E0C81AD108E108E8
:10146000F10839F060E08FEF97E20E94D50987FF1D
:10147000F3CF81E0CD28CE28CF2809F080E0FF907F
:10148000EF90DF90CF900895CF92DF92EF92FF928E
:101490001F93CF93DF93CDB7DEB76F970FB6F89456
:1014A000DEBF0FBECDBFF82EE92E162F0E94ED092C
:1014B00061E080E198E20E94D509612F1E3108F0B9
:1014C0006DE169833F2DDE011296EF2DFE2DCD01DA
:1014D0002E2F231B261718F421912D93F9CFFC01F1
:1014E000E60FF11D10822A9889818F3110F08EE16C
:1014F000898380E80E94CF09F9808F2D0E94CF094F
:1015000011E0F11658F0E1E0F0E0EC0FFD1FE10F03
:10151000F11D80810E94CF091F5FF3CF2A9A61E0FD
:101520008CE091E00E94D509C12CD12C9BE4E92EDE
:10153000F12C81E0C81AD108E108F10831F4C12C7E
:10154000D12C8BE4E82EF12C0EC060E08FEF97E2F7
:101550000E94D50987FFEDCFF2CF81E0C81AD108EC
:10156000E108F10839F060E08FEF98E20E94D509B8
:1015700083FFF3CF0E94130A81E0CD28CE28CF2825
:1015800009F080E06F960FB6F894DEBF0FBECDBFB6
:10159000DF91CF911F91FF90EF90DF90CF90089552
:1015A0001F920F920FB60F9211248F9381E08093B8
:1015B0001F028F910F900FBE0F901F9018951F92D2
:1015C0000F920FB60F9211242F938F939F938091B8
:1015D0001D0290911E02892B49F080911D0290916D
:1015E0001E02019690931E0280931D0280911B02A1
:1015F00090911C02892B49F080911B0290911C0252
:10160000019690931C0280931B0280911902909185
:101610001A02892B49F08091190290911A020196C1
:1016200090931A028093190280911D0290911E02DC
:10163000893E934020F010921E0210921D0280916C
:101640001B0290911C02893E934020F010921C02D4
:1016500010921B028091190290911A0281319742D7
:1016600020F010921A02109219029F918F912F91DF
:101670000F900FBE0F901F9018951F920F920FB6EC
:101680000F9211248F93809118028F5F809318021C
:101690008F910F900FBE0F901F901895CF93DF93EF
:1016A000CDB7DEB7C45AD1400FB6F894DEBF0FBE37
:1016B000CDBF88E10FB6F89480936000109260006F
:1016C0000FBE10E000E09E012F5F3F4F590180E206
:1016D000D9011D928A95E9F7FE01E95AFE4FC958D2
:1016E000DE4FF983E883C757D1408FE1282F11924D
:1016F0002A95E9F77E0138ECE31A3EEFF30AD701A9
:10170000E82F1D92EA95E9F79E01275E3E4FC758E4
:10171000DE4F39832883C957D140D901E82F1D9264
:10172000EA95E9F7FE01E650FF4FDF01282F1D92F1
:101730002A95E9F7AE0145525F4FC558DE4F5983F0
:101740004883CB57D140DA01E82F1D92EA95E9F79B
:101750009E0124543F4FC358DE4F39832883CD5711
:10176000D140D901E82F1D92EA95E9F72F513109AF
:10177000C158DE4F39832883CF57D140D901E82F94
:101780001D92EA95E9F7FE01E258FF4FDF01282F8D
:101790001D922A95E9F74C575109CF57DE4F5983CF
:1017A0004883C158D140DA01E82F1D92EA95E9F744
:1017B000FE01E05CFF4FDF011D928A95E9F70E9470
:1017C000B00980916400806C8093640080B7806869
:1017D00080BF0E94FD082898209A5E98569A5F98CC
:1017E000579A5D98559A2701DE01A356BF4F9E0177
:1017F000215A3F4FAE0144545F4FFE01E552FF4F67
:101800003F01BE01675E7E4F7B01CE01895A9E4F2C
:101810006C0180E090E060E8962E8824839499B86B
:10182000F50181925F01F20111922F01F6011192EF
:101830006F01F70111927F01F30111923F01FA014B
:101840001192AF01F90111929F019D92FFEF6FE795
:1018500071E0F15060407040E1F700C000C00196B7
:101860008E319105E1F60E947B060E94740731E0FB
:10187000C257DE4F3883CE58D140803A28F0C25745
:10188000DE4F1882CE58D1408EE1CA58DE4F888391
:10189000C657D14089A3BE016A587E4FCE018196BA
:1018A0000E940306811102C00E948104CA58DE4FC3
:1018B000F880C657D14049A0F110E8C04110E6C0F9
:1018C000C257DE4FA880CE58D140A110DFC0109281
:1018D0001C0210921B0210921E0210921D02109206
:1018E0001A021092190244983C9898B185B1981345
:1018F0000AC0809168008E7F8093680080916B00A1
:101900008F7E80936B0098B18BB198130AC0809141
:1019100068008B7F8093680080916D008F7E80933C
:101920006D0098B188B198130AC0809168008D7FCE
:101930008093680080916C008F7E80936C00109281
:101940001F020E948604449845985C980E948B046C
:101950003C9A3D9A549A3B9A3A9A399A389A2FEF80
:101960003FEF45E0215030404040E1F700C000C06B
:10197000429A439A0E940A058FEF9FE50197F1F77B
:1019800000C000000E940A05AFEFBFE51197F1F714
:1019900000C000000E940A05EFEFFFE53197F1F764
:1019A00000C000000E948B04429A0E940A050E9417
:1019B000900460E088E20E944A0560E08CE00E94AA
:1019C0004A0560E086E00E944A0560E081E00E94EE
:1019D0004A0560E080E40E944A0584E00E9489058F
:1019E00084E00E9489058AE00E9489058AE00E94BD
:1019F000890585E10E94890581E10E9489058AE0C7
:101A00000E94890584E00E94890582E00E94890580
:101A100085E00E94890582E00E94890580E00E949D
:101A2000890580E00E94890580E00E94890580E0A8
:101A30000E94890580E00E94890560E080E80E949C
:101A40004A0561E082E00E942A0561E080E00E9490
:101A50004A0561E080E00E944A0580E091E00E9432
:101A60007C0561E080E00E944A0561E080E00E9420
:101A70004A0560E082E00E944A0585B5856085BD23
:101A800080916E00816080936E0035C00E94B00925
:101A9000449A3C9898B185B198130AC08091680027
:101AA00081608093680080916B00806180936B00FF
:101AB00098B18BB198130AC08091680084608093BC
:101AC000680080916D00806180936D0098B188B14D
:101AD00098130AC0809168008260809368008091AA
:101AE0006C00806180936C0081E080931F020E94F3
:101AF0007B060E9486048FB7F8945B9A5398529A9B
:101B00001092C5009FE39093C40098E19093C100A8
:101B100096E09093C2008FBF5A980E946004C3570A
:101B2000DE4F8883CD58D1400E94E706C957DE4F6B
:101B30008883C758D1402A9A2C9A2498239A259AA8
:101B4000229A8CB581658CBDF4E1EF2E8FEF9FE278
:101B50000197F1F700C0000061E080E092E00E9490
:101B6000D50961E082E095E00E94D50961E081EE4F
:101B700096E00E94D50961E08DE093E00E94D509CE
:101B800061E08DE094E00E94D50961E083E499E191
:101B90000E94D50961E08BE193E10E94D50961E0E3
:101BA00080E095E20E94D50961E087E096E20E941C
:101BB000D50961E088ED97E00E94D50961E086EEE5
:101BC00098E00E94D50961E084E199E00E94D5097E
:101BD00061E080E997E30E94D50961E08EE198E336
:101BE0000E94D50961E080E89CE30E94D50961E08C
:101BF00080E49DE30E94D50961E080E09CE20E94C0
:101C0000D50961E084E09DE20E94D50961E088E8A1
:101C10009EE20E94D50961E08DE29FE20E94D50913
:101C200061E084ED90E30E94D50961E080E098E1F5
:101C30000E94D50961E08DE298E50E94D50961E036
:101C400080E39FE60E94D50961E08CED99E20E9455
:101C5000D50961E080E09EE10E94D50961E08AE952
:101C600091E10E94D509EA94E11070CF61E080E82B
:101C70009AE00E94D509812C912CEBE4AE2EB12C78
:101C800060E080E09AE00E94D50986FD06C091E000
:101C9000891A9108A108B10899F70E94130AF11056
:101CA00035C0411033C089E6C85CDE4F8883C85315
:101CB000D14084E6C75CDE4F8883C953D14080E3BE
:101CC000C65CDE4F8883CA53D14080916E0081602C
:101CD00080936E0075E0E72E5F9A6AE081E191E003
:101CE0000E94440A5F98AFEFBFEFEAE1A150B04015
:101CF000E040E1F700C00000EA94E110EDCF60E0C1
:101D000081E00E944A05212C33E030C00E94AA07DE
:101D1000282E882311F05E9A01C05E98006280E749
:101D2000C85CDE4F8883C853D140C75CDE4F488211
:101D3000C953D140C65CDE4FF882CA53D1400E94DD
:101D40007407C55CDE4F8883CB53D140C45CDE4F43
:101D50002882CC53D140C957DE4FA880C758D14004
:101D6000C35CDE4FA882CD53D14036E0CB57DE4F67
:101D70003883C558D14010617894842D90E09C013F
:101D8000220F331FA9014D5F5F4FC856DE4F5983A5
:101D90004883C859D14034E0C757DE4F3883C9580B
:101DA000D1403FE0C857DE4F3883C858D14063E088
:101DB000362E66246394512C31E0CA57DE4F3883A7
:101DC000C658D14035E0C457DE4F3883CC58D14097
:101DD000AE0146505F4FCD57DE4F59834883C358FD
:101DE000D140BC0161507109C657DE4F79836883C9
:101DF000CA58D14089E191E08C0F9D1F860F971F33
:101E0000C656DE4F99838883CA59D140CA018F0DC7
:101E1000911DDC011197C456DE4FB983A883CC59BC
:101E2000D140EBEDF0E0EC0FFD1FE60FF71FC256BF
:101E3000DE4FF983E883CE59D1402CEB30E02C0FF4
:101E40003D1F260F371FC056DE4F39832883C05AE7
:101E5000D1404DE950E04C0F5D1F460F571FCE5546
:101E6000DE4F59834883C25AD14080911F02882394
:101E700069F0EFB6F89410921F020E94AA07282E6C
:101E8000882311F05E9A01C05E98EFBE8091C00079
:101E9000881F8827881F80FB10F910FF75C1EFB6D7
:101EA000F8941E7F289A0E94D80889838F3F59F49E
:101EB0000E94D8088A830E94D8088B830E94D80881
:101EC0008C831D8255C0982F9D7F983021F08D30D6
:101ED00011F08F3711F419824BC00E94CE0789830D
:101EE0000E94EF07D12C0E94D8080E94CE07982F9D
:101EF0008D3039F08A3029F0883029F18F3719F187
:101F000001C090E0E2E0F0E0EC0FFD1FED0DF11DEF
:101F10009083892FCC55DE4F9883C45AD1400E94BC
:101F2000EF07CC55DE4F9881C45AD140992311F464
:101F30000C943719D3945CE15D15A8F684EB90E01E
:101F40000E94150811C0D1100C94681C1A8281E9F6
:101F500096E00E9415088FE896E00E9415088AE82E
:101F600096E00E941508198288E796E00E941508FD
:101F70006CE171E0CE0101960E94DA07882311F02E
:101F800012601F7E61E271E0CE0101960E94DA07C5
:101F9000882311F000681F7E68E271E0CE0101968F
:101FA0000E94DA078111006262E371E0CE010196BE
:101FB0000E94DA07811118C067E371E0CE01019633
:101FC0000E94DA07811110C06CE371E0CE01019626
:101FD0000E94DA07811108C062E471E0CE01019627
:101FE0000E94DA07882311F018601F7E6DE271E00D
:101FF000CE0101960E94DA07882311F010641F7E3B
:1020000067E471E0CE0101960E94DA07882341F06F
:10201000F11006C0411004C0026001600460106845
:102020006EE471E0CE0101960E94DA07882321F068
:10203000F11001C04110086063E571E0CE01019626
:102040000E94DA0781110E94870967E571E0CE01DD
:1020500001960E94DA07811100616CE571E0CE0102
:1020600001960E94DA07811107C06FE571E0CE0189
:1020700001960E94DA078111006468E671E0CE01E2
:1020800001960E94DA07882369F087E496E00E94AF
:1020900015080E94F0080E94FD0880916F00816081
:1020A00080936F006DE671E0CE0101960E94DA0721
:1020B000882379F086E196E00E94150810921802B4
:1020C0000E94F70880916F008E7F80936F000E94BE
:1020D000F00889818F3F09F04DC0CA808C0D8E3188
:1020E00008F048C0DB80BB24BA94BD0C6FE06B15D0
:1020F00008F440C0AC806C2D80E00E9499056D2DE5
:102100000E949905A81236C086E6C85CDE4F888317
:10211000C853D140C75CDE4FC882C953D140C65CAA
:10212000DE4FD882CA53D14085E0C55CDE4F88833C
:10213000CB53D1401061FC1017C0EFE5F0E0EC0F7D
:10214000FD1FEB0DF11D808181110EC012FD0CC031
:10215000C75ADE4FD882C955D140146031E0C45708
:10216000DE4F3883CC58D14034E0CB57DE4F388334
:10217000C558D1402898898181508E3F20F483E151
:1021800096E00E941508EFBE06FF1AC0EFB6F8945D
:102190000F7B82E096E00E94150887EF95E00E9491
:1021A000150883EE95E00E94150865E470E080E074
:1021B00090E00E9424088FED95E00E941508EFBE84
:1021C00011FF48C1DFB6F8941D7F0E94F0080E94FD
:1021D000F7080E9487098BE193E00E94150888EEBA
:1021E00092E00E941508BE016A587E4FCE0181968A
:1021F0000E94030681110CC082EE92E00E94150835
:1022000084EC92E00E9415088EEB92E00E94150883
:1022100088EB92E00E94150883EA92E00E9415087C
:102220008DE992E00E94150869A1653431F070E0F3
:1022300080E090E00E94240804C086E992E00E94B9
:10224000150883E992E00E9415088DE892E00E944B
:10225000150888E792E00E94150882E792E00E9444
:102260001508CA58DE4F6881C657D140653631F02F
:1022700070E080E090E00E94240804C08BE692E0C9
:102280000E94150888E692E00E94150882E692E016
:102290000E941508CA58DE4F8881C657D14099A1BF
:1022A000891306C0811104C08EE292E00E941508D5
:1022B00089E292E00E94150880EC91E00E941508E6
:1022C0000E94D8088823E1F3282FCC55DE4F2883BD
:1022D000C45AD1400E94EF078DEB91E00E9415088F
:1022E000E12CCC55DE4F2881C45AD1408AEB91E0D5
:1022F000CC55DE4F2883C45AD1400E941508CC55D6
:10230000DE4F2881C45AD140253561F128F42335A8
:1023100051F02435E1F16CC02437C9F1253711F1B2
:10232000233709F065C081EA91E00E9415088BE926
:1023300091E00E941508CA58DE4FC880C657D140A8
:102340000E944F09CA58DE4F8883C657D14085E99D
:1023500091E00E941508CA58DE4F8881C657D140C7
:1023600025E712C08CE791E00E94150886E791E00E
:102370000E941508C9A00E944F0989A380E791E037
:102380000E94150889A123E78C1130C031C0C257C3
:10239000DE4FA880CE58D140A1102AC0CA58DE4FC7
:1023A0008881C657D140882389F089A1882371F09C
:1023B00080E591E0CC55DE4F2883C45AD1400E947D
:1023C0001508CC55DE4F2881C45AD140CA58DE4F7B
:1023D0008881C657D14099A1CA58DE4F1882C65786
:1023E000D14019A2911102C0882311F0EE24E39488
:1023F000CA58DE4F6881C657D14089A131E06111CA
:1024000001C030E091E0811101C090E039136ECF3E
:10241000EE20D9F00E940309CA58DE4F6881C657E2
:10242000D14089A10E94A405882319F08AE291E095
:1024300002C084EF90E00E94150883EE90E00E94B5
:102440001508EE2031F0006104C081EC90E00E949C
:102450001508DFBE07FF98C0AFB6F8940F770E944B
:10246000F0080E94F7088BE094E00E9415088AECBF
:1024700093E00E94150884EC93E00E9415088EEA10
:1024800093E00E9415080E944F09D82E8BEA93E032
:102490000E94150885E993E00E9415080E944F09E3
:1024A000E82E82E993E00E9415088FE893E00E94ED
:1024B000150889E793E00E9415080E944F09B82E7D
:1024C00086E793E00E94150880E693E00E941508D5
:1024D0000E944F09C82E8CE593E00E941508DB107E
:1024E00003C0EC1409F44FC081E293E00E94150888
:1024F0000E94D808982E8823D9F30E94EF07892DCF
:1025000080628A3609F03FC083E6C85CDE4F88836C
:10251000C853D140C75CDE4FD882C953D140C65C96
:10252000DE4FE882CA53D140C55CDE4FB882CB5340
:10253000D140C45CDE4FC882CC53D140D41014C00B
:10254000EF1012C08FEB95E00E941508C45CDE4FBF
:102550006881CC53D140C55CDE4F8881CB53D140DC
:102560000E94030900610BC084E995E00E941508F0
:10257000106135E0CB57DE4F3883C558D14080E934
:1025800095E00E941508AFBE03FF10C08FB7F89406
:10259000077FFE01E15AFF4FCF57DE4F9881C158A8
:1025A000D140905F11929E13FDCF8FBF13FF1BC1CF
:1025B000AFB6F894177F0E94F0080E94F70899813F
:1025C0009936C9F09437B9F09636A9F08FE795E0BF
:1025D0000E9415080E94D808982F9062892FCC5528
:1025E000DE4F9883C45AD1400E94EF07CC55DE4F8E
:1025F0009881C45AD140FE01E85CFE4F9083963624
:1026000041F0993609F460C0943709F464C0B12CE4
:10261000AEC0BB24B3949924939420E735E06F01B6
:10262000C9010E9415080E94D808E82E8823D9F312
:102630000E94EF0740EDE40E0E94D808882E882300
:10264000D9F30E94EF07EE0C9E2D990F990F9E0D66
:102650009053E92EE80C8DE595E00E941508EE20D8
:10266000C9F02E2D30E051E0951619F081E190E08F
:1026700002C08FE190E02817390764F46E2D70E0F6
:1026800080E090E00E942408F601E90DF11DE0824F
:10269000992D06C08BE495E00E94150893E0B12CBB
:1026A00021E635E042E0942E913009F4B9CF85E07F
:1026B000C55CDE4F8883CB53D14034E0CB57DE4F2F
:1026C0003883C558D14053C0908384E6818380E32A
:1026D000828333E045C0C357DE4F8881CD58D14057
:1026E0000E94E706C957DE4F8883C758D1408EE362
:1026F00095E00E941508C957DE4F3881C758D14070
:10270000303819F489E395E010C044E0C957DE4F32
:102710003881C758D140632F772767FD7095872F81
:10272000972F0E949A0886E395E00E94150884E797
:10273000C85CDE4F8883C853D14085E6C75CDE4F56
:102740008883C953D1408DE6C65CDE4F8883CA5367
:10275000D14080E7C55CDE4F8883CB53D14034E065
:10276000CB57DE4F3883C558D140BB24B39482E3A6
:1027700095E00E941508BB2059F11061C85CDE4F3E
:102780008881C853D140863621F5C75CDE4F8881E9
:10279000C953D140F8121DC0C65CDE4F8881CA53B0
:1027A000D140EFE5F0E0EC0FFD1FE80FF11D319790
:1027B000908191110EC0C75ADE4F8883C955D14010
:1027C000146031E0C457DE4F3883CC58D14001C08B
:1027D0001F7E8091C00087FF03C08091C600F9CFA3
:1027E0000E94FD08AFBE16FFC5C15FB7C956DE4FD8
:1027F0005883C759D140F8941F7B0E94870981E014
:1028000095E00E9415088CEE94E00E9415088AED70
:1028100094E00E94150884ED94E00E9415088FE76B
:1028200094E00E9415089E0122583F4FCB56DE4F80
:1028300039832883C559D140235A3F4FCD56DE4FA7
:1028400039832883C359D140225C3F4FCF56DE4F96
:1028500039832883C159D140AE0144545F4F6A0186
:102860002C573109C157DE4F39832883CF58D140C7
:10287000812C912C54018394C157DE4FE880CF58AE
:10288000D140C158DE4F3881CF57D140E31A48E0DC
:102890004E1520F08DE794E00E941508C501B401A3
:1028A0000E9424088AE794E00E941508CF56DE4F64
:1028B000A881B981C159D1407C90711005C086E7CB
:1028C00094E00E94150811C084E794E00E94150866
:1028D000B9E0B71520F082E794E00E941508672D53
:1028E00070E080E090E00E9424088FE694E00E946F
:1028F0001508CD56DE4FE881F981C359D140819149
:10290000CD56DE4FF983E883C359D1406AE00E9477
:10291000E11C792E811105C08AE694E00E94150819
:1029200011C0682F70E080E090E042E00E949A08B9
:1029300088E694E00E941508672D70E080E090E042
:102940000E94240885E694E00E941508CF56DE4FC9
:10295000A881B981C159D1407D90CF56DE4FB9834E
:10296000A883C159D140772029F0F60180810E94C7
:10297000EF0704C083E694E00E94150880E694E027
:102980000E941508C157DE4FA881B981CF58D140A8
:102990006D91C157DE4FB983A883CF58D1406038BD
:1029A00049F0772767FD7095872F972F44E00E94A5
:1029B0009A0809C0772019F08BE594E002C086E5FB
:1029C00094E00E94150883E594E00E941508CB5618
:1029D000DE4FE881F981C559D1407190CB56DE4F69
:1029E000F983E883C559D140772099F0F3E6F715CC
:1029F0001CF080E594E002C08EE494E00E9415088B
:102A0000672D772767FD7095872F972F0E942408E1
:102A100004C089E494E00E9415088E2D63E00E94B2
:102A2000E11C923019F486E494E002C080E494E062
:102A30000E9415082FEFC21AD20A3FEF831A930A99
:102A4000A30AB30A4FE184169104A104B10409F06A
:102A500013CF8BE394E00E941508552021F085E305
:102A600094E00E9415088AE194E00E941508652D03
:102A700070E080E090E00E942408552021F084E17D
:102A800094E00E94150881E194E00E941508DE019F
:102A9000A650BF4F81E0C758DE4F2881C957D140AB
:102AA000225EFE01E75EFE4F90E03191381301C0D7
:102AB0009F5F2E13FACF9D938F5F8F3191F786E141
:102AC00095E00E941508BE0166507F4F6B01812C76
:102AD000912C54018394EC2CCD57DE4F7881C35850
:102AE000D140E71A88E08E1518F080E30E94EF07C6
:102AF000C501B4010E94240883E195E00E941508F5
:102B0000D6016D916D01611105C08FE095E00E94C5
:102B1000150806C070E080E090E043E00E949A084B
:102B20008E2D63E00E94E11C923029F48CE095E048
:102B30000E94150809C0BAE1EB2E8AE095E00E94D8
:102B40001508EA94E110F9CFBFEF8B1A9B0AAB0A84
:102B5000BB0AEFE18E169104A104B10409F0BBCFCA
:102B600087E095E00E941508C956DE4FA880C75936
:102B7000D140AFBE202F2071E22E04FF1AC0F8947E
:102B8000F1100AC0411008C060E081E00E944A05CF
:102B900082E791E00E947C059EE088E10FB6F89400
:102BA000A895809360000FBE909360000E948709F3
:102BB000FFCF05FD0AC014FF60C3C85CDE4F8881EB
:102BC000C853D140893609F011C3DFB6F8940F7DA0
:102BD000BE0166507F4F4E013EE7830E911CCE0131
:102BE00083569F4F9E0124543F4FAE0145525F4F85
:102BF000FE01E75EFE4FA0E8BA2EC758DE4FC88040
:102C0000C957D140AEE1CA0E1192DB011D92BD0140
:102C1000DA011D92AD01D9011D929D01DC01BD9229
:102C2000CD01D4011D924D01CE12EECFF11002C0A4
:102C30004420E9F1C656DE4FE881F981CA59D140F6
:102C4000F08281E0C456DE4FA881B981CC59D140D1
:102C50008C930E947407C256DE4FE881F981CE59E9
:102C6000D1408083211002C08EE601C08AE6C056A2
:102C7000DE4FA881B981C05AD1408C93C957DE4F2D
:102C8000A880C758D140CE55DE4FE881F981C25A9D
:102C9000D140A082EEE7F0E0EC0FFD1FC657DE4FFB
:102CA00028813981CA58D140E20FF31F1082DFBE5C
:102CB000CA57DE4F3881C658D140512C311112C04D
:102CC0008091180290E0C856DE4F48815981C8595A
:102CD000D1404817590734F0CA57DE4F1882C658FA
:102CE000D1400DC014FD8AC2809118028E3708F0C1
:102CF00085C231E0CA57DE4F3883C658D14012FF33
:102D00006EC0DFB6F8941B7FC457DE4F8881CC5865
:102D1000D140815031F0A9E9B9E61197F1F700C02F
:102D2000F8CF23B121704F9922604D9924604E99BC
:102D30002860CC55DE4F2883C45AD1400E948104BC
:102D4000CC55DE4F2881C45AD140222089F1C75A80
:102D5000DE4FC880C955D1408FEF8C0D803140F5D2
:102D600030E180E090E0880F991F3C1101C0816044
:102D70003150C9F7CC55DE4F2883C45AD1400E9448
:102D80009709E9E9F9E63197F1F700C080E090E0B2
:102D90000E949709EFE5F0E0EC0FFD1FEC0DF11D2F
:102DA000319781E08083CC55DE4F2881C45AD140D1
:102DB000CC55DE4F2883C45AD1400E948604CC559E
:102DC000DE4F2881C45AD14020FD289A21FD5F9A08
:102DD00022FD5D9A23FD5E9A0E94130ADFBE2A98A7
:102DE00060E08FEF98E20E94D5092A9A82FF03C023
:102DF0008095817001C080E080FB15F915FF86C1C8
:102E0000CFB6F8941F7D5D9A60E08FEF9FE60E9439
:102E1000D509882399F060E08FEF94E20E94D509EC
:102E2000D82E0E94ED092A9880E00E94CF098FEFEA
:102E30000E94CF098F31D0F08EE118C061E081E0AF
:102E400093E20E94D509812C912C6BE4A62EB12C23
:102E500060E08FEF93E20E94D50981FDDCCFF1E0C5
:102E60008F1A9108A108B10899F7D5CF89A3BB247F
:102E7000B39489A18B1560F08FEF0E94CF09E1E236
:102E8000F0E0EC0FFD1FEB0DF11D8083B394F1CF4B
:102E90002A9A89A18E3108F08DE1DE019296FE0119
:102EA000E95AFE4F9E2FC958DE4FA880C757D14020
:102EB0009A19981718F49D919193F4CFE7E5F1E0F2
:102EC000EC0FFD1FE80FF11D108261E080E198E238
:102ED0000E94D5090E94130A5D98C95ADE4F888165
:102EE000C755D140893609F445C030F4833609F41A
:102EF000E1C08636B1F007C1803709F485C0843758
:102F000009F001C10E946004C357DE4F8883CD5889
:102F1000D1400E94E706C957DE4F8883C758D14089
:102F2000F2C0C85ADE4F8881C855D1408F11EBC01E
:102F3000F11003C0442009F4E6C0C75ADE4F88816F
:102F4000C955D1408150EFE5F0E0EC0FFD1FE80FCF
:102F5000F11D80818111D7C012FDD5C01460C65A01
:102F6000DE4F3881CA55D140C457DE4F3883CC5824
:102F7000D140C9C080E7C85CDE4F8883C853D140C8
:102F8000C75CDE4F4882C953D140C65CDE4FF88231
:102F9000CA53D140F11002C0442019F00E947407B6
:102FA00001C082E3C55CDE4F8883CB53D140F11072
:102FB00001C04110E22CC45CDE4FE882CC53D1400A
:102FC000C957DE4FA880C758D140C35CDE4FA882E6
:102FD000CD53D1400E94F0081092180280916F00EA
:102FE000816080936F000E94FD081061086000629C
:102FF000CA57DE4F1882C658D14036E0CB57DE4F55
:103000003883C558D1407FC0C85ADE4F8881C85523
:10301000D140853469F0882359F0841549F0E9E1FD
:10302000F1E0EC0FFD1FE80FF11D9081992311F0E5
:10303000539469C0815090E0E9E1F1E0EC0FFD1F8D
:10304000E80FF91FC75ADE4F2881C955D1402083A8
:10305000EBEDF0E0EC0FFD1FE80FF91FC65ADE4F55
:103060002881CA55D1402083C55ADE4F2881CB55CF
:10307000D140211102C02EE601C02AE6ECEBF0E0BF
:10308000EC0FFD1FE80FF91F2083EDE9F0E0EC0FD6
:10309000FD1FE80FF91FC45ADE4F2881CC55D140DF
:1030A0002083EEE7F0E0EC0FFD1FE80FF91FD69448
:1030B000D08229C0211027C0C85ADE4F8881C85548
:1030C000D140481220C0C75ADE4F8881C955D1402F
:1030D000F81219C0C65ADE4F8881CA55D140C55A68
:1030E000DE4F6881CB55D1409FEF980F9E3158F449
:1030F0009FEF960F9E3138F4841102C06F1519F0BE
:103100000E940309006110680260CFBEF1100C94A8
:10311000350F41100C94350F80911D0290911E02C5
:103120008C3F910578F480911B0290911C028C3F9A
:10313000910540F48091190290911A02823F9240C9
:1031400008F4A4C017FDA2C0EFB6F89480911D0248
:1031500090911E028C3F910540F480911B0290914A
:103160001C028C3F910520F112C010921E02109299
:103170001D0261E081E00E942A0554E1D52E89EB11
:1031800091E00E947C05DA94D110F9CFE6CF10923D
:103190001C0210921B0261E082E00E942A0544E1B9
:1031A000D42E89EB91E00E947C05DA94D110F9CFFE
:1031B0008091190290911A02823F9240A8F01092D9
:1031C0001A021092190261E083E00E942A0534E19C
:1031D000D32E88EB91E00E947C05DA94D110F9CFD0
:1031E00023E0322E66246394EFBE50C0CA57DE4FF0
:1031F0003881C658D140332309F462CDDFB6F89444
:103200001F7E5F9A5E0158ECA51A5EEFB50ACB5798
:10321000DE4F6881C558D140C5010E94440AD501DE
:103220008C91863679F05F98809118028D37C8F4BA
:103230000E94F7080E94F00880916F008E7F8093B3
:103240006F000FC0F501838181508383882359F378
:10325000CB57DE4F6881C558D140C5010E94440A52
:10326000F1CF1092180210680160DFBE42CDDD2060
:1032700011F40C94A70F0C949E0FCA57DE4FA88030
:10328000C658D140AA2009F41BCD2ECD17FD02C08F
:103290000C94350FEFB6F8941F7700FFDDC161E0A5
:1032A00081E00E942A0584E891E00E947C05C85CC8
:1032B000DE4FE881C853D1408E2F90E0FC01E156EB
:1032C000F109E431F10508F0C0C1EC5CFF4F0C944A
:1032D000201D61E080E00E944A0589E891E00E949B
:1032E0007C05C75CDE4F6881C953D14070E080E047
:1032F00090E022E0AE01405C5F4F0E946F1CCE0167
:10330000805C9F4F0E947C058CE891E00E947C05C8
:10331000C65CDE4F6881CA53D14070E080E090E027
:1033200022E0AE01405C5F4F0E946F1CCE01805CCA
:103330009F4F0E947C0584EB91E00E947C0502FD7A
:1033400026C1C857DE4F6881C858D140C757DE4FE5
:103350008881C958D1400E942A0589EB91E00E94DA
:103360007C05662D832D0E942A0580E991E00E944C
:103370007C05C75CDE4F6881C953D14070E080E0B6
:1033800090E022E0AE01405C5F4F0E946F1CCE01D6
:10339000805C9F4F0E947C0561E080E00E944A05AE
:1033A000C65CDE4F6881CA53D14070E080E090E097
:1033B00022E0AE01405C5F4F0E946F1CCE01805C3A
:1033C0009F4FC4C082E991E00E947C0502FDDFC0EE
:1033D000C857DE4F6881C858D140C757DE4F888133
:1033E000C958D1400E942A0589EB91E00E947C05D2
:1033F000662D832D0E942A0583EA91E0A7C08AEA00
:1034000091E021C18BEE91E00E947C05C75CDE4F0C
:103410006881C953D14070E080E090E022E0AE01C5
:10342000405C5F4F0E946F1CCE01805C9F4F0E94EA
:103430007C0589E891E00E947C05C65CDE4F6881CE
:10344000CA53D14070E080E090E022E0AE01405CE1
:103450005F4F0E946F1CCE01805C9F4F0E947C05D5
:1034600089EB91E00E947C05C55CDE4F8881CB53DF
:10347000D140843620F489EB91E00E947C05C55C44
:10348000DE4F8881CB53D1409AE0D92E6D2D0E941A
:10349000E11C682F70E080E090E021E0AE01405C2C
:1034A0005F4F0E946F1CCE01805C9F4F0E947C0585
:1034B0008BEB91E00E947C05C55CDE4F8881CB538D
:1034C000D1406D2D0E94E11C692F70E080E090E0FA
:1034D00021E0AE01405C5F4F0E946F1CCE01805C1A
:1034E0009F4F0E947C058DEB91E00E947C05C45C9F
:1034F000DE4F8881CC53D140811102C08EE601C0DD
:103500008AE661E00E944A0588EB91E09CC080EC6D
:1035100091E099C081ED91E00E947C0502FD37C0E9
:10352000C857DE4F6881C858D140C757DE4F8881E1
:10353000C958D1400E942A0589EB91E00E947C0580
:10354000662D832D0E942A0582EE91E00E947C0563
:1035500087E0860D21E0863108F420E0230D65E147
:103560000E94E11C253008F023E041E050E0509338
:103570001A0240931902C757DE4F3882C958D1400A
:10358000C857DE4F6882C858D140322E692E0B7F53
:103590005CC08BEE91E00E947C05C75CDE4F6881C9
:1035A000C953D14070E080E090E022E0AE01405C81
:1035B0005F4F0E946F1CCE01805C9F4F0E947C0574
:1035C00089E891E00E947C05C65CDE4F6881CA53A1
:1035D000D14070E080E090E022E0AE01405C5F4FBF
:1035E0000E946F1CCE01805C9F4F0E947C0589EE7B
:1035F00091E00E947C05C55CDE4F6881CB53D140D1
:1036000070E080E090E022E0AE01405C5F4F0E94FD
:103610006F1CCE01805C9F4F0E947C0589E891E081
:103620000E947C05C45CDE4F6881CC53D14070E0C1
:1036300080E090E022E0AE01405C5F4F0E946F1C92
:10364000CE01805C9F4F0E947C050E7F81E090E060
:1036500090931E0280931D0201FF37C161E082E05A
:103660000E942A058DEE91E00E947C05C95ADE4F2A
:10367000E881C755D1408E2F90E0FC01E156F10959
:10368000E231F10508F01AC1E85BFF4F0C94201DF0
:1036900082EF91E011C161E080E00E944A0589E873
:1036A00091E00E947C05C85ADE4F6881C855D14020
:1036B00070E080E090E022E0AE01405C5F4F0E944D
:1036C0006F1CCE01805C9F4F0E947C058CE891E0CE
:1036D0000E947C05C75ADE4F6881C955D14070E011
:1036E00080E090E022E0AE01405C5F4F0E946F1CE2
:1036F000CE01805C9F4F0E947C0584EB91E0DCC092
:1037000082E991E0D9C086EF91E0D6C087E092E0EF
:10371000D3C08BEE91E00E947C05C85ADE4F6881D1
:10372000C855D14070E080E090E022E0AE01405CFE
:103730005F4F0E946F1CCE01805C9F4F0E947C05F2
:1037400089E891E00E947C05C75ADE4F6881C9551F
:10375000D14070E080E090E022E0AE01405C5F4F3D
:103760000E946F1CCE01805C9F4F0E947C0589EBFC
:1037700091E00E947C05C65ADE4FD880CA55D140E0
:1037800063E66D1520F089EB91E00E947C058D2D9C
:103790006AE00E94E11CD92E682F70E080E090E082
:1037A00021E0AE01405C5F4F0E946F1CCE01805C47
:1037B0009F4F0E947C058BEB91E00E947C056D2D54
:1037C00070E080E090E021E0AE01405C5F4F0E943D
:1037D0006F1CCE01805C9F4F0E947C058DEB91E0B9
:1037E0000E947C05C55ADE4F8881CB55D14081119E
:1037F00002C08EE601C08AE661E00E944A0588EBBD
:1038000091E05AC08BEE91E00E947C05C85ADE4FD1
:103810006881C855D14070E080E090E022E0AE01C0
:10382000405C5F4F0E946F1CCE01805C9F4F0E94E6
:103830007C0589E891E00E947C05C75ADE4F6881CB
:10384000C955D14070E080E090E022E0AE01405CDC
:103850005F4F0E946F1CCE01805C9F4F0E947C05D1
:1038600089EE91E00E947C05C65ADE4F6881CA55F8
:10387000D14070E080E090E022E0AE01405C5F4F1C
:103880000E946F1CCE01805C9F4F0E947C0589E8DE
:1038900091E00E947C05C55ADE4F6881CB55D1402E
:1038A00070E080E090E022E0AE01405C5F4F0E945B
:1038B0006F1CCE01805C9F4F0E947C050D7F81E0D4
:1038C00090E090931C0280931B02EFBE0C94350F86
:1038D000DA9487EB90E00E9415080C949B0F4F92AE
:1038E0005F926F927F929F92AF92BF92CF92DF9240
:1038F000EF92FF920F931F93CF93DF936B017C01A5
:103900005A01D22F97FF0EC08DE2FA018083F09406
:10391000E094D094C094C11CD11CE11CF11C9924EA
:10392000939401C0912CD11101C0D1E0A70196015F
:10393000C1E09AE0492E512C612C712CCA01B901C9
:10394000A30192010E94011D211531054105510578
:1039500011F0CF5FF3CFCD1708F4CD2FDC2FD90DA9
:103960008AE0482E512C612C712C8D2F90E0D915B6
:1039700091F08A0D9B1D8C0101501109C701B60100
:10398000A30192010E94011D605DF801608369013D
:103990007A01D150EACFAC0EB11CF501E80FF91F46
:1039A0001082DF91CF911F910F91FF90EF90DF90E8
:1039B000CF90BF90AF909F907F906F905F904F900F
:1039C0000895991B79E004C0991F961708F0961B7B
:1039D000881F7A95C9F78095089597FB072E16F4EE
:1039E000009407D077FD09D00E94261D07FC05D062
:1039F0003EF4909581959F4F0895709561957F4F06
:103A00000895052E97FB1EF400940E94181D57FD83
:103A100007D00E943A1D07FC03D04EF40C94181DE9
:103A200050954095309521953F4F4F4F5F4F0895EA
:103A300090958095709561957F4F8F4F9F4F08951A
:103A4000EE0FFF1F0590F491E02D0994AA1BBB1BFC
:103A500051E107C0AA1FBB1FA617B70710F0A61B8E
:103A6000B70B881F991F5A95A9F780959095BC01AF
:103A7000CD010895A1E21A2EAA1BBB1BFD010DC0AA
:103A8000AA1FBB1FEE1FFF1FA217B307E407F5070E
:103A900020F0A21BB30BE40BF50B661F771F881FEA
:103AA000991F1A9469F760957095809590959B0180
:0C3AB000AC01BD01CF010895F894FFCFD8
:103ABC002020456C204675657261646F726F202002
:103ACC00005555555555555555555500636F6E66F2
:103ADC000072656D6F746500636C6561726C6973FF
:103AEC00740073656E640066697265006964656E66
:103AFC00740074656D70006F7264657273007A6522
:103B0C00726F00636C73006B696C6C006877006893
:103B1C006172647761726500696E743100696E74EC
:103B2C003000526573657474696E672064657669DC
:103B3C006365210054783A2000205300204348004C
:103B4C0078004964656E74696679202020202020F5
:103B5C00202000784944454E54004F4B2020202013
:103B6C0020202020202020202020002E0056200065
:103B7C005265706561742020202020202020202098
:103B8C000054656D7065726174757265202020201B
:103B9C0020007854454D5020002D3E550052783A67
:103BAC0020004F4B20004552522020202020202066
:103BBC002020202020200052455020202020202092
:083BCC00202020202020200011
:00000001FF
