:1000000081C400009BC4000099C4000097C4000094
:1000100095C400000C94AE0891C400008FC4000089
:100020008DC400008BC4000089C400000C94BF087C
:1000300085C4000083C4000081C400007FC40000A8
:100040007DC400007BC4000079C4000077C40000B8
:1000500075C4000073C4000071C400006FC40000C8
:100060006DC400006BC400000A0D001B5B3144200E
:100070001B5B3144000D0A000D0A417573776168FE
:100080006C3A202845292D416E7AC3BC6E64657296
:100090002C202846296C616D65722C20285429611A
:1000A0006C6F6E2C2041626272756368206D69749A
:1000B00020616E64657265722054617374653A20C4
:1000C00000452D414E5AC39C4E44455220283230A3
:1000D000206D732900464C414D4552202833353060
:1000E000206D73290054414C4F4E2028322E343558
:1000F000207329000D0A4465727A65697420656968
:100100006E67657374656C6C74657320416E7AC339
:10011000BC6E646D697474656C0D0A3D3D3D3D3D7A
:100120003D3D3D3D3D3D3D3D3D3D3D3D3D3D3D3DFF
:100130003D3D3D3D3D3D3D3D3D3D3D3D3D0D0A0A85
:10014000005665727363686CC3BC7373656C756EBF
:1001500067206E6963687420616B74697669657283
:100160007421000D0A4B65696E6520C3846E646559
:1001700072756E67656E2067657370656963686523
:100180007274210D0A0A000D0A4572666F6C67725F
:100190006569636820676573706569636865727413
:1001A0002C2044657669636520737461727465748C
:1001B000206E6575210D0A0A000D0A446965736594
:1001C0006E205363686CC3BC7373656C2073706579
:1001D00069636865726E20286A2F6E293F200020AF
:1001E000000D0A4162627275636820776567656E0B
:1001F00020756E7A756CC3A4737369676572204548
:10020000696E67616265210D0A4B65696E6520C381
:10021000846E646572756E67656E20676573706560
:10022000696368657274210D0A0A000D0A0A4E6539
:10023000756572205363686CC3BC7373656C3A2038
:10024000000A0D000D0A0A4E6575656E20285329B7
:1002500063686CC3BC7373656C2065696E676562A7
:10026000656E2C2041626272756368206D6974202E
:1002700062656C6965626967657220616E6465724A
:10028000657220546173746521200020000D0A53AB
:1002900063686CC3BC7373656C206C742E20454519
:1002A00050524F4D3A202020200020005665727396
:1002B00063686CC3BC7373656C756E6720616B7427
:1002C000697669657274210D0A5363686CC3BC73E7
:1002D00073656C206C742E2046756E6B6D6F647543
:1002E0006C3A20000A0D416B7475656C6C65204595
:1002F000696E7374656C6C756E673A20003D3D3DA8
:100300003D3D3D3D3D3D3D3D3D3D3D3D3D3D3D3D1D
:100310003D3D3D3D3D3D3D3D3D3D3D3D3D3D0A0D70
:10032000000A0D4B6F6E66696775726174696F6E56
:1003300020646572205665727363686CC3BC737306
:10034000656C756E670A0D000A0D4B65696E652058
:10035000C3846E646572756E6720766F7267656EB2
:100360006F6D6D656E0A0A0D000A0D4E657573742A
:100370006172742E2E2E0A0A0D004665686C657235
:10038000212042697474652065726E6575742076EB
:10039000657273756368656E210A0D000A0A0DC3E4
:1003A000846E646572756E67206572666F6C6772C5
:1003B00065696368210A0D001B5B33376D001B5BA9
:1003C00033316D002C20454E544552203D20616C48
:1003D0007465722057657274293A20003530000A1E
:1003E0000D4E65756520536C6176652D4944202856
:1003F00030312D001B5B33376D001B5B33316D00DB
:100400002C20454E544552203D20616C746572206D
:1004100057657274293A20003530004E65756520A5
:10042000556E697175652D4944202830312D000ABB
:100430000D000A0D00284929447320C3A46E646589
:10044000726E2C2041626272756368206D6974203F
:1004500062656C6965626967657220616E64657268
:1004600065722054617374652120000A0A0A0D0028
:100470001B5B33376D000A0D004645484C45520062
:100480001B5B33316D00416B7475656C6C6520537B
:100490006C6176652D49443A2020001B5B33376D33
:1004A000000A0D004645484C4552001B5B33316D38
:1004B000000A0A0D416B7475656C6C6520556E6998
:1004C0007175652D49443A20000A0D416E676573C8
:1004D00063686C6F7373656E6573204465766963DA
:1004E000653A20001B5B33376D001B5B33376D00B3
:1004F0000A0D4665686C6572206265696D20494425
:100500002D4C6164656E0A0D001B5B33316D000A72
:100510004B6F6E66696775726174696F6E73707226
:100520006F6772616D6D0A0D3D3D3D3D3D3D3D3D49
:100530003D3D3D3D3D3D3D3D3D3D3D3D3D3D0A0D4E
:10054000001B5B33336D0049442D57656368736549
:100550006C206D6974206A2062657374C3A4746929
:1005600067656E2C2061626272656368656E206DDE
:10057000697420616E64657265722054617374657C
:100580002120000A0A0D004E65756520536C6176C6
:10059000652D49443A20202020202020000A0D000B
:1005A0004E65756520556E697175652D49443A2013
:1005B0002020202020000A0D000A0D0042697368E7
:1005C000657269676520536C6176652D49443A20F0
:1005D00020000A0D004269736865726967652055DD
:1005E0006E697175652D49443A20001B5B33376D88
:1005F000000A0A52656D6F74652D4B6F6E666967F0
:1006000075726174696F6E7370726F6772616D6D10
:100610000A0D3D3D3D3D3D3D3D3D3D3D3D3D3D3D6D
:100620003D3D3D3D3D3D3D3D3D3D3D3D3D3D3D0A2D
:100630000D001B5B33336D000A0D000A0D46656823
:100640006C657268616674652F646F7070656C7438
:1006500065204944733A200009000A0D002D2D2D14
:100660002D002D00200020002C20002C20002D2DFE
:100670002D2D006E2E612E002C20002D002C200030
:100680002E002D2D2D2D002C2000300020002D2D92
:100690002D003A200030000A0D556E697175652DE8
:1006A00049443A20536C6176652D49442C204261BF
:1006B0007474657269657370616E6E756E672028FB
:1006C00056292C205363686172663F2C2054656D57
:1006D000706572617475722028C2B043292C204B5A
:1006E000616E616C7A61686C2C20525353492028EA
:1006F00064426D290A0D001B5B33376D003D3D3DA3
:100700003D3D3D3D3D3D3D3D3D3D3D3D0A0D000AEC
:100710000D53797374656DC3BC62657273696368E8
:10072000740A0D001B5B33336D000A0A0D000920AB
:100730000920092009000A0D002D2D2D003A200066
:100740000A0D536C6176652D49443A20416E7A61F9
:10075000686C20426F78656E0A0D000A0A0D4465C8
:100760007669636520776972642061626765736387
:1007700068616C7465740A0D000A0A0D00C2B0430A
:10078000006E2E612E0054656D7065726174757215
:100790003A2000556E67C3BC6C7469676520456973
:1007A0006E6761626500203D20000A0D4B616E613D
:1007B0006C3A20200900536C6176652D49443A0952
:1007C000000D0A000A0D4D6F64757328662F692F9E
:1007D00074293A20000A0A0D000A0D49442D4B6F76
:1007E0006E66696775726174696F6E73626566655E
:1007F000686C207769726420676573656E646574E0
:10080000210A0D000A0D4944732077657264656EF4
:10081000206C6F6B616C20616E67657061737374BF
:10082000210A0D000A0A0D0032313536003230320D
:1008300032303131320044617465636F6465200089
:100840000A0D004357000A0D52464D0061746D6554
:10085000676133323870000A0D000A0D000D0A0A74
:100860000A000D0A004F6666656E002020202000F9
:1008700020003D3D3D3D3D3D3D3D3D3D3D3D3D3D02
:100880003D3D3D3D3D3D3D3D3D3D3D3D0A0D4B61C9
:100890006E616C2057696465727374616E640D0AD1
:1008A000000A0A0D47656D657373656E65204B61BF
:1008B0006E616C77696465727374C3A46E64650A53
:1008C0000D000A0D00202D2D3E203A203078001B0F
:1008D0005B31440020001B5B3144001B5D303B4515
:1008E0004C204655455241444F524F07001B5B3345
:1008F0004A001B5B303B3048001B5B324A002D0036
:100900003000200011241FBECFEFD8E0DEBFCDBFE6
:1009100012E0A0E0B1E0E0E1F0E402C005900D9249
:10092000A033B107D9F722E0A0E3B2E001C01D92E5
:10093000A134B207E1F7ABD40C94F41F61CB9FEB69
:10094000980F9A3130F0843C21F0863D11F08C3DB7
:1009500009F480620895FC01DB018C919081811182
:1009600004C081E0911105C0089531961196891750
:10097000A1F380E0F9CF4AE350EC68EA70E041501F
:1009800051096109710921F09091C00095FFF7CFDD
:100990008093C60080E00895CF93DF93EC01FE01C1
:1009A00084912196882319F0E6DF8823C1F3DF9133
:1009B000CF9108958F929F92AF92BF92EF92FF9244
:1009C0000F931F93CF93DF93CDB7DEB7A1970FB6E9
:1009D000F894DEBF0FBECDBF1A821982FE01339696
:1009E0002FE1DF011D922A95E9F74836D9F510E08D
:1009F00011C0E1E0F0E0EC0FFD1FE10FF11D262F2B
:100A00002F70208344E095958795779567954A9553
:100A1000D1F71F5F611571058105910551F711230C
:100A200041F310FD1F5F111111C0A1960FB6F8948C
:100A3000DEBF0FBECDBFDF91CF911F910F91FF9011
:100A4000EF90BF90AF909F908F900895FE01E10FBF
:100A5000F11D80818A3020F0895C8DDF1150E3CF59
:100A6000805DFBCF611571058105910521F480E062
:100A700099E092DFDACF00E097FF08C0909580956B
:100A8000709561957F4F8F4F9F4F01E010E03AE0E6
:100A9000832E912CA12CB12C611571058105910536
:100AA00011F0113281F4002319F08EEF98E074DF19
:100AB000112309F4BACFFE01E10FF11D8081805DA1
:100AC0005ADF1150F5CFEE24E394F12CEC0EFD1E0D
:100AD000E10EF11CA50194010E94821FF7016083C1
:100AE000B901CA011F5FD8CFCF92DF92EF92FF9278
:100AF000CF93DF93CDB7DEB72A970FB6F894DEBF5A
:100B00000FBECDBF69837A838B839C83498789819C
:100B10009A81AB81BC818D839E83AF83B8871A860F
:100B20008AE0C82ED12CE12CF12C8D819E81AF81E1
:100B3000B885892B8A2B8B2B01F589819A81AB8112
:100B4000BC81B7FF03C0998591509987AA85B98563
:100B5000BA1718F544E669817A818B819C812ADF76
:100B60002A960FB6F894DEBF0FBECDBFDF91CF91AE
:100B7000FF90EF90DF90CF9008956D817E818F81FF
:100B80009885A70196010E94821F2D833E834F8383
:100B900058879A859F5F9A87C8CF89859A85891BD0
:100BA0008D83BD81BB23B1F282E099E0F5DEAD819A
:100BB000A150AD83F6CFCF93DF93EC0190E0888115
:100BC000882311F0992319F0DF91CF910895219690
:100BD000D2DE982FF4CF8AE390ECA8EAB0E0019738
:100BE000A109B10939F02091C00027FFF8CF809109
:100BF000C600089580E00895CF93DF93ECDFC82FFF
:100C00008A3029F4DFEF8D2FDF91CF9108958D3059
:100C1000C9F380ED8C0F863088F78C2FACDE8AE02C
:100C2000C89FC02D1124C051D6DF8A3059F38D30B2
:100C300049F3D82FDC0F9FEF9D0F9233A8F79BDE6F
:100C4000E2CF89EF98E0A8DE82EF98E0A5DE8DEE96
:100C500098E0A2DE8BED98E09FCE2B982D984198DE
:100C60006EBD0DB407FEFDCF82E086B986B908954A
:100C70008EBD0DB407FEFDCF8EB50895CF9343987A
:100C800087E2F6DF80E0F4DFC82F80E0F1DF439AEF
:100C90009C2FCF910895CF93C82F892F662361F0A1
:100CA00080682D982B984398E3DF8C2FE1DF439ADF
:100CB0002B982D98CF9108958F77CFEFF2CF61E0E9
:100CC0008BE193E1E8DF61E085E59AE5E4DF61E04F
:100CD00080E79CE5E0CFCF92DF92EF92FF9261E058
:100CE00084E091E0D8DF8DE1C82E80E6D82E84E53F
:100CF000E82EF12C81E0C81AD108E108F10831F0A2
:100D000060E08FEF97E2C7DF87FFF4CF81E0CD2867
:100D1000CE28CF2809F080E0FF90EF90DF90CF90B1
:100D20000895CF92DF92EF92FF92C9DF60E08FEFDC
:100D30009DE3B1DF90E061E084609D63ACDF61E042
:100D400080E191E0A8DF8DE1C82E80E6D82E84E511
:100D5000E82EF12C81E0C81AD108E108F10831F041
:100D600060E08FEF97E297DF87FFF4CF81E0CD2837
:100D7000CE28CF2809F080E0FF90EF90DF90CF9051
:100D800008957CDF82FD0DC092FF10C060E08FEF00
:100D90009DE381DF90E061E084609D637CDF82E021
:100DA00008958095909581709927089580E0089521
:100DB0005D9A5F9A5E9A289A08955D985F985E980A
:100DC000289808955D9A08955F9A08955E9A089507
:100DD000289A08959B01F999FECF32BD21BD80BDAF
:100DE000FA9AF99A12BC11BC08959C01F999FECFA8
:100DF00032BD21BDF89A80B512BC11BC089586277A
:100E000098E02CE8382F3170869531118227915067
:100E1000C9F70895B0E0A0E0E0E1F7E00C94B71F57
:100E2000082F162FB82EB60E682F80E1E8DFE82EC7
:100E3000612F80E1E4DFC82E612F8E2DE0DFD82EF8
:100E400088E1F82ECF2DD0E0BE01802FC3DFBE0198
:100E50006F5F7F4F812FBEDFBE016E5F7F4F8B2D97
:100E6000B9DFBE016D5F7F4F8E2DB4DFBE016C5FB9
:100E70007F4F8C2DAFDFBE016B5F7F4F8D2DAADFC3
:100E800084E2F80E84E8F812DDCFCDB7DEB7E9E0F2
:100E90000C94D31FB0E0A0E0E0E5F7E00C94B51FA0
:100EA000D82FC62F88E1F82E9D2E960E0F2D10E01C
:100EB000C8019BDFA82EC801019697DFB82EC80194
:100EC000029693DFC82EC80103968FDFE82EC80173
:100ED00004968BDFD82EC801059687DF182FAD1238
:100EE00013C0BC1211C0C9100FC06D2F80E187DF85
:100EF000E8120AC06C2F80E182DFD81205C06C2F87
:100F00008E2D7DDF181759F084E2F80E84E8F81270
:100F1000CDCF80E0CDB7DEB7EBE00C94D11F81E000
:100F2000F9CFB0E0A0E0E7E9F7E00C94B51F7C0151
:100F30006B0100E084E2982E099D50011124C50147
:100F4000489653DFC82FC50149964FDFD82F682F29
:100F50008C2FA0DF182F882391F188E190E045DFE6
:100F6000182F8CE390E041DF1817F1F088E190E052
:100F70003CDF182F80E690E038DF181315C089E1B8
:100F800090E033DF182F8DE390E02FDF18130CC0B3
:100F900089E190E02ADF182F81E690E026DF181320
:100FA00003C06D2F8C2F36DFF701C083F601D0838D
:100FB00011E0812FCDB7DEB7EBE00C94D11F0230EA
:100FC00061F46D2F8C2F66DF811107C085E4F70176
:100FD000808385E6F6018083ECCF0F5F033009F054
:100FE000ABCFE7CF20917C00287F20937C009091AD
:100FF0007C00982B90937C0029E090E080E0309179
:101000007A00306430937A0030917A0036FDFCCF5C
:101010004091780050917900840F951F293011F488
:1010200090E080E0215059F723E0969587952A9526
:10103000E1F70895219A9BE09A95F1F7000081115C
:10104000219898E29A95F1F700C0199B80E099EAFF
:101050009A95F1F700C0219897E09A95F1F700C0B2
:101060000895CF93DF93C82FD8E08C2F8170E2DFF3
:10107000C6958111C068D150C1F78C2FDF91CF91F7
:1010800008952998219A86E695E00197F1F70000E6
:10109000219893EF9A95F1F7000083B1EFEAF4E01D
:1010A0003197F1F700C00000869581700895CF92C6
:1010B000DF92EF92FF92CF93DF93882309F44CC025
:1010C000E0DF8CECCEDF8EE4CCDF8DE7CADF88ED8D
:1010D000C8DF8FE1C6DFD5DF8CECC3DF84E4C1DF7E
:1010E00050E8C52E51E5D52EEE24E394F12C81E095
:1010F000C81AD108E108F10821F081E09BDF8823BC
:10110000B1F3BFDF8CECADDF8EEBABDF8FEFA9DF90
:10111000C82FD0E08FEFA5DF90E0982F88278C0FA5
:101120009D1F9C012227387F232BA1F0919581954B
:1011300091092FEF089634E0969587953A95E1F757
:10114000829F802D1124DF91CF91FF90EF90DF904F
:10115000CF90089521E0EECF80E8F5CF1F921FB623
:101160001F9211248F9380914002811103C081E06E
:10117000809340028F911F901FBE1F9018951F9261
:101180001FB61F9211242F938F939F93AF93BF93FA
:1011900080913F028F5F8D3708F042C080933F02FD
:1011A00080913A02813071F4809138029091390235
:1011B0000196853F21E0920708F061C090933902C3
:1011C000809338028091370281FF09C080913502F7
:1011D0009091360201969093360280933502809169
:1011E000310290913202A0913302B0913402892BE6
:1011F0008A2B8B2B19F081E0809330028091400282
:10120000882329F080913702846080933702BF9150
:10121000AF919F918F912F911F901FBE1F90189596
:1012200010923F0280913E028111BACF80913C0220
:1012300090913D02039748F080913C0290913D02CD
:101240004597A8F482E080933E0280913C02909101
:101250003D02892B89F480913B028F5F80933B0292
:10126000893038F410923D0210923C0299CF84E00C
:10127000EACF8FEF80933E0210923B02F3CF1092A1
:1012800039021092380282E080933A029BCFCDB7A8
:10129000DEB7C959D2400FB6F894DEBF0FBECDBF3E
:1012A000409A389A0FB6F894A895809160008861AA
:1012B00080936000109260000FBE42983A9A7E01BF
:1012C00022ECE21A2DEFF20A80E1D7011D928A95F5
:1012D000E9F76E01B1E9CB1ABDEFDB0AF601108226
:1012E000BE0160597D4FDB011C9211961C929E013C
:1012F0002E583D4FF9011082AE014D585D4FFA0155
:101300001082CE018C589D4FFC01108210E0EB5DE5
:10131000F1091192119208E211920A95E9F7FE0182
:10132000E451FE4F1192119207E2402E11924A941D
:10133000E9F7FE01EB5EFD4F1192119211920A95B1
:10134000E9F75E01FAE9AF1AFEEFBF0AF501119263
:10135000119201E311920A95E9F7C05ADD4F198203
:101360001882C056D240CE59DD4F19821882C2561B
:10137000D240CC59DD4F19821882C456D240CA5986
:10138000DD4F19821882C656D240C25BDD4FD9822A
:10139000C882CE54D240C05BDD4F79836883C0558C
:1013A000D240CE5ADD4FB983A883C255D24066E001
:1013B000E0E0F1E05D9701900D926A95E1F76090B1
:1013C00028027090290280902A02C859DD4F688255
:1013D00079828A82C856D24060902C0270902D0289
:1013E00080902E02C559DD4F688279828A82CB5661
:1013F000D240C65ADD4F59834883CA55D240C45A99
:10140000DD4F39832883CC55D240C25ADD4F9983B2
:101410008883CE55D2402A9A239A229A399A259ABD
:101420002B9841982D9893E020E232E08CE023B98C
:1014300023B98150E1F736B936B99150B9F78CEC40
:101440009AE00197F1F700C000002A980CB406FC5E
:1014500003C08CB581658CBD80916400806C8093E5
:10146000640080B7806880BF8FEF95E39093890018
:1014700080938800809181008860809381008091B2
:101480006F00826080936F00809181008260809302
:1014900081002898209A5E98569A5F98579A5D988E
:1014A000559A80B7806880BF80917C00856C80935E
:1014B0007C0080917A00866080937A0080917A0027
:1014C000806880937A0080917A00806480937A00AB
:1014D00080917A00082F007486FDFACF8091780001
:1014E0009091790082E3CD53DE4F8883C35CD14075
:1014F0008983BE016D537E4FCE01019612DD8111AD
:1015000001C056DCCD53DE4F8880C35CD14049809A
:10151000C358DD4F4882CD57D240442009F495C3CB
:10152000882009F49AC38DE691E05FDCC258DD4F54
:101530008883CE57D240853F71F0833261F082308C
:1015400051F06DE671E082E045DC42E0C258DD4FCB
:101550004883CE57D24020E031E0822F90E0E9E985
:10156000F1E0EC0FFD1FE80FF91F3083E5E1F2E039
:10157000EC0FFD1FE80FF91F10826CEE71E06C0F8D
:101580007D1F860F971FDC011C922F5F283229F7E1
:1015900097E080E8E1E0F0E0EC0FFD1F909FE00DA8
:1015A000F11D112410821182128283838583168299
:1015B0000F5F023379F704E088E090E0A0E0B0E04C
:1015C000202F2150330BF901EE0FFF1FEE0FFF1FED
:1015D000EE0DFF1D80839183A283B383B695A795FB
:1015E00097958795015061F75A9A52985C9A54984A
:1015F0005B9A539880916800846080936800809122
:101600006D00846080936D0080916D008061809397
:101610006D0080916D00886080936D0042983A9AC9
:10162000CCDB8FB7F8941092C50097E49093C40078
:1016300098E19093C10096E09093C200589A8FBFB2
:1016400085E0F82EEE24E3941CDD93B1969591701D
:101650009E25980F090FFA94F110F6CF002309F494
:1016600017C32198299AC357DD4F1882CD58D2400D
:10167000C357DD4F8881CD58D24019DDC058DD4FAA
:101680008883C058D240439A2C9A2498239A259A4A
:101690003B9A0CB406FC03C08CB581658CBD60E040
:1016A0008FEF90E1F8DACD56DD4F8883C359D240F1
:1016B000B3E0BB2E83E39BE20197F1F7000061E00A
:1016C00082E092E0E8DAA0E84A2E512C612C712CDD
:1016D00078E1C72ED12CE12CF12CA7019601C30192
:1016E000B2010E94451F9B01AC0162E0220F331F33
:1016F000441F551F6A95D1F760E078E488EE91E0C9
:101700000E94601F223430474105510508F4C7C2CA
:1017100000E0411451046104710409F0DCC2E0E10D
:10172000CE1AD108E108F10882E0F694E794D79444
:10173000C7948A95D1F7CC0CCC0CCC0C0C2990E832
:10174000492E512C612C712CF8E1CF2ED12CE12C9B
:10175000F12CA7019601C301B2010E94451F9B0114
:10176000AC01E2E0220F331F441F551FEA95D1F769
:1017700060E078E488EE91E00E94601F2A30344BEC
:101780004105510508F4ADC280E0411451046104E3
:10179000710409F0C2C270E1C71AD108E108F1086A
:1017A00062E0F694E794D794C7946A95D1F7CC0C8D
:1017B000CC0CCC0CC82A61E080E095E06CDA61E0EA
:1017C0008DE996E068DA61E08DE093E064DA61E04B
:1017D0008DE094E060DA802F90E061E080649961B0
:1017E0005ADA8C2D90E061E080649A6154DA61E00D
:1017F00080E495E250DA61E087EA96E24CDA61E053
:1018000089ED97E048DA61E080E698E044DA61E04B
:1018100080E099E040DA61E080E997E33CDA61E05A
:1018200088E298E338DA61E080E89CE334DA61E04A
:1018300080E39DE330DA61E080E09CE22CDA61E055
:1018400084E09DE228DA61E088E89EE224DA61E043
:101850008DE29FE220DA61E084ED90E31CDA61E042
:1018600080E098E118DA61E08DE298E514DA61E051
:1018700080E39FE610DA61E08FEC99E20CDA61E038
:101880008DE29EE108DA61E080E09AE204DA9FE00E
:101890009150292F30E051F0F901EE0FFF1FEA5F60
:1018A000FE4F408151814832510590F361E0C901FA
:1018B0009261F1D960E08FEF9DE2EDD9082F60E0F1
:1018C0008FEF9EE2E8D9282F30E043E03595279549
:1018D0004A95E1F7822F87700B5E800F869590E026
:1018E00061E09B62D8D961E08BE193E1D4D961E0FA
:1018F0008FE991E1D0D9BA94B110DCCE61E080E8F3
:101900009AE0C9D99DE1C92E90E6D92E94E5E92E39
:10191000F12C81E0C81AD108E108F10809F003C2EE
:1019200000DA61E081EA9DE3B6D900E0E02EF12C17
:10193000C70180965ADA9EE3E90EF11C61E09E2D04
:10194000AAD90F5F003191F738DAA1E0B0E1E5E004
:10195000A150B040E040E1F700C060EF70E080E0EF
:1019600090E07BD935DAF1E020E135E0F15020401C
:101970003040E1F700C028DA41E050E165E0415035
:1019800050406040E1F700C01DDA71E080E195E071
:10199000715080409040E1F700C018DAA1E0B0E15A
:1019A000E5E0A150B040E040E1F700C006DAF2E027
:1019B00020E738E0F15020403040E1F700C000005F
:1019C000082D02950F7084FC03DA01FDFDD902FD9C
:1019D000F9D9087009F0FAD946E150E863E44150BA
:1019E00050406040E1F700C000C0E7D972E080E7F6
:1019F00098E0715080409040E1F700C00000E6D9C7
:101A0000A1E0B0E1E5E0A150B040E040E1F700C066
:101A1000D9D9F1E020E135E0F15020403040E1F744
:101A200000C0D2D941E050E165E0415050406040F3
:101A3000E1F700C0CDD971E080E195E071508040C0
:101A40009040E1F700C0B9D9A2E0B0E7E8E0A150CA
:101A5000B040E040E1F700C0000080FCB9D981FC53
:101A6000B3D982FCAFD983FCB1D9F6E120E833E4E5
:101A7000F15020403040E1F700C000C060E070E06D
:101A8000CB01EBD89AD942E050EC66E0415050408F
:101A90006040E1F7222423944A9B4DC1212C5E989B
:101AA00080E7CB5EDD4F8883C551D240C358DD4F00
:101AB0004880CD57D240CA5EDD4F4882C651D240E1
:101AC000C95EDD4F8882C751D24085E08BDA4BE09A
:101AD000489F9001499F300D112420583F4FC85E08
:101AE000DD4F3883C851D240C75EDD4F2882C951CF
:101AF000D240C058DD4F5880C058D240C65EDD4F3E
:101B00005882CA51D24084E0C55EDD4F8883CB51F4
:101B1000D24080E8C45EDD4F8883CC51D24060E083
:101B200080E099E2B8D88695C35EDD4F8883CD51B9
:101B3000D240106402E281E080933A028093400236
:101B40007894842D90E09C012F5F3F4F4AE0429FA4
:101B50003001439F700C1124C057DD4F7982688299
:101B6000C059D24093012A503109CC56DD4F3983F8
:101B70002883C459D240C457DD4F1882CC58D24074
:101B8000C957DD4F1882C758D240CD57DD4F188254
:101B900019821A821B82C358D240C857DD4F18825F
:101BA00019821A821B82C858D24030E7C758DD4FCD
:101BB0003883C957D2403324339447E0C158DD4FAE
:101BC0004883CF57D24026E631E02C0F3D1F280D29
:101BD000311DB90161507109CA56DD4F798368839F
:101BE000C659D2400197489F9001499F300D11245A
:101BF00044244394512C4C0E5D1E420E531ECF576D
:101C0000DD4F59824882C158D24092012F5F3F4F29
:101C1000C856DD4F39832883C859D240809140028D
:101C2000882309F4B3C0EFB6F89480914002813064
:101C300009F483C0823009F40CC110924002C957E4
:101C4000DD4FF880C758D2409BC081101AC022E3F4
:101C5000C358DD4F2883CD57D24042E3842E682DF0
:101C6000C358DD4F8881CD57D240D4D888E19EE05B
:101C70000FB6F894A895809360000FBE9093600013
:101C8000FFCF32E3C358DD4F3883CD57D240E7CF83
:101C90003FE6C357DD4F3883CD58D240E9CC94E0BE
:101CA000C91AD108E108F108A0E1CA16D104E1047B
:101CB000F10408F012CDF0E1CF2ED12CE12CF12C63
:101CC000411451046104710409F407CD76946794BA
:101CD00057944794FDCC76946794579447940F5F3C
:101CE00018CDF4E0CF1AD108E108F10820E1C216BE
:101CF000D104E104F10408F02CCDB0E1CB2ED12CBD
:101D0000E12CF12C411451046104710409F421CD3A
:101D1000769467945794479417CD76946794579424
:101D200047948F5F32CD60E080E09AE00E944B06DE
:101D300086FFEFCDF5CD4AD8B3CEC25BDD4FE8814B
:101D4000F981CE54D2401082C05BDD4FE881F98129
:101D5000C055D2401082CE5ADD4FE881F981C2557C
:101D6000D240108282E080934002C957DD4FF88054
:101D7000C758D24037E0C158DD4F3883CF57D240E3
:101D8000EFBEC957DD4FF882C758D240CD56DD4F60
:101D90002881C359D240243211F016D813D880912B
:101DA000C00087FB10F9312F3170D32E10FFDDC337
:101DB0007FB6F8941E7F0CD80E94EB05C756DE4F05
:101DC0008883C959D1408F3709F43DC087FDF1C0E0
:101DD00028EF280F263038F491E001C0990F2A959A
:101DE000EAF7957281F50E949F04C756DE4F8883FB
:101DF000C959D1400E94BB04E12C0E94EB050E940E
:101E00009F04F82E4DE0841709F4B1C25AE08517FB
:101E100009F4ADC268E0861719F07FE78713A8C2FE
:101E2000E1109FC2C656DE4F1882CA59D14086EDD6
:101E300098E00E94CC0484ED98E00E94CC048FECE2
:101E400098E00E94CC04C756DE4F1882C959D14091
:101E5000CDC08091370282FFF2CE809137028B7F16
:101E600080933702F0E0F12CE1E0C158DD4F88812A
:101E7000CF57D2408E23A1F12F2F30E0C901880F18
:101E8000991FA4E5B2E0AC0FBD1FA80FB91F0D90BC
:101E9000BC91A02D6C91A8E6B2E0AC0FBD1FA20FC3
:101EA000B31F4C91642341E050E011F450E040E056
:101EB000E49FB001E59F700D1124F62AAEE4B2E074
:101EC000AC0FBD1FA80FB91F0D90BC91A02DC95715
:101ED000DD4F4881C758D2404F254E23C9F11C928F
:101EE000EE0FFF5FF33009F0C0CFC158DD4F4880DF
:101EF000CF57D240411044CF10924002CC58DD4F12
:101F00008881C457D24081110260CE58DD4F88814C
:101F1000C257D240882311F081E02826222009F4FC
:101F200045C00E94E60660E070E0CB010E942D06ED
:101F3000CD58DD4F8881C357D240882319F0211036
:101F40001FCF0061C158DD4F1882CF57D24018CF44
:101F50004C914F5F4C936BE672E06C0F7D1F260F28
:101F6000371FD9012C91241708F0BACF2E2F2095B6
:101F7000C158DD4F4880CF57D2404222C158DD4F73
:101F80004882CF57D240AAE56A2EA2E07A2E6C0E84
:101F90007D1E860D971DDC012D913C9191E08F2DCA
:101FA0008E2309F090E0D9019C939ACF42985E98D5
:101FB000BFCF8F3F09F017CF0E94EB05C656DE4F0B
:101FC0008883CA59D1400E94EB05C556DE4F8883ED
:101FD000CB59D1400E94EB05C456DE4F8883CC59C3
:101FE000D140C356DE4F1882CD59D14066E571E02D
:101FF000CE0187569E4F0E94AB04882311F01D7BB3
:1020000012606BE571E0CE0187569E4F0E94AB04D3
:10201000882311F000681F7B62E671E0CE018756CD
:102020009E4F0E94AB04811100626CE671E0CE010C
:1020300087569E4F0E94AB0481111BC061E771E07F
:10204000CE0187569E4F0E94AB04811112C066E7F5
:1020500071E0CE0187569E4F0E94AB04811109C0EA
:102060006CE771E0CE0187569E4F0E94AB04882337
:1020700011F01F79106267E671E0CE0187569E4F1E
:102080000E94AB04882311F001601F7B61E871E0BE
:10209000CE0187569E4F0E94AB048111066065E811
:1020A00071E0CE0187569E4F0E94AB0481110E94C1
:1020B000210669E871E0CE0187569E4F0E94AB046D
:1020C000811108606EE871E0CE0187569E4F0E9434
:1020D000AB048111006167E971E0CE0187569E4F24
:1020E0000E94AB04811108C06AE971E0CE018756F5
:1020F0009E4F0E94AB048111006463EA71E0CE013F
:1021000087569E4F0E94AB04882361F184EF90E0D4
:102110000E94CC04C258DD4F9881CE57D240953FE3
:1021200009F03DC185EE90E00E94CC0488E790E084
:102130000E94CC040E94EB05F82E8823D9F30E945C
:10214000BB0485E790E00E94CC048F2D8062863628
:1021500009F432C1843709F444C172E0F72E8536A0
:1021600009F42CC16BEA71E0CE0187569E4F0E94A4
:10217000AB04882309F457C08FEA91E00E94DB0585
:10218000B12C44E0A42E90E080E07C0134E0EE0C21
:10219000FF1C3A95E1F70E94EB05C82E0E94BB0494
:1021A0008C2D806290ED980F9A3038F09FE9980F4F
:1021B000963008F019C199EA980F81E09F3F09F025
:1021C00080E0B80E9701292BC901AA94A110DDCF98
:1021D000B11025C08F3F980711F1692F661F662740
:1021E000661F0E944B06F82E85EC98E00E94CC04F6
:1021F0004F2D50E070E060E0CB58DD4F48835983AD
:102200006A837B83C557D24048E6CB58DD4F68814F
:1022100079818A819B81C557D2400E94DA0487EF79
:1022200091E00E94DB056BEF71E0CE0187569E4F77
:102230000E94AB04882309F435C1FE01ED53FE4F23
:10224000119211928EE0DF011D928A95E9F781E2E9
:1022500093E00E94CC048DEF92E00E94CC0484EEC7
:1022600092E00E94CC0460E08FEF9DE30E944B0659
:10227000B82FB170BB2E80FF58C18CEA92E00E944B
:10228000CC04EE24EA942EE3F22E60E0C7010E9413
:102290004B06282F30E050E040E0CB58DD4F28833C
:1022A00039834A835B83C557D24048E6CB58DD4F1C
:1022B000688179818A819B81C557D2400E94DA0466
:1022C0008AEA92E00E94CC04F394E1144EE4F4060E
:1022D000E0F28DE892E00E94CC04F12C8F2D90E08A
:1022E00080960E94F506282F30E050E040E0CB5861
:1022F000DD4F288339834A835B83C557D24048E644
:10230000CB58DD4F688179818A819B81C557D24046
:102310000E94DA048BE892E00E94CC04F39430E14E
:10232000F312DCCF84E492E00E94CC040E94EB051F
:102330008823E1F3F82E6894F5F88F2D0E94BB04F2
:1023400081E492E00E94CC0443E7F412ABC08BE23C
:1023500092E00E94CC04C12CE12C912C82E0A82EAA
:1023600046C0EA948BE690E00E94CC0446CDF12C66
:10237000EAE9F1E0EC0FFD1FEE0DF11DF0828F2D6B
:102380000E94BB04FF2011F40C943F1FE39487E2EA
:10239000E81233CD88E690E00E94CC0427CEC258E4
:1023A000DD4FA881CE57D24085ED90E0A33209F4ED
:1023B000BBCE81EC90E0B8CE63E2F62EC258DD4F82
:1023C0004880CE57D2404F1409F4CCCE6DE671E070
:1023D0008F2D0E94EA06C258DD4FF882CE57D240B8
:1023E000C1CE55EFF52EEACF9FEFE7CEAB2C9294FE
:1023F00090EF99220E94EB05F82E0E94BB048F2DCE
:10240000806290ED980F9A3030F09FE9980F9630E7
:1024100090F499EA980F81E09F3F09F080E0E80E80
:10242000992A51E0A512E2CFEE2039F081EE91E039
:102430000E94CC0437C09FEFEECF8FED91E00E9459
:10244000CC04E3ECF1E0EC0FFD1FEC0DF11D9082EC
:10245000C39460E1C61280CF89EB91E00E94CC0466
:102460000E94EB0580628A3629F08E36C9F783E632
:1024700091E0DECF8E2D90E0BC01605E7F4FA3EC3B
:10248000B1E0AC0FBD1F8A0F9B1FFC0180810E9431
:10249000EA06E394F0E1EF12EDCF87E891E00E94C5
:1024A000CC040860C756DE4F8881C959D1408F3FA0
:1024B00009F04DC0C656DE4FF880CA59D1408F0D85
:1024C000823308F044C0C556DE4FE880CB59D14076
:1024D0008FEF8E0D8430D8F5C456DE4FC880CC59AE
:1024E000D1406F2D80E00E94FF066E2D0E94FF06F6
:1024F000C8122DC086E6CB5EDD4F8883C551D24021
:10250000CA5EDD4FF882C651D240C95EDD4FE88217
:10251000C751D24010648F1459F03D2CB6E6C7580D
:10252000DD4FB883C957D24012C081E491E080CF1B
:1025300012FD9FC3C251DE4FE882CE5ED1401460CF
:102540003D2C26E6C758DD4F2883C957D24028982E
:10255000C756DE4F8881C959D14081508E3F20F443
:1025600082EC98E00E94CC047FBEFFB6F8940E94F3
:10257000C10691E017FD03C0813009F090E090FBA7
:1025800017F9823049F480913C0290913D02019606
:1025900090933D0280933C02FFBE01FFD0C017FD27
:1025A000CEC0812F807416FF08C0C758DD4F488108
:1025B000C957D2404A3709F0C2C04FB6CE56DD4F98
:1025C0004882C259D240F8940D7FB12C882351F033
:1025D00081E0C758DD4F2881C957D2402A3709F01A
:1025E00080E0B82E4298A12CC12CD12C7601412C30
:1025F000512C3201439491E017FD06C00E94C106A0
:1026000091E0811101C090E090FB17F9B11039C33E
:10261000812F012E000C990B992E991C9924991C3D
:1026200097FD39C0C301B2010E942D0689E995E1E9
:102630000197F1F700C084E00E94F207A9E1A89F8A
:102640009001A99F300D11243395B32FB695CB5827
:10265000DD4FB883C557D240E0E6F2E0EC0FFD1F36
:10266000EA0DF11D8B2FB11101C081E0808360E084
:1026700070E0CB010E942D06CB58DD4FE881C55795
:10268000D240E23320F4C428D528E628F728440CA9
:10269000551C661C771CA394F4E0AF1609F4F3C232
:1026A000992009F4A8CF16FF44C0C758DD4F3881E0
:1026B000C957D2403A37E9F5CB5EDD4F3883C55173
:1026C000D240C358DD4F4880CD57D240CA5EDD4F5F
:1026D0004882C651D24084E0C95EDD4F8883C7512D
:1026E000D240C05ADD4F8881C056D240C85EDD4F0F
:1026F0008883C851D240CF59DD4F8881C156D2401E
:10270000C75EDD4F8883C951D240CE59DD4F8881E5
:10271000C256D240C65EDD4F8883CA51D240CD59E1
:10272000DD4F8881C356D240C55EDD4F8883CB51D3
:10273000D240CE56DD4F5880C259D2405FBE802F66
:102740008670843009F05FC017FD5DC0CFB6F89485
:102750000B7F81EA98E00E94CC0482E798E00E9417
:10276000CC04D12C80E798E00E94CC04ED2CF12C15
:10277000C70101969C01990F440B550BCB58DD4FB7
:10278000288339834A835B83C557D24044E6CB58BC
:10279000DD4F688179818A819B81C557D2400E9433
:1027A000DA048BE698E00E94CC04E0E6F2E0EC0F5D
:1027B000FD1FEE0DFF1D8081823308F08AC2482F75
:1027C00050E070E060E0CB58DD4F488359836A8366
:1027D0007B83C557D24044E6CB58DD4F6881798171
:1027E0008A819B81C557D2400E94DA0482E698E034
:1027F0000E94CC04D39454E0D512B4CF8DE598E078
:102800000E94CC04CFBE80913A02823049F421105C
:1028100007C010923A0260E070E0CB010E942D06E2
:1028200006FF42C0FFB6F8940F7B8AE598E00E944D
:10283000CC0482E092E00E94DB0544E664E070E0B4
:1028400080E090E00E94DA0486E192E00E94DB05DD
:1028500087E598E00E94CC048CE498E00E94CC04C8
:1028600086E498E00E94CC0444E665E470E080E0F1
:1028700090E00E94DA0483E498E00E94CC0480E4B3
:1028800098E00E94CC0486E398E00E94CC048DE29C
:1028900098E00E94CC0488E298E00E94CC0484E294
:1028A00098E00E94CC04FFBE11FF2DC1DFB6F89462
:1028B0001D7F0E94210681E495E00E94CC048FE0F8
:1028C00095E00E94CC04BE0162597D4FCE018D532C
:1028D0009E4F0E94910781110CC089E095E00E94F3
:1028E000CC0480EF94E00E94CC048AEE94E00E9435
:1028F000CC0484EE94E00E94CC0489EC94E00E9425
:10290000CC048FE192E00E94DB0581EB94E00E9411
:10291000CC048BEA94E00E94CC04CD53DE4F888136
:10292000C35CD140853409F4D9C18A3018F480E3FE
:102930000E94BB04CD53DE4F8881C35CD140482E3A
:10294000512C712C612CCB58DD4F488259826A8200
:102950007B82C557D24044E6C301B2010E94DA042B
:1029600081EA94E00E94CC048BE994E00E94CC04BC
:1029700086E894E00E94CC0480E894E00E94CC04B5
:10298000C259DD4F8881CE56D240853609F4ABC19D
:102990008A3018F480E30E94BB04C259DD4F88815D
:1029A000CE56D240282F30E050E040E0CB58DD4FEB
:1029B000288339834A835B83C557D24044E6CB588A
:1029C000DD4F688179818A819B81C557D2400E9401
:1029D000DA0486E794E00E94CC0480E794E00E9449
:1029E000CC048BE694E00E94CC0485E394E00E9442
:1029F000CC040E94EB058823E1F3F82E6894F5F8E7
:102A00008F2D0E94BB0482E394E00E94CC048FE2ED
:102A100094E00E94CC0439E6F31279C18BE194E092
:102A20000E94CC0488E194E00E94CC0480E094E011
:102A30000E94CC048AEF93E00E94CC04CD53DE4F79
:102A4000E880C35CD1400E94FC058F3F09F450C16F
:102A5000CD53DE4F8883C35CD14084EF93E00E9466
:102A6000CC048FED93E00E94CC048CED93E00E94A7
:102A7000CC0484EC93E00E94CC048EEB93E00E94A3
:102A8000CC04C259DD4FF880CE56D2400E94FC05DE
:102A90008F3F09F433C1C259DD4F8883CE56D240EF
:102AA00088EB93E00E94CC04CD53DE4F8881C35C59
:102AB000D140E81208C0C259DD4F9881CE56D240AD
:102AC000F91609F424C1C259DD4F6881CE56D240AF
:102AD0000E940A07C259DD4F6881CE56D240CD53BD
:102AE000DE4F8881C35CD1400E944A07882309F4E5
:102AF0000BC18CE993E00E94CC0489E693E00E942C
:102B0000CC040860DFBE07FF94C0AFB6F8940F771F
:102B100082E396E00E94CC0481EF95E00E94CC0411
:102B20008BEE95E00E94CC0485ED95E00E94CC04EC
:102B30000E94FC05B82E82ED95E00E94CC044FEF78
:102B4000B41609F475C08CEB95E00E94CC040E9489
:102B5000FC05C82E89EB95E00E94CC0486EB95E03D
:102B60000E94CC045FEFC51609F462C080EA95E0CC
:102B70000E94CC040E94FC05E82E8DE995E00E949D
:102B8000CC046FEFE61609F453C087E895E00E9485
:102B9000CC040E94FC05D82E83E895E00E94CC046A
:102BA0007FEFD71609F444C0BE1003C0CD1409F45A
:102BB0003FC087E495E00E94CC040E94EB05F82E0C
:102BC0008823D9F30E94BB048F2D80628A3681F559
:102BD00083E6CB5EDD4F8883C551D240CA5EDD4FB0
:102BE000B882C651D240C95EDD4FC882C751D240BB
:102BF000C85EDD4FE882C851D240C75EDD4FD88243
:102C0000C951D240C358DD4F4880CD57D2404B10F8
:102C100083C08C1081C084E098E00E94CC046D2DAC
:102C20008E2D0E940A07086085ED97E00E94CC0473
:102C3000AFBE15FF2CC1CFB6F8941F7DC756DE4F2F
:102C4000F880C959D140E9E65E2EF5106BC0CB5E25
:102C5000DD4FF882C551D24084E6CA5EDD4F8883DD
:102C6000C651D24080E3C95EDD4F8883C751D24050
:102C7000F4C23D2C36E6C758DD4F3883C957D240E1
:102C800066CC912CCFCC91100ECD21101CC0F4E05D
:102C9000CC0CDD1CEE1CFF1CFA95D1F7A7019601A8
:102CA000332744275527CB58DD4F288339834A8360
:102CB0005B83C557D240CA01B9010E942D0681E04D
:102CC00080933A02F0CC60E070E0CB010E942D06C8
:102CD000EACC85E698E00E94CC0488CD84EA94E0B2
:102CE0000E94CC043DCE89E794E00E94CC0471CED2
:102CF000CD53DE4FE882C35CD140AFCEC259DD4F29
:102D0000F882CE56D240CCCE8AE793E0F4CE88E467
:102D100093E00E94CC04F6CE89ED97E00E94CC04AB
:102D2000106482CF74E7672EF61050C0CB5EDD4F83
:102D3000F882C551D240C357DD4F8881CD58D2406B
:102D40000E945708C058DD4F8883C058D24086E89B
:102D500097E00E94CC04C058DD4F2881C058D24073
:102D600081E897E02038B9F044E0C058DD4F688131
:102D7000C058D240062E000C770B880B990BCB580D
:102D8000DD4F688379838A839B83C557D2400E9435
:102D900074058DE797E00E94CC0484E7CB5EDD4F9D
:102DA0008883C551D24085E6CA5EDD4F8883C6510F
:102DB000D2408DE6C95EDD4F8883C751D24080E79F
:102DC000C85EDD4F8883C851D24047C266E6762E82
:102DD000F7100CC0CB5EDD4FF882C551D240EE2417
:102DE000E39486EB97E02AE0D22EE2C184EC97E0F0
:102DF0000E94CC040E94EB05F82E6894F5F88F2D04
:102E00000E94BB0481EC97E00E94CC04CB5EDD4FB6
:102E1000F882C551D24056E6B52EFB1401F349E6BF
:102E2000D42EFD1409F418CF34E7E32EFE1409F470
:102E300082CFF12C89E797E00E94CC04FF2009F4AF
:102E400014C2CB5EDD4F4880C551D240C758DD4F1C
:102E50004882C957D2401064242D263691F4CA5EA8
:102E6000DD4F8881C651D24088110BC0C95EDD4F4D
:102E70008881C751D240C251DE4F8883CE5ED14097
:102E800014608091C00087FDF3C1CFBE3F2C302F6E
:102E90003170C32E00FF76C19FB6F8940E7F0E945A
:102EA000210684E297E00E94CC048FE097E00E9424
:102EB000CC048DEF96E00E94CC0487EF96E00E9450
:102EC000CC0487E996E00E94CC04D12CFAE07F2E56
:102ED000A3E06A2E48E04D1520F085E996E00E94B7
:102EE000CC048D2D90E001969C01990F440B550B5D
:102EF000CB58DD4F288339834A835B83C557D24043
:102F000044E6CB58DD4F688179818A819B81C55722
:102F1000D2400E94DA0482E996E00E94CC04EE24BA
:102F2000E394F12CEC0EFD1E37E0D39EE00CF11C77
:102F30001124D701BC90B1109EC18EE896E00E948A
:102F4000CC0487E896E00E94CC04F70181818A30A6
:102F500008F0AEC182E896E00E94CC048DE796E0CE
:102F60000E94CC04BB2009F4D9C1D70112968C91E0
:102F70000E94BB0488E796E00E94CC04F70183819D
:102F8000803809F4D0C1282F880F330B440B550B20
:102F9000CB58DD4F288339834A835B83C557D240A2
:102FA00044E0CB58DD4F688179818A819B81C55788
:102FB000D2400E9474058BE696E00E94CC04D701B3
:102FC00014968C91282F30E050E040E0CB58DD4F34
:102FD000288339834A835B83C557D24044E6CB5864
:102FE000DD4F688179818A819B81C557D2400E94DB
:102FF000DA0488E696E00E94CC04D7011596FC908E
:10300000FF2009F499C1B3E6BF1520F086E696E0EB
:103010000E94CC04E9E0EF1520F084E696E00E94DF
:10302000CC0482E696E00E94CC042F2D30E050E0E4
:1030300040E0CB58DD4F288339834A835B83C557F3
:10304000D24044E6CB58DD4F688179818A819B81EB
:10305000C557D2400E94DA048D2D662D25D79230B7
:1030600009F06FC18AE596E00E94CC04D39432E364
:10307000D31230CF8BE396E00E94CC04C457DD4FCF
:103080004880CC58D240842D90E0B0E0A0E044E6E7
:10309000CB58DD4F88839983AA83BB83C557D24021
:1030A000BC01CD010E94DA0488E396E00E94CC04C2
:1030B00090E080E0E1E0F0E0EC0FFD1F77E0572EBC
:1030C000859DE00DF11D112420812C1101C09F5F11
:1030D0008F5F823379F7E5E6F1E0EC0FFD1FEC0D31
:1030E000F11D9083C39463E3662EC610E1CF80E4A4
:1030F00097E00E94CC04D12C58E0752E7D1418F076
:1031000080E30E94BB04ED2CF12CC70101969C01C9
:10311000990F440B550BCB58DD4F288339834A83D5
:103120005B83C557D24044E6CB58DD4F6881798137
:103130008A819B81C557D2400E94DA048DE397E0D3
:103140000E94CC04E6E6F1E0EC0FFD1FEE0DFF1D42
:1031500080818111F9C089E397E00E94CC048D2D14
:1031600063E0A2D6923009F007C186E397E00E949F
:10317000CC04D39452E3D512BFCF8AE297E00E94E9
:10318000CC049FBE602F6870A62E03FFF8C0F89491
:103190002A9A88E19EE00FB6F894A8958093600083
:1031A0000FBE909360000E942106FFCF22E0E22E26
:1031B0000E94CC040E94EB05B82E8823D9F30E940C
:1031C000BB04B0EDFB2EBF0C0E94EB05F82E88234C
:1031D000D9F30E94BB04BD9CF00C112420EDF20E2B
:1031E00086EA97E00E94CC04FF20D1F14F2D50E0F9
:1031F00070E060E0CB58DD4F488359836A837B835E
:10320000C557D24052E085E090E0A0E0B0E0E5167E
:1032100021F083E390E0A0E0B0E0CB58DD4F4880A0
:1032200059806A807B80C557D240481659066A0685
:103230007B06B0F444E6C301B2010E94DA04E5E182
:10324000F2E0EC0FFD1FEE0DF11DF0828AEA97E02F
:1032500055245394E51409F4A9CFFF24F394EACD3F
:1032600083E997E00E94CC04E4CD1F7BF32C09CEC8
:103270008091C60006CE8CE896E00E94CC04B9E0AE
:10328000BB1520F08AE896E00E94CC048B2D90E0DC
:10329000B0E0A0E044E6CB58DD4F88839983AA8351
:1032A000BB83C557D240BC01CD010E94DA0449CE90
:1032B000672DFAD5A92E282F30E050E040E0CB58FA
:1032C000DD4F288339834A835B83C557D24042E070
:1032D000CB58DD4F688179818A819B81C557D24067
:1032E0000E94740580E896E00E94CC044A2D50E0CC
:1032F00070E060E0CB58DD4F488359836A837B835D
:10330000C557D24044E6CB58DD4F688179818A8128
:103310009B81C557D2400E94DA0420CE8BE796E00D
:103320000E94CC0427CE83E796E0B11002C08EE65F
:1033300096E00E94CC043FCE8DE596E00E94CC043E
:103340008BCE88E596E090CE482F50E070E060E0AC
:10335000CB58DD4F488359836A837B83C557D2405E
:1033600043E0CB58DD4F688179818A819B81C557C5
:10337000D2400E947405F3CE8EE297E0F8CE04FFAF
:1033800007C0F8942A9A8BE597E00E94CC044098F5
:1033900005FD0AC016FF76C0CB5EDD4F8881C551A2
:1033A000D240893609F06EC0FFB6F8940F7D80E0F8
:1033B00090E8282F30E0E6E6F1E0EC0FFD1FE20F89
:1033C000F31F108277E0729FF001739FF00D1124BC
:1033D000A1E0B0E0AC0FBD1FEA0FFB1F108211820D
:1033E00012829383958316828F5F823311F781E077
:1033F000CA56DD4FE881F981C659D2408083CF5744
:10340000DD4FA881B981C158D2408C9285E00E94DD
:10341000F2074BE0489F9001499F300D112420583E
:103420003F4FC856DD4FE881F981C859D2403083FB
:103430008EE621108AE6CF57DD4FA881B981C158A9
:10344000D24012968C931297C058DD4F4880C058D6
:10345000D24013964C92139715961C9260E080E030
:1034600099E20E944B068695CF57DD4FA881B9811E
:10347000C158D24016968C93FFBEC457DD4F1882B8
:10348000CC58D240311017C080913702B82FB2709B
:103490003B2E81FF10C0809135029091360233247B
:1034A0003394C057DD4F48805980C059D2404816E8
:1034B000590608F0312C16FF39C03320B9F19FB6F8
:1034C000F8941F7BCB5EDD4F8881C551D240835677
:1034D000E12CF12C883148F490E0FC01E25CFE4FD5
:1034E000F0808A5D9E4FDC01EC90CF2CD12CE5E181
:1034F000F2E0EC0FFD1FEC0DFD1DE0821182CB5EB2
:10350000DD4F8881C551D240863609F0FBC12110BC
:10351000F9C1809137028D7F809337021092360275
:10352000109235020E9491069FBE312C12FF4FC0AF
:10353000FFB6F8941B7F222009F446C0CD57DD4F1B
:10354000488059806A807B80C358D240411451041E
:1035500061047104C9F110610E94D80680913102A2
:1035600090913202A0913302B091340284299529BE
:10357000A629B729AC01BD01E4E0440F551F661F21
:10358000771FEA95D1F72A013B01482A592A6A2A6E
:103590007B2ACB58DD4F488259826A827B82C5578D
:1035A000D240429ACB58DD4F688179818A819B81D4
:1035B000C557D2400E942D064092310250923202ED
:1035C00060923302709234020E949106FFBE14FF93
:1035D00062C080913002882309F45DC0EFB6F89490
:1035E0001092300213FBFF24F0F820E080E090E01E
:1035F000DC0141E050E060E070E04090310250902A
:1036000032026090330270903402442255226622C6
:10361000772245284628472889F0E4E6F2E0EC0FB7
:10362000FD1FE20FF11D30813F5FC258DD4F588012
:10363000CE57D240351508F06FC13083440F551F67
:10364000661F771F2F5F2430C1F6F0FA13F9AC0123
:10365000BD0124E0440F551F661F771F2A95D1F73F
:10366000842B952BA62BB72B40913102509132021F
:1036700060913302709134022C013D01442655269D
:1036800066267726C857DD4F488259826A827B8238
:10369000C858D240EFBE13FF28C0FFB6F894177F7A
:1036A000C857DD4F688179818A819B81C858D24093
:1036B0000E942D06C857DD4F488059806A807B8064
:1036C000C858D24040923102509232026092330286
:1036D0007092340245284628472831F442981F7ECC
:1036E0000E94DD060E94E606FFBEFFB6F8940E9427
:1036F000C10691E017FD03C0813009F090E090FB16
:1037000017F9823049F480913C0290913D02019674
:1037100090933D0280933C02FFBE17FF97C19FB676
:10372000F8941F770E94E20660E08FEF9FE60E9408
:103730004B06882309F4F8C060E08FEF94E20E9402
:103740004B06B82E0E946B06439880E00E94380614
:103750008FEF0E943806893208F001C1CD53DE4F49
:103760008883C35CD140FF24F39406C1282F30E046
:1037700063EC71E06C0F7D1F620F731F45E1442EF7
:1037800042E0542E4C0E5D1E240D351DD9019C9136
:10379000DB0111969C938F5F5AC0E3ECF1E0EC0FD4
:1037A000FD1FEB0DF11D80810E943806B39477C098
:1037B00060E080E098E20E944B068970B82ED30149
:1037C000C2012C013D0131E0431A51086108710822
:1037D000892B8A2B8B2B09F487C0BB2049F30E94CD
:1037E0006B0645284628472809F483C04B2D4170B5
:1037F000C257DD4F4883CE58D240C157DD4F1882A3
:10380000CF58D240D6018C9181508C93C257DD4F56
:1038100048805980CE58D240452809F45F98EA94F0
:10382000EE2009F476CE0E94E4060E946B0661E069
:1038300080E198E20E944B06EF2DB7E2BF1508F435
:10384000E7E2CD53DE4FE883C35CD14080E08E17C2
:1038500008F48CCF93EC492E552453944C0E5D1EE6
:103860004E0E511CF20111824398CD53DE4F8881D8
:10387000C35CD140893238F088E2582ECD53DE4FF8
:103880005882C35CD14080E80E943806CD53DE4F99
:103890007880C35CD140872D0E943806B32C7B14FE
:1038A00008F07BCF439A0E945F0661E08CE091E0D4
:1038B0000E944B06BDE14B2EB0E65B2EB4E56B2EAD
:1038C000712C21E0421A51086108710839F060E05A
:1038D0008FEF97E20E944B0687FFF3CFB12C84E273
:1038E00095E1A0E0B0E06DCF44244A94542C32011D
:1038F00076CF61E070E0C257DD4F79836883CE58A0
:10390000D24080CFF394F5E16F2EF2E07F2E6C0E63
:103910007D1EC60CD71C84CF842B952BA62BB72BD2
:103920001082FF24F3948ACE61E081E093E20E944A
:103930004B06BDE14B2EB0E65B2EB4E56B2E712C31
:1039400021E0421A51086108710809F4F5CE60E0DF
:103950008FEF93E20E944B0681FFF2CFEDCE88E21B
:10396000FDCE8FEF0E943806E3ECF1E0EC0FFD1F77
:10397000EF0DF11D8083F394CD53DE4F8881C35C3E
:10398000D1408F1570F7439ACD53DE4FC880C35C8A
:10399000D14037E23C1510F4A7E2CA2EAC14D8F09F
:1039A000EC2CF12CECEEF1E0EC0FFD1FEE0DFF1D09
:1039B000108261E080E198E20E944B065D98C4515C
:1039C000DE4FE881CC5ED140E356E231E0F5F0E035
:1039D000EA50F04EB3C28A2D90E0ECEEF1E0EC0F2D
:1039E000FD1FE80FF91F43EC51E04C0F5D1F840FE2
:1039F000951FDC0111968C918083A394CFCFFE019B
:103A0000EE0DFF1DE551FE4F8081815009F046C04B
:103A1000A7014250510957FF02C04F5F5F4F5595B4
:103A2000479512FB992790F9CD57DD4F18821982DF
:103A30001A821B82C358D240282F30E02417350742
:103A40009CF190FB12F90E9491069FBE80913E026C
:103A5000882311F40C940E0EFFB6F8940E943E06D3
:103A600084749170892BB9F460E080E099E20E943F
:103A70004B0690913E0219160CF0F7C1873908F4F5
:103A8000F4C190913E02891B90E061E099620E942E
:103A90004B0610923E02FFBE0C940E0EE9E7FFEFBC
:103AA0003197F1F700C0B1CF2220F1F1220F331F7F
:103AB000ECEEF1E0EC0FFD1FE20FF31F2181281166
:103AC00033C0E281E150E43078F5F4E0EF9FD001BB
:103AD00011246EE3462E62E0562E4C0E5D1EA40DA0
:103AE000B51D4D905D906D907C90CD57DD4FC88099
:103AF000D980EA80FB80C358D240C428D528E62864
:103B0000F728CD57DD4FC882D982EA82FB82C3589D
:103B1000D24074E6E72E72E0F72EEC0EFD1EEE0E9C
:103B2000F11CF701108291E08F5F86CFECEEF1E09F
:103B3000EC0FFD1FEC0DF11D31978081815069F470
:103B4000C357DD4F8881CD58D2400E945708C058D6
:103B5000DD4F8883C058D24076CFA9E7BFEF1197D9
:103B6000F1F700C0EBCFECEEF1E0EC0FFD1FEC0D38
:103B7000F11D3197808133243A94380E311063C09F
:103B800080E7CB5EDD4F8883C551D240C358DD4FFF
:103B90004880CD57D240CA5EDD4F4882C651D240E0
:103BA000C95EDD4F8882C751D24085E00E94F2078E
:103BB0004BE0489F9001499F300D112420583F4F02
:103BC000C85EDD4F3883C851D240C75EDD4F2882C2
:103BD000C951D240C058DD4F5880C058D240C65E4F
:103BE000DD4F5882CA51D24084E0C55EDD4F8883E4
:103BF000CB51D240B694C45EDD4FB882CC51D24096
:103C000060E080E099E20E944B068695C35EDD4F3E
:103C10008883CD51D24082E086BB109285001092FD
:103C200084008091370282608093370210923602BE
:103C3000109235021064006220E7C758DD4F2883D8
:103C4000C957D24000CFE9E7FFEF3197F1F700C045
:103C50003A9494CFECEEF1E0EC0FFD1FEC0DF11D6A
:103C600031978081815061F5C351DE4F8881CD5EEF
:103C7000D1408534C9F08823B9F0C358DD4F48805E
:103C8000CD57D240841581F08150282F30E0E1E0FB
:103C9000F0E0EC0FFD1F47E0542E589EE00DF11DA3
:103CA00011248081882391F0C457DD4F2881CC589E
:103CB000D2402F5FC457DD4F2883CC58D240C3CEAB
:103CC000A9E7BFEF1197F1F700C0CCCFC251DE4F8B
:103CD0008881CE5ED1408083C151DE4F8881CF5E26
:103CE000D1408183C051DE4F8881C05FD1408111B6
:103CF00027C08EE647E0429FF001439FF00D11245C
:103D000061E070E06C0F7D1FE60FF71F8283CF50DC
:103D1000DE4F8881C15FD1408383CE50DE4F8881E2
:103D2000C25FD1408483CD50DE4F8881C35FD140D4
:103D30008583CC50DE4F8881C45FD140868383CE9B
:103D40008AE6D8CFECEEF1E0EC0FFD1FEC0DF11D93
:103D500031978081815091F5211075CEC351DE4F8E
:103D60008881CD5ED140C358DD4F4880CD57D240C9
:103D7000841169CEC251DE4F8881CE5ED140881158
:103D800062CEC151DE4F8881CF5ED1409FEF980F48
:103D9000923308F058CEC051DE4F6881C05FD140E9
:103DA0009FEF960F923308F04ECE841103C0681532
:103DB00009F449CE0E940A07086045CEA9E7BFEF83
:103DC0001197F1F700C0C6CFECEEF1E0EC0FFD1F4C
:103DD000EC0DF11D31978081815031F5C351DE4FDB
:103DE0008881CD5ED140C358DD4F4880CD57D24049
:103DF000841129CE0260106482E086BB1092850097
:103E00001092840080913702826080933702CC56F2
:103E1000DD4F68807980C459D2407092360260923A
:103E20003502312C2AE709CFA9E7BFEF1197F1F747
:103E300000C0D2CFECEEF1E0EC0FFD1FEC0DF11D58
:103E400031978081815059F4C351DE4F8881CD5E16
:103E5000D14090E061E099620E944B06F4CDA9E761
:103E6000BFEF1197F1F700C0EDCF90913E029F3F59
:103E700009F00ACE8F3F09F407CE8F5F05CEEE2002
:103E800011F40C94170F0C94CA11DB018F939F93BC
:103E90005BD0BF91AF91A29F800D911DA39F900D0C
:103EA000B29F900D11240895991B79E004C0991FC9
:103EB000961708F0961B881F7A95C9F78095089584
:103EC000A1E21A2EAA1BBB1BFD010DC0AA1FBB1F1E
:103ED000EE1FFF1FA217B307E407F50720F0A21B90
:103EE000B30BE40BF50B661F771F881F991F1A94FD
:103EF00069F760957095809590959B01AC01BD0127
:103F0000CF010895052E97FB16F400940FD057FDAE
:103F100005D0D6DF07FC02D046F408C05095409586
:103F2000309521953F4F4F4F5F4F08959095809565
:103F3000709561957F4F8F4F9F4F0895EE0FFF1F34
:103F40000590F491E02D099440D0A59F900DB49F69
:103F5000900DA49F800D911D112408952F923F92E2
:103F60004F925F926F927F928F929F92AF92BF9289
:103F7000CF92DF92EF92FF920F931F93CF93DF9335
:103F8000CDB7DEB7CA1BDB0B0FB6F894DEBF0FBE92
:103F9000CDBF09942A88398848885F846E847D84DF
:103FA0008C849B84AA84B984C884DF80EE80FD80E1
:103FB0000C811B81AA81B981CE0FD11D0FB6F89457
:103FC000DEBF0FBECDBFED010895A29FB001B39F2C
:103FD000C001A39F700D811D1124911DB29F700D12
:103FE000811D1124911D0895F894FFCFA21E231D59
:103FF000231DFF1C231D231DB31D231D231D231D56
:10400000E41E231D231D2A1E231D1A1F231D961D7A
:10401000290029002900480DD007E803F401FA001F
:104020007D0064003E00320028001F0019001400CB
:104030000F000C000A000300000300000300000052
:104040000200000200000002000000000002050063
:10405000000300000300000003000009000000044A
:10406000000000000007636F6E660072656D6F747C
:104070006500636C6561726C6973740073656E646E
:104080000066697265006964656E740074656D70C0
:1040900000696D7000636C73006B696C6C00736811
:1040A0007574646F776E0068770068617264776119
:1040B00072650069676E697465720072666D000AE8
:1040C0000D4B6F6D6D616E646F202831362D426926
:1040D000742D4865782D466F726D61742C204D5398
:1040E00042207A752031207365747A656E2066C32C
:1040F000BC7220536368726569627A75677269661B
:1041000066293A203078000A0A0D006165736B65F4
:1041100079005AC3BC6E64626F78204D696E692065
:104120007631202D2000204B616EC3A46C65005AAF
:10413000C3BC6E64626F78000804100032641E0015
:00000001FF
