:100000000C942A030C9447030C9447030C94470365
:100010000C944C0B0C9447030C9447030C9447032B
:100020000C9447030C9447030C9447030C94470328
:100030000C9447030C94B90B0C9447030C9447039E
:100040000C945B0B0C9447030C9447030C944703EC
:100050000C9447030C9447030C9447030C944703F8
:100060000C9447030C9447030A0D001B5B3144209A
:100070001B5B3144000A0D4B65696E6520C46E64DC
:100080006572756E6720766F7267656E6F6D6D65F0
:100090006E0A0A0D000A0D4E657573746172742E36
:1000A0002E2E0A0A0D004665686C65722120426991
:1000B0007474652065726E657574207665727375EB
:1000C0006368656E210A0D000A0A0DC46E646572CC
:1000D000756E67206572666F6C677265696368210B
:1000E0000A0D0044657669636520697374206A654A
:1000F000747A74205472616E736D697474657221C0
:100100000A0D001B5B33376D001B5B33316D004EF6
:1001100065756520556E697175652D4944202830D7
:10012000312D3330293A20001B5B33376D001B5BC8
:1001300033316D004E65756520536C6176652D49D0
:1001400044202830312D3330293A2020000A0D0078
:100150000A0D0041626272756368206D69742062E5
:10016000656C6965626967657220616E6465726558
:10017000722054617374652120007A7520285429F7
:1001800072616E736D6974746572206D6163686508
:100190006E2C0A0D002855296E697175652D49442C
:1001A00020E46E6465726E2C202853296C6176659C
:1001B0002D494420E46E6465726E2C0A0D000A0A13
:1001C0000A0D000A0A0D4465766963652069737437
:1001D00020616C73205472616E736D697474657202
:1001E000206B6F6E6669677572696572742E001B8D
:1001F0005B33376D000A0D004645484C4552001BE5
:100200005B33316D00416B7475656C6C6520536CAC
:100210006176652D49443A2020001B5B33376D0021
:100220000A0D004645484C4552001B5B33316D00BA
:100230000A0A0D416B7475656C6C6520556E6971A9
:1002400075652D49443A20000A0D416E6765736358
:10025000686C6F7373656E6573204465766963655A
:100260003A20001B5B33376D001B5B33376D000A90
:100270000D4665686C6572206265696D2049442D84
:100280004C6164656E0A0D001B5B33316D000A0A18
:100290004B6F6E66696775726174696F6E737072A9
:1002A0006F6772616D6D0A0D3D3D3D3D3D3D3D3DCC
:1002B0003D3D3D3D3D3D3D3D3D3D3D3D3D3D0A0DD1
:1002C000001B5B33336D0049442D576563687365CC
:1002D0006C206D6974206A2062657374E4746967C8
:1002E000656E2C2061626272656368656E206D695F
:1002F0007420616E64657265722054617374652147
:1003000020000A0A0D004E65756520536C61766504
:100310002D49443A20202020202020000A0D004EA4
:1003200065756520556E697175652D49443A2020C3
:1003300020202020000A0D000A0D00426973686524
:100340007269676520536C6176652D49443A2020B7
:10035000000A0D0042697368657269676520556E11
:10036000697175652D49443A20001B5B33376D0078
:100370000A0A52656D6F74652D4B6F6E66696775FD
:10038000726174696F6E7370726F6772616D6D0AFE
:100390000D3D3D3D3D3D3D3D3D3D3D3D3D3D3D3DBD
:1003A0003D3D3D3D3D3D3D3D3D3D3D3D3D3D0A0DE0
:1003B000001B5B33336D000A0D001B5B33376D0090
:1003C0004665686C657268616674652F646F7070ED
:1003D000656C7465204944733A20001B5B33316DB2
:1003E000000A0D0A0D002020202020000A0D002DFB
:1003F0002D2D2D002D00202D002C20002D2D2D2DFC
:10040000006E2E612E002C20002D002C20002E00CE
:100410002D2D2D2D002C2000300020002D2D2D0005
:100420003A200030000A0A0D556E697175652D4934
:10043000443A20536C6176652D49442C2042617406
:1004400074657269657370616E6E756E672028568B
:10045000292C205363686172663F2C2054656D70AF
:100460006572617475722028B043292C2052535351
:1004700049202864426D290A0D001B5B33376D004B
:100480003D3D3D3D3D3D3D3D3D3D3D3D3D3D3D0ACF
:100490000D000A0A0D53797374656DFC6265727301
:1004A000696368740A0D001B5B33336D000A0D002D
:1004B00020000A0D002D2D2D003A20000A0A0D53B0
:1004C0006C6176652D49443A20416E7A61686C20F2
:1004D000426F78656E0A0D000A0A0D00B043006E87
:1004E0002E612E0054656D706572617475723A20CC
:1004F00000556E67FC6C746967652045696E6761BD
:10050000626500203D20000A0D4B616E616C3A204F
:100510002020202020000A0D536C6176652D49446F
:100520003A202020000A0D4D6F64757328662F69EC
:100530002F74293A20000A0A0D000A0D49442D4B58
:100540006F6E66696775726174696F6E73626566F6
:1005500065686C207769726420676573656E646591
:1005600074210A0D000A0D49447320776572646591
:100570006E206C6F6B616C20616E67657061737368
:1005800074210A0D000A0A0D000A0D526164696F98
:10059000206D6F64756C653A2052464D0061746D34
:1005A00065676131363870000A0D436F6E74726F83
:1005B0006C6C65723A202020000A0D000A0A0D5763
:1005C0006965646572686F6C7465732053656E64E9
:1005D000656E20646573206C65747A74656E204264
:1005E000656665686C73204155530A0D000A0A0D53
:1005F000576965646572686F6C7465732053656EC6
:1006000064656E20646573206C65747A74656E2011
:1006100042656665686C732045494E0A0D001B5B98
:1006200031440020001B5B3144001B5D303B454CD6
:10063000204655455241444F524F07001B5B334AF9
:10064000001B5B303B3048001B5B324A002D003002
:100650000020000011241FBECFEFD4E0DEBFCDBFCD
:1006600012E0A0E0B1E0E4EEFBE302C005900D92E1
:10067000A833B107D9F712E0A8E3B2E001C01D9298
:10068000A034B107E1F70E94CA0B0C94F01D0C9442
:100690000000F999FECF92BD81BDF89A80B512BCD9
:1006A00011BC08950F931F93CF93DF9300D000D018
:1006B00000D0CDB7DEB7DC0119821A821B821C8202
:1006C00080E88D831E822198299834EA3A95F1F7C3
:1006D000199B98C0219A83E393E10197F1F7219840
:1006E00091E29A95F1F780E0199B08C08E3109F4E8
:1006F0008BC0E1E2EA95F1F78F5FF6CF893108F020
:1007000083C080E0199908C0893109F47FC0F1E203
:10071000FA95F1F78F5FF6CF893109F477C080E061
:10072000199B08C0893109F473C031E23A95F1F799
:100730008F5FF6CF893109F46BC0FE01319625E059
:100740002E0F88E092E3199907C0915048F030E1EC
:100750003A95F1F700C0F7CF911102C084E65DC071
:100760009081990F908332E63A95F1F70000199B3A
:1007700002C09160908392E3199B07C0915038F0BA
:1007800030E13A95F1F700C0F7CF992339F3815062
:10079000C9F631962E13D5CF49813A812B81EC8150
:1007A000932F940F920F9E0F5D81591333C0922F98
:1007B000991F9927991F990F50E0542F4427430FF1
:1007C000511D493EF3E05F0738F52F7730E0322FB7
:1007D00022272E0F311DE1E0F0E0E91BF109E29F35
:1007E0008001E39F100DF29F100D112498012057F6
:1007F0003E4F233E344080F40D931C93FB01518304
:1008000040830BC081E009C082E007C083E005C0DF
:1008100084E003C088EC01C089EC26960FB6F894FA
:10082000DEBF0FBECDBFDF91CF911F910F91089515
:10083000219A90E19A95F1F700C0811121989EE2EA
:100840009A95F1F7199B80E096E89A95F1F700C028
:1008500021980895CF93DF9300D000D0CDB7DEB7B5
:100860001C821B821A821982BE016F5F7F4FCE01EC
:1008700003960E945203882331F0843011F48FE6EE
:1008800003C080E001C084E60F900F900F900F909E
:10089000DF91CF9108955D9A5F9A5E9A289A0895A4
:1008A0005D985F985E98289808954398429841987B
:1008B000409808951F93CF93DF931F92CDB7DEB773
:1008C000339902C090E001C090E1329902C080E00B
:1008D00001C080E2982B319902C080E001C080E421
:1008E000982B309902C080E001C080E8192F182BA6
:1008F000439A429A419A409A3B983A983998389844
:100900005C98459A80E887FF39C0449A000000004F
:10091000339902C090E001C090E1329902C080E0BA
:1009200001C080E2319902C050E001C050E430992A
:1009300002C040E001C040E8449800000000449A32
:100940000000000026B123FB222720F9922B892BDF
:10095000852B842B329902C030E001C032E0832B1A
:10096000319902C020E001C024E0822B309902C0FE
:1009700090E001C098E0892B4498C5CF45983B9AF8
:100980003A9A399A389A89830E945504898114FDCC
:10099000439A15FD429A16FD419A17FD409A0F9011
:1009A000DF91CF911F910895449A00C000C04498F0
:1009B0000895CF93C82F0E945504C4FD439AC5FDE6
:1009C000429AC6FD419AC7FD409A0E94D4040E94F3
:1009D0005504C0FD439AC1FD429AC2FD419AC3FD30
:1009E000409ACF910C94D404853008F081E06531B1
:1009F00008F061E0982F90959170282F30E02150F9
:100A000031093595279545985C98892F8295880FEF
:100A1000880F807C815894E1299F800D1124860FD6
:100A20000E94D9040C945A04CF93DF931F92CDB740
:100A3000DEB74598611124C05C9869830E94D9048F
:100A40000E945A0469816623E9F00E945A048034A6
:100A500081F028F48431B1F461E082E00CC0843587
:100A600029F0883679F461E081E005C061E083E037
:100A700002C061E084E00F90DF91CF910C94F40408
:100A80005C9ADBCF0F90DF91CF910895CF93DF93E6
:100A9000EC018991882321F061E00E941405F9CFCF
:100AA000DF91CF91089545985C9A0E94D9040C94E7
:100AB0005A04F999FECF72BD61BD80BDFA9AF99AC8
:100AC00012BC11BC0895862798E02CE8382F3170AD
:100AD0008695311182279150C9F70895962728E00D
:100AE000AC01880F991F57FF04C031E2832730E122
:100AF00093272150A9F708957F928F929F92AF92EA
:100B0000BF92CF92DF92EF92FF920F931F93CF93FA
:100B1000DF93082F162FC8E1D0E0E82EE60ECE01B5
:100B20000E944903782ECE0101960E944903882E27
:100B3000CE0102960E944903982ECE0103960E9490
:100B40004903A82ECE0104960E944903B82ECE0177
:100B500005960E944903D82E602F80E10E9463050C
:100B6000F82E612F80E10E946305C82E612F8F2D22
:100B70000E94630570120AC0811208C09E1006C050
:100B8000AF1004C0BC1002C0D81631F0A496C4380F
:100B9000D10529F680E001C081E0DF91CF911F915E
:100BA0000F91FF90EF90DF90CF90BF90AF909F900C
:100BB0008F907F900895AF92BF92CF92DF92EF9285
:100BC000FF920F931F93CF93DF936C015B01C8E1FA
:100BD000D0E0E12CCE010E944903182FCE010196EE
:100BE0000E944903082F682F812F0E947C05F82E50
:100BF0008823B9F188E190E00E944903C82F8CE373
:100C000090E00E944903C81729F188E190E00E9412
:100C10004903C82F80E690E00E944903C8131AC018
:100C200089E190E00E944903C82F8DE390E00E9483
:100C30004903C8130FC089E190E00E944903C82FFF
:100C400081E690E00E944903C81304C0602F812F01
:100C50000E947C09F6011083F5010083FF24F394C0
:100C600016C0F2E0EF120DC0602F812F0E947C05AC
:100C7000811107C085E4F601808385E6F501808354
:100C800006C0E394A496C438D10509F0A3CF8F2DF4
:100C9000DF91CF911F910F91FF90EF90DF90CF9058
:100CA000BF90AF90089580B7806880BF80917C002E
:100CB000856480937C0080917A00866080937A00BE
:100CC00080917A00806880937A0080917A008064B5
:100CD00080937A0080917A0086FDFCCF8091780025
:100CE000909179002FEF8FE797E02150804090405E
:100CF000E1F700C0000028E080E090E030917A0049
:100D0000306430937A0030917A0036FDFCCF409108
:100D1000780050917900840F951F215079F7803821
:100D20009C40D8F480917C00806880937C008FEF99
:100D30009FE727E0815090402040E1F700C000008D
:100D400080917A00806480937A0080917A0086FD99
:100D5000FCCF80917800909179000895CF93DF9334
:100D6000C82FD8E08C2F81700E941804C69581117D
:100D7000C068D150B9F78C2FDF91CF9108950F93B0
:100D80001F93CF93DF9300D000D0CDB7DEB720E81C
:100D90003FEF3C832B838436D1F18F3609F04FC06F
:100DA00084E40E94300781E00E9418048823D9F36C
:100DB0008EEB0E9430078FEF0E94AE06082F10E0E6
:100DC0008FEF0E94AE0690E0982F8827800F911F2A
:100DD0009C012227387F232BA1F521E030E0AC01D4
:100DE0004C5F5F4F880F991F880F991F840F951FC5
:100DF00073E0969587957A95E1F7829FA001839F8E
:100E0000500D929F500D11245C834B8307C0BE018F
:100E10006F5F7F4FCE0103960E9452032B813C816E
:100E200037FD03C085E090E002C08BEF9FEF820F9B
:100E3000931F6AE070E00E94871D862F08C080E83B
:100E400006C09195819591092FEF3FEFC8CF0F9084
:100E50000F900F900F90DF91CF911F910F910895F8
:100E6000CF93C82F219A8CEC94E00197F1F700C042
:100E70000000219898ED9A95F1F70000199905C0A6
:100E80008AE294E00197F1F700C08CEC0E94AE0674
:100E90008C2FCF910C94AE0680917C00887F80933C
:100EA0007C0080917C00856080937C0020917C0098
:100EB0002095221F2227221F8BE0821B282F30E043
:100EC00080E090E0DC0140917A00406440937A0039
:100ED00040917A0046FDFCCF409178005091790016
:100EE000840F951FA11DB11D3F5F3213ECCF80967B
:100EF000A11DB11D26E0B695A795979587952A95D2
:100F0000D1F7089535B516BC81E085BB80EA86BD72
:100F100085E085BD80E095E541E050EA2FEF290F9F
:100F20002E3F68F4990F21E0349B20E0922BA89B80
:100F3000FECF45BB56BD883088F78F5FEFCF883036
:100F400088F335BD81E0911180E008959FEB980F03
:100F50009A3130F0843C21F0863D11F08C3D09F44B
:100F600080620895CF93DF93FC01DF01EB0189914B
:100F7000BE01882329F031969C919817B1F303C0E4
:100F800081E09081911180E0DF91CF910895282F29
:100F900040E050E066E970E099B1892F887093FFD6
:100FA00006C04150510961097109B1F714C0452BC0
:100FB000462B472B81F040E050E066E970E09091CD
:100FC000C00095FD05C04150510961097109B9F78B
:100FD0002093C600089581E00895CF93DF93EC013C
:100FE000FE018491882329F00E94C7072196882357
:100FF000B9F3DF91CF9108954F925F926F927F92F4
:101000008F929F92AF92BF92CF92DF92EF92FF9218
:101010000F931F93CF93DF93CDB7DEB7A1970FB692
:10102000F894DEBF0FBECDBF6B017C01FE0131968F
:1010300081E2DF011D928A95E9F7483449F018F4FE
:10104000423441F073C0423629F0483609F06EC090
:1010500080E052C081E090E0A0E0B0E08C159D05FA
:10106000AE05BF0528F4880F991FAA1FBB1FF6CF36
:1010700080389105A105B10558F081159048A1056A
:10108000B10560F0812C912CA12C50E8B52E0BC03D
:1010900040E8842E912CA12CB12C05C0812C30E885
:1010A000932EA12CB12CD501C4018C219D21AE2100
:1010B000BF21892B8A2B8B2B11F480E301C081E3A4
:1010C0000E94C707B694A7949794879481149104BB
:1010D000A104B10441F77FC0811114C0DF01A80F42
:1010E000B11D9C2D9F709C9394E0F594E794D79448
:1010F000C7949A95D1F78F5FC114D104E104F1042C
:1011000069F7EACFF82E80FF0CC0F3940AC0FE0105
:10111000EF0DF11D80818A3038F0895C0E94C7078D
:10112000FA94F110F4CF57C0805DF8CFC114D10408
:10113000E104F104D1F48FE496E0A1960FB6F8949F
:10114000DEBF0FBECDBFDF91CF911F910F91FF90FA
:10115000EF90DF90CF90BF90AF909F908F907F9057
:101160006F905F904F900C94ED07F7FE0AC0F094DB
:10117000E094D094C094C11CD11CE11CF11C01E08E
:1011800001C000E05F0110E08AE0482E512C612C84
:10119000712C1F5FC701B601A30192010E949B1D24
:1011A000D5016D935D0169017A01C114D104E10497
:1011B000F10411F0113269F7002321F08DE496E07B
:1011C0000E94ED07FE01E10FF11D8081805D0E940C
:1011D000C7071150B9F7A1960FB6F894DEBF0FBE3E
:1011E000CDBFDF91CF911F910F91FF90EF90DF90D6
:1011F000CF90BF90AF909F908F907F906F905F90B7
:101200004F9008958F929F92AF92BF92CF92DF92AC
:10121000EF92FF92CF93DF936B017C01C42FD0E05C
:101220002AE0822E912CA12CB12C6115710581052B
:10123000910541F0A50194010E949B1DCA01B901CD
:10124000DF5FF3CFF7FE02C0C111C150CD1778F4B4
:1012500044E6C701B601DF91CF91FF90EF90DF9098
:10126000CF90BF90AF909F908F900C94FC07CD1BB8
:10127000D0E0DC1769F381E596E00E94ED07DF5FBF
:10128000F8CFCF93DF93EC0190E08991882331F080
:10129000911104C00E94C707982FF7CFDF91CF911B
:1012A000089580E090E0A6E9B0E02091C00027FD1D
:1012B00005C00197A109B109C1F709C0892B8A2B83
:1012C0008B2B29F05A9A8091C6005A98089580E095
:1012D000089581E086BB10928500109284000895E5
:1012E000E1E8F0E08081887F80830895E1E8F0E024
:1012F0008081826080830895CF92DF92EF92FF9287
:101300000F931F93CF93DF93082F162FC82EC60E6F
:10131000682F80E10E946305F82E612F80E10E9412
:101320006305D82E612F8F2D0E946305E82EC8E13A
:10133000D0E0BE01802F0E945905BE016F5F7F4F34
:10134000812F0E945905BE016E5F7F4F8C2D0E9438
:101350005905BE016D5F7F4F8F2D0E945905BE015B
:101360006C5F7F4F8D2D0E945905BE016B5F7F4FD3
:101370008E2D0E945905A496C438D105D1F6DF916F
:10138000CF911F910F91FF90EF90DF90CF90089534
:10139000CF93DF93D3E680ED8D0F843020F00E9451
:1013A0005109D82FF8CF8D2F0E94C707C3E6D0333D
:1013B00041F48FEC8C0F893020F00E945109C82F26
:1013C000F8CF8FEC8D0F823040F480ED8C0F8A3097
:1013D00058F00E945109C82FF8CFD33329F40E9446
:1013E0005109C82F8033D9F78C2F0E94C7078C2F43
:1013F0009AE0D99F800D11248051DF91CF910895FB
:1014000088E496E00E94ED0781E496E00E94ED07F3
:101410008CE396E00E94ED078AE296E00C94ED07DB
:10142000BC0140984398429890E120E030E848E0C1
:10143000F901E623F723EF2B09F0409A46B946B9A4
:10144000409836952795915099F784E086B986B9EA
:101450000895419A389A399A3A9A3B9A4098429814
:10146000439893E028E034E084E126B926B981501E
:10147000E1F736B936B99150B9F72FEF8FE791E020
:10148000215080409040E1F700C000C0419808958D
:101490002B9800C02A9800C083B12A9A8295817047
:1014A00008952D982B982A989EBD0DB407FEFDCF68
:1014B0009EB58EBD0DB407FEFDCF8EB52D982B9831
:1014C0002A9A089580E090E00C94510ACF92DF921E
:1014D000EF92FF92CF93C82FC12C80EBD82E84E0DF
:1014E000E82EF12C0E94480A81110BC081E0C81A35
:1014F000D108E108F1088FEFC816D806E806F8060B
:1015000089F78C2F90E098540E94510A81E0CD28F1
:10151000CE28CF2809F080E0CF91FF90EF90DF90A8
:10152000CF900895AF92BF92CF92DF92EF92FF9249
:101530000F931F93CF93DF93D82EB92ED62F89E028
:1015400092E80E94510A00C00E94620A89E392E870
:101550000E94510A00C08AEA0E94660AC82F8AEADD
:101560000E94660AC80F8AEA0E94660AC80F8AEAC1
:101570000E94660AC80F8DE20E94660AC80F84EDB9
:101580000E94660AC80F8D2F0E94660AC80F6D2F31
:101590008FE09DE10E946E058C01DF3108F0DEE1F5
:1015A000CD2CED2CFB2C8E2D8C198D1770F4570142
:1015B000F70181917F010E94660AC80FF5016081E1
:1015C000C8010E946E058C01EECF00951095812F09
:1015D0000E94660AC80F802F0E94660AC80F8AEA16
:1015E0000E94660AC80F8AEA0E94660AC80F89E04C
:1015F00092E80E94510A00C00E94620A81E0C11173
:1016000001C080E0DF91CF911F910F91FF90EF908B
:10161000DF90CF90BF90AF900895CF92DF92EF927E
:10162000FF92CF93DF93EC01C12C80EBD82E84E0A6
:10163000E82EF12C0E94480A81110CC081E0C81AE2
:10164000D108E108F1088FEFC816D806E806F806B9
:1016500089F707C0CD28CE28CF2819F498819F5F3D
:10166000988380E090EB0E94510ADF91CF91FF9028
:10167000EF90DF90CF90089589ED92E80E94510A93
:1016800081E89AEC0E94510A00C000C083E89AECFD
:101690000E94510A80E008951F920F920FB60F9298
:1016A00011248F9381E080933F028F910F900FBEA2
:1016B0000F901F9018951F920F920FB60F92112442
:1016C0002F938F939F9380913D0290913E02892B9F
:1016D00049F080913D0290913E02019690933E0226
:1016E00080933D0280913B0290913C02892B49F00E
:1016F00080913B0290913C02019690933C02809332
:101700003B028091390290913A02892B49F08091F5
:10171000390290913A02019690933A0280933902ED
:1017200080913D0290913E02893E934020F01092BC
:101730003E0210923D0280913B0290913C02893E14
:10174000934020F010923C0210923B0280913902AB
:1017500090913A028131974220F010923A02109211
:1017600039029F918F912F910F900FBE0F901F9074
:1017700018951F920F920FB60F9211248F9380919C
:1017800038028F5F809338028F910F900FBE0F90B9
:101790001F901895CF93DF93CDB7DEB7C458D140D3
:1017A0000FB6F894DEBF0FBECDBF88E10FB6F89438
:1017B00080936000109260000FBE10E000E09E0178
:1017C0002F5F3F4F590180E2D9011D928A95E9F7B9
:1017D000FE01E85CFE4FC75ADE4FF983E883C95526
:1017E000D1408FE1282F11922A95E9F77E0137EE3B
:1017F000E31A3EEFF30AD701E82F1D92EA95E9F7C5
:101800009E0126503F4FC55ADE4F39832883CB5562
:10181000D140D901E82F1D92EA95E9F7FE01E55282
:10182000FF4FDF01282F1D922A95E9F7AE0144549E
:101830005F4FC35ADE4F59834883CD55D140DA01FB
:10184000E82F1D92EA95E9F79E0123563F4FC15AB2
:10185000DE4F39832883CF55D140D901E82F1D921F
:10186000EA95E9F72F513109CF59DE4F39832883A3
:10187000C156D140D901E82F1D92EA95E9F7FE0142
:10188000E15AFF4FDF01282F1D922A95E9F74C57A7
:101890005109CD59DE4F59834883C356D140DA01EF
:1018A000E82F1D92EA95E9F7FE01B196DF011D923E
:1018B0008A95E9F70E94290A80916400806C8093E0
:1018C000640080B7806880BF0E9476092898209ABB
:1018D0005E98569A5F98579A5D98559A3701DE013F
:1018E000A258BF4F9E01205C3F4FAE0143565F4F51
:1018F000FE01E454FF4F2F01BE0166507F4F7B0174
:10190000CE01885C9E4F6C0180E090E060E8962EEE
:101910008824839499B8F50181925F01F3011192B3
:101920003F01F60111926F01F70111927F01F2015F
:1019300011922F01FA011192AF01F90111929F0149
:101940009D92FFEF6FE771E0F15060407040E1F76A
:1019500000C000C001968E319105E1F60E94530649
:101960000E944C0731E0C359DE4F3883CD56D14039
:101970008C3928F0C359DE4F1882CD56D1408EE104
:10198000C85ADE4F8883C855D140C95ADE4F888374
:10199000C755D140BE01685A7E4FCE01895A9E4F2D
:1019A0000E94DB05811102C00E944B04C85ADE4F21
:1019B000F880C855D140C95ADE4F4880C755D1403C
:1019C000F110ECC04110EAC0C359DE4FA880CD56DB
:1019D000D140A110E3C010923C0210923B02109241
:1019E0003E0210923D0210923A021092390244983F
:1019F0003C9898B185B198130AC0809168008E7F99
:101A00008093680080916B008F7E80936B0098B10B
:101A10008BB198130AC0809168008B7F8093680017
:101A200080916D008F7E80936D0098B188B198137E
:101A30000AC0809168008D7F8093680080916C005F
:101A40008F7E80936C0010927C0010927A0010922E
:101A50003F020E945004449845985C980E945504A7
:101A60003C9A3D9A549A3B9A3A9A399A389A2FEF6F
:101A70003FEF45E0215030404040E1F700C000C05A
:101A8000429A439A0E94D4048FEF9FE50197F1F7A1
:101A900000C000000E94D404AFEFBFE51197F1F73A
:101AA00000C000000E94D404EFEFFFE53197F1F78A
:101AB00000C000000E945504429A0E94D4040E9473
:101AC0005A0460E088E20E94140560E08CE00E9405
:101AD000140560E086E00E94140560E081E00E9449
:101AE000140560E080E40E94140584E00E94530520
:101AF00084E00E9453058AE00E9453058AE00E9418
:101B0000530585E10E94530581E10E9453058AE057
:101B10000E94530584E00E94530582E00E94530511
:101B200085E00E94530582E00E94530580E00E94F8
:101B3000530580E00E94530580E00E94530580E039
:101B40000E94530580E00E94530560E080E80E94F7
:101B5000140561E082E00E94F40461E080E00E94EC
:101B6000140561E080E00E94140588E391E00E9482
:101B7000460561E080E00E94140561E080E00E947B
:101B8000140560E082E00E94140585B5856085BD7E
:101B900080916E00816080936E0035C00E94290A9A
:101BA000449A3C9898B185B198130AC08091680016
:101BB00081608093680080916B00806180936B00EE
:101BC00098B18BB198130AC08091680084608093AB
:101BD000680080916D00806180936D0098B188B13C
:101BE00098130AC080916800826080936800809199
:101BF0006C00806180936C0081E080933F020E94C2
:101C000053060E9450048FB7F8945B9A5398529AE7
:101C10001092C5009FE39093C40098E19093C10097
:101C200096E09093C2008FBF5A980E942A04C05930
:101C3000DE4F8883C057D1400E94BF06C859DE4F8F
:101C40008883C856D1402A9A2C9A2498239A259A98
:101C5000229A8CB581658CBDFFEF2FEF3EE0F150ED
:101C600020403040E1F700C00000A5E0EA2E80E00F
:101C700090EC0E94510A88EE90E80E94510A83E29B
:101C800096EC0E94510A81EC94E90E94510A80E28C
:101C900098E90E94510A8CEA92EC0E94510A81E86C
:101CA0009AEC0E94510A80E098EC0E94510A87EF5A
:101CB00094EC0E94510A80E090EE0E94510A89E063
:101CC00092E80E94510A8FEE95EA0E94510A4FEF66
:101CD0005FE761E0415050406040E1F700C000C064
:101CE000EA94E110C4CF0E94620A0E943C0BF110FA
:101CF00034C0411032C089E6C75EDE4F8883C951C7
:101D0000D14084E6C65EDE4F8883CA51D14080E36D
:101D1000C55EDE4F8883CB51D14080916E008160DB
:101D200080936E00F5E0EF2E5F9A6AE089E491E01F
:101D30000E94920A5F987FEF8FEF9AE17150804086
:101D40009040E1F700C00000EA94E110EDCF60E0C0
:101D500081E00E941405512C2FC00E948207582E4A
:101D6000882311F05E9A01C05E98006280E7C75E2A
:101D7000DE4F8883C951D140C65EDE4F4882CA51CA
:101D8000D140C55EDE4FF882CB51D1400E944C0756
:101D9000C45EDE4F8883CC51D140C35EDE4F588293
:101DA000CD51D140C859DE4FA880C856D140C25E3F
:101DB000DE4FA882CE51D14010617894842D90E0FE
:101DC0009C01220F331FA9014D5F5F4FC858DE4FA2
:101DD00059834883C857D14034E0C459DE4F388313
:101DE000CC56D1403FE0C559DE4F3883CB56D14069
:101DF000E3E02E2E66246394312C31E0C959DE4F86
:101E00003883C756D140AE0145525F4FCB59DE4FA4
:101E100059834883C556D140BC0161507109C259EC
:101E2000DE4F79836883CE56D1408AEF90E08C0FE5
:101E30009D1F860F971FC658DE4F99838883CA5708
:101E4000D140CA018F0D911DDC011197C458DE4F9E
:101E5000B983A883CC57D140ECEBF0E0EC0FFD1F29
:101E6000E60FF71FC258DE4FF983E883CE57D14003
:101E70002DE930E02C0F3D1F260F371FC058DE4FD5
:101E800039832883C058D1404EE750E04C0F5D1F86
:101E9000460F571FCE57DE4F59834883C258D14053
:101EA00080913F02882369F0EFB6F89410923F02C8
:101EB0000E948207582E882311F05E9A01C05E9816
:101EC000EFBE8091C000881F8827881F80FB10F913
:101ED00010FFACC1EFB6F8941E7F289A0E945109FA
:101EE00089838D3009F45DC030F4883009F459C01D
:101EF0008A3089F456C08F3709F453C08F3F59F4A4
:101F00000E9451098A830E9451098B830E945109C2
:101F10008C831D8247C00E94A60789830E94C70741
:101F2000D12C0E9451090E94A607982F8D3039F0BC
:101F30008A3029F0883029F18F3719F101C090E0FB
:101F4000E2E0F0E0EC0FFD1FED0DF11D9083892F15
:101F5000CC57DE4F9883C458D1400E94C707CC5756
:101F6000DE4F9881C458D140992311F40C94EE1996
:101F7000D3945CE15D15A8F688E690E00E94ED0739
:101F800011C0D1100C94021D1A8285E296E00E94C5
:101F9000ED0783E296E00E94ED078EE196E00E9455
:101FA000ED07198264E571E0CE0101960E94B20747
:101FB000882311F012601F7E69E571E0CE01019661
:101FC0000E94B207882311F000681F7E60E671E06E
:101FD000CE0101960E94B207811100626AE671E0AB
:101FE000CE0101960E94B207811118C06FE671E020
:101FF000CE0101960E94B207811110C064E771E022
:10200000CE0101960E94B207811108C06AE771E013
:10201000CE0101960E94B207882311F018601F7E3E
:1020200065E671E0CE0101960E94B207882311F0A7
:1020300010641F7E6FE771E0CE0101960E94B20727
:10204000882341F0F11006C0411004C00260016015
:102050000460106866E871E0CE0101960E94B20744
:10206000882321F0F11001C0411008606BE871E095
:10207000CE0101960E94B20781110E94000A6FE80A
:1020800071E0CE0101960E94B2078111006164E9FE
:1020900071E0CE0101960E94B207811107C067E985
:1020A00071E0CE0101960E94B2078111006460EADE
:1020B00071E0CE0101960E94B207882309F444C062
:1020C00084EA91E00E94410964E0A62EB12C80E0F0
:1020D00090E06C0154E0CC0CDD1C5A95E1F70E94B5
:1020E0005109982E0E94C707892D806290ED980FA4
:1020F0009A3040F09FE9980F963018F499EA980FBB
:1021000001C09FEF81E09F3F09F080E0B80EB6016B
:10211000692BCB01AA94A110DCCFB11011C08F3F65
:102120007FEF970769F00E94510A6C0187EC91E0FC
:102130000E944109B60180E090E048E60E94FC0759
:102140008DEC91E00E94410961ED71E0CE010196B4
:102150000E94B207882369F08DEE95E00E94ED079A
:102160000E9469090E94760980916F0081608093C6
:102170006F0066ED71E0CE0101960E94B2078823E0
:1021800079F08CEB95E00E94ED07109238020E94E6
:10219000700980916F008E7F80936F000E946909A3
:1021A00089818F3FC9F5CA808C0D8E31A8F5DB80FF
:1021B000BB24BA94BD0C8FE08B1570F1AC806C2DF4
:1021C00080E00E9463056D2D0E946305A81224C063
:1021D00086E6C75EDE4F8883C951D140C65EDE4FBA
:1021E000C882CA51D140C55EDE4FD882CB51D140A2
:1021F0001061FC1011C0E0E4F0E0EC0FFD1FEB0DEE
:10220000F11D8081811108C012FD06C0C65CDE4F41
:10221000D882CA53D14014602898898181508E3F5A
:1022200020F489EB95E00E94ED07EFBE06FF1BC08E
:10223000EFB6F8940F7B88EA95E00E94ED078DE9F0
:1022400095E00E94ED0789E895E00E94ED0744E6DD
:102250006CE070E080E090E00E94FC0785E895E08B
:102260000E94ED07EFBE11FF96C1DFB6F8941D7F07
:102270000E9469090E9470090E94000A81EC92E0A4
:102280000E94ED078EE892E00E94ED07BE01685AB9
:102290007E4FCE01895A9E4F0E94DB0581110CC0F2
:1022A00088E892E00E94ED078FE692E00E94ED0739
:1022B00089E692E00E94ED0783E692E00E94ED0736
:1022C00088E492E00E94ED07C359DE4FA880CD5606
:1022D000D140A11003C08CE291E002C084E291E001
:1022E0000E94410980E392E00E94ED078AE292E0B9
:1022F0000E94ED07C95ADE4F6881C755D140653449
:1023000039F070E080E090E044E60E94FC0704C0F1
:1023100083E292E00E94ED0780E292E00E94ED07E6
:102320008AE192E00E94ED0785E092E00E94ED07CD
:102330008FEF91E00E94ED07C85ADE4F6881C855C3
:10234000D140653639F070E080E090E044E60E94CC
:10235000FC0704C088EF91E00E94ED0785EF91E053
:102360000E94ED078FEE91E00E94ED07C85ADE4F04
:102370008881C855D140C95ADE4F9881C755D14090
:10238000891306C0811104C083EC91E00E94ED071F
:102390008EEB91E00E94ED0785E991E00E94ED0748
:1023A000C359DE4F3881CD56D140311104C08AE780
:1023B00091E00E94ED0783E591E00E94ED070E9405
:1023C00051098823E1F3282FCC57DE4F2883C458C6
:1023D000D1400E94C70780E591E00E94ED07E12C03
:1023E000CC57DE4F2881C458D1408DE491E0CC57C2
:1023F000DE4F2883C458D1400E94ED07CC57DE4FF2
:102400002881C458D140253571F130F4233561F06D
:10241000243509F449C085C0243709F445C025375F
:1024200011F1233709F07DC084E391E00E94ED07AC
:102430008EE291E00E94ED07C85ADE4FC880C85571
:10244000D1400E94C809C85ADE4F8883C855D14080
:1024500088E291E00E94ED07C85ADE4F8881C85596
:10246000D14025E71EC08FE091E00E94ED0789E092
:1024700091E00E94ED07C95ADE4FC880C755D14090
:102480000E94C809C95ADE4F8883C755D14083E0EE
:1024900091E00E94ED07C95ADE4F8881C755D140AF
:1024A00023E78C113CC03DC0C359DE4FA880CD56F8
:1024B000D140A11036C0C85ADE4F8881C855D140DE
:1024C0008823A9F0C95ADE4F8881C755D140882397
:1024D00071F083EE90E0CC57DE4F2883C458D14092
:1024E0000E94ED07CC57DE4F2881C458D140C85A0E
:1024F000DE4F8881C855D140C95ADE4F9881C755F3
:10250000D140C85ADE4F1882C855D140C95ADE4F53
:102510001882C755D140911102C0882311F0EE24D2
:10252000E394C85ADE4F6881C855D140C95ADE4F7E
:102530008881C755D14031E0611101C030E091E0A0
:10254000811101C090E0391350CFEE20F9F00E94C4
:102550007C09C85ADE4F6881C855D140C95ADE4F40
:102560008881C755D1400E947C05882319F088ECEA
:1025700090E002C086EA90E00E94ED0785E990E0D5
:102580000E94ED07EE2031F0006104C085E790E085
:102590000E94ED07DFBE07FF91C0AFB6F8940F773A
:1025A0000E9469090E94700981EB93E00E94ED0787
:1025B00080E793E00E94ED078AE693E00E94ED0732
:1025C00084E593E00E94ED070E94C809D82E81E5BA
:1025D00093E00E94ED078BE393E00E94ED070E94D9
:1025E000C809E82E88E393E00E94ED0785E393E0B5
:1025F0000E94ED078FE193E00E94ED070E94C80959
:10260000B82E8CE193E00E94ED0786E093E00E94F3
:10261000ED070E94C809C82E82E093E00E94ED07F2
:10262000DB1003C0EC1409F448C087EC92E00E9470
:10263000ED070E945109982E8823D9F30E94C707FD
:10264000892D80628A36C9F583E6C75EDE4F8883AE
:10265000C951D140C65EDE4FD882CA51D140C55E55
:10266000DE4FE882CB51D140C45EDE4FB882CC5100
:10267000D140C35EDE4FC882CD51D140D41014C0CA
:10268000EF1012C085E695E00E94ED07C35EDE4FB5
:102690006881CD51D140C45EDE4F8881CC51D1409C
:1026A0000E947C09006105C08AE395E00E94ED0765
:1026B000106186E395E00E94ED07AFBE03FF10C0F6
:1026C0008FB7F894077FFE01E05CFF4FCD59DE4FD6
:1026D0009881C356D140905F11929E13FDCF8FBF5A
:1026E00013FFFFC0BFB6F894177F0E9469090E94CC
:1026F000700999819936C9F09437B9F09636A9F0E6
:1027000085E295E00E94ED070E945109982F9062A2
:10271000892FCC57DE4F9883C458D1400E94C707F9
:10272000CC57DE4F9881C458D140FE01E75EFE4F82
:102730009083963641F0993609F455C0943709F4E0
:1027400058C0D12C9CC0DD24D394CC24C39426E162
:1027500035E04F01C9010E94ED070E945109E82EA2
:102760008823D9F30E94C70720EDE20E0E94510989
:10277000A82E8823D9F30E94C707EE0C9E2D990F2F
:10278000990F9E0D9053E92EEA0C83E095E00E948C
:10279000ED07EE20D1F02E2D30E041E0C41619F007
:1027A00081E190E002C08FE190E0281739076CF4D6
:1027B0006E2D70E080E090E044E60E94FC07F4019A
:1027C000EC0DF11DE0829C2D06C081EF94E00E948B
:1027D000ED0793E0D12C27E035E042E0C42E9130A4
:1027E00009F4B8CF4CC0908384E6818380E3828370
:1027F00044C0C059DE4F8881C057D1400E94BF06F7
:10280000C859DE4F8883C856D14084EE94E00E94B8
:10281000ED07C859DE4F3881C856D140303819F419
:102820008FED94E010C044E0C859DE4FA880C85630
:10283000D1406A2D772767FD7095872F972F0E94CB
:1028400002098CED94E00E94ED0784E7C75EDE4F3D
:102850008883C951D14085E6C65EDE4F8883CA5160
:10286000D1408DE6C55EDE4F8883CB51D14080E7F5
:10287000C45EDE4F8883CC51D140DD24D39488EDF3
:1028800094E00E94ED07DD2009F11061C75EDE4F84
:102890008881C951D1408636D1F4C65EDE4F888129
:1028A000CA51D140F81213C0C55EDE4F8881CB51AA
:1028B000D140FE01E80FF11D97AD911108C0C65C33
:1028C000DE4F8883CA53D140146001C01F7E8091BF
:1028D000C00087FF03C08091C600F9CF0E9476092F
:1028E000BFBE16FFCDC12FB7C958DE4F2883C757CB
:1028F000D140F8941F7B0E94000A87EA94E00E946E
:10290000ED0782E994E00E94ED0780E894E00E94E0
:10291000ED078AE794E00E94ED0785E294E00E94CB
:10292000ED079E01215A3F4FCB58DE4F3983288354
:10293000C557D140235A3F4FCD58DE4F39832883A6
:10294000C357D140225C3F4FC759DE4F398328839C
:10295000C956D140AE0143565F4F6A012C57310929
:10296000CF58DE4F39832883C157D140812C912C19
:1029700054018394CF58DE4FE880C157D140CF59DE
:10298000DE4F3881C156D140E31A48E04E1520F0A1
:1029900083E294E00E94ED0744E6C501B4010E9481
:1029A000FC0780E294E00E94ED07C759DE4FA88142
:1029B000B981C956D1407C90711005C08CE194E07A
:1029C0000E94ED0712C08AE194E00E94ED07B9E091
:1029D000B71520F088E194E00E94ED07672D70E0C4
:1029E00080E090E044E60E94FC0785E194E00E94CC
:1029F000ED07CD58DE4FE881F981C357D140819171
:102A0000CD58DE4FF983E883C357D1406AE00E9476
:102A10007B1D792E811105C080E194E00E94ED07B5
:102A200012C0682F70E080E090E042E00E9402094E
:102A30008EE094E00E94ED07672D70E080E090E06A
:102A400044E60E94FC078BE094E00E94ED07C75922
:102A5000DE4FA881B981C956D1407D90C759DE4F5C
:102A6000B983A883C956D140772029F0F601808127
:102A70000E94C70704C089E094E00E94ED0786E049
:102A800094E00E94ED07CF58DE4FA881B981C1576D
:102A9000D1406D91CF58DE4FB983A883C157D14043
:102AA000603849F0772767FD7095872F972F44E0AE
:102AB0000E94020909C0772019F081E094E002C069
:102AC0008CEF93E00E94ED0789EF93E00E94ED0701
:102AD000CB58DE4FE881F981C557D1407190CB5872
:102AE000DE4FF983E883C557D1407720A1F0F3E6A4
:102AF000F7151CF086EF93E002C084EF93E00E948C
:102B0000ED07672D772767FD7095872F972F44E690
:102B10000E94FC0704C08FEE93E00E94ED078E2D0B
:102B200063E00E947B1D923019F48CEE93E002C0AA
:102B300086EE93E00E94ED072FEFC21AD20A3FEF14
:102B4000831A930AA30AB30A4FE184169104A104DD
:102B5000B10409F00FCF81EE93E00E94ED0733201E
:102B600021F08BED93E00E94ED0780EC93E00E9452
:102B7000ED07832D90E0A0E0B0E044E6BC01CD017C
:102B80000E94FC07332021F08AEB93E00E94ED07BE
:102B900087EB93E00E94ED07DE01A552BF4F81E075
:102BA000C55ADE4F2881CB55D140225EFE01E6504A
:102BB000FF4F90E03191381301C09F5F2E13FACF81
:102BC0009D938F5F8F3191F78CEB94E00E94ED071E
:102BD000BE0165527F4F6B01812C912C540183946F
:102BE000EC2CCB59DE4F7881C556D140E71A88E0EE
:102BF0008E1518F080E30E94C70744E6C501B401B2
:102C00000E94FC0789EB94E00E94ED07D6016D91CC
:102C10006D01611105C085EB94E00E94ED0706C0CF
:102C200070E080E090E043E00E9402098E2D63E0B6
:102C30000E947B1D923029F482EB94E00E94ED0704
:102C400009C0BAE1EB2E80EB94E00E94ED07EA9414
:102C5000E110F9CFBFEF8B1A9B0AAB0ABB0AEFE179
:102C60008E169104A104B10409F0BACF8DEA94E064
:102C70000E94ED07C958DE4FA880C757D140AFBEAC
:102C8000202F2071E22E04FF1AC0F894F1100AC020
:102C9000411008C060E081E00E9414058BED91E0D6
:102CA0000E9446059EE088E10FB6F894A8958093AF
:102CB00060000FBE909360000E94000AFFCF05FDE8
:102CC0000AC014FF91C3C75EDE4F8881C951D1404D
:102CD000893609F033C3DFB6F8940F7DBE01655223
:102CE0007F4F4E013FE5830E911CCE0182589F4FCE
:102CF0009E0123563F4FAE0144545F4FFE01E65004
:102D0000FF4FA0E8BA2EC55ADE4FC880CB55D14040
:102D1000AEE1CA0E1192DB011D92BD01DA011D92D6
:102D2000AD01D9011D929D01DC01BD92CD01D401FF
:102D30001D924D01CE12EECFF11002C04420E9F1F8
:102D4000C658DE4FE881F981CA57D140F08281E050
:102D5000C458DE4FA881B981CC57D1408C930E94D2
:102D60004C07C258DE4FE881F981CE57D1408083AD
:102D7000511002C08EE601C08AE6C058DE4FA8811D
:102D8000B981C058D1408C93C859DE4FA880C8562D
:102D9000D140CE57DE4FE881F981C258D140A082A0
:102DA000EFE5F0E0EC0FFD1FC259DE4F28813981BD
:102DB000CE56D140E20FF31F1082DFBEC959DE4F5D
:102DC0003881C756D140312C311112C08091380260
:102DD00090E0C858DE4F48815981C857D140481704
:102DE000590734F0C959DE4F1882C756D1400DC07B
:102DF00014FDACC2809138028E3708F0A7C231E0D2
:102E0000C959DE4F3883C756D14012FF5DC0DFB6C7
:102E1000F8941B7F33B131704F9932604D99346013
:102E20004E993860CC57DE4F3883C458D1400E9449
:102E30004B04CC57DE4F3881C458D140552069F13E
:102E4000C65CDE4FC880CA53D1408FEF8C0D8031F5
:102E500020F520E180E090E0880F991F2C1101C03F
:102E600081602150C9F7CC57DE4F3883C458D14018
:102E70000E94100A89E999E60197F1F700C080E005
:102E800090E00E94100AFE01EC0DF11D81E087AF79
:102E9000CC57DE4F3881C458D140CC57DE4F3883F1
:102EA000C458D1400E945004CC57DE4F3881C458DA
:102EB000D14030FD289A31FD5F9A32FD5D9A33FD95
:102EC0005E9A0E943C0BDFBE0E94480A80FB15F907
:102ED00015FFC4C19FB6F8941F7D5D9AC95ADE4F95
:102EE0001882C755D1400E94620ACE01895A9E4F6E
:102EF0000E940D0BD82E682F8FE09DE10E946E0579
:102F00005C012D2D2F3108F02EE1DE01A85CBE4FB3
:102F10006D018C2DC75ADE4FF881C955D1408F1BEA
:102F20008217C0F4CE01895A9E4FCC57DE4F2883BA
:102F3000C458D1400E940D0BF60181936F01682F98
:102F4000C5010E946E055C01CC57DE4F2881C45834
:102F5000D140DFCFE8E3F1E0EC0FFD1FE20FF11D00
:102F60001082CE01895A9E4F0E940D0BC82ED12C83
:102F7000DC2CCC24CE01895A9E4F0E940D0BC82A0E
:102F80000E94620A00C089E092E80E94510A00C0D3
:102F9000A094B094CA14DB0469F431E020E0C95A6B
:102FA000DE4F8881C755D140811101C030E0832FA9
:102FB000922F02C081E090E05D98892B39F085E680
:102FC000C85CDE4F8883C853D14045C1C85CDE4F22
:102FD0008881C853D140893609F456C060F48336DD
:102FE00009F400C1863609F034C1C55CDE4F888122
:102FF000CB53D1400CC0803709F497C0843709F017
:1030000028C1C45CDE4F8881CC53D14027C0815099
:1030100031F0A0E4B9E81197F1F70000F8CFC75CF0
:10302000DE4F8881C953D1408F1113C1F11003C005
:10303000442009F40EC1C65CDE4F8881CA53D140DA
:103040008150E0E4F0E0EC0FFD1FE80FF11D8081FE
:103050008111FFC012FDFDC01460FBC0815029F03A
:10306000E3E5F1E93197F1F7F9CF0E942A04C0595D
:10307000DE4F8883C057D1400E94BF06C859DE4F3B
:103080008883C856D140E5C0C55CDE4F8881CB53EC
:10309000D140815031F0A0E4B9E81197F1F7000078
:1030A000F8CF80E7C75EDE4F8883C951D140C65E46
:1030B000DE4F4882CA51D140C55EDE4FF882CB5107
:1030C000D140F11002C0442019F00E944C0701C009
:1030D00082E3C45EDE4F8883CC51D140F11001C041
:1030E0004110E52CC35EDE4FE882CD51D140C85976
:1030F000DE4FA880C856D140C25EDE4FA882CE51B6
:10310000D1400E9469091092380280916F0081605D
:1031100080936F000E947609106108600062C959AF
:10312000DE4F1882C756D14094C0C25CDE4F888102
:10313000CE53D140815039F0A8E7B1EA1197F1F7A9
:1031400000C00000F7CFC75CDE4FE881C953D14013
:10315000E53479F0EE2369F0E41559F0E150F0E040
:10316000AAEFB0E0AC0FBD1FAE0FBF1F8C9188233C
:1031700011F033946EC0C65CDE4F8881CA53D140D3
:103180008C93C55CDE4F8881CB53D140ACEBB0E073
:10319000AC0FBD1FAE0FBF1F8C93C45CDE4F888188
:1031A000CC53D140811102C08EE601C08AE6ADE960
:1031B000B0E0AC0FBD1FAE0FBF1F8C93AEE7B0E009
:1031C000AC0FBD1FAE0FBF1FC35CDE4F8881CD5358
:1031D000D1408C932FE530E02C0F3D1FE20FF31F01
:1031E000108237C0C35CDE4F8881CD53D1408150FF
:1031F00039F0A5E6B9E91197F1F700C00000F7CF63
:10320000511027C0C75CDE4F8881C953D140481296
:1032100020C0C65CDE4F8881CA53D140F81219C065
:10322000C55CDE4F8881CB53D140C45CDE4F6881E2
:10323000CC53D1409FEF980F9E3158F49FEF960FDB
:103240009E3138F4841102C06F1519F00E947C0978
:103250000061106802600E943C0B9FBEF1100C944C
:10326000500F41100C94500F80913D0290913E02FE
:103270008C3F910578F480913B0290913C028C3F09
:10328000910540F48091390290913A02823F924038
:1032900008F4B3C017FDB1C0EFB6F89480913D02B9
:1032A00090913E028C3F910540F480913B029091B9
:1032B0003C028C3F910520F112C010923E02109208
:1032C0003D0261E081E00E94F40454E1D52E88E0E3
:1032D00092E00E944605DA94D110F9CFE6CF109221
:1032E0003C0210923B0261E082E00E94F40444E15F
:1032F000D42E88E092E00E944605DA94D110F9CFEE
:103300008091390290913A02823F9240A8F0109247
:103310003A021092390261E083E00E94F40434E141
:10332000D32E87E092E00E944605DA94D110F9CFBF
:1033300023E0222E66246394EFBE5FC0C959DE4F9E
:103340003881C756D140332309F440CDDFB6F89415
:103350001F7EC75EDE4F8881C951D14083568231BE
:1033600050F490E0FC01EE5EFE4F9080FC01E050D6
:10337000FF4FC08002C0C12C912CA92CB12CE9E1D7
:10338000F1E0EC0FFD1FEA0DFB1DC082118293944A
:103390005F01CC2071F05F9A692DCE01875E9E4F50
:1033A0000E94920AD5018C9181508C935F98CA94A7
:1033B000F0CF809138028D3748F40E9470090E9446
:1033C000690980916F008E7F80936F0010923802A0
:1033D0000E943C0B10680160DFBE11CDDD2011F4AE
:1033E0000C94C50F0C94BC0FC959DE4FA880C7566A
:1033F000D140AA2009F4EACCFDCC17FD02C00C9400
:10340000500FDFB6F8941F7700FFCEC161E081E076
:103410000E94F4048DEE91E00E944605C75EDE4FE7
:103420008881C951D140893609F483C030F483368C
:1034300009F45BC1863641F0B0C1803709F496C00B
:10344000843709F414C1A9C161E080E00E94140529
:1034500082EF91E00E944605C65EDE4F6881CA5148
:10346000D14070E080E090E022E0AE014F5D5F4F20
:103470000E94091DCE0181960E94460585EF91E0CC
:103480000E944605C55EDE4F6881CB51D14070E099
:1034900080E090E022E0AE014F5D5F4F0E94091D89
:1034A000CE0181960E94460583E092E00E94460587
:1034B00002FD19C1C559DE4F6881CB56D140C459B0
:1034C000DE4F8881CC56D1400E94F40488E092E01F
:1034D0000E944605662D822D0E94F40485EC91E041
:1034E0000E944605C65EDE4F6881CA51D14070E039
:1034F00080E090E022E0AE014F5D5F4F0E94091D29
:10350000CE0181960E94460561E080E00E9414058C
:10351000C55EDE4F6881CB51D14070E080E090E025
:1035200022E0AE014F5D5F4F0E94091DCE018196E2
:10353000BAC089EF91E00E94460502FDD4C0C5598A
:10354000DE4F6881CB56D140C459DE4F8881CC56BE
:10355000D1400E94F40488E092E00E944605662D66
:10356000822D0E94F4048AE092E09DC080E392E004
:103570000E944605C65EDE4F6881CA51D14070E0A8
:1035800080E090E022E0AE014F5D5F4F0E94091D98
:10359000CE0181960E94460582EF91E00E94460589
:1035A000C55EDE4F6881CB51D14070E080E090E095
:1035B00022E0AE014F5D5F4F0E94091DCE01819652
:1035C0000E94460588E092E00E944605C45EDE4FF8
:1035D0008881CC51D140843620F488E092E00E946A
:1035E0004605C45EDE4F8881CC51D1409AE0E92E79
:1035F0006E2D0E947B1D682F70E080E090E021E03E
:10360000AE014F5D5F4F0E94091DCE0181960E9461
:10361000460581E192E00E944605C45EDE4F888146
:10362000CC51D1406E2D0E947B1D692F70E080E04F
:1036300090E021E0AE014F5D5F4F0E94091DCE0179
:1036400081960E94460583E192E00E944605C35E92
:10365000DE4F8881CD51D140811102C08EE601C07C
:103660008AE661E00E94140588E092E094C086E159
:1036700092E00E94460502FD36C0C559DE4F6881C2
:10368000CB56D140C459DE4F8881CC56D1400E94E0
:10369000F40488E092E00E944605662D822D0E9487
:1036A000F40487E292E00E94460597E0960D963179
:1036B00020F081E0820D91E001C0822D853008F07C
:1036C00083E021E030E030933A0220933902C4597C
:1036D000DE4F2882CC56D140C559DE4F6882CB568A
:1036E000D140282E692E0B7F58C080E392E00E94C3
:1036F0004605C65EDE4F6881CA51D14070E080E069
:1037000090E022E0AE014F5D5F4F0E94091DCE01A7
:1037100081960E94460582EF91E00E944605C55EB3
:10372000DE4F6881CB51D14070E080E090E022E034
:10373000AE014F5D5F4F0E94091DCE0181960E9430
:1037400046058EE292E00E944605C45EDE4F688127
:10375000CC51D14070E080E090E022E0AE014F5DBE
:103760005F4F0E94091DCE0181960E94460582EF9F
:1037700091E00E944605C35EDE4F6881CD51D14085
:1037800070E080E090E022E0AE014F5D5F4F0E946C
:10379000091DCE0181960E9446050E7F81E090E0D2
:1037A00090933E0280933D0201FF29C161E082E0D7
:1037B0000E94F40482E392E00E944605C85CDE4F5A
:1037C0008881C853D140893609F442C0C8F5833690
:1037D00009F4B6C0863609F00BC161E080E00E94B2
:1037E000140582EF91E00E944605C75CDE4F6881B8
:1037F000C953D14070E080E090E022E0AE014F5D1F
:103800005F4F0E94091DCE0181960E94460585EFFB
:1038100091E00E944605C65CDE4F6881CA53D140E4
:1038200070E080E090E022E0AE014F5D5F4F0E94CB
:10383000091DCE0181960E94460583E092E0D6C024
:10384000803749F0843709F0D3C086E192E0CEC0DA
:1038500089EF91E0CBC080E392E00E944605C75C0F
:10386000DE4F6881C953D14070E080E090E022E0F3
:10387000AE014F5D5F4F0E94091DCE0181960E94EF
:10388000460582EF91E00E944605C65CDE4F6881E6
:10389000CA53D14070E080E090E022E0AE014F5D7D
:1038A0005F4F0E94091DCE0181960E94460588E067
:1038B00092E00E944605C55CDE4FE880CB53D140C4
:1038C000F3E6FE1520F088E092E00E9446058E2D7A
:1038D0006AE00E947B1DE92E682F70E080E090E096
:1038E00021E0AE014F5D5F4F0E94091DCE01819620
:1038F0000E94460581E192E00E9446056E2D70E02F
:1039000080E090E021E0AE014F5D5F4F0E94091D15
:10391000CE0181960E94460583E192E00E94460511
:10392000C45CDE4F8881CC53D140811102C08EE649
:1039300001C08AE661E00E94140588E092E056C06A
:1039400080E392E00E944605C75CDE4F6881C95360
:10395000D14070E080E090E022E0AE014F5D5F4F2B
:103960000E94091DCE0181960E94460582EF91E0DA
:103970000E944605C65CDE4F6881CA53D14070E0A4
:1039800080E090E022E0AE014F5D5F4F0E94091D94
:10399000CE0181960E9446058EE292E00E94460585
:1039A000C55CDE4F6881CB53D14070E080E090E091
:1039B00022E0AE014F5D5F4F0E94091DCE0181964E
:1039C0000E94460582EF91E00E944605C45CDE4FEE
:1039D0006881CC53D14070E080E090E022E0AE01FD
:1039E0004F5D5F4F0E94091DCE0181960E944605E2
:1039F0000D7F81E090E090933C0280933B02DFBE1C
:103A00000C94500FDA948BE690E00E94ED070C9432
:103A1000B90F4F925F926F927F929F92AF92BF9237
:103A2000CF92DF92EF92FF920F931F93CF93DF938A
:103A30006B017C015A01D22F97FF0EC08DE2FA0173
:103A40008083F094E094D094C094C11CD11CE11CFC
:103A5000F11C9924939401C0912CD11101C0D1E0A3
:103A6000A7019601C1E09AE0492E512C612C712CDE
:103A7000CA01B901A30192010E949B1D21153105C4
:103A80004105510511F0CF5FF3CFCD1708F4CD2FCD
:103A9000DC2FD90D8AE0482E512C612C712C8D2FF2
:103AA00090E0D91591F08A0D9B1D8C0101501109F0
:103AB000C701B601A30192010E949B1D605DF80140
:103AC000608369017A01D150EACFAC0EB11CF501D7
:103AD000E80FF91F1082DF91CF911F910F91FF9096
:103AE000EF90DF90CF90BF90AF909F907F906F90BE
:103AF0005F904F900895991B79E004C0991F961725
:103B000008F0961B881F7A95C9F78095089597FB52
:103B1000072E16F4009407D077FD09D00E94BA1D35
:103B200007FC05D03EF4909581959F4F08957095C0
:103B300061957F4F0895052E97FB1EF400940E9417
:103B4000B21D57FD07D00E94CE1D07FC03D04EF4D6
:103B50000C94B21D50954095309521953F4F4F4F95
:103B60005F4F089590958095709561957F4F8F4F29
:103B70009F4F0895AA1BBB1B51E107C0AA1FBB1F83
:103B8000A617B70710F0A61BB70B881F991F5A95E9
:103B9000A9F780959095BC01CD010895A1E21A2E58
:103BA000AA1BBB1BFD010DC0AA1FBB1FEE1FFF1FE1
:103BB000A217B307E407F50720F0A21BB30BE40B31
:103BC000F50B661F771F881F991F1A9469F7609578
:103BD0007095809590959B01AC01BD01CF01089532
:043BE000F894FFCF87
:103BE40003000005000003000000000000020000C4
:103BF40000020500000300000300000000000006AE
:103C0400000000045AFC6E64626F78005472616EA6
:103C1400736D6974746572002020456C2046756567
:103C24007261646F726F2020005555555555555576
:103C340055555500636F6E660072656D6F7465004F
:103C4400636C6561726C6973740073656E6400669D
:103C5400697265006964656E740074656D70006FE7
:103C64007264657273007A65726F00636C73006BC3
:103C7400696C6C00687700686172647761726500D2
:103C840072666D000A0D4B6F6D6D616E646F202856
:103C940031362D4269742D4865782D466F726D61F9
:103CA40074293A20307800203D203078000A0A0D2B
:103CB40000696E743100696E743000526573657406
:103CC40074696E6720646576696365210054783A87
:103CD4002000205300204348004964656E746966DF
:103CE40079202020202020202000784944454E546B
:103CF400002E0056200054656D70657261747572F3
:103D0400652020202020007854454D5020002D3E71
:083D1400550052783A2000002E
:00000001FF
