:1000000062C400007CC400007AC4000078C4000010
:1000100076C400000C94D90872C4000070C40000BB
:100020006EC400006CC400006AC400000C94DF08B9
:1000300066C4000064C4000062C4000060C4000024
:100040005EC400005CC400005AC4000058C4000034
:1000500056C4000054C4000052C4000050C4000044
:100060004EC400004CC400000A0D001B5B3144204C
:100070001B5B3144000D0A000D0A417573776168FE
:100080006C3A202845292D416E7AC3BC6E64657296
:100090002C20285429616C6F6E2C2041626272758D
:1000A0006368206D697420616E64657265722054A6
:1000B000617374653A2000452D414E5AC39C4E44ED
:1000C000455220283230206D73290054414C4F4E48
:1000D000202832207329000D0A4465727A656974FC
:1000E0002065696E67657374656C6C746573204117
:1000F0006E7AC3BC6E646D697474656C0D0A3D3DA7
:100100003D3D3D3D3D3D3D3D3D3D3D3D3D3D3D3D1F
:100110003D3D3D3D3D3D3D3D3D3D3D3D3D3D3D3D0F
:100120000D0A0A005665727363686CC3BC7373650D
:100130006C756E67206E6963687420616B74697694
:100140006965727421000D0A4B65696E6520C38470
:100150006E646572756E67656E206765737065693C
:100160006368657274210D0A0A000D0A4572666F94
:100170006C67726569636820676573706569636839
:100180006572742C204465766963652073746172AE
:10019000746574206E6575210D0A0A000D0A4469A4
:1001A0006573656E205363686CC3BC7373656C20A4
:1001B00073706569636865726E20286A2F6E293FC7
:1001C000200020000D0A4162627275636820776525
:1001D00067656E20756E7A756CC3A4737369676505
:1001E000722045696E67616265210D0A4B65696E13
:1001F0006520C3846E646572756E67656E20676581
:10020000737065696368657274210D0A0A000D0ACE
:100210000A4E65756572205363686CC3BC73736561
:100220006C3A20000A0D000D0A0A4E6575656E20B5
:1002300028532963686CC3BC7373656C2065696E51
:10024000676562656E2C2041626272756368206D1D
:1002500069742062656C6965626967657220616EA8
:1002600064657265722054617374652120002000FA
:100270000D0A5363686CC3BC7373656C206C742E79
:1002800020454550524F4D3A202020200020005656
:1002900065727363686CC3BC7373656C756E67203D
:1002A000616B74697669657274210D0A5363686CB9
:1002B000C3BC7373656C206C742E2046756E6B6DB9
:1002C0006F64756C3A20000A0D416B7475656C6C37
:1002D000652045696E7374656C6C756E673A2000B5
:1002E0003D3D3D3D3D3D3D3D3D3D3D3D3D3D3D3D3E
:1002F0003D3D3D3D3D3D3D3D3D3D3D3D3D3D3D3D2E
:100300003D0A0D000A0D4B6F6E6669677572617468
:10031000696F6E20646572205665727363686CC382
:10032000BC7373656C756E670A0D000A0D4B6569C9
:100330006E6520C3846E646572756E6720766F7219
:1003400067656E6F6D6D656E0A0A0D000A0D4E656C
:100350007573746172742E2E2E0A0A0D004665683C
:100360006C6572212042697474652065726E6575D2
:10037000742076657273756368656E210A0D000AD4
:100380000A0DC3846E646572756E67206572666F50
:100390006C677265696368210A0D001B5B33376DFA
:1003A000001B5B33316D002C20454E544552203DDF
:1003B00020616C7465722057657274293A2000358B
:1003C00030000A0D4E65756520536C6176652D49C8
:1003D00044202830312D001B5B33376D001B5B330D
:1003E000316D002C20454E544552203D20616C74E7
:1003F00065722057657274293A20003530004E65C9
:10040000756520556E697175652D49442028303118
:100410002D000A0D000A0D00284929447320C3A4A9
:100420006E6465726E2C2041626272756368206D25
:1004300069742062656C6965626967657220616EC6
:1004400064657265722054617374652120000A0A24
:100450000A0D001B5B33376D000A0D004645484C02
:100460004552001B5B33316D00416B7475656C6CDC
:100470006520536C6176652D49443A2020001B5B52
:1004800033376D000A0D004645484C4552001B5B52
:1004900033316D000A0A0D416B7475656C6C652013
:1004A000556E697175652D49443A20000A0D416EFB
:1004B00067657363686C6F7373656E6573204465FD
:1004C000766963653A20001B5B33376D001B5B3335
:1004D000376D000A0D4665686C6572206265696D4E
:1004E0002049442D4C6164656E0A0D001B5B33315D
:1004F0006D000A4B6F6E66696775726174696F6E25
:100500007370726F6772616D6D0A0D3D3D3D3D3DCB
:100510003D3D3D3D3D3D3D3D3D3D3D3D3D3D3D3D0B
:100520003D0A0D001B5B33336D0049442D57656355
:100530006873656C206D6974206A2062657374C38A
:10054000A4746967656E2C20616262726563686578
:100550006E206D697420616E6465726572205461ED
:100560007374652120000A0A0D004E6575652053DD
:100570006C6176652D49443A2020202020202000FF
:100580000A0D004E65756520556E697175652D49BA
:10059000443A202020202020000A0D000A0D0042AD
:1005A000697368657269676520536C6176652D496A
:1005B000443A2020000A0D00426973686572696739
:1005C0006520556E697175652D49443A20001B5BA5
:1005D00033376D000A0A52656D6F74652D4B6F6E6F
:1005E00066696775726174696F6E7370726F677236
:1005F000616D6D0A0D3D3D3D3D3D3D3D3D3D3D3D0A
:100600003D3D3D3D3D3D3D3D3D3D3D3D3D3D3D3D1A
:100610003D3D0A0D001B5B33336D000A0D000A0DD2
:100620004665686C657268616674652F646F70708A
:10063000656C7465204944733A200009000A0D0076
:100640002D2D2D2D002D00200020002C20002C20F1
:10065000002D2D2D2D006E2E612E002C20002D0042
:100660002C20002E002D2D2D2D002C2000300020C0
:10067000002D2D2D003A200030000A0D556E6971B5
:1006800075652D49443A20536C6176652D49442C9B
:100690002042617474657269657370616E6E756E07
:1006A00067202856292C205363686172663F2C20EE
:1006B00054656D706572617475722028C2B04329EB
:1006C0002C204B616E616C7A61686C2C2052535304
:1006D00049202864426D290A0D001B5B33376D00E9
:1006E0003D3D3D3D3D3D3D3D3D3D3D3D3D3D3D0A6D
:1006F0000D000A0D53797374656DC3BC6265727326
:10070000696368740A0D001B5B33336D000A0A0DC0
:100710000009200920092009000A0D002D2D2D00B7
:100720003A20000A0D536C6176652D49443A204108
:100730006E7A61686C20426F78656E0A0D000A0A55
:100740000D00C2B043006E2E612E0054656D7065C1
:1007500072617475723A2000556E67C3BC6C74691F
:1007600067652045696E6761626500203D20000A6B
:100770000D4B616E616C3A20200900536C61766507
:100780002D49443A09000D0A000A0D4D6F64757336
:1007900028662F692F74293A20000A0A0D000A0DD5
:1007A00049442D4B6F6E66696775726174696F6E2F
:1007B0007362656665686C2077697264206765732B
:1007C000656E646574210A0D000A0D494473207733
:1007D000657264656E206C6F6B616C20616E67651D
:1007E0007061737374210A0D000A0A0D00313734E9
:1007F0003800323032313031313700446174656352
:100800006F646520000A0D000A0D52464D006174A8
:100810006D65676133323870000A0D000A0D000DF6
:100820000A0A0A000D0A004F6666656E0020202045
:10083000200020003D3D3D3D3D3D3D3D3D3D3D3D9C
:100840003D3D3D3D3D3D3D3D3D3D3D3D3D3D0A0D3B
:100850004B616E616C2057696465727374616E647C
:100860000D0A000A0A0D47656D657373656E652094
:100870004B616E616C77696465727374C3A46E6456
:10088000650A0D000A0D00202D2D3E203A203078FB
:10089000001B5B31440020001B5B3144001B5D30BA
:1008A0003B454C204655455241444F524F07001B93
:1008B0005B334A001B5B303B3048001B5B324A0015
:1008C0002D003000200011241FBECFEFD8E0DEBF86
:1008D000CDBF12E0A0E0B1E0ECE9F9E302C0059081
:1008E0000D92A830B107D9F722E0A8E0B2E001C02C
:1008F0001D92A231B207E1F79CD40C94BA1C80CBB4
:1009000035B516BC81E085BB80EA86BD85E085BD36
:1009100080E095E541E050EA29B122FB222720F949
:10092000990F922BA89BFECF45BB56BD883008F48B
:100930008F5F2FEF290F2E3F78F3883068F335BD96
:1009400081E0911180E008959FEB980F9A3130F08B
:10095000843C21F0863D11F08C3D09F480620895BD
:10096000FC01DB018C919081811104C081E0911127
:1009700005C00895319611968917A1F380E0F9CF4B
:1009800040E050E066E970E04150510961097109A9
:1009900021F09091C00095FFF7CF8093C60080E0D2
:1009A0000895CF93DF93EC01FE0184912196882373
:1009B00019F0E6DF8823C1F3DF91CF9108958F927C
:1009C0009F92AF92BF92EF92FF920F931F93CF939C
:1009D000DF93CDB7DEB7A1970FB6F894DEBF0FBE99
:1009E000CDBF1A821982FE0133962FE1DF011D92DD
:1009F0002A95E9F74836D9F510E011C0E1E0F0E0BA
:100A0000EC0FFD1FE10FF11D262F2F70208344E016
:100A100095958795779567954A95D1F71F5F6115ED
:100A200071058105910551F7112341F310FD1F5FF9
:100A3000111111C0A1960FB6F894DEBF0FBECDBF45
:100A4000DF91CF911F910F91FF90EF90BF90AF90EA
:100A50009F908F900895FE01E10FF11D80818A30F3
:100A600020F0895C8DDF1150E3CF805DFBCF6115F5
:100A700071058105910521F482EC98E092DFDACFCF
:100A800000E097FF08C090958095709561957F4F25
:100A90008F4F9F4F01E010E03AE0832E912CA12C64
:100AA000B12C611571058105910511F0113281F4A8
:100AB000002319F080EC98E074DF112309F4BACF19
:100AC000FE01E10FF11D8081805D5ADF1150F5CFED
:100AD000EE24E394F12CEC0EFD1EE10EF11CA501B9
:100AE00094010E94481CF7016083B901CA011F5F8D
:100AF000D8CFCF92DF92EF92FF92CF93DF93CDB713
:100B0000DEB72A970FB6F894DEBF0FBECDBF69835C
:100B10007A838B839C83498789819A81AB81BC814D
:100B20008D839E83AF83B8871A868AE0C82ED12C26
:100B3000E12CF12C8D819E81AF81B885892B8A2B88
:100B40008B2B01F589819A81AB81BC81B7FF03C0F2
:100B5000998591509987AA85B985BA1718F544E601
:100B600069817A818B819C812ADF2A960FB6F8945D
:100B7000DEBF0FBECDBFDF91CF91FF90EF90DF9032
:100B8000CF9008956D817E818F819885A701960110
:100B90000E94481C2D833E834F8358879A859F5F10
:100BA0009A87C8CF89859A85891B8D83BD81BB2390
:100BB000B1F284EC98E0F5DEAD81A150AD83F6CFC3
:100BC000CF93DF93EC0190E08881882311F0992383
:100BD00019F0DF91CF9108952196D2DE982FF4CFAE
:100BE00080E090E0A6E9B0E00197A109B10939F0F1
:100BF0002091C00027FFF8CF8091C600089580E0C3
:100C00000895CF93DF93ECDFC82F8A3029F4DFEF0C
:100C10008D2FDF91CF9108958D30C9F380ED8C0F2A
:100C2000863088F78C2FACDE8AE0C89FC02D112457
:100C3000C051D6DF8A3059F38D3049F3D82FDC0FFD
:100C40009FEF9D0F9233A8F79BDEE2CF8BEB98E0EE
:100C5000A8DE84EB98E0A5DE8FEA98E0A2DE8DE9BD
:100C600098E09FCE462F572FBC012B982D98429885
:100C7000BB27A72F962F852F8EBD762F652F542F3C
:100C800044270DB407FEFDCF452F562F672F77273A
:100C90004EBD0DB407FEFDCF84E086B986B9089538
:100CA0008EBD0DB407FEFDCF8EB50895CF93C82F2E
:100CB000892F662361F080682D982B984198F0DF8A
:100CC0008C2FEEDF419A2B982D98CF9108958F7736
:100CD000CFEFF2CF61E08BE193E1E8DF61E085E502
:100CE0009AE5E4DF61E080E79CE5E0CFCF92DF9218
:100CF000EF92FF9261E084E091E0D8DFC12CD12C2B
:100D00008BE4E82EF12C81E0C81AD108E108F10843
:100D100031F060E08FEF97E2C9DF87FFF4CF81E029
:100D2000CD28CE28CF2809F080E0FF90EF90DF900B
:100D3000CF900895CF92DF92EF92FF92CBDF60E0E9
:100D40008FEF9DE3B3DF90E061E084609D63AEDFF1
:100D500061E080E191E0AADFC12CD12C8BE4E82E88
:100D6000F12C81E0C81AD108E108F10831F060E007
:100D70008FEF97E29BDF87FFF4CF81E0CD28CE286D
:100D8000CF2809F080E0FF90EF90DF90CF9008959A
:100D9000CF93419887E284DF80E082DFC82F80E034
:100DA0007FDF9C2F419A82FD0EC092FF09C060E058
:100DB0008FEF9DE37BDF90E061E084609D6376DFF1
:100DC00080E0CF9108958095909581709927F9CF13
:100DD0005D9A5F9A5E9A289A08955D985F985E98EA
:100DE000289808955D9A08955F9A08955E9A0895E7
:100DF000289A08959B01F999FECF32BD21BD80BD8F
:100E0000FA9AF99A12BC11BC08959C01F999FECF87
:100E100032BD21BDF89A80B512BC11BC0895462F91
:100E2000572FBC012B982D984098BB27A72F962FA2
:100E3000852F8EBD762F652F542F44270DB407FEC6
:100E4000FDCF452F562F672F77274EBD0DB407FED8
:100E5000FDCF81E086B986B90895862798E02CE811
:100E6000382F31708695311182279150C9F7089536
:100E7000B0E0A0E0EEE3F7E00C947D1C082F162F05
:100E8000B82EB60E682F80E1E8DFE82E612F80E1F2
:100E9000E4DFC82E612F8E2DE0DFD82E88E1F82EFA
:100EA000CF2DD0E0BE01802FA5DFBE016F5F7F4F49
:100EB000812FA0DFBE016E5F7F4F8B2D9BDFBE01B8
:100EC0006D5F7F4F8E2D96DFBE016C5F7F4F8C2D47
:100ED00091DFBE016B5F7F4F8D2D8CDF84E2F80EBA
:100EE00084E8F812DDCFCDB7DEB7E9E00C94991CA9
:100EF000B0E0A0E0EEE7F7E00C947B1CD82FC62F03
:100F000088E1F82E9D2E960E0F2D10E0C8017DDF92
:100F1000A82EC801019679DFB82EC801029675DFA8
:100F2000C82EC801039671DFE82EC80104966DDF54
:100F3000D82EC801059669DF182FAD1213C0BC1258
:100F400011C0C9100FC06D2F80E187DFE8120AC001
:100F50006C2F80E182DFD81205C06C2F8E2D7DDFD3
:100F6000181759F084E2F80E84E8F812CDCF80E02B
:100F7000CDB7DEB7EBE00C94971C81E0F9CFB0E081
:100F8000A0E0E5ECF7E00C947B1C7C016B0100E039
:100F900084E2982E099D50011124C501489635DF41
:100FA000C82FC501499631DFD82F682F8C2FA0DFBD
:100FB000182F882391F188E190E027DF182F8CE328
:100FC00090E023DF1817F1F088E190E01EDF182F82
:100FD00080E690E01ADF181315C089E190E015DF74
:100FE000182F8DE390E011DF18130CC089E190E019
:100FF0000CDF182F81E690E008DF181303C06D2F77
:101000008C2F36DFF701C083F601D08311E0812FEA
:10101000CDB7DEB7EBE00C94971C023061F46D2F76
:101020008C2F66DF811107C085E4F701808385E698
:10103000F6018083ECCF0F5F033009F0ABCFE7CF31
:1010400020917C00287F20937C0090917C00982B3D
:1010500090937C0029E090E080E030917A00306449
:1010600030937A0030917A0036FDFCCF40917800C1
:1010700050917900840F951F293011F490E080E0A1
:10108000215059F723E0969587952A95E1F7089521
:10109000219A9AE09A95F1F78111219894E29A9514
:1010A000F1F70000199B80E097E99A95F1F72198F4
:1010B00096E09A95F1F700C00895CF93DF93C82F7B
:1010C000D8E08C2F8170E4DFC6958111C068D150C3
:1010D000C1F78C2FDF91CF9108952998219A8CEC3C
:1010E00094E00197F1F700C00000219898ED9A95DF
:1010F000F1F7000083B1EAE2F4E03197F1F700C0C4
:10110000869581700895CF92DF92EF92FF92CF93F0
:10111000DF93882309F44BC0E0DF8CECCEDF8EE454
:10112000CCDF8DE7CADF88EDC8DF8FE1C6DFD5DF12
:101130008CECC3DF84E4C1DFC12C5CE2D52EEE244D
:10114000E394F12C81E0C81AD108E108F10821F0FC
:1011500081E09EDF8823B1F3C0DF8CECAEDF8EEB45
:10116000ACDF8FEFAADFC82FD0E08FEFA6DF90E0D3
:10117000982F88278C0F9D1F9C012227387F232BB7
:10118000A1F09195819591092FEF089634E09695FD
:1011900087953A95E1F7829F802D1124DF91CF91B9
:1011A000FF90EF90DF90CF90089521E0EECF80E8A0
:1011B000F5CF8F9381E0809311028F9118951F9244
:1011C0001FB61F9211248F939F93AF93BF9380916B
:1011D00010028F5F809310028D3738F080910F02DC
:1011E000816080930F021092100280910F0281FFA4
:1011F00009C080910D0290910E02019690930E020B
:1012000080930D028091090290910A02A0910B0235
:10121000B0910C020097A105B10519F081E080930F
:101220000802BF91AF919F918F911F901FBE1F9099
:101230001895CDB7DEB7CA54D2400FB6F894DEBFCA
:101240000FBECDBF0FB6F894A8958091600088615D
:1012500080936000109260000FBE43983B9A10E0AC
:10126000FE01EA59FE4F1192119288E2DF011D92B0
:101270008A95E9F7FE01E754FE4F1192119287E239
:10128000DF01482E1D924A94E9F7FE01EE51FE4F10
:1012900011921192DF011D928A95E9F7FE01ED5C32
:1012A000FE4F1192119281E3DF011D928A95E9F7B9
:1012B000FE01E55FFD4F119211928EE0DF01482E95
:1012C0001D924A94E9F7FE01E55EFD4F11921192DD
:1012D000DF011D928A95E9F72A9A229A5C9A239A4D
:1012E000549A259A3A9A389A2B98429840982D9871
:1012F00093E020E234E041E084E123B923B9815056
:10130000E1F736B936B946B946B99150A9F7E9E9D6
:10131000F9E03197F1F700C05C980CB406FC03C00B
:101320008CB581658CBD80916400806C8093640075
:1013300080B7806880BF8FEF9FE290938900809391
:1013400088008091810088608093810080916F0087
:10135000826080936F008091810082608093810021
:101360002898209A5E98569A5F98579A5D98559A51
:1013700080B7806880BF80917C00856C80937C0002
:1013800080917A00866080937A0080917A008068EC
:1013900080937A0080917A00806480937A008091B3
:1013A0007A00F82FF074EF2E86FDF9CF8091780047
:1013B0009091790082E3C057DE4F8883C059D140B5
:1013C0008983BE0160577E4FCE010196D8DD811121
:1013D00001C0FEDCC057DE4FF880C059D140C98043
:1013E000CC2009F4B5C3FF2009F4B6C38DE691E023
:1013F0000CDD853F49F08DE691E007DD823021F07C
:101400006DE671E082E0F6DC8DE691E0FEDCCC5C1E
:10141000DD4F8883C453D240853F31F022E0CC5C5D
:10142000DD4F2883C453D24020E031E0822F90E08A
:10143000E6E6F1E0EC0FFD1FE80FF91F3083E2EE66
:10144000F1E0EC0FFD1FE80FF91F108249EB51E0AE
:101450004C0F5D1F840F951FDC011C922F5F2832FB
:1014600029F780E026E090E8E1E0F0E0EC0FFD1FD6
:10147000289FE00DF11D11241082118212829383A6
:1014800015828F5F823381F7A8DCBFEFEFE7F4E0CE
:10149000B150E040F040E1F700C000006FEF7FEF97
:1014A00080E090E0BCDCA4DC2FEF3FE744E021507B
:1014B00030404040E1F700C0000096DC5FEF6FE78E
:1014C00074E0515060407040E1F700C000008ADCD9
:1014D0008FEF9FE7A4E081509040A040E1F700C06B
:1014E000000084DCBFEFEFE7F4E0B150E040F040F3
:1014F000E1F700C0000071DC2FEF3FE747E021502B
:1015000030404040E1F700C000000F2D02950F7001
:10151000F4FC6EDC01FD68DC02FD64DC087009F09F
:1015200065DC5FEF6FEF7BE3515060407040E1F7A7
:1015300000C0000052DC8FEF9FE7A7E08150904091
:10154000A040E1F700C0000051DCBFEFEFE7F4E09E
:10155000B150E040F040E1F700C0000043DC2FEF65
:101560003FE744E0215030404040E1F700C0000038
:101570003BDC5FEF6FE774E0515060407040E1F793
:1015800000C0000035DC8FEF9FE7A4E08150904061
:10159000A040E1F700C0000020DCBFEFEFE7F7E07C
:1015A000B150E040F040E1F700C00000F0FC20DC6A
:1015B000F1FC1ADCF2FC16DCF3FC18DC2FEF3FEF39
:1015C0004BE3215030404040E1F700C0000060E0B4
:1015D00070E0CB0124DC01DC5FEF6FEF75E0515070
:1015E00060407040E1F700C000C05A9A5298809164
:1015F000680084608093680080916D0084608093AF
:101600006D0043983B9AE9DB8FB7F8941092C500C0
:101610009FE39093C40098E19093C10096E090936B
:10162000C200589A8FBF05E0DD24D39456DD93B1F4
:10163000969591709D25980FE90E0150B9F7EE200F
:1016400009F49AC22198299AC65CDD4F1882CA53C0
:10165000D240C65CDD4F8881CA53D24054DD382E5B
:10166000419A2C9A2498239A259A399A0CB406FC0C
:1016700003C08CB581658CBD60E08FEF90E116DB17
:10168000CC5BDD4F8883C454D240B3E0EB2EA6E69A
:10169000B6E21197F1F7000061E082E092E006DB2C
:1016A000A0E84A2E512C612C712C78E1872E912CC8
:1016B000A12CB12CA5019401C301B2010E940B1C05
:1016C0009B01AC0162E0220F331F441F551F6A9536
:1016D000D1F760E078E488EE91E00E94261C223485
:1016E00030474105510508F44EC200E04114510451
:1016F0006104710409F063C220E1821A9108A10813
:10170000B10882E0B694A794979487948A95D1F70C
:10171000880C880C880C082990E8492E512C612CE3
:10172000712CF8E18F2E912CA12CB12CA5019401E4
:10173000C301B2010E940B1C9B01AC01E2E0220F2D
:10174000331F441F551FEA95D1F760E078E488EE17
:1017500091E00E94261C2A30344B4105510508F4C3
:1017600034C280E0411451046104710409F049C29B
:1017700070E1871A9108A108B10862E0B694A794B5
:10178000979487946A95D1F7880C880C880C882ADE
:1017900061E080E095E08ADA61E08DE996E086DA42
:1017A00061E08DE093E082DA61E08DE094E07EDA42
:1017B000802F90E061E08064996178DA882D90E074
:1017C00061E080649A6172DA61E080E495E26EDA49
:1017D00061E087EA96E26ADA61E089ED97E066DA2D
:1017E00061E080E698E062DA61E080E099E05EDA4C
:1017F00061E080E997E35ADA61E088E298E356DA3B
:1018000061E080E89CE352DA61E080E39DE34EDA38
:1018100061E080E09CE24ADA61E084E09DE246DA41
:1018200061E088E89EE242DA61E08DE29FE23EDA22
:1018300061E084ED90E33ADA61E080E098E136DA45
:1018400061E08DE298E532DA61E080E39FE62EDA2E
:1018500061E08FEC99E22ADA61E08DE29EE126DA1E
:1018600061E080E09AE222DA9FE09150292F30E097
:1018700051F0F901EE0FFF1FE050FF4F4081518101
:101880004832510590F361E0C90192610FDA60E0DE
:101890008FEF9DE20BDA082F60E08FEF9EE206DA11
:1018A000282F30E043E0359527954A95E1F7822FC0
:1018B00087700B5E800F869590E061E09B62F6D9A1
:1018C00061E08BE193E1F2D961E08FE991E1EED93A
:1018D000EA94E110DCCE61E080E89AE0E7D9812C5F
:1018E000912C9BE4A92EB12C81E0881A9108A108C3
:1018F000B10809F08CC11EDA61E081EA9DE3D6D916
:1019000000E0A02EB12CC50180967FDA9EE3A90EDF
:10191000B11C61E09A2DCAD90F5F003191F70E9486
:101920008004D82E882309F479C160DA80E7CE518B
:10193000DE4F8883C25ED140CD51DE4FC882C35E88
:10194000D140CC51DE4FF882C45ED14085E078DBD7
:101950004BE0489F9001499F300D1124205E3F4F7E
:10196000A6E036952795AA95E1F7CB51DE4F28835F
:10197000C55ED140CA51DE4FD882C65ED140C95142
:10198000DE4F3882C75ED14080E1C851DE4F888388
:10199000C85ED140106402E181E080931102789426
:1019A0008C2D90E09C012F5F3F4F4AE0429F200129
:1019B000439F500C1124C15CDD4F59824882CF53A4
:1019C000D24092012A503109CB5BDD4F3983288305
:1019D000C554D240C75CDD4F1882C953D240CB5C9E
:1019E000DD4F188219821A821B82C553D24030E71C
:1019F000C05DDD4F3883C053D240EE24E394B6E09F
:101A00002B2E23E331E02C0F3D1F2F0D311DA9019B
:101A100041505109C95BDD4F59834883C754D240B7
:101A20000197289E2001299E500C1124CF5BDD4F89
:101A300059824882C154D24066246394712C6C0E42
:101A40007D1E640C751CC35CDD4F79826882CD53AA
:101A5000D24093012E5F3F4FC75BDD4F3983288310
:101A6000C954D24080911102882389F0BFB6F894FE
:101A7000109211020E948004D82E882309F4D0C04D
:101A8000B5D960E070E0CB01CAD90260BFBECC5BC3
:101A9000DD4F3881C454D240343211F0A5D9A2D9D7
:101AA0008091C00087FB10F9412F4170942E10FFE8
:101AB0007BC34FB6F8941E7F9BD992D8CA59DE4F8C
:101AC0008883C656D1408F3709F43CC087FDABC030
:101AD00028EF280F263038F491E001C0990F2A959D
:101AE000EAF7957279F50E94A404CA59DE4F8883FB
:101AF000C656D1400E94C004A12C72D80E94A404F2
:101B0000B82E5DE0851709F461C26AE0861709F412
:101B10005DC278E0871719F08FE7B81258C2A1109C
:101B20004FC2C959DE4F1882C756D14088E998E0A4
:101B30000E94D10486E998E00E94D10481E998E0EE
:101B40000E94D104CA59DE4F1882C656D14088C0BF
:101B500002E3C02EF11002C012E3F12E6F2D8C2D86
:101B600087D988E19EE00FB6F894A895809360002D
:101B70000FBE90936000FFCF8FE6C65CDD4F888379
:101B8000CA53D24066CDB4E08B1A9108A108B108BF
:101B9000E0E18E169104A104B10408F08BCDF0E1D0
:101BA0008F2E912CA12CB12C41145104610471048D
:101BB00009F480CD769467945794479476CD7694C3
:101BC0006794579447940F5F91CD34E0831A91083E
:101BD000A108B10840E184169104A104B10408F001
:101BE000A5CDB0E18B2E912CA12CB12C4114510428
:101BF0006104710409F49ACD7694679457944794DC
:101C000090CD76946794579447948F5FABCD60E006
:101C100080E09AE04BD886FF67CE6DCE5E9886CE88
:101C200043985E9832CF8F3F09F05DCF0E94F00558
:101C3000C959DE4F8883C756D1400E94F005C85964
:101C4000DE4F8883C856D1400E94F005C759DE4F49
:101C50008883C956D140C659DE4F1882CA56D14032
:101C600060E571E0CE018A599E4F0E94B00488233E
:101C700011F01D7B126065E571E0CE018A599E4F1F
:101C80000E94B004882311F000641F7B6CE571E0B2
:101C9000CE018A599E4F0E94B0048111006166E610
:101CA00071E0CE018A599E4F0E94B00481111BC081
:101CB0006BE671E0CE018A599E4F0E94B0048111FB
:101CC00012C060E771E0CE018A599E4F0E94B004B5
:101CD000811109C066E771E0CE018A599E4F0E94CA
:101CE000B004882311F01F79106261E671E0CE0123
:101CF0008A599E4F0E94B004882311F001601F7B17
:101D00006BE771E0CE018A599E4F0E94B0048111A9
:101D100006606FE771E0CE018A599E4F0E94B004C1
:101D200081110E94260663E871E0CE018A599E4F18
:101D30000E94B0048111086068E871E0CE018A5900
:101D40009E4F0E94B004811108C06BE871E0CE0183
:101D50008A599E4F0E94B0048111006264E971E0CB
:101D6000CE018A599E4F0E94B004882351F187ED1D
:101D700090E00E94D104CC5CDD4FA881C453D240D6
:101D80008BEC90E0A83C11F087EB90E00E94D1042E
:101D900088E790E00E94D1040E94F005B82E8823C5
:101DA000D9F30E94C00485E790E00E94D1048B2DF6
:101DB0008062853609F422C1F8ECBF2E843709F41D
:101DC0001FC16CE971E0CE018A599E4F0E94B00498
:101DD000882309F457C080EA91E00E94E005712C45
:101DE00074E0672E90E080E05C0164E0AA0CBB1C0C
:101DF0006A95E1F70E94F005882E0E94C004882DA4
:101E0000806290ED980F9A3038F09FE9980F9630E5
:101E100008F009C199EA980F81E09F3F09F080E03E
:101E2000780E9501292BC9016A946110DDCF7110DC
:101E300025C08F3F980711F1692F661F6627661F1F
:101E40000E945606B82E87E898E00E94D1044B2DD8
:101E500050E070E060E0C45DDD4F488359836A83E1
:101E60007B83CC52D24048E6C45DDD4F68817981E6
:101E70008A819B81CC52D2400E94DF0488EE91E09F
:101E80000E94E0056CEE71E0CE018A599E4F0E94DF
:101E9000B004882309F425C1FE01E057FE4F1192DA
:101EA00011928EE0DF011D928A95E9F784E093E0BC
:101EB0000E94D10480EE92E00E94D10487EC92E06F
:101EC0000E94D10460E08FEF9DE30E945606B82F78
:101ED000B1707B2E80FF48C18FE892E00E94D10450
:101EE000AA24AA945EE3B52E60E0C5010E945606BE
:101EF000282F30E050E040E0C45DDD4F2883398377
:101F00004A835B83CC52D24048E6C45DDD4F688192
:101F100079818A819B81CC52D2400E94DF048DE876
:101F200092E00E94D104B394A1144EE4B406E0F20E
:101F300080E792E00E94D104B12C8B2D90E0809636
:101F40000E940507282F30E050E040E0C45DDD4FDF
:101F5000288339834A835B83CC52D24048E6C45DF0
:101F6000DD4F688179818A819B81CC52D2400E9469
:101F7000DF048EE692E00E94D104B39430E1B31204
:101F8000DCCF87E292E00E94D1040E94F005882312
:101F9000E1F3B82E6894B5F88B2D0E94C00484E25A
:101FA00092E00E94D10443E7B4129BC08EE092E01D
:101FB0000E94D104812CA12C512C32E0632E36C01A
:101FC000AA948BE690E00E94D10497CDB12CE7E66D
:101FD000F1E0EC0FFD1FEA0DF11DB0828B2D0E9488
:101FE000C004BB2011F40C94051CA39497E2A91221
:101FF00084CD88E690E00E94D10432CEE2E0BE2E8D
:10200000CC5CDD4F5880C453D2405B1409F4D9CE68
:102010006DE671E08B2D0E94FA06CC5CDD4FB88234
:10202000C453D240CECE9FEFF7CE672C529440EFF0
:1020300054220E94F005B82E0E94C0048B2D8062AD
:1020400090ED980F9A3030F09FE9980F963090F409
:1020500099EA980F81E09F3F09F080E0A80E592A85
:1020600051E06512E2CFAA2039F084EC91E00E94A1
:10207000D10437C09FEFEECF82EC91E00E94D104F3
:10208000E0E9F1E0EC0FFD1FE80DF11D50828394B3
:1020900060E1861290CF8CE991E00E94D1040E9409
:1020A000F00580628A3629F08E36C9F786E491E021
:1020B000DECF8A2D90E0BC01605E7F4FA0E9B1E0E9
:1020C000AC0FBD1F8A0F9B1FFC0180810E94FA0686
:1020D000A394F0E1AF12EDCF8AE691E00E94D10423
:1020E0000860CA59DE4F8881C656D1408F3F09F03B
:1020F0004DC0C959DE4FB880C756D1408B0D8233D1
:1021000008F044C0C859DE4FA880C856D1408FEFB0
:102110008A0D8031D8F5C759DE4F8880C956D14025
:102120006B2D80E00E942D076A2D0E942D078812DA
:102130002DC086E6CE51DE4F8883C25ED140CD51A0
:10214000DE4FB882C35ED140CC51DE4FA882C45E60
:10215000D1401064FB1459F0E92CB6E6C05DDD4FA8
:10216000B883C053D24012C084E291E080CF12FD08
:1021700018C3C554DE4FA882CB5BD1401460E92C54
:1021800026E6C05DDD4F2883C053D2402898CA5947
:10219000DE4F8881C656D14081508E3F20F484E8BE
:1021A00098E00E94D1044FBEBFB6F8940E94C806C2
:1021B00080FB17F9BFBED11004C080910F0280FDD3
:1021C00002C001FF7AC017FD78C0412F4074842EF1
:1021D00016FF08C0C05DDD4F5881C053D2405A374A
:1021E00009F06BC09FB6F8940D7F80910F028E7F2F
:1021F00080930F024398B12CC45DDD4F1882198281
:102200001A821B82CC52D240412C512C3201439471
:10221000C301B2010E94320683E393E10197F1F713
:1022200084E00E942008A9E1A89F9001A99F300D99
:1022300011243395A32EA694EBE0F2E0EC0FFD1FE2
:10224000EB0DF11D8A2DA11001C081E0808360E0BB
:1022500070E0CB010E943206B1E3BA15A0F0C45D74
:10226000DD4F288139814A815B81CC52D2402429BB
:10227000352946295729C45DDD4F288339834A8390
:102280005B83CC52D240440C551C661C771CB39423
:1022900030E1B312BDCF60E070E0CB01D11008C0D7
:1022A000C45DDD4F688179818A819B81CC52D240A7
:1022B0000E940F0781107DC29FBE802F86708430E0
:1022C00009F05CC017FD5AC08FB6F8940B7F83E607
:1022D00098E00E94D10484E398E00E94D104912CFC
:1022E000B8E0B91520F082E398E00E94D104A92C4F
:1022F000B12CC50101962C01990F66087708C45DC1
:10230000DD4F488259826A827B82CC52D24044E6B9
:10231000C301B2010E94DF048DE298E00E94D10463
:10232000EBE0F2E0EC0FFD1FEA0DFB1D8081823334
:1023300008F06DC2282F30E050E040E0C45DDD4F72
:10234000288339834A835B83CC52D24044E6C45D00
:10235000DD4F688179818A819B81CC52D2400E9475
:10236000DF0484E298E00E94D104939430E1931258
:10237000B7CF8FE198E00E94D1048FBE05FF33C034
:10238000BFB6F8940F7D8CE198E00E94D10483EFF2
:1023900091E00E94E00589E198E00E94D1048EE07E
:1023A00098E00E94D10488E098E00E94D10444E6BD
:1023B00065E470E080E090E00E94DF0485E098E052
:1023C0000E94D1048BEF97E00E94D10482EF97E046
:1023D0000E94D1048DEE97E00E94D10489EE97E02F
:1023E0000E94D104BFBE11FF2EC1AFB6F8941D7F6D
:1023F0000E94260684E295E00E94D10482EF94E0D8
:102400000E94D104BE01655D7D4FCE0180579E4F75
:102410000E94BF0781110CC08CEE94E00E94D10491
:1024200083ED94E00E94D1048DEC94E00E94D104ED
:1024300087EC94E00E94D1048CEA94E00E94D104DD
:102440008FEF91E00E94E00584E994E00E94D104BE
:102450008EE894E00E94D104C057DE4F8881C059B5
:10246000D140853409F4D8C18A3018F480E30E9441
:10247000C004C057DE4F8881C059D140482F50E07A
:1024800070E060E0C45DDD4F488359836A837B83DD
:10249000CC52D24044E6C45DDD4F688179818A81A7
:1024A0009B81CC52D2400E94DF0484E894E00E94D9
:1024B000D1048EE794E00E94D10489E694E00E9462
:1024C000D10483E694E00E94D104C55DDD4F88818C
:1024D000CB52D240853609F4A4C18A3018F480E387
:1024E0000E94C004C55DDD4F8881CB52D240482E8A
:1024F000512C712C612CC45DDD4F488259826A8257
:102500007B82CC52D24044E6C301B2010E94DF0478
:1025100089E594E00E94D10483E594E00E94D1040F
:102520008EE494E00E94D10488E194E00E94D104FA
:102530000E94F0058823E1F3B82E6894B5F88B2D3E
:102540000E94C00485E194E00E94D10482E194E0FD
:102550000E94D10489E6582EB51077C18EEF93E022
:102560000E94D1048BEF93E00E94D10483EE93E0AC
:102570000E94D1048DED93E00E94D104C057DE4F3C
:102580009880C059D1400E9401068F3F09F44EC186
:10259000C057DE4F8883C059D14087ED93E00E9439
:1025A000D10482EC93E00E94D1048FEB93E00E946F
:1025B000D10487EA93E00E94D10481EA93E00E946B
:1025C000D104C55DDD4FB880CB52D2400E940106D8
:1025D0008F3F09F431C1C55DDD4F8883CB52D240B6
:1025E0008BE993E00E94D104C057DE4F8881C05927
:1025F000D140981208C0C55DDD4F9881CB52D240C2
:10260000B91609F422C1C55DDD4F6881CB52D240B5
:102610000E943807C55DDD4F6881CB52D240C0575C
:10262000DE4F8881C059D1400E947807882309F481
:1026300009C18FE793E00E94D1048CE493E00E94EB
:10264000D1040860AFBE06FF8DC06FB6F8940F7B53
:1026500085E196E00E94D10484ED95E00E94D104CA
:102660008EEC95E00E94D10488EB95E00E94D104A5
:102670000E940106782E85EB95E00E94D1049924F2
:102680009A94791409F46DC08FE995E00E94D10401
:102690000E940106882E8CE995E00E94D10489E908
:1026A00095E00E94D104891409F45BC083E895E0A9
:1026B0000E94D1040E940106A82E80E895E00E94A5
:1026C000D104A91409F44DC08AE695E00E94D10412
:1026D0000E940106982E86E695E00E94D1042FEF15
:1026E000921609F43EC07A1002C08914D1F18AE230
:1026F00095E00E94D1040E94F005B82E8823D9F3FA
:102700000E94C0048B2D80628A3659F583E6CE5133
:10271000DE4F8883C25ED140CD51DE4F7882C35EEA
:10272000D140CC51DE4F8882C45ED140CB51DE4FC8
:10273000A882C55ED140CA51DE4F9882C65ED140A4
:10274000C71088C0F81086C089EC97E00E94D104B9
:10275000692D8A2D0E94380708608AE997E00E9457
:10276000D1046FBE15FF22C17FB6F8941F7DCA59F0
:10277000DE4FB880C656D14039E6B31271C0CE5193
:10278000DE4FB882C25ED14084E6CD51DE4F8883F1
:10279000C35ED14080E3CC51DE4F8883C45ED1401C
:1027A000EBC2E92C36E6C05DDD4F3883C053D24022
:1027B000EDCCC05DDD4F4881C053D2404A3709F0AF
:1027C0007BCDCE51DE4F4883C25ED140CD51DE4F2E
:1027D000C882C35ED14080E1CC51DE4F8883C45EA5
:1027E000D14080E0282F30E0E2EEF1E0EC0FFD1F59
:1027F000E20FF31F6BE072E06C0F7D1F260F371F97
:10280000D9019C9193838F5F803161F755CD87E229
:1028100098E00E94D104A5CD87E894E00E94D104FD
:1028200044CE8CE594E00E94D10472CEC057DE4FB6
:102830009882C059D140B1CEC55DDD4FB882CB5230
:10284000D240CECE8DE593E0F6CE8BE293E00E94AF
:10285000D104F8CE8EE997E00E94D10410647DCFB8
:1028600044E7B41246C0CE51DE4FB882C25ED140BA
:10287000C65CDD4F8881CA53D2400E948308382E3F
:102880008BE497E00E94D10460E886E497E0361676
:10289000A9F044E0832D032C000C990BAA0BBB0B71
:1028A000C45DDD4F88839983AA83BB83CC52D24019
:1028B000BC01CD010E94790582E497E00E94D10419
:1028C00084E7CE51DE4F8883C25ED14085E6CD518C
:1028D000DE4F8883C35ED1408DE6CC51DE4F8883C6
:1028E000C45ED14080E7CB51DE4F8883C55ED140C6
:1028F00043C256E6B5120CC0CE51DE4FB882C25E5E
:10290000D140992493948BE797E02AE0822EDAC194
:1029100089E897E00E94D1040E94F005B82E6894DF
:10292000B5F88B2D0E94C00486E897E00E94D10480
:10293000CE51DE4FB882C25ED14066E6B61609F3CC
:1029400079E6B71609F420CF84E7B81609F490CFDA
:10295000B12C8EE397E00E94D104BB2009F414C28D
:10296000CE51DE4F4880C25ED140C05DDD4F48820F
:10297000C053D2401064242D263691F4CD51DE4F41
:102980008881C35ED1408F110BC0CC51DE4F88814E
:10299000C45ED140C554DE4F8883CB5BD140146008
:1029A0008091C00087FDF3C17FBEEB2C302F3170CA
:1029B000832E00FF71C15FB6F8940E7F0E94260639
:1029C00087E097E00E94D10482EF96E00E94D10454
:1029D00080EE96E00E94D1048AED96E00E94D10438
:1029E0008AE796E00E94D104912CA3E04A2E48E0A9
:1029F000491520F088E796E00E94D104892D90E0E7
:102A000001969C01990F440B550BC45DDD4F288343
:102A100039834A835B83CC52D24044E6C45DDD4FA8
:102A2000688179818A819B81CC52D2400E94DF04E7
:102A300085E796E00E94D104AA24A394B12CAC0EA1
:102A4000BD1E929CA00CB11C1124D5017C9071106C
:102A5000A1C181E796E00E94D1048AE696E00E9437
:102A6000D104F50181818A3008F0B1C185E696E094
:102A70000E94D10480E696E00E94D104772009F4F8
:102A8000DCC1D50112968C910E94C0048BE596E0C2
:102A90000E94D104F5018381803809F4D3C1282F25
:102AA000880F330B440B550BC45DDD4F28833983EE
:102AB0004A835B83CC52D24044E0C45DDD4F6881E1
:102AC00079818A819B81CC52D2400E9479058EE423
:102AD00096E00E94D104D50114968C91282F30E005
:102AE00050E040E0C45DDD4F288339834A835B8337
:102AF000CC52D24044E6C45DDD4F688179818A8141
:102B00009B81CC52D2400E94DF048BE496E00E946D
:102B1000D104D5011596BC90BB2009F49CC1B3E645
:102B2000BB1520F089E496E00E94D104E9E0EB15A2
:102B300020F087E496E00E94D10485E496E00E94AC
:102B4000D1042B2D30E050E040E0C45DDD4F288300
:102B500039834A835B83CC52D24044E6C45DDD4F67
:102B6000688179818A819B81CC52D2400E94DF04A6
:102B7000892D642D5FD6923009F072C18DE396E005
:102B80000E94D104939432E3931231CF8EE196E008
:102B90000E94D104C75CDD4F4880C953D240842DC8
:102BA00090E0B0E0A0E044E6C45DDD4F8883998307
:102BB000AA83BB83CC52D240BC01CD010E94DF046A
:102BC0008BE196E00E94D10490E080E0E1E0F0E04B
:102BD000EC0FFD1F829DE00DF11D112420812811B5
:102BE00001C09F5F8F5F823389F7E2E3F1E0EC0F72
:102BF000FD1FE80DF11D90838394E3E36E2E861094
:102C0000E3CF83E297E00E94D104912C78E0772E05
:102C1000791418F080E30E94C004A92CB12CC501DE
:102C200001969C01990F440B550BC45DDD4F288321
:102C300039834A835B83CC52D24044E6C45DDD4F86
:102C4000688179818A819B81CC52D2400E94DF04C5
:102C500080E297E00E94D104E3E3F1E0EC0FFD1F76
:102C6000EA0DFB1D80818111FEC08CE197E00E947E
:102C7000D104892D63E0DED5923009F00CC189E1E1
:102C800097E00E94D104939452E39512BFCF8DE058
:102C900097E00E94D1045FBE602F6870862E03FF0C
:102CA000FDC0F8945C9A88E19EE00FB6F894A89570
:102CB000809360000FBE909360000E942606FFCFB5
:102CC000B2E09B2E0E94D1040E94F005A82E88231A
:102CD000D9F30E94C00490EDA90E0E94F005B82E11
:102CE0008823D9F30E94C004A89CB00C1124A0ED45
:102CF000BA0E8BE697E00E94D104BB2009F43FC0D6
:102D00002B2D30E050E040E0C45DDD4F2883398357
:102D10004A835B83CC52D24032E081E190E0A0E074
:102D2000B0E0931621F083E390E0A0E0B0E0C45D52
:102D3000DD4F488159816A817B81CC52D24048174E
:102D400059076A077B07D8F444E6C45DDD4F688104
:102D500079818A819B81CC52D2400E94DF04E2EECD
:102D6000F1E0EC0FFD1FE90DF11DB0828FE697E059
:102D700051E0951609F4A4CFBB24B394EACD88E5BD
:102D800097E00E94D104E4CD1F7BBE2C09CE809138
:102D9000C60006CE8FE696E00E94D104B9E0B715D2
:102DA00020F08DE696E00E94D104872D90E0B0E0FF
:102DB000A0E044E6C45DDD4F88839983AA83BB838A
:102DC000CC52D240BC01CD010E94DF0446CE6AE065
:102DD00031D5692E282F30E050E040E0C45DDD4F52
:102DE000288339834A835B83CC52D24042E0C45D5E
:102DF000DD4F688179818A819B81CC52D2400E94CB
:102E0000790583E696E00E94D104462D50E070E0FB
:102E100060E0C45DDD4F488359836A837B83CC5275
:102E2000D24044E6C45DDD4F688179818A819B810F
:102E3000CC52D2400E94DF041DCE8EE596E00E9467
:102E4000D10424CE86E596E0711002C081E596E0BB
:102E50000E94D1043CCE80E496E00E94D10488CE4A
:102E60008BE396E08DCE482F50E070E060E0C45DCB
:102E7000DD4F488359836A837B83CC52D24043E041
:102E8000C45DDD4F688179818A819B81CC52D240BB
:102E90000E947905EECE81E197E0F3CE04FD0AC0F1
:102EA00016FF66C0CE51DE4F8881C25ED1408936A2
:102EB00009F05EC09FB6F8940F7E80E090E8282F5E
:102EC00030E0E3E3F1E0EC0FFD1FE20FF31F1082AF
:102ED000229EF001239EF00D1124A1E0B0E0AC0F82
:102EE000BD1FEA0FFB1F108211821282938315828D
:102EF0008F5F823321F781E0C95BDD4FE881F98183
:102F0000C754D24080835D01CF5BDD4F488059803C
:102F1000C154D240A40CB51CD501FC9285E00E949E
:102F200020084BE0489F9001499F300D1124205EFE
:102F30003F4F66E0369527956A95E1F7F5012183C5
:102F40008EE6D1108AE6C75BDD4FA881B981C954EE
:102F5000D2408C93C35CDD4FE881F981CD53D240E0
:102F6000338215829FBEC75CDD4F1882C953D240A1
:102F7000E11017C080910F02F82FF270EF2E81FF41
:102F800010C080910D0290910E02EE24E394C15C7A
:102F9000DD4F48805980CF53D2404816590608F07B
:102FA000E12C16FF44C0EE2009F441C05FB6CD5BB2
:102FB000DD4F5882C354D240F8941F7BCE51DE4F70
:102FC0008881C25ED1408356A12CB12C883148F44F
:102FD00090E0FC01E85CFE4FB080805E9E4FDC011B
:102FE000AC908B2D90E0E2EEF1E0EC0FFD1FE80FCE
:102FF000F91FA0821182CE51DE4F2881C25ED140DE
:10300000263609F002C2D11000C280910F028D7FD6
:1030100080930F0210920E0210920D020E949A06E7
:10302000CD5BDD4F4880C354D2404FBEE12C12FF30
:1030300056C0AFB6F8941B7FDD2009F44DC0C554CF
:10304000DE4FB880CB5BD1408FEF8B0D803108F025
:1030500043C010610E94E80620E180E090E0DC01BE
:10306000880F991FAA1FBB1FB21201C08160215097
:10307000B9F74091090250910A0260910B027091D8
:103080000C022C013D01442A552A662A772AC45D88
:10309000DD4F488259826A827B82CC52D240439A69
:1030A000C45DDD4F688179818A819B81CC52D24099
:1030B0000E943206C45DDD4F688179818A819B81DF
:1030C000CC52D2400E940F074092090250920A024D
:1030D00060920B0270920C020E949A06AFBE14FF1F
:1030E00055C080910802882309F450C0BFB6F894F7
:1030F0001092080213FB332730F920E080E090E0C3
:10310000DC0141E050E060E070E040900902509046
:103110000A0260900B0270900C0244225522662233
:10312000772245284628472889F0EBE1F2E0EC0FAA
:10313000FD1FE20FF11DA080A394CC5CDD4F5880F1
:10314000C453D240A51408F070C1A082440F551F8B
:10315000661F771F2F5F2031C1F630FB13F94091B6
:10316000090250910A0260910B0270910C022C012D
:103170003D014426552666267726CB5CDD4F4882E6
:1031800059826A827B82C553D240BFBE13FF33C0CF
:10319000BFB6F894177FCB5CDD4F688179818A8157
:1031A0009B81C553D2400E943206CB5CDD4F6881C3
:1031B00079818A819B81C553D2400E940F07CB5CE5
:1031C000DD4F288139814A815B81C553D2402093EC
:1031D000090230930A0240930B0250930C02232BF6
:1031E000242B252B39F443981F7E0E94ED060E9464
:1031F000F6060260BFBEBFB6F89491E017FD06C0A8
:103200000E94C80691E0811101C090E090FB17F97F
:10321000BFBE17FD02C00C94320DBFB6F8941F77E5
:103220000E94F20660E08FEF9FE60E945606882318
:1032300009F402C160E08FEF94E20E945606A82EC6
:10324000A6940E947606419880E00E9450068FEF77
:103250000E945006893208F008C1C057DE4F8883AB
:10326000C059D140992493940DC1282F30E060E9D2
:1032700071E06C0F7D1F620F731F42EE642E772486
:1032800073946C0E7D1E260D371DD9019C91DB01B8
:1032900011969C938F5F60C0E0E9F1E0EC0FFD1F99
:1032A000E90DF11D80810E94500693947DC060E07D
:1032B00080E098E20E9456068970982ED301C201E0
:1032C0002C013D0131E0431A510861087108892B36
:1032D0008A2B8B2B09F48BC0992049F30E94760628
:1032E00045284628472809F487C0492D4170C55C08
:1032F000DD4F4883CB53D240C45CDD4F1882CC53A2
:10330000D240C45DDD4FA881B981CC52D2408C91AE
:1033100081508C93C55CDD4F48805980CB53D2409F
:10332000452809F45F98AA94AA2009F46ECE0E9459
:10333000F4060E94760661E080E198E20E9456065B
:10334000EB2D57E2552E5B1408F4E7E2C057DE4F31
:10335000E883C059D14080E08E1708F486CF20E979
:10336000422E552453944C0E5D1E4E0E511CF201FC
:1033700011824198C057DE4F8881C059D1408932AF
:1033800038F098E2592EC057DE4F5882C059D140CC
:1033900080E80E945006C057DE4F7880C059D14067
:1033A000872D0E9450069E2C791408F075CF419A03
:1033B0000E946A0661E08CE091E00E945606412C72
:1033C000512C8BE4682E712C21E0421A51086108BF
:1033D000710839F060E08FEF97E20E94560687FF90
:1033E000F3CF912C8BEC92E1A0E0B0E069CF4424C4
:1033F0004A94542C320172CF61E070E0C55CDD4F1D
:1034000079836883CB53D2407CCFB394A2EE6A2EEB
:10341000772473946C0E7D1E680E791EC45DDD4F9B
:1034200079826882CC52D2407FCF842B952BA62BF9
:10343000B72B108231E08ACE61E081E093E20E94F6
:103440005606412C512C6BE4662E712C31E0431A48
:1034500051086108710809F4EDCE60E08FEF93E246
:103460000E94560681FFF2CFE5CE88E2F6CE8FEFBE
:103470000E945006E0E9F1E0EC0FFD1FE90DF11D9F
:1034800080839394C057DE4F8881C059D1408915FD
:1034900070F7419AC057DE4FE881C059D140E832F9
:1034A00008F0E7E28E16E0F059EB452E55245394D0
:1034B0004C0E5D1E4E0E511CF201108261E080E147
:1034C00098E20E9456065D98C754DE4FE881C95BBA
:1034D000D140E356E23158F5F0E0E454F34EF4C144
:1034E000882D90E049EB51E04C0F5D1F480F591FAC
:1034F00060E971E06C0F7D1F860F971FDC0111964C
:103500008C91DA018C938394CDCFC454DE4F8881A3
:10351000CC5BD140815081F4DD2049F0C654DE4FB0
:103520008881CA5BD1408F1102C012FF14600E94D3
:103530009A06BFBE0C94320DA0EFB2ED1197F1F7D1
:1035400000C00000E7CFC354DE4F8881CD5BD1407F
:10355000815049F4C65CDD4F8881CA53D2400E9435
:103560008308382EE4CFE0EFF2ED3197F1F700C099
:103570000000EECFC454DE4FE880CC5BD140EA942B
:10358000E11052C080E7CE51DE4F8883C25ED14049
:10359000CD51DE4FC882C35ED140CC51DE4FF882A0
:1035A000C45ED14085E00E9420084BE0489F900116
:1035B000499F300D1124205E3F4F46E036952795F8
:1035C0004A95E1F7CB51DE4F2883C55ED140CA5101
:1035D000DE4FD882C65ED140C951DE4F3882C75E09
:1035E000D14080E1C851DE4F8883C85ED140C751C9
:1035F000DE4FA882C95ED14082E086BB1092850072
:103600001092840080910F02826080930F021092CA
:103610000E0210920D021064006190E7C05DDD4F54
:103620009883C053D24083CF80EF92ED0197F1F79A
:1036300000C00000A4CFCF53DE4F8881C15CD140D1
:10364000815029F5C654DE4F8881CA5BD14085344C
:1036500091F0882381F08C1571F08150282F30E093
:10366000E1E0F0E0EC0FFD1F289EE00DF11D1124BC
:103670008081882399F0C75CDD4FB881C953D2405F
:10368000BF5FC75CDD4FB883C953D24050CFA0EFB6
:10369000B2ED1197F1F700C00000D2CFC554DE4F54
:1036A0008881CB5BD1408083C454DE4F8881CC5B62
:1036B000D1408183C354DE4F8881CD5BD1408111DD
:1036C0001CC08EE6229EF001239EF00D112444249E
:1036D0004394512C4C0E5D1EE40DF51D8283C254A3
:1036E000DE4F8881CE5BD1408383C154DE4F888119
:1036F000CF5BD1408483A5821ACF8AE6E3CFC25440
:10370000DE4F8881CE5BD140815069F5D1100FCF5B
:10371000C654DE4F8881CA5BD1408C1108CFC55496
:10372000DE4F8881CB5BD1408F1101CFC454DE4F77
:103730008881CC5BD1409FEF980F923308F0F7CE91
:10374000C354DE4F6881CD5BD1409FEF960F92331B
:1037500008F0EDCE8C1103C06F1509F4E8CE0E947D
:1037600038070860E4CEA0EFB2ED1197F1F700C082
:103770000000CACFC454DE4F8881CC5BD140815059
:1037800031F5C654DE4F8881CA5BD1408C11CFCE53
:103790000260106482E086BB109285001092840063
:1037A00080910F02826080930F02CB5BDD4F4880D7
:1037B0005980C554D24050920E0240920D02E12C25
:1037C0002AE7C05DDD4F2883C053D240B0CEE0EF82
:1037D000F2ED3197F1F700C00000D1CFC654DE4FB3
:1037E0008881CA5BD1409FEF980F911106C090E08D
:1037F00061E099620E9456069ACEA0EFB2ED119751
:10380000F1F700C000009150F0CFAA2011F40C9401
:10381000960D0C94F90FDB018F939F935BD0BF91B2
:10382000AF91A29F800D911DA39F900DB29F900D0F
:1038300011240895991B79E004C0991F961708F088
:10384000961B881F7A95C9F780950895A1E21A2ED4
:10385000AA1BBB1BFD010DC0AA1FBB1FEE1FFF1F34
:10386000A217B307E407F50720F0A21BB30BE40B84
:10387000F50B661F771F881F991F1A9469F76095CB
:103880007095809590959B01AC01BD01CF01089585
:10389000052E97FB16F400940FD057FD05D0D6DF08
:1038A00007FC02D046F408C050954095309521950C
:1038B0003F4F4F4F5F4F089590958095709561955C
:1038C0007F4F8F4F9F4F0895EE0FFF1F0590F4918C
:1038D000E02D099440D0A59F900DB49F900DA49F1A
:1038E000800D911D112408952F923F924F925F9267
:1038F0006F927F928F929F92AF92BF92CF92DF9200
:10390000EF92FF920F931F93CF93DF93CDB7DEB764
:10391000CA1BDB0B0FB6F894DEBF0FBECDBF0994F8
:103920002A88398848885F846E847D848C849B844F
:10393000AA84B984C884DF80EE80FD800C811B815D
:10394000AA81B981CE0FD11D0FB6F894DEBF0FBE8C
:10395000CDBFED010895A29FB001B39FC001A39F09
:10396000700D811D1124911DB29F700D811D1124B8
:10397000911D0895F894FFCF7F1B971A971A851A07
:10398000971A971ABA1A971A971A971ABA1B971A68
:0C399000971A1B1B971AEE1B971AA31A1C
:10399C00480DD007E803F401FA007D0064003E00F6
:1039AC00320028001F00190014000F000C000A0040
:1039BC0003000003000003000000020000020000EE
:1039CC0000020000000000020500000300000300DC
:1039DC0000000300000800000004000000000013B9
:1039EC00636F6E660072656D6F746500636C656104
:1039FC00726C6973740073656E640066697265003D
:103A0C006964656E740074656D7000696D70006337
:103A1C006C73006B696C6C0068770068617264771A
:103A2C006172650069676E697465720072666D001B
:103A3C000A0D4B6F6D6D616E646F202831362D420F
:103A4C0069742D4865782D466F726D61742C204D0C
:103A5C005342207A752031207365747A656E206626
:103A6C00C3BC7220536368726569627A7567726948
:103A7C006666293A203078000A0A0D006165736B7E
:103A8C006579005AC3BC6E64626F78207633005A35
:083A9C00C3BC6E64626F780088
:00000001FF
