:100000000C94F9020C9416030C9416030C9416032A
:100010000C94AE090C9416030C9416030C9416035E
:100020000C9416030C9416030C9416030C941603EC
:100030000C9416030C94050A0C9416030C941603E6
:100040000C94BD090C9416030C9416030C9416031F
:100050000C9416030C9416030C9416030C941603BC
:100060000C9416030C9416030A0D001B5B314420FC
:100070001B5B3144000A0D44657669636520697332
:1000800074205472616E736D69747465722C2049AA
:100090004473206E6963687420E46E646572626103
:1000A00072210A0A0D000A0D4B65696E6520C46E47
:1000B000646572756E6720766F7267656E6F6D6DC1
:1000C000656E0A0A0D000A0D4E65757374617274CF
:1000D0002E2E2E0A0A0D004665686C65722120429C
:1000E000697474652065726E6575742076657273C7
:1000F000756368656E210A0D000A0A0DC46E646599
:1001000072756E67206572666F6C67726569636889
:10011000210A0D001B5B33376D001B5B33316D0013
:100120000A0D4E65756520536C6176652D49442036
:100130002830312D33302C20454E544552203D205F
:10014000616C7465722057657274293A2020001B17
:100150005B33376D001B5B33316D004E6575652079
:10016000556E697175652D4944202830312D333025
:100170002C20454E544552203D20616C7465722000
:1001800057657274293A20000A0D000A0D002849AB
:1001900029447320E46E6465726E2C2041626272A1
:1001A000756368206D69742062656C696562696752
:1001B000657220616E646572657220546173746546
:1001C0002120000A0A0A0D001B5B33376D000A0D5F
:1001D000004645484C4552001B5B33316D00416B76
:1001E0007475656C6C6520536C6176652D49443A75
:1001F0002020001B5B33376D000A0D004645484C3C
:100200004552001B5B33316D000A0A0D416B74755A
:10021000656C6C6520556E697175652D49443A2091
:10022000000A0D416E67657363686C6F7373656E6A
:100230006573204465766963653A20001B5B33373C
:100240006D001B5B33376D000A0D4665686C657287
:10025000206265696D2049442D4C6164656E0A0D0C
:10026000001B5B33316D000A4B6F6E6669677572F8
:100270006174696F6E7370726F6772616D6D0A0D74
:100280003D3D3D3D3D3D3D3D3D3D3D3D3D3D3D3D9E
:100290003D3D3D3D3D3D0A0D001B5B33336D004947
:1002A000442D5765636873656C206D6974206A20FE
:1002B00062657374E4746967656E2C2061626272B2
:1002C000656368656E206D697420616E6465726532
:1002D000722054617374652120000A0A0D004E6576
:1002E000756520536C6176652D49443A20202020A5
:1002F000202020000A0D004E65756520556E69713D
:1003000075652D49443A202020202020000A0D0048
:100310000A0D0042697368657269676520536C61F4
:1003200076652D49443A2020000A0D004269736821
:10033000657269676520556E697175652D49443A26
:1003400020001B5B33376D000A0A52656D6F7465C0
:100350002D4B6F6E66696775726174696F6E73702D
:10036000726F6772616D6D0A0D3D3D3D3D3D3D3DD6
:100370003D3D3D3D3D3D3D3D3D3D3D3D3D3D3D3DAD
:100380003D3D3D3D3D3D0A0D001B5B33336D000A95
:100390000D000A0D4665686C657268616674652FAC
:1003A000646F7070656C7465204944733A2000096D
:1003B000000A0D002D2D2D2D002D00202D002C20AC
:1003C000002D2D2D2D006E2E612E002C20002D00D5
:1003D0002C20002E002D2D2D2D002C200030002053
:1003E000002D2D2D003A200030000A0D556E697148
:1003F00075652D49443A20536C6176652D49442C2E
:100400002042617474657269657370616E6E756E99
:1004100067202856292C205363686172663F2C2080
:1004200054656D706572617475722028B043292C13
:100430002052535349202864426D290A0D001B5B4A
:1004400033376D003D3D3D3D3D3D3D3D3D3D3D3DF9
:100450003D3D3D0A0D000A0D53797374656DFC62D4
:10046000657273696368740A0D001B5B33336D003A
:100470000A0A0D0009200920092009000A0D002D93
:100480002D2D003A20000A0D536C6176652D4944EC
:100490003A20416E7A61686C20426F78656E0A0D71
:1004A000000A0A0D00B043006E2E612E0054656DE7
:1004B000706572617475723A2000556E67FC6C74D9
:1004C0006967652045696E6761626500203D2000AF
:1004D0000A0D4B616E616C3A20200900536C617605
:1004E000652D49443A09000D0A000A0D4D6F6475E7
:1004F0007328662F692F74293A20000A0A0D000A12
:100500000D49442D4B6F6E66696775726174696F32
:100510006E7362656665686C2077697264206765D2
:1005200073656E646574210A0D000A0D49447320D9
:1005300077657264656E206C6F6B616C20616E67AD
:10054000657061737374210A0D000A0A0D000A0DAB
:1005500052464D0061746D65676133323870000A30
:100560000D000A0D000A0D000A0A0D4C65747A741C
:10057000656E2042656665686C20776965646572A2
:10058000686F6C742073656E64656E204155530A04
:100590000D000A0A0D4C65747A74656E204265661A
:1005A00065686C20776965646572686F6C74207328
:1005B000656E64656E2045494E0A0D001B5B314433
:1005C0000020001B5B3144001B5D303B454C204646
:1005D00055455241444F524F07001B5B334A001BA5
:1005E0005B303B3048001B5B324A002D003000205E
:1005F000000011241FBECFEFD8E0DEBFCDBF12E058
:10060000A0E0B1E0E4E6F6E302C005900D92AA3363
:10061000B107D9F722E0AAE3B2E001C01D92A034ED
:10062000B207E1F70E94160A0C94301B0C940000EC
:10063000F999FECF72BD61BD80BDFA9AF99A12BCDC
:1006400011BC0895F999FECF92BD81BDF89A80B58D
:1006500012BC11BC0895219A9AE09A95F1F7811184
:10066000219894E29A95F1F70000199B80E097E9B0
:100670009A95F1F7219896E09A95F1F700C00895C0
:10068000CF93DF93C82FD8E08C2F81700E942B036B
:10069000C6958111C068D150B9F78C2FDF91CF91E9
:1006A00008955D9A5F9A5E9A289A08955D985F987A
:1006B0005E98289808955F980895439842984198C5
:1006C00040980895A1E0B0E0E8E6F3E00C94E61A63
:1006D000339902C090E001C090E1329902C080E0FD
:1006E00001C080E2982B319902C080E001C080E413
:1006F000982B309902C080E001C080E8192F182B98
:10070000439A429A419A409A3B983A983998389835
:100710005C98459A80E887FF39C0449A0000000041
:10072000339902C090E001C090E1329902C050E0DC
:1007300001C050E2319902C040E001C040E430996C
:1007400002C030E001C030E8449800000000449A44
:100750000000000086B183FB882780F9892B852B58
:10076000842B832B329902C020E001C022E0822B2F
:10077000319902C090E001C094E0892B309902C009
:1007800090E001C098E0892B4498C5CF45983B9AEA
:100790003A9A399A389A89830E945D03898114FDB7
:1007A000439A15FD429A16FD419A17FD409A2196EB
:1007B000E3E00C94021B449A00C000C044980895E2
:1007C000CF93C82F0E945D03C4FD439AC5FD429A92
:1007D000C6FD419AC7FD409A0E94DB030E945D035B
:1007E000C0FD439AC1FD429AC2FD419AC3FD409AA1
:1007F0000E94DB03CF910895853008F081E06531D8
:1008000008F061E0282F30E0215031093595279517
:1008100045985C98809581708295880F880F807CC0
:10082000815894E1299F800D1124860F0E94E003D6
:100830000E9462030895A1E0B0E0E1E2F4E00C94CC
:10084000E71A4598611122C05C9869830E94E00311
:100850000E94620369816623D9F00E94620380349A
:1008600081F028F48431A1F461E082E00CC0843589
:1008700029F0883669F461E081E005C061E083E039
:1008800002C061E084E00E94FC0302C05C9ADDCFFC
:100890002196E2E00C94031BCF93DF93EC01899146
:1008A000882321F061E00E941B04F9CFDF91CF91F2
:1008B000089545985C9A0E94E0030E94620308959F
:1008C000862798E02CE8382F3170869531118227E1
:1008D0009150C9F70895962728E0AC01880F991F19
:1008E00057FF04C031E2832730E193272150A9F755
:1008F0000895A0E0B0E0EFE7F4E00C94E11A082FCF
:10090000162FC82EC60E682F80E10E946004F82EB4
:10091000612F80E10E946004D82E612F8F2D0E94EC
:100920006004E82EC8E1D0E0BE01802F0E941803C9
:10093000BE016F5F7F4F812F0E941803BE016E5F63
:100940007F4F8C2D0E941803BE016D5F7F4F8F2D4E
:100950000E941803BE016C5F7F4F8D2D0E9418030B
:10096000BE016B5F7F4F8E2D0E941803A496C43882
:10097000D105D1F6CDB7DEB7E8E00C94FD1AA0E0C2
:10098000B0E0E5ECF4E00C94DC1A082F162FC8E177
:10099000D0E0E82EE60ECE010E942203782ECE0192
:1009A00001960E942203882ECE0102960E94220305
:1009B000982ECE0103960E942203A82ECE01049603
:1009C0000E942203B82ECE0105960E942203D82E43
:1009D000602F80E10E946004F82E612F80E10E9468
:1009E0006004C82E612F8F2D0E94600470120AC00F
:1009F000811208C09E1006C0AF1004C0BC1002C017
:100A0000D81631F0A496C438D10529F680E001C08B
:100A100081E0CDB7DEB7EDE00C94F81AA0E0B0E0CD
:100A2000E4E1F5E00C94DF1A6C015B01C8E1D0E071
:100A3000E12CCE010E942203182FCE0101960E94C4
:100A40002203082F682F812F0E94BF04F82E8823CD
:100A5000B9F188E190E00E942203C82F8CE390E076
:100A60000E942203C81729F188E190E00E94220326
:100A7000C82F80E690E00E942203C8131AC089E1C3
:100A800090E00E942203C82F8DE390E00E94220391
:100A9000C8130FC089E190E00E942203C82F81E6AD
:100AA00090E00E942203C81304C0602F812F0E948F
:100AB0007904F6011083F5010083FF24F39416C036
:100AC000F2E0EF120DC0602F812F0E94BF04811150
:100AD00007C085E4F601808385E6F501808306C0C2
:100AE000E394A496C438D10509F0A3CF8F2DCDB7D8
:100AF000DEB7EAE00C94FB1A80B7806880BF809173
:100B00007C00856480937C0080917A00866080936D
:100B10007A0080917A00806880937A0080917A00D0
:100B2000806480937A0080917A0086FDFCCF80916A
:100B30007800909179002FEF8FE797E02150804067
:100B40009040E1F700C0000028E080E090E03091A4
:100B50007A00306430937A0030917A0036FDFCCF11
:100B60004091780050917900840F951F215079F7BA
:100B700080389C40D8F480917C00806880937C0011
:100B80008FEF9FE727E0815090402040E1F700C0C1
:100B9000000080917A00806480937A0080917A00CE
:100BA00086FDFCCF80917800909179000895299876
:100BB000219A8CEC94E00197F1F700C00000219895
:100BC00098ED9A95F1F7000083B1EAE2F4E03197ED
:100BD000F1F700C0869581700895CF92DF92EF9271
:100BE000FF92882309F450C00E94D7058CEC0E9424
:100BF00040038EE40E9440038DE70E94400388ED8D
:100C00000E9440038FE10E9440030E94D7058CECB4
:100C10000E94400384E40E944003C12C5CE2D52E74
:100C2000EE24E394F12C81E00E942B03811106C095
:100C300081E0C81AD108E108F108A9F70E94D70598
:100C40008CEC0E9440038EEB0E9440038FEF0E94C9
:100C50004003F82E8FEF0E944003282F30E0322F00
:100C600022272F0D311DC9018827987F892B71F408
:100C700081E0285F3F4F94E0369527959A95E1F7FC
:100C8000289F802D112407C080E805C0319521954B
:100C900031098FEFEECFFF90EF90DF90CF90089566
:100CA00080917C00887F80937C0080917C008560AF
:100CB00080937C0090917C009095991F9927991FB3
:100CC0008BE0891B982F40E050E0BA0180917A00B8
:100CD000806480937A0080917A0086FDFCCF209119
:100CE000780030917900420F531F611D711D9150A2
:100CF00069F7DB01CA018096A11DB11D26E0B695FA
:100D0000A795979587952A95D1F7089535B516BC7F
:100D100081E085BB80EA86BD85E085BD80E095E504
:100D200041E050EA2FEF290F2E3F68F421E0349B79
:100D300020E0990F922BA89BFECF45BB56BD883073
:100D400088F78F5FEFCF883088F335BD81E0911150
:100D500080E008959FEB980F9A3130F0843C21F0A9
:100D6000863D11F08C3D09F480620895CF93DF93A6
:100D7000FC01DF01EB018991BE01882329F0319646
:100D80009C918917B1F303C081E09081911180E0BB
:100D9000DF91CF910895282F40E050E066E970E0A0
:100DA00099B1892F887093FF07C04150510961099B
:100DB0007109B1F781E0089540E050E066E970E024
:100DC0009091C00095FD05C041505109610971091C
:100DD000B9F72093C6000895CF93DF93EC01FE018D
:100DE0008491882329F00E94CB0621968823B9F3A9
:100DF000DF91CF910895A1E2B0E0E1E0F7E00C943B
:100E0000D91A6B017C01FE01319681E2DF011D924E
:100E10008A95E9F7483449F018F4423441F072C039
:100E2000423629F0483609F06DC010E052C081E02A
:100E300090E0A0E0B0E08C159D05AE05BF0528F45C
:100E4000880F991FAA1FBB1FF6CF80389105A105F7
:100E5000B10558F081159048A105B10560F0812CCD
:100E6000912CA12C50E8B52E0BC040E8842E912C7B
:100E7000A12CB12C05C0812C30E8932EA12CB12CD3
:100E8000D701C60188219921AA21BB21892B8A2B50
:100E90008B2B11F480E301C081E30E94CB06B69452
:100EA000A7949794879481149104A104B10441F705
:100EB00069C0111114C0DF01A10FB11D8C2D8F70FD
:100EC0008C9394E0F594E794D794C7949A95D1F7CE
:100ED0001F5FC114D104E104F10469F7EACF10FFE8
:100EE0000CC01F5F0AC0FE01E10FF11D80818A3036
:100EF00038F0895C0E94CB0611501111F4CF42C02A
:100F0000805DF8CFC114D104E104F10429F48DEE21
:100F100095E00E94EC0636C0F7FE0AC0F094E0941B
:100F2000D094C094C11CD11CE11CF11C01E001C093
:100F300000E05F0110E08AE0482E512C612C712CFA
:100F40001F5FC701B601A30192010E94B81AD50123
:100F50006D935D0169017A01C114D104E104F104CA
:100F600011F0113269F7002321F08BEE95E00E9419
:100F7000EC06FE01E10FF11D8081805D0E94CB0631
:100F80001150B9F7A196E0E10C94F51A8F929F9257
:100F9000AF92BF92CF92DF92EF92FF92CF93DF9307
:100FA0006B017C01C42F9B01AC01D0E08AE0882E4C
:100FB000912CA12CB12C211531054105510541F091
:100FC000CA01B901A50194010E94B81ADF5FF3CFED
:100FD000F7FE02C0C111C150CD1780F444E6C7012D
:100FE000B6010E94FB06DF91CF91FF90EF90DF905A
:100FF000CF90BF90AF909F908F900895CD1BCC2342
:1010000069F38FEE95E00E94EC06C150F8CFCF93C4
:10101000DF93EC0180E09991992331F0811104C0B4
:10102000892F0E94CB06F7CFDF91CF91089580E002
:1010300090E0A6E9B0E02091C00027FD06C001972E
:10104000A109B109C1F780E008955A9A8091C600BC
:101050005A98089581E086BB109285001092840012
:101060000895E1E8F0E08081887F80830895E1E8D9
:10107000F0E08081826080830895CF93DF93C3E6A0
:1010800080ED8C0F843050F00E941708C82F8A30F2
:1010900011F48FEF1EC08D3099F7FBCF8C2F0E947B
:1010A000CB06CC0F84E0C89FC00D1124C051D0E006
:1010B00083E69FEF9D0F9E3148F00E9417088A300B
:1010C00041F38D3031F3D82FDC0FF3CF0E94CB06E4
:1010D0008D2FDF91CF91089586EE95E00E94EC066A
:1010E0008FED95E00E94EC068AED95E00E94EC06FB
:1010F00088EC95E00E94EC060895BC014098439866
:10110000429890E120E030E848E0FB01E223F3233D
:10111000EF2B09F0409A46B946B940983695279585
:10112000915099F784E086B986B90895419A389A22
:10113000399A3A9A3B9A40984298439893E028E02B
:1011400034E084E126B926B98150E1F736B936B9E1
:101150009150B9F789E999E00197F1F700C04198FA
:1011600008952B9800C02A9800C083B12A9A8295CE
:10117000817008952D982B982A989EBD0DB407FE76
:10118000FDCF9EB58EBD0DB407FEFDCF8EB52A9A5C
:101190002D982B98089580E090E00E94BA08089559
:1011A000CF92DF92EF92FF92CF93C82FC12C80EBAA
:1011B000D82E84E0E82EF12C0E94B10881110BC0DA
:1011C00081E0C81AD108E108F1088FEFC816D806E7
:1011D000E806F80689F78C2F90E098540E94BA0828
:1011E00081E0CD28CE28CF2809F080E0CF91FF9074
:1011F000EF90DF90CF900895CF92DF92EF92FF9221
:10120000CF93DF93EC01C12C80EBD82E84E0E82E45
:10121000F12C0E94B10881110CC081E0C81AD108DC
:10122000E108F1088FEFC816D806E806F80689F736
:1012300007C0CD28CE28CF2819F488818F5F8883F6
:1012400080E090EB0E94BA08DF91CF91FF90EF9081
:10125000DF90CF90089589E092E80E94BA0800C01C
:1012600080E00895A0E0B0E0E8E3F9E00C94DF1A34
:10127000D82EB92ED62F0E942B090E94CB0889E3C5
:1012800092E80E94BA0800C08AEA0E94D008C82FDB
:101290008AEA0E94D008C80F8AEA0E94D008C80FC4
:1012A0008AEA0E94D008C80F8DE20E94D008C80FB9
:1012B00084ED0E94D008C80F8D2F0E94D008C80F5F
:1012C0006D2F8FE09DE10E946B048C01DF3108F0EF
:1012D000DEE1CD2CED2CFB2C8E2D8C198D1770F4AE
:1012E0005701F70181917F010E94D008C80FF501D5
:1012F0006081C8010E946B048C01EECF00951095AF
:10130000812F0E94D008D82F802F0E94D008CD0FA7
:10131000C80F8AEA0E94D008C80F8AEA0E94D00843
:10132000C80F0E942B090E94CB0881E0C11101C0A7
:1013300080E0CDB7DEB7EAE00C94FB1A89ED92E8C5
:101340000E94BA0881E89AEC0E94BA0800C000C066
:1013500083E89AEC0E94BA0880E008951F920F92E9
:101360000FB60F9211248F9381E080933F028F91EB
:101370000F900FBE0F901F9018951F920F920FB6EF
:101380000F9211242F938F939F9380913E02882375
:1013900029F080913E028F5F80933E0280913D0252
:1013A000882329F080913D028F5F80933D028091D8
:1013B0003B0290913C02892B49F080913B02909135
:1013C0003C02019690933C0280933B0280913E0246
:1013D0008E3F10F010923E0280913D028E3F10F041
:1013E00010923D0280913B0290913C0281319742E4
:1013F00020F010923C0210923B029F918F912F910E
:101400000F900FBE0F901F9018951F920F920FB65E
:101410000F9211248F9380913A028F5F80933A024A
:101420008F910F900FBE0F901F901895AFE5B1E010
:10143000ECE1FAE00C94D71A0FB6F894A8958091D5
:101440006000886180936000109260000FBE10E021
:1014500000E09E012F5F3F4F590180E2D9011D92AC
:101460008A95E9F78FE1FE01B196DF01282F1D92E1
:101470002A95E9F76E0130E4C30ED11CD601E82F9E
:101480001D92EA95E9F79E01215A3F4FC45CDE4F59
:1014900039832883CC53D140D901E82F1D92EA9596
:1014A000E9F7FE01E258FF4FDF01282F1D922A9530
:1014B000E9F7AE0143565F4FC25CDE4F5983488364
:1014C000CE53D140DA01E82F1D92EA95E9F7FE01EB
:1014D000E454FF4FDF01282F1D922A95E9F77F96EC
:1014E000DF01282F1D922A95E9F77F96DF01282F2B
:1014F0001D922A95E9F77F96DF011D928A95E9F7FB
:101500000E94960880916400806C8093640080B78C
:10151000806880BF0E9437082898209A5E98569A63
:101520000E945B03579A5D98559A0E947C050E9421
:101530005006C05CDE4F8883C054D1408EE1C75C4A
:10154000DE4F8883C953D140C85CDE4F8883C853BF
:10155000D140BE01675C7E4FCE01885C9E4F0E94E9
:101560000E05811102C00E945103C75CDE4FF88056
:10157000C953D140C85CDE4F3880C853D140C05CED
:10158000DE4F3881C054D1403C39D0F4332019F0BB
:10159000FF2029F028C0BEE13B2EF11002C0AEE1D1
:1015A000FA2E6F2D832D0E9479049EE088E10FB6FC
:1015B000F894A895809360000FBE90936000FFCFD1
:1015C000311002C0FF2079F060E080E00E947904D1
:1015D0009EE088E10FB6F894A895809360000FBE56
:1015E00090936000FFCF5F9AD501CD5BDE4FD9822B
:1015F000C882C354D140AE014F5D5F4FC65CDE4F21
:1016000059834883CA53D140CE0185529F4F3C0134
:10161000FE01E454FF4F2F0144585F4FBE01615A51
:101620007F4F9E012F5D3F4F6901E12CE0E8BE2E08
:10163000F0E29F2EAA24A394EF1458F4B9B899B8F5
:101640003FEF8FEF95E0315080409040E1F700C0D0
:1016500000C0AD92CD5BDE4FE881F981C354D1402B
:101660001192CD5BDE4FF983E883C354D140F6017C
:1016700011926F01FB011192BF01FA011192AF01AA
:10168000F20111922F01F301B1923F01E394FEE1C7
:10169000EF12D2CF0E945B035D98C05CDE4F3881B1
:1016A000C054D1403C3908F4DFC010923D02109282
:1016B0003E0210923C0210923B0244983C9898B132
:1016C00085B198130AC0809168008E7F809368006E
:1016D00080916B008F7E80936B0098B18BB19813D3
:1016E0000AC0809168008B7F8093680080916D00B4
:1016F0008F7E80936D0098B188B198130AC0809155
:1017000068008D7F8093680080916C008F7E80934D
:101710006C0010927C0010927A0010923F020E949E
:101720005603449845985C980E945D033C9A3D9A04
:10173000549A3B9A3A9A399A389A4FEF5FEF85E07C
:10174000415050408040E1F700C000C0429A439AA7
:101750000E94DB03AFEFBFE51197F1F700C0000077
:101760000E94DB03EFEFFFE53197F1F700C00000C7
:101770000E94DB038FEF9FE50197F1F700C00000A7
:101780000E945D03429A0E94DB030E94620360E0B4
:1017900088E20E941B0460E08CE00E941B0460E071
:1017A00086E00E941B0460E081E00E941B0460E070
:1017B00080E40E941B0484E00E94590484E00E949B
:1017C00059048AE00E9459048AE00E94590485E184
:1017D0000E94590481E10E9459048AE00E94590440
:1017E00084E00E94590482E00E94590485E00E942E
:1017F000590482E00E94590480E00E94590480E06C
:101800000E94590480E00E94590480E00E9459041B
:1018100080E00E94590460E080E80E941B0461E0BF
:1018200082E00E94FC0361E080E00E941B0461E012
:1018300080E00E941B0484E291E00E944C0461E07D
:1018400080E00E941B0461E080E00E941B0460E0D5
:1018500082E00E941B0485B5856085BD80916E0085
:10186000816080936E0037C00E949608449A3C982D
:1018700098B185B198130AC0809168008160809307
:10188000680080916B00806180936B0098B18BB190
:1018900098130AC0809168008460809368008091EA
:1018A0006D00806180936D0098B188B198130AC073
:1018B0008091680082608093680080916C008061F4
:1018C00080936C0081E080933F020E947C050E941F
:1018D000560354985C9A8FB7F8945B9A5398529A2F
:1018E0001092C5009FE39093C40098E19093C100CB
:1018F00096E09093C2008FBF5A9835E0CF5BDE4FE1
:101900003883C154D140E12CDD24D3940E94D70503
:1019100093B1969591709D25890FE80ECF5BDE4FB0
:101920003881C154D1403150CF5BDE4F3883C15430
:10193000D1403111EBCFE11006C03FE6CF5BDE4F67
:101940003883C154D140CF5BDE4F8881C154D14030
:101950000E94ED05582E2A9A2C9A2498239A259AAB
:10196000229A8CB581658CBD4FEF5FEF8EE04150C0
:1019700050408040E1F700C0000075E0E72E80E0B5
:1019800090EC0E94BA0888EE90E80E94BA0883E2C0
:1019900096EC0E94BA0881EC94E90E94BA0880E2B1
:1019A00098E90E94BA088CEA92EC0E94BA0881E891
:1019B0009AEC0E94BA0880E098EC0E94BA0887EF7F
:1019C00094EC0E94BA0880E090EE0E94BA0889E088
:1019D00092E80E94BA088FEE95EA0E94BA08A6E63D
:1019E000B6E21197F1F70000EA94E110C8CF0E9427
:1019F000CB080E949E09C05CDE4F3881C054D140A4
:101A00003C3968F189E621968FAF219784E62296CA
:101A10008FAF229780E323968FAF239765E0E62E62
:101A20005F9A6AE085E391E00E9432090E945B03BD
:101A30004FEF5FEF8EE0415050408040E1F700C033
:101A40000000EA94E110ECCF60E081E00E941B040A
:101A500080916E00816080936E00212C1EC00E94D8
:101A60008606282E882311F05E9A01C05E980061D8
:101A700080E721968FAF219722963FAE229723963B
:101A8000FFAE23970E94500624968FAF2497259689
:101A90002FAE259726965FAE269710617894C05C8E
:101AA000DE4F3881C054D1403C3948F440E451E025
:101AB000C65BDE4F59834883CA54D14008C088E4CE
:101AC00091E0C65BDE4F99838883CA54D140832D51
:101AD00090E09C01220F331FD9011396CD5ADE4F9F
:101AE000B983A883C355D1404424439453E0B52E11
:101AF0003FE0CB5BDE4F3883C554D14034E0CA5B56
:101B0000DE4F3883C654D140C95BDE4F1882C754BC
:101B1000D14031E0CE5BDE4F3883C254D140AC01BE
:101B200041505109C85BDE4F59834883C854D140A6
:101B30008FE590E08C0F9D1F840F951FCB5ADE4FD1
:101B400099838883C555D1408EE790E08C0F9D1F07
:101B50008F0D911DDC011197C95ADE4FB983A883FF
:101B6000C755D140EDE9F0E0EC0FFD1FE40FF51F84
:101B7000C75ADE4FF983E883C955D1402CEB30E0DA
:101B80002C0F3D1F240F351FC55ADE4F3983288384
:101B9000CB55D1408BED90E08C0F9D1F840F951F8E
:101BA000C35ADE4F99838883CD55D14080913F023F
:101BB000882369F0EFB6F89410923F020E948606DF
:101BC000282E882311F05E9A01C05E98EFBE8091A6
:101BD000C000881F8827881F80FB10F910FF9AC15A
:101BE000EFB6F8941E7F289A0E94170889838D30DB
:101BF00009F462C030F4883009F45EC08A3089F498
:101C00005BC08F3709F458C08F3F59F40E94170802
:101C10008A830E9417088B830E9417088C831D8279
:101C20004CC00E94AA0689830E94CB06D12C0E9438
:101C300017080E94AA06982F8D3081F08A3071F023
:101C4000883011F08F3759F4D11002C01A8228C0A1
:101C5000DA948BE690E00E94EC06E9CF90E0E2E0B7
:101C6000F0E0EC0FFD1FED0DF11D9083892FC15A9F
:101C7000DE4F9883CF55D1400E94CB06C15ADE4F2C
:101C80009881CF55D140992349F0D3949DE1D91241
:101C9000CECF88E690E00E94EC060FC0D110F9CFBD
:101CA00083EC95E00E94EC0681EC95E00E94EC0646
:101CB0008CEB95E00E94EC06198264E571E0CE01A0
:101CC00001960E94B606882311F012601F7E69E516
:101CD00071E0CE0101960E94B606882311F00064DF
:101CE0001F7E60E671E0CE0101960E94B60681116A
:101CF00000616AE671E0CE0101960E94B60681118C
:101D000018C06FE671E0CE0101960E94B6068111FF
:101D100010C064E771E0CE0101960E94B606811101
:101D200008C06AE771E0CE0101960E94B6068823DA
:101D300011F018601F7E65E671E0CE0101960E94E9
:101D4000B606882311F010641F7E6FE771E0CE01A4
:101D500001960E94B606882359F0C05CDE4F388198
:101D6000C054D1403C3920F002600160046010682A
:101D700066E871E0CE0101960E94B60681110E94CC
:101D80006C086AE871E0CE0101960E94B6068111E6
:101D900008606FE871E0CE0101960E94B6068111DD
:101DA00007C062E971E0CE0101960E94B60681117A
:101DB00000626BE971E0CE0101960E94B6068823AD
:101DC00009F444C08FE991E00E94070834E0932EA3
:101DD000A12C80E090E06C0124E0CC0CDD1C2A9565
:101DE000E1F70E941708882E0E94CB06882D80629A
:101DF00090ED980F9A3040F09FE9980F963018F4C4
:101E000099EA980F01C09FEF81E09F3F09F080E0C1
:101E1000A80EA601492BCA019A949110DCCFA110FB
:101E200011C08F3F5FEF950769F00E94BA086C01FF
:101E300082EC91E00E940708B60180E090E048E65D
:101E40000E94FB068CEC91E00E94070860ED71E0B7
:101E5000CE0101960E94B606882369F082E995E0DA
:101E60000E94EC060E942A080E94370880916F00A9
:101E7000816080936F0065ED71E0CE0101960E9454
:101E8000B606882379F088E695E00E94EC06109269
:101E90003A020E94310880916F008E7F80936F001C
:101EA0000E942A0889818F3F59F5CA808C0D8E3196
:101EB00038F5DB808FEF8D0D803110F5AC806C2D07
:101EC00080E00E9460046D2D0E946004A81218C07A
:101ED00086E621968FAF21972296CFAE2297239642
:101EE000DFAE23971061FC100BC0C05CDE4F388161
:101EF000C054D1403C3920F412FD02C0DBA2146072
:101F00002898898181508E3F20F485E695E00E94D3
:101F1000EC06EFBE05FF27C0EFB6F8940F7D82E612
:101F200095E00E94EC06C65BDE4F88819981CA5419
:101F3000D1400E9407088FE595E00E94EC0684E5F9
:101F400095E00E94EC068EE495E00E94EC0644E6E3
:101F50006CE070E080E090E00E94FB068AE495E08F
:101F60000E94EC06EFBE11FF0FC1CFB6F8941D7FA3
:101F70000E942A080E9431080E946C0889E992E0B8
:101F80000E94EC0687E692E00E94EC06BE01675CC8
:101F90007E4FCE01885C9E4F0E940E0581110CC0C1
:101FA00081E692E00E94EC0688E492E00E94EC0652
:101FB00082E492E00E94EC068CE392E00E94EC0640
:101FC00081E292E00E94EC06C65BDE4F8881998137
:101FD000CA54D1400E940708C05CDE4F3881C0540B
:101FE000D1403C3908F0CBC089E092E00E94EC0679
:101FF00083E092E00E94EC06C85CDE4F8881C85303
:10200000D140853489F08A3018F480E30E94CB06F1
:10201000C85CDE4F6881C853D14070E080E090E03A
:1020200044E60E94FB0604C08CEF91E00E94EC069F
:1020300089EF91E00E94EC0683EF91E00E94EC06AC
:102040008EED91E00E94EC0688ED91E00E94EC0696
:10205000C75CDE4F8881C953D140853689F08A300C
:1020600018F480E30E94CB06C75CDE4F6881C95339
:10207000D14070E080E090E044E60E94FB0604C09E
:1020800081ED91E00E94EC068EEC91E00E94EC065E
:1020900088EC91E00E94EC0683EC91E00E94EC0653
:1020A0008EE891E00E94EC060E9417088823E1F375
:1020B000282F2062822FC15ADE4F2883CF55D1406E
:1020C0000E94CB068BE891E00E94EC0688E891E044
:1020D0000E94EC06C15ADE4F2881CF55D1402936E7
:1020E00009F035C68BE591E00E94EC0685E591E0AC
:1020F0000E94EC06C85CDE4FD880C853D1400E94D5
:102100003D08C85CDE4F8883C853D1408F3F29F417
:10211000C85CDE4FD882C853D1408FE491E00E9462
:10212000EC0680E291E00E94EC068AE191E00E94D8
:10213000EC06C75CDE4FE880C953D1400E943D08E1
:10214000C75CDE4F8883C953D1408F3F29F4C75CF9
:10215000DE4FE882C953D14084E191E00E94EC0651
:10216000C85CDE4F8881C853D140D812F3C5C75C24
:10217000DE4F9881C953D140E912ECC5E8C585E727
:1021800090E00E94EC06CFBE06FF91C09FB6F89487
:102190000F7B0E942A080E94310889E893E00E9480
:1021A000EC0688E493E00E94EC0682E493E00E944F
:1021B000EC068CE293E00E94EC060E943D08D82ECB
:1021C00089E293E00E94EC064FEFD41609F46EC04A
:1021D00083E193E00E94EC060E943D08E82E80E136
:1021E00093E00E94EC068DE093E00E94EC065FEF26
:1021F000E51609F45BC087EF92E00E94EC060E94AE
:102200003D08A82E84EF92E00E94EC068FEFA816FE
:1022100009F44CC08EED92E00E94EC060E943D084D
:10222000C82E8AED92E00E94EC069FEFC916F1F1EC
:10223000DA1002C0EC14D1F18FE992E00E94EC06B2
:102240000E941708882E8823D9F30E94CB06882D78
:1022500080628A3659F583E621968FAF21972296C0
:10226000DFAE22972396EFAE23972496AFAE249746
:102270002596CFAE2597D31010C0EF100EC08AE27E
:1022800095E00E94EC0625966FAD259724968FADBC
:1022900024970E947904086005C08FEF94E00E94A3
:1022A000EC0610618BEF94E00E94EC069FBE13FFDA
:1022B000E0C0AFB6F894177F0E942A080E94310848
:1022C00029812936E9F02437D9F02636C9F08AEE7B
:1022D00094E00E94EC060E941708282F2062822FAB
:1022E000C15ADE4F2883CF55D1400E94CB0687EEDE
:1022F00094E00E94EC06C15ADE4F2881CF55D140B0
:10230000FE01E05CFF4F2083263641F0293609F4B8
:1023100053C0243709F45AC0C12C89C0DD24D3949A
:10232000CC24C3944F018CED94E00E94EC060E94F3
:102330001708E82E8823D9F30E94CB06A0EDEA0EF9
:102340000E941708782E8823D9F30E94CB06EE0C42
:102350008E2D880F880F8E0D8053E72CE80E8CECA5
:1023600094E00E94EC06EE20C9F02E2D30E0B1E0A2
:10237000DB1203C08FE190E002C081E190E02817FA
:10238000390764F46E2D70E080E090E044E60E942E
:10239000FB06F401ED0DF11DE08207C08AEB94E02D
:1023A0000E94EC0693E0D92EC12CD394E2E0DE1219
:1023B0003EC080ED94E0B9CF208384E622968FAFB3
:1023C000229780E323968FAF23972FC0CF5BDE4FFA
:1023D0008881C154D1400E94ED05582E8DEA94E0C9
:1023E0000E94EC06F0E85F1203C088EA94E00BC09C
:1023F00044E0652D052C000C770B880B990B0E948F
:10240000C60785EA94E00E94EC0684E721968FAF28
:10241000219785E622968FAF22978DE623968FAF80
:10242000239780E724968FAF2497CC24C39481EA26
:1024300094E00E94EC06CC2089F0106121968FADCB
:102440002197863661F422968FAD22978F1107C0AF
:1024500023968FAD23978BA3146001C01F7E8091BC
:10246000C00087FF03C08091C600F9CF0E943708E3
:10247000AFBE16FFA2C12FB7CE5ADE4F2883C2557A
:10248000D140F8941F7B0E946C088AE694E00E9479
:10249000EC0686E594E00E94EC0684E494E00E9459
:1024A000EC068EE394E00E94EC068AEE93E00E9434
:1024B000EC069E0126503F4FC05BDE4F39832883D8
:1024C000C055D1402D553109C45BDE4F3983288377
:1024D000CC54D1402E533109CD5BDE4F3983288354
:1024E000C354D140AE0144545F4F6A0124583F4F5A
:1024F000C25BDE4F39832883CE54D140612C712CCE
:1025000043016394E12C38E03E1520F088EE93E01F
:102510000E94EC0644E6C401B3010E94FB0685EE6E
:1025200093E00E94EC06CD5BDE4FA881B981C354D5
:10253000D140AC90A11005C081EE93E00E94EC0662
:1025400012C08FED93E00E94EC06B9E0BA1520F0BE
:102550008DED93E00E94EC066A2D70E080E090E043
:1025600044E60E94FB068AED93E00E94EC06C45B01
:10257000DE4FE881F981CC54D1408191C45BDE4FBC
:10258000F983E883CC54D1406AE00E94AC1AA92EAA
:10259000811105C085ED93E00E94EC0612C0682F02
:1025A00070E080E090E042E00E94C60783ED93E097
:1025B0000E94EC066A2D70E080E090E044E60E9404
:1025C000FB0680ED93E00E94EC06CD5BDE4FA88118
:1025D000B981C354D140AD90CD5BDE4FB983A883A0
:1025E000C354D140AA2029F0F60180810E94CB0675
:1025F00004C08EEC93E00E94EC068BEC93E00E940A
:10260000EC06C25BDE4FA881B981CE54D1406D91FA
:10261000C25BDE4FB983A883CE54D140603849F005
:10262000062E000C770B880B990B44E00E94C6071E
:1026300009C0AA2019F086EC93E002C081EC93E077
:102640000E94EC068EEB93E00E94EC06C05BDE4F2E
:10265000E881F981C055D140A190C05BDE4FF9837C
:10266000E883C055D140AA2099F0F3E6FA151CF092
:102670008BEB93E002C089EB93E00E94EC066A2D9D
:10268000AA0C770B880B990B44E60E94FB0604C04A
:1026900084EB93E00E94EC068E2D63E00E94AC1A5E
:1026A000923019F481EB93E002C08FEA93E00E942C
:1026B000EC06E3942FEFC21AD20A3FEF631A730AB3
:1026C000830A930A4EE1E4121ECF82E993E00E944E
:1026D000EC06C95BDE4F3881C754D140832F90E0B0
:1026E000A0E0B0E044E6BC01CD010E94FB068FE80B
:1026F00093E00E94EC066E014EE7C40ED11CD60199
:1027000021E08FE590E08C0F9D1F4E96FE01E15A6F
:10271000FF4F30E04191421301C03F5F8E179F078A
:10272000C9F73D932F5F2F3189F786E894E00E9427
:10273000EC06612C712C43016394E12C58E05E158A
:1027400018F080E30E94CB0644E6C401B3010E9466
:10275000FB0683E894E00E94EC06D6016D916D01C2
:10276000611105C08FE794E00E94EC0606C070E09E
:1027700080E090E043E00E94C6078E2D63E00E9457
:10278000AC1A923019F48CE794E002C084E794E02C
:102790000E94EC06E394BFEF6B1A7B0A8B0A9B0A3C
:1027A000EEE1EE12CBCF80E794E00E94EC06CE5A29
:1027B000DE4F2881C255D1402FBF302F3870E32E15
:1027C00003FF1FC0F894C05CDE4F3881C054D14075
:1027D0003C3948F060E081E00E941B048AED91E002
:1027E0000E944C0401C0419A9EE088E10FB6F89423
:1027F000A895809360000FBE909360000E946C08C3
:10280000FFCF04FD08C014FF2DC621968FAD219780
:10281000893609F0C1C2AFB6F8940F7EBE01625886
:102820007F4F3E014AEF640E711CEFE5CE2ED12C96
:10283000CC0EDD1E5EE1C50ED11CCE0185529F4F30
:102840009E0124543F4FAE0143565F4FFE01E15AB3
:10285000FF4FA0E89A2E1192DB011D92BD01DA0113
:102860001D92AD01D9011D929D01DC019D92CD010A
:10287000D3011D923D01CE16DF0669F7C05CDE4F25
:102880003881C054D1403C39C0F5CB5ADE4FA881C5
:10289000B981C555D140FC9281E0C95ADE4FE8812B
:1028A000F981C755D14080830E945006C75ADE4F38
:1028B000A881B981C955D1408C93222011F08AE6B4
:1028C00001C08EE6C55ADE4FE881F981CB55D14073
:1028D0008083C35ADE4FA881B981CD55D1405C9227
:1028E000EAEFF0E0EC0FFD1FC85BDE4F2881398175
:1028F000C854D140E20FF31F1082AFBECE5BDE4F53
:102900003881C254D140C95BDE4F1882C754D140D0
:10291000311112C080913A0290E0CD5ADE4F4881C9
:102920005981C355D1404817590734F0CE5BDE4F6B
:102930001882C254D1400DC014FD36C280913A02B3
:102940008E3708F031C231E0CE5BDE4F3883C2549F
:10295000D14012FF27C0DFB6F8941B7F2220F9F088
:10296000CBA08FEF8C0D8031D0F40E94510320E179
:1029700080E090E0880F991FC21201C08160215051
:10298000C9F70E947D0889E999E60197F1F700C02F
:1029900080E090E00E947D080E9456035E9A0E94AB
:1029A0009E09DFBE0E94B10880FB15F915FF6CC1BE
:1029B000DFB6F8941F7D5D9AC85CDE4F1882C8535D
:1029C000D1400E94CB08CE01885C9E4F0E94FC083B
:1029D000C82E682F8FE09DE10E946B043C012C2DD6
:1029E0002F3108F02EE1DE0191964D01882DC65C55
:1029F000DE4FF881CA53D1408F1B8217C0F4CE013D
:102A0000885C9E4FC15ADE4F2883CF55D1400E942B
:102A1000FC08F40181934F01682FC3010E946B04ED
:102A20003C01C15ADE4F2881CF55D140DFCFFE0196
:102A3000E20FF11D11A260947094CE01885C9E4F4C
:102A40000E94FC08682FC3010E946B044C01CE0158
:102A5000885C9E4F0E94FC08682FC4010E946B0492
:102A60004C010E94CB0800C00E942B09892869F400
:102A700031E020E0C85CDE4F8881C853D14081112D
:102A800001C030E0832F922F02C081E090E05D987A
:102A9000892B19F085E689A3F4C089A18936D9F17B
:102AA00040F4833609F4C8C0863609F0E8C08CA12A
:102AB00008C0803709F471C0843709F0E0C08DA1E7
:102AC0001AC0815031F0A0E4B9E81197F1F7000085
:102AD000F8CF222009F4D3C08AA18F11D0C0C05CE6
:102AE000DE4F3881C054D1403C3908F0C8C012FDD7
:102AF000C6C01460C4C0815029F0A3E5B1E91197A4
:102B0000F1F7F9CFCF5BDE4F8881C154D1400E94ED
:102B1000ED05582EB4C08CA1815031F0E0E4F9E805
:102B20003197F1F70000F8CF80E721968FAF21971A
:102B300022963FAE22972396FFAE2397C05CDE4FCE
:102B40003881C054D1403C3918F40E94500601C06D
:102B500082E324968FAF2497C05CDE4F3881C05447
:102B6000D1403C3908F4E22C2596EFAE2597269605
:102B70005FAE26970E942A0810923A0280916F0059
:102B8000816080936F000E94370810610061CE5B06
:102B9000DE4F1882C254D14072C08FA1815039F0EB
:102BA000A8E7B1EA1197F1F700C00000F7CF8AA1BA
:102BB000853479F0882369F0831559F0815090E0CD
:102BC000EFE5F0E0EC0FFD1FE80FF91F2081222355
:102BD00061F0C95BDE4F3881C754D1403F5FC95BAC
:102BE000DE4F3883C754D1404AC02BA120832CA18B
:102BF000EDE9F0E0EC0FFD1FE80FF91F20832DA198
:102C0000222311F02AE601C02EE6ECEBF0E0EC0FF7
:102C1000FD1FE80FF91F2083EBEDF0E0EC0FFD1F27
:102C2000E80FF91F2EA12083EAEFF0E0EC0FFD1F63
:102C3000E80FF91F108223C08EA1815039F0A5E65C
:102C4000B9E91197F1F700C00000F7CF211017C0C4
:102C50008AA1831114C08BA18F1111C08CA16DA109
:102C60009FEF980F9E3158F49FEF960F9E3138F4E6
:102C7000831102C06F1519F00E9479040860106872
:102C800002600E949E09DFBEC05CDE4F3881C054E6
:102C9000D1403C3910F40C94D60D17FDD7C080916B
:102CA0003E028C3F60F480913D028C3F40F4809165
:102CB0003B0290913C02823F924008F4C7C0EFB6BD
:102CC000F89480913E028C3F28F480913D028C3F25
:102CD00000F110C010923E0261E081E00E94FC030E
:102CE00054E1D52E87E092E00E944C04DA94D11092
:102CF000F9CFEBCF10923D0261E082E00E94FC032D
:102D000044E1D42E87E092E00E944C04DA94D11082
:102D1000F9CF80913B0290913C02823F9240A8F013
:102D200010923C0210923B0261E083E00E94FC039F
:102D300034E1D32E86E092E00E944C04DA94D11064
:102D4000F9CF4424439423E0B22EEFBE7FC086EA3D
:102D500090E017CAC75CDE4F6881C953D1400E941A
:102D60007904C75CDE4F6881C953D140C85CDE4F2F
:102D70008881C853D1400E94BF04882319F089EF8D
:102D800090E002C087ED90E00E94EC0686EC90E0B7
:102D90000E94EC060860F7C9CE5BDE4F3881C25452
:102DA000D140332309F4B6CDDFB6F8941F7E2196C7
:102DB0008FAD21978356823150F490E0FC01EE5E96
:102DC000FE4FA080FC01E050FF4FC08002C0C12C2C
:102DD000A12C8A2C912CE0E4F0E0EC0FFD1FE80D13
:102DE000F91DC082E1E4F0E0EC0FFD1FE80DF91DD4
:102DF0001082A39480E490E08C0F9D1F880E991E92
:102E0000CC2079F05F9A6A2DCE01805C9F4F0E94A2
:102E10003209D4018C9181508C930E945B03CA9437
:102E2000EFCF80913A028D3748F40E9431080E941A
:102E30002A0880916F008E7F80936F0010923A0273
:102E40000E949E0910680160DFBE7DCD17FD02C0A3
:102E50000C94D60DAFB6F8941F7700FFCBC161E09C
:102E600081E00E94FC038CEE91E00E944C042196CC
:102E70008FAD2197893609F48DC030F4833609F47B
:102E80005DC1863641F0B2C1803709F4A0C08437F5
:102E900009F416C1ABC122968FAD229781508E31B5
:102EA00008F04AC123968FAD23978150803108F0F6
:102EB00043C161E080E00E941B0480EF91E00E942A
:102EC0004C0422966FAD229770E080E090E022E003
:102ED000AE01475E5E4F0E943B1ACE01875E9E4F59
:102EE0000E944C0483EF91E00E944C0423966FAD46
:102EF000239770E080E090E022E0AE01475E5E4FF5
:102F00000E943B1ACE01875E9E4F0E944C0481E0D6
:102F100092E00E944C0402FD0FC1CB5BDE4F688142
:102F2000C554D140CA5BDE4F8881C654D1400E944F
:102F3000FC0387E092E00E944C04642D8B2D0E94DC
:102F4000FC038AEC91E00E944C0422966FAD22971C
:102F500070E080E090E022E0AE01475E5E4F0E94AC
:102F60003B1ACE01875E9E4F0E944C0461E080E0D8
:102F70000E941B0423966FAD239770E080E090E0E1
:102F800022E0AE01475E5E4F0E943B1ACE01875E93
:102F90009E4FB2C087EF91E00E944C0402FDCCC06E
:102FA000CB5BDE4F6881C554D140CA5BDE4F888160
:102FB000C654D1400E94FC0387E092E00E944C047A
:102FC000642D8B2D0E94FC0389E092E095C08DE278
:102FD00092E00E944C0422966FAD229770E080E050
:102FE00090E022E0AE01475E5E4F0E943B1ACE01A8
:102FF000875E9E4F0E944C0481EF91E00E944C043A
:1030000023966FAD239770E080E090E022E0AE0160
:10301000475E5E4F0E943B1ACE01875E9E4F0E9424
:103020004C0487E092E00E944C0424968FAD2497D4
:10303000843620F487E092E00E944C0424968FAD01
:1030400024979AE0E92E6E2D0E94AC1A682F70E04A
:1030500080E090E021E0AE01475E5E4F0E943B1AA7
:10306000CE01875E9E4F0E944C0480E192E00E9458
:103070004C0424968FAD24976E2D0E94AC1A692FB4
:1030800070E080E090E021E0AE01475E5E4F0E947C
:103090003B1ACE01875E9E4F0E944C0487E092E06F
:1030A0000E944C0425968FAD2597882311F08AE65F
:1030B00001C08EE661E00E941B0484E092E094C0AF
:1030C00082E192E00E944C0402FD36C0CB5BDE4FF1
:1030D0006881C554D140CA5BDE4F8881C654D14057
:1030E0000E94FC0387E092E00E944C04642D8B2D2B
:1030F0000E94FC0384E292E00E944C0497E0940D4D
:10310000963120F081E08B0D91E001C08B2D853050
:1031100008F083E021E030E030933C0220933B0252
:10312000CB5BDE4F4882C554D140492ECA5BDE4F8F
:10313000B882C654D140B82E0B7F58C08DE292E0C1
:103140000E944C0422966FAD229770E080E090E0E0
:1031500022E0AE01475E5E4F0E943B1ACE01875EC1
:103160009E4F0E944C0480EF91E00E944C042396F5
:103170006FAD239770E080E090E022E0AE01475E03
:103180005E4F0E943B1ACE01875E9E4F0E944C0408
:103190008BE292E00E944C0424966FAD249770E07D
:1031A00080E090E022E0AE01475E5E4F0E943B1A55
:1031B000CE01875E9E4F0E944C0480EF91E00E94FA
:1031C0004C0425966FAD259770E080E090E022E0FA
:1031D000AE01475E5E4F0E943B1ACE01875E9E4F56
:1031E0000E944C0487E092E00E944C040E7F81E034
:1031F00080933E0201FF33C161E082E00E94FC0344
:103200008FE292E00E944C0489A1893609F449C0FA
:1032100030F4833609F4B5C0863651F01CC18037CE
:1032200009F442C0843709F016C182E192E011C16D
:10323000DAA08FEF8D0D8E3108F00DC1EBA08FEF6E
:103240008E0D803108F007C161E080E00E941B0410
:1032500080EF91E00E944C046D2D70E080E090E0E2
:1032600022E0AE01475E5E4F0E943B1ACE01875EB0
:103270009E4F0E944C0483EF91E00E944C046E2DFF
:1032800070E080E090E022E0AE01475E5E4F0E9479
:103290003B1ACE01875E9E4F0E944C0480E092E074
:1032A000D8C087EF91E0D5C08DE292E00E944C0437
:1032B0006AA170E080E090E022E0AE01475E5E4FE0
:1032C0000E943B1ACE01875E9E4F0E944C0481EF04
:1032D00091E00E944C046BA170E080E090E022E05D
:1032E000AE01475E5E4F0E943B1ACE01875E9E4F45
:1032F0000E944C0487E092E00E944C04ECA083E61C
:103300008E1520F087E092E00E944C048E2D6AE03A
:103310000E94AC1AE92E682F70E080E090E021E076
:10332000AE01475E5E4F0E943B1ACE01875E9E4F04
:103330000E944C0480E192E00E944C046E2D70E0EB
:1033400080E090E021E0AE01475E5E4F0E943B1AB4
:10335000CE01875E9E4F0E944C0487E092E00E945F
:103360004C048DA1882311F08AE601C08EE661E04D
:103370000E941B0483E392E00E944C0486E392E0E7
:1033800068C09AA0992009F466C0DBA0DD2009F48A
:1033900062C0ECA0EE2009F45EC0CDA0CC2009F400
:1033A0005AC09EE1991508F456C09D1508F453C003
:1033B0009E1508F450C08DE292E00E944C04692DE5
:1033C00070E080E090E022E0AE01475E5E4F0E9438
:1033D0003B1ACE01875E9E4F0E944C0480EF91E025
:1033E0000E944C046D2D70E080E090E022E0AE0180
:1033F000475E5E4F0E943B1ACE01875E9E4F0E9441
:103400004C048BE292E00E944C046E2D70E080E050
:1034100090E022E0AE01475E5E4F0E943B1ACE0173
:10342000875E9E4F0E944C0480EF91E00E944C0406
:103430006C2D70E080E090E022E0AE01475E5E4FD0
:103440000E943B1ACE01875E9E4F0E944C0487E08B
:1034500092E00E944C040D7F81E080933D02AFBE5C
:103460000C94D60DCE5BDE4F3881C254D14033234D
:1034700009F450CA63CA4F925F926F927F929F92F3
:10348000AF92BF92CF92DF92EF92FF920F931F9372
:10349000CF93DF936B017C018A01B22E97FF0DC0A1
:1034A0008DE2FA018083F094E094D094C094C11C22
:1034B000D11CE11CF11CD1E001C0D0E0B11002C070
:1034C000BB24B394A7019601C1E09AE0492E512C88
:1034D000612C712CCA01B901A30192010E94B81A92
:1034E000211531054105510511F0CF5FF3CFCB1503
:1034F00008F4CB2D9D2E9C0E8AE0482E512C612C79
:10350000712CD91599F05801A90CB11CF1E0AF1A32
:10351000B108C701B601A30192010E94B81A605D0B
:10352000F501608369017A019A94EBCF0C0F111DAC
:10353000F801ED0FF11D1082DF91CF911F910F91D6
:10354000FF90EF90DF90CF90BF90AF909F907F90D3
:103550006F905F904F900895991B79E004C0991F78
:10356000961708F0961B881F7A95C9F780950895DD
:10357000052E97FB1EF400940E94CF1A57FD07D02A
:103580000E940E1B07FC03D04EF40C94CF1A5095EA
:103590004095309521953F4F4F4F5F4F089590953F
:1035A0008095709561957F4F8F4F9F4F08952F9213
:1035B0003F924F925F926F927F928F929F92AF92C3
:1035C000BF92CF92DF92EF92FF920F931F93CF9310
:1035D000DF93CDB7DEB7CA1BDB0B0FB6F894DEBFA7
:1035E0000FBECDBF09942A88398848885F846E84CD
:1035F0007D848C849B84AA84B984C884DF80EE8017
:10360000FD800C811B81AA81B981CE0FD11D0FB61F
:10361000F894DEBF0FBECDBFED010895A1E21A2ED2
:10362000AA1BBB1BFD010DC0AA1FBB1FEE1FFF1F66
:10363000A217B307E407F50720F0A21BB30BE40BB6
:10364000F50B661F771F881F991F1A9469F76095FD
:103650007095809590959B01AC01BD01CF010895B7
:04366000F894FFCF0C
:103664000300000500000300000000000002000049
:103674000002050000030000030000000000000633
:10368400000000042020456C204675657261646F5B
:10369400726F2020005555555555555555555500B3
:1036A4005AFC6E64626F78005472616E736D697453
:1036B40074657200636F6E660072656D6F74650089
:1036C400636C6561726C6973740073656E64006623
:1036D400697265006964656E740074656D70006F6D
:1036E400726465727300636C73006B696C6C006860
:1036F400770068617264776172650072666D000AB2
:103704000D4B6F6D6D616E646F202831362D4269EB
:10371400742D4865782D466F726D6174293A203096
:103724007800202D2D3E203A203078000A0A0D0022
:10373400696E743100696E74300052657365747417
:10374400696E6720646576696365210054783A0080
:10375400205300204348004964656E7469667920EB
:10376400202020202020202000784944454E540069
:103774002E0054656D706572617475726520202029
:10378400202020007854454D5020002D3E550052F5
:0A379400783A00202D002D2D0000D2
:00000001FF
