:1000000059C4000073C4000071C400006FC4000034
:100010000C94190B6BC4000069C4000067C4000095
:1000200065C4000063C4000061C400000C94700B40
:100030005DC400005BC4000059C4000057C4000048
:100040000C942A0B53C4000051C400004FC400009C
:100050004DC400004BC4000049C4000047C4000068
:1000600045C4000043C400000A0D001B5B3144205E
:100070001B5B3144000D0A000D0A417573776168FE
:100080006C3A202845292D416E7AC3BC6E64657296
:100090002C202846296C616D65722C20285429611A
:1000A0006C6F6E2C2041626272756368206D69749A
:1000B00020616E64657265722054617374653A20C4
:1000C00000452D414E5AC39C4E44455220283230A3
:1000D000206D732900464C414D4552202833353060
:1000E000206D73290054414C4F4E2028322E343558
:1000F000207329000D0A4465727A65697420656968
:100100006E67657374656C6C74657320416E7AC339
:10011000BC6E646D697474656C0D0A3D3D3D3D3D7A
:100120003D3D3D3D3D3D3D3D3D3D3D3D3D3D3D3DFF
:100130003D3D3D3D3D3D3D3D3D3D3D3D3D0D0A0A85
:10014000005665727363686CC3BC7373656C756EBF
:1001500067206E6963687420616B74697669657283
:100160007421000D0A4B65696E6520C3846E646559
:1001700072756E67656E2067657370656963686523
:100180007274210D0A0A000D0A4572666F6C67725F
:100190006569636820676573706569636865727413
:1001A0002C2044657669636520737461727465748C
:1001B000206E6575210D0A0A000D0A446965736594
:1001C0006E205363686CC3BC7373656C2073706579
:1001D00069636865726E20286A2F6E293F200020AF
:1001E000000D0A4162627275636820776567656E0B
:1001F00020756E7A756CC3A4737369676572204548
:10020000696E67616265210D0A4B65696E6520C381
:10021000846E646572756E67656E20676573706560
:10022000696368657274210D0A0A000D0A0A4E6539
:10023000756572205363686CC3BC7373656C3A2038
:10024000000A0D000D0A0A4E6575656E20285329B7
:1002500063686CC3BC7373656C2065696E676562A7
:10026000656E2C2041626272756368206D6974202E
:1002700062656C6965626967657220616E6465724A
:10028000657220546173746521200020000D0A53AB
:1002900063686CC3BC7373656C206C742E20454519
:1002A00050524F4D3A202020200020005665727396
:1002B00063686CC3BC7373656C756E6720616B7427
:1002C000697669657274210D0A5363686CC3BC73E7
:1002D00073656C206C742E2046756E6B6D6F647543
:1002E0006C3A20000A0D416B7475656C6C65204595
:1002F000696E7374656C6C756E673A20003D3D3DA8
:100300003D3D3D3D3D3D3D3D3D3D3D3D3D3D3D3D1D
:100310003D3D3D3D3D3D3D3D3D3D3D3D3D3D0A0D70
:10032000000A0D4B6F6E66696775726174696F6E56
:1003300020646572205665727363686CC3BC737306
:10034000656C756E670A0D000A0D44657669636514
:1003500020697374205472616E736D697474657270
:100360002C20494473206E6963687420C3A46E64B2
:100370006572626172210A0A0D000A0D4B65696E91
:100380006520C3846E646572756E6720766F7267D0
:10039000656E6F6D6D656E0A0A0D000A0D4E65750E
:1003A00073746172742E2E2E0A0A0D004665686CF5
:1003B0006572212042697474652065726E6575747A
:1003C0002076657273756368656E210A0D000A0AEE
:1003D0000DC3846E646572756E67206572666F6C9E
:1003E000677265696368210A0D001B5B33376D0016
:1003F0001B5B33316D002C20454E544552203D206F
:10040000616C7465722057657274293A200035302A
:10041000000A0D4E65756520536C6176652D494463
:10042000202830312D001B5B33376D001B5B3331CF
:100430006D002C20454E544552203D20616C746562
:10044000722057657274293A20003530004E657568
:100450006520556E697175652D4944202830312D10
:10046000000A0D000A0D00284929447320C3A46E18
:100470006465726E2C2041626272756368206D69DA
:10048000742062656C6965626967657220616E647B
:10049000657265722054617374652120000A0A0A2E
:1004A0000D001B5B33376D000A0D004645484C4577
:1004B00052001B5B33316D00416B7475656C6C656C
:1004C00020536C6176652D49443A2020001B5B3334
:1004D000376D000A0D004645484C4552001B5B3302
:1004E000316D000A0A0D416B7475656C6C652055A1
:1004F0006E697175652D49443A20000A0D416E6799
:10050000657363686C6F7373656E6573204465769D
:100510006963653A20001B5B33376D001B5B333723
:100520006D000A0D4665686C6572206265696D2014
:1005300049442D4C6164656E0A0D001B5B33316DBF
:10054000000A4B6F6E66696775726174696F6E73CE
:1005500070726F6772616D6D0A0D3D3D3D3D3D3DB1
:100560003D3D3D3D3D3D3D3D3D3D3D3D3D3D3D3DBB
:100570000A0D001B5B33336D0049442D57656368DA
:1005800073656C206D6974206A2062657374C3A4FE
:10059000746967656E2C2061626272656368656E5E
:1005A000206D697420616E64657265722054617398
:1005B00074652120000A0A0D004E65756520536C94
:1005C0006176652D49443A20202020202020000A11
:1005D0000D004E65756520556E697175652D494430
:1005E0003A202020202020000A0D000A0D00426938
:1005F0007368657269676520536C6176652D49443F
:100600003A2020000A0D00426973686572696765C7
:1006100020556E697175652D49443A20001B5B3386
:10062000376D000A0A52656D6F74652D4B6F6E66EB
:10063000696775726174696F6E7370726F677261EA
:100640006D6D0A0D3D3D3D3D3D3D3D3D3D3D3D3DDD
:100650003D3D3D3D3D3D3D3D3D3D3D3D3D3D3D3DCA
:100660003D0A0D001B5B33336D000A0D000A0D4679
:1006700065686C657268616674652F646F7070651B
:100680006C7465204944733A200009000A0D002D5E
:100690002D2D2D002D00200020002C20002C2000CE
:1006A0002D2D2D2D006E2E612E002C20002D002CC6
:1006B00020002E002D2D2D2D002C2000300020009C
:1006C0002D2D2D003A200030000A0D556E697175F0
:1006D000652D49443A20536C6176652D49442C20A0
:1006E00042617474657269657370616E6E756E6770
:1006F000202856292C205363686172663F2C2054B1
:10070000656D706572617475722028C2B043292CC2
:10071000204B616E616C7A61686C2C205253534996
:10072000202864426D290A0D001B5B33376D003DA4
:100730003D3D3D3D3D3D3D3D3D3D3D3D3D3D0A0D4C
:10074000000A0D53797374656DC3BC626572736979
:100750006368740A0D001B5B33336D000A0A0D00D9
:1007600009200920092009000A0D002D2D2D003A2D
:1007700020000A0D536C6176652D49443A20416E84
:100780007A61686C20426F78656E0A0D000A0A0D66
:1007900000C2B043006E2E612E0054656D7065720C
:1007A000617475723A2000556E67C3BC6C746967DA
:1007B000652045696E6761626500203D20000A0D75
:1007C0004B616E616C3A20200900536C6176652D97
:1007D00049443A09000D0A000A0D4D6F64757328EB
:1007E000662F692F74293A20000A0A0D000A0D4964
:1007F000442D4B6F6E66696775726174696F6E73B5
:1008000062656665686C20776972642067657365E8
:100810006E646574210A0D000A0D494473207765E2
:100820007264656E206C6F6B616C20616E676570C1
:1008300061737374210A0D000A0A0D0032313536D6
:100840000032303232303131320044617465636FCE
:10085000646520000A0D00484357000A0D52464DBA
:100860000061746D65676133323870000A0D000AEB
:100870000D000A0D00202D2D3E203A203078001B5F
:100880005B31440020001B5B3144001B5D303B4565
:100890004C204655455241444F524F07001B5B3395
:1008A0004A001B5B303B3048001B5B324A002D0086
:1008B0003000200011241FBECFEFD8E0DEBFCDBF37
:1008C00012E0A0E0B1E0E4E9FCE402C005900D9282
:1008D000A83DB107D9F722E0A8EDB2E001C01D9212
:1008E000AA3EB207E1F767D70C94362689CB8091F0
:1008F0007C00887F80937C0080917C008560809361
:100900007C0080917C002BE087FF2AE080E090E073
:10091000DC0130917A00306430937A0030917A00B3
:1009200036FDFCCF4091780050917900840F951FDF
:10093000A11DB11D215069F78096A11DB11D26E0B2
:10094000B695A795979587952A95D1F708954F92D3
:100950005F926F927F92AF92BF92CF92DF92EF92AF
:10096000FF920F931F93CF93DF9300D000D000D05E
:10097000CDB7DEB75B01082F9D837A012E83698393
:10098000BA828B839C8311E09AE0492E512C612C12
:10099000712C69817A818B819C81A30192010E94D3
:1009A000C42529833A834B835C83232B242B252B5B
:1009B000D1F58E818983811708F4198319818AE022
:1009C000482E512C612C712C6701C10ED11C91E075
:1009D000C91AD108B501802F9D81A30192010E94FF
:1009E000C425605DD6016C935901042F5D831150BD
:1009F00059F7F701B981EB0FF11D108226960FB65A
:100A0000F894DEBF0FBECDBFDF91CF911F910F9144
:100A1000FF90EF90DF90CF90BF90AF907F906F905E
:100A20005F904F9008951F5FB4CF9FEB980F9A315E
:100A300030F0843C21F0863D11F08C3D09F4806259
:100A40000895FC01DB018C919081811104C081E04B
:100A5000911105C00895319611968917A1F380E090
:100A6000F9CF982F40E050E066E970E0415051091D
:100A700061097109A9F029B1822F887023FDF6CF91
:100A800040E050E066E970E04150510961097109A8
:100A900021F02091C00025FFF7CF9093C600089564
:100AA00081E00895CF93DF93EC01FE0184912196BC
:100AB000882319F0D6DF8823C1F3DF91CF91089501
:100AC0008F929F92AF92BF92EF92FF920F931F93DC
:100AD000CF93DF93CDB7DEB7A1970FB6F894DEBF03
:100AE0000FBECDBF1A821982FE0133962FE1DF01BE
:100AF0001D922A95E9F74836D9F510E011C0E1E0DA
:100B0000F0E0EC0FFD1FE10FF11D262F2F70208369
:100B100044E095958795779567954A95D1F71F5F3E
:100B2000611571058105910551F7112341F310FD00
:100B30001F5F111111C0A1960FB6F894DEBF0FBE52
:100B4000CDBFDF91CF911F910F91FF90EF90BF909C
:100B5000AF909F908F900895FE01E10FF11D80816D
:100B60008A3020F0895C7DDF1150E3CF805DFBCFC0
:100B7000611571058105910521F480EB98E092DF04
:100B8000DACF00E097FF08C0909580957095619549
:100B90007F4F8F4F9F4F01E010E03AE0832E912C62
:100BA000A12CB12C611571058105910511F011324F
:100BB00081F4002319F08EEA98E074DF112309F420
:100BC000BACFFE01E10FF11D8081805D4ADF115037
:100BD000F5CFEE24E394F12CEC0EFD1EE10EF11C9A
:100BE000A50194010E94C425F7016083B901CA01DF
:100BF0001F5FD8CFCF92DF92EF92FF92CF93DF9318
:100C0000CDB7DEB72A970FB6F894DEBF0FBECDBFC3
:100C100069837A838B839C83498789819A81AB819D
:100C2000BC818D839E83AF83B8871A868AE0C82EE5
:100C3000D12CE12CF12C8D819E81AF81B885892B3F
:100C40008A2B8B2B01F589819A81AB81BC81B7FFFF
:100C500003C0998591509987AA85B985BA1718F567
:100C600044E669817A818B819C812ADF2A960FB6BE
:100C7000F894DEBF0FBECDBFDF91CF91FF90EF9014
:100C8000DF90CF9008956D817E818F819885A70137
:100C900096010E94C4252D833E834F8358879A85F1
:100CA0009F5F9A87C8CF89859A85891B8D83BD816F
:100CB000BB23B1F282EB98E0F5DEAD81A150AD83AC
:100CC000F6CFCF93DF93EC0190E08881882311F079
:100CD000992319F0DF91CF9108952196C2DE982FC4
:100CE000F4CF80E090E0A6E9B0E00197A109B10956
:100CF00049F02091C00027FFF8CF5A9A8091C60092
:100D00005A98089580E00895CF93DF93EADFC82FC3
:100D10008A3029F4DFEF8D2FDF91CF9108958D3048
:100D2000C9F380ED8C0F863088F78C2F9ADE8AE02D
:100D3000C89FC02D1124C051D4DF8A3059F38D30A3
:100D400049F3D82FDC0F9FEF9D0F9233A8F789DE70
:100D5000E2CF89EA98E0A6DE82EA98E0A3DE8DE998
:100D600098E0A0DE8BE898E09DCECF92DF92EF92E4
:100D7000FF920F931F93462F572FBC014098439823
:100D8000429880E100E010E820E030E098E06A015D
:100D90007B01C022D122E222F322CD28CE28CF2807
:100DA00009F0409A96B996B94098369527951795C7
:100DB0000795815061F784E086B986B91F910F913C
:100DC000FF90EF90DF90CF9008958EBD0DB407FE99
:100DD000FDCF8EB50895CF932A9887E2F6DF80E0A5
:100DE000F4DFC82F80E0F1DF2A9A9C2FCF9108957D
:100DF000CF93C82F892F662361F080682D982B9898
:100E00002A98E3DF8C2FE1DF2A9A2B982D98CF9137
:100E100008958F77CFEFF2CFCF92DF92EF92FF92CC
:100E200061E084E091E0E4DFC12CD12C8BE4E82E7A
:100E3000F12C81E0C81AD108E108F10831F060E036
:100E40008FEF97E2D5DF87FFF4CF81E0CD28CE2862
:100E5000CF2809F080E0FF90EF90DF90CF900895C9
:100E60005D9A5F9A5E9A289A08955D985F985E9859
:100E7000289808955D9A08955F9A08955E98089558
:100E80005E9A0895289A0895439842984198409808
:100E90000895CF93DF93339932C0D0E0329931C0B7
:100EA00080E0D82B31992FC080E0D82B30992DC00D
:100EB00080E0D82B439A429A419A409A3B983A98BC
:100EC000399838985C98459A20E137E2C0E821507B
:100ED000310911F0C7FD1BC045983B9A3A9A399ADF
:100EE000389AD2DFD4FD439AD5FD429AD6FD419A75
:100EF000D7FD409A8C2F8F77DF91CF910895D0E165
:100F0000CDCF80E2CECF80E4D0CF80E8D2CF449A5C
:100F100000000000339926C060E0329925C050E0FF
:100F2000319924C040E0309923C090E044980000FB
:100F30000000449A0000000086B183FBCC27C0F972
:100F4000C62BC52BC42BC92B329914C080E0C82BEB
:100F5000319912C080E0C82B309910C080E0C82BB6
:100F60004498B5CF60E1D9CF50E2DACF40E4DBCF8F
:100F700090E8DCCF82E0EBCF84E0EDCF88E0EFCFEC
:100F8000449A00C000C044980895CF93C82F7CDFD6
:100F9000C4FD439AC5FD429AC6FD419AC7FD409AD9
:100FA000EFDF72DFC0FD439AC1FD429AC2FD419A54
:100FB000C3FD409AE5DFCF910895982F862F953095
:100FC00008F091E0853108F081E0492F4150550B40
:100FD0009A013595279545985C9890959295990F2B
:100FE000990F9074915854E1259F900D1124890F09
:100FF000CCDF4FCFCF93C62F459861111EC05C98B0
:10100000C4DF47DFCC2341F044DF843581F030F486
:10101000843149F0803471F0CF9108958836E1F73A
:1010200061E081E002C061E082E0C7DFF5CF61E00E
:1010300083E0FBCF61E084E0F8CF5C9AE1CFCF930F
:10104000DF93EC018881811103C0DF91CF91089576
:10105000219661E0CFDFF6CF45985C9A96DF19CFF5
:101060009B01F999FECF32BD21BD80BDFA9AF99A54
:1010700012BC11BC08959C01F999FECF32BD21BD6F
:10108000F89A80B512BC11BC0895862798E02CE828
:10109000382F31708695311182279150C9F7089504
:1010A000B0E0A0E0E6E5F8E00C94F925082F162F53
:1010B000B82EB60E682F80E1E8DFE82E612F80E1C0
:1010C000E4DFC82E612F8E2DE0DFD82E88E1F82EC8
:1010D000CF2DD0E0BE01802FC3DFBE016F5F7F4FF9
:1010E000812FBEDFBE016E5F7F4F8B2DB9DFBE014A
:1010F0006D5F7F4F8E2DB4DFBE016C5F7F4F8C2DF7
:10110000AFDFBE016B5F7F4F8D2DAADF84E2F80E4B
:1011100084E8F812DDCFCDB7DEB7E9E00C941526F0
:10112000B0E0A0E0E6E9F8E00C94F725D82FC62F50
:1011300088E1F82E9D2E960E0F2D10E0C8019BDF42
:10114000A82EC801019697DFB82EC801029693DF3A
:10115000C82EC80103968FDFE82EC80104968BDFE6
:10116000D82EC801059687DF182FAD1213C0BC1208
:1011700011C0C9100FC06D2F80E187DFE8120AC0CF
:101180006C2F80E182DFD81205C06C2F8E2D7DDFA1
:10119000181759F084E2F80E84E8F812CDCF80E0F9
:1011A000CDB7DEB7EBE00C94132681E0F9CFB0E0C9
:1011B000A0E0EDEDF8E00C94F7257C016B0100E078
:1011C00084E2982E099D50011124C501489653DFF1
:1011D000C82FC50149964FDFD82F682F8C2FA0DF6D
:1011E000182F882391F188E190E045DF182F8CE3D8
:1011F00090E041DF1817F1F088E190E03CDF182F14
:1012000080E690E038DF181315C089E190E033DF05
:10121000182F8DE390E02FDF18130CC089E190E0C8
:101220002ADF182F81E690E026DF181303C06D2F08
:101230008C2F36DFF701C083F601D08311E0812FB8
:10124000CDB7DEB7EBE00C941326023061F46D2FBE
:101250008C2F66DF811107C085E4F701808385E666
:10126000F6018083ECCF0F5F033009F0ABCFE7CFFF
:10127000419A389A399A3A9A3B9A409842984398B8
:1012800093E028E034E084E126B926B98150E1F703
:1012900036B936B99150B9F789E999E00197F1F774
:1012A00000C04198089580B7806880BF80917C001D
:1012B000856480937C0080917A00866080937A00B8
:1012C00080917A00806880937A0080917A008064AF
:1012D00080937A0080917A0086FDFCCF809178001F
:1012E000909179002FEF8FE797E021508040904058
:1012F000E1F700C0000028E090E080E030917A0043
:10130000306430937A0030917A0036FDFCCF409102
:10131000780050917900840F951F215079F780381B
:101320009C40D8F480917C00806880937C008FEF93
:101330009FE727E0815090402040E1F700C0000087
:1013400080917A00806480937A0080917A0086FD93
:10135000FCCF80917800909179000895219A9AE0CD
:101360009A95F1F78111219894E29A95F1F700008E
:10137000199B80E097E99A95F1F7219896E09A9564
:10138000F1F700C00895CF93DF93C82FD8E08C2FDA
:101390008170E4DFC6958111C068D150C1F78C2FF0
:1013A000DF91CF9108952998219A8CEC94E00197D0
:1013B000F1F700C00000219898ED9A95F1F7000030
:1013C00083B1EAE2F4E03197F1F700C086958170CD
:1013D0000895CF92DF92EF92FF921F93CF93DF9306
:1013E000CDB7DEB7A9970FB6F894DEBF0FBECDBF5D
:1013F0007C01162F11DD61E080E198E2F9DC1983B0
:1014000080E0282F30E0E2E0F0E0EC0FFD1FE20F7B
:10141000F31F2E0D3F1DD9019C9190838F5F811783
:1014200080F3E2E0F0E0EC0FFD1FE10FF11D108210
:101430002A988981893210F088E2898380E8C5DCA6
:10144000F9808F2DC2DC11E0F11608F044C02A9A11
:1014500061E08FE093E1CCDC61E08DE59AE5C8DCEA
:1014600061E08CE79CE5C4DC61E08CE091E0C0DCED
:10147000C12CD12C9BE4E92EF12CB1E0CB1AD10880
:10148000E108F10891F510E08BEC92E1A0E0B0E00A
:101490006C017D0121E0C21AD108E108F108892B15
:1014A0008A2B8B2B91F1112339F1B6DC812F8170BE
:1014B000CD28CE28CF2809F481E0A9960FB6F8945C
:1014C000DEBF0FBECDBFDF91CF911F91FF90EF9098
:1014D000DF90CF900895E1E0F0E0EC0FFD1FE10F09
:1014E000F11D808172DC1F5FAFCF60E08FEF97E26C
:1014F0007FDC87FFC2CFC7CF60E080E098E278DC76
:10150000182F1970D701C601C3CFCC24CA94DC2C84
:101510007601CBCFCF92DF92EF92FF9261E08BE129
:1015200093E166DC61E085E59AE562DC61E080E7F5
:101530009CE55EDC60E08FEF9DE35ADC90E061E0CB
:1015400084609D6355DC61E080E191E051DCC12C59
:10155000D12C8BE4E82EF12C81E0C81AD108E108E7
:10156000F10831F060E08FEF97E242DC87FFF4CFC3
:1015700081E0CD28CE28CF2809F080E0FF90EF90C1
:10158000DF90CF900895CF92DF92EF92FF92CF93AA
:10159000DF93882309F44BC006DF8CECF4DE8EE485
:1015A000F2DE8DE7F0DE88EDEEDE8FE1ECDEFBDED5
:1015B0008CECE9DE84E4E7DEC12C5CE2D52EEE247F
:1015C000E394F12C81E0C81AD108E108F10821F078
:1015D00081E0C4DE8823B1F3E6DE8CECD4DE8EEB52
:1015E000D2DE8FEFD0DEC82FD0E08FEFCCDE90E0E0
:1015F000982F88278C0F9D1F9C012227387F232B33
:10160000A1F09195819591092FEF089634E0969578
:1016100087953A95E1F7829F802D1124DF91CF9134
:10162000FF90EF90DF90CF90089521E0EECF80E81B
:10163000F5CF1F921FB61F9211248F938091E9025C
:10164000811103C081E08093E9028F911F901FBE3A
:101650001F9018951F921FB61F9211242F938F93DE
:101660009F938091E802882329F08091E8028F5FA0
:101670008093E8028091E702882329F08091E702B5
:101680008F5F8093E7028091E5029091E602892BBB
:1016900049F08091E5029091E60201969093E6026E
:1016A0008093E5028091E8028E3F10F01092E802EC
:1016B0008091E7028E3F10F01092E7028091E502E0
:1016C0009091E6028131974220F01092E60210924A
:1016D000E5029F918F912F911F901FBE1F9018952B
:1016E0001F921FB61F9211248F939F93AF93BF93A6
:1016F0008091E4028F5F8D3778F58093E4028091CA
:10170000DF0281FF09C08091DD029091DE02019627
:101710009093DE028093DD028091D9029091DA02EB
:10172000A091DB02B091DC02892B8A2B8B2B19F064
:1017300081E08093D8028091E902882329F080918A
:10174000DF0284608093DF02BF91AF919F918F9100
:101750001F901FBE1F9018951092E4028091E30223
:101760008111CDCF8091E1029091E202039748F080
:101770008091E1029091E2024597A8F482E0809383
:10178000E3028091E1029091E202892B89F4809139
:10179000E0028F5F8093E002893038F41092E20219
:1017A0001092E102ACCF84E0EACF8FEF8093E302A6
:1017B0001092E002F3CFCDB7DEB7CB5ED2400FB6CA
:1017C000F894DEBF0FBECDBF0FB6F894A8958091F8
:1017D0006000886180936000109260000FBE5C988A
:1017E000549A6E012AE9C21A2EEFD20A80E4D60179
:1017F0001D928A95E9F710E000E0312CFE01E752D6
:10180000FE4F1192119288E2DF011D928A95E9F74D
:10181000FE01E45DFD4F1192119287E2DF01282F56
:101820001D922A95E9F7FE01EB5AFD4F1192119294
:10183000DF01282F1D922A95E9F7FE01EA55FE4F98
:101840001192119291E3DF011D929A95E9F7FE0141
:10185000E258FD4F11921192DF011D928A95E9F72E
:10186000FE01E955FD4F119211928EE0DF011D92AC
:101870008A95E9F7FDDC80916400806C80936400B8
:1018800080B7806880BF8FEF9FE29093890080933C
:1018900088008091810088608093810080916F0032
:1018A000826080936F0080918100826080938100CC
:1018B0002898209AE3DA569A5F98579A5D98559A35
:1018C000F2DC15D8CC53DD4F8883C45CD24082E370
:1018D000CD5FDD4F8883C350D2408983BE016D5FE9
:1018E0007D4FCE01019663DC811101C0B9DACD5F75
:1018F000DD4FF880C350D2409980CC53DD4FB88182
:10190000C45CD240BC3908F0A7C3992009F490C345
:10191000FF2009F491C38DE691E0ADDBC753DD4FA5
:101920008883C95CD240853F71F0833261F0823098
:1019300051F06DE671E082E093DBE2E0C753DD4FEA
:10194000E883C95CD24020E031E0822F90E0E9EDED
:10195000F1E0EC0FFD1FE80FF91F3083E5E5F2E041
:10196000EC0FFD1FE80FF91F10824CE252E04C0F04
:101970005D1F840F951FDC011C922F5F283229F711
:1019800080E027E090E8E1E0F0E0EC0FFD1F289F09
:10199000E00DF11D11241082118212829383958330
:1019A00016828F5F823379F740E1E42E80E090E881
:1019B000A0E0B0E02E2D2150330BF901EE0FFF1FF8
:1019C000EE0FFF1FEC0DFD1D80839183A283B38377
:1019D000B695A79597958795EA94E110EBCFCC53F0
:1019E000DD4F3881C45CD2403C3908F447C31092C3
:1019F000E7021092E8021092E6021092E502449883
:101A00003C98809168008D7F8093680080916C0085
:101A10008F7E80936C0010927C0010927A0010925E
:101A2000E90223DA449845985C982EDA3C9A3D9A6C
:101A3000549A3B9A3A9A399A389A4FEF5FEF65E099
:101A4000415050406040E1F700C000C0429A439AC4
:101A500097DA8FEF9FE50197F1F700C0000090DA69
:101A6000AFEFBFE51197F1F700C0000089DAEFEFA3
:101A7000FFE53197F1F700C0000006DA429A80DAFC
:101A800008DA60E088E2B6DA60E08CE0B3DA60E0C1
:101A900086E0B0DA60E081E0ADDA60E080E4AADA06
:101AA00084E0DADA84E0D8DA8AE0D6DA8AE0D4DAD6
:101AB00085E1D2DA81E1D0DA8AE0CEDA84E0CCDAEC
:101AC00082E0CADA85E0C8DA82E0C6DA80E0C4DA09
:101AD00080E0C2DA80E0C0DA80E0BEDA80E0BCDA22
:101AE00060E080E887DA61E082E067DA61E080E068
:101AF00081DA61E080E07EDA80E591E0A0DA61E001
:101B000080E078DA61E080E075DA60E082E072DA45
:101B100085B5856085BD80916E00816080936E0083
:101B20008FB7F8945B9A5398529A1092C5009FE32E
:101B30009093C40098E19093C10096E09093C20006
:101B4000589A8FBF5A9885E0D82ECC24C3942BDCAA
:101B500093B1969591709C25980FE90EDA94D11067
:101B6000F6CFEE2009F4A0C22198299AC252DD4F87
:101B70001882CE5DD240C252DD4F8881CE5DD24008
:101B800002DDC253DD4F8883CE5CD2402A9A2C9A64
:101B90002498239A259A229A0CB406FC03C08CB58B
:101BA00081658CBD60E08FEF90E122D9CD51DD4F92
:101BB0008883C35ED240B3E08B2E86E696E201971F
:101BC000F1F7000061E082E092E012D9A0E8AA2ECD
:101BD000B12CC12CD12C78E1472E512C612C712CC9
:101BE000A3019201C601B5010E9487259B01AC01AA
:101BF00062E0220F331F441F551F6A95D1F760E042
:101C000078E488EE91E00E94A22522343047410515
:101C1000510508F450C2E12CA114B104C104D1044F
:101C200009F065C2E0E14E1A51086108710822E02E
:101C300076946794579447942A95D1F7440C440CB2
:101C4000440CE42830E8A32EB12CC12CD12CB8E1EF
:101C50004B2E512C612C712CA3019201C601B501B0
:101C60000E9487259B01AC01A2E0220F331F441F75
:101C7000551FAA95D1F760E078E488EE91E00E94C4
:101C8000A2252A30344B4105510508F436C280E0C4
:101C9000A114B104C104D10409F04BC270E1471A88
:101CA000510861087108E2E076946794579447946C
:101CB000EA95D1F7440C440C440C482A61E080E0DA
:101CC00095E096D861E08DE996E092D861E08DE0EC
:101CD00093E08ED861E08DE094E08AD88E2D90E07C
:101CE00061E08064996184D8842D90E061E0806433
:101CF0009A617ED861E080E495E27AD861E087EA73
:101D000096E276D861E089ED97E072D861E080E6EE
:101D100098E06ED861E080E099E06AD861E080E9FF
:101D200097E366D861E088E298E362D861E080E8F2
:101D30009CE35ED861E080E39DE35AD861E080E0F7
:101D40009CE256D861E084E09DE252D861E088E8E8
:101D50009EE24ED861E08DE29FE24AD861E084EDD8
:101D600090E346D861E080E098E142D861E08DE2FE
:101D700098E53ED861E080E39FE63AD861E08FECD9
:101D800099E236D861E08DE29EE132D861E080E0F0
:101D90009AE22ED89FE09150292F30E051F0F901BE
:101DA000EE0FFF1FE050FF4F408151814832510537
:101DB00090F361E0C90192611BD860E08FEF9DE272
:101DC00017D8E82E60E08FEF9EE212D8282F30E07F
:101DD00063E0359527956A95E1F7822F877025E1B5
:101DE0002E0D820F869590E061E09B6201D861E044
:101DF0008BE193E10E94F80661E08FE791E10E9498
:101E0000F8068A948110D9CE61E080E89AE00E94B9
:101E1000F806412C512C5BE4652E712C81E0481AA8
:101E200051086108710809F08AC174DB61E081EA38
:101E30009DE30E94F806E12CCE2CD12CC6018096A1
:101E40001AD99EE3C90ED11C61E09C2D0E94F806B0
:101E5000E394A0E1EA12F0CFCC53DD4FB881C45C2B
:101E6000D240BC3908F473C189E6CB5ADD4F888370
:101E7000C555D24084E6CA5ADD4F8883C655D24044
:101E800080E3C95ADD4F8883C755D24045E0D42E40
:101E90000E943C076AE081E691E09BDA5F98EFEFF1
:101EA000FFEF25E0E150F0402040E1F700C000C026
:101EB000DA94D110EDCF60E081E09CD880916E0083
:101EC000816080936E0010647894CC53DD4FF8816C
:101ED000C45CD240FC3908F042C22CE631E0CF515C
:101EE000DD4F39832883C15ED240892D90E09C016B
:101EF0002F5F3F4F4AE0429FB001439F700D112476
:101F0000C152DD4F79836883CF5DD2406A50710939
:101F1000CC51DD4F79836883C45ED240CA52DD4F15
:101F20001882C65DD240C352DD4F1882CD5DD240CB
:101F3000C552DD4F1882CB5DD240C454DD4F1882AC
:101F4000CC5BD240CE52DD4F188219821A821B829E
:101F5000C25DD240C653DD4F188219821A821B829D
:101F6000CA5CD24071E0C054DD4F7883C05CD2407F
:101F7000B3E0CB2EAFE0C153DD4FA883CF5CD2409E
:101F8000B4E0CB53DD4FB883C55CD24020E8222EAD
:101F9000EE24E394E1E0C452DD4FE883CC5DD2400F
:101FA00023E032E02C0F3D1F2E5F3F4FCA51DD4F23
:101FB00039832883C65ED24026EA31E02C0F3D1FCC
:101FC0002F0D311DA90141505109C851DD4F5983D1
:101FD0004883C85ED240019757E0589F9001599FAF
:101FE000300D112461E070E06C0F7D1F620F731FD4
:101FF000C053DD4F79836883C05DD2406F5F7F4FF0
:10200000C651DD4F79836883CA5ED2408091E90270
:10201000882309F4BCC1BFB6F8948091E9028130ED
:1020200009F4A6C1823009F41DC21092E902AEC1C2
:1020300062E3962EF11002C052E3F52E6F2D892D2A
:102040002FD888E19EE00FB6F894A89580936000A1
:102050000FBE90936000FFCF8F2D892909F45BCCD0
:1020600060E080E01DD888E19EE00FB6F894A89566
:10207000809360000FBE90936000FFCFF9D8449A20
:102080003C988091680082608093680080916C0029
:10209000806180936C005C98549A81E08093E9029F
:1020A00002D90E9435073CCDFFE6C252DD4FF883CE
:1020B000CE5DD24060CD94E0491A510861087108A4
:1020C000A0E14A1651046104710408F089CDF0E1E1
:1020D0004F2E512C612C712CA114B104C104D104D8
:1020E00009F47ECDD694C794B794A79474CDD694B2
:1020F000C794B794A794E3948FCDF4E04F1A510896
:102100006108710820E1421651046104710408F06D
:10211000A3CD90E1492E512C612C712CA114B10456
:10212000C104D10409F498CDD694C794B794A79468
:102130008ECDD694C794B794A7948F5FA9CD60E055
:1021400080E09AE00E94F80686FF68CE6ECE0E947C
:1021500035073FEF4FE754E0315040405040E1F742
:1021600000C000000E9442076FEF7FE784E06150EB
:1021700070408040E1F700C000000E943C079FEFE4
:10218000AFE7B4E09150A040B040E1F700C00000DC
:102190000E943A07EFEFFFE724E0E150F0402040D3
:1021A000E1F700C000000E9440073FEF4FE754E016
:1021B000315040405040E1F700C000000E94350718
:1021C0006FEF7FE787E0615070408040E1F700C02B
:1021D0000000EF2CE2943FE0E322F4FC0E9442076F
:1021E000E1FC0E943C07E2FC0E943A078E2D8870B9
:1021F00011F00E9440079FEFAFEFBBE39150A0406A
:10220000B040E1F700C000000E943507EFEFFFE7A4
:1022100027E0E150F0402040E1F700C000000E94BC
:1022200040073FEF4FE754E0315040405040E1F766
:1022300000C000000E943A076FEF7FE784E0615022
:1022400070408040E1F700C000000E943C079FEF13
:10225000AFE7B4E09150A040B040E1F700C000000B
:102260000E944207EFEFFFE724E0E150F0402040FA
:10227000E1F700C000000E9435073FEF4FE757E04D
:10228000315040405040E1F700C00000F0FC0E9497
:102290004207F1FC0E943C07F2FC0E943A07F3FC63
:1022A0000E9440076FEF7FEF8BE3615070408040EA
:1022B000E1F700C000000E9435079FEFAFEFB5E0E7
:1022C0009150A040B040E1F700C000C0DD24D3949D
:1022D000349B42C0D12C0E943E07006480E7CB5A59
:1022E000DD4F8883C555D240CA5ADD4F9882C65506
:1022F000D240C95ADD4FF882C755D2400E947704B8
:10230000C85ADD4F8883C855D240C75ADD4FD8829E
:10231000C955D240C253DD4FE881CE5CD240C65A87
:10232000DD4FE883CA55D24080E1C55ADD4F88832E
:10233000CB55D24080E8C45ADD4F8883CC55D2407B
:1023400060E080E099E20E94F8068695C35ADD4F6E
:102350008883CD55D240B7CD0E944007BECF45E718
:1023600051E0CF51DD4F59834883C15ED240BDCD8E
:1023700082E08093E902CA52DD4F1882C65DD240E6
:1023800071E0C452DD4F7883CC5DD240BFBECD51E9
:10239000DD4FB881C35ED240B43221F00E943C07C9
:1023A0000E943A078091C00087FB10F9E12FE1708D
:1023B0008E2E10FF9EC3FFB7C854DD4FF883C85B55
:1023C000D240F8941E7F0E9442070E947106C752B5
:1023D000DE4F8883C95DD1408F3709F43DC087FD4A
:1023E00089C028EF280F263038F491E001C0990FFA
:1023F0002A95EAF7957281F50E941505C752DE4FBE
:102400008883C95DD1400E943105A12C0E947106CC
:102410000E941505B82E2DE0821709F47FC23AE01C
:10242000831709F47BC248E0841719F05FE785132E
:1024300076C2A1106DC2C652DE4F1882CA5DD1406D
:1024400086E898E00E94520584E898E00E945205D0
:102450008FE798E00E945205C752DE4F1882C95D8F
:10246000D14065C08091DF0282FF90CF8091DF0272
:102470008B7F8093DF02C452DD4F8881CC5DD240D8
:10248000882311F40C94802596B1292F207194FB98
:10249000882780F9C552DD4F9881CB5DD2409813D3
:1024A0000C947425CA52DD4FA881C65DD240AF5F3F
:1024B000CA52DD4FA883C65DD240AF3110F40C94F0
:1024C0007925DD24D3942111D12CC552DD4F888389
:1024D000CB5DD2401092E902D11004C05C980E94FA
:1024E0003E0702C00E944007C452DD4F1882CC5DF7
:1024F000D2404CCF8F3F09F07FCF0E947106C65269
:10250000DE4F8883CA5DD1400E947106C552DE4FFE
:102510008883CB5DD1400E947106C452DE4F888310
:10252000CC5DD140C352DE4F1882CD5DD14061E811
:1025300071E0CE0187529E4F0E942105882311F041
:102540001D7B126066E871E0CE0187529E4F0E94AB
:102550002105882319F0689430F81F7B6DE871E03D
:10256000CE0187529E4F0E9421058111006467E9C8
:1025700071E0CE0187529E4F0E94210581111BC040
:102580006CE971E0CE0187529E4F0E9421058111B6
:1025900012C061EA71E0CE0187529E4F0E94210570
:1025A000811109C067EA71E0CE0187529E4F0E94F7
:1025B0002105882311F01F79106262E971E0CE01D4
:1025C00087529E4F0E942105882311F001601F7BD6
:1025D0006CEA71E0CE0187529E4F0E94210588234C
:1025E00041F0CC53DD4F7881C45CD2407C3908F097
:1025F0000E6166EB71E0CE0187529E4F0E9421056D
:10260000882351F0CC53DD4F8881C45CD2408C3993
:1026100018F00E944007D82C63EB71E0CE0187527E
:102620009E4F0E942105882351F0CC53DD4F9881A5
:10263000C45CD2409C3918F00E943E07D12C6AEB52
:1026400071E0CE0187529E4F0E94210581110E94A8
:10265000A9066EEB71E0CE0187529E4F0E942105C4
:102660008111006263EC71E0CE0187529E4F0E949F
:102670002105811108C066EC71E0CE0187529E4FA2
:102680000E942105811100686FEC71E0CE01875234
:102690009E4F0E9421058823B1F184EF90E00E94B3
:1026A0005205C753DD4FA881C95CD24085EE90E04A
:1026B000A53F59F0C753DD4FB881C95CD24085EDC5
:1026C00090E0B33211F081EC90E00E94520588E76F
:1026D00090E00E9452050E947106B82E8823D9F31B
:1026E0000E94310585E790E00E9452058B2D8062A3
:1026F000863609F42BC1843709F43DC1A2E0BA2E15
:10270000853609F425C167ED71E0CE0187529E4FF1
:102710000E942105882309F457C08BED91E00E94A7
:102720006106612C74E0572E90E080E05C0164E06B
:10273000AA0CBB1C6A95E1F70E947106782E0E94D4
:102740003105872D806290ED980F9A3038F09FE91F
:10275000980F963008F012C199EA980F81E09F3FD8
:1027600009F080E0680E9501292BC9015A94511097
:10277000DDCF611025C08F3F980711F1692F661FCB
:102780006627661F0E94F806B82E85E798E00E942B
:1027900052054B2D50E070E060E0C952DD4F488398
:1027A00059836A837B83C75DD24048E6C952DD4FB7
:1027B000688179818A819B81C75DD2400E946005D2
:1027C00083E292E00E94610667E272E0CE018752E6
:1027D0009E4F0E942105882309F42EC1CD5FDD4F55
:1027E00019821882C350D2408EE0CA51DD4FA881B1
:1027F000B981C65ED2401D928A95E9F781E293E0E5
:102800000E9452058DEF92E00E94520584EE92E004
:102810000E94520560E08FEF9DE30E94F806B82FFA
:10282000B1706B2E80FFACC38CEA92E00E9452051F
:10283000AA24AA945EE3B52E60E0C5010E94F806C2
:10284000282F30E050E040E0C952DD4F2883398323
:102850004A835B83C75DD24048E6C952DD4F688139
:1028600079818A819B81C75DD2400E9460058AEA96
:1028700092E00E945205B394A1144EE4B406E0F233
:102880008DE892E00E945205B12C8B2D90E080964D
:102890000E943B08282F30E050E040E0C952DD4F55
:1028A000288339834A835B83C75DD24048E6C95297
:1028B000DD4F688179818A819B81C75DD2400E940A
:1028C00060058BE892E00E945205B39430E1B312A8
:1028D000DCCF84E492E00E9452050E9471068823B6
:1028E000E1F3B82E6894B5F88B2D0E94310581E490
:1028F00092E00E94520543E7B4129EC08BE292E040
:102900000E945205712CA12C412C32E0532E39C06B
:10291000AA948BE690E00E94520578CDB12CEAEDA6
:10292000F1E0EC0FFD1FEA0DF11DB0828B2D0E942E
:102930003105BB2011F40C946E25A39467E2A61216
:1029400065CD88E690E00E945205F1CDF3E2BF2EFE
:10295000C753DD4FE881C95CD240EB1509F4D3CEF3
:102960006DE671E08B2D0E943008C753DD4FB882B1
:10297000C95CD240C8CEE5EFBE2EEACF9FEFEECEC7
:10298000562C429440EF44220E947106B82E0E94B9
:1029900031058B2D806290ED980F9A3030F09FE9D1
:1029A000980F963090F499EA980F81E09F3F09F0D4
:1029B00080E0A80E492A51E05512E2CFAA2039F052
:1029C00081EE91E00E94520537C09FEFEECF8FED70
:1029D00091E00E945205E3E0F2E0EC0FFD1FE70DED
:1029E000F11D4082739460E176128DCF89EB91E006
:1029F0000E9452050E94710680628A3629F08E3646
:102A0000C9F783E691E0DECF8A2D90E0BC01605EDD
:102A10007F4FA3E0B2E0AC0FBD1F8A0F9B1FFC01EC
:102A200080810E943008A394F0E1AF12EDCF87E8D7
:102A300091E00E9452050062C752DE4F8881C95D55
:102A4000D1408F3F09F042C0C652DE4FB880CA5D08
:102A5000D1408B0D8233D0F5C552DE4FA880CB5DBF
:102A6000D1408FEF8A0D803188F5C452DE4F7880D7
:102A7000CC5DD1406B2D80E00E9445086A2D0E94FC
:102A80004508781223C086E6CB5ADD4F8883C555AA
:102A9000D240CA5ADD4FB882C655D240C95ADD4F1E
:102AA000A882C755D2401064FB100FC0CC53DD4F35
:102AB0002881C45CD2402C3940F412FD06C0C25DAE
:102AC000DD4FA882CE52D2401460E82C2898C7521D
:102AD000DE4F8881C95DD14081508E3F20F482E76E
:102AE00098E00E945205C854DD4F3881C85BD2403F
:102AF0003FBF07FF4BC0BFB6F8940F778FE698E053
:102B00000E945205CC53DD4F4881C45CD24085E71A
:102B100091E04C3968F48EE292E00E94610644E64E
:102B200060E170E080E090E00E94600580E492E067
:102B30000E9461068CE698E00E94520581E698E0CA
:102B40000E9452058BE598E00E94520544E665E438
:102B500070E080E090E00E94600587E598E00E94C8
:102B6000520584E598E00E9452058AE498E00E94AC
:102B7000520581E498E00E9452058CE398E00E949F
:102B8000520588E398E00E945205BFBE11FF3FC185
:102B90008FB6F8941D7F0E94A90683E795E00E94F6
:102BA000520581E495E00E945205BE0169547D4FB3
:102BB000CE018D5F9D4F0E94D70881110CC08BE321
:102BC00095E00E94520582E295E00E9452058CE158
:102BD00095E00E94520586E195E00E9452058BEF38
:102BE00094E00E945205CF51DD4F88819981C15EEA
:102BF000D2400E946106CC53DD4F5881C45CD24064
:102C00005C3908F0DEC183EE94E00E9452058DED40
:102C100094E00E945205CD5FDD4F8881C350D240C1
:102C2000853409F4B0C18A3018F480E30E9431057C
:102C3000CD5FDD4F8881C350D240282F30E050E077
:102C400040E0C854DD4F288339834A835B83C85BE7
:102C5000D24044E6C854DD4F688179818A819B81E6
:102C6000C85BD2400E94600583ED94E00E9452054B
:102C70008DEC94E00E94520588EB94E00E9452058E
:102C800082EB94E00E945205C954DD4F8881C75BF6
:102C9000D240853609F47CC18A3018F480E30E9462
:102CA0003105C954DD4F8881C75BD240482F50E0C1
:102CB00070E060E0C854DD4F488359836A837B83AA
:102CC000C85BD24044E6C854DD4F688179818A816F
:102CD0009B81C85BD2400E94600588EA94E00E9414
:102CE000520582EA94E00E9452058DE994E00E9428
:102CF000520587E694E00E9452050E9471068823DF
:102D0000E1F3B82E6894B5F88B2D0E94310584E666
:102D100094E00E94520581E694E00E94520559E633
:102D2000B5124AC18DE494E00E9452058AE494E011
:102D30000E94520582E394E00E9452058CE294E0E6
:102D40000E945205CD5FDD4FA880C350D2400E9443
:102D500084068F3F09F421C1CD5FDD4F8883C350C6
:102D6000D24086E294E00E94520581E194E00E9404
:102D700052058EE094E00E94520586EF93E00E9497
:102D8000520580EF93E00E945205C954DD4FB88090
:102D9000C75BD2400E9484068F3F09F404C1C95426
:102DA000DD4F8883C75BD2408AEE93E00E945205D4
:102DB000CD5FDD4F8881C350D240A81208C0C954EE
:102DC000DD4F9881C75BD240B91609F4F5C0C954EC
:102DD000DD4F6881C75BD2400E945008C954DD4F67
:102DE0006881C75BD240CD5FDD4F8881C350D24040
:102DF0000E949008882309F4DCC08EEC93E00E94C6
:102E000052058BE993E00E94520500628FBE30FEAE
:102E100098C05FB6F894E89430F884E696E00E9493
:102E2000520583E296E00E9452058DE196E00E94F1
:102E3000520587E096E00E9452050E948406882E83
:102E400084E096E00E9452056FEF861609F478C080
:102E50008EEE95E00E9452050E948406A82E8BEE0D
:102E600095E00E94520588EE95E00E9452057FEFA2
:102E7000A71609F465C082ED95E00E9452050E94F4
:102E80008406682E8FEC95E00E9452058FEF68163D
:102E900009F456C089EB95E00E9452050E94840611
:102EA000782E85EB95E00E9452059FEF791609F484
:102EB00047C0861003C0A71409F442C089E795E013
:102EC0000E9452050E947106B82E8823D9F30E94F1
:102ED00031058B2D80628A3699F583E6CB5ADD4F1A
:102EE0008883C555D240CA5ADD4F8882C655D24024
:102EF000C95ADD4FA882C755D240C85ADD4F6882F3
:102F0000C855D240C75ADD4F7882C955D240981073
:102F10005BC0FA1059C088E198E00E945205C75A78
:102F2000DD4F6881C955D240C85ADD4F8881C855E8
:102F3000D2400E945008006289EE97E00E9452053C
:102F40005FBE15FFF1C06FB6F8941F7DC752DE4F0C
:102F5000B880C95DD140A9E6BA123CC0CB5ADD4F5A
:102F6000B882C555D24084E6CA5ADD4F8883C6551B
:102F7000D24080E3C95ADD4F8883C755D240B3C2DF
:102F800081E491E01FCD86ED94E00E9452056CCE65
:102F90008BEA94E00E945205A0CECD5FDD4FA8825F
:102FA000C350D240DECEC954DD4FB882C75BD24099
:102FB000FBCE8CEA93E023CF8AE793E00E94520590
:102FC00025CF88E493E0FACF8DEE97E00E9452057A
:102FD0001064B2CFB4E7BB1250C0CB5ADD4FB882F9
:102FE000C555D240C252DD4F8881CE5DD2400E948D
:102FF000C30AC253DD4F8883CE5CD2408AE997E092
:103000000E945205C253DD4FB881CE5CD24085E9A3
:1030100097E0B038B9F044E0C253DD4F6881CE5C30
:10302000D240062E000C770B880B990BC854DD4F4D
:10303000688379838A839B83C85BD2400E94FA05A8
:1030400081E997E00E94520584E7CB5ADD4F8883DF
:10305000C555D24085E6CA5ADD4F8883C655D24051
:103060008DE6C95ADD4F8883C755D24080E7C85ADC
:10307000DD4F8883C855D24036C2E6E6BE120CC08A
:10308000CB5ADD4FB882C555D240882483948AEC50
:1030900097E02AE0722EE0C188ED97E00E94520589
:1030A0000E947106B82E6894B5F88B2D0E943105E8
:1030B00085ED97E00E945205CB5ADD4FB882C55589
:1030C000D240F6E6BF1609F329E6B21609F44BCF53
:1030D00034E7B31609F486CFB12C8DE897E00E944F
:1030E0005205BB2009F407C21064CB5ADD4F88811A
:1030F000C555D240863691F4CA5ADD4F8881C655EF
:10310000D2408F110BC0C95ADD4F8881C755D240BC
:10311000C25DDD4F8883CE52D24014608091C000E2
:1031200087FDECC16FBEEB2C702F7170772E00FF06
:1031300071C14FB6F8940E7F0E94A90686E597E00C
:103140000E94520581E497E00E9452058FE297E0C9
:103150000E94520589E297E00E94520589EC96E0B0
:103160000E945205812C88E0881520F087EC96E0BB
:103170000E945205882D90E001969C01990F440B06
:10318000550BC854DD4F288339834A835B83C85B62
:10319000D24044E6C854DD4F688179818A819B81A1
:1031A000C85BD2400E94600584EC96E00E94520504
:1031B000AA24A394B12CAC0EBD1E37E0839EA00CB4
:1031C000B11C1124D5016C9061109BC180EC96E07C
:1031D0000E94520589EB96E00E945205F50181811B
:1031E0008A3008F0ABC184EB96E00E9452058FEA6A
:1031F00096E00E945205662009F4D7C1D5011296C7
:103200008C910E9431058AEA96E00E945205F501F0
:103210008381803809F4CEC1282F880F330B440BEB
:10322000550BC854DD4F288339834A835B83C85BC1
:10323000D24044E0C854DD4F688179818A819B8106
:10324000C85BD2400E94FA058DE996E00E945205C3
:10325000D50114968C91282F30E050E040E0C854FE
:10326000DD4F288339834A835B83C85BD24044E6C1
:10327000C854DD4F688179818A819B81C85BD240C7
:103280000E9460058AE996E00E945205D5011596D4
:10329000BC90BB2009F497C1B3E6BB1520F088E9C8
:1032A00096E00E945205E9E0EB1520F086E996E0F1
:1032B0000E94520584E996E00E9452052B2D30E0D1
:1032C00050E040E0C854DD4F288339834A835B8354
:1032D000C85BD24044E6C854DD4F688179818A8159
:1032E0009B81C85BD2400E946005882D63E00E94EC
:1032F0009625923009F06CC18CE896E00E94520548
:10330000839432E383122FCF8DE696E00E9452051C
:10331000C352DD4F4881CD5DD240842F90E0B0E0B4
:10332000A0E044E6C854DD4F88839983AA83BB8319
:10333000C85BD240BC01CD010E9460058AE696E0E0
:103340000E94520590E080E0E1E0F0E0EC0FFD1F0C
:1033500057E0859FE00DF11D11242081271101C048
:103360009F5F8F5F823381F7E5EAF1E0EC0FFD1F8D
:10337000E70DF11D9083739463E37612E3CF82E748
:1033800097E00E945205812C78E0781518F080E3D0
:103390000E943105A82CB12CC50101969C01990F02
:1033A000440B550BC854DD4F288339834A835B8314
:1033B000C85BD24044E6C854DD4F688179818A8178
:1033C0009B81C85BD2400E9460058FE697E00E9417
:1033D0005205E6EAF1E0EC0FFD1FEA0DFB1D8081CE
:1033E0008111F9C08BE697E00E945205882D63E0B9
:1033F0000E949625923009F006C188E697E00E9467
:103400005205839452E38512BFCF8CE597E00E946A
:1034100052054FBE05FFFCC0F894CC53DD4F6881C8
:10342000C45CD2406C3908F4F1C060E081E00E94D5
:10343000FA0789E492E00E941F0888E19EE00FB637
:10344000F894A895809360000FBE909360000E944E
:10345000A906FFCF22E0822E0E9452050E9471062B
:10346000A82E8823D9F30E94310540EDA40E0E94B6
:103470007106B82E8823D9F30E943105A79CB00CA1
:10348000112450EDB50E8AEB97E00E945205BB2047
:1034900069F12B2D30E062E081E190E0861611F0B9
:1034A00083E390E0281739070CF58B2D90E0B0E00E
:1034B000A0E0C854DD4F88839983AA83BB83C85B8F
:1034C000D24044E6BC01CD010E946005E5E5F2E092
:1034D000EC0FFD1FE80DF11DB0828EEB97E0A1E02F
:1034E0008A1609F4B7CFBB24B394F7CD87EA97E0E7
:1034F0000E945205F1CD1F7BBE2C10CE8091C600DC
:103500000DCE8EEB96E00E945205B9E0B61520F084
:103510008CEB96E00E945205862D90E0B0E0A0E092
:1035200044E6C854DD4F88839983AA83BB83C85B74
:10353000D240BC01CD010E9460054CCE6AE00E94E1
:103540009625592E282F30E050E040E0C854DD4F3A
:10355000288339834A835B83C85BD24042E0C854E6
:10356000DD4F688179818A819B81C85BD2400E944E
:10357000FA0582EB96E00E945205452D50E070E07E
:1035800060E0C854DD4F488359836A837B83C85BFE
:10359000D24044E6C854DD4F688179818A819B819D
:1035A000C85BD2400E94600522CE8DEA96E00E9460
:1035B000520529CE85EA96E0611002C080EA96E0C5
:1035C0000E94520541CE8FE896E00E9452058DCEB2
:1035D0008AE896E093CE482F50E070E060E0C8544F
:1035E000DD4F488359836A837B83C85BD24043E0C5
:1035F000C854DD4F688179818A819B81C85BD24044
:103600000E94FA05F3CE80E697E0F9CE419A15CFF5
:1036100006FD0AC016FF74C0CB5ADD4F8881C55520
:10362000D240893609F06CC0BFB6F8940F7B80E0B9
:1036300090E8282F30E0E6EAF1E0EC0FFD1FE20F02
:10364000F31F108277E0729FF001739FF00D112439
:10365000A1E0B0E0AC0FBD1FEA0FFB1F108211828A
:1036600012829383958316828F5F823311F7CC5336
:10367000DD4FB881C45CD240BC39E0F581E0C8516F
:10368000DD4FE881F981C85ED2408083C053DD4FB1
:10369000A881B981C05DD240FC920E947704C651D6
:1036A000DD4FE881F981CA5ED24080838EE6D11079
:1036B0008AE6C053DD4FA881B981C05DD240129621
:1036C0008C931297C253DD4FE881CE5CD2401396A3
:1036D000EC93139715961C9260E080E099E20E94AB
:1036E000F8068695C053DD4FA881B981C05DD240F0
:1036F00016968C93BFBEC352DD4F1882CD5DD2406B
:10370000E1101BC08091DF02EE24E39481FF0DC025
:103710008091DD029091DE02C152DD4FE881F98196
:10372000CF5DD240E817F90740F0CC53DD4FF88168
:10373000C45CD240FC3908F4E12C16FF5EC0EE20D8
:1037400009F45BC07FB6F8941F7BCB5ADD4F8881AC
:10375000C555D2408356E12C812C883148F490E045
:10376000FC01E85CFE4F8080805E9E4FDC01EC90A7
:10377000A82CB12CE5E5F2E0EC0FFD1FEA0DFB1DD6
:10378000E0821182CB5ADD4F8881C555D240863602
:1037900011F4DD2029F1839425E532E02C0F3D1F43
:1037A000A20EB31E1AC00E943C07682DCE018B5A90
:1037B0009D4F0E94E909C454DD4F8883CC5BD24001
:1037C000F501808181508083C454DD4FF881CC5B4A
:1037D000D240F11101C05F98EA94E110E4CF066095
:1037E0008091DF028D7F8093DF021092DE021092C3
:1037F000DD020E948A0A7FBEE12C12FF4FC0BFB6D5
:10380000F8941B7FDD2009F446C0CE52DD4F48817D
:1038100059816A817B81C25DD240452B462B472B63
:10382000D1F110610E9430078091D9029091DA02A3
:10383000A091DB02B091DC02CE52DD4F28813981AC
:103840004A815B81C25DD240282B392B4A2B5B2BEE
:10385000C854DD4F288339834A835B83C85BD240D9
:103860005C9AC854DD4F688179818A819B81C85BED
:10387000D2400E94B506C854DD4F488159816A8103
:103880007B81C85BD2404093D9025093DA026093A7
:10389000DB027093DC020E948A0ABFBE14FF56C08E
:1038A0008091D802882309F451C02FB7F894109260
:1038B000D80213FBBB24B0F8A12C412C512C3201AF
:1038C00041E050E060E070E08091D9029091DA022E
:1038D000A091DB02B091DC0284239523A623B723B9
:1038E000892B8A2B8B2B89F0E7EAF2E0EC0FFD1F86
:1038F000EA0DF11D30813F5FC753DD4F9881C95CF0
:10390000D240391708F09DC03083440F551F661F01
:10391000771FA394A0E1AA12D7CFB0FA13F9809130
:10392000D9029091DA02A091DB02B091DC02B301DE
:10393000A201482759276A277B27C653DD4F4883B2
:1039400059836A837B83CA5CD2402FBF13FF28C090
:10395000BFB6F894177FC653DD4F688179818A819D
:103960009B81CA5CD2400E94B506C653DD4F688178
:1039700079818A819B81CA5CD2406093D90270931D
:10398000DA028093DB029093DC02672B682B692BB1
:1039900031F45C981F7E0E9435070E944007BFBE2D
:1039A000BFB6F8940E94EB069C0182FD52C092FFC4
:1039B00055C060E08FEF9DE30E94F80690E061E063
:1039C00084609D630E94F80622E081E017FD03C039
:1039D000213009F080E080FB17F9223049F4809112
:1039E000E1029091E20201969093E2028093E1025B
:1039F000BFBE17FFCAC08FB6F8941F770E943A0760
:103A000060E08FEF9FE60E94F806882349F160E0AE
:103A10008FEF94E20E94F806282E26940E940C074D
:103A20002A9880E00E94E5068FEF0E94E506893221
:103A300078F5CD5FDD4F8883C350D240BB24B3946B
:103A400034C0442A552A662A772A1082BB24B394AC
:103A50005CCF2095309521703327B7CF20E0B5CFCC
:103A600061E081E093E20E94F806412C512CABE426
:103A70006A2E712C71E0471A51086108710839F2F9
:103A800060E08FEF93E20E94F80681FFF3CFBFCF93
:103A900088E2CFCF8FEF0E94E506E3E0F2E0EC0F83
:103AA000FD1FEB0DF11D8083B394CD5FDD4F888149
:103AB000C350D2408B1570F72A9ACD5FDD4F7880C6
:103AC000C350D24087E2871510F4F7E27F2E80E0E2
:103AD0008715E8F0A72CB12CECE2F2E0EC0FFD1F0B
:103AE000EA0DFB1D108261E080E198E20E94F80679
:103AF0005D98C45DDD4FE881CC52D240E356E2319F
:103B000008F03FC0F0E0E85CF94D0C94E025282F68
:103B100030E0ECE2F2E0EC0FFD1FE20FF31FA3E058
:103B2000B2E0AC0FBD1F2A0F3B1FD90111969C912B
:103B300090838F5FCDCFFE01EA0DFB1DE55DFD4F4C
:103B40008081815009F0F0C0A5014250510957FF12
:103B500002C04F5F5F4FBA017595679512FB9927B9
:103B600090F9CE52DD4F188219821A821B82C25DF3
:103B7000D240282F30E0261737070CF4DBC090FB2B
:103B800012F90A600E948A0A8FBE8091E30288239C
:103B900001F1BFB6F8940E94EB0684749170892BF2
:103BA000B9F460E080E099E20E94F8069091E302A7
:103BB00019160CF093C2873908F490C29091E30271
:103BC000891B90E061E099620E94F8061092E3027E
:103BD000BFBECC53DD4FB881C45CD240BC3910F4B9
:103BE0000C940610E02FE270BE2E01FD4DC08091B6
:103BF000E8028C3F58F48091E7028C3F38F48091C2
:103C0000E5029091E602823F9240D0F18FB6F8949F
:103C10008091E8028C3F08F06BC28091E7028C3FF4
:103C200078F01092E70261E082E00E94DD07A12CAB
:103C30008FE692E00E941F08A39444E1A412F8CFFB
:103C40008091E5029091E602823F9240C0F010928E
:103C5000E6021092E50261E083E00E94DD078EE655
:103C600092E00E941F08B39454E1B512F8CF61E0CE
:103C7000C054DD4F6883C05CD24043E0C42E8FBE89
:103C800001FD02C00C9406106FB6F8940D7F02FF80
:103C90002AC061E081E00E94DD078BE592E00E948E
:103CA0001F08C454DD4F7881CC5BD2408FE592E091
:103CB000711159C4CB5ADD4F8881C555D240893620
:103CC00009F441C308F024C2833609F451C486368E
:103CD00009F445C20B7F81E08093E802C454DD4FB4
:103CE0001882CC5BD24003FF1CC061E082E00E94DE
:103CF000DD0780EB92E00E941F08C45DDD4F8881E4
:103D0000CC52D240893609F455C508F0D4C4833664
:103D100009F449C6863609F4D7C4077F81E0809349
:103D2000E7026FBE0C940610E6E1F3EE3197F1F76F
:103D300000C007CFDD2009F441C0220F331FECE2A1
:103D4000F2E0EC0FFD1FE20FF31F21812F1136C0AF
:103D5000E281E150E03190F5CC53DD4FF881C45C55
:103D6000D240FC3958F524E0E29FD001112446E608
:103D700051E04C0F5D1FA40FB51F4D905D906D90ED
:103D80007C90CE52DD4F288139814A815B81C25DB2
:103D9000D2402429352946295729CE52DD4F288380
:103DA00039834A835B83C25DD24047EA52E04C0FBD
:103DB0005D1F4E0F511DFA01108291E08F5FD9CE29
:103DC000ECE2F2E0EC0FFD1FE70DF11D3197808171
:103DD000815069F4C252DD4F8881CE5DD2400E948D
:103DE000C30AC253DD4F8883CE5CD240CACEA6E15F
:103DF000B3EE1197F1F700C0EBCFECE2F2E0EC0F7D
:103E0000FD1FE70DF11D3197E080EA94E11056C0E7
:103E100080E7CB5ADD4F8883C555D240CA5ADD4F63
:103E20009882C655D240C95ADD4FF882C755D24054
:103E3000CC53DD4FF881C45CD24082E3FC3910F4EE
:103E40000E947704C85ADD4F8883C855D240C75AAC
:103E5000DD4FD882C955D240C253DD4F2881CE5C98
:103E6000D240C65ADD4F2883CA55D24080E1C55A98
:103E7000DD4F8883CB55D240C45ADD4F2882CC55C4
:103E8000D24060E080E099E20E94F8068695C35A2D
:103E9000DD4F8883CD55D24082E086BB10928500ED
:103EA000109284008091DF0282608093DF02109282
:103EB000DE021092DD021064006463CEE6E1F3EEF0
:103EC0003197F1F700C0A1CFECE2F2E0EC0FFD1F5B
:103ED000E70DF11D31978081815031F5C35DDD4FD4
:103EE0008881CD52D240853499F0882389F0891594
:103EF00079F08150282F30E0E1E0F0E0EC0FFD1F79
:103F0000B7E0B89FE00DF11D11248081882391F066
:103F1000C352DD4FE881CD5DD240EF5FC352DD4F2C
:103F2000E883CD5DD2402DCEA6E1B3EE1197F1F737
:103F300000C0D2CFC25DDD4F8881CE52D240808397
:103F4000C15DDD4F8881CF52D2408183C05DDD4F9E
:103F50008881C053D240811127C08EE647E0429F3E
:103F6000F001439FF00D112461E070E06C0F7D1FA4
:103F7000E60FF71F8283CF5CDD4F8881C153D240AB
:103F80008383CE5CDD4F8881C253D2408483CD5C75
:103F9000DD4F8881C353D2408583CC5CDD4F88815F
:103FA000C453D2408683EDCD8AE6D8CFECE2F2E06E
:103FB000EC0FFD1FE70DF11D31978081815069F5F0
:103FC000D110DFCDC35DDD4F8881CD52D240891144
:103FD000D8CDC25DDD4F8881CE52D2408F11D1CD78
:103FE000C15DDD4F8881CF52D2409FEF980F923351
:103FF00008F0C7CDC05DDD4F6881C053D2409FEF50
:10400000960F923308F0BDCD891103C06F1509F4E6
:10401000B8CD0E9450080062B4CDA6E1B3EE11976E
:10402000F1F700C0CBCFECE2F2E0EC0FFD1FE70DA3
:10403000F11D31978081815081F5C35DDD4F88810D
:10404000CD52D24089119DCDFE01EB5AFD4F8AE73A
:104050008083918280E1828380E0DF01A80FB11D1F
:1040600013961C928F5F8031C1F7106482E086BB8B
:1040700010928500109284008091DF02826080930C
:10408000DF02CC51DD4F28813981C45ED2403093AC
:10409000DE022093DD02E12C74CDE6E1F3EE3197F0
:1040A000F1F700C0C8CFECE2F2E0EC0FFD1FE70D26
:1040B000F11D31978081815059F4C35DDD4F8881B6
:1040C000CD52D24090E061E099620E94F80659CD4D
:1040D000A6E1B3EE1197F1F700C0EDCF9091E302A6
:1040E0009F3F09F06ECD8F3F09F46BCD8F5F69CD97
:1040F0001092E80261E081E00E94DD07A12C8FE6CA
:1041000092E00E941F08A39424E1A212F8CF85CD6B
:10411000803709F466C1843709F0DCCD83E992E089
:104120000E941F0804FD5BC1C153DD4F6881CF5C55
:10413000D240CB53DD4F8881C55CD2400E94DD0761
:104140008FE692E00E941F08C054DD4F6881C05C7A
:10415000D2408C2D0E94DD0785EA92E0D2C0CA5A77
:10416000DD4F8881C655D2408150823308F037C177
:10417000C95ADD4F8881C755D2408150803108F03F
:104180002EC161E080E00E94FA0781E792E00E9480
:104190001F08CA5ADD4F8881C655D240282F30E00B
:1041A00050E040E0C454DD4F288339834A835B8369
:1041B000CC5BD24022E0AE0142585D4FC454DD4F8B
:1041C000688179818A819B81CC5BD2400E94A7045F
:1041D000CE0182589D4F0E941F0884E792E00E9402
:1041E0001F08C95ADD4F8881C755D240482F50E07B
:1041F00070E060E0C454DD4F488359836A837B8359
:10420000CC5BD24022E0AE0142585D4FC454DD4F3A
:10421000688179818A819B81CC5BD2400E94A7040E
:10422000CE0182589D4F0E941F0889E692E00E94AD
:104230001F0804FDD4C0C153DD4F6881CF5CD2405C
:10424000CB53DD4F8881C55CD2400E94DD078FE6ED
:1042500092E00E941F08C054DD4F6881C05CD240CC
:104260008C2D0E94DD0781E292E00E941F08CA5A4D
:10427000DD4F8881C655D240282F30E050E040E025
:10428000CB53DD4F288339834A835B83C55CD2409F
:1042900022E0AE0142585D4FCB53DD4F68817981FA
:1042A0008A819B81C55CD2400E94A704CE018258BE
:1042B0009D4F0E941F0861E080E00E94FA07C95AE2
:1042C000DD4F8881C755D240482F50E070E060E054
:1042D000CB53DD4F488359836A837B83C55CD240CF
:1042E00022E0AE0142585D4FCB53DD4F68817981AA
:1042F0008A819B81C55CD2400E94A704CE0182586E
:104300009D4F0E941F08C054DD4F9881C05CD24071
:10431000995F8C2D963118F081E08C0D91E08530FD
:1043200008F083E021E030E03093E6022093E502DC
:10433000C054DD4F5881C05CD240C153DD4F58831B
:10434000CF5CD24041C088E792E00E941F0804FD84
:1043500046C0C153DD4F6881CF5CD240CB53DD4FA7
:104360008881C55CD2400E94DD078FE692E00E9402
:104370001F08C054DD4F6881C05CD2408C2D0E9464
:10438000DD078AE892E00E941F08C054DD4F988143
:10439000C05CD240995F8C2D963118F081E08C0D75
:1043A00091E0853008F083E021E030E03093E602D0
:1043B0002093E502C054DD4F6881C05CD240C153F8
:1043C000DD4F6883CF5CD240C054DD4F9883C05C22
:1043D000D240CB53DD4FC882C55CD240C82E0F7E81
:1043E00079CC8EEA92E00E941F08CA5ADD4F88817C
:1043F000C655D240282F30E050E040E0C454DD4F95
:10440000288339834A835B83CC5BD24022E0AE01B0
:1044100042585D4FC454DD4F688179818A819B8108
:10442000CC5BD2400E94A704CE0182589D4F0E94CF
:104430001F0882E792E00E941F08C95ADD4F888159
:10444000C755D240482F50E070E060E0C454DD4FC3
:10445000488359836A837B83CC5BD24022E0AE01E0
:1044600042585D4FC454DD4F688179818A819B81B8
:10447000CC5BD2400E94A704CE0182589D4F0E947F
:104480001F088FE692E00E941F08C85ADD4F8881FE
:10449000C855D240843620F48FE692E00E941F086F
:1044A000C85ADD4F8881C855D2403AE0B32E6B2DF3
:1044B0003DD3282F30E050E040E0C454DD4F288346
:1044C00039834A835B83CC5BD24021E0AE01425802
:1044D0005D4FC454DD4F688179818A819B81CC5BBB
:1044E000D2400E94A704CE0182589D4F0E941F080F
:1044F00081E992E00E941F08C85ADD4F8881C855A3
:10450000D2406B2D13D3492F50E070E060E0C454CB
:10451000DD4F488359836A837B83CC5BD24021E0A3
:10452000AE0142585D4FC454DD4F688179818A8164
:104530009B81CC5BD2400E94A704CE0182589D4F44
:104540000E941F088FE692E00E941F08C75ADD4FA5
:104550008881C955D240811109C08EE661E00E9470
:10456000FA078CE692E00E941F08B4CB8AE6F6CFE9
:104570008EEA92E00E941F08CA5ADD4F8881C65514
:10458000D240282F30E050E040E0C454DD4F288373
:1045900039834A835B83CC5BD24022E0AE01425830
:1045A0005D4FC454DD4F688179818A819B81CC5BEA
:1045B000D2400E94A704CE0182589D4F0E941F083E
:1045C00081E792E00E941F08C95ADD4F8881C755D4
:1045D000D240482F50E070E060E0C454DD4F488383
:1045E00059836A837B83CC5BD24022E0AE01425880
:1045F0005D4FC454DD4F688179818A819B81CC5B9A
:10460000D2400E94A704CE0182589D4F0E941F08ED
:104610008CEA92E00E941F08C85ADD4F8881C85575
:10462000D240282F30E050E040E0C454DD4F2883D2
:1046300039834A835B83CC5BD24022E0AE0142588F
:104640005D4FC454DD4F688179818A819B81CC5B49
:10465000D2400E94A704CE0182589D4F0E941F089D
:1046600081E792E00E941F08C75ADD4F8881C95533
:10467000D240482F50E070E060E0C454DD4F4883E2
:1046800059836A837B83CC5BD24022E0AE014258DF
:104690005D4FC454DD4F688179818A819B81CC5BF9
:1046A000D2400E94A704CE0182589D4F0E941F084D
:1046B0008FE692E058CF803709F494C0843709F030
:1046C0002CCB87EC92E078C0C35DDD4FA880CD5243
:1046D000D2408FEF8A0D823308F01FCBC25DDD4FD1
:1046E000B880CE52D2408FEF8B0D803108F015CBC1
:1046F00061E080E00E94FA0781E792E00E941F08D3
:104700006A2D70E090E080E022E0AE0142585D4FFB
:104710000E94A704CE0182589D4F0E941F0884E783
:1047200092E00E941F088B2D90E0B0E0A0E0C854FA
:10473000DD4F88839983AA83BB83C85BD24022E084
:10474000AE0142585D4FBC01CD010E94A704CE01CD
:1047500082589D4F0E941F0881EC92E00E941F0822
:10476000211005C084EB92E00E941F08D6CA822D5A
:1047700093E6921508F483E6282F30E050E040E0FD
:10478000C854DD4F288339834A835B83C85BD2409A
:1047900022E0AE0142585D4FC854DD4F68817981F7
:1047A0008A819B81C85BD2400E94A704CE018258B7
:1047B0009D4FDACF87EB92E00E941F08222091F2F2
:1047C000822D33E6321508F483E6482F50E070E07E
:1047D00060E0C854DD4F488359836A837B83C85B9C
:1047E000D240CDC08EEA92E00E941F08C35DDD4F2B
:1047F0008881CD52D240282F30E050E040E0C854AC
:10480000DD4F288339834A835B83C85BD24022E033
:10481000AE0142585D4FC854DD4F688179818A816D
:104820009B81C85BD2400E94A704CE0182589D4F55
:104830000E941F0882E792E00E941F08C25DDD4FC0
:104840008881CE52D240482F50E070E060E0C854DA
:10485000DD4F488359836A837B83C85BD24022E063
:10486000AE0142585D4FC854DD4F688179818A811D
:104870009B81C85BD2400E94A704CE0182589D4F05
:104880000E941F088FE692E00E941F08C15DDD4F65
:10489000B880CF52D24053E65B1520F08FE692E00D
:1048A0000E941F088B2D6AE041D1B92E282F30E0DD
:1048B00050E040E0C854DD4F288339834A835B834E
:1048C000C85BD24021E0AE0142585D4FC854DD4F75
:1048D000688179818A819B81C85BD2400E94A7044C
:1048E000CE0182589D4F0E941F0881E992E00E94EC
:1048F0001F084B2D50E070E060E0C854DD4F488346
:1049000059836A837B83C85BD24021E0AE01425861
:104910005D4FC854DD4F688179818A819B81C85B76
:10492000D2400E94A704CE0182589D4F0E941F08CA
:104930008FE692E00E941F08C05DDD4F8881C05362
:10494000D24081112EC08EE661E00E94FA0784EC0D
:1049500092E00E941F08222009F404CF822D53E622
:10496000521508F483E6282F30E050E040E0C854A8
:10497000DD4F288339834A835B83C85BD24022E0C2
:10498000AE0142585D4FC854DD4F688179818A81FC
:104990009B81C85BD2400E94A704CE0182589D4FE4
:1049A000E3CE8AE6D1CFC35DDD4F8880CD52D240C1
:1049B000882009F4B2C9C25DDD4FA880CE52D24032
:1049C000AA2009F4AAC9C15DDD4FB880CF52D240F8
:1049D000BB2009F4A2C9C05DDD4F7880C053D2402E
:1049E000772009F49AC932E3381508F496C93A15C4
:1049F00008F493C93B1508F490C98EEA92E00E942E
:104A00001F08482D50E070E060E0C854DD4F488337
:104A100059836A837B83C85BD24022E0AE0142584F
:104A20005D4FC854DD4F688179818A819B81C85B65
:104A3000D2400E94A704CE0182589D4F0E941F08B9
:104A400081E792E00E941F086A2D70E090E080E00C
:104A500022E0AE0142585D4F0E94A704CE01825869
:104A60009D4F0E941F088CEA92E00E941F088B2D28
:104A700090E0B0E0A0E022E0AE0142585D4FBC0102
:104A8000CD010E94A704CE0182589D4F0E941F08AD
:104A900081E792E00E941F08272D30E050E040E0BF
:104AA000C854DD4F288339834A835B83C85BD24077
:104AB00022E0AE0142585D4FC854DD4F68817981D4
:104AC0008A819B81C85BD2400E94A704CE01825894
:104AD0009D4F0E941F088FE692E046CEAA2011F457
:104AE0000C9420120C94A114CA52DD4F1882C65D9A
:104AF000D240C552DD4F8883CB5DD2400C94C611A5
:104B0000C552DD4F1882CB5DD2400C946A12DB0196
:104B10008F939F935BD0BF91AF91A29F800D911D0A
:104B2000A39F900DB29F900D11240895991B79E0D9
:104B300004C0991F961708F0961B881F7A95C9F72D
:104B400080950895A1E21A2EAA1BBB1BFD010DC082
:104B5000AA1FBB1FEE1FFF1FA217B307E407F5072D
:104B600020F0A21BB30BE40BF50B661F771F881F09
:104B7000991F1A9469F760957095809590959B019F
:104B8000AC01BD01CF010895052E97FB16F40094EA
:104B90000FD057FD05D0D6DF07FC02D046F408C081
:104BA00050954095309521953F4F4F4F5F4F089559
:104BB00090958095709561957F4F8F4F9F4F089589
:104BC000EE0FFF1F0590F491E02D099440D0A59FB2
:104BD000900DB49F900DA49F800D911D11240895F8
:104BE0002F923F924F925F926F927F928F929F92FD
:104BF000AF92BF92CF92DF92EF92FF920F931F93EB
:104C0000CF93DF93CDB7DEB7CA1BDB0B0FB6F8949B
:104C1000DEBF0FBECDBF09942A88398848885F84DB
:104C20006E847D848C849B84AA84B984C884DF804C
:104C3000EE80FD800C811B81AA81B981CE0FD11D30
:104C40000FB6F894DEBF0FBECDBFED010895A29F51
:104C5000B001B39FC001A39F700D811D1124911D50
:104C6000B29F700D811D1124911D0895F894FFCFFE
:104C7000D61FC11DC11D9B1DC11DC11DFD1EC11D16
:104C8000C11DC11D1320C11DC11D641FC11D5320A5
:044C9000C11DE01E44
:104C9400480DD007E803F401FA007D0064003E00EB
:104CA400320028001F00190014000F000C000A0035
:104CB40003000003000003000000020000020000E3
:104CC40000020000000000020500000300000300D1
:104CD40000000300000900000004000000000013AD
:104CE4002020456C204675657261646F726F2020C8
:104CF4000055555555555555555501005AC3BC6E6B
:104D040064626F78005472616E736D697474657255
:104D140000636F6E660072656D6F746500636C6529
:104D240061726C6973740073656E640066697265A0
:104D3400006964656E740074656D70006F726465FB
:104D440072730064697361726D00636C73006B69E4
:104D54006C6C0068770068617264776172650069E1
:104D6400676E697465720072666D000A0D4B6F6D33
:104D74006D616E646F202831362D4269742D48654B
:104D8400782D466F726D61742C204D5342207A75D4
:104D94002031207365747A656E2066C3BC7220531B
:104DA4006368726569627A756772696666293A2012
:104DB4003078000A0A0D006165736B6579005AC387
:104DC400BC6E64626F782076312F7632202D2000FD
:104DD400204B616EC3A46C6500526573657474697D
:104DE4006E6720646576696365210054783A0045EE
:104DF40052524F52202020202020202020202020EA
:104E040000205300204348004964656E7469667944
:104E140020202020202020202000784944454E5482
:104E2400002E0054656D7065726174757265202082
:104E340020202020007854454D5020002D3E550060
:104E440052783A002D2D004964656E7469667920A4
:104E540020202020202D0054656D706572617475CA
:084E640072652020202D0000E2
:00000001FF
