:1000000078C4000092C4000090C400008EC40000B8
:100010008CC400000C94DA0888C4000086C4000078
:1000200084C4000082C4000080C400000C94EB086B
:100030007CC400007AC4000078C4000076C40000CC
:1000400074C4000072C4000070C400006EC40000DC
:100050006CC400006AC4000068C4000066C40000EC
:1000600064C4000062C400000A0D001B5B31442020
:100070001B5B3144000D0A000D0A417573776168FE
:100080006C3A202845292D416E7AC3BC6E64657296
:100090002C202846296C616D65722C20285429611A
:1000A0006C6F6E2C2041626272756368206D69749A
:1000B00020616E64657265722054617374653A20C4
:1000C00000452D414E5AC39C4E44455220283230A3
:1000D000206D732900464C414D4552202833353060
:1000E000206D73290054414C4F4E2028322E343558
:1000F000207329000D0A4465727A65697420656968
:100100006E67657374656C6C74657320416E7AC339
:10011000BC6E646D697474656C0D0A3D3D3D3D3D7A
:100120003D3D3D3D3D3D3D3D3D3D3D3D3D3D3D3DFF
:100130003D3D3D3D3D3D3D3D3D3D3D3D3D0D0A0A85
:10014000005665727363686CC3BC7373656C756EBF
:1001500067206E6963687420616B74697669657283
:100160007421000D0A4B65696E6520C3846E646559
:1001700072756E67656E2067657370656963686523
:100180007274210D0A0A000D0A4572666F6C67725F
:100190006569636820676573706569636865727413
:1001A0002C2044657669636520737461727465748C
:1001B000206E6575210D0A0A000D0A446965736594
:1001C0006E205363686CC3BC7373656C2073706579
:1001D00069636865726E20286A2F6E293F200020AF
:1001E000000D0A4162627275636820776567656E0B
:1001F00020756E7A756CC3A4737369676572204548
:10020000696E67616265210D0A4B65696E6520C381
:10021000846E646572756E67656E20676573706560
:10022000696368657274210D0A0A000D0A0A4E6539
:10023000756572205363686CC3BC7373656C3A2038
:10024000000A0D000D0A0A4E6575656E20285329B7
:1002500063686CC3BC7373656C2065696E676562A7
:10026000656E2C2041626272756368206D6974202E
:1002700062656C6965626967657220616E6465724A
:10028000657220546173746521200020000D0A53AB
:1002900063686CC3BC7373656C206C742E20454519
:1002A00050524F4D3A202020200020005665727396
:1002B00063686CC3BC7373656C756E6720616B7427
:1002C000697669657274210D0A5363686CC3BC73E7
:1002D00073656C206C742E2046756E6B6D6F647543
:1002E0006C3A20000A0D416B7475656C6C65204595
:1002F000696E7374656C6C756E673A20003D3D3DA8
:100300003D3D3D3D3D3D3D3D3D3D3D3D3D3D3D3D1D
:100310003D3D3D3D3D3D3D3D3D3D3D3D3D3D0A0D70
:10032000000A0D4B6F6E66696775726174696F6E56
:1003300020646572205665727363686CC3BC737306
:10034000656C756E670A0D000A0D4B65696E652058
:10035000C3846E646572756E6720766F7267656EB2
:100360006F6D6D656E0A0A0D000A0D4E657573742A
:100370006172742E2E2E0A0A0D004665686C657235
:10038000212042697474652065726E6575742076EB
:10039000657273756368656E210A0D000A0A0DC3E4
:1003A000846E646572756E67206572666F6C6772C5
:1003B00065696368210A0D001B5B33376D001B5BA9
:1003C00033316D002C20454E544552203D20616C48
:1003D0007465722057657274293A20003530000A1E
:1003E0000D4E65756520536C6176652D4944202856
:1003F00030312D001B5B33376D001B5B33316D00DB
:100400002C20454E544552203D20616C746572206D
:1004100057657274293A20003530004E65756520A5
:10042000556E697175652D4944202830312D000ABB
:100430000D000A0D00284929447320C3A46E646589
:10044000726E2C2041626272756368206D6974203F
:1004500062656C6965626967657220616E64657268
:1004600065722054617374652120000A0A0A0D0028
:100470001B5B33376D000A0D004645484C45520062
:100480001B5B33316D00416B7475656C6C6520537B
:100490006C6176652D49443A2020001B5B33376D33
:1004A000000A0D004645484C4552001B5B33316D38
:1004B000000A0A0D416B7475656C6C6520556E6998
:1004C0007175652D49443A20000A0D416E676573C8
:1004D00063686C6F7373656E6573204465766963DA
:1004E000653A20001B5B33376D001B5B33376D00B3
:1004F0000A0D4665686C6572206265696D20494425
:100500002D4C6164656E0A0D001B5B33316D000A72
:100510004B6F6E66696775726174696F6E73707226
:100520006F6772616D6D0A0D3D3D3D3D3D3D3D3D49
:100530003D3D3D3D3D3D3D3D3D3D3D3D3D3D0A0D4E
:10054000001B5B33336D0049442D57656368736549
:100550006C206D6974206A2062657374C3A4746929
:1005600067656E2C2061626272656368656E206DDE
:10057000697420616E64657265722054617374657C
:100580002120000A0A0D004E65756520536C6176C6
:10059000652D49443A20202020202020000A0D000B
:1005A0004E65756520556E697175652D49443A2013
:1005B0002020202020000A0D000A0D0042697368E7
:1005C000657269676520536C6176652D49443A20F0
:1005D00020000A0D004269736865726967652055DD
:1005E0006E697175652D49443A20001B5B33376D88
:1005F000000A0A52656D6F74652D4B6F6E666967F0
:1006000075726174696F6E7370726F6772616D6D10
:100610000A0D3D3D3D3D3D3D3D3D3D3D3D3D3D3D6D
:100620003D3D3D3D3D3D3D3D3D3D3D3D3D3D3D0A2D
:100630000D001B5B33336D000A0D000A0D46656823
:100640006C657268616674652F646F7070656C7438
:1006500065204944733A200009000A0D002D2D2D14
:100660002D002D00200020002C20002C20002D2DFE
:100670002D2D006E2E612E002C20002D002C200030
:100680002E002D2D2D2D002C2000300020002D2D92
:100690002D003A200030000A0D556E697175652DE8
:1006A00049443A20536C6176652D49442C204261BF
:1006B0007474657269657370616E6E756E672028FB
:1006C00056292C205363686172663F2C2054656D57
:1006D000706572617475722028C2B043292C204B5A
:1006E000616E616C7A61686C2C20525353492028EA
:1006F00064426D290A0D001B5B33376D003D3D3DA3
:100700003D3D3D3D3D3D3D3D3D3D3D3D0A0D000AEC
:100710000D53797374656DC3BC62657273696368E8
:10072000740A0D001B5B33336D000A0A0D000920AB
:100730000920092009000A0D002D2D2D003A200066
:100740000A0D536C6176652D49443A20416E7A61F9
:10075000686C20426F78656E0A0D000A0A0D00C2AF
:10076000B043006E2E612E0054656D706572617429
:1007700075723A2000556E67C3BC6C74696765205A
:1007800045696E6761626500203D20000A0D4B617E
:100790006E616C3A20200900536C6176652D4944E6
:1007A0003A09000D0A000A0D4D6F64757328662F13
:1007B000692F74293A20000A0A0D000A0D49442DB8
:1007C0004B6F6E66696775726174696F6E7362658F
:1007D0006665686C207769726420676573656E640E
:1007E0006574210A0D000A0D49447320776572640F
:1007F000656E206C6F6B616C20616E6765706173F4
:100800007374210A0D000A0A0D00323033350032AC
:10081000303232303632390044617465636F64655A
:1008200020000A0D00202D20383638204D487A004F
:100830004357000A0D52464D0061746D6567613380
:10084000323870000A0D000A0D000D0A0A0A000D68
:100850000A004F6666656E00202020200020003DC3
:100860003D3D3D3D3D3D3D3D3D3D3D3D3D3D3D3DB8
:100870003D3D3D3D3D3D3D3D3D0A0D4B616E616C55
:100880002057696465727374616E640D0A000A0A08
:100890000D47656D657373656E65204B616E616CA8
:1008A00077696465727374C3A46E64650A0D000A87
:1008B0000D00202D2D3E203A203078001B5B314466
:1008C0000020001B5B3144001B5D303B454C204643
:1008D00055455241444F524F07001B5B334A001BA2
:1008E0005B303B3048001B5B324A002D003000205B
:1008F000000011241FBECFEFD8E0DEBFCDBF12E055
:10090000A0E0B1E0ECECF1E402C005900D92A8315A
:10091000B107D9F722E0A8E1B2E001C01D92A832E8
:10092000B207E1F709D50C94CC206ACB9FEB980F66
:100930009A3130F0843C21F0863D11F08C3D09F471
:1009400080620895FC01DB018C919081811104C0CB
:1009500081E0911105C00895319611968917A1F390
:1009600080E0F9CF40E050E066E970E04150510985
:100970006109710921F09091C00095FFF7CF809334
:10098000C60080E00895CF93DF93EC01FE018491CF
:100990002196882319F0E6DF8823C1F3DF91CF91F8
:1009A00008958F929F92AF92BF92EF92FF920F9312
:1009B0001F93CF93DF93CDB7DEB7A1970FB6F8940F
:1009C000DEBF0FBECDBF1A821982FE0133962FE122
:1009D000DF011D922A95E9F74836D9F510E011C0DC
:1009E000E1E0F0E0EC0FFD1FE10FF11D262F2F706D
:1009F000208344E095958795779567954A95D1F73B
:100A00001F5F611571058105910551F7112341F3B0
:100A100010FD1F5F111111C0A1960FB6F894DEBF33
:100A20000FBECDBFDF91CF911F910F91FF90EF903F
:100A3000BF90AF909F908F900895FE01E10FF11D40
:100A400080818A3020F0895C8DDF1150E3CF805D9A
:100A5000FBCF611571058105910521F48DEE98E0BC
:100A600092DFDACF00E097FF08C0909580957095EF
:100A700061957F4F8F4F9F4F01E010E03AE0832E4A
:100A8000912CA12CB12C611571058105910511F0F6
:100A9000113281F4002319F08BEE98E074DF1123FA
:100AA00009F4BACFFE01E10FF11D8081805D5ADFAC
:100AB0001150F5CFEE24E394F12CEC0EFD1EE10E67
:100AC000F11CA50194010E945A20F7016083B9012D
:100AD000CA011F5FD8CFCF92DF92EF92FF92CF93E0
:100AE000DF93CDB7DEB72A970FB6F894DEBF0FBEFF
:100AF000CDBF69837A838B839C83498789819A815F
:100B0000AB81BC818D839E83AF83B8871A868AE0D0
:100B1000C82ED12CE12CF12C8D819E81AF81B8851E
:100B2000892B8A2B8B2B01F589819A81AB81BC8122
:100B3000B7FF03C0998591509987AA85B985BA17DF
:100B400018F544E669817A818B819C812ADF2A9697
:100B50000FB6F894DEBF0FBECDBFDF91CF91FF90EF
:100B6000EF90DF90CF9008956D817E818F81988581
:100B7000A70196010E945A202D833E834F835887F8
:100B80009A859F5F9A87C8CF89859A85891B8D83AF
:100B9000BD81BB23B1F28FEE98E0F5DEAD81A150AF
:100BA000AD83F6CFCF93DF93EC0190E0888188236B
:100BB00011F0992319F0DF91CF9108952196D2DE9B
:100BC000982FF4CF80E090E0A6E9B0E00197A1096A
:100BD000B10939F02091C00027FFF8CF8091C600FD
:100BE000089580E00895CF93DF93ECDFC82F8A301B
:100BF00029F4DFEF8D2FDF91CF9108958D30C9F368
:100C000080ED8C0F863088F78C2FACDE8AE0C89F91
:100C1000C02D1124C051D6DF8A3059F38D3049F3ED
:100C2000D82FDC0F9FEF9D0F9233A8F79BDEE2CF0A
:100C300086EE98E0A8DE8FED98E0A5DE8AED98E0DC
:100C4000A2DE88EC98E09FCE462F572FBC012B9850
:100C50002D984298BB27A72F962F852F8EBD762FD4
:100C6000652F542F44270DB407FEFDCF452F562F77
:100C7000672F77274EBD0DB407FEFDCF84E086B900
:100C800086B908958EBD0DB407FEFDCF8EB50895CB
:100C9000CF93419887E2F6DF80E0F4DFC82F80E051
:100CA000F1DF419A9C2FCF910895CF93C82F892FC0
:100CB000662361F080682D982B984198E3DF8C2F94
:100CC000E1DF419A2B982D98CF9108958F77CFEF40
:100CD000F2CF61E08BE193E1E8DF61E085E59AE541
:100CE000E4DF61E080E79CE5E0CFCF92DF92EF9216
:100CF000FF9261E084E091E0D8DFC12CD12C8BE43D
:100D0000E82EF12C81E0C81AD108E108F10831F091
:100D100060E08FEF97E2C9DF87FFF4CF81E0CD2855
:100D2000CE28CF2809F080E0FF90EF90DF90CF90A1
:100D30000895CF92DF92EF92FF92CBDF60E08FEFCA
:100D40009DE3B3DF90E061E084609D63AEDF61E02E
:100D500080E191E0AADFC12CD12C8BE4E82EF12CAC
:100D600081E0C81AD108E108F10831F060E08FEFA6
:100D700097E29BDF87FFF4CF81E0CD28CE28CF28F4
:100D800009F080E0FF90EF90DF90CF90089580DF32
:100D900080FD1DC082FD19C092FF0FC061E080E19F
:100DA00098E283DF60E08FEF9DE37FDF90E061E01A
:100DB00084609D637ADF82E0089584FF08C061E06B
:100DC00080E198E272DF84E0089581E0089580E098
:100DD00008955D9A5F9A5E9A289A08955D985F9843
:100DE0005E98289808955D9A08955F9A08955E9A8E
:100DF0000895289A08959B01F999FECF32BD21BD2F
:100E000080BDFA9AF99A12BC11BC08959C01F99917
:100E1000FECF32BD21BDF89A80B512BC11BC089539
:100E2000462F572FBC012B982D984098BB27A72FF2
:100E3000962F852F8EBD762F652F542F44270DB406
:100E400007FEFDCF452F562F672F77274EBD0DB4D8
:100E500007FEFDCF81E086B986B90895862798E020
:100E60002CE8382F31708695311182279150C9F7BF
:100E70000895B0E0A0E0EFE3F7E00C948F20082F96
:100E8000162FB82EB60E682F80E1E8DFE82E612F0E
:100E900080E1E4DFC82E612F8E2DE0DFD82E88E1BF
:100EA000F82ECF2DD0E0BE01802FA5DFBE016F5FF1
:100EB0007F4F812FA0DFBE016E5F7F4F8B2D9BDFA9
:100EC000BE016D5F7F4F8E2D96DFBE016C5F7F4F41
:100ED0008C2D91DFBE016B5F7F4F8D2D8CDF84E207
:100EE000F80E84E8F812DDCFCDB7DEB7E9E00C9458
:100EF000AB20B0E0A0E0EFE7F7E00C948D20D82F16
:100F0000C62F88E1F82E9D2E960E0F2D10E0C801F9
:100F10007DDFA82EC801019679DFB82EC8010296A0
:100F200075DFC82EC801039671DFE82EC80104964C
:100F30006DDFD82EC801059669DF182FAD1213C0DA
:100F4000BC1211C0C9100FC06D2F80E187DFE812FD
:100F50000AC06C2F80E182DFD81205C06C2F8E2D65
:100F60007DDF181759F084E2F80E84E8F812CDCF2F
:100F700080E0CDB7DEB7EBE00C94A92081E0F9CF9B
:100F8000B0E0A0E0E6ECF7E00C948D207C016B0172
:100F900000E084E2982E099D50011124C501489675
:100FA00035DFC82FC501499631DFD82F682F8C2F28
:100FB000A0DF182F882391F188E190E027DF182F18
:100FC0008CE390E023DF1817F1F088E190E01EDF5A
:100FD000182F80E690E01ADF181315C089E190E021
:100FE00015DF182F8DE390E011DF18130CC089E195
:100FF00090E00CDF182F81E690E008DF181303C0A3
:101000006D2F8C2F36DFF701C083F601D08311E0FE
:10101000812FCDB7DEB7EBE00C94A920023061F44C
:101020006D2F8C2F66DF811107C085E4F701808367
:1010300085E6F6018083ECCF0F5F033009F0ABCF7C
:10104000E7CF20917C00287F20937C0090917C004A
:10105000982B90937C0029E090E080E030917A001A
:10106000306430937A0030917A0036FDFCCF4091A5
:10107000780050917900840F951F293011F490E089
:1010800080E0215059F723E0969587952A95E1F75E
:101090000895219A9AE09A95F1F78111219894E2A6
:1010A0009A95F1F70000199B80E097E99A95F1F77E
:1010B000219896E09A95F1F700C00895CF93DF93B9
:1010C000C82FD8E08C2F8170E4DFC6958111C068ED
:1010D000D150C1F78C2FDF91CF9108952998219A93
:1010E0008CEC94E00197F1F700C00000219898ED96
:1010F0009A95F1F7000083B1EAE2F4E03197F1F755
:1011000000C0869581700895CF92DF92EF92FF9292
:10111000CF93DF93882309F44BC0E0DF8CECCEDF64
:101120008EE4CCDF8DE7CADF88EDC8DF8FE1C6DF54
:10113000D5DF8CECC3DF84E4C1DFC12C5CE2D52EAB
:10114000EE24E394F12C81E0C81AD108E108F108FB
:1011500021F081E09EDF8823B1F3C0DF8CECAEDFAD
:101160008EEBACDF8FEFAADFC82FD0E08FEFA6DFCA
:1011700090E0982F88278C0F9D1F9C012227387F95
:10118000232BA1F09195819591092FEF089634E0DA
:10119000969587953A95E1F7829F802D1124DF91EE
:1011A000CF91FF90EF90DF90CF90089521E0EECFA8
:1011B00080E8F5CF1F921FB61F9211248F93809164
:1011C0002702811103C081E0809327028F911F9035
:1011D0001FBE1F9018951F921FB61F9211242F93A8
:1011E0008F939F93AF93BF93809126028F5F8093DD
:1011F00026028D3780F1809125028160809325023F
:101200001092260280912402811125C08091220231
:1012100090912302039760F0809122029091230223
:10122000459708F44FC084E0809324021092210275
:101230008091220290912302892B09F072C0809143
:1012400020028F5F80932002893008F06DC01092D9
:101250002302109222028091250281FF09C0809111
:101260001E0290911F02019690931F0280931E020E
:101270008091250283FF05C080911D028F5F8093BE
:101280001D028091190290911A02A0911B02B09147
:101290001C02892B8A2B8B2B19F081E0809318027A
:1012A00080912702882329F0809125028460809311
:1012B0002502BF91AF919F918F912F911F901FBEDB
:1012C0001F9018958091220290912302069710F0AA
:1012D00082E0AACF8091220290912302069708F023
:1012E000A7CF8091220290912302209121022817FA
:1012F0001906A0F482E0809324028091220290914A
:1013000023028F3F910509F038F4809122029091D9
:101310002302809321028CCF8FEFFBCF1092240207
:1013200087CF1092200293CF8FEF809324021092E8
:101330002002109221028BCFCDB7DEB7C85CD2401D
:101340000FB6F894DEBF0FBECDBF0FB6F894A895C8
:1013500080916000886180936000109260000FBEF1
:1013600043983B9A6E012AE9C21A2EEFD20A80E412
:10137000D6011D928A95E9F710E0FE01E752FE4F73
:101380001192119288E2DF011D928A95E9F7FE0120
:10139000E45DFD4F1192119287E2DF01482E1D920C
:1013A0004A94E9F7FE01EB5AFD4F11921192DF01C9
:1013B0001D928A95E9F7FE01EA55FE4F11921192AE
:1013C00081E3DF011D928A95E9F7FE01E258FD4FA6
:1013D000119211928EE0DF01482E1D924A94E9F796
:1013E000FE01E257FD4F11921192DF011D928A9585
:1013F000E9F78091000190910101A0910201C2568C
:10140000DD4F88839983AA83CE59D2402A9A229AA3
:101410005C9A239A549A259A3A9A389A2B98429829
:1014200040982D9893E020E234E041E084E123B934
:1014300023B98150E1F736B936B946B946B991506A
:10144000A9F7E9E9F9E03197F1F700C05C980CB42D
:1014500006FC03C08CB581658CBD80916400806CF6
:101460008093640080B7806880BF8FEF9FE2909385
:10147000890080938800809181008860809381003A
:1014800080916F00826080936F0080918100826004
:10149000809381002898209A5E98569A5F98579A70
:1014A0005D98559A80B7806880BF80917C00856C7C
:1014B00080937C0080917A00866080937A0080918E
:1014C0007A00806880937A0080917A0080648093AB
:1014D0007A0080917A00082F007486FDFACF8091FF
:1014E00078009091790082E3CD5FDD4F8883C3500F
:1014F000D2408983BE016D5F7D4FCE01019640DDF4
:10150000811101C066DCCD5FDD4FF880C350D24051
:101510002980222009F408C4FF2009F409C48DE6BB
:1015200091E074DCC655DD4F8883CA5AD240853FAE
:1015300071F0833261F0823051F06DE671E082E04B
:101540005ADCF2E0C655DD4FF883CA5AD24020E09B
:1015500031E0822F90E0E9EDF1E0EC0FFD1FE80FA4
:10156000F91F3083E5E5F2E0EC0FFD1FE80FF91FEE
:1015700010824CE2442E42E0542E4C0E5D1E840D2F
:10158000951DDC011C922F5F283219F797E080E847
:10159000E1E0F0E0EC0FFD1F909FE00DF11D112444
:1015A0001082118212828383858316820F5F023339
:1015B00079F700E180E090E8A0E0B0E0202F215032
:1015C000330BF901EE0FFF1FEE0FFF1FEC0DFD1D9A
:1015D00080839183A283B383B695A79597958795CA
:1015E000015061F75A9A5298809168008460809304
:1015F000680080916D00846080936D0043983B9AF1
:10160000EDDB8FB7F8941092C5009FE39093C40070
:1016100098E19093C10096E09093C200589A8FBFD2
:1016200085E0E82EDD24D39459DD93B19695917031
:101630009D25980F090FEA94E110F6CF002309F4D5
:1016400087C32198299AC754DD4F1882C95BD240BD
:10165000C754DD4F8881C95BD24056DDC555DD4F8B
:101660008883CB5AD240419A2C9A2498239A259A5F
:10167000399A0CB406FC03C08CB581658CBD60E062
:101680008FEF90E112DBCC53DD4F8883C45CD240F6
:10169000B3E0EB2E86E696E20197F1F7000061E0F9
:1016A00082E092E002DBA0E84A2E512C612C712CE2
:1016B00078E1872E912CA12CB12CA5019401C301B6
:1016C000B2010E941D209B01AC0162E0220F331F7A
:1016D000441F551F6A95D1F760E078E488EE91E0E9
:1016E0000E943820203238434105510558F4D50175
:1016F000C401840D951DA61DB71D4297A105B10516
:1017000008F02DC3769467945794479400E04114F1
:1017100051046104710409F03FC3F0E18F1A91088C
:10172000A108B10822E0B694A794979487942A95CB
:10173000D1F7880C880C880C082930E8432E512CEE
:10174000612C712CB8E18B2E912CA12CB12CA50110
:101750009401C301B2010E941D209B01AC01A2E0D3
:10176000220F331F441F551FAA95D1F760E078E47C
:1017700088EE91E00E94382027313A454105510515
:1017800058F4D501C401840D951DA61DB71D4297BF
:10179000A105B10508F006C3769467945794479461
:1017A00080E0411451046104710409F018C370E130
:1017B000871A9108A108B10872E0B694A79497948B
:1017C00087947A95D1F7880C880C880C882A61E078
:1017D00080E095E06ADA61E08DE996E066DA61E042
:1017E0008DE093E062DA61E08DE094E05EDA802FD4
:1017F00090E061E08064996158DA882D90E061E0C2
:1018000080649A6152DA61E080E495E24EDA61E048
:1018100087EA96E24ADA61E089ED97E046DA61E02C
:1018200080E698E042DA61E080E099E03EDA61E04B
:1018300080E997E33ADA61E088E298E336DA61E03A
:1018400080E89CE332DA61E080E39DE32EDA61E038
:1018500080E09CE22ADA61E084E09DE226DA61E041
:1018600088E89EE222DA61E08DE29FE21EDA61E022
:1018700084ED90E31ADA61E080E098E116DA61E045
:101880008DE298E512DA61E080E39FE60EDA61E02E
:101890008FEC99E20ADA61E08DE29EE106DA61E01E
:1018A00080E09AE202DA9FE09150292F30E051F077
:1018B000F901EE0FFF1FED5FFE4F4081518148326D
:1018C000510590F361E0C9019261EFD960E08FEFBB
:1018D0009DE2EBD9082F60E08FEF9EE2E6D9282F3A
:1018E00030E053E0359527955A95E1F7822F8770C0
:1018F0000B5E800F869590E061E09B62D6D961E037
:101900008BE193E1D2D961E08FE991E1CED9EA94FC
:10191000E110C0CE61E080E89AE0C7D9812C912C1B
:101920004BE4A42EB12C81E0881A9108A108B108DB
:1019300009F05BC2FED960E080E097E0B6D9C256FC
:10194000DD4F8883CE59D24060E080E098E0ADD989
:10195000C156DD4F8883CF59D24060E080E099E0E6
:10196000A4D9C056DD4F8883C05AD24060E08FEFC3
:101970009DE39BD990E061E081609D6396D900E092
:10198000C02ED12CC601809641DA9EE3C90ED11C2F
:1019900061E09C2D8AD90F5F003191F760E08FEFF5
:1019A0009DE283D9082F60E08FEF9EE27ED990E020
:1019B000B3E095958795BA95E1F787709927800FE1
:1019C000911D45962C0155944794C454DD4F59827E
:1019D0004882CC5BD24060E08FEF9DE266D9082F51
:1019E00060E08FEF9EE261D990E023E095958795C6
:1019F0002A95E1F787709927800F911DC5963C01C4
:101A000075946794CE53DD4F79826882C25CD24070
:101A1000E5D92FEF3FE744E0215030404040E1F767
:101A200000C000006FEF7FEF80E090E0F9D9E1D9CE
:101A30005FEF6FE774E0515060407040E1F700C025
:101A40000000D3D98FEF9FE7A4E081509040A040E1
:101A5000E1F700C00000C7D9BFEFEFE7F4E0B150F5
:101A6000E040F040E1F700C00000C1D92FEF3FE7B0
:101A700044E0215030404040E1F700C00000AED9C2
:101A80005FEF6FE777E0515060407040E1F700C0D2
:101A900000000F2D02950F70F4FCABD901FDA5D904
:101AA00002FDA1D9087009F0A2D98FEF9FEFABE337
:101AB00081509040A040E1F700C000008FD9BFEFF7
:101AC000EFE7F7E0B150E040F040E1F700C0000080
:101AD0008ED92FEF3FE744E0215030404040E1F7FE
:101AE00000C0000080D95FEF6FE774E051506040A4
:101AF0007040E1F700C0000078D98FEF9FE7A4E0C5
:101B000081509040A040E1F700C0000072D9BFEFC3
:101B1000EFE7F4E0B150E040F040E1F700C0000032
:101B20005DD92FEF3FE747E0215030404040E1F7DB
:101B300000C00000F0FC5DD9F1FC57D9F2FC53D98C
:101B4000F3FC55D95FEF6FEF7BE35150604070407D
:101B5000E1F700C0000060E070E0CB0161D93ED940
:101B60008FEF9FEFA5E081509040A040E1F700C0CB
:101B700000C0332433944A9B40C1312C5E9880E7E7
:101B8000CB5ADD4F8883C555D240CA5ADD4F2882D3
:101B9000C655D240C95ADD4FF882C755D24085E0BC
:101BA00050DA4BE0489F9001499F300D1124205E90
:101BB0003F4FF6E036952795FA95E1F7C85ADD4F85
:101BC0002883C855D240C75ADD4F3882C955D24004
:101BD000C555DD4F4880CB5AD240C65ADD4F4882AA
:101BE000CA55D24080E1C55ADD4F8883CB55D240DB
:101BF00080E8C45ADD4F8883CC55D24060E080E055
:101C000099E253D88695C35ADD4F8883CD55D2408B
:101C1000106402E181E0809327027894822D90E0A5
:101C20009C012F5F3F4F4AE0429F3001439F700C61
:101C30001124C054DD4F79826882C05CD240930188
:101C40002A503109C254DD4F39832883CE5BD240FC
:101C5000C954DD4F1882C75BD240C854DD4F18828B
:101C6000C85BD240C654DD4F1882CA5BD240B12C4B
:101C7000CE54DD4F188219821A821B82C25BD24079
:101C8000C255DD4F188219821A821B82CE5AD24069
:101C900030E7CA55DD4F3883C65AD240EE24E3946C
:101CA00041E0CA54DD4F4883C65BD24026EA31E0AA
:101CB0002C0F3D1F2F0D311DB90161507109CB5300
:101CC000DD4F79836883C55CD240019777E0789FC8
:101CD0009001799F300D112444244394512C4C0ED3
:101CE0005D1E420E531EC455DD4F59824882CC5AA8
:101CF000D24092012F5F3F4FC953DD4F3983288374
:101D0000C75CD24080912702882309F488C0DFB6DF
:101D1000F89480912702813009F472C0823009F46E
:101D2000E4C0109227027AC062E3262EF11002C0AE
:101D300052E3F52E6F2D822D9CD888E19EE00FB6E0
:101D4000F894A895809360000FBE90936000FFCF39
:101D50003FE6C754DD4F3883C95BD24079CC94E06D
:101D6000891A9108A108B108A0E18A169104A1047A
:101D7000B10408F0A2CCF0E18F2E912CA12CB12C53
:101D8000B1E04B1651046104710409F496CC7694C9
:101D90006794579447948CCC76946794579447945F
:101DA0000F5FB5CC24E0821A9108A108B10830E198
:101DB00083169104A104B10408F0C9CC90E1892EE6
:101DC000912CA12CB12C41E0441651046104710402
:101DD00009F4BDCC7694679457944794B3CC769429
:101DE0006794579447948F5FDCCC60E080E09AE082
:101DF0000E94550686FF97CD9DCD0E94F706BFCE67
:101E000082E080932702C954DD4F1882C75BD2401D
:101E100031E0CA54DD4F3883C65BD240DFBECC53BD
:101E2000DD4F2881C45CD240243221F00E94F506A7
:101E30000E94F3068091C00087FB10F9312F3170AA
:101E4000A32E10FF7AC35FB6F8941E7F0E94F90696
:101E50000E94E205C752DE4F8883C95DD1408F37AB
:101E600009F43DC087FD96C028EF280F263038F4CE
:101E700091E001C0990F2A95EAF7957281F50E94C9
:101E80009604C752DE4F8883C95DD1400E94B204D8
:101E9000C12C0E94E2050E949604D82E4DE08417C2
:101EA00009F44DC25AE0851709F449C268E0861763
:101EB00019F07FE7871344C2C1103BC2C652DE4F00
:101EC0001882CA5DD14083EC98E00E94C30481EC83
:101ED00098E00E94C3048CEB98E00E94C304C752B0
:101EE000DE4F1882C95DD14072C08091250282FF09
:101EF00095CF809125028B7F80932502CA54DD4FB8
:101F00004880C65BD240442031F199B1292F24701A
:101F100092FB882780F9C654DD4F5880CA5BD240B7
:101F200058120C941120C954DD4F3881C75BD24040
:101F30003F5FC954DD4F3883C75BD2403F3110F457
:101F40000C941620332433942111312CCA54DD4FC4
:101F50008883C65BD24010922702311003C0439899
:101F60005E9807C00E94F70660E070E0CB010E9417
:101F700010070260CA54DD4F4880C65BD240C65489
:101F8000DD4F4882CA5BD240CA54DD4F1882C65B1F
:101F9000D24044CF8F3F09F072CF0E94E205C65273
:101FA000DE4F8883CA5DD1400E94E205C552DE4FF4
:101FB0008883CB5DD1400E94E205C452DE4F888306
:101FC000CC5DD140C352DE4F1882CD5DD14063E578
:101FD00071E0CE0187529E4F0E94A204882311F027
:101FE0001D7B126068E571E0CE0187529E4F0E9412
:101FF000A204882311F000641F7B6FE571E0CE011D
:1020000087529E4F0E94A2048111006169E671E02F
:10201000CE0187529E4F0E94A20481111BC06EE622
:1020200071E0CE0187529E4F0E94A204811112C01E
:1020300063E771E0CE0187529E4F0E94A204811196
:1020400009C069E771E0CE0187529E4F0E94A20449
:10205000882311F01F79106264E671E0CE01875287
:102060009E4F0E94A204882311F001601F7B6EE73F
:1020700071E0CE0187529E4F0E94A204811106603A
:1020800062E871E0CE0187529E4F0E94A204811146
:102090000E94180666E871E0CE0187529E4F0E94AA
:1020A000A204811108606BE871E0CE0187529E4F57
:1020B0000E94A204811108C06EE871E0CE0187522F
:1020C0009E4F0E94A2048111006267E971E0CE0177
:1020D00087529E4F0E94A204882361F184EF90E012
:1020E0000E94C304C655DD4F9881CA5AD240953F1D
:1020F00009F03DC185EE90E00E94C30488E790E0BE
:102100000E94C3040E94E205D82E8823D9F30E94BE
:10211000B20485E790E00E94C3048D2D806286366C
:1021200009F432C1843709F444C1E2E0DE2E853679
:1021300009F42CC16FE971E0CE0187529E4F0E94D5
:10214000A204882309F457C083EA91E00E94D205D3
:10215000812C54E0752E90E080E06C0144E0CC0CC2
:10216000DD1C4A95E1F70E94E205982E0E94B20418
:10217000892D806290ED980F9A3038F09FE9980F82
:10218000963008F019C199EA980F81E09F3F09F055
:1021900080E0880E9601292BC9017A947110DDCF59
:1021A000811025C08F3F980711F1692F661F6627A0
:1021B000661F0E945506D82E82EB98E00E94C30449
:1021C0004D2D50E070E060E0CE55DD4F48835983DF
:1021D0006A837B83C25AD24048E6CE55DD4F688180
:1021E00079818A819B81C25AD2400E94D1048BEEB0
:1021F00091E00E94D2056FEE71E0CE0187529E4FB2
:102200000E94A204882309F435C1FE01ED5FFD4F51
:10221000119211928EE0DF011D928A95E9F781E219
:1022200093E00E94C3048DEF92E00E94C30484EE09
:1022300092E00E94C30460E08FEF9DE30E94550688
:10224000B82FB1708B2E80FF58C18CEA92E00E94AB
:10225000C304CC24CA943EE3D32E60E0C6010E949E
:102260005506282F30E050E040E0CE55DD4F288362
:1022700039834A835B83C25AD24048E6CE55DD4F4C
:10228000688179818A819B81C25AD2400E94D1049F
:102290008AEA92E00E94C304D394C1144EE4D406A7
:1022A000E0F28DE892E00E94C304D12C8D2D90E0E5
:1022B00080960E940607282F30E050E040E0CE557F
:1022C000DD4F288339834A835B83C25AD24048E674
:1022D000CE55DD4F688179818A819B81C25AD24077
:1022E0000E94D1048BE892E00E94C304D39430E1B1
:1022F000D312DCCF84E492E00E94C3040E94E20582
:102300008823E1F3D82E6894D5F88D2D0E94B2046D
:1023100081E492E00E94C30443E7D412ABC08BE295
:1023200092E00E94C304912CC12C612C92E0792E82
:1023300046C0CA948BE690E00E94C304AACDD12C7B
:10234000EAEDF1E0EC0FFD1FEC0DF11DD0828D2DBB
:102350000E94B204DD2011F40C940B20C39487E298
:10236000C81297CD88E690E00E94C30430CEC655CF
:10237000DD4FA881CA5AD24085ED90E0A33209F41E
:10238000BBCE81EC90E0B8CE73E2D72EC655DD4FC0
:102390004880CA5AD2404D1409F4CCCE6DE671E0A3
:1023A0008D2D0E94FB06C655DD4FD882CA5AD240F9
:1023B000C1CE65EFD62EEACF9FEFE7CE782C6294A0
:1023C00020EF62220E94E205D82E0E94B2048D2DD9
:1023D000806290ED980F9A3030F09FE9980F963018
:1023E00090F499EA980F81E09F3F09F080E0C80ED1
:1023F000692A51E07512E2CFCC2039F081EE91E0EC
:102400000E94C30437C09FEFEECF8FED91E00E9492
:10241000C304E3E0F2E0EC0FFD1FE90DF11D608263
:10242000939460E1961280CF89EB91E00E94C304FF
:102430000E94E20580628A3629F08E36C9F783E66B
:1024400091E0DECF8C2D90E0BC01605E7F4FA3E079
:10245000B2E0AC0FBD1F8A0F9B1FFC0180810E9460
:10246000FB06C394F0E1CF12EDCF87E891E00E9424
:10247000C3040860C752DE4F8881C95DD1408F3FD9
:1024800009F04DC0C652DE4FD880CA5DD1408D0DD7
:10249000823308F044C0C552DE4FC880CB5DD140C6
:1024A0008FEF8C0D8031D8F5C452DE4F9880CC5D13
:1024B000D1406D2D80E00E942E076C2D0E942E07CA
:1024C00098122DC086E6CB5ADD4F8883C555D24081
:1024D000CA5ADD4FD882C655D240C95ADD4FC8828C
:1024E000C755D2401064FD1459F0EA2C56E6CA557F
:1024F000DD4F5883C65AD24012C081E491E080CFAC
:1025000012FD7DC3C25DDD4FC882CE52D240146041
:10251000EA2C26E6CA55DD4F2883C65AD2402898B1
:10252000C752DE4F8881C95DD14081508E3F20F473
:102530008FEA98E00E94C3045FBEDFB6F8940E9461
:10254000C706C554DD4F8883CB5BD24081E017FDC1
:1025500008C0C554DD4F4881CB5BD240413009F003
:1025600080E080FB17F9C554DD4F5881CB5BD2402A
:10257000523061F462E0B61649F0809122029091E7
:10258000230201969093230280932202DFBE311032
:1025900004C08091250280FD02C001FF91C017FD9B
:1025A0008FC016FF08C0CA55DD4F7881C65AD24089
:1025B0007A3709F085C05FB6F8940D7F80912502C7
:1025C0008E7F80932502D12C16FF0AC081E0CA5568
:1025D000DD4F9881C65AD2409A3709F080E0D82E54
:1025E0004398C12CCE55DD4F188219821A821B8266
:1025F000C25AD240812C912C5401839489E1482EF7
:1026000091E017FD06C00E94C70691E0813009F0F5
:1026100090E090FB17F9D110FAC2812F012E000C27
:10262000990B792E771C7724771C97FD3EC0C50146
:10263000B4010E942406A3E3B3E11197F1F784E00B
:102640000E942108489E9001499E300D1124339527
:10265000632E6694EEE7F2E0EC0FFD1FEC0DF11D2A
:10266000862D611001C081E0808360E070E0CB01C5
:102670000E942406B1E3B615A0F0CE55DD4F2881A7
:1026800039814A815B81C25AD240282939294A2995
:102690005B29CE55DD4F288339834A835B83C25A39
:1026A000D240880C991CAA1CBB1CC39430E1C316F1
:1026B00009F4AFC2772009F4A3CF16FDBCC25FBEF8
:1026C00080911D028739A0F0DFB6F8948091250231
:1026D000877F8093250210921D0261E0C454DD4F74
:1026E00088819981CC5BD2409B620E945506DFBEF7
:1026F000802F8670843009F05CC017FD5AC0AFB6D9
:10270000F8940B7F8EE898E00E94C3048FE598E070
:102710000E94C304B12CB8E0BB1520F08DE598E011
:102720000E94C304CB2CD12CC60101962C01990F19
:1027300066087708CE55DD4F488259826A827B82CF
:10274000C25AD24044E6C301B2010E94D10488E5D6
:1027500098E00E94C304EEE7F2E0EC0FFD1FEC0DE1
:10276000FD1D8081823308F089C2282F30E050E0BF
:1027700040E0CE55DD4F288339834A835B83C25ABC
:10278000D24044E6CE55DD4F688179818A819B81B4
:10279000C25AD2400E94D1048FE498E00E94C30440
:1027A000B39430E1B312B7CF8AE498E00E94C30437
:1027B000AFBE05FF46C0DFB6F8940F7D87E498E012
:1027C0000E94C30486EF91E00E94D20544E660E1D6
:1027D00070E080E090E00E94D10485E092E00E94E9
:1027E000D20584E498E00E94C30489E398E00E9443
:1027F000C30483E398E00E94C30444E665E470E008
:1028000080E090E00E94D10480E398E00E94C3043D
:1028100085E298E00E94C30482E298E00E94C3042B
:1028200088E198E00E94C3048FE098E00E94C3040E
:102830008AE098E00E94C30486E098E00E94C30406
:10284000DFBE11FF2EC1BFB6F8941D7F0E9418068F
:1028500081E495E00E94C3048FE095E00E94C304E8
:10286000BE016F557D4FCE018D5F9D4F0E94C00709
:1028700081110CC089E095E00E94C30480EF94E0D0
:102880000E94C3048AEE94E00E94C30484EE94E0A4
:102890000E94C30489EC94E00E94C3048EE092E09D
:1028A0000E94D20581EB94E00E94C3048BEA94E07D
:1028B0000E94C304CD5FDD4F8881C350D240853470
:1028C00009F4E1C18A3018F480E30E94B204CD5FBC
:1028D000DD4F8881C350D240482F50E070E060E067
:1028E000CE55DD4F488359836A837B83C25AD240D9
:1028F00044E6CE55DD4F688179818A819B81C25A39
:10290000D2400E94D10481EA94E00E94C3048BE982
:1029100094E00E94C30486E894E00E94C30480E827
:1029200094E00E94C304CF55DD4F8881C15AD24044
:10293000853609F4ADC18A3018F480E30E94B204F0
:10294000CF55DD4F8881C15AD240482E512C712C71
:10295000612CCE55DD4F488259826A827B82C25AF1
:10296000D24044E6C301B2010E94D10486E794E05C
:102970000E94C30480E794E00E94C3048BE694E0C5
:102980000E94C30485E394E00E94C3040E94E20510
:102990008823E1F3D82E6894D5F88D2D0E94B204D7
:1029A00082E394E00E94C3048FE294E00E94C30497
:1029B000F9E65F2ED51080C18BE194E00E94C3043C
:1029C00088E194E00E94C30480E094E00E94C30484
:1029D0008AEF93E00E94C304CD5FDD4FC880C350EF
:1029E000D2400E94F3058F3F09F457C1CD5FDD4F00
:1029F0008883C350D24084EF93E00E94C3048FEDDC
:102A000093E00E94C3048CED93E00E94C30484EC25
:102A100093E00E94C3048EEB93E00E94C304CF5561
:102A2000DD4FD880C15AD2400E94F3058F3F09F490
:102A30003AC1CF55DD4F8883C15AD24088EB93E02D
:102A40000E94C304CD5FDD4F8881C350D240C812BD
:102A500008C0CF55DD4F9881C15AD240D91609F42C
:102A60002BC1CF55DD4F6881C15AD2400E94390732
:102A7000CF55DD4F6881C15AD240CD5FDD4F88818F
:102A8000C350D2400E947907882309F412C18CE90F
:102A900093E00E94C30489E693E00E94C3040860A7
:102AA000BFBE06FF8CC08FB6F8940F7B82E396E022
:102AB0000E94C30481EF95E00E94C3048BEE95E071
:102AC0000E94C30485ED95E00E94C3040E94F305B3
:102AD000982E82ED95E00E94C30466246A949614B1
:102AE00009F46CC08CEB95E00E94C3040E94F305CE
:102AF000A82E89EB95E00E94C30486EB95E00E9426
:102B0000C304A61409F45AC080EA95E00E94C304E5
:102B10000E94F305C82E8DE995E00E94C304C614F7
:102B200009F44CC087E895E00E94C3040E94F305B5
:102B3000B82E83E895E00E94C304B61409F43EC0A1
:102B40009C1002C0AB14D1F187E495E00E94C3044D
:102B50000E94E205D82E8823D9F30E94B2048D2D5D
:102B600080628A3659F583E6CB5ADD4F8883C55596
:102B7000D240CA5ADD4F9882C655D240C95ADD4F5D
:102B8000A882C755D240C85ADD4FC882C855D24026
:102B9000C75ADD4FB882C955D240291092C0FA10E9
:102BA00090C086EE97E00E94C3046B2D8C2D0E948E
:102BB0003907086087EB97E00E94C3048FBE15FFBA
:102BC00037C1AFB6F8941F7DC752DE4FD880C95DBC
:102BD000D140E9E67E2ED7107AC0CB5ADD4FD8829D
:102BE000C555D24084E6CA5ADD4F8883C655D240C7
:102BF00080E3C95ADD4F8883C755D240FAC2EA2C18
:102C000036E6CA55DD4F3883C65AD24088CC712C7F
:102C10000ECD711052CD60E070E0CB01311008C0D4
:102C2000CE55DD4F688179818A819B81C25AD2401D
:102C30000E94100742CDCA55DD4F4881C65AD24086
:102C40004A3709F03CCDFE01EB5AFD4F408321820B
:102C500080E1828320E0CF01422F50E0FC01E40FAD
:102C6000F51F6EE772E06C0F7D1F460F571FDA01EC
:102C70003C9133832F5F203179F721CD82E598E0B5
:102C80000E94C30489CD84EA94E00E94C3043BCE31
:102C900089E794E00E94C30469CECD5FDD4FC8820E
:102CA000C350D240A8CECF55DD4FD882C15AD240B2
:102CB000C5CE8AE793E0EDCE88E493E00E94C3049A
:102CC000EFCE8BEB97E00E94C304106473CF74E7E0
:102CD000B72EDB1050C0CB5ADD4FD882C555D2403D
:102CE000C754DD4F8881C95BD2400E948408C55516
:102CF000DD4F8883CB5AD24088E697E00E94C30418
:102D0000C555DD4F2881CB5AD24083E697E0203865
:102D1000B9F044E0C555DD4F6881CB5AD240062E4C
:102D2000000C770B880B990BCE55DD4F68837983A8
:102D30008A839B83C25AD2400E946B058FE597E03D
:102D40000E94C30484E7CB5ADD4F8883C555D24027
:102D500085E6CA5ADD4F8883C655D2408DE6C95AEA
:102D6000DD4F8883C755D24080E7C85ADD4F88833E
:102D7000C855D2403EC226E6D2120CC0CB5ADD4F17
:102D8000D882C555D240CC24C39488E997E02AE084
:102D9000B22EDFC186EA97E00E94C3040E94E205DA
:102DA000D82E6894D5F88D2D0E94B20483EA97E05E
:102DB0000E94C304CB5ADD4FD882C555D24036E6B7
:102DC000D31609F349E6D41609F40CCF54E7D51607
:102DD00009F486CFD12C8BE597E00E94C304DD2057
:102DE00009F414C2CB5ADD4F4880C555D240CA55AC
:102DF000DD4F4882C65AD2401064242D263691F405
:102E0000CA5ADD4F8881C655D2408F110BC0C95AAE
:102E1000DD4F8881C755D240C25DDD4F8883CE52D9
:102E2000D24014608091C00087FDF3C1AFBEED2C8D
:102E3000302F3170A32E00FF76C17FB6F8940E7F3D
:102E40000E94180684E297E00E94C3048FE097E096
:102E50000E94C3048DEF96E00E94C30487EF96E0C2
:102E60000E94C30487E996E00E94C304B12C4AE0A3
:102E7000542E53E0652E48E04B1520F085E996E08E
:102E80000E94C3048B2D90E001969C01990F440B86
:102E9000550BCE55DD4F288339834A835B83C25A55
:102EA000D24044E6CE55DD4F688179818A819B818D
:102EB000C25AD2400E94D10482E996E00E94C30423
:102EC000CC24C394D12CCC0EDD1E37E0B39EC00CB5
:102ED000D11C1124D6019C9091109EC18EE896E0E1
:102EE0000E94C30487E896E00E94C304F601818132
:102EF0008A3008F0AEC182E896E00E94C3048DE7F4
:102F000096E00E94C304992009F4D9C1D601129613
:102F10008C910E94B20488E796E00E94C304F601F7
:102F20008381803809F4D0C1282F880F330B440BDC
:102F3000550BCE55DD4F288339834A835B83C25AB4
:102F4000D24044E0CE55DD4F688179818A819B81F2
:102F5000C25AD2400E946B058BE696E00E94C304E1
:102F6000D60114968C91282F30E050E040E0CE55E9
:102F7000DD4F288339834A835B83C25AD24044E6BB
:102F8000CE55DD4F688179818A819B81C25AD240BA
:102F90000E94D10488E696E00E94C304D6011596EB
:102FA000DC90DD2009F499C1B3E6BD1520F086E67A
:102FB00096E00E94C304E9E0ED1520F084E696E077
:102FC0000E94C30482E696E00E94C3042D2D30E0E7
:102FD00050E040E0CE55DD4F288339834A835B8340
:102FE000C25AD24044E6CE55DD4F688179818A814C
:102FF0009B81C25AD2400E94D1048B2D662D0E9423
:103000002C20923009F06EC18AE596E00E94C3043C
:10301000B39432E3B3122FCF8BE396E00E94C30444
:10302000C854DD4F4880C85BD240842D90E0B0E0AA
:10303000A0E044E6CE55DD4F88839983AA83BB8305
:10304000C25AD240BC01CD010E94D10488E396E06F
:103050000E94C30490E080E0E1E0F0E0EC0FFD1F8F
:1030600027E0522E859DE00DF11D112420812A11AB
:1030700001C09F5F8F5F823379F7E5EAF1E0EC0FE3
:10308000FD1FEA0DF11D9083A39493E3692EA61012
:10309000E1CF80E497E00E94C304B12C28E02B1517
:1030A00018F080E30E94B204CB2CD12CC60101960B
:1030B000AC01990F660B770BCE55DD4F48835983D2
:1030C0006A837B83C25AD24044E6CE55DD4F688185
:1030D00079818A819B81C25AD2400E94D1048DE3BA
:1030E00097E00E94C304E6EAF1E0EC0FFD1FEC0D4F
:1030F000FD1D80818111F9C089E397E00E94C3041E
:103100008B2D63E0A9D7923009F007C186E397E0E1
:103110000E94C304B39432E3B312C0CF8AE297E0B3
:103120000E94C3047FBE402F4870842E03FFF8C066
:10313000F8945C9A88E19EE00FB6F894A895809385
:1031400060000FBE909360000E941806FFCF62E0FF
:10315000C62E0E94C3040E94E205982E8823D9F34C
:103160000E94B20460ED960E0E94E205D82E8823DC
:10317000D9F30E94B2049B9CD00C112470EDD70EA1
:1031800088E897E00E94C304DD20D9F18D2D90E0FE
:10319000B0E0A0E0CE55DD4F88839983AA83BB833E
:1031A000C25AD24092E0C91227C081E190E0A0E06B
:1031B000B0E0CE55DD4F488059806A807B80C25A8E
:1031C000D240481659066A067B06D8F444E6C30185
:1031D000B2010E94D104E5E5F2E0EC0FFD1FEC0D19
:1031E000F11DD0828CE897E055245394C51409F45E
:1031F000AECFDD24D394EFCD83E390E0A0E0B0E048
:10320000D8CF85E797E00E94C304E4CD1F7BDE2C76
:1032100009CE8091C60006CE8CE896E00E94C304D9
:10322000B9E0B91520F08AE896E00E94C304892D20
:1032300090E0B0E0A0E044E6CE55DD4F888399836E
:10324000AA83BB83C25AD240BC01CD010E94D104E3
:1032500049CE652D01D7892E282F30E050E040E07F
:10326000CE55DD4F288339834A835B83C25AD240CF
:1032700042E0CE55DD4F688179818A819B81C25AB7
:10328000D2400E946B0580E896E00E94C304482D5E
:1032900050E070E060E0CE55DD4F488359836A838B
:1032A0007B83C25AD24044E6CE55DD4F6881798196
:1032B0008A819B81C25AD2400E94D10420CE8BE7E2
:1032C00096E00E94C30427CE83E796E0911002C0E7
:1032D0008EE696E00E94C3043FCE8DE596E00E9404
:1032E000C3048BCE88E596E091CE282F30E050E0E5
:1032F00040E0CE55DD4F288339834A835B83C25A31
:10330000D24043E0CE55DD4F688179818A819B812F
:10331000C25AD2400E946B05F3CE8EE297E0F8CEFF
:1033200004FD0AC016FF76C0CB5ADD4F8881C55513
:10333000D240893609F06EC0DFB6F8940F7E80E087
:1033400090E8282F30E0E6EAF1E0EC0FFD1FE20FF5
:10335000F31F108257E0529FF001539FF00D11248C
:1033600061E070E06C0F7D1FE60FF71F1082118285
:1033700012829383958316828F5F823311F781E0E7
:10338000CB53DD4FA881B981C55CD2408C93C45525
:10339000DD4FE881F981CC5AD240F08285E00E946D
:1033A00021084BE0489F9001499F300D1124205E79
:1033B0003F4F86E0369527958A95E1F7C953DD4F53
:1033C000A881B981C75CD2402C938EE631108AE681
:1033D000C455DD4FE881F981CC5AD2408283C5556E
:1033E000DD4F4880CB5AD2404382158260E080E0B6
:1033F00099E20E9455068695C455DD4FA881B98192
:10340000CC5AD24016968C93DFBEC854DD4F18823A
:10341000C85BD240E11017C080912502B82FB2706E
:10342000EB2E81FF10C080911E0290911F02EE24AE
:10343000E394C054DD4F48805980C05CD2404816A8
:10344000590608F0E12C16FF44C0EE2009F441C0F3
:103450005FB6CE55DD4F5882C25AD240F8941F7BDA
:10346000CB5ADD4F8881C555D2408356912CC12C53
:10347000883148F490E0FC01E55CFE4FC0808D5D32
:103480009E4FDC019C90AC2CB12CE5E5F2E0EC0FFA
:10349000FD1FEA0DFB1D90821182CB5ADD4F888102
:1034A000C555D240863609F0F0C13110EEC1809189
:1034B00025028D7F8093250210921F0210921E021A
:1034C0000E949906CE55DD4F4880C25AD2404FBE69
:1034D000E12C12FF4AC0DFB6F8941B7F332009F4B9
:1034E00041C0CE54DD4F488059806A807B80C25BEA
:1034F000D2404114510461047104A1F110610E9491
:10350000E9068091190290911A02A0911B02B091D4
:103510001C02482A592A6A2A7B2ACE55DD4F488246
:1035200059826A827B82C25AD240439ACE55DD4F7D
:10353000688179818A819B81C25AD2400E94240687
:10354000CE55DD4F688179818A819B81C25AD240F4
:103550000E9410074092190250921A0260921B02B8
:1035600070921C020E949906DFBE14FF55C0809124
:103570001802882309F450C0CFB6F89410921802AC
:1035800013FBDD24D0F820E080E090E0DC0141E096
:1035900050E060E070E04090190250901A02609094
:1035A0001B0270901C024422552266227722452875
:1035B0004628472889F0EEE8F2E0EC0FFD1FE20F05
:1035C000F11D30813F5FC655DD4F5880CA5AD24049
:1035D000531608F464C13083440F551F661F771FCC
:1035E0002F5F2031C1F6D0FA13F9409119025091A2
:1035F0001A0260911B0270911C022C013D014426AD
:10360000552666267726C255DD4F488259826A8242
:103610007B82CE5AD240CFBE13FF32C0DFB6F894C1
:10362000177FC255DD4F688179818A819B81CE5A8F
:10363000D2400E942406C255DD4F688179818A817B
:103640009B81CE5AD2400E941007C255DD4F28817F
:1036500039814A815B81CE5AD2402093190230933E
:103660001A0240931B0250931C02232B242B252B60
:1036700031F443981F7E0E94EE060E94F706DFBEDB
:10368000DFB6F8940E94C706B82E81E017FD02C08D
:10369000B81280E080FB17F932E0B31210C0C554B5
:1036A000DD4F4881CB5BD240423049F0809122020D
:1036B0009091230201969093230280932202DFBE11
:1036C00017FF88C1AFB6F8941F770E94F30660E039
:1036D0008FEF9FE60E945506882309F4E8C060E05A
:1036E0008FEF94E20E945506782E0E94750641984D
:1036F00080E00E9442068FEF0E944206893208F065
:10370000EFC0CD5FDD4F8883C350D240DD24D3941A
:10371000F4C0282F30E063E072E06C0F7D1F620F71
:10372000731FA5E56A2EA2E07A2E6C0E7D1E260D73
:10373000371DD9019C91DB0111969C938F5F55C079
:10374000E3E0F2E0EC0FFD1FED0DF11D80810E9422
:103750004206D39472C060E080E098E20E94550671
:103760008970D82ED301C2012C013D0131E0431AEA
:10377000510861087108892B8A2B8B2B09F480C0B2
:10378000DD2049F30E947506D0FADD24D0F84528E3
:103790004628472811F4DD24D394D5018C9181501B
:1037A0008C93882331F0EFEFFFE23197F1F700C0FF
:1037B0000000D11001C05F989A94992009F477CE47
:1037C0000E94F5060E94750661E080E198E20E9481
:1037D0005506EC2DB7E25B2E5C1408F4E7E2CD5FF2
:1037E000DD4FE883C350D24080E08E1708F491CFBC
:1037F000F3E04F2EF2E05F2E4C0E5D1E4E0E511C7C
:10380000F20111824198CD5FDD4F8881C350D240D3
:10381000893238F078E2572ECD5FDD4F5882C350A1
:10382000D24080E80E944206CD5FDD4F7880C350D1
:10383000D240872D0E944206DE2C7D1408F080CFF6
:10384000419A0E94690661E08CE091E00E94550671
:10385000412C512C6BE4662E712C21E0421A510848
:103860006108710839F060E08FEF97E20E94550619
:1038700087FFF3CFD12C8BEC92E1A0E0B0E074CFC6
:1038800044244A94542C32017DCFC39445E5442E00
:1038900042E0542E4C0E5D1EA40CB51C8ECF842B22
:1038A000952BA62BB72B1082DD24D39495CE61E007
:1038B00081E093E20E945506412C512CABE46A2E24
:1038C000712C51E0451A51086108710809F407CFBD
:1038D00060E08FEF93E20E94550681FFF2CFFFCEAA
:1038E00088E20FCF8FEF0E944206E3E0F2E0EC0F98
:1038F000FD1FED0DF11D8083D394CD5FDD4F8881D9
:10390000C350D2408D1570F7419ACD5FDD4F98803E
:10391000C350D24067E2691510F4F7E29F2E891474
:10392000E0F0C92CD12CECE2F2E0EC0FFD1FEC0D25
:10393000FD1D108261E080E198E20E9455065D98CD
:10394000C45DDD4FE881CC52D240E356E83108F047
:103950003EC0F0E0E253FF4DC9C3882D90E0ECE299
:10396000F2E0EC0FFD1FE80FF91FA3E0B2E0AC0F8F
:10397000BD1F8A0F9B1FDC0111968C91808383945D
:10398000CECFFE01EC0DFD1DE55DFD4F8081815028
:1039900009F054C0A6014250510957FF02C04F5FC1
:1039A0005F4FBA017595679512FB992790F9CE5430
:1039B000DD4F188219821A821B82C25BD240282FE7
:1039C00030E0261737070CF443C090FB12F90E9431
:1039D0009906AFBE80912402882311F40C94820EC4
:1039E000DFB6F8940E94480685749170892B19F50A
:1039F00060E080E099E20E94550690912402191639
:103A00000CF0FAC2873908F4F7C290912402282FEB
:103A100030E0291B310997FD3395273931050CF426
:103A2000E9C290912402891B90E061E099620E94B2
:103A3000550610922402DFBE0C94820EB1E8ECED24
:103A4000F0E0B150E040F040E1F700C000C09FCF8F
:103A50003320D1F1220F331FECE2F2E0EC0FFD1F17
:103A6000E20FF31F21812F112FC0E281E150E031DD
:103A700058F524E0E29FD001112446E651E04C0FB6
:103A80005D1FA40FB51F4D905D906D907C90CE543E
:103A9000DD4F288139814A815B81C25BD240242974
:103AA000352946295729CE54DD4F288339834A8347
:103AB0005B83C25BD2404EE852E04C0F5D1F4E0F5D
:103AC000511DFA01108291E08F5F79CFECE2F2E0B4
:103AD000EC0FFD1FE90DF11D31978081815069F4D4
:103AE000C754DD4F8881C95BD2400E948408C55508
:103AF000DD4F8883CB5AD2406ACF51E86CED70E03D
:103B0000515060407040E1F700C000C0E7CFECE2E8
:103B1000F2E0EC0FFD1FE90DF11D3197E080EA9412
:103B2000E11063C080E7CB5ADD4F8883C555D24092
:103B3000CA5ADD4F2882C655D240C95ADD4FF88295
:103B4000C755D24085E00E9421084BE0489F900174
:103B5000499F300D1124205E3F4F46E03695279552
:103B60004A95E1F7C85ADD4F2883C855D240C75A55
:103B7000DD4F3882C955D240C555DD4F4880CB5AFC
:103B8000D240C65ADD4F4882CA55D24080E1C55A5C
:103B9000DD4F8883CB55D2407694C45ADD4F78826E
:103BA000CC55D24060E080E099E20E9455068695AF
:103BB000C35ADD4F8883CD55D24082E086BB109238
:103BC00085001092840080912502826080932502F6
:103BD00010921F0210921E021064006120E7CA5565
:103BE000DD4F2883C65AD240F2CE81E89CEDA0E09A
:103BF00081509040A040E1F700C000C090CFECE2BF
:103C0000F2E0EC0FFD1FE90DF11D3197808181502D
:103C100031F5C35DDD4F8881CD52D240853499F0B6
:103C2000882389F0821579F08150282F30E0E1E077
:103C3000F0E0EC0FFD1F67E0689FE00DF11D11241F
:103C400080818823B1F0C854DD4F7881C85BD240B1
:103C50007F5FC854DD4F7883C85BD240B8CE31E86F
:103C60004CED50E0315040405040E1F700C000C002
:103C7000CECFC25DDD4F8881CE52D2408083C15D00
:103C8000DD4F8881CF52D2408183C05DDD4F888176
:103C9000C053D240811127C08EE697E0929FF00179
:103CA000939FF00D1124A1E0B0E0AC0FBD1FEA0F0F
:103CB000FB1F8283CF5CDD4F8881C153D240838359
:103CC000CE5CDD4F8881C253D2408483CD5CDD4F12
:103CD0008881C353D2408583CC5CDD4F8881C45337
:103CE000D240868374CE8AE6D8CFECE2F2E0EC0FC5
:103CF000FD1FE90DF11D31978081815069F531106B
:103D000066CEC35DDD4F8881CD52D24082115FCE39
:103D1000C25DDD4F8881CE52D2408F1158CEC15D39
:103D2000DD4F8881CF52D2409FEF980F923308F039
:103D30004ECEC05DDD4F6881C053D2409FEF960FDD
:103D4000923308F044CE821103C06F1509F43FCEC0
:103D50000E94390708603BCEB1E8ECEDF0E0B150CD
:103D6000E040F040E1F700C000C0C7CFECE2F2E075
:103D7000EC0FFD1FE90DF11D31978081815009F590
:103D8000C35DDD4F8881CD52D240821124C00260D4
:103D9000106482E086BB10928500109284008091AE
:103DA0002502826080932502C254DD4F48805980ED
:103DB000CE5BD24050921F0240921E02E12C2AE7B5
:103DC0000ECF21E83CED40E0215030404040E1F78B
:103DD00000C000C0D3CF61E0CE53DD4F8881998110
:103DE000C25CD2409B620E94550680912502886089
:103DF0008093250210921D02EACDECE2F2E0EC0F76
:103E0000FD1FE90DF11D31978081815059F4C35D8B
:103E1000DD4F8881CD52D24090E061E099620E94EE
:103E20005506D5CD31E84CED50E031504040504082
:103E3000E1F700C000C0E9CFECE2F2E0EC0FFD1FBB
:103E4000E90DF11D31978081815009F0A0C0C35D5B
:103E5000DD4F8881CD52D240821519F08F3F09F095
:103E6000B6CD90E021E02223B9F0292F30E0ECE23A
:103E7000F2E0EC0FFD1FE20FF31F4281AEE9B2E06A
:103E8000AC0FBD1F2A0F3B1FF9018081841709F475
:103E900088C081E04A3A09F080E0282F9F5F933084
:103EA00011F7882309F493CD0E947506CF5CDD4F8E
:103EB000C880C153D2408C2D90E061E097600E9491
:103EC0005506CE5CDD4FD880C253D2408D2D90E098
:103ED00061E098600E945506CD5CDD4FE880C353D9
:103EE000D2408E2D90E061E099600E9455060E94BC
:103EF0009906C256DD4FC882CE59D240C156DD4F19
:103F0000D882CF59D240C056DD4FE882C05AD24045
:103F100010648EE6CB5ADD4F8883C555D240CA5A0D
:103F2000DD4F2882C655D240C95ADD4FC882C755D9
:103F3000D240C85ADD4FD882C855D240C75ADD4F4B
:103F4000E882C955D24082E086BB1092850010926B
:103F5000840080912502826080932502C35DDD4F3D
:103F60008881CD52D2408F3FF1F0C254DD4F88811D
:103F70009981CE5BD24090931F0280931E02E12C68
:103F8000FEE6CA55DD4FF883C65AD24020CD61E81F
:103F90007CED90E0615070409040E1F700C000C0BF
:103FA00053CF81E07ACF90E080E0E5CF8091250289
:103FB000877F8093250210921D02ECE2F2E0EC0F65
:103FC000FD1FE90DF11D31978081815049F461E0B9
:103FD000C454DD4F88819981CC5BD2409B621FCF56
:103FE00022E333EF41E0215030404040E1F700C090
:103FF00000C0EBCF86E918CD909124029F3F09F0D5
:1040000018CD8F3F09F415CD332019F08D3C08F001
:1040100010CD8F5F09CDCC2011F40C94630F0C945C
:10402000B211C954DD4F1882C75BD240C654DD4F70
:104030008883CA5BD2400C940E0FDB018F939F9351
:104040005BD0BF91AF91A29F800D911DA39F900D5A
:10405000B29F900D11240895991B79E004C0991F17
:10406000961708F0961B881F7A95C9F780950895D2
:10407000A1E21A2EAA1BBB1BFD010DC0AA1FBB1F6C
:10408000EE1FFF1FA217B307E407F50720F0A21BDE
:10409000B30BE40BF50B661F771F881F991F1A944B
:1040A00069F760957095809590959B01AC01BD0175
:1040B000CF010895052E97FB16F400940FD057FDFD
:1040C00005D0D6DF07FC02D046F408C050954095D5
:1040D000309521953F4F4F4F5F4F089590958095B4
:1040E000709561957F4F8F4F9F4F0895EE0FFF1F83
:1040F0000590F491E02D099440D0A59F900DB49FB8
:10410000900DA49F800D911D112408952F923F9230
:104110004F925F926F927F928F929F92AF92BF92D7
:10412000CF92DF92EF92FF920F931F93CF93DF9383
:10413000CDB7DEB7CA1BDB0B0FB6F894DEBF0FBEE0
:10414000CDBF09942A88398848885F846E847D842D
:104150008C849B84AA84B984C884DF80EE80FD802F
:104160000C811B81AA81B981CE0FD11D0FB6F894A5
:10417000DEBF0FBECDBFED010895A29FB001B39F7A
:10418000C001A39F700D811D1124911DB29F700D60
:10419000811D1124911D0895F894FFCF751EE71C11
:1041A000E71CC11CE71C1C1F871DE71CE71CE71C44
:1041B000B61EE71CE71CFF1DE71CFD1EE71C661D65
:0C41C000E71CE71CE71CE71CE71CD61FEF
:1041CC00000000480DD007E803F401FA007D0064FC
:1041DC00003E00320028001F00190014000F000CD4
:1041EC00000A0003000003000003000000020200AC
:1041FC0002000000020000000000020500000300A5
:10420C00000300000003050009000000040000008A
:10421C00000013636F6E660072656D6F74650063EA
:10422C006C6561726C6973740073656E64006669A9
:10423C007265006964656E740074656D7000696DFB
:10424C007000636C73006B696C6C0068770068615C
:10425C007264776172650069676E69746572007269
:10426C00666D000A0D4B6F6D6D616E646F202831A9
:10427C00362D4269742D4865782D466F726D6174C8
:10428C002C204D5342207A752031207365747A6549
:10429C006E2066C3BC7220536368726569627A755E
:1042AC006772696666293A203078000A0A0D006147
:1042BC0065736B6579005AC3BC6E64626F78207647
:1042CC0033202D2000204B616EC3A46C65005AC3B3
:0842DC00BC6E64626F78000003
:00000001FF
