:1000000057C4000071C400006FC400006DC400003C
:100010000C940A0B69C4000067C4000065C40000AA
:1000200063C4000061C400005FC400000C94610B55
:100030005BC4000059C4000057C4000055C4000050
:100040000C941B0B51C400004FC400004DC40000B1
:100050004BC4000049C4000047C4000045C4000070
:1000600043C4000041C400000A0D001B5B31442062
:100070001B5B3144000D0A000D0A417573776168FE
:100080006C3A202845292D416E7AC3BC6E64657296
:100090002C202846296C616D65722C20285429611A
:1000A0006C6F6E2C2041626272756368206D69749A
:1000B00020616E64657265722054617374653A20C4
:1000C00000452D414E5AC39C4E44455220283230A3
:1000D000206D732900464C414D4552202833353060
:1000E000206D73290054414C4F4E2028322E343558
:1000F000207329000D0A4465727A65697420656968
:100100006E67657374656C6C74657320416E7AC339
:10011000BC6E646D697474656C0D0A3D3D3D3D3D7A
:100120003D3D3D3D3D3D3D3D3D3D3D3D3D3D3D3DFF
:100130003D3D3D3D3D3D3D3D3D3D3D3D3D0D0A0A85
:10014000005665727363686CC3BC7373656C756EBF
:1001500067206E6963687420616B74697669657283
:100160007421000D0A4B65696E6520C3846E646559
:1001700072756E67656E2067657370656963686523
:100180007274210D0A0A000D0A4572666F6C67725F
:100190006569636820676573706569636865727413
:1001A0002C2044657669636520737461727465748C
:1001B000206E6575210D0A0A000D0A446965736594
:1001C0006E205363686CC3BC7373656C2073706579
:1001D00069636865726E20286A2F6E293F200020AF
:1001E000000D0A4162627275636820776567656E0B
:1001F00020756E7A756CC3A4737369676572204548
:10020000696E67616265210D0A4B65696E6520C381
:10021000846E646572756E67656E20676573706560
:10022000696368657274210D0A0A000D0A0A4E6539
:10023000756572205363686CC3BC7373656C3A2038
:10024000000A0D000D0A0A4E6575656E20285329B7
:1002500063686CC3BC7373656C2065696E676562A7
:10026000656E2C2041626272756368206D6974202E
:1002700062656C6965626967657220616E6465724A
:10028000657220546173746521200020000D0A53AB
:1002900063686CC3BC7373656C206C742E20454519
:1002A00050524F4D3A202020200020005665727396
:1002B00063686CC3BC7373656C756E6720616B7427
:1002C000697669657274210D0A5363686CC3BC73E7
:1002D00073656C206C742E2046756E6B6D6F647543
:1002E0006C3A20000A0D416B7475656C6C65204595
:1002F000696E7374656C6C756E673A20003D3D3DA8
:100300003D3D3D3D3D3D3D3D3D3D3D3D3D3D3D3D1D
:100310003D3D3D3D3D3D3D3D3D3D3D3D3D3D0A0D70
:10032000000A0D4B6F6E66696775726174696F6E56
:1003300020646572205665727363686CC3BC737306
:10034000656C756E670A0D000A0D44657669636514
:1003500020697374205472616E736D697474657270
:100360002C20494473206E6963687420C3A46E64B2
:100370006572626172210A0A0D000A0D4B65696E91
:100380006520C3846E646572756E6720766F7267D0
:10039000656E6F6D6D656E0A0A0D000A0D4E65750E
:1003A00073746172742E2E2E0A0A0D004665686CF5
:1003B0006572212042697474652065726E6575747A
:1003C0002076657273756368656E210A0D000A0AEE
:1003D0000DC3846E646572756E67206572666F6C9E
:1003E000677265696368210A0D001B5B33376D0016
:1003F0001B5B33316D002C20454E544552203D206F
:10040000616C7465722057657274293A200035302A
:10041000000A0D4E65756520536C6176652D494463
:10042000202830312D001B5B33376D001B5B3331CF
:100430006D002C20454E544552203D20616C746562
:10044000722057657274293A20003530004E657568
:100450006520556E697175652D4944202830312D10
:10046000000A0D000A0D00284929447320C3A46E18
:100470006465726E2C2041626272756368206D69DA
:10048000742062656C6965626967657220616E647B
:10049000657265722054617374652120000A0A0A2E
:1004A0000D001B5B33376D000A0D004645484C4577
:1004B00052001B5B33316D00416B7475656C6C656C
:1004C00020536C6176652D49443A2020001B5B3334
:1004D000376D000A0D004645484C4552001B5B3302
:1004E000316D000A0A0D416B7475656C6C652055A1
:1004F0006E697175652D49443A20000A0D416E6799
:10050000657363686C6F7373656E6573204465769D
:100510006963653A20001B5B33376D001B5B333723
:100520006D000A0D4665686C6572206265696D2014
:1005300049442D4C6164656E0A0D001B5B33316DBF
:10054000000A4B6F6E66696775726174696F6E73CE
:1005500070726F6772616D6D0A0D3D3D3D3D3D3DB1
:100560003D3D3D3D3D3D3D3D3D3D3D3D3D3D3D3DBB
:100570000A0D001B5B33336D0049442D57656368DA
:1005800073656C206D6974206A2062657374C3A4FE
:10059000746967656E2C2061626272656368656E5E
:1005A000206D697420616E64657265722054617398
:1005B00074652120000A0A0D004E65756520536C94
:1005C0006176652D49443A20202020202020000A11
:1005D0000D004E65756520556E697175652D494430
:1005E0003A202020202020000A0D000A0D00426938
:1005F0007368657269676520536C6176652D49443F
:100600003A2020000A0D00426973686572696765C7
:1006100020556E697175652D49443A20001B5B3386
:10062000376D000A0A52656D6F74652D4B6F6E66EB
:10063000696775726174696F6E7370726F677261EA
:100640006D6D0A0D3D3D3D3D3D3D3D3D3D3D3D3DDD
:100650003D3D3D3D3D3D3D3D3D3D3D3D3D3D3D3DCA
:100660003D0A0D001B5B33336D000A0D000A0D4679
:1006700065686C657268616674652F646F7070651B
:100680006C7465204944733A200009000A0D002D5E
:100690002D2D2D002D00200020002C20002C2000CE
:1006A0002D2D2D2D006E2E612E002C20002D002CC6
:1006B00020002E002D2D2D2D002C2000300020009C
:1006C0002D2D2D003A200030000A0D556E697175F0
:1006D000652D49443A20536C6176652D49442C20A0
:1006E00042617474657269657370616E6E756E6770
:1006F000202856292C205363686172663F2C2054B1
:10070000656D706572617475722028C2B043292CC2
:10071000204B616E616C7A61686C2C205253534996
:10072000202864426D290A0D001B5B33376D003DA4
:100730003D3D3D3D3D3D3D3D3D3D3D3D3D3D0A0D4C
:10074000000A0D53797374656DC3BC626572736979
:100750006368740A0D001B5B33336D000A0A0D00D9
:1007600009200920092009000A0D002D2D2D003A2D
:1007700020000A0D536C6176652D49443A20416E84
:100780007A61686C20426F78656E0A0D000A0A0D66
:1007900000C2B043006E2E612E0054656D7065720C
:1007A000617475723A2000556E67C3BC6C746967DA
:1007B000652045696E6761626500203D20000A0D75
:1007C0004B616E616C3A20200900536C6176652D97
:1007D00049443A09000D0A000A0D4D6F64757328EB
:1007E000662F692F74293A20000A0A0D000A0D4964
:1007F000442D4B6F6E66696775726174696F6E73B5
:1008000062656665686C20776972642067657365E8
:100810006E646574210A0D000A0D494473207765E2
:100820007264656E206C6F6B616C20616E676570C1
:1008300061737374210A0D000A0A0D0031373335D4
:100840000032303231303930380044617465636FC2
:10085000646520000A0D000A0D52464D0061746D5A
:1008600065676133323870000A0D000A0D000A0D09
:1008700000202D2D3E203A203078001B5B314400B3
:1008800020001B5B3144001B5D303B454C2046552E
:10089000455241444F524F07001B5B334A001B5BDC
:1008A000303B3048001B5B324A002D0030002000F6
:1008B00011241FBECFEFD8E0DEBFCDBF12E0A0E015
:1008C000B1E0E8E7FCE402C005900D92AC3CB10752
:1008D000D9F722E0ACECB2E001C01D92AE3DB20708
:1008E000E1F756D70C9428268BCB80917C00887F2B
:1008F00080937C0080917C00856080937C00809157
:100900007C002BE087FF2AE080E090E0DC01309162
:100910007A00306430937A0030917A0036FDFCCF53
:100920004091780050917900840F951FA11DB11D51
:10093000215069F78096A11DB11D26E0B695A795B7
:10094000979587952A95D1F708954F925F926F9268
:100950007F92AF92BF92CF92DF92EF92FF920F936E
:100960001F93CF93DF9300D000D000D0CDB7DEB778
:100970005B01082F9D837A012E836983BA828B8362
:100980009C8311E09AE0492E512C612C712C6981D5
:100990007A818B819C81A30192010E94B6252983D3
:1009A0003A834B835C83232B242B252BD1F58E811B
:1009B0008983811708F4198319818AE0482E512C04
:1009C000612C712C6701C10ED11C91E0C91AD108AC
:1009D000B501802F9D81A30192010E94B625605D23
:1009E000D6016C935901042F5D83115059F7F7011B
:1009F000B981EB0FF11D108226960FB6F894DEBF79
:100A00000FBECDBFDF91CF911F910F91FF90EF905F
:100A1000DF90CF90BF90AF907F906F905F904F909E
:100A200008951F5FB4CF9FEB980F9A3130F0843C4C
:100A300021F0863D11F08C3D09F480620895FC019F
:100A4000DB018C919081811104C081E0911105C07E
:100A50000895319611968917A1F380E0F9CF982F68
:100A600040E050E066E970E04150510961097109C8
:100A7000A9F029B1822F887023FDF6CF40E050E025
:100A800066E970E0415051096109710921F0209136
:100A9000C00025FFF7CF9093C600089581E0089528
:100AA000CF93DF93EC01FE0184912196882319F006
:100AB000D6DF8823C1F3DF91CF9108958F929F9263
:100AC000AF92BF92EF92FF920F931F93CF93DF935A
:100AD000CDB7DEB7A1970FB6F894DEBF0FBECDBF7E
:100AE0001A821982FE0133962FE1DF011D922A95A9
:100AF000E9F74836D9F510E011C0E1E0F0E0EC0F7D
:100B0000FD1FE10FF11D262F2F70208344E09595E6
:100B10008795779567954A95D1F71F5F61157105A0
:100B20008105910551F7112341F310FD1F5F11114C
:100B300011C0A1960FB6F894DEBF0FBECDBFDF91F6
:100B4000CF911F910F91FF90EF90BF90AF909F902A
:100B50008F900895FE01E10FF11D80818A3020F011
:100B6000895C7DDF1150E3CF805DFBCF611571059E
:100B70008105910521F48CEA98E092DFDACF00E05C
:100B800097FF08C090958095709561957F4F8F4F26
:100B90009F4F01E010E03AE0832E912CA12CB12C64
:100BA000611571058105910511F0113281F4002361
:100BB00019F08AEA98E074DF112309F4BACFFE0134
:100BC000E10FF11D8081805D4ADF1150F5CFEE24E9
:100BD000E394F12CEC0EFD1EE10EF11CA501940135
:100BE0000E94B625F7016083B901CA011F5FD8CF03
:100BF000CF92DF92EF92FF92CF93DF93CDB7DEB724
:100C00002A970FB6F894DEBF0FBECDBF69837A83F3
:100C10008B839C83498789819A81AB81BC818D8339
:100C20009E83AF83B8871A868AE0C82ED12CE12C28
:100C3000F12C8D819E81AF81B885892B8A2B8B2BDE
:100C400001F589819A81AB81BC81B7FF03C0998589
:100C500091509987AA85B985BA1718F544E6698134
:100C60007A818B819C812ADF2A960FB6F894DEBFA9
:100C70000FBECDBFDF91CF91FF90EF90DF90CF906F
:100C800008956D817E818F819885A70196010E94CC
:100C9000B6252D833E834F8358879A859F5F9A8719
:100CA000C8CF89859A85891B8D83BD81BB23B1F20D
:100CB0008EEA98E0F5DEAD81A150AD83F6CFCF93FB
:100CC000DF93EC0190E08881882311F0992319F0DB
:100CD000DF91CF9108952196C2DE982FF4CF80E066
:100CE00090E0A6E9B0E00197A109B10949F020918F
:100CF000C00027FFF8CF5A9A8091C6005A980895ED
:100D000080E00895CF93DF93EADFC82F8A3029F47B
:100D1000DFEF8D2FDF91CF9108958D30C9F380EDF6
:100D20008C0F863088F78C2F9ADE8AE0C89FC02D02
:100D30001124C051D4DF8A3059F38D3049F3D82FB4
:100D4000DC0F9FEF9D0F9233A8F789DEE2CF85EA93
:100D500098E0A6DE8EE998E0A3DE89E998E0A0DEBF
:100D600087E898E09DCECF92DF92EF92FF920F93AB
:100D70001F93462F572FBC0140984398429880E11B
:100D800000E010E820E030E098E06A017B01C0223A
:100D9000D122E222F322CD28CE28CF2809F0409A92
:100DA00096B996B94098369527951795079581502D
:100DB00061F784E086B986B91F910F91FF90EF909B
:100DC000DF90CF9008958EBD0DB407FEFDCF8EB598
:100DD0000895CF93C82F892F662361F080682D98DE
:100DE0002B982A98F0DF8C2FEEDF2A9A2B982D98DB
:100DF000CF9108958F77CFEFF2CFCF92DF92EF921E
:100E0000FF9261E084E091E0E4DFC12CD12C8BE41F
:100E1000E82EF12C81E0C81AD108E108F10831F080
:100E200060E08FEF97E2D5DF87FFF4CF81E0CD2838
:100E3000CE28CF2809F080E0FF90EF90DF90CF9090
:100E400008955D9A5F9A5E9A289A08955D985F98D2
:100E50005E98289808955D9A08955F9A08955E981F
:100E600008955E9A0895289A089543984298419863
:100E700040980895CF93DF93339932C0D0E03299F0
:100E800031C080E0D82B31992FC080E0D82B309929
:100E90002DC080E0D82B439A429A419A409A3B98C1
:100EA0003A98399838985C98459A20E137E2C0E83A
:100EB0002150310911F0C7FD1BC045983B9A3A9A61
:100EC000399A389AD2DFD4FD439AD5FD429AD6FD9D
:100ED000419AD7FD409A8C2F8F77DF91CF9108955B
:100EE000D0E1CDCF80E2CECF80E4D0CF80E8D2CFAA
:100EF000449A00000000339926C060E0329925C072
:100F000050E0319924C040E0309923C090E04498EB
:100F100000000000449A0000000086B183FBCC274B
:100F2000C0F9C62BC52BC42BC92B329914C080E045
:100F3000C82B319912C080E0C82B309910C080E0D6
:100F4000C82B4498B5CF60E1D9CF50E2DACF40E466
:100F5000DBCF90E8DCCF82E0EBCF84E0EDCF88E020
:100F6000EFCF449A00C000C044980895CF93C82F93
:100F70007CDFC4FD439AC5FD429AC6FD419AC7FD78
:100F8000409AEFDF72DFC0FD439AC1FD429AC2FD75
:100F9000419AC3FD409AE5DFCF910895982F862F9F
:100FA000953008F091E0853108F081E0492F4150FB
:100FB000550B9A013595279545985C989095929593
:100FC000990F990F9074915854E1259F900D112419
:100FD000890FCCDF4FCFCF93C62F459861111EC02C
:100FE0005C98C4DF47DFCC2341F044DF843581F0D7
:100FF00030F4843149F0803471F0CF91089588360F
:10100000E1F761E081E002C061E082E0C7DFF5CF97
:1010100061E083E0FBCF61E084E0F8CF5C9AE1CF50
:10102000CF93DF93EC018881811103C0DF91CF91D1
:101030000895219661E0CFDFF6CF45985C9A96DF60
:1010400019CF9B01F999FECF32BD21BD80BDFA9A1F
:10105000F99A12BC11BC08959C01F999FECF32BDDA
:1010600021BDF89A80B512BC11BC0895862798E07E
:101070002CE8382F31708695311182279150C9F7AD
:101080000895B0E0A0E0E7E4F8E00C94EB25082F29
:10109000162FB82EB60E682F80E1E8DFE82E612FFC
:1010A00080E1E4DFC82E612F8E2DE0DFD82E88E1AD
:1010B000F82ECF2DD0E0BE01802FC3DFBE016F5FC1
:1010C0007F4F812FBEDFBE016E5F7F4F8B2DB9DF5B
:1010D000BE016D5F7F4F8E2DB4DFBE016C5F7F4F11
:1010E0008C2DAFDFBE016B5F7F4F8D2DAADF84E2B9
:1010F000F80E84E8F812DDCFCDB7DEB7E9E00C9446
:101100000726B0E0A0E0E7E8F8E00C94E925D82F46
:10111000C62F88E1F82E9D2E960E0F2D10E0C801E7
:101120009BDFA82EC801019697DFB82EC801029652
:1011300093DFC82EC80103968FDFE82EC8010496FE
:101140008BDFD82EC801059687DF182FAD1213C08C
:10115000BC1211C0C9100FC06D2F80E187DFE812EB
:101160000AC06C2F80E182DFD81205C06C2F8E2D53
:101170007DDF181759F084E2F80E84E8F812CDCF1D
:1011800080E0CDB7DEB7EBE00C94052681E0F9CF27
:10119000B0E0A0E0EEECF8E00C94E9257C016B01F6
:1011A00000E084E2982E099D50011124C501489663
:1011B00053DFC82FC50149964FDFD82F682F8C2FDA
:1011C000A0DF182F882391F188E190E045DF182FE8
:1011D0008CE390E041DF1817F1F088E190E03CDF0C
:1011E000182F80E690E038DF181315C089E190E0F1
:1011F00033DF182F8DE390E02FDF18130CC089E147
:1012000090E02ADF182F81E690E026DF181303C054
:101210006D2F8C2F36DFF701C083F601D08311E0EC
:10122000812FCDB7DEB7EBE00C940526023061F4D8
:101230006D2F8C2F66DF811107C085E4F701808355
:1012400085E6F6018083ECCF0F5F033009F0ABCF6A
:10125000E7CF419A389A399A3A9A3B9A40984298FD
:10126000439893E028E034E084E126B926B9815020
:10127000E1F736B936B99150B9F789E999E00197A4
:10128000F1F700C04198089580B7806880BF8091D1
:101290007C00856480937C0080917A0086608093D6
:1012A0007A0080917A00806880937A0080917A0039
:1012B000806480937A0080917A0086FDFCCF8091D3
:1012C0007800909179002FEF8FE797E021508040D0
:1012D0009040E1F700C0000028E090E080E030910D
:1012E0007A00306430937A0030917A0036FDFCCF7A
:1012F0004091780050917900840F951F215079F723
:1013000080389C40D8F480917C00806880937C0079
:101310008FEF9FE727E0815090402040E1F700C029
:10132000000080917A00806480937A0080917A0036
:1013300086FDFCCF80917800909179000895219AE4
:101340009AE09A95F1F78111219894E29A95F1F734
:101350000000199B80E097E99A95F1F7219896E0B3
:101360009A95F1F700C00895CF93DF93C82FD8E086
:101370008C2F8170E4DFC6958111C068D150C1F710
:101380008C2FDF91CF9108952998219A8CEC94E0CD
:101390000197F1F700C00000219898ED9A95F1F7B8
:1013A000000083B1EAE2F4E03197F1F700C08695DE
:1013B00081700895CF92DF92EF92FF921F93CF93A7
:1013C000DF93CDB7DEB7A9970FB6F894DEBF0FBE97
:1013D000CDBF7C01162F11DD61E080E198E2F9DCE0
:1013E000198380E0282F30E0E2E0F0E0EC0FFD1FF1
:1013F000E20FF31F2E0D3F1DD9019C9190838F5F4B
:10140000811780F3E2E0F0E0EC0FFD1FE10FF11D2A
:1014100010822A988981893210F088E2898380E8D5
:10142000D2DCF9808F2DCFDC11E0F11608F044C03A
:101430002A9A61E08FE093E1CCDC61E08DE59AE5EA
:10144000C8DC61E08CE79CE5C4DC61E08CE091E005
:10145000C0DCC12CD12C9BE4E92EF12CB1E0CB1ADD
:10146000D108E108F10891F510E08BEC92E1A0E0E1
:10147000B0E06C017D0121E0C21AD108E108F10859
:10148000892B8A2B8B2B91F1112339F1B6DC812F1B
:101490008170CD28CE28CF2809F481E0A9960FB617
:1014A000F894DEBF0FBECDBFDF91CF911F91FF90AB
:1014B000EF90DF90CF900895E1E0F0E0EC0FFD1F9A
:1014C000E10FF11D80817FDC1F5FAFCF60E08FEF08
:1014D00097E27FDC87FFC2CFC7CF60E080E098E271
:1014E00078DC182F1970D701C601C3CFCC24CA9459
:1014F000DC2C7601CBCFCF92DF92EF92FF9261E0AE
:101500008BE193E166DC61E085E59AE562DC61E010
:1015100080E79CE55EDC60E08FEF9DE35ADC90E0C5
:1015200061E084609D6355DC61E080E191E051DC25
:10153000C12CD12C8BE4E82EF12C81E0C81AD10803
:10154000E108F10831F060E08FEF97E242DC87FFBD
:10155000F4CF81E0CD28CE28CF2809F080E0FF909D
:10156000EF90DF90CF900895CF92DF92EF92FF92AD
:10157000CF93DF93882309F44BC006DF8CECF4DEB5
:101580008EE4F2DE8DE7F0DE88EDEEDE8FE1ECDE5C
:10159000FBDE8CECE9DE84E4E7DEC12C5CE2D52ED8
:1015A000EE24E394F12C81E0C81AD108E108F10897
:1015B00021F081E0C4DE8823B1F3E6DE8CECD4DEDA
:1015C0008EEBD2DE8FEFD0DEC82FD0E08FEFCCDEF7
:1015D00090E0982F88278C0F9D1F9C012227387F31
:1015E000232BA1F09195819591092FEF089634E076
:1015F000969587953A95E1F7829F802D1124DF918A
:10160000CF91FF90EF90DF90CF90089521E0EECF43
:1016100080E8F5CF1F921FB61F9211248F938091FF
:10162000DD02811103C081E08093DD028F911F9064
:101630001FBE1F9018951F921FB61F9211242F9343
:101640008F939F938091DC02882329F08091DC02A4
:101650008F5F8093DC028091DB02882329F08091E8
:10166000DB028F5F8093DB028091D9029091DA02D6
:10167000892B49F08091D9029091DA0201969093DA
:10168000DA028093D9028091DC028E3F10F0109232
:10169000DC028091DB028E3F10F01092DB02809121
:1016A000D9029091DA028131974220F01092DA0249
:1016B0001092D9029F918F912F911F901FBE1F9062
:1016C00018951F921FB61F9211248F939F93AF936B
:1016D000BF938091D8028F5F8D3778F58093D802C1
:1016E0008091D30281FF09C08091D1029091D202F2
:1016F00001969093D2028093D1028091CD02909175
:10170000CE02A091CF02B091D002892B8A2B8B2BD5
:1017100019F081E08093CC028091DD02882329F0CA
:101720008091D30284608093D302BF91AF919F9147
:101730008F911F901FBE1F9018951092D802809114
:10174000D6029091D702892B49F08091D6029091D0
:10175000D7028997A8F482E08093D5028091D602BF
:101760009091D702892B89F48091D4028F5F809366
:10177000D402893038F41092D7021092D602B0CF3A
:1017800084E0EACF8FEF8093D5021092D402F3CF9A
:10179000CDB7DEB7CD5ED2400FB6F894DEBF0FBE38
:1017A000CDBF0FB6F894A8958091600088618093B2
:1017B0006000109260000FBE5C98549A6E012AE996
:1017C000C21A2EEFD20A80E4D6011D928A95E9F75B
:1017D00010E000E0312CFE01E752FE4F1192119211
:1017E00088E2DF011D928A95E9F7FE01E45DFD4F75
:1017F0001192119287E2DF01282F1D922A95E9F7B5
:10180000FE01EB5AFD4F11921192DF01282F1D921C
:101810002A95E9F7FE01EA55FE4F1192119291E3E4
:10182000DF011D929A95E9F7FE01E258FD4F1192F2
:101830001192DF011D928A95E9F7FE01E955FD4FEE
:10184000119211928EE0DF011D928A95E9F701DD78
:1018500080916400806C8093640080B7806880BF52
:101860008FEF9FE2909389008093880080918100A0
:1018700088608093810080916F00826080936F0008
:10188000809181008260809381002898209AE7DA15
:10189000569A5F98579A5D98559AF6DC26D8CC539D
:1018A000DD4F8883C45CD24082E3CD5FDD4F888307
:1018B000C350D2408983BE016D5F7D4FCE0101963A
:1018C00067DC811101C0BDDACD5FDD4FF880C35008
:1018D000D2409980CC53DD4FB881C45CD240BC3932
:1018E00008F0B4C3992009F49DC3FF2009F49EC3F6
:1018F0008DE691E0B1DBC753DD4F8883C95CD240F0
:10190000853F71F0833261F0823051F06DE671E015
:1019100082E097DBE2E0C753DD4FE883C95CD24049
:1019200020E031E0822F90E0E9EDF1E0EC0FFD1FC7
:10193000E80FF91F3083E5E5F2E0EC0FFD1FE80F3B
:10194000F91F10824CE252E04C0F5D1F840F951F6F
:10195000DC011C922F5F283229F780E027E090E815
:10196000E1E0F0E0EC0FFD1F289FE00DF11D1124D8
:101970001082118212829383958316828F5F823345
:1019800079F740E1E42E80E090E8A0E0B0E02E2D71
:101990002150330BF901EE0FFF1FEE0FFF1FEC0D6F
:1019A000FD1D80839183A283B383B695A7959795F8
:1019B0008795EA94E110EBCFCC53DD4F3881C45CBE
:1019C000D2403C3908F454C31092DB021092DC027E
:1019D0001092DA021092D90244983C9880916800E3
:1019E0008D7F8093680080916C008F7E80936C0067
:1019F00010927C0010927A001092DD0227DA44984F
:101A000045985C9832DA3C9A3D9A549A3B9A3A9AB5
:101A1000399A389A4FEF5FEF65E04150504060408F
:101A2000E1F700C000C0429A439A9BDA8FEF9FE52E
:101A30000197F1F700C0000094DAAFEFBFE511970E
:101A4000F1F700C000008DDAEFEFFFE53197F1F715
:101A500000C000000ADA429A84DA0CDA60E088E218
:101A6000BADA60E08CE0B7DA60E086E0B4DA60E031
:101A700081E0B1DA60E080E4AEDA84E0DEDA84E0CE
:101A8000DCDA8AE0DADA8AE0D8DA85E1D6DA81E1EE
:101A9000D4DA8AE0D2DA84E0D0DA82E0CEDA85E005
:101AA000CCDA82E0CADA80E0C8DA80E0C6DA80E028
:101AB000C4DA80E0C2DA80E0C0DA60E080E88BDA85
:101AC00061E082E06BDA61E080E085DA61E080E08D
:101AD00082DA80E591E0A4DA61E080E07CDA61E01E
:101AE00080E079DA60E082E076DA85B5856085BDF0
:101AF00080916E00816080936E008FB7F8945B9A3E
:101B00005398529A1092C5009FE39093C40098E1B5
:101B10009093C10096E09093C200589A8FBF5A9854
:101B200085E0D82ECC24C3942FDC93B19695917088
:101B30009C25980FE90EDA94D110F6CFEE2009F427
:101B4000ADC22198299AC252DD4F1882CE5DD24093
:101B5000C252DD4F8881CE5DD24006DDC253DD4FDB
:101B60008883CE5CD2402A9A2C9A2498239A259A6C
:101B7000229A0CB406FC03C08CB581658CBD60E074
:101B80008FEF90E126D9CB51DD4F8883C55ED240DF
:101B9000B3E08B2E86E696E20197F1F7000061E054
:101BA00082E092E016D9A0E8AA2EB12CC12CD12C4B
:101BB00078E1472E512C612C712CA3019201C601B2
:101BC000B5010E9479259B01AC0162E0220F331F11
:101BD000441F551F6A95D1F760E078E488EE91E0E4
:101BE0000E949425223430474105510508F45DC216
:101BF000E12CA114B104C104D10409F072C2E0E1E6
:101C00004E1A51086108710822E07694679457943F
:101C100047942A95D1F7440C440C440CE42830E84E
:101C2000A32EB12CC12CD12CB8E14B2E512C612C00
:101C3000712CA3019201C601B5010E9479259B0177
:101C4000AC01A2E0220F331F441F551FAA95D1F704
:101C500060E078E488EE91E00E9494252A30344BCD
:101C60004105510508F443C280E0A114B104C10448
:101C7000D10409F058C270E1471A5108610871088F
:101C8000E2E07694679457944794EA95D1F7440C30
:101C9000440C440C482A61E080E095E09AD861E069
:101CA0008DE996E096D861E08DE093E092D861E00E
:101CB0008DE094E08ED88E2D90E061E08064996193
:101CC00088D8842D90E061E080649A6182D861E0D8
:101CD00080E495E27ED861E087EA96E27AD861E016
:101CE00089ED97E076D861E080E698E072D861E00F
:101CF00080E099E06ED861E080E997E36AD861E01E
:101D000088E298E366D861E080E89CE362D861E00D
:101D100080E39DE35ED861E080E09CE25AD861E018
:101D200084E09DE256D861E088E89EE252D861E006
:101D30008DE29FE24ED861E084ED90E34AD861E005
:101D400080E098E146D861E08DE298E542D861E014
:101D500080E39FE63ED861E08FEC99E23AD861E0FB
:101D60008DE29EE136D861E080E09AE232D89FE0D1
:101D70009150292F30E051F0F901EE0FFF1FE05094
:101D8000FF4F408151814832510590F361E0C90114
:101D900092611FD860E08FEF9DE21BD8E82E60E0D3
:101DA0008FEF9EE216D8282F30E063E03595279517
:101DB0006A95E1F7822F877025E12E0D820F8695B7
:101DC00090E061E09B6205D861E08BE193E101D88E
:101DD00061E08FE791E10E94E9068A948110DACEF2
:101DE00061E080E89AE00E94E906412C512C5BE416
:101DF000652E712C81E0481A51086108710809F0BC
:101E000098C179DB61E081EA9DE30E94E906E12C5B
:101E1000CE2CD12CC60180961FD99EE3C90ED11CB1
:101E200061E09C2D0E94E906E394A0E1EA12F0CF64
:101E3000CC53DD4FB881C45CD240BC3908F481C1B9
:101E400089E6CB5ADD4F8883C555D24084E6CA5A0D
:101E5000DD4F8883C655D24080E3C95ADD4F888361
:101E6000C755D24045E0D42E0E942D076AE081E696
:101E700091E0A0DA5F98EFEFFFEF25E0E150F0404E
:101E80002040E1F700C000C0DA94D110EDCF60E04F
:101E900081E0A1D880916E00816080936E00106413
:101EA0007894CC53DD4FF881C45CD240FC3908F003
:101EB00050C22CE631E0CF51DD4F39832883C15E1B
:101EC000D240CC53DD4F5881C45CD2405C3908F01D
:101ED00049C267E871E0CD51DD4F79836883C35E05
:101EE000D240892D90E09C012F5F3F4F4AE0429FF6
:101EF000D001439FB00D1124C152DD4FB983A88397
:101F0000CF5DD2401A97CA51DD4FB983A883C65E10
:101F1000D240CA52DD4F1882C65DD240C352DD4F57
:101F20001882CD5DD240C552DD4F1882CB5DD240C4
:101F3000C454DD4F1882CC5BD240CE52DD4F1882A4
:101F400019821A821B82C25DD240C653DD4F1882AD
:101F500019821A821B82CA5CD240B1E0C054DD4FA4
:101F6000B883C05CD240B3E0CB2EEFE0C153DD4F6D
:101F7000E883CF5CD240F4E0CB53DD4FF883C55CFF
:101F8000D24020E8222EEE24E39421E0C452DD4F1B
:101F90002883CC5DD24043E052E04C0F5D1F4E5F82
:101FA0005F4FC851DD4F59834883C85ED24026EA4F
:101FB00031E02C0F3D1F2F0D311DB901615071090A
:101FC000C651DD4F79836883CA5ED240019777E0BE
:101FD000789F9001799F300D112481E090E08C0F63
:101FE0009D1F820F931FC053DD4F99838883C05D6F
:101FF000D2400196C451DD4F99838883CC5ED24094
:102000008091DD02882309F4C5C1BFB6F8948091A0
:10201000DD02813009F4AFC1823009F426C210928A
:10202000DD02B7C162E3962EF11002C052E3F52E35
:102030006F2D892D26D888E19EE00FB6F894A895DB
:10204000809360000FBE90936000FFCF8F2D892991
:1020500009F44ECC60E080E014D888E19EE00FB631
:10206000F894A895809360000FBE90936000FFCF16
:10207000F0D8449A3C988091680082608093680010
:1020800080916C00806180936C005C98549A81E030
:102090008093DD02F9D80E9426072FCDFFE6C252B9
:1020A000DD4FF883CE5DD24053CD94E0491A5108FC
:1020B00061087108A0E14A1651046104710408F036
:1020C0007CCDF0E14F2E512C612C712CA114B10468
:1020D000C104D10409F471CDD694C794B794A794E0
:1020E00067CDD694C794B794A794E39482CDF4E0D7
:1020F0004F1A51086108710820E142165104610429
:10210000710408F096CD90E1492E512C612C712C70
:10211000A114B104C104D10409F48BCDD694C794A1
:10212000B794A79481CDD694C794B794A7948F5FA2
:102130009CCD60E080E09AE00E94E90686FF5ACEDE
:1021400060CE0E9426073FEF4FE754E031504040F9
:102150005040E1F700C000000E9433076FEF7FE7B7
:1021600084E0615070408040E1F700C000000E94B0
:102170002D079FEFAFE7B4E09150A040B040E1F7EA
:1021800000C000000E942B07EFEFFFE724E0E150C2
:10219000F0402040E1F700C000000E9431073FEF0F
:1021A0004FE754E0315040405040E1F700C000009C
:1021B0000E9426076FEF7FE787E061507040804004
:1021C000E1F700C00000EF2CE2943FE0E322F4FCD2
:1021D0000E943307E1FC0E942D07E2FC0E942B07BE
:1021E0008E2D887011F00E9431079FEFAFEFBBE397
:1021F0009150A040B040E1F700C000000E942607C7
:10220000EFEFFFE727E0E150F0402040E1F700C0AA
:1022100000000E9431073FEF4FE754E0315040404B
:102220005040E1F700C000000E942B076FEF7FE7EE
:1022300084E0615070408040E1F700C000000E94DF
:102240002D079FEFAFE7B4E09150A040B040E1F719
:1022500000C000000E943307EFEFFFE724E0E150E9
:10226000F0402040E1F700C000000E9426073FEF49
:102270004FE757E0315040405040E1F700C00000C8
:10228000F0FC0E943307F1FC0E942D07F2FC0E9433
:102290002B07F3FC0E9431076FEF7FEF8BE3615058
:1022A00070408040E1F700C000000E9426079FEFC9
:1022B000AFEFB5E09150A040B040E1F700C000C0E2
:1022C000DD24D394349B42C0D12C0E942F0700649C
:1022D00080E7CB5ADD4F8883C555D240CA5ADD4FBF
:1022E0009882C655D240C95ADD4FF882C755D240B0
:1022F0000E947504C85ADD4F8883C855D240C75A1A
:10230000DD4FD882C955D240C253DD4FE881CE5C43
:10231000D240C65ADD4FE883CA55D24080E1C55A43
:10232000DD4F8883CB55D24080E8C45ADD4F888387
:10233000CC55D24060E080E099E20E94E9068695A3
:10234000C35ADD4F8883CD55D240A9CD0E943107B5
:10235000BECF4BE751E0CF51DD4F59834883C15E7B
:10236000D240AFCD8BE791E0CD51DD4F998388838B
:10237000C35ED240B6CD82E08093DD02CA52DD4F0B
:102380001882C65DD24091E0C452DD4F9883CC5D87
:10239000D240BFBECB51DD4FF881C55ED240F43292
:1023A00021F00E942D070E942B078091C00087FB1F
:1023B00010F9212F2170822E10FF96C33FB7C85409
:1023C000DD4F3883C85BD240F8941E7F0E943307EC
:1023D0000E946F06C752DE4F8883C95DD1408F3798
:1023E00009F43DC087FD89C028EF280F263038F456
:1023F00091E001C0990F2A95EAF7957281F50E9444
:102400001305C752DE4F8883C95DD1400E942F0556
:10241000A12C0E946F060E941305B82E4DE0841770
:1024200009F477C25AE0851709F473C268E0861789
:1024300019F07FE787136EC2A11065C2C652DE4F46
:102440001882CA5DD14082E898E00E94500580E879
:1024500098E00E9450058BE798E00E945005C75213
:10246000DE4F1882C95DD14065C08091D30282FFE2
:1024700090CF8091D3028B7F8093D302C452DD4FE3
:10248000A881CC5DD240AA2311F40C94722596B198
:10249000292F207194FB882780F9C552DD4FB88120
:1024A000CB5DD240B8130C946625CA52DD4FE8814B
:1024B000C65DD240EF5FCA52DD4FE883C65DD240B1
:1024C000EF3110F40C946B25DD24D3942111D12C21
:1024D000C552DD4F8883CB5DD2401092DD02D11012
:1024E00004C05C980E942F0702C00E943107C452AA
:1024F000DD4F1882CC5DD2404CCF8F3F09F07FCFAB
:102500000E946F06C652DE4F8883CA5DD1400E948A
:102510006F06C552DE4F8883CB5DD1400E946F06A7
:10252000C452DE4F8883CC5DD140C352DE4F188247
:10253000CD5DD14060E971E0CE0187529E4F0E948F
:102540001F05882311F01D7B126065E971E0CE0143
:1025500087529E4F0E941F05882319F0689430F817
:102560001F7B6CE971E0CE0187529E4F0E941F05D0
:102570008111006466EA71E0CE0187529E4F0E948D
:102580001F0581111BC06BEA71E0CE0187529E4F7F
:102590000E941F05811112C060EB71E0CE018752CD
:1025A0009E4F0E941F05811109C066EB71E0CE01AC
:1025B00087529E4F0E941F05882311F01F791062D9
:1025C00061EA71E0CE0187529E4F0E941F05882369
:1025D00011F001601F7B6BEB71E0CE0187529E4FC3
:1025E0000E941F05882341F0CC53DD4F9881C45CC5
:1025F000D2409C3908F00E6165EC71E0CE01875243
:102600009E4F0E941F05882351F0CC53DD4FA881B7
:10261000C45CD240AC3918F00E943107D82C62EC6F
:1026200071E0CE0187529E4F0E941F05882351F012
:10263000CC53DD4FB881C45CD240BC3918F00E9445
:102640002F07D12C69EC71E0CE0187529E4F0E947A
:102650001F0581110E94A7066DEC71E0CE01875223
:102660009E4F0E941F058111006262ED71E0CE0154
:1026700087529E4F0E941F05811108C065ED71E0D1
:10268000CE0187529E4F0E941F05811100686EED9A
:1026900071E0CE0187529E4F0E941F058823B1F141
:1026A00084EF90E00E945005C753DD4FE881C95C7C
:1026B000D24085EE90E0E53F59F0C753DD4FF881F9
:1026C000C95CD24085ED90E0F33211F081EC90E0EE
:1026D0000E94500588E790E00E9450050E946F0616
:1026E000B82E8823D9F30E942F0585E790E00E9439
:1026F00050058B2D8062863609F423C1843709F496
:1027000035C1A2E0BA2E853609F41DC166EE71E02E
:10271000CE0187529E4F0E941F05882309F44FC0A7
:102720008AEE91E00E945F06612C74E0572E90E0E3
:1027300080E05C0164E0AA0CBB1C6A95E1F70E9492
:102740006F06782E0E942F05872D806290ED980FDE
:102750009A3038F09FE9980F963008F00AC199EA4C
:10276000980F81E09F3F09F080E0680EA501492B9A
:10277000CA015A945110DDCF61101DC08F3F9807D8
:10278000D1F0692F661F6627661F0E94E906B82EE2
:1027900081E798E00E9450056B2D70E090E080E0AA
:1027A000C952DD4F688379838A839B83C75DD2409A
:1027B00048E60E945E0582E392E00E945F0666E3BF
:1027C00072E0CE0187529E4F0E941F05882309F4B4
:1027D0002EC1CD5FDD4F19821882C350D2408EE0EA
:1027E000C851DD4FA881B981C85ED2401D928A953B
:1027F000E9F781E293E00E9450058DEF92E00E949C
:10280000500584EE92E00E94500560E08FEF9DE35A
:102810000E94E906B82FB1706B2E80FF98C38CEA36
:1028200092E00E945005AA24AA945EE3B52E60E0CF
:10283000C5010E94E906282F30E050E040E0C9526F
:10284000DD4F288339834A835B83C75DD24048E6E6
:10285000C952DD4F688179818A819B81C75DD240F1
:102860000E945E058AEA92E00E945005B394A1148A
:102870004EE4B406E0F28DE892E00E945005B12CDF
:102880008B2D90E080960E942C08282F30E050E09D
:1028900040E0C952DD4F288339834A835B83C75D9B
:1028A000D24048E6C952DD4F688179818A819B8197
:1028B000C75DD2400E945E058BE892E00E94500501
:1028C000B39430E1B312DCCF84E492E00E9450056F
:1028D0000E946F068823E1F3B82E6894B5F88B2D1B
:1028E0000E942F0581E492E00E94500543E7B41254
:1028F0009EC08BE292E00E945005712CA12C412CCD
:1029000032E0532E39C0AA948BE690E00E94500525
:1029100080CDB12CEAEDF1E0EC0FFD1FEA0DF11DC9
:10292000B0828B2D0E942F05BB2011F40C946025E2
:10293000A39487E2A8126DCD88E690E00E9450052E
:10294000F9CDF3E2BF2EC753DD4F2881C95CD240D9
:102950002B1509F4DBCE6DE671E08B2D0E9421086A
:10296000C753DD4FB882C95CD240D0CEE5EFBE2E52
:10297000EACF9FEFF6CE562C429440EF44220E94BD
:102980006F06B82E0E942F058B2D806290ED980F58
:102990009A3030F09FE9980F963090F499EA980FAA
:1029A00081E09F3F09F080E0A80E492A51E05512CE
:1029B000E2CFAA2039F081EE91E00E94500537C0A5
:1029C0009FEFEECF8FED91E00E945005E3E0F2E043
:1029D000EC0FFD1FE70DF11D4082739460E176124C
:1029E0008DCF89EB91E00E9450050E946F068062B6
:1029F0008A3629F08E36C9F783E691E0DECF8A2D3C
:102A000090E0BC01605E7F4FA3E0B2E0AC0FBD1F61
:102A10008A0F9B1FFC0180810E942108A394F0E192
:102A2000AF12EDCF87E891E00E9450050062C752D7
:102A3000DE4F8881C95DD1408F3F09F042C0C65248
:102A4000DE4FB880CA5DD1408B0D8233D0F5C552C0
:102A5000DE4FA880CB5DD1408FEF8A0D803188F5A5
:102A6000C452DE4F7880CC5DD1406B2D80E00E9457
:102A700036086A2D0E943608781223C086E6CB5AA3
:102A8000DD4F8883C555D240CA5ADD4FB882C6553E
:102A9000D240C95ADD4FA882C755D2401064FB10FE
:102AA0000FC0CC53DD4F2881C45CD2402C3940F498
:102AB00012FD06C0C25DDD4FA882CE52D240146026
:102AC000E82C2898C752DE4F8881C95DD1408150DB
:102AD0008E3F20F48EE698E00E945005C854DD4FEA
:102AE0003881C85BD2403FBF07FF37C0BFB6F894FC
:102AF0000F778BE698E00E945005CF51DD4F88811B
:102B00009981C15ED2400E945F0688E698E00E94EB
:102B100050058DE598E00E94500587E598E00E94F9
:102B2000500544E665E470E080E090E00E945E05B8
:102B300084E598E00E9450058AE498E00E945005E0
:102B400081E498E00E9450058CE398E00E945005D3
:102B500088E398E00E945005BFBE11FF3FC18FB6C9
:102B6000F8941D7F0E94A70683E795E00E94500518
:102B700081E495E00E945005BE0169547D4FCE016D
:102B80008D5F9D4F0E94C80881110CC08BE395E0BA
:102B90000E94500582E295E00E9450058CE195E08C
:102BA0000E94500586E195E00E9450058BEF94E06D
:102BB0000E945005CD51DD4F88819981C35ED2407E
:102BC0000E945F06CC53DD4F4881C45CD2404C3933
:102BD00008F0DEC183EE94E00E9450058DED94E094
:102BE0000E945005CD5FDD4F8881C350D2408534AF
:102BF00009F4B0C18A3018F480E30E942F05CD5F3C
:102C0000DD4F8881C350D240282F30E050E040E0B3
:102C1000C854DD4F288339834A835B83C85BD24025
:102C200044E6C854DD4F688179818A819B81C85B05
:102C3000D2400E945E0583ED94E00E9450058DEC29
:102C400094E00E94500588EB94E00E94500582EBCE
:102C500094E00E945005C954DD4F8881C75BD24083
:102C6000853609F47CC18A3018F480E30E942F0570
:102C7000C954DD4F8881C75BD240482F50E070E0D7
:102C800060E0C854DD4F488359836A837B83C85B07
:102C9000D24044E6C854DD4F688179818A819B81A6
:102CA000C85BD2400E945E0588EA94E00E9450050D
:102CB00082EA94E00E9450058DE994E00E9450055C
:102CC00087E694E00E9450050E946F068823E1F396
:102CD000B82E6894B5F88B2D0E942F0584E694E0F9
:102CE0000E94500581E694E00E94500559E6B51215
:102CF0004AC18DE494E00E9450058AE494E00E9469
:102D0000500582E394E00E9450058CE294E00E941A
:102D10005005CD5FDD4FA880C350D2400E9482068F
:102D20008F3F09F421C1CD5FDD4F8883C350D2406E
:102D300086E294E00E94500581E194E00E945005F3
:102D40008EE094E00E94500586EF93E00E945005CB
:102D500080EF93E00E945005C954DD4FB880C75BF7
:102D6000D2400E9482068F3F09F404C1C954DD4F4E
:102D70008883C75BD2408AEE93E00E945005CD5F06
:102D8000DD4F8881C350D240A81208C0C954DD4F1E
:102D90009881C75BD240B91609F4F5C0C954DD4F1C
:102DA0006881C75BD2400E944108C954DD4F6881E9
:102DB000C75BD240CD5FDD4F8881C350D2400E94B7
:102DC0008108882309F4DCC08EEC93E00E94500552
:102DD0008BE993E00E94500500628FBE30FE98C0E0
:102DE0005FB6F894E89430F884E696E00E945005C7
:102DF00083E296E00E9450058DE196E00E94500526
:102E000087E096E00E9450050E948206882E84E0AA
:102E100096E00E9450056FEF861609F478C08EEE9A
:102E200095E00E9450050E948206A82E8BEE95E048
:102E30000E94500588EE95E00E9450057FEFA7168E
:102E400009F465C082ED95E00E9450050E9482065B
:102E5000682E8FEC95E00E9450058FEF681609F4FC
:102E600056C089EB95E00E9450050E948206782E9C
:102E700085EB95E00E9450059FEF791609F447C055
:102E8000861003C0A71409F442C089E795E00E94A8
:102E900050050E946F06B82E8823D9F30E942F0593
:102EA0008B2D80628A3699F583E6CB5ADD4F888375
:102EB000C555D240CA5ADD4F8882C655D240C95A3C
:102EC000DD4FA882C755D240C85ADD4F6882C85529
:102ED000D240C75ADD4F7882C955D24098105BC0A6
:102EE000FA1059C088E198E00E945005C75ADD4F9A
:102EF0006881C955D240C85ADD4F8881C855D24033
:102F00000E944108006289EE97E00E9450055FBE72
:102F100015FFF1C06FB6F8941F7DC752DE4FB88021
:102F2000C95DD140A9E6BA123CC0CB5ADD4FB88288
:102F3000C555D24084E6CA5ADD4F8883C655D24073
:102F400080E3C95ADD4F8883C755D240B3C281E4BC
:102F500091E033CD86ED94E00E9450056CCE8BEA73
:102F600094E00E945005A0CECD5FDD4FA882C350F3
:102F7000D240DECEC954DD4FB882C75BD240FBCE13
:102F80008CEA93E023CF8AE793E00E94500525CF97
:102F900088E493E0FACF8DEE97E00E94500510642C
:102FA000B2CFB4E7BB1250C0CB5ADD4FB882C55583
:102FB000D240C252DD4F8881CE5DD2400E94B40A19
:102FC000C253DD4F8883CE5CD2408AE997E00E94ED
:102FD0005005C253DD4FB881CE5CD24085E997E001
:102FE000B038B9F044E0C253DD4F6881CE5CD240C6
:102FF000062E000C770B880B990BC854DD4F6883A5
:1030000079838A839B83C85BD2400E94F80581E95B
:1030100097E00E94500584E7CB5ADD4F8883C55561
:10302000D24085E6CA5ADD4F8883C655D2408DE628
:10303000C95ADD4F8883C755D24080E7C85ADD4F53
:103040008883C855D24036C2E6E6BE120CC0CB5AC1
:10305000DD4FB882C555D240882483948AEC97E02E
:103060002AE0722EE0C188ED97E00E9450050E9490
:103070006F06B82E6894B5F88B2D0E942F0585ED4C
:1030800097E00E945005CB5ADD4FB882C555D2401B
:10309000F6E6BF1609F329E6B21609F44BCF34E77A
:1030A000B31609F486CFB12C8DE897E00E94500545
:1030B000BB2009F407C21064CB5ADD4F8881C55587
:1030C000D240863691F4CA5ADD4F8881C655D24027
:1030D0008F110BC0C95ADD4F8881C755D240C25DE0
:1030E000DD4F8883CE52D24014608091C00087FDAE
:1030F000ECC16FBEEB2C702F7170772E00FF71C189
:103100004FB6F8940E7F0E94A70686E597E00E94CE
:10311000500581E497E00E9450058FE297E00E94FD
:10312000500589E297E00E94500589EC96E00E94E4
:103130005005812C88E0881520F087EC96E00E94ED
:103140005005882D90E001969C01990F440B550B7A
:10315000C854DD4F288339834A835B83C85BD240E0
:1031600044E6C854DD4F688179818A819B81C85BC0
:10317000D2400E945E0584EC96E00E945005AA248D
:10318000A394B12CAC0EBD1E37E0839EA00CB11CE5
:103190001124D5016C9061109BC180EC96E00E94D7
:1031A000500589EB96E00E945005F50181818A3037
:1031B00008F0ABC184EB96E00E9450058FEA96E0E0
:1031C0000E945005662009F4D7C1D50112968C9152
:1031D0000E942F058AEA96E00E945005F50183813E
:1031E000803809F4CEC1282F880F330B440B550BC0
:1031F000C854DD4F288339834A835B83C85BD24040
:1032000044E0C854DD4F688179818A819B81C85B25
:10321000D2400E94F8058DE996E00E945005D50144
:1032200014968C91282F30E050E040E0C854DD4FD8
:10323000288339834A835B83C85BD24044E6C85401
:10324000DD4F688179818A819B81C85BD2400E9471
:103250005E058AE996E00E945005D5011596BC905E
:10326000BB2009F497C1B3E6BB1520F088E996E0CE
:103270000E945005E9E0EB1520F086E996E00E94F7
:10328000500584E996E00E9450052B2D30E050E077
:1032900040E0C854DD4F288339834A835B83C85B91
:1032A000D24044E6C854DD4F688179818A819B8190
:1032B000C85BD2400E945E05882D63E00E9488258D
:1032C000923009F06CC18CE896E00E94500583941E
:1032D00032E383122FCF8DE696E00E945005C35251
:1032E000DD4F4881CD5DD240842F90E0B0E0A0E07A
:1032F00044E6C854DD4F88839983AA83BB83C85BA7
:10330000D240BC01CD010E945E058AE696E00E9493
:10331000500590E080E0E1E0F0E0EC0FFD1F57E0A9
:10332000859FE00DF11D11242081271101C09F5FB1
:103330008F5F823381F7E5EAF1E0EC0FFD1FE70DC7
:10334000F11D9083739463E37612E3CF82E797E0F5
:103350000E945005812C78E0781518F080E30E94D7
:103360002F05A82CB12CC50101969C01990F440B87
:10337000550BC854DD4F288339834A835B83C85B70
:10338000D24044E6C854DD4F688179818A819B81AF
:10339000C85BD2400E945E058FE697E00E94500510
:1033A000E6EAF1E0EC0FFD1FEA0DFB1D80818111C3
:1033B000F9C08BE697E00E945005882D63E00E94DB
:1033C0008825923009F006C188E697E00E945005F2
:1033D000839452E38512BFCF8CE597E00E9450059D
:1033E0004FBE05FFFCC0F894CC53DD4F6881C45C30
:1033F000D2406C3908F4F1C060E081E00E94EB0734
:103400008DE392E00E94100888E19EE00FB6F894E8
:10341000A895809360000FBE909360000E94A7065D
:10342000FFCF22E0822E0E9450050E946F06A82E38
:103430008823D9F30E942F0540EDA40E0E946F0649
:10344000B82E8823D9F30E942F05A79CB00C112415
:1034500050EDB50E8AEB97E00E945005BB2069F154
:103460002B2D30E062E081E190E0861611F083E3DD
:1034700090E0281739070CF58B2D90E0B0E0A0E024
:10348000C854DD4F88839983AA83BB83C85BD2402D
:1034900044E6BC01CD010E945E05E5E5F2E0EC0FDB
:1034A000FD1FE80DF11DB0828EEB97E0A1E08A16BA
:1034B00009F4B7CFBB24B394F7CD87EA97E00E9415
:1034C0005005F1CD1F7BBE2C10CE8091C6000DCED5
:1034D0008EEB96E00E945005B9E0B61520F08CEB1B
:1034E00096E00E945005862D90E0B0E0A0E044E612
:1034F000C854DD4F88839983AA83BB83C85BD240BD
:10350000BC01CD010E945E054CCE6AE00E94882578
:10351000592E282F30E050E040E0C854DD4F28837A
:1035200039834A835B83C85BD24042E0C854DD4F95
:10353000688179818A819B81C85BD2400E94F805AD
:1035400082EB96E00E945005452D50E070E060E06F
:10355000C854DD4F488359836A837B83C85BD2405C
:1035600044E6C854DD4F688179818A819B81C85BBC
:10357000D2400E945E0522CE8DEA96E00E94500560
:1035800029CE85EA96E0611002C080EA96E00E94AA
:10359000500541CE8FE896E00E9450058DCE8AE816
:1035A00096E093CE482F50E070E060E0C854DD4FC5
:1035B000488359836A837B83C85BD24043E0C85405
:1035C000DD4F688179818A819B81C85BD2400E94EE
:1035D000F805F3CE80E697E0F9CE419A15CF06FDC7
:1035E0000AC016FF74C0CB5ADD4F8881C555D24042
:1035F000893609F06CC0BFB6F8940F7B80E090E884
:10360000282F30E0E6EAF1E0EC0FFD1FE20FF31F98
:10361000108277E0729FF001739FF00D1124A1E0FA
:10362000B0E0AC0FBD1FEA0FFB1F108211821282A7
:103630009383958316828F5F823311F7CC53DD4FCE
:10364000B881C45CD240BC39E0F581E0C651DD4FA1
:10365000E881F981CA5ED2408083C053DD4FA881E2
:10366000B981C05DD240FC920E947504C451DD4F07
:10367000E881F981CC5ED24080838EE6D1108AE663
:10368000C053DD4FA881B981C05DD24012968C93A2
:103690001297C253DD4FE881CE5CD2401396EC9373
:1036A000139715961C9260E080E099E20E94E9066B
:1036B0008695C053DD4FA881B981C05DD240169672
:1036C0008C93BFBEC352DD4F1882CD5DD240E11056
:1036D0001BC08091D302EE24E39481FF0DC0809142
:1036E000D1029091D202C152DD4FE881F981CF5DC4
:1036F000D240E817F90740F0CC53DD4FF881C45CA5
:10370000D240FC3908F4E12C16FF5EC0EE2009F42B
:103710005BC07FB6F8941F7BCB5ADD4F8881C555BF
:10372000D2408356E12C812C883148F490E0FC0192
:10373000E85CFE4F8080805E9E4FDC01EC90A82C00
:10374000B12CE5E5F2E0EC0FFD1FEA0DFB1DE08278
:103750001182CB5ADD4F8881C555D240863611F48F
:10376000DD2029F1839425E532E02C0F3D1FA20EC8
:10377000B31E1AC00E942D07682DCE018B5A9D4F93
:103780000E94DA09C454DD4F8883CC5BD240F50136
:10379000808181508083C454DD4FF881CC5BD2405E
:1037A000F11101C05F98EA94E110E4CF06608091C6
:1037B000D3028D7F8093D3021092D2021092D10255
:1037C0000E947B0A7FBEE12C12FF4FC0BFB6F89467
:1037D0001B7FDD2009F446C0CE52DD4F4881598160
:1037E0006A817B81C25DD240452B462B472BD1F1AC
:1037F00010610E9421078091CD029091CE02A0918C
:10380000CF02B091D002CE52DD4F288139814A815A
:103810005B81C25DD240282B392B4A2B5B2BC854CD
:10382000DD4F288339834A835B83C85BD2405C9A2F
:10383000C854DD4F688179818A819B81C85BD24001
:103840000E94B306C854DD4F488159816A817B814B
:10385000C85BD2404093CD025093CE026093CF021A
:103860007093D0020E947B0ABFBE14FF56C08091A5
:10387000CC02882309F451C02FB7F8941092CC02DF
:1038800013FBBB24B0F8A12C412C512C320141E098
:1038900050E060E070E08091CD029091CE02A09166
:1038A000CF02B091D00284239523A623B723892B7E
:1038B0008A2B8B2B89F0E7EAF2E0EC0FFD1FEA0D73
:1038C000F11D30813F5FC753DD4F9881C95CD24005
:1038D000391708F0A7C03083440F551F661F771FA4
:1038E000A394A0E1AA12D7CFB0FA13F98091CD0228
:1038F0009091CE02A091CF02B091D002B301A2016B
:10390000482759276A277B27C653DD4F48835983A9
:103910006A837B83CA5CD2402FBF13FF28C0BFB627
:10392000F894177FC653DD4F688179818A819B8126
:10393000CA5CD2400E94B306C653DD4F68817981CC
:103940008A819B81CA5CD2406093CD027093CE0283
:103950008093CF029093D002672B682B692B31F4B0
:103960005C981F7E0E9426070E943107BFBEAFB63B
:10397000F8942A9887E20E94E30680E00E94E3061A
:10398000B82E80E00E94E3069B2D2A9A82FD52C049
:1039900092FF55C060E08FEF9DE30E94E90690E042
:1039A00061E084609D630E94E90682E091E017FD7A
:1039B00003C0813009F090E090FB17F9823049F4A0
:1039C0008091D6029091D70201969093D70280936E
:1039D000D602AFBE17FFCAC08FB6F8941F770E94F9
:1039E0002B0760E08FEF9FE60E94E906882349F1EC
:1039F00060E08FEF94E20E94E906282E26940E9450
:103A0000FD062A9880E00E94E3068FEF0E94E306FD
:103A1000893278F5CD5FDD4F8883C350D240BB2417
:103A2000B39434C0442A552A662A772A1082BB24CC
:103A3000B39452CF8095909581709927B7CF80E04D
:103A4000B5CF61E081E093E20E94E906412C512C60
:103A5000ABE46A2E712C71E0471A510861087108B5
:103A600039F260E08FEF93E20E94E90681FFF3CF25
:103A7000BFCF88E2CFCF8FEF0E94E306E3E0F2E012
:103A8000EC0FFD1FEB0DF11D8083B394CD5FDD4F77
:103A90008881C350D2408B1570F72A9ACD5FDD4FD5
:103AA0007880C350D24087E2871510F4F7E27F2E6A
:103AB00080E08715E8F0A72CB12CECE2F2E0EC0FE7
:103AC000FD1FEA0DFB1D108261E080E198E20E947B
:103AD000E9065D98C45DDD4FE881CC52D240E356E3
:103AE000E23108F03FC0F0E0E65DF94D0C94D225DC
:103AF000282F30E0ECE2F2E0EC0FFD1FE20FF31FA5
:103B0000A3E0B2E0AC0FBD1F2A0F3B1FD9011196F5
:103B10009C9190838F5FCDCFFE01EA0DFB1DE55D8B
:103B2000FD4F8081815009F0EAC0A5014250510942
:103B300057FF02C04F5F5F4FBA017595679512FB43
:103B4000992790F9CE52DD4F188219821A821B8272
:103B5000C25DD240282F30E0261737070CF4D6C0BC
:103B600090FB12F90A600E947B0A8FBE8091D502F9
:103B70008823D1F0BFB6F89460E080E099E20E941B
:103B8000E9069091D50219160CF09AC2853A08F40C
:103B900097C29091D502891B90E061E099620E94E2
:103BA000E9061092D502BFBECC53DD4FB881C45C8C
:103BB000D240BC3910F40C940010E02FE270BE2EFD
:103BC00001FD4DC08091DC028C3F58F48091DB02F6
:103BD0008C3F38F48091D9029091DA02823F924072
:103BE000D0F18FB6F8948091DC028C3F08F072C25D
:103BF0008091DB028C3F78F01092DB0261E082E082
:103C00000E94CE07A12C83E692E00E941008A394A4
:103C100044E1A412F8CF8091D9029091DA02823F58
:103C20009240C0F01092DA021092D90261E083E073
:103C30000E94CE0782E692E00E941008B39454E1FD
:103C4000B512F8CF61E0C054DD4F6883C05CD2404C
:103C500043E0C42E8FBE01FD02C00C9400106FB66D
:103C6000F8940D7F02FF2AC061E081E00E94CE0738
:103C70008FE492E00E941008C454DD4F7881CC5B41
:103C8000D24083E592E0711160C4CB5ADD4F888148
:103C9000C555D240893609F448C308F02BC2833693
:103CA00009F458C4863609F44CC20B7F81E0809336
:103CB000DC02C454DD4F1882CC5BD24003FF1CC031
:103CC00061E082E00E94CE0784EA92E00E94100840
:103CD000C45DDD4F8881CC52D240893609F45CC581
:103CE00008F0DBC4833609F450C6863609F4DEC416
:103CF000077F81E08093DB026FBE0C940010E0EF41
:103D0000F2ED3197F1F700C000000CCFDD2009F48F
:103D100041C0220F331FECE2F2E0EC0FFD1FE20F77
:103D2000F31F21812F1136C0E281E150E03190F57F
:103D3000CC53DD4FF881C45CD240FC3958F524E007
:103D4000E29FD001112446E651E04C0F5D1FA40F05
:103D5000B51F4D905D906D907C90CE52DD4F2881C7
:103D600039814A815B81C25DD240242935294629A7
:103D70005729CE52DD4F288339834A835B83C25D46
:103D8000D24047EA52E04C0F5D1F4E0F511DFA0121
:103D9000108291E08F5FDECEECE2F2E0EC0FFD1FCF
:103DA000E70DF11D31978081815069F4C252DD4FDA
:103DB0008881CE5DD2400E94B40AC253DD4F888311
:103DC000CE5CD240CFCEA0EFB2ED1197F1F700C09C
:103DD0000000EACFECE2F2E0EC0FFD1FE70DF11D71
:103DE0003197E080EA94E11056C080E7CB5ADD4F6E
:103DF0008883C555D240CA5ADD4F9882C655D240F5
:103E0000C95ADD4FF882C755D240CC53DD4FF881F7
:103E1000C45CD24082E3FC3910F40E947504C85A95
:103E2000DD4F8883C855D240C75ADD4FD882C95567
:103E3000D240C253DD4F2881CE5CD240C65ADD4FFE
:103E40002883CA55D24080E1C55ADD4F8883CB55BF
:103E5000D240C45ADD4F2882CC55D24060E080E089
:103E600099E20E94E9068695C35ADD4F8883CD55B5
:103E7000D24082E086BB109285001092840080912F
:103E8000D30282608093D3021092D2021092D102A8
:103E90001064006467CEE0EFF2ED3197F1F700C0F7
:103EA0000000A0CFECE2F2E0EC0FFD1FE70DF11DEA
:103EB00031978081815031F5C35DDD4F8881CD52CE
:103EC000D240853499F0882389F0891579F08150A2
:103ED000282F30E0E1E0F0E0EC0FFD1FB7E0B89FE5
:103EE000E00DF11D11248081882399F0C352DD4F2C
:103EF000E881CD5DD240EF5FC352DD4FE883CD5DF9
:103F0000D24030CEA0EFB2ED1197F1F700C0000023
:103F1000D1CFC25DDD4F8881CE52D2408083C15D5A
:103F2000DD4F8881CF52D2408183C05DDD4F8881D3
:103F3000C053D240811127C08EE647E0429FF00176
:103F4000439FF00D112461E070E06C0F7D1FE60FC0
:103F5000F71F8283CF5CDD4F8881C153D2408383BA
:103F6000CE5CDD4F8881C253D2408483CD5CDD4F6F
:103F70008881C353D2408583CC5CDD4F8881C45394
:103F8000D2408683EFCD8AE6D8CFECE2F2E0EC0FA8
:103F9000FD1FE70DF11D31978081815069F5D1102A
:103FA000E1CDC35DDD4F8881CD52D2408911DACD9C
:103FB000C25DDD4F8881CE52D2408F11D3CDC15D1D
:103FC000DD4F8881CF52D2409FEF980F923308F097
:103FD000C9CDC05DDD4F6881C053D2409FEF960FC1
:103FE000923308F0BFCD891103C06F1509F4BACD23
:103FF0000E9441080062B6CDA0EFB2ED1197F1F733
:1040000000C00000CACFECE2F2E0EC0FFD1FE70DAC
:10401000F11D31978081815081F5C35DDD4F88812D
:10402000CD52D24089119ECDFE01EB5AFD4F8AE759
:104030008083918280E1828380E0DF01A80FB11D3F
:1040400013961C928F5F8031C1F7106482E086BBAB
:1040500010928500109284008091D3028260809338
:10406000D302CA51DD4F28813981C65ED2403093D8
:10407000D2022093D102E12C75CDE0EFF2ED319721
:10408000F1F700C00000C7CFECE2F2E0EC0FFD1F3B
:10409000E70DF11D31978081815059F4C35DDD4FEB
:1040A0008881CD52D24090E061E099620E94E90699
:1040B00059CDA0EFB2ED1197F1F700C00000ECCFA1
:1040C0009091D5029F3F09F067CD8F3F09F464CDF1
:1040D0008F5F62CD1092DC0261E081E00E94CE072A
:1040E000A12C83E692E00E941008A39424E1A2127E
:1040F000F8CF7ECD803709F466C1843709F0D5CD7D
:1041000087E892E00E94100804FD5BC1C153DD4FB7
:104110006881CF5CD240CB53DD4F8881C55CD240F3
:104120000E94CE0783E692E00E941008C054DD4F43
:104130006881C05CD2408C2D0E94CE0789E992E054
:10414000D2C0CA5ADD4F8881C655D24081508233D1
:1041500008F037C1C95ADD4F8881C755D240815018
:10416000803108F02EC161E080E00E94EB0785E617
:1041700092E00E941008CA5ADD4F8881C655D2408D
:10418000282F30E050E040E0C454DD4F28833983CD
:104190004A835B83CC5BD24022E0AE0142585D4F44
:1041A000C454DD4F688179818A819B81CC5BD24088
:1041B0000E94A504CE0182589D4F0E94100888E6F7
:1041C00092E00E941008C95ADD4F8881C755D2403D
:1041D000482F50E070E060E0C454DD4F48835983BD
:1041E0006A837B83CC5BD24022E0AE0142585D4FB4
:1041F000C454DD4F688179818A819B81CC5BD24038
:104200000E94A504CE0182589D4F0E9410088DE5A2
:1042100092E00E94100804FDD4C0C153DD4F6881B4
:10422000CF5CD240CB53DD4F8881C55CD2400E9429
:10423000CE0783E692E00E941008C054DD4F6881EB
:10424000C05CD2408C2D0E94CE0780E392E00E9499
:104250001008CA5ADD4F8881C655D240282F30E059
:1042600050E040E0CB53DD4F288339834A835B83A2
:10427000C55CD24022E0AE0142585D4FCB53DD4FCA
:10428000688179818A819B81C55CD2400E94A504A6
:10429000CE0182589D4F0E94100861E080E00E948C
:1042A000EB07C95ADD4F8881C755D240482F50E0EF
:1042B00070E060E0CB53DD4F488359836A837B8392
:1042C000C55CD24022E0AE0142585D4FCB53DD4F7A
:1042D000688179818A819B81C55CD2400E94A50456
:1042E000CE0182589D4F0E941008C054DD4F988126
:1042F000C05CD240995F8C2D963118F081E08C0D16
:1043000091E0853008F083E021E030E03093DA027C
:104310002093D902C054DD4F5881C05CD240C153B4
:10432000DD4F5883CF5CD24041C08CE692E00E94C2
:10433000100804FD46C0C153DD4F6881CF5CD240F8
:10434000CB53DD4F8881C55CD2400E94CE0783E607
:1043500092E00E941008C054DD4F6881C05CD240DA
:104360008C2D0E94CE078EE792E00E941008C05468
:10437000DD4F9881C05CD240995F8C2D963118F04A
:1043800081E08C0D91E0853008F083E021E030E0A1
:104390003093DA022093D902C054DD4F6881C05CAB
:1043A000D240C153DD4F6883CF5CD240C054DD4F53
:1043B0009883C05CD240CB53DD4FC882C55CD240ED
:1043C000C82E0F7E72CC82EA92E00E941008CA5A70
:1043D000DD4F8881C655D240282F30E050E040E0C4
:1043E000C454DD4F288339834A835B83CC5BD2403E
:1043F00022E0AE0142585D4FC454DD4F688179819F
:104400008A819B81CC5BD2400E94A504CE01825858
:104410009D4F0E94100886E692E00E941008C95A3B
:10442000DD4F8881C755D240482F50E070E060E0F2
:10443000C454DD4F488359836A837B83CC5BD2406D
:1044400022E0AE0142585D4FC454DD4F688179814E
:104450008A819B81CC5BD2400E94A504CE01825808
:104460009D4F0E94100883E692E00E941008C85AEF
:10447000DD4F8881C855D240843620F483E692E02F
:104480000E941008C85ADD4F8881C855D2403AE0D2
:10449000B32E6B2D3DD3282F30E050E040E0C454C4
:1044A000DD4F288339834A835B83CC5BD24021E094
:1044B000AE0142585D4FC454DD4F688179818A81D5
:1044C0009B81CC5BD2400E94A504CE0182589D4FB7
:1044D0000E94100885E892E00E941008C85ADD4F3B
:1044E0008881C855D2406B2D13D3492F50E070E01E
:1044F00060E0C454DD4F488359836A837B83CC5B7F
:10450000D24021E0AE0142585D4FC454DD4F688176
:1045100079818A819B81CC5BD2400E94A504CE0127
:1045200082589D4F0E94100883E692E00E94100876
:10453000C75ADD4F8881C955D240811109C08EE626
:1045400061E00E94EB0780E692E00E941008ADCB8C
:104550008AE6F6CF82EA92E00E941008CA5ADD4F3E
:104560008881C655D240282F30E050E040E0C45446
:10457000DD4F288339834A835B83CC5BD24022E0C2
:10458000AE0142585D4FC454DD4F688179818A8104
:104590009B81CC5BD2400E94A504CE0182589D4FE6
:1045A0000E94100885E692E00E941008C95ADD4F6B
:1045B0008881C755D240482F50E070E060E0C45475
:1045C000DD4F488359836A837B83CC5BD24022E0F2
:1045D000AE0142585D4FC454DD4F688179818A81B4
:1045E0009B81CC5BD2400E94A504CE0182589D4F96
:1045F0000E94100880EA92E00E941008C85ADD4F1D
:104600008881C855D240282F30E050E040E0C454A3
:10461000DD4F288339834A835B83CC5BD24022E021
:10462000AE0142585D4FC454DD4F688179818A8163
:104630009B81CC5BD2400E94A504CE0182589D4F45
:104640000E94100885E692E00E941008C75ADD4FCC
:104650008881C955D240482F50E070E060E0C454D2
:10466000DD4F488359836A837B83CC5BD24022E051
:10467000AE0142585D4FC454DD4F688179818A8113
:104680009B81CC5BD2400E94A504CE0182589D4FF5
:104690000E94100883E692E058CF803709F494C056
:1046A000843709F025CB8BEB92E078C0C35DDD4FFA
:1046B000A880CD52D2408FEF8A0D823308F018CBFC
:1046C000C25DDD4FB880CE52D2408FEF8B0D80316E
:1046D00008F00ECB61E080E00E94EB0785E692E0F7
:1046E0000E9410086A2D70E090E080E022E0AE01A8
:1046F00042585D4F0E94A504CE0182589D4F0E94F2
:10470000100888E692E00E9410088B2D90E0B0E03F
:10471000A0E0C854DD4F88839983AA83BB83C85B1C
:10472000D24022E0AE0142585D4FBC01CD010E9453
:10473000A504CE0182589D4F0E94100885EB92E09F
:104740000E941008211005C088EA92E00E9410081B
:10475000CFCA822D93E6921508F483E6282F30E025
:1047600050E040E0C854DD4F288339834A835B839F
:10477000C85BD24022E0AE0142585D4FC854DD4FC5
:10478000688179818A819B81C85BD2400E94A5049F
:10479000CE0182589D4FDACF8BEA92E00E9410083A
:1047A000222091F2822D33E6321508F483E6482F59
:1047B00050E070E060E0C854DD4F488359836A835D
:1047C0007B83C85BD240CDC082EA92E00E94100891
:1047D000C35DDD4F8881CD52D240282F30E050E0BC
:1047E00040E0C854DD4F288339834A835B83C85B2C
:1047F000D24022E0AE0142585D4FC854DD4F68817F
:1048000079818A819B81C85BD2400E94A504CE0138
:1048100082589D4F0E94100886E692E00E94100880
:10482000C25DDD4F8881CE52D240482F50E070E00B
:1048300060E0C854DD4F488359836A837B83C85B3B
:10484000D24022E0AE0142585D4FC854DD4F68812E
:1048500079818A819B81C85BD2400E94A504CE01E8
:1048600082589D4F0E94100883E692E00E94100833
:10487000C15DDD4FB880CF52D24053E65B1520F0CA
:1048800083E692E00E9410088B2D6AE041D1B92E98
:10489000282F30E050E040E0C854DD4F28833983B2
:1048A0004A835B83C85BD24021E0AE0142585D4F32
:1048B000C854DD4F688179818A819B81C85BD24071
:1048C0000E94A504CE0182589D4F0E94100885E8E1
:1048D00092E00E9410084B2D50E070E060E0C85458
:1048E000DD4F488359836A837B83C85BD24021E0D4
:1048F000AE0142585D4FC854DD4F688179818A818D
:104900009B81C85BD2400E94A504CE0182589D4F76
:104910000E94100883E692E00E941008C05DDD4FFF
:104920008881C053D24081112EC08EE661E00E9482
:10493000EB0788EB92E00E941008222009F404CFD4
:10494000822D53E6521508F483E6282F30E050E01C
:1049500040E0C854DD4F288339834A835B83C85BBA
:10496000D24022E0AE0142585D4FC854DD4F68810D
:1049700079818A819B81C85BD2400E94A504CE01C7
:1049800082589D4FE3CE8AE6D1CFC35DDD4F88804C
:10499000CD52D240882009F4ABC9C25DDD4FA8805A
:1049A000CE52D240AA2009F4A3C9C15DDD4FB88020
:1049B000CF52D240BB2009F49BC9C05DDD4F788047
:1049C000C053D240772009F493C932E3381508F474
:1049D0008FC93A1508F48CC93B1508F489C982EAD5
:1049E00092E00E941008482D50E070E060E0C8544A
:1049F000DD4F488359836A837B83C85BD24022E0C2
:104A0000AE0142585D4FC854DD4F688179818A817B
:104A10009B81C85BD2400E94A504CE0182589D4F65
:104A20000E94100885E692E00E9410086A2D70E04E
:104A300090E080E022E0AE0142585D4F0E94A50464
:104A4000CE0182589D4F0E94100880EA92E00E9499
:104A500010088B2D90E0B0E0A0E022E0AE014258BB
:104A60005D4FBC01CD010E94A504CE0182589D4F2F
:104A70000E94100885E692E00E941008272D30E081
:104A800050E040E0C854DD4F288339834A835B837C
:104A9000C85BD24022E0AE0142585D4FC854DD4FA2
:104AA000688179818A819B81C85BD2400E94A5047C
:104AB000CE0182589D4F0E94100883E692E046CEB8
:104AC000AA2011F40C9423120C949C14CA52DD4FAA
:104AD0001882C65DD240C552DD4F8883CB5DD2407F
:104AE0000C94C911C552DD4F1882CB5DD2400C9495
:104AF0006D12DB018F939F935BD0BF91AF91A29F0B
:104B0000800D911DA39F900DB29F900D11240895CB
:104B1000991B79E004C0991F961708F0961B881F0F
:104B20007A95C9F780950895A1E21A2EAA1BBB1B9E
:104B3000FD010DC0AA1FBB1FEE1FFF1FA217B30769
:104B4000E407F50720F0A21BB30BE40BF50B661F7F
:104B5000771F881F991F1A9469F760957095809543
:104B600090959B01AC01BD01CF010895052E97FBE7
:104B700016F400940FD057FD05D0D6DF07FC02D005
:104B800046F408C050954095309521953F4F4F4FC2
:104B90005F4F089590958095709561957F4F8F4FE9
:104BA0009F4F0895EE0FFF1F0590F491E02D09949B
:104BB00040D0A59F900DB49F900DA49F800D911D96
:104BC000112408952F923F924F925F926F927F929D
:104BD0008F929F92AF92BF92CF92DF92EF92FF920D
:104BE0000F931F93CF93DF93CDB7DEB7CA1BDB0BB9
:104BF0000FB6F894DEBF0FBECDBF09942A8839885E
:104C000048885F846E847D848C849B84AA84B98464
:104C1000C884DF80EE80FD800C811B81AA81B98170
:104C2000CE0FD11D0FB6F894DEBF0FBECDBFED0184
:104C30000895A29FB001B39FC001A39F700D811D75
:104C40001124911DB29F700D811D1124911D089595
:104C5000F894FFCFC51FB21DB21D8C1DB21DB21D31
:104C6000EA1EB21DB21DB21D0320B21DB21D521F9D
:084C7000B21D4420B21DCC1E50
:104C7800480DD007E803F401FA007D0064003E0007
:104C8800320028001F00190014000F000C000A0051
:104C980003000003000003000000020000020000FF
:104CA80000020000000000020500000300000300ED
:104CB80000000300000900000004000000000013C9
:104CC8002020456C204675657261646F726F2020E4
:104CD8000055555555555555555501005AC3BC6E87
:104CE80064626F782076312F7632005472616E7369
:104CF8006D6974746572005AC3BC6E64626F780023
:104D0800636F6E660072656D6F746500636C6561D4
:104D1800726C6973740073656E640066697265000D
:104D28006964656E740074656D70006F7264657295
:104D3800730064697361726D00636C73006B696CF6
:104D48006C006877006861726477617265006967F2
:104D58006E697465720072666D000A0D4B6F6D6D39
:104D6800616E646F202831362D4269742D4865784C
:104D78002D466F726D61742C204D5342207A752038
:104D880031207365747A656E2066C3BC72205363E4
:104D980068726569627A756772696666293A203051
:104DA80078000A0A0D006165736B657900526573B6
:104DB800657474696E67206465766963652100545B
:104DC800783A004552524F5220202020202020209F
:104DD8002020202000205300204348004964656EAD
:104DE800746966792020202020202020200078491E
:104DF80044454E54002E0054656D7065726174759B
:104E08007265202020202020007854454D50200035
:104E18002D3E550052783A002D2D004964656E7478
:104E28006966792020202020202D0054656D70654A
:0C4E38007261747572652020202D00004E
:00000001FF
