:1000000086C40000A0C400009EC400009CC4000080
:100010009AC400000C94D20896C4000094C4000056
:1000200092C4000090C400008EC400000C94D80854
:100030008AC4000088C4000086C4000084C4000094
:1000400082C4000080C400007EC400007CC40000A4
:100050007AC4000078C4000076C4000074C40000B4
:1000600072C4000070C400000A0D001B5B31442004
:100070001B5B3144000D0A000D0A417573776168FE
:100080006C3A202845292D416E7AC3BC6E64657296
:100090002C20285429616C6F6E2C2041626272758D
:1000A0006368206D697420616E64657265722054A6
:1000B000617374653A2000452D414E5AC39C4E44ED
:1000C000455220283230206D73290054414C4F4E48
:1000D000202832207329000D0A4465727A656974FC
:1000E0002065696E67657374656C6C746573204117
:1000F0006E7AC3BC6E646D697474656C0D0A3D3DA7
:100100003D3D3D3D3D3D3D3D3D3D3D3D3D3D3D3D1F
:100110003D3D3D3D3D3D3D3D3D3D3D3D3D3D3D3D0F
:100120000D0A0A005665727363686CC3BC7373650D
:100130006C756E67206E6963687420616B74697694
:100140006965727421000D0A4B65696E6520C38470
:100150006E646572756E67656E206765737065693C
:100160006368657274210D0A0A000D0A4572666F94
:100170006C67726569636820676573706569636839
:100180006572742C204465766963652073746172AE
:10019000746574206E6575210D0A0A000D0A4469A4
:1001A0006573656E205363686CC3BC7373656C20A4
:1001B00073706569636865726E20286A2F6E293FC7
:1001C000200020000D0A4162627275636820776525
:1001D00067656E20756E7A756CC3A4737369676505
:1001E000722045696E67616265210D0A4B65696E13
:1001F0006520C3846E646572756E67656E20676581
:10020000737065696368657274210D0A0A000D0ACE
:100210000A4E65756572205363686CC3BC73736561
:100220006C3A20000A0D000D0A0A4E6575656E20B5
:1002300028532963686CC3BC7373656C2065696E51
:10024000676562656E2C2041626272756368206D1D
:1002500069742062656C6965626967657220616EA8
:1002600064657265722054617374652120002000FA
:100270000D0A5363686CC3BC7373656C206C742E79
:1002800020454550524F4D3A202020200020005656
:1002900065727363686CC3BC7373656C756E67203D
:1002A000616B74697669657274210D0A5363686CB9
:1002B000C3BC7373656C206C742E2046756E6B6DB9
:1002C0006F64756C3A20000A0D416B7475656C6C37
:1002D000652045696E7374656C6C756E673A2000B5
:1002E0003D3D3D3D3D3D3D3D3D3D3D3D3D3D3D3D3E
:1002F0003D3D3D3D3D3D3D3D3D3D3D3D3D3D3D3D2E
:100300003D0A0D000A0D4B6F6E6669677572617468
:10031000696F6E20646572205665727363686CC382
:10032000BC7373656C756E670A0D000A0D4B6569C9
:100330006E6520C3846E646572756E6720766F7219
:1003400067656E6F6D6D656E0A0A0D000A0D4E656C
:100350007573746172742E2E2E0A0A0D004665683C
:100360006C6572212042697474652065726E6575D2
:10037000742076657273756368656E210A0D000AD4
:100380000A0DC3846E646572756E67206572666F50
:100390006C677265696368210A0D001B5B33376DFA
:1003A000001B5B33316D002C20454E544552203DDF
:1003B00020616C7465722057657274293A2000358B
:1003C00030000A0D4E65756520536C6176652D49C8
:1003D00044202830312D001B5B33376D001B5B330D
:1003E000316D002C20454E544552203D20616C74E7
:1003F00065722057657274293A20003530004E65C9
:10040000756520556E697175652D49442028303118
:100410002D000A0D000A0D00284929447320C3A4A9
:100420006E6465726E2C2041626272756368206D25
:1004300069742062656C6965626967657220616EC6
:1004400064657265722054617374652120000A0A24
:100450000A0D001B5B33376D000A0D004645484C02
:100460004552001B5B33316D00416B7475656C6CDC
:100470006520536C6176652D49443A2020001B5B52
:1004800033376D000A0D004645484C4552001B5B52
:1004900033316D000A0A0D416B7475656C6C652013
:1004A000556E697175652D49443A20000A0D416EFB
:1004B00067657363686C6F7373656E6573204465FD
:1004C000766963653A20001B5B33376D001B5B3335
:1004D000376D000A0D4665686C6572206265696D4E
:1004E0002049442D4C6164656E0A0D001B5B33315D
:1004F0006D000A4B6F6E66696775726174696F6E25
:100500007370726F6772616D6D0A0D3D3D3D3D3DCB
:100510003D3D3D3D3D3D3D3D3D3D3D3D3D3D3D3D0B
:100520003D0A0D001B5B33336D0049442D57656355
:100530006873656C206D6974206A2062657374C38A
:10054000A4746967656E2C20616262726563686578
:100550006E206D697420616E6465726572205461ED
:100560007374652120000A0A0D004E6575652053DD
:100570006C6176652D49443A2020202020202000FF
:100580000A0D004E65756520556E697175652D49BA
:10059000443A202020202020000A0D000A0D0042AD
:1005A000697368657269676520536C6176652D496A
:1005B000443A2020000A0D00426973686572696739
:1005C0006520556E697175652D49443A20001B5BA5
:1005D00033376D000A0A52656D6F74652D4B6F6E6F
:1005E00066696775726174696F6E7370726F677236
:1005F000616D6D0A0D3D3D3D3D3D3D3D3D3D3D3D0A
:100600003D3D3D3D3D3D3D3D3D3D3D3D3D3D3D3D1A
:100610003D3D0A0D001B5B33336D000A0D000A0DD2
:100620004665686C657268616674652F646F70708A
:10063000656C7465204944733A200009000A0D0076
:100640002D2D2D2D002D00200020002C20002C20F1
:10065000002D2D2D2D006E2E612E002C20002D0042
:100660002C20002E002D2D2D2D002C2000300020C0
:10067000002D2D2D003A200030000A0D556E6971B5
:1006800075652D49443A20536C6176652D49442C9B
:100690002042617474657269657370616E6E756E07
:1006A00067202856292C205363686172663F2C20EE
:1006B00054656D706572617475722028C2B04329EB
:1006C0002C204B616E616C7A61686C2C2052535304
:1006D00049202864426D290A0D001B5B33376D00E9
:1006E0003D3D3D3D3D3D3D3D3D3D3D3D3D3D3D0A6D
:1006F0000D000A0D53797374656DC3BC6265727326
:10070000696368740A0D001B5B33336D000A0A0DC0
:100710000009200920092009000A0D002D2D2D00B7
:100720003A20000A0D536C6176652D49443A204108
:100730006E7A61686C20426F78656E0A0D000A0A55
:100740000D00C2B043006E2E612E0054656D7065C1
:1007500072617475723A2000556E67C3BC6C74691F
:1007600067652045696E6761626500203D20000A6B
:100770000D4B616E616C3A20200900536C61766507
:100780002D49443A09000D0A000A0D4D6F64757336
:1007900028662F692F74293A20000A0A0D000A0DD5
:1007A00049442D4B6F6E66696775726174696F6E2F
:1007B0007362656665686C2077697264206765732B
:1007C000656E646574210A0D000A0D494473207733
:1007D000657264656E206C6F6B616C20616E67651D
:1007E0007061737374210A0D000A0A0D00313030F4
:1007F000370032303139313232360044617465634A
:100800006F646520000A0D000A0D52464D006174A8
:100810006D65676133323870000A0D000A0D000DF6
:100820000A0A0A000D0A004F6666656E0020202045
:10083000200020003D3D3D3D3D3D3D3D3D3D3D3D9C
:100840003D3D3D3D3D3D3D3D3D3D3D3D3D3D0A0D3B
:100850004B616E616C2057696465727374616E647C
:100860000D0A000A0A0D47656D657373656E652094
:100870004B616E616C77696465727374C3A46E6456
:10088000650A0D000A0D0053706569636865726E34
:10089000206572666F6C677265696368210D0A0076
:1008A0000D0A000D0A53656E64656C656973747595
:1008B0006E67206461756572686166742073706527
:1008C00069636865726E20286A2F6E293F200020B8
:1008D0002D2D3E203A203078001B5B314400200053
:1008E0001B5B3144001B5D303B454C204655455257
:1008F00041444F524F07001B5B334A001B5B303BA8
:100900003048001B5B324A002D00300020001124CB
:100910001FBECFEFD8E0DEBFCDBF11E0A0E0B1E059
:10092000E4ECF7E302C005900D92A83EB107D9F7B9
:1009300021E0A8EEB1E001C01D92A23FB207E1F7AD
:1009400071D40C94E01B5CCB35B516BC81E085BB43
:1009500080EA86BD85E085BD80E095E541E050EA0E
:1009600029B122FB222720F9990F922BA89BFECFB9
:1009700045BB56BD883008F48F5F2FEF290F2E3FFF
:1009800078F3883068F335BD81E0911180E00895F7
:100990009FEB980F9A3130F0843C21F0863D11F0A6
:1009A0008C3D09F480620895FC01DB018C919081FB
:1009B000811104C081E0911105C00895319611960E
:1009C0008917A1F380E0F9CF40E050E066E970E0DC
:1009D000415051096109710921F09091C00095FFC2
:1009E000F7CF8093C60080E00895CF93DF93EC01AA
:1009F000FE0184912196882319F0E6DF8823C1F354
:100A0000DF91CF9108958F929F92AF92BF92EF9214
:100A1000FF920F931F93CF93DF93CDB7DEB7A197CC
:100A20000FB6F894DEBF0FBECDBF1A821982FE0149
:100A300033962FE1DF011D922A95E9F74836D9F563
:100A400010E011C0E1E0F0E0EC0FFD1FE10FF11D3F
:100A5000262F2F70208344E095958795779567958D
:100A60004A95D1F71F5F611571058105910551F711
:100A7000112341F310FD1F5F111111C0A1960FB694
:100A8000F894DEBF0FBECDBFDF91CF911F910F91C4
:100A9000FF90EF90BF90AF909F908F900895FE01D0
:100AA000E10FF11D80818A3020F0895C8DDF1150CB
:100AB000E3CF805DFBCF611571058105910521F4C0
:100AC0008AE099E092DFDACF00E097FF08C09095C6
:100AD0008095709561957F4F8F4F9F4F01E010E09B
:100AE0003AE0832E912CA12CB12C61157105810562
:100AF000910511F0113281F4002319F088E099E09A
:100B000074DF112309F4BACFFE01E10FF11D8081DA
:100B1000805D5ADF1150F5CFEE24E394F12CEC0EFA
:100B2000FD1EE10EF11CA50194010E946B1BF70153
:100B30006083B901CA011F5FD8CFCF92DF92EF92D5
:100B4000FF92CF93DF93CDB7DEB72A970FB6F89415
:100B5000DEBF0FBECDBF69837A838B839C834987B9
:100B600089819A81AB81BC818D839E83AF83B88755
:100B70001A868AE0C82ED12CE12CF12C8D819E8121
:100B8000AF81B885892B8A2B8B2B01F589819A81BE
:100B9000AB81BC81B7FF03C0998591509987AA8525
:100BA000B985BA1718F544E669817A818B819C81F1
:100BB0002ADF2A960FB6F894DEBF0FBECDBFDF91B5
:100BC000CF91FF90EF90DF90CF9008956D817E815F
:100BD0008F819885A70196010E946B1B2D833E8310
:100BE0004F8358879A859F5F9A87C8CF89859A8552
:100BF000891B8D83BD81BB23B1F28CE099E0F5DECA
:100C0000AD81A150AD83F6CFCF93DF93EC0190E09F
:100C10008881882311F0992319F0DF91CF910895ED
:100C20002196D2DE982FF4CF80E090E0A6E9B0E0E4
:100C30000197A109B10939F02091C00027FFF8CF31
:100C40008091C600089580E00895CF93DF93ECDF94
:100C5000C82F8A3029F4DFEF8D2FDF91CF910895CF
:100C60008D30C9F380ED8C0F863088F78C2FACDE89
:100C70008AE0C89FC02D1124C051D6DF8A3059F3B5
:100C80008D3049F3D82FDC0F9FEF9D0F9233A8F7DB
:100C90009BDEE2CF83E099E0A8DE8CEF98E0A5DE52
:100CA00087EF98E0A2DE85EE98E09FCE462F572F83
:100CB000BC012B982D984298BB27A72F962F852FE4
:100CC0008EBD762F652F542F44270DB407FEFDCF20
:100CD000452F562F672F77274EBD0DB407FEFDCF4A
:100CE00084E086B986B908958EBD0DB407FEFDCFA8
:100CF0008EB50895CF93C82F892F662361F0806841
:100D00002D982B984198F0DF8C2FEEDF419A2B988D
:100D10002D98CF9108958F77CFEFF2CFCF92DF92BA
:100D2000EF92FF9261E084E091E0E4DFC12CD12CEE
:100D30008BE4E82EF12C81E0C81AD108E108F10813
:100D400031F060E08FEF97E2D5DF87FFF4CF81E0ED
:100D5000CD28CE28CF2809F080E0FF90EF90DF90DB
:100D6000CF900895CF92DF92EF92FF9260E08FEFE5
:100D70009DE3C0DF90E061E084609D63BBDF61E0E4
:100D800080E191E0B7DFC12CD12C8BE4E82EF12C6F
:100D900081E0C81AD108E108F10831F060E08FEF76
:100DA00097E2A8DF87FFF4CF81E0CD28CE28CF28B7
:100DB00009F080E0FF90EF90DF90CF900895CF93FF
:100DC000419887E291DF80E08FDFC82F80E08CDFE1
:100DD0009C2F419A82FD0EC092FF09C060E08FEF08
:100DE0009DE388DF90E061E084609D6383DF80E0C5
:100DF000CF9108958095909581709927F9CF5D9A4C
:100E00005F9A5E9A289A08955D985F985E982898F0
:100E100008955D9A08955F9A08955E9A0895289AB4
:100E200008959B01F999FECF32BD21BD80BDFA9A8C
:100E3000F99A12BC11BC08959C01F999FECF32BDFC
:100E400021BDF89A80B512BC11BC0895862798E0A0
:100E50002CE8382F31708695311182279150C9F7CF
:100E60000895B0E0A0E0E7E3F7E00C94901B082FB2
:100E7000162FB82EB60E682F80E1E8DFE82E612F1E
:100E800080E1E4DFC82E612F8E2DE0DFD82E88E1CF
:100E9000F82ECF2DD0E0BE01802FC3DFBE016F5FE3
:100EA0007F4F812FBEDFBE016E5F7F4F8B2DB9DF7D
:100EB000BE016D5F7F4F8E2DB4DFBE016C5F7F4F33
:100EC0008C2DAFDFBE016B5F7F4F8D2DAADF84E2DB
:100ED000F80E84E8F812DDCFCDB7DEB7E9E00C9468
:100EE000AC1BB0E0A0E0E7E7F7E00C948E1BD82F36
:100EF000C62F88E1F82E9D2E960E0F2D10E0C8010A
:100F00009BDFA82EC801019697DFB82EC801029674
:100F100093DFC82EC80103968FDFE82EC801049620
:100F20008BDFD82EC801059687DF182FAD1213C0AE
:100F3000BC1211C0C9100FC06D2F80E187DFE8120D
:100F40000AC06C2F80E182DFD81205C06C2F8E2D75
:100F50007DDF181759F084E2F80E84E8F812CDCF3F
:100F600080E0CDB7DEB7EBE00C94AA1B81E0F9CFAF
:100F7000B0E0A0E0EEEBF7E00C948E1B7C016B017F
:100F800000E084E2982E099D50011124C501489685
:100F900053DFC82FC50149964FDFD82F682F8C2FFC
:100FA000A0DF182F882391F188E190E045DF182F0A
:100FB0008CE390E041DF1817F1F088E190E03CDF2E
:100FC000182F80E690E038DF181315C089E190E013
:100FD00033DF182F8DE390E02FDF18130CC089E169
:100FE00090E02ADF182F81E690E026DF181303C077
:100FF0006D2F8C2F36DFF701C083F601D08311E00F
:10100000812FCDB7DEB7EBE00C94AA1B023061F460
:101010006D2F8C2F66DF811107C085E4F701808377
:1010200085E6F6018083ECCF0F5F033009F0ABCF8C
:10103000E7CF20917C00287F20937C0090917C005A
:10104000982B90937C0029E090E080E030917A002A
:10105000306430937A0030917A0036FDFCCF4091B5
:10106000780050917900840F951F293011F490E099
:1010700080E0215059F723E0969587952A95E1F76E
:101080000895219A9AE09A95F1F78111219894E2B6
:101090009A95F1F70000199B80E097E99A95F1F78E
:1010A000219896E09A95F1F700C00895CF93DF93C9
:1010B000C82FD8E08C2F8170E4DFC6958111C068FD
:1010C000D150C1F78C2FDF91CF9108952998219AA3
:1010D0008CEC94E00197F1F700C00000219898EDA6
:1010E0009A95F1F7000083B1EAE2F4E03197F1F765
:1010F00000C0869581700895CF92DF92EF92FF92A3
:10110000CF93DF93882309F44BC0E0DF8CECCEDF74
:101110008EE4CCDF8DE7CADF88EDC8DF8FE1C6DF64
:10112000D5DF8CECC3DF84E4C1DFC12C5CE2D52EBB
:10113000EE24E394F12C81E0C81AD108E108F1080B
:1011400021F081E09EDF8823B1F3C0DF8CECAEDFBD
:101150008EEBACDF8FEFAADFC82FD0E08FEFA6DFDA
:1011600090E0982F88278C0F9D1F9C012227387FA5
:10117000232BA1F09195819591092FEF089634E0EA
:10118000969587953A95E1F7829F802D1124DF91FE
:10119000CF91FF90EF90DF90CF90089521E0EECFB8
:1011A00080E8F5CF8F9381E08093F1018F911895BE
:1011B0001F921FB61F9211248F939F93AF93BF93DB
:1011C0008091F0018F5F8093F0018D3738F080912E
:1011D000EF0181608093EF011092F0018091EF01A7
:1011E00081FF09C08091ED019091EE0101969093ED
:1011F000EE018093ED018091E9019091EA01A091C7
:10120000EB01B091EC010097A105B10519F081E067
:101210008093E801BF91AF919F918F911F901FBE66
:101220001F901895CDB7DEB7C754D2400FB6F894CB
:10123000DEBF0FBECDBF0FB6F894A89580916000B9
:10124000886180936000109260000FBE43983B9AC3
:1012500010E0FE01EA59FE4F1192119288E2DF017F
:101260001D928A95E9F7FE01E754FE4F1192119203
:1012700087E2DF01482E1D924A94E9F7FE01EE5104
:10128000FE4F11921192DF011D928A95E9F7FE013E
:10129000ED5CFE4F1192119281E3DF011D928A9560
:1012A000E9F7FE01E55FFD4F119211928EE0DF013B
:1012B000482E1D924A94E9F7FE01E55EFD4F11921A
:1012C0001192DF011D928A95E9F72A9A229A5C9A77
:1012D000239A549A259A3A9A389A2B984298409889
:1012E0002D9893E020E234E041E084E123B923B972
:1012F0008150E1F736B936B946B946B99150A9F7E8
:10130000E9E9F9E03197F1F700C05C980CB406FC0C
:1013100003C08CB581658CBD80916400806C809326
:10132000640080B7806880BF8FEF9FE29093890050
:1013300080938800809181008860809381008091F3
:101340006F00826080936F00809181008260809343
:1013500081002898209A5E98569A5F98579A5D98CF
:10136000559A80B7806880BF80917C00856C80939F
:101370007C0080917A00866080937A0080917A0068
:10138000806880937A0080917A00806480937A00EC
:1013900080917A00F82FF074EF2E86FDF9CF8091BE
:1013A00078009091790082E3C057DE4F8883C0595E
:1013B000D1408983BE0160577E4FCE010196D8DDB2
:1013C000811101C01CDDC057DE4FF880C059D140EB
:1013D0004980C05DDD4F4882C053D240442009F4AB
:1013E00033C3FF2009F438C38DE691E025DD853F46
:1013F00049F08DE691E020DD823021F06DE671E06C
:1014000082E00FDD8DE691E017DDCC5CDD4F888357
:10141000C453D240853F31F042E0CC5CDD4F48837D
:10142000C453D24020E031E0822F90E0E6E6F1E0C4
:10143000EC0FFD1FE80FF91F3083E2EEF1E0EC0F37
:10144000FD1FE80FF91F108269EB71E06C0F7D1F23
:10145000860F971FDC011C922F5F283229F780E04E
:1014600026E090E8E1E0F0E0EC0FFD1F289FE00DA2
:10147000F11D1124108211821282938315828F5FD5
:10148000823381F7C1DCBFEFEFE7F4E0B150E04019
:10149000F040E1F700C00000C2DC2FEF3FE744E07E
:1014A000215030404040E1F700C00000B4DC5FEF65
:1014B0006FE774E0515060407040E1F700C00000F9
:1014C000A8DC8FEF9FE7A4E081509040A040E1F7B7
:1014D00000C00000A2DCBFEFEFE7F4E0B150E04055
:1014E000F040E1F700C000008FDC2FEF3FE747E05E
:1014F000215030404040E1F700C000000F2D029520
:101500000F70F4FC8CDC01FD86DC02FD82DC0870CF
:1015100009F083DC5FEF6FEF7BE351506040704078
:10152000E1F700C0000070DC8FEF9FE7A4E081507E
:101530009040A040E1F700C000006FDCBFEFEFE794
:10154000F4E0B150E040F040E1F700C0000061DCA1
:101550002FEF3FE744E0215030404040E1F700C02A
:10156000000059DC5FEF6FE774E05150604070405D
:10157000E1F700C0000053DC8FEF9FE7A4E081504B
:101580009040A040E1F700C000003EDCBFEFEFE775
:10159000F7E0B150E040F040E1F700C00000F0FC9F
:1015A0003EDCF1FC38DCF2FC34DCF3FC36DC2FEF03
:1015B0003FEF4BE3215030404040E1F700C00000D6
:1015C00023DC5FEF6FEF75E0515060407040E1F752
:1015D00000C000C05A9A529880916800846080933D
:1015E000680080916D00846080936D0043983B9A01
:1015F0000BDC8FB7F8941092C5009FE39093C40062
:1016000098E19093C10096E09093C200589A8FBFE2
:1016100085E0CD5CDD4F8883C353D24001E056DDC9
:1016200093B1969591709027980FE90ECD5CDD4FA0
:101630009881C353D2409150CD5CDD4F9883C35302
:10164000D2409111ECCFEE2009F421C22198299AC1
:10165000CD5CDD4F8881C353D2404EDDCE5CDD4F83
:101660008883C253D240419A2C9A2498239A259A6F
:10167000399A0CB406FC03C08CB581658CBD0AE0B8
:10168000E6E6F6E23197F1F7000061E082E092E0F1
:1016900031DB61E082E095E02DDB61E082EC96E0F9
:1016A00029DB61E08DE093E025DB61E08DE094E0F3
:1016B00021DB61E083E499E11DDB61E082E49AE1F2
:1016C00019DB61E08BE193E115DB61E080E095E2FD
:1016D00011DB61E087E096E20DDB61E088ED97E0E9
:1016E00009DB61E086EE98E005DB61E084E199E0EA
:1016F00001DB61E080E997E3FDDA61E088E298E3ED
:10170000F9DA61E080E89CE3F5DA61E080EA9DE3E4
:10171000F1DA61E080E09CE2EDDA61E084E09DE2F4
:10172000E9DA61E088E89EE2E5DA61E08DE29FE2D5
:10173000E1DA61E084ED90E3DDDA61E080E098E1F8
:10174000D9DA61E08DE298E5D5DA61E080E39FE6E1
:10175000D1DA61E08EEB99E2CDDA61E08DE29EE1D3
:10176000C9DA61E080E09AE2C5DA60E08FEF9DE2DD
:10177000C1DAE82E60E08FEF9EE2BCDA282F30E07D
:10178000A3E035952795AA95E1F7822F87702DE282
:101790002E0D820F869590E061E09B62ABDA61E0EE
:1017A0008FE991E1A7DA015009F06ACF61E080E8A2
:1017B0009AE0A0DA812C912CFBE4AF2EB12CF1E061
:1017C0008F1A9108A108B10809F068C1CBDA61E06D
:1017D00081EA9DE38FDA00E0C02ED12CC60180960D
:1017E0002BDB2EE3C20ED11C61E09C2D83DA0F5F50
:1017F000003191F785E090E01FDB082F86E090E054
:101800001BDBE82E602F81E121DBE81208C00032EB
:1018100030F4802F90E061E0806891616BDA94D8B9
:10182000282E882309F441C1F8DA80E7CE51DE4F33
:101830008883C25ED140C05DDD4F4880C053D24036
:10184000CD51DE4F4882C35ED140CC51DE4FF8828D
:10185000C45ED14085E0EDDB4BE0489F9001499F9D
:10186000300D1124205E3F4F66E0369527956A952E
:10187000E1F7CB51DE4F2883C55ED140CA51DE4F20
:101880002882C65ED140CE5CDD4F5880C253D24024
:10189000C951DE4F5882C75ED14080E1C851DE4F4A
:1018A0008883C85ED140106402E181E08093F10139
:1018B0007894842D90E09C012F5F3F4F4AE0429F37
:1018C0003001439F700C1124C25CDD4F7982688225
:1018D000CE53D24093012A503109CE5BDD4F39837C
:1018E0002883C254D240C75CDD4F1882C953D2400E
:1018F00030E7CF5CDD4F3883C153D240332433947B
:10190000CB5CDD4F188219821A821B82C553D240EC
:1019100023E331E02C0F3D1F2F0D311DA901415054
:101920005109CC5BDD4F59834883C454D2400197A1
:1019300076E0672E689E2001699E500C1124C05CE1
:10194000DD4F59824882C054D24066246394712C82
:101950006C0E7D1E640C751CC45CDD4F7982688240
:10196000CC53D24093012E5F3F4FCA5BDD4F39838A
:101970002883C654D2408091F101882369F0EFB6E4
:10198000F8941092F1010E94A404282E882309F4EF
:101990008EC043DA0260EFBE8091C00087FB10F971
:1019A000312F3170B32E10FF6BC37FB6F8941E7FBA
:1019B00036DA3AD9CA59DE4F8883C656D1408F37B6
:1019C00009F43CC087FD76C028EF280F263038F494
:1019D00091E001C0990F2A95EAF7957279F50E9476
:1019E000C804CA59DE4F8883C656D1400E94E40419
:1019F000D12C1AD90E94C804E82E4DE0841709F4AE
:101A00004EC25AE0851709F44AC268E0861719F0F9
:101A10007FE7871345C2D1103CC2C959DE4F1882F7
:101A2000C756D14080EE98E00E94F5048EED98E014
:101A30000E94F50489ED98E00E94F504CA59DE4F32
:101A40001882C656D14050C0F1101AC022E3C05DC2
:101A5000DD4F2883C053D240B2E3FB2E6F2DC05D13
:101A6000DD4F8881C053D240FCD988E19EE00FB69B
:101A7000F894A895809360000FBE90936000FFCF0C
:101A800032E3C05DDD4F3883C053D240E7CFAFE6CD
:101A9000CD5CDD4FA883C353D240DACD60E080E057
:101AA0009AE028D986FF8BCE91CE5E98BECE439821
:101AB0005E9870CF8F3F09F092CFB6D8C959DE4FEC
:101AC0008883C756D140B0D8C859DE4F8883C856DE
:101AD000D140AAD8C759DE4F8883C956D140C659CC
:101AE000DE4F1882CA56D14060E371E0CE018A59B8
:101AF0009E4F0E94D404882311F01D7B126065E381
:101B000071E0CE018A599E4F0E94D404882311F0BF
:101B100000641F7B6CE371E0CE018A599E4F0E94E6
:101B2000D4048111006166E471E0CE018A599E4FB0
:101B30000E94D40481111BC06BE471E0CE018A596C
:101B40009E4F0E94D404811112C060E571E0CE0165
:101B50008A599E4F0E94D404811109C066E571E044
:101B6000CE018A599E4F0E94D404882311F01F7918
:101B7000106261E471E0CE018A599E4F0E94D40444
:101B8000882311F001601F7B6BE571E0CE018A595B
:101B90009E4F0E94D404811106606FE571E0CE0172
:101BA0008A599E4F0E94D404811174D863E671E073
:101BB000CE018A599E4F0E94D4048111086068E6C4
:101BC00071E0CE018A599E4F0E94D404811108C051
:101BD0006BE671E0CE018A599E4F0E94D4048111B8
:101BE000006264E771E0CE018A599E4F0E94D404DE
:101BF000882341F187ED90E00E94F504CC5CDD4F35
:101C00009881C453D240983C09F061C18BEC90E0BC
:101C10000E94F50488E790E00E94F50405D8E82EBC
:101C20008823E1F30E94E40485E790E00E94F50434
:101C30008E2D8062853609F44DC158ECE52E84372F
:101C400009F44AC16CE771E0CE018A599E4F0E94A7
:101C5000D404882309F480C080E891E00E9404063F
:101C6000A12C34E0932E90E080E06C0124E0CC0CB9
:101C7000DD1C2A95E1F70E941406E82E0E94E40478
:101C80008E2D806290ED980F9A3038F09FE9980F72
:101C9000963008F034C199EA980F81E09F3F09F02F
:101CA00080E0A80E9601292BC9019A949110DDCFEE
:101CB000A1104EC08F3F980709F44AC09C01207EB6
:101CC0002038314919F4582F5F71A52E692F661FEE
:101CD0006627661F0FD8E82E8FEC98E00E94F50467
:101CE0006E2D70E090E080E0C45DDD4F6883798305
:101CF0008A839B83CC52D24048E60E940305AA20E7
:101D000039F183EA98E00E94F5040E941406E82E57
:101D10006894E5F87AE6E71619F08EE6E812F5CF52
:101D20008E2D0E94E40480EA98E00E94F5049AE671
:101D3000E9120EC065E070E08A2D73D86A2D81E14A
:101D400085D866E070E06DD887E898E00E94F504D9
:101D500088EC91E00E9404066CEC71E0CE018A5997
:101D60009E4F0E94D404882309F427C1FE01E05746
:101D7000FE4F119211928EE0DF011D928A95E9F7D4
:101D800084E093E00E94F50480EE92E00E94F50466
:101D900087EC92E00E94F50460E08FEF9DE30E94E3
:101DA0007A06B82FB170AB2E80FF4AC18FE892E05F
:101DB0000E94F504CC24CA949EE3D92E60E0C601AB
:101DC0000E947A06282F30E050E040E0C45DDD4FED
:101DD000288339834A835B83CC52D24048E6C45D72
:101DE000DD4F688179818A819B81CC52D2400E94EB
:101DF00003058DE892E00E94F504D394C1144EE4EB
:101E0000D406E0F280E792E00E94F504E12C8E2DEA
:101E100090E0809611D8282F30E050E040E0C45D7B
:101E2000DD4F288339834A835B83CC52D24048E616
:101E3000C45DDD4F688179818A819B81CC52D2401B
:101E40000E9403058EE692E00E94F504E39430E1DF
:101E5000E312DDCF87E292E00E94F5040E941406AF
:101E60008823E1F3E82E6894E5F88E2D0E94E404BF
:101E700084E292E00E94F50443E7E4129EC08EE003
:101E800092E00E94F504C12CD12C812CB2E09B2E53
:101E900039C0DA948BE690E00E94F504AACDE12CDB
:101EA000E7E6F1E0EC0FFD1FED0DF11DE0828E2D58
:101EB0000E94E404EE2011F40C94591BD39487E2A1
:101EC000D81297CD88E690E00E94F5040DCE87EBFE
:101ED00090E09ECE42E0E42ECC5CDD4F4880C453BF
:101EE000D2404E1409F4AECE6DE671E08E2D0E9404
:101EF0001107CC5CDD4FE882C453D240A3CE9FEFE4
:101F0000CCCE9A2C829480EF88220E941406E82E70
:101F10000E94E4048E2D806290ED980F9A3030F08C
:101F20009FE9980F963090F499EA980F81E09F3FCF
:101F300009F080E0D80E892A51E09512E2CFDD2029
:101F400039F084EC91E00E94F50437C09FEFEECFAA
:101F500082EC91E00E94F504E0E9F1E0EC0FFD1F56
:101F6000EC0DF11D8082C39460E1C6128DCF8CE927
:101F700091E00E94F5040E94140680628A3629F0DE
:101F80008E36C9F786E491E0DECF8D2D90E0BC015E
:101F9000605E7F4FA0E9B1E0AC0FBD1F8A0F9B1FB1
:101FA000FC0180810E941107D394F0E1DF12EDCF94
:101FB0008AE691E00E94F5040860CA59DE4F8881E4
:101FC000C656D1408F3F09F04DC0C959DE4FE88059
:101FD000C756D1408E0D823308F044C0C859DE4F39
:101FE000D880C856D1408FEF8D0D8031D8F5C759B4
:101FF000DE4FC880C956D1406E2D80E00E94260772
:102000006D2D0E942607C8122DC086E6CE51DE4FE8
:102010008883C25ED140CD51DE4FE882C35ED1409D
:10202000CC51DE4FD882C45ED1401064FE1459F00A
:102030003B2C36E6CF5CDD4F3883C153D24012C013
:1020400084E291E080CF12FDF3CFC554DE4FD882F9
:10205000CB5BD14014603B2C26E6CF5CDD4F288360
:10206000C153D2402898CA59DE4F8881C656D14004
:1020700081508E3F20F484E898E00E94F5047FBEF2
:10208000EFB6F8940E94DF0680FB17F9EFBE01FD62
:1020900004C08091EF0180FF7AC0412F4479E42E83
:1020A00009F075C016FF08C0CF5CDD4F5881C153E1
:1020B000D2405A3709F06BC04FB6C45DDD4F48823D
:1020C000CC52D240F8940D7F8091EF018E7F8093A7
:1020D000EF014398D12C412C512C32014394812C97
:1020E000912C5401C301B2010E94560683E393E18F
:1020F0000197F1F784E00E941908A9E1A89F9001D7
:10210000A99F300D11243395C32EC694EBE0F2E065
:10211000EC0FFD1FED0DF11D8C2DC11001C081E0F4
:10212000808360E070E0CB010E945606B1E3BC15ED
:1021300020F084289528A628B728440C551C661C36
:10214000771CD394E0E1DE12CDCF2B982D984098E8
:10215000BB27AB2D9A2D892D8EBDBA2CA92C982C7E
:1021600088240DB407FEFDCF892C9A2CAB2CBB2400
:102170008EBC0DB407FEFDCF81E086B986B916FD91
:102180007FC2C45DDD4F4880CC52D2404FBE802F0D
:102190008670843009F05CC017FD5AC0BFB6F89451
:1021A0000B7F83E698E00E94F50484E398E00E94A8
:1021B000F504E12CE8E0EE1520F082E398E00E94BF
:1021C000F504CE2CD12CC60101962C01990F66087E
:1021D0007708C45DDD4F488259826A827B82CC5287
:1021E000D24044E6C301B2010E9403058DE298E0AB
:1021F0000E94F504EBE0F2E0EC0FFD1FEC0DFD1D7D
:102200008081823308F071C2282F30E050E040E036
:10221000C45DDD4F288339834A835B83CC52D2402F
:1022200044E6C45DDD4F688179818A819B81CC520F
:10223000D2400E94030584E298E00E94F504E394F2
:1022400030E1E312B7CF8FE198E00E94F504BFBE02
:1022500005FF33C0EFB6F8940F7D8CE198E00E9443
:10226000F50483ED91E00E94040689E198E00E9464
:10227000F5048EE098E00E94F50488E098E00E9462
:10228000F50444E665E470E080E090E00E94030518
:1022900085E098E00E94F5048BEF97E00E94F5043A
:1022A00082EF97E00E94F5048DEE97E00E94F5041E
:1022B00089EE97E00E94F504EFBE11FF2EC1CFB664
:1022C000F8941D7F0E944A0684E295E00E94F5047E
:1022D00082EF94E00E94F504BE01655D7D4FCE0162
:1022E00080579E4F0E94B80781110CC08CEE94E07D
:1022F0000E94F50483ED94E00E94F5048DEC94E0D7
:102300000E94F50487EC94E00E94F5048CEA94E0C6
:102310000E94F5048FED91E00E94040684E994E0A8
:102320000E94F5048EE894E00E94F504C057DE4F49
:102330008881C059D140853409F4DCC18A3018F451
:1023400080E30E94E404C057DE4F8881C059D14029
:10235000482F50E070E060E0C45DDD4F4883598352
:102360006A837B83CC52D24044E6C45DDD4F6881F2
:1023700079818A819B81CC52D2400E94030584E8F6
:1023800094E00E94F5048EE794E00E94F50489E64B
:1023900094E00E94F50483E694E00E94F504C55D94
:1023A000DD4F8881CB52D240853609F4A8C18A30EE
:1023B00018F480E30E94E404C55DDD4F8881CB52B0
:1023C000D240482E512C712C612CC45DDD4F4882C7
:1023D00059826A827B82CC52D24044E6C301B20168
:1023E0000E94030589E594E00E94F50483E594E0EA
:1023F0000E94F5048EE494E00E94F50488E194E0E4
:102400000E94F5040E9414068823E1F3E82E6894E4
:10241000E5F88E2D0E94E40485E194E00E94F50425
:1024200082E194E00E94F50449E6542EE5107BC158
:102430008EEF93E00E94F5048BEF93E00E94F50489
:1024400083EE93E00E94F5048DED93E00E94F50485
:10245000C057DE4FD880C059D1400E9425068F3F1B
:1024600009F452C1C057DE4F8883C059D14087ED6F
:1024700093E00E94F50482EC93E00E94F5048FEB58
:1024800093E00E94F50487EA93E00E94F50481EA54
:1024900093E00E94F504C55DDD4FE880CB52D24049
:1024A0000E9425068F3F09F435C1C55DDD4F888345
:1024B000CB52D2408BE993E00E94F504C057DE4F27
:1024C0008881C059D140D81208C0C55DDD4F9881C0
:1024D000CB52D240E91609F426C1C55DDD4F6881B3
:1024E000CB52D2400E943107C55DDD4F6881CB528F
:1024F000D240C057DE4F8881C059D1400E94710739
:10250000882309F40DC18FE793E00E94F5048CE461
:1025100093E00E94F5040860CFBE06FF92C09FB60C
:10252000F8940F7B85E196E00E94F50484ED95E038
:102530000E94F5048EEC95E00E94F50488EB95E08E
:102540000E94F5040E942506A82E85EB95E00E94C6
:10255000F50466246A94A61409F472C08FE995E024
:102560000E94F5040E942506B82E8CE995E00E9491
:10257000F50489E995E00E94F504B61409F460C0F9
:1025800083E895E00E94F5040E942506D82E80E895
:1025900095E00E94F504D61409F452C08AE695E04D
:1025A0000E94F5040E942506C82E86E695E00E944A
:1025B000F504C61409F444C0AD1003C0BC1409F4FA
:1025C0003FC08AE295E00E94F5040E941406E82EBE
:1025D0008823D9F30E94E4048E2D80628A3681F527
:1025E00083E6CE51DE4F8883C25ED140CD51DE4FAF
:1025F000A882C35ED140CC51DE4FB882C45ED140C8
:10260000CB51DE4FD882C55ED140CA51DE4FC88261
:10261000C65ED140C05DDD4F7880C053D2407A1095
:1026200087C0FB1085C089EC97E00E94F5046C2DF3
:102630008D2D0E94310708608AE997E00E94F50419
:102640009FBE15FF2AC1AFB6F8941F7DCA59DE4F51
:10265000E880C656D14029E6E21270C0CE51DE4F66
:10266000E882C25ED14084E6CD51DE4F8883C35EEE
:10267000D14080E3CC51DE4F8883C45ED140F9C2A3
:10268000CF5CDD4F2881C153D2402A3709F079CD84
:10269000CE51DE4F2883C25ED140C05DDD4F488001
:1026A000C053D240CD51DE4F4882C35ED14080E15D
:1026B000CC51DE4F8883C45ED1408E2D90E0E2EE97
:1026C000F1E0EC0FFD1FE80FF91F5BE0652E52E013
:1026D000752E6C0E7D1E860D971DDC018C918383FB
:1026E000E394B0E1EB12E9CF4CCD87E298E00E9491
:1026F000F504A1CD87E894E00E94F50440CE8CE576
:1027000094E00E94F5046ECEC057DE4FD882C059C7
:10271000D140ADCEC55DDD4FE882CB52D240CACEAE
:102720008DE593E0F2CE8BE293E00E94F504F4CEC7
:102730008EE997E00E94F50410647ECF34E7E3123F
:1027400050C0CE51DE4FE882C25ED140CD5CDD4F3D
:102750008881C353D2400E947C08CE5CDD4F8883C1
:10276000C253D2408BE497E00E94F504CE5CDD4F6B
:102770004881C253D24086E497E04038B9F044E043
:10278000CE5CDD4F6881C253D240062E000C770B21
:10279000880B990BC45DDD4F688379838A839B83A3
:1027A000CC52D2400E949D0582E497E00E94F5043D
:1027B00084E7CE51DE4F8883C25ED14085E6CD519D
:1027C000DE4F8883C35ED1408DE6CC51DE4F8883D7
:1027D000C45ED14080E7CB51DE4F8883C55ED140D7
:1027E00048C246E6E4120CC0CE51DE4FE882C25E1B
:1027F000D140CC24C3948BE797E02AE0B22EDEC10F
:1028000089E897E00E94F5040E941406E82E689477
:10281000E5F88E2D0E94E40486E897E00E94F50416
:10282000CE51DE4FE882C25ED14056E6E51609F38E
:1028300069E6E61609F417CF74E7E71609F486CFC0
:10284000E12C8EE397E00E94F504EE2009F419C212
:10285000CE51DE4F4880C25ED140CF5CDD4F488212
:10286000C153D2401064242D263691F4CD51DE4F51
:102870008881C35ED1408F110BC0CC51DE4F88815F
:10288000C45ED140C554DE4F8883CB5BD140146019
:102890008091C00087FDF7C1AFBE302F3170B32EDD
:1028A00000FF76C18FB6F8940E7F0E944A0687E03B
:1028B00097E00E94F50482EF96E00E94F50480EE16
:1028C00096E00E94F5048AED96E00E94F5048AE7FE
:1028D00096E00E94F504E12C8AE0682E93E0792EC0
:1028E00048E04E1520F088E796E00E94F5048E2D12
:1028F00090E001969C01990F440B550BC45DDD4F90
:10290000288339834A835B83CC52D24044E6C45D3A
:10291000DD4F688179818A819B81CC52D2400E94AF
:10292000030585E796E00E94F504CC24C394D12CDE
:10293000CC0EDD1E36E0E39EC00CD11C1124D60166
:10294000AC90A110A3C181E796E00E94F5048AE64D
:1029500096E00E94F504F60181818A3008F0B3C147
:1029600085E696E00E94F50480E696E00E94F50474
:10297000AA2009F4DEC1D60112968C910E94E404CB
:102980008BE596E00E94F504F6018381803809F416
:10299000D5C1282F880F330B440B550BC45DDD4F79
:1029A000288339834A835B83CC52D24044E0C45DA0
:1029B000DD4F688179818A819B81CC52D2400E940F
:1029C0009D058EE496E00E94F504D60114968C9144
:1029D000282F30E050E040E0C45DDD4F288339838C
:1029E0004A835B83CC52D24044E6C45DDD4F6881AC
:1029F00079818A819B81CC52D2400E9403058BE46D
:102A000096E00E94F504D6011596DC90DD2009F4CD
:102A10009EC1B3E6BD1520F089E496E00E94F5045E
:102A2000E9E0ED1520F087E496E00E94F50485E4E6
:102A300096E00E94F5042D2D30E050E040E0C45DAA
:102A4000DD4F288339834A835B83CC52D24044E6EE
:102A5000C45DDD4F688179818A819B81CC52D240EF
:102A60000E9403058E2D672D2AD6923009F074C17D
:102A70008DE396E00E94F504E39432E3E31230CF55
:102A80008EE196E00E94F504C75CDD4F4880C95393
:102A9000D240842D90E0B0E0A0E044E6C45DDD4F7C
:102AA00088839983AA83BB83CC52D240BC01CD01D9
:102AB0000E9403058BE196E00E94F50490E080E01F
:102AC000E1E0F0E0EC0FFD1FA6E05A2E859DE00D41
:102AD000F11D112420812B1101C09F5F8F5F823374
:102AE00079F7E2E3F1E0EC0FFD1FEB0DF11D9083B0
:102AF000B39473E3672EB610E1CF83E297E00E94B0
:102B0000F504E12C68E0762E7E1418F080E30E9434
:102B1000E404CE2CD12CC60101969C01990F440BE4
:102B2000550BC45DDD4F288339834A835B83CC52C8
:102B3000D24044E6C45DDD4F688179818A819B8102
:102B4000CC52D2400E94030580E297E00E94F50437
:102B5000E3E3F1E0EC0FFD1FEC0DFD1D8081811121
:102B6000FEC08CE197E00E94F5048E2D63E0A7D5AE
:102B7000923009F00CC189E197E00E94F504E394DA
:102B800052E3E512BFCF8DE097E00E94F5048FBEBF
:102B9000602F6870962E03FFFDC0F8945C9A88E160
:102BA0009EE00FB6F894A895809360000FBE9093B6
:102BB00060000E944A06FFCF32E0C32E0E94F50457
:102BC0000E941406D82E8823D9F30E94E40480EDD5
:102BD000D80E0E941406E82E8823D9F30E94E4043C
:102BE000DB9CE00C112490EDE90E8BE697E00E944F
:102BF000F504EE2009F440C04E2C512C712C612CB0
:102C0000C45DDD4F488259826A827B82CC52D240B9
:102C100022E0522E81E190E0A0E0B0E0C51421F066
:102C200083E390E0A0E0B0E0C45DDD4F288139810E
:102C30004A815B81CC52D240281739074A075B078B
:102C4000D8F444E6C45DDD4F688179818A819B8137
:102C5000CC52D2400E940305E2EEF1E0EC0FFD1FE2
:102C6000EC0DF11DE0828FE697E031E0C31609F428
:102C7000A3CFEE24E394E5CD88E597E00E94F50428
:102C8000DFCD1F7B05CE8091C60002CE8FE696E099
:102C90000E94F504B9E0BA1520F08DE696E00E9496
:102CA000F5048A2D90E0B0E0A0E044E6C45DDD4F7D
:102CB00088839983AA83BB83CC52D240BC01CD01C7
:102CC0000E94030544CE662DFAD4992E282F30E0B9
:102CD00050E040E0C45DDD4F288339834A835B8345
:102CE000CC52D24042E0C45DDD4F688179818A8157
:102CF0009B81CC52D2400E949D0583E696E00E94C3
:102D0000F504492D50E070E060E0C45DDD4F48837C
:102D100059836A837B83CC52D24044E6C45DDD4F45
:102D2000688179818A819B81CC52D2400E940305BF
:102D30001BCE8EE596E00E94F50422CE86E596E055
:102D4000A11002C081E596E00E94F5043ACE80E42D
:102D500096E00E94F50486CE8BE396E08BCE482F5A
:102D600050E070E060E0C45DDD4F488359836A83C2
:102D70007B83CC52D24043E0C45DDD4F68817981D2
:102D80008A819B81CC52D2400E949D05EECE81E18A
:102D900097E0F3CE04FD0AC016FF6CC0CE51DE4FA3
:102DA0008881C25ED140893609F064C0EFB6F894DC
:102DB0000F7E80E090E8282F30E0E3E3F1E0EC0FB5
:102DC000FD1FE20FF31F108276E0729FF001739FE8
:102DD000F00D1124A1E0B0E0AC0FBD1FEA0FFB1F06
:102DE000108211821282938315828F5F823319F7CA
:102DF00081E0CC5BDD4FE881F981C454D24080830F
:102E00006D01C05CDD4F48805980C054D240C40C75
:102E1000D51CD601FC9285E00E9419084BE0489F22
:102E20009001499F300D1124205E3F4F56E03695AA
:102E300027955A95E1F7F60121838EE621108AE65F
:102E4000CA5BDD4FA881B981C654D2408C93CE5C59
:102E5000DD4F4880C253D240C45CDD4FE881F98128
:102E6000CC53D24043821582EFBEC75CDD4F18823F
:102E7000C953D240311017C08091EF01282F227022
:102E8000322E81FF10C08091ED019091EE0133242C
:102E90003394C25CDD4F48805980CE53D2404816EF
:102EA000590608F0312C16FF39C03320B9F18FB61E
:102EB000F8941F7BCE51DE4F8881C25ED14083568D
:102EC000D12CE12C883148F490E0FC01E85EFE4F03
:102ED000E08080509F4FDC01DC90AE2CB12CE2EE04
:102EE000F1E0EC0FFD1FEA0DFB1DD0821182CE51E7
:102EF000DE4F8881C25ED140863609F0D8C12110EC
:102F0000D6C18091EF018D7F8093EF011092EE0189
:102F10001092ED010E94B2068FBE312C12FF4BC001
:102F2000DFB6F8941B7F222009F442C0C554DE4F5F
:102F3000E880CB5BD1408FEF8E0D8031C8F51061FA
:102F40000E94FF0620E180E090E0DC01880F991FDD
:102F5000AA1FBB1FE21201C081602150B9F7409146
:102F6000E9015091EA016091EB017091EC012C01B3
:102F70003D01442A552A662A772AC45DDD4F4882DE
:102F800059826A827B82CC52D240439AC45DDD4F23
:102F9000688179818A819B81CC52D2400E945606F9
:102FA0004092E9015092EA016092EB017092EC01CB
:102FB0000E94B206DFBE14FF55C08091E80188234D
:102FC00009F450C02FB7F8941092E80113FB992729
:102FD00090F980E041E050E060E070E0412C512C3D
:102FE0003201A090E901B090EA01C090EB01D090CD
:102FF000EC01A422B522C622D722AB28AC28AD28EA
:1030000089F0EBE1F2E0EC0FFD1FE80FF11D3081DC
:103010003F5FCC5CDD4FA881C453D2403A1708F023
:1030200050C13083440F551F661F771F8F5F80315B
:10303000C1F690FB13F98091E9019091EA01A0910A
:10304000EB01B091EC01B301A201482759276A278F
:103050007B27CB5CDD4F488359836A837B83C553D1
:10306000D2402FBF13FF29C0EFB6F894177FCB5C77
:10307000DD4F688179818A819B81C553D2400E944E
:103080005606CB5CDD4F488059806A807B80C553F3
:10309000D2404092E9015092EA016092EB017092B5
:1030A000EC0145284628472839F443981F7E0E94A2
:1030B00004070E940D070260EFBEEFB6F8940E946D
:1030C000DF0680FB17F9EFBE17FD02C00C94BB0CA6
:1030D000EFB6F8941F770E94090760E08FEF9FE634
:1030E0000E947A06882309F4F3C060E08FEF94E22F
:1030F0000E947A06D82E0E948E06419880E00E9497
:1031000074068FEF0E947406893208F0FAC0C05727
:10311000DE4F8883C059D140CC24C394FFC0282FF0
:1031200030E060E971E06C0F7D1F620F731F42EEAB
:10313000442E552453944C0E5D1E240D351DD9018B
:103140009C91DB0111969C938F5F5AC0E0E9F1E0FE
:10315000EC0FFD1FEC0DF11D80810E947406C394DD
:1031600077C060E080E098E20E947A068970C82EFD
:10317000D301C2012C013D0131E0431A510861081D
:103180007108892B8A2B8B2B09F483C0CC2049F33F
:103190000E948E0645284628472809F47FC04C2DFA
:1031A0004170C65CDD4F4883CA53D240C55CDD4FD9
:1031B0001882CB53D240D5018C9181508C93C65C40
:1031C000DD4F48805980CA53D240452809F45F98A2
:1031D000DA94DD2009F495CE0E940B070E948E063A
:1031E00061E080E198E20E947A06EE2DB7E2BE151A
:1031F00008F4E7E2C057DE4FE883C059D14080E0D1
:103200008E1708F48CCF20E9422E552453944C0E8F
:103210005D1E4E0E511CF20111824198C057DE4FC7
:103220008881C059D140893238F098E2592EC05770
:10323000DE4F5882C059D14080E80E947406C057C2
:10324000DE4F7880C059D140872D0E947406C32C70
:103250007C1408F07BCF419A61E08CE091E00E9401
:103260007A06412C512C8BE4682E712C21E0421AF5
:1032700051086108710839F060E08FEF97E20E9411
:103280007A0687FFF3CFC12C8BEC92E1A0E0B0E08F
:1032900071CF44244A94542C32017ACF61E070E01B
:1032A000C65CDD4F79836883CA53D24084CFE394F0
:1032B000A2EE6A2E772473946C0E7D1EA60CB71CAA
:1032C00088CF442A552A662A772A108291E0AACE0E
:1032D00061E081E093E20E947A06412C512C7BE46C
:1032E000672E712C21E0421A51086108710809F417
:1032F000FCCE60E08FEF93E20E947A0681FFF2CF6E
:10330000F4CE88E204CF8FEF0E947406E0E9F1E08A
:10331000EC0FFD1FEC0DF11D8083C394C057DE4FF1
:103320008881C059D1408C1570F7419AC057DE4F43
:10333000E881C059D140E83208F0E7E29E1630F14A
:1033400069EB462E552453944C0E5D1E4E0E511CB7
:10335000F201108261E080E198E20E947A065D98B5
:10336000C754DE4F8881C95BD1408D3609F46EC1E8
:1033700010F58636C9F1893609F455C0833609F44B
:1033800025C10E94B206EFBE0C94BB0C892D90E0C3
:1033900049EB51E04C0F5D1F480F591F60E971E088
:1033A0006C0F7D1F860F971FDC0111968C91DA013F
:1033B0008C939394C3CF803709F49DC0843709F769
:1033C000C354DE4F8881CD5BD140815039F5CD5C4F
:1033D000DD4F8881C353D2400E947C08CE5CDD4F14
:1033E0008883C253D240CDCFC454DE4F8881CC5B9A
:1033F000D140815069F4222021F2C654DE4F8881E9
:10340000CA5BD1408F11BDCF12FDBBCF1460B9CFC5
:10341000A0E4B9E81197F1F70000EBCFE3E5F1E99B
:103420003197F1F7D2CFC454DE4F8881CC5BD140C5
:1034300033243A94380E311057C080E7CE51DE4F16
:103440008883C25ED140C05DDD4F4880C053D2400A
:10345000CD51DE4F4882C35ED140CC51DE4FF88261
:10346000C45ED14085E00E9419084BE0489F90015E
:10347000499F300D1124205E3F4F56E03695279529
:103480005A95E1F7CB51DE4F2883C55ED140CA5132
:10349000DE4F2882C65ED140CE5CDD4F5880C253DD
:1034A000D240C951DE4F5882C75ED14080E1C85139
:1034B000DE4F8883C85ED14082E086BB10928500D3
:1034C000109284008091EF0182608093EF0110924E
:1034D000EE011092ED011064006120E7CF5CDD4F3A
:1034E0002883C153D2404DCF80E499E80197F1F78A
:1034F00000003A94A0CFC054DE4F8881C05CD14018
:10350000815061F5C654DE4F8881CA5BD140853455
:10351000C9F08823B9F0C05DDD4F4880C053D24068
:10352000841581F08150282F30E0E1E0F0E0EC0FCD
:10353000FD1F46E0542E589EE00DF11D11248081A0
:10354000882391F0C75CDD4F2881C953D2402F5F9B
:10355000C75CDD4F2883C953D24013CFABE8B9EA2B
:103560001197F1F700C0CCCFC554DE4F8881CB5BFB
:10357000D1408083C454DE4F8881CC5BD1408183AD
:10358000C354DE4F8881CD5BD14081111DC08EE6D2
:1035900046E0429FF001439FF00D112461E070E08E
:1035A0006C0F7D1FE60FF71F8283C254DE4F8881A8
:1035B000CE5BD1408383C154DE4F8881CF5BD14045
:1035C0008483D694D582DDCE8AE6E2CFC254DE4F24
:1035D0008881CE5BD140815091F52110D2CEC65466
:1035E000DE4F8881CA5BD140C05DDD4F4880C0534B
:1035F000D2408411C6CEC554DE4F8881CB5BD1400A
:103600008F11BFCEC454DE4F8881CC5BD1409FEF79
:10361000980F923308F0B5CEC354DE4F6881CD5B6E
:10362000D1409FEF960F923308F0ABCE841103C0C8
:103630006F1509F4A6CE0E9431070860A2CEA5E658
:10364000B9E91197F1F700C00000C5CFC454DE4FAF
:103650008881CC5BD140815031F5C654DE4F8881E2
:10366000CA5BD140C05DDD4F4880C053D240841159
:1036700088CE0260106482E086BB109285001092B2
:1036800084008091EF0182608093EF01CE5BDD4F7B
:1036900068807980C254D2407092EE016092ED0150
:1036A000312C2AE71BCFA0E4B9E81197F1F700000D
:1036B000D2CFDD2011F40C94120D0C94620F991BE3
:1036C00079E004C0991F961708F0961B881F7A9519
:1036D000C9F780950895052E97FB16F400940FD036
:1036E00057FD05D04BD007FC02D046F408C05095DA
:1036F0004095309521953F4F4F4F5F4F08959095DE
:103700008095709561957F4F8F4F9F4F08952F92B1
:103710003F924F925F926F927F928F929F92AF9261
:10372000BF92CF92DF92EF92FF920F931F93CF93AE
:10373000DF93CDB7DEB7CA1BDB0B0FB6F894DEBF45
:103740000FBECDBF09942A88398848885F846E846B
:103750007D848C849B84AA84B984C884DF80EE80B5
:10376000FD800C811B81AA81B981CE0FD11D0FB6BE
:10377000F894DEBF0FBECDBFED010895A1E21A2E71
:10378000AA1BBB1BFD010DC0AA1FBB1FEE1FFF1F05
:10379000A217B307E407F50720F0A21BB30BE40B55
:1037A000F50B661F771F881F991F1A9469F760959C
:1037B0007095809590959B01AC01BD01CF01089556
:0437C000F894FFCFAB
:1037C40003000005000003000000020000020000E6
:1037D40000020000000000020500000300000300D6
:1037E40000000300000700000004000000000013B4
:1037F400636F6E660072656D6F746500636C6561FE
:10380400726C6973740073656E6400666972650036
:103814006964656E740074656D7000696D70006331
:103824006C73006B696C6C00687700686172647714
:103834006172650069676E697465720072666D0015
:103844000A0D4B6F6D6D616E646F202831362D4209
:1038540069742D4865782D466F726D61742C204D06
:103864005342207A752031207365747A656E206620
:10387400C3BC7220536368726569627A7567726942
:103884006666293A203078000A0A0D006165736B78
:103894006579005AC3BC6E64626F78207633005A2F
:0838A400C3BC6E64626F780082
:00000001FF
