:100000006DC4000087C4000085C4000083C40000E4
:100010000C942A0B7FC400007DC400007BC4000048
:1000200079C4000077C4000075C400000C94760BFE
:1000300071C400006FC400006DC400006BC40000F8
:100040000C94300B67C4000065C4000063C400005A
:1000500061C400005FC400005DC400005BC4000018
:1000600059C4000057C400000A0D001B5B31442036
:100070001B5B3144000D0A000D0A417573776168FE
:100080006C3A202845292D416E7AC3BC6E64657296
:100090002C20285429616C6F6E2C2041626272758D
:1000A0006368206D697420616E64657265722054A6
:1000B000617374653A2000452D414E5AC39C4E44ED
:1000C000455220283230206D73290054414C4F4E48
:1000D000202832207329000D0A4465727A656974FC
:1000E0002065696E67657374656C6C746573204117
:1000F0006E7AC3BC6E646D697474656C0D0A3D3DA7
:100100003D3D3D3D3D3D3D3D3D3D3D3D3D3D3D3D1F
:100110003D3D3D3D3D3D3D3D3D3D3D3D3D3D3D3D0F
:100120000D0A0A005665727363686CC3BC7373650D
:100130006C756E67206E6963687420616B74697694
:100140006965727421000D0A4B65696E6520C38470
:100150006E646572756E67656E206765737065693C
:100160006368657274210D0A0A000D0A4572666F94
:100170006C67726569636820676573706569636839
:100180006572742C204465766963652073746172AE
:10019000746574206E6575210D0A0A000D0A4469A4
:1001A0006573656E205363686CC3BC7373656C20A4
:1001B00073706569636865726E20286A2F6E293FC7
:1001C000200020000D0A4162627275636820776525
:1001D00067656E20756E7A756CC3A4737369676505
:1001E000722045696E67616265210D0A4B65696E13
:1001F0006520C3846E646572756E67656E20676581
:10020000737065696368657274210D0A0A000D0ACE
:100210000A4E65756572205363686CC3BC73736561
:100220006C3A20000A0D000D0A0A4E6575656E20B5
:1002300028532963686CC3BC7373656C2065696E51
:10024000676562656E2C2041626272756368206D1D
:1002500069742062656C6965626967657220616EA8
:1002600064657265722054617374652120002000FA
:100270000D0A5363686CC3BC7373656C206C742E79
:1002800020454550524F4D3A202020200020005656
:1002900065727363686CC3BC7373656C756E67203D
:1002A000616B74697669657274210D0A5363686CB9
:1002B000C3BC7373656C206C742E2046756E6B6DB9
:1002C0006F64756C3A20000A0D416B7475656C6C37
:1002D000652045696E7374656C6C756E673A2000B5
:1002E0003D3D3D3D3D3D3D3D3D3D3D3D3D3D3D3D3E
:1002F0003D3D3D3D3D3D3D3D3D3D3D3D3D3D3D3D2E
:100300003D0A0D000A0D4B6F6E6669677572617468
:10031000696F6E20646572205665727363686CC382
:10032000BC7373656C756E670A0D000A0D446576C3
:1003300069636520697374205472616E736D6974AA
:100340007465722C20494473206E6963687420C3FD
:10035000A46E646572626172210A0A0D000A0D4B77
:1003600065696E6520C3846E646572756E672076FC
:100370006F7267656E6F6D6D656E0A0A0D000A0D0E
:100380004E657573746172742E2E2E0A0A0D004626
:1003900065686C6572212042697474652065726EAF
:1003A0006575742076657273756368656E210A0DD4
:1003B000000A0A0DC3846E646572756E67206572EB
:1003C000666F6C677265696368210A0D001B5B3399
:1003D000376D001B5B33316D002C20454E54455268
:1003E000203D20616C7465722057657274293A2033
:1003F000003530000A0D4E65756520536C617665D9
:100400002D4944202830312D001B5B33376D001BF4
:100410005B33316D002C20454E544552203D206108
:100420006C7465722057657274293A20003530006B
:100430004E65756520556E697175652D4944202896
:1004400030312D000A0D000A0D002849294473207F
:10045000C3A46E6465726E2C20416262727563681B
:10046000206D69742062656C6965626967657220D8
:10047000616E646572657220546173746521200039
:100480000A0A0A0D001B5B33376D000A0D00464552
:10049000484C4552001B5B33316D00416B747565F0
:1004A0006C6C6520536C6176652D49443A202000C0
:1004B0001B5B33376D000A0D004645484C45520022
:1004C0001B5B33316D000A0A0D416B7475656C6CF2
:1004D0006520556E697175652D49443A20000A0DF5
:1004E000416E67657363686C6F7373656E657320C7
:1004F0004465766963653A20001B5B33376D001BEA
:100500005B33376D000A0D4665686C657220626565
:10051000696D2049442D4C6164656E0A0D001B5BBA
:1005200033316D000A4B6F6E66696775726174696D
:100530006F6E7370726F6772616D6D0A0D3D3D3D38
:100540003D3D3D3D3D3D3D3D3D3D3D3D3D3D3D3DDB
:100550003D3D3D0A0D001B5B33336D0049442D5773
:1005600065636873656C206D6974206A20626573C9
:1005700074C3A4746967656E2C20616262726563DE
:1005800068656E206D697420616E646572657220A5
:1005900054617374652120000A0A0D004E6575656B
:1005A00020536C6176652D49443A2020202020207C
:1005B00020000A0D004E65756520556E69717565E0
:1005C0002D49443A202020202020000A0D000A0D49
:1005D0000042697368657269676520536C6176656E
:1005E0002D49443A2020000A0D0042697368657263
:1005F00069676520556E697175652D49443A20001B
:100600001B5B33376D000A0A52656D6F74652D4BA5
:100610006F6E66696775726174696F6E7370726F01
:100620006772616D6D0A0D3D3D3D3D3D3D3D3D3D7A
:100630003D3D3D3D3D3D3D3D3D3D3D3D3D3D3D3DEA
:100640003D3D3D3D0A0D001B5B33336D000A0D003F
:100650000A0D4665686C657268616674652F646F23
:100660007070656C7465204944733A200009000A73
:100670000D002D2D2D2D002D00200020002C200000
:100680002C20002D2D2D2D006E2E612E002C2000F3
:100690002D002C20002E002D2D2D2D002C20003083
:1006A0000020002D2D2D003A200030000A0D556E3F
:1006B000697175652D49443A20536C6176652D4901
:1006C000442C2042617474657269657370616E6E4A
:1006D000756E67202856292C205363686172663F27
:1006E0002C2054656D706572617475722028C2B0DB
:1006F00043292C204B616E616C7A61686C2C20520E
:10070000535349202864426D290A0D001B5B33377F
:100710006D003D3D3D3D3D3D3D3D3D3D3D3D3D3D16
:100720003D0A0D000A0D53797374656DC3BC626593
:100730007273696368740A0D001B5B33336D000AC2
:100740000A0D0009200920092009000A0D002D2D9D
:100750002D003A20000A0D536C6176652D49443A0C
:1007600020416E7A61686C20426F78656E0A0D00D8
:100770000A0A0D00C2B043006E2E612E0054656D52
:10078000706572617475723A2000556E67C3BC6CF7
:10079000746967652045696E6761626500203D2068
:1007A000000A0D4B616E616C3A20200900536C61A8
:1007B00076652D49443A09000D0A000A0D4D6F6413
:1007C000757328662F692F74293A20000A0A0D00D4
:1007D0000A0D49442D4B6F6E6669677572617469C5
:1007E0006F6E7362656665686C20776972642067F6
:1007F0006573656E646574210A0D000A0D494473C2
:100800002077657264656E206C6F6B616C20616E21
:1008100067657061737374210A0D000A0A0D003157
:100820003030370032303139313232360044617481
:1008300065636F646520000A0D000A0D52464D0085
:1008400061746D65676133323870000A0D000A0DFE
:10085000000A0D0053706569636865726E206572E9
:10086000666F6C677265696368210D0A000D0A0086
:100870000D0A53656E64656C65697374756E6720E7
:100880006461756572686166742073706569636818
:1008900065726E20286A2F6E293F2000202D2D3E84
:1008A000203A203078001B5B31440020001B5B3174
:1008B00044001B5D303B454C204655455241444F5A
:1008C000524F07001B5B334A001B5B303B30480034
:1008D0001B5B324A002D00300020000011241FBE97
:1008E000CFEFD8E0DEBFCDBF12E0A0E0B1E0E6E49C
:1008F000F7E402C005900D92AC3AB107D9F722E0B7
:10090000ACEAB2E001C01D92A93BB207E1F71AD7E9
:100910000C94A12375CB80917C00887F80937C0010
:1009200080917C00856080937C0080917C002BE02E
:1009300087FF2AE080E090E0DC0130917A003064AB
:1009400030937A0030917A0036FDFCCF40917800E8
:1009500050917900840F951FA11DB11D215069F799
:100960008096A11DB11D26E0B695A7959795879510
:100970002A95D1F708954F925F926F927F92AF922E
:10098000BF92CF92DF92EF92FF920F931F93CF937C
:10099000DF9300D000D000D0CDB7DEB75B01082FC9
:1009A0009D837A012E836983BA828B839C8311E0B5
:1009B0009AE0492E512C612C712C69817A818B81AE
:1009C0009C81A30192010E942C2329833A834B83AB
:1009D0005C83232B242B252BD1F58E8189838117D2
:1009E00008F4198319818AE0482E512C612C712C4E
:1009F0006701C10ED11C91E0C91AD108B501802F41
:100A00009D81A30192010E942C23605DD6016C930D
:100A10005901042F5D83115059F7F701B981EB0F8C
:100A2000F11D108226960FB6F894DEBF0FBECDBF23
:100A3000DF91CF911F910F91FF90EF90DF90CF90BA
:100A4000BF90AF907F906F905F904F9008951F5F21
:100A5000B4CF35B516BC81E085BB80EA86BD85E0A4
:100A600085BD80E095E541E050EA26B122952170F0
:100A7000990F922BA89BFECF45BB56BD883008F43A
:100A80008F5F2FEF290F2E3F80F3883070F335BD35
:100A900081E0911180E008959FEB980F9A3130F03A
:100AA000843C21F0863D11F08C3D09F4806208956C
:100AB000FC01DB018C919081811104C081E09111D6
:100AC00005C00895319611968917A1F380E0F9CFFA
:100AD000982F40E050E066E970E04150510961090B
:100AE0007109A9F029B1822F887023FDF6CF40E06B
:100AF00050E066E970E0415051096109710921F047
:100B00002091C00025FFF7CF9093C600089581E0A3
:100B10000895CF93DF93EC01FE0184912196882301
:100B200019F0D6DF8823C1F3DF91CF9108958F921A
:100B30009F92AF92BF92EF92FF920F931F93CF932A
:100B4000DF93CDB7DEB7A1970FB6F894DEBF0FBE27
:100B5000CDBF1A821982FE0133962FE1DF011D926B
:100B60002A95E9F74836D9F510E011C0E1E0F0E048
:100B7000EC0FFD1FE10FF11D262F2F70208344E0A5
:100B800095958795779567954A95D1F71F5F61157C
:100B900071058105910551F7112341F310FD1F5F88
:100BA000111111C0A1960FB6F894DEBF0FBECDBFD4
:100BB000DF91CF911F910F91FF90EF90BF90AF9079
:100BC0009F908F900895FE01E10FF11D80818A3082
:100BD00020F0895C7DDF1150E3CF805DFBCF611594
:100BE00071058105910521F487ED98E092DFDACF58
:100BF00000E097FF08C090958095709561957F4FB4
:100C00008F4F9F4F01E010E03AE0832E912CA12CF2
:100C1000B12C611571058105910511F0113281F436
:100C2000002319F085ED98E074DF112309F4BACFA1
:100C3000FE01E10FF11D8081805D4ADF1150F5CF8B
:100C4000EE24E394F12CEC0EFD1EE10EF11CA50147
:100C500094010E942C23F7016083B901CA011F5F30
:100C6000D8CFCF92DF92EF92FF92CF93DF93CDB7A1
:100C7000DEB72A970FB6F894DEBF0FBECDBF6983EB
:100C80007A838B839C83498789819A81AB81BC81DC
:100C90008D839E83AF83B8871A868AE0C82ED12CB5
:100CA000E12CF12C8D819E81AF81B885892B8A2B17
:100CB0008B2B01F589819A81AB81BC81B7FF03C081
:100CC000998591509987AA85B985BA1718F544E690
:100CD00069817A818B819C812ADF2A960FB6F894EC
:100CE000DEBF0FBECDBFDF91CF91FF90EF90DF90C1
:100CF000CF9008956D817E818F819885A70196019F
:100D00000E942C232D833E834F8358879A859F5FB3
:100D10009A87C8CF89859A85891B8D83BD81BB231E
:100D2000B1F289ED98E0F5DEAD81A150AD83F6CF4B
:100D3000CF93DF93EC0190E08881882311F0992311
:100D400019F0DF91CF9108952196C2DE982FF4CF4C
:100D500080E090E0A6E9B0E00197A109B10949F06F
:100D60002091C00027FFF8CF5A9A8091C6005A9868
:100D7000089580E00895CF93DF93EADFC82F8A308B
:100D800029F4DFEF8D2FDF91CF9108958D30C9F3D6
:100D900080ED8C0F863088F78C2F9ADE8AE0C89F12
:100DA000C02D1124C051D4DF8A3059F38D3049F35E
:100DB000D82FDC0F9FEF9D0F9233A8F789DEE2CF8B
:100DC00080ED98E0A6DE89EC98E0A3DE84EC98E064
:100DD000A0DE82EB98E09DCECF92DF92EF92FF9261
:100DE0000F931F93462F572FBC014098439842986A
:100DF00080E100E010E820E030E098E06A017B014B
:100E0000C022D122E222F322CD28CE28CF2809F019
:100E1000409A96B996B940983695279517950795B3
:100E2000815061F784E086B986B91F910F91FF90D8
:100E3000EF90DF90CF9008958EBD0DB407FEFDCFEB
:100E40008EB50895CF93C82F892F662361F08068EF
:100E50002D982B982A98F0DF8C2FEEDF2A9A2B986A
:100E60002D98CF9108958F77CFEFF2CFCF92DF9269
:100E7000EF92FF9261E084E091E0E4DFC12CD12C9D
:100E80008BE4E82EF12C81E0C81AD108E108F108C2
:100E900031F060E08FEF97E2D5DF87FFF4CF81E09C
:100EA000CD28CE28CF2809F080E0FF90EF90DF908A
:100EB000CF900895CF92DF92EF92FF9260E08FEF94
:100EC0009DE3C0DF90E061E084609D63BBDF61E093
:100ED00080E191E0B7DFC12CD12C8BE4E82EF12C1E
:100EE00081E0C81AD108E108F10831F060E08FEF25
:100EF00097E2A8DF87FFF4CF81E0CD28CE28CF2866
:100F000009F080E0FF90EF90DF90CF9008955D9A18
:100F10005F9A5E9A289A08955D985F985E982898DF
:100F200008955D9A08955F9A08955E9808955E9A6F
:100F30000895289A089543984298419840980895B2
:100F4000CF93DF93339932C0D0E0329931C080E043
:100F5000D82B31992FC080E0D82B30992DC080E05C
:100F6000D82B439A429A419A409A3B983A9839989A
:100F700038985C98459A20E137E2C0E82150310961
:100F800011F0C7FD1BC045983B9A3A9A399A389A96
:100F9000D2DFD4FD439AD5FD429AD6FD419AD7FDC2
:100FA000409A8C2F8F77DF91CF910895D0E1CDCFEC
:100FB00080E2CECF80E4D0CF80E8D2CF449A000048
:100FC0000000339926C060E0329925C050E0319985
:100FD00024C040E0309923C090E044980000000015
:100FE000449A0000000086B183FBCC27C0F9C62BD1
:100FF000C52BC42BC92B329914C080E0C82B319962
:1010000012C080E0C82B309910C080E0C82B4498F3
:10101000B5CF60E1D9CF50E2DACF40E4DBCF90E842
:10102000DCCF82E0EBCF84E0EDCF88E0EFCF449AD5
:1010300000C000C044980895CF93C82F7CDFC4FD42
:10104000439AC5FD429AC6FD419AC7FD409AEFDF1B
:1010500072DFC0FD439AC1FD429AC2FD419AC3FDB1
:10106000409AE5DFCF910895982F862F953008F0AC
:1010700091E0853108F081E0492F4150550B9A01EC
:101080003595279545985C9890959295990F990F6D
:101090009074915854E1259F900D1124890FCCDF55
:1010A0004FCFCF93C62F459861111EC05C98C4DF07
:1010B00047DFCC2341F044DF843581F030F48431C4
:1010C00049F0803471F0CF9108958836E1F761E0FE
:1010D00081E002C061E082E0C7DFF5CF61E083E03C
:1010E000FBCF61E084E0F8CF5C9AE1CFCF93DF9350
:1010F000EC018881811103C0DF91CF910895219681
:1011000061E0CFDFF6CF45985C9A96DF19CF9B015F
:10111000F999FECF32BD21BD80BDFA9AF99A12BC71
:1011200011BC08959C01F999FECF32BD21BDF89AFA
:1011300080B512BC11BC0895862798E02CE8382FA2
:1011400031708695311182279150C9F70895B0E02A
:10115000A0E0EDEAF8E00C945123082F162FB82EEA
:10116000B60E682F80E1E8DFE82E612F80E1E4DF32
:10117000C82E612F8E2DE0DFD82E88E1F82ECF2DDE
:10118000D0E0BE01802FC3DFBE016F5F7F4F812F94
:10119000BEDFBE016E5F7F4F8B2DB9DFBE016D5F7D
:1011A0007F4F8E2DB4DFBE016C5F7F4F8C2DAFDF84
:1011B000BE016B5F7F4F8D2DAADF84E2F80E84E8BD
:1011C000F812DDCFCDB7DEB7E9E00C946D23B0E0C7
:1011D000A0E0EDEEF8E00C944F23D82FC62F88E165
:1011E000F82E9D2E960E0F2D10E0C8019BDFA82E25
:1011F000C801019697DFB82EC801029693DFC82E6A
:10120000C80103968FDFE82EC80104968BDFD82E25
:10121000C801059687DF182FAD1213C0BC1211C08C
:10122000C9100FC06D2F80E187DFE8120AC06C2F54
:1012300080E182DFD81205C06C2F8E2D7DDF18175C
:1012400059F084E2F80E84E8F812CDCF80E0CDB7F3
:10125000DEB7EBE00C946B2381E0F9CFB0E0A0E0C7
:10126000E4E3F9E00C944F237C016B0100E084E29D
:10127000982E099D50011124C501489653DFC82FAF
:10128000C50149964FDFD82F682F8C2FA0DF182F6C
:10129000882391F188E190E045DF182F8CE390E0FE
:1012A00041DF1817F1F088E190E03CDF182F80E66D
:1012B00090E038DF181315C089E190E033DF182F74
:1012C0008DE390E02FDF18130CC089E190E02ADF56
:1012D000182F81E690E026DF181303C06D2F8C2FA6
:1012E00036DFF701C083F601D08311E0812FCDB73F
:1012F000DEB7EBE00C946B23023061F46D2F8C2F82
:1013000066DF811107C085E4F701808385E6F60179
:101310008083ECCF0F5F033009F0ABCFE7CF419A6A
:10132000389A399A3A9A3B9A40984298439893E06F
:1013300028E034E084E126B926B98150E1F736B9D6
:1013400036B99150B9F789E999E00197F1F700C0F2
:101350004198089580B7806880BF80917C00856443
:1013600080937C0080917A00866080937A008091DF
:101370007A00806880937A0080917A0080648093FC
:101380007A0080917A0086FDFCCF80917800909160
:1013900079002FEF8FE797E0215080409040E1F7F0
:1013A00000C0000028E090E080E030917A003064D6
:1013B00030937A0030917A0036FDFCCF409178006E
:1013C00050917900840F951F215079F780389C4007
:1013D000D8F480917C00806880937C008FEF9FE739
:1013E00027E0815090402040E1F700C0000080914C
:1013F0007A00806480937A0080917A0086FDFCCF29
:1014000080917800909179000895219A9AE09A95B8
:10141000F1F78111219894E29A95F1F70000199B58
:1014200080E097E99A95F1F7219896E09A95F1F77F
:1014300000C00895CF93DF93C82FD8E08C2F817020
:10144000E4DFC6958111C068D150C1F78C2FDF91C0
:10145000CF9108952998219A8CEC94E00197F1F7A7
:1014600000C00000219898ED9A95F1F7000083B133
:10147000EAE2F4E03197F1F700C0869581700895B3
:10148000CF92DF92EF92FF921F93CF93DF93CDB76E
:10149000DEB7A9970FB6F894DEBF0FBECDBF7C01B3
:1014A000162FE4DC61E080E198E2CCDC198380E077
:1014B000282F30E0E2E0F0E0EC0FFD1FE20FF31F19
:1014C0002E0D3F1DD9019C9190838F5F811780F372
:1014D000E2E0F0E0EC0FFD1FE10FF11D10822A9811
:1014E0008981893210F088E2898380E8A5DCF9805F
:1014F0008F2DA2DC11E0F116C0F52A9A61E08CE094
:1015000091E0A0DCC12CD12C9BE4E92EF12CB1E0C0
:10151000CB1AD108E108F10891F510E08BEC92E1CB
:10152000A0E0B0E06C017D0121E0C21AD108E10821
:10153000F108892B8A2B8B2B91F1112339F196DC41
:10154000812F8170CD28CE28CF2809F481E0A9967B
:101550000FB6F894DEBF0FBECDBFDF91CF911F91C4
:10156000FF90EF90DF90CF900895E1E0F0E0EC0F76
:10157000FD1FE10FF11D80815FDC1F5FBCCF60E0CC
:101580008FEF97E25FDC87FFC2CFC7CF60E080E0DC
:1015900098E258DC182F1970D701C601C3CFCC24AC
:1015A000CA94DC2C7601CBCFCF92DF92EF92FF92E0
:1015B000CF93DF93882309F44BC04CDF8CEC3ADFE8
:1015C0008EE438DF8DE736DF88ED34DF8FE132DF00
:1015D00041DF8CEC2FDF84E42DDFC12C5CE2D52EC3
:1015E000EE24E394F12C81E0C81AD108E108F10857
:1015F00021F081E00ADF8823B1F32CDF8CEC1ADFC5
:101600008EEB18DF8FEF16DFC82FD0E08FEF12DFE1
:1016100090E0982F88278C0F9D1F9C012227387FF0
:10162000232BA1F09195819591092FEF089634E035
:10163000969587953A95E1F7829F802D1124DF9149
:10164000CF91FF90EF90DF90CF90089521E0EECF03
:1016500080E8F5CF8F9381E08093B8028F91189541
:101660001F921FB61F9211242F938F939F938091E7
:10167000B702882329F08091B7028F5F8093B70269
:101680008091B602882329F08091B6028F5F809303
:10169000B6028091B4029091B502892B49F08091F5
:1016A000B4029091B50201969093B5028093B40272
:1016B0008091B7028E3F10F01092B7028091B6026F
:1016C0008E3F10F01092B6028091B4029091B50254
:1016D0008131974220F01092B5021092B4029F918E
:1016E0008F912F911F901FBE1F9018951F921FB6AC
:1016F0001F9211248F939F93AF93BF938091B30256
:1017000081FF09C08091B1029091B202019690933D
:10171000B2028093B1028091AD029091AE02A0918D
:10172000AF02B091B0020097A105B10519F081E0B8
:101730008093AC02BF91AF919F918F911F901FBE7C
:101740001F901895CDB7DEB7CF56D2400FB6F8949C
:10175000DEBF0FBECDBF0FB6F894A8958091600094
:10176000886180936000109260000FBE5C98549A6C
:1017700010E000E0312CFE01EA59FE4F1192119267
:1017800088E2DF011D928A95E9F7FE01E754FE4FDA
:101790001192119287E2DF01482E1D924A94E9F7D7
:1017A000FE01EE51FE4F11921192DF01482E1D9263
:1017B0004A94E9F7FE01ED5CFE4F1192119291E31C
:1017C000DF011D929A95E9F7FE01E55FFD4F119249
:1017D0001192DF011D928A95E9F7FE01EC5CFD4F45
:1017E000119211928EE0DF011D928A95E9F797DD43
:1017F00080916400806C8093640080B7806880BFB3
:101800008FEF9FE290938900809388008091810000
:1018100088608093810080916F00826080936F0068
:10182000809181008260809381002898209A7DDBDE
:10183000569A5F98579A5D98559A8CDD6CD8C35B21
:10184000DD4F8883CD54D24082E3C057DE4F88837A
:10185000C059D1408983BE0160577E4FCE010196A9
:10186000FDDC811101C053DBC057DE4FF880C05949
:10187000D1409980C35BDD4FB881CD54D240BC3993
:1018800008F06EC3992009F457C3FF2009F458C328
:101890008DE691E047DC853F49F08DE691E042DC42
:1018A000823021F06DE671E082E031DC8DE691E07E
:1018B00039DCC75ADD4F8883C955D240853F31F0A6
:1018C000E2E0C75ADD4FE883C955D24020E031E05D
:1018D000822F90E0E6E6F1E0EC0FFD1FE80FF91F24
:1018E0003083E2EEF1E0EC0FFD1FE80FF91F1082EC
:1018F00049EB442E552453944C0E5D1E840D951DCA
:10190000DC011C922F5F283219F780E026E090E876
:10191000E1E0F0E0EC0FFD1F289FE00DF11D112428
:10192000108211821282938315828F5F823381F736
:10193000C35BDD4FB881CD54D240BC3908F422C31B
:101940001092B6021092B7021092B5021092B40231
:1019500044983C98809168008D7F809368008091C6
:101960006C008F7E80936C0010927C0010927A0045
:101970001092B802D1DA449845985C98DCDA3C9A27
:101980003D9A549A3B9A3A9A399A389AEFEFFFEF78
:1019900025E0E150F0402040E1F700C000C0429A4D
:1019A000439A45DB8FEF9FE50197F1F700C00000F8
:1019B0003EDBAFEFBFE51197F1F700C0000037DB6A
:1019C000EFEFFFE53197F1F700C00000B4DA429A7B
:1019D0002EDBB6DA60E088E264DB60E08CE061DB9D
:1019E00060E086E05EDB60E081E05BDB60E080E49D
:1019F00058DB84E088DB84E086DB8AE084DB8AE0F5
:101A000082DB85E180DB81E17EDB8AE07CDB84E0D8
:101A10007ADB82E078DB85E076DB82E074DB80E0F5
:101A200072DB80E070DB80E06EDB80E06CDB80E00E
:101A30006ADB60E080E835DB61E082E015DB61E0D5
:101A400080E02FDB61E080E02CDB80E391E04EDB87
:101A500061E080E026DB61E080E023DB60E082E0A3
:101A600020DB85B5856085BD80916E0081608093A7
:101A70006E008FB7F8945B9A5398529A1092C500F3
:101A80009FE39093C40098E19093C10096E09093F7
:101A9000C200589A8FBF5A98F5E0C85ADD4FF883B4
:101AA000C855D240E12CDD24D394D4DC93B1969573
:101AB00091709D25980FE90EC85ADD4F2881C855B1
:101AC000D2402150C85ADD4F2883C855D240211139
:101AD000ECCFEE2009F46CC22198299AC85ADD4F48
:101AE0008881C855D24060DDC95ADD4F8883C7550B
:101AF000D2402A9A2C9A2498239A259A229A0CB496
:101B000006FC03C08CB581658CBD9AE0E92E86E6A3
:101B100096E20197F1F7000061E082E092E092D94D
:101B200061E082E095E08ED961E082EC96E08AD9AE
:101B300061E08DE093E086D961E08DE094E082D9A8
:101B400061E083E499E17ED961E082E49AE17AD9A7
:101B500061E08BE193E176D961E080E095E272D9B2
:101B600061E087E096E26ED961E088ED97E06AD99E
:101B700061E086EE98E066D961E084E199E062D99F
:101B800061E080E997E35ED961E088E298E35AD9A1
:101B900061E080E89CE356D961E080EA9DE352D998
:101BA00061E080E09CE24ED961E084E09DE24AD9A8
:101BB00061E088E89EE246D961E08DE29FE242D989
:101BC00061E084ED90E33ED961E080E098E13AD9AC
:101BD00061E08DE298E536D961E080E39FE632D995
:101BE00061E08EEB99E22ED961E08DE29EE12AD987
:101BF00061E080E09AE226D960E08FEF9DE222D991
:101C0000D82E60E08FEF9EE21DD9282F30E083E0D0
:101C1000359527958A95E1F7822F87702DE22D0D56
:101C2000820F869590E061E09B620CD961E08FE9BC
:101C300091E108D9EA94E1106ACF61E080E89AE086
:101C400001D9412C512CBBE46B2E712C91E0491A27
:101C500051086108710809F0B2C12CD961E081EA2C
:101C60009DE3F0D8E12CCE2CD12CC60180965ADA17
:101C7000AEE3CA0ED11C61E09C2DE4D8E394B0E140
:101C8000EB12F1CF85E090E04DDAE82E86E090E0AF
:101C900049DAD82E6E2D81E14FDAD81209C0EFE172
:101CA000EE1530F08E2D90E061E080689161CAD829
:101CB000C35BDD4FF881CD54D240FC3908F487C1B5
:101CC00089E6CE51DE4F8883C25ED14084E6CD5195
:101CD000DE4F8883C35ED14080E3CC51DE4F8883E2
:101CE000C45ED140A5E0EA2E1ED96AE081E491E00D
:101CF000C7DB5F982FEF3FEF45E021503040404079
:101D0000E1F700C000C0EA94E110EECF60E081E0AE
:101D1000C8D980916E00816080936E0010647894C1
:101D2000C35BDD4F2881CD54D2402C3908F046C228
:101D30004CE451E0CC59DD4F59834883C456D2401E
:101D4000C35BDD4F7881CD54D2407C3908F03FC26F
:101D500087E691E0CA59DD4F99838883C656D24001
:101D6000892D90E09C012F5F3F4F4AE0429F200168
:101D7000439F500C1124CE59DD4F59824882C256E0
:101D8000D24092012A503109C859DD4F3983288346
:101D9000C856D240212CCF59DD4F1882C156D240AF
:101DA000C75BDD4F1882C954D24031E0C25BDD4FC2
:101DB0003883CE54D24073E0C72E4FE0C65ADD4F71
:101DC0004883CA55D24054E0C15BDD4F5883CF549D
:101DD000D240DD24D394CD5ADD4F188219821A8265
:101DE0001B82C355D24060E971E06C0F7D1F6E5FAE
:101DF0007F4FC659DD4F79836883CA56D24023E3AB
:101E000031E02C0F3D1F2F0D311DD9011197C45901
:101E1000DD4FB983A883CC56D2400197B6E0B89F76
:101E20009001B99F300D112444244394512C4C0E41
:101E30005D1E420E531EC55ADD4F59824882CB5556
:101E4000D24092012F5F3F4FC259DD4F3983288323
:101E5000CE56D2408091B802882361F0BFB6F89484
:101E60001092B8020E942905E82E882309F4B8C10F
:101E70005ED8BFBE8091C00087FB10F9312F317052
:101E8000832E10FFCDC44FB6CB5BDD4F4882C554C7
:101E9000D240F8941E7F4DD80E94A806CA59DE4F42
:101EA0008883C656D1408F3709F440C087FD9BC157
:101EB00028EF280F263038F491E001C0990F2A95B9
:101EC000EAF7957299F50E944C05CA59DE4F88834E
:101ED000C656D1400E946805A12C0E94A8060E9407
:101EE0004C05B82E6DE0562E851509F4B1C35AE0A5
:101EF000652E861509F4ACC348E0742E871519F0D9
:101F00002FE78213A6C3A1109DC3C959DE4F1882C3
:101F1000C756D1408DEA98E00E9489058BEA98E087
:101F20000E94890586EA98E00E948905CA59DE4F19
:101F30001882C656D14074C162E3962EF11002C0D9
:101F400052E3F52E6F2D892D02D988E19EE00FB660
:101F5000F894A895809360000FBE90936000FFCF27
:101F60008F2D892909F494CC60E080E0F0D888E1D5
:101F70009EE00FB6F894A895809360000FBE9093F2
:101F80006000FFCFCCD9449A3C9880916800826071
:101F90008093680080916C00806180936C005C98F5
:101FA000549A81E08093B802D5D90E948C0761CD04
:101FB0003FE6C85ADD4F3883C855D2408FCD60E028
:101FC00080E09AE00E94220786FF40CE46CE0E9423
:101FD0008C075FEF6FE774E0515060407040E1F7AD
:101FE00000C000000E9499078FEF9FE7A4E0815096
:101FF0009040A040E1F700C000000E949307BFEFAF
:10200000EFE7F4E0B150E040F040E1F700C000003D
:102010000E9491072FEF3FE744E0215030404040BD
:10202000E1F700C000000E9497075FEF6FE774E0E0
:10203000515060407040E1F700C000000E948C07E2
:102040008FEF9FE7A7E081509040A040E1F700C0EC
:102050000000EF2CE294FFE0EF22F4FC0E949907CD
:10206000E1FC0E949307E2FC0E9491078E2D88708C
:1020700011F00E949707BFEFEFEFFBE3B150E04094
:10208000F040E1F700C000000E948C072FEF3FE70F
:1020900044E0215030404040E1F700C000000E9481
:1020A00097075FEF6FE774E0515060407040E1F7D1
:1020B00000C000000E9491078FEF9FE7A4E08150CD
:1020C0009040A040E1F700C000000E949307BFEFDE
:1020D000EFE7F4E0B150E040F040E1F700C000006D
:1020E0000E9499072FEF3FE744E0215030404040E5
:1020F000E1F700C000000E948C075FEF6FE777E018
:10210000515060407040E1F700C00000F0FC0E94B8
:102110009907F1FC0E949307F2FC0E949107F3FCDF
:102120000E9497078FEF9FEFABE381509040A04054
:10213000E1F700C000000E948C07BFEFEFEFF5E071
:10214000B150E040F040E1F700C000C00E94290516
:10215000E82E882381F10E949707006480E7CE5122
:10216000DE4F8883C25ED140CD51DE4F9882C35E80
:10217000D140CC51DE4FF882C45ED1400E948B0426
:10218000CB51DE4F8883C55ED140CA51DE4FE88215
:10219000C65ED140C95ADD4F4880C755D240C951AB
:1021A000DE4F4882C75ED14080E1C851DE4F888350
:1021B000C85ED140B3CD0E949507CFCF6BE571E0EB
:1021C000CC59DD4F79836883C456D240B9CDABE595
:1021D000B1E0CA59DD4FB983A883C656D240C0CDFD
:1021E0000E94950746CE8F3F09F06DCE0E94A8064B
:1021F000C959DE4F8883C756D1400E94A806C859E6
:10220000DE4F8883C856D1400E94A806C759DE4FCA
:102210008883C956D140C659DE4F1882CA56D1406C
:1022200060E771E0CE018A599E4F0E9458058823CD
:1022300011F01D7B126065E771E0CE018A599E4F57
:102240000E945805882319F0689430F81F7B6CE7CA
:1022500071E0CE018A599E4F0E9458058111006499
:1022600066E871E0CE018A599E4F0E94580581119F
:102270001BC06BE871E0CE018A599E4F0E94580541
:10228000811112C060E971E0CE018A599E4F0E940F
:102290005805811109C066E971E0CE018A599E4F47
:1022A0000E945805882311F01F79106261E871E0DF
:1022B000CE018A599E4F0E945805882311F0016073
:1022C0001F7B6BE971E0CE018A599E4F0E94580531
:1022D000882341F0C35BDD4F4881CD54D2404C3957
:1022E00008F00E6165EA71E0CE018A599E4F0E94A6
:1022F0005805882351F0C35BDD4F5881CD54D2403F
:102300005C3918F00E949707E82C62EA71E0CE0170
:102310008A599E4F0E945805882351F0C35BDD4FB8
:102320006881CD54D2406C3918F00E949507E12C99
:1023300069EA71E0CE018A599E4F0E9458058111C9
:102340000E94E0066DEA71E0CE018A599E4F0E941C
:1023500058058111006262EB71E0CE018A599E4FEF
:102360000E945805811108C065EB71E0CE018A59C1
:102370009E4F0E945805811100686EEB71E0CE01FE
:102380008A599E4F0E945805882351F187ED90E0AD
:102390000E948905C75ADD4F7881C955D2408BEC20
:1023A00090E0783C11F087EB90E00E94890588E787
:1023B00090E00E9489050E94A806B82E8823D9F3D0
:1023C0000E94680585E790E00E9489058B2D806258
:1023D000853609F455C138ECB32E843709F452C15F
:1023E00066EC71E0CE018A599E4F0E945805882301
:1023F00009F484C08AEC91E00E949806612C94E074
:10240000592E90E080E05C0184E0AA0CBB1C8A9508
:10241000E1F70E94A806782E0E946805872D806249
:1024200090ED980F9A3038F09FE9980F963008F0A9
:102430003CC199EA980F81E09F3F09F080E0680E67
:102440009501292BC9015A945110DDCF611052C05A
:102450008F3F980709F44EC09C01207E20383149F7
:1024600019F4582F5F71652E692F661F6627661F46
:102470000E942207B82E8CE998E00E9489056B2DF6
:1024800070E090E080E0C35ADD4F688379838A83EF
:102490009B83CD55D24048E60E949705662051F1B6
:1024A00080E798E00E9489050E94A806B82E6894EB
:1024B000B5F87AE6B71619F08EE6B812F5CF8B2D7F
:1024C0000E9468058DE698E00E9489059AE6B91297
:1024D00011C065E070E0862D0E948708662D81E1BD
:1024E0000E949C0866E070E00E94870884E598E0FE
:1024F0000E94890582E192E00E94980666E172E0FE
:10250000CE018A599E4F0E945805882309F42BC199
:10251000C057DE4F19821882C059D1408EE0C6598B
:10252000DD4FA881B981CA56D2401D928A95E9F73C
:1025300084E093E00E94890580EE92E00E94890584
:1025400087EC92E00E94890560E08FEF9DE30E9496
:102550002207B82FB1706B2E80FF91C38FE892E0F5
:102560000E948905AA24AA94BEE3BB2E60E0C5019F
:102570000E942207282F30E050E040E0C35ADD4F90
:10258000288339834A835B83CD55D24048E6C35ABA
:10259000DD4F688179818A819B81CD55D2400E942F
:1025A00097058DE892E00E948905B394A1144EE44A
:1025B000B406E0F280E792E00E948905B12C8B2DF1
:1025C00090E080960E949208282F30E050E040E092
:1025D000C35ADD4F288339834A835B83CD55D2406C
:1025E00048E6C35ADD4F688179818A819B81CD5548
:1025F000D2400E9497058EE692E00E948905B3942E
:1026000030E1B312DCCF87E292E00E9489050E949C
:10261000A8068823E1F3B82E6894B5F88B2D0E94A4
:10262000680584E292E00E94890543E7B4129BC0EA
:102630008EE092E00E948905712CA12C412CF2E0E1
:102640005F2E36C0AA948BE690E00E94890545CCA7
:10265000B12CE7E6F1E0EC0FFD1FEA0DF11DB082B1
:102660008B2D0E946805BB2011F40C941A23A394AF
:1026700037E2A31232CC88E690E00E948905D0CDE3
:1026800022E0B22EC75ADD4F4880C955D2404B14C4
:1026900009F4A6CE6DE671E08B2D0E948708C75A1B
:1026A000DD4FB882C955D2409BCE9FEFC4CE562C89
:1026B0004294A0EF4A220E94A806B82E0E94680504
:1026C0008B2D806290ED980F9A3030F09FE9980F33
:1026D000963090F499EA980F81E09F3F09F080E0EE
:1026E000A80E492A51E05512E2CFAA2039F084EC15
:1026F00091E00E94890537C09FEFEECF82EC91E018
:102700000E948905E0E9F1E0EC0FFD1FE70DF11DE6
:102710004082739460E1761290CF8CE991E00E9440
:1027200089050E94A80680628A3629F08E36C9F78C
:1027300086E491E0DECF8A2D90E0BC01605E7F4FA1
:10274000A0E9B1E0AC0FBD1F8A0F9B1FFC01808187
:102750000E948708A394F0E1AF12EDCF8AE691E0E2
:102760000E9489050062CA59DE4F8881C656D14051
:102770008F3F09F042C0C959DE4FB880C756D140DB
:102780008B0D8233D0F5C859DE4FA880C856D14092
:102790008FEF8A0D803188F5C759DE4F7880C95692
:1027A000D1406B2D80E00E949C086A2D0E949C08FD
:1027B000781223C086E6CE51DE4F8883C25ED140B8
:1027C000CD51DE4FB882C35ED140CC51DE4FA882DE
:1027D000C45ED1401064FB100FC0C35BDD4F288185
:1027E000CD54D2402C3940F412FD06C0C554DE4F02
:1027F000A882CB5BD1401460D82C2898CA59DE4FF0
:102800008881C656D14081508E3F20F481E598E002
:102810000E948905CB5BDD4F4880C554D2404FBE36
:1028200007FF37C0BFB6F8940F778EE498E00E9498
:102830008905CC59DD4F88819981C456D2400E94C8
:1028400098068BE498E00E94890580E498E00E9455
:1028500089058AE398E00E94890544E665E470E012
:1028600080E090E00E94970587E398E00E94890548
:102870008DE298E00E94890584E298E00E94890533
:102880008FE198E00E9489058BE198E00E9489051C
:10289000BFBE11FF3AC18FB6F8941D7F0E94E006BB
:1028A00086E595E00E94890584E295E00E9489050D
:1028B000BE016C5B7D4FCE0180579E4F0E942E095A
:1028C00081110CC08EE195E00E94890585E095E0BC
:1028D0000E9489058FEF94E00E94890589EF94E0BA
:1028E0000E9489058EED94E00E948905CA59DD4F4A
:1028F00088819981C656D2400E949806C35BDD4FFD
:102900002881CD54D2402C3908F0DAC186EC94E00D
:102910000E94890580EC94E00E948905C057DE4F33
:102920008881C059D140853409F4ACC18A3018F48B
:1029300080E30E946805C057DE4F8881C059D140AE
:10294000482F50E070E060E0CB5BDD4F4883598357
:102950006A837B83C554D24044E6CB5BDD4F6881FC
:1029600079818A819B81C554D2400E94970586EB6C
:1029700094E00E94890580EB94E00E9489058BE930
:1029800094E00E94890585E994E00E948905CC5B6A
:10299000DD4F8881C454D240853609F478C18A302D
:1029A00018F480E30E946805CC5BDD4F8881C45435
:1029B000D240482E512C712C612CCB5BDD4F4882CC
:1029C00059826A827B82C554D24044E6C301B20177
:1029D0000E9497058BE894E00E94890585E894E0C1
:1029E0000E94890580E894E00E9489058AE494E0C9
:1029F0000E9489050E94A8068823E1F3B82E6894F6
:102A0000B5F88B2D0E94680587E494E00E94890543
:102A100084E494E00E948905E9E65E2EB5104BC17E
:102A200080E394E00E9489058DE294E00E9489058C
:102A300085E194E00E9489058FE094E00E94890579
:102A4000C057DE4FA880C059D1400E94BB068F3FBF
:102A500009F422C1C057DE4F8883C059D14089E0B4
:102A600094E00E94890584EF93E00E94890581EF3C
:102A700093E00E94890589ED93E00E94890583ED2A
:102A800093E00E948905CC5BDD4FB880C454D240EE
:102A90000E94BB068F3F09F405C1CC5BDD4F8883E4
:102AA000C454D2408DEC93E00E948905C057DE4F9C
:102AB0008881C059D140A81208C0CC5BDD4F9881F5
:102AC000C454D240B91609F4F6C0CC5BDD4F68811E
:102AD000C454D2400E94A708CC5BDD4F6881C45427
:102AE000D240C057DE4F8881C059D1400E94E708CC
:102AF000882309F4DDC081EB93E00E9489058EE70D
:102B000093E00E94890500628FBE30FE99C05FB6D7
:102B1000F894E89430F887E496E00E94890586E00E
:102B200096E00E94890580E096E00E9489058AEE81
:102B300095E00E9489050E94BB06882E87EE95E0ED
:102B40000E94890566246A94861409F478C081ED90
:102B500095E00E9489050E94BB06A82E8EEC95E0A8
:102B60000E9489058BEC95E00E948905A61409F462
:102B700066C085EB95E00E9489050E94BB06682E21
:102B800082EB95E00E94890577247A94671409F412
:102B900056C08CE995E00E9489050E94BB06782EFC
:102BA00088E995E00E9489052FEF721609F447C065
:102BB000861003C0A71409F442C08CE595E00E947A
:102BC00089050E94A806B82E8823D9F30E946805BB
:102BD0008B2D80628A3699F583E6CE51DE4F88834D
:102BE000C25ED140CD51DE4F8882C35ED140CC5110
:102BF000DE4FA882C45ED140CB51DE4F6882C55EF5
:102C0000D140CA51DE4F7882C65ED14098105BC079
:102C1000FA1059C08BEF97E00E948905CA51DE4F28
:102C20006881C65ED140CB51DE4F8881C55ED14000
:102C30000E94A70800628CEC97E00E9489055FBEA5
:102C400015FFF1C06FB6F8941F7DCA59DE4FB880EA
:102C5000C656D14039E6B3123CC0CE51DE4FB882E1
:102C6000C25ED14084E6CD51DE4F8883C35ED14041
:102C700080E3CC51DE4F8883C45ED140BAC284E287
:102C800091E037CD89EB94E00E94890570CE8EE803
:102C900094E00E9489059ECEC057DE4FA882C0599D
:102CA000D140DDCECC5BDD4FB882C454D240FACEE9
:102CB0008FE893E022CF8DE593E00E94890524CF31
:102CC0008BE293E0FACF80ED97E00E9489051064D3
:102CD000B2CF44E7B41250C0CE51DE4FB882C25ECC
:102CE000D140C85ADD4F8881C855D2400E94D40ACD
:102CF000C95ADD4F8883C755D2408DE797E00E94BF
:102D00008905C95ADD4F4881C755D24088E797E009
:102D10004038B9F044E0C95ADD4F6881C755D24008
:102D2000062E000C770B880B990BCB5BDD4F68836D
:102D300079838A839B83C554D2400E94310684E7FD
:102D400097E00E94890584E7CE51DE4F8883C25EFA
:102D5000D14085E6CD51DE4F8883C35ED1408DE6FC
:102D6000CC51DE4F8883C45ED14080E7CB51DE4F2B
:102D70008883C55ED1403DC256E6B5120CC0CE5127
:102D8000DE4FB882C25ED140882483948DEA97E0FA
:102D90002AE0722EE1C18BEB97E00E9489050E9428
:102DA000A806B82E6894B5F88B2D0E94680588EBAC
:102DB00097E00E948905CE51DE4FB882C25ED140B5
:102DC00066E6B61609F379E6B71609F44BCF84E741
:102DD000B81609F486CFB12C80E797E00E948905E8
:102DE000BB2009F40EC21064CE51DE4F8881C25E52
:102DF000D140863691F4CD51DE4F8881C35ED140FB
:102E00008F110BC0CC51DE4F8881C45ED140C554B8
:102E1000DE4F8883CB5BD14014608091C00087FD7A
:102E2000F3C16FBEDB2C702F7170772E00FF72C163
:102E30004FB6F8940E7F0E94E00689E397E00E9467
:102E4000890584E297E00E94890582E197E00E946B
:102E500089058CE097E00E9489058CEA96E00E9443
:102E60008905812C88E0881520F08AEA96E00E9486
:102E70008905882D90E001969C01990F440B550B14
:102E8000CB5BDD4F288339834A835B83C554D240B3
:102E900044E6CB5BDD4F688179818A819B81C55493
:102EA000D2400E94970587EA96E00E948905AA24ED
:102EB000A394B12CAC0EBD1E36E0839EA00CB11CB9
:102EC0001124D5016C906110A2C183EA96E00E94A2
:102ED00089058CE996E00E948905F50181818A3097
:102EE00008F0B2C187E996E00E94890582E996E080
:102EF0000E948905662009F4DEC1D50112968C91E5
:102F00000E9468058DE896E00E948905F50183819D
:102F1000803809F4D5C1282F880F330B440B550B8B
:102F2000CB5BDD4F288339834A835B83C554D24012
:102F300044E0CB5BDD4F688179818A819B81C554F8
:102F4000D2400E94310680E896E00E948905D501B2
:102F500014968C91282F30E050E040E0CB5BDD4FA1
:102F6000288339834A835B83C554D24044E6CB5BD4
:102F7000DD4F688179818A819B81C554D2400E944E
:102F800097058DE796E00E948905D5011596BC90BE
:102F9000BB2009F49EC1B3E6BB1520F08BE796E099
:102FA0000E948905E9E0EB1520F089E796E00E9490
:102FB000890587E796E00E9489052B2D30E050E0D7
:102FC00040E0CB5BDD4F288339834A835B83C55464
:102FD000D24044E6CB5BDD4F688179818A819B8159
:102FE000C554D2400E949705882D63E00E9420239B
:102FF000923009F073C18FE696E00E9489058394B0
:1030000032E383122FCF80E596E00E948905CF59E5
:10301000DD4F5880C156D240852D90E0B0E0A0E051
:1030200044E6CB5BDD4F88839983AA83BB83C55479
:10303000D240BC01CD010E9497058DE496E00E942C
:10304000890590E080E0E1E0F0E0EC0FFD1F56E044
:10305000652E869DE00DF11D11242081271101C0F0
:103060009F5F8F5F823379F7E2E3F1E0EC0FFD1FA2
:10307000E70DF11D9083739423E37212E2CF85E58F
:1030800097E00E948905812C38E0381518F080E31C
:103090000E946805A82CB12CC5010196AC01990FBE
:1030A000660B770BCB5BDD4F488359836A837B8349
:1030B000C554D24044E6CB5BDD4F688179818A817B
:1030C0009B81C554D2400E94970582E597E00E94FB
:1030D0008905E3E3F1E0EC0FFD1FEA0DFB1D8081A4
:1030E0008111FFC08EE497E00E948905882D63E07E
:1030F0000E942023923009F00CC18BE497E00E94DB
:103100008905839432E38312BFCF8FE397E00E9457
:1031100089054FBE05FF02C1F894C35BDD4F4881AE
:10312000CD54D2404C3908F4F7C060E081E00E94F1
:1031300051088DE192E00E94760888E19EE00FB68A
:10314000F894A895809360000FBE909360000E9451
:10315000E006FFCF72E0872E0E9489050E94A80634
:10316000A82E8823D9F30E94680590EDA90E0E942D
:10317000A806B82E8823D9F30E946805A79CB00C36
:103180001124A0EDBA0E8DE997E00E948905BB20BD
:1031900099F12B2D30E0B2E081E190E08B1611F037
:1031A00083E390E0281739073CF52B2D30E050E001
:1031B00040E0CB5BDD4F288339834A835B83C55472
:1031C000D24044E6CB5BDD4F688179818A819B8167
:1031D000C554D2400E949705E2EEF1E0EC0FFD1FCE
:1031E000E80DF11DB08281EA97E031E0831609F421
:1031F000B1CFBB24B394F0CD8AE897E00E94890553
:10320000EACD1F7BBD2C09CE8091C60006CE81EA97
:1032100096E00E948905B9E0B61520F08FE996E0A6
:103220000E948905862D90E0B0E0A0E044E6CB5BEB
:10323000DD4F88839983AA83BB83C554D240BC01E8
:10324000CD010E94970545CE6AE00E942023592EA9
:10325000282F30E050E040E0CB5BDD4F28833983FE
:103260004A835B83C554D24042E0CB5BDD4F68812B
:1032700079818A819B81C554D2400E94310685E9BB
:1032800096E00E948905452D50E070E060E0CB5B40
:10329000DD4F488359836A837B83C554D24044E61B
:1032A000CB5BDD4F688179818A819B81C554D24097
:1032B0000E9497051BCE80E996E00E94890522CEE8
:1032C00088E896E0611002C083E896E00E948905D4
:1032D0003ACE82E796E00E94890586CE8DE696E09A
:1032E0008CCE282F30E050E040E0CB5BDD4F2883D0
:1032F00039834A835B83C554D24043E0CB5BDD4FC7
:10330000688179818A819B81C554D2400E943106AF
:10331000EDCE83E497E0F3CE419A0FCF06FD0AC0CD
:1033200016FF60C0CE51DE4F8881C25ED140893623
:1033300009F058C0BFB6F8940F7B80E090E8282FC2
:1033400030E0E3E3F1E0EC0FFD1FE20FF31F10822A
:1033500056E0529FF001539FF00D112461E070E0A0
:103360006C0F7D1FE60FF71F10821182128293836C
:1033700095838F5F823319F7C35BDD4F7881CD541E
:10338000D2407C3948F581E0C459DD4FA881B9812C
:10339000CC56D2408C93C55ADD4FE881F981CB558C
:1033A000D240F0820E948B04C259DD4FA881B981BE
:1033B000CE56D2408C938EE6E1108AE6C55ADD4F98
:1033C000E881F981CB55D2408283C95ADD4F4880CC
:1033D000C755D24043821582BFBECF59DD4F1882F8
:1033E000C156D240D1101BC08091B302DD24D394CA
:1033F00081FF0DC08091B1029091B202CE59DD4F94
:1034000068807980C256D2406816790640F0C35B66
:10341000DD4F2881CD54D2402C3908F4D12C16FF31
:1034200059C0DD2009F456C07FB6F8941F7BCE51F9
:10343000DE4F8881C25ED1408356D12C812C8831E9
:1034400048F490E0FC01E85EFE4F808080509F4F82
:10345000DC01DC90A82CB12CE2EEF1E0EC0FFD1FBA
:10346000EA0DFB1DD0821182CE51DE4F8881C25EF3
:10347000D140863611F4EE2001F1839442EE442EC1
:10348000552453944C0E5D1EA40CB51C13C00E9411
:103490009307682DCE018E519E4F0E94400AC75B54
:1034A000DD4F8883C954D240F501808181508083EB
:1034B0005F98DA94D110EBCF06608091B3028D7FD4
:1034C0008093B3021092B2021092B1020E945A0786
:1034D0007FBED12C12FF4BC0AFB6F8941B7FEE20FD
:1034E00009F442C0C554DE4FB880CB5BD1408FEFAA
:1034F0008B0D8031C8F510610E94870720E180E0C4
:1035000090E0DC01880F991FAA1FBB1FB21201C0F7
:1035100081602150B9F74091AD025091AE026091A7
:10352000AF027091B0022C013D01442A552A662A4F
:10353000772ACB5BDD4F488259826A827B82C554F1
:10354000D2405C9ACB5BDD4F688179818A819B8117
:10355000C554D2400E94EC064092AD025092AE0299
:103560006092AF027092B0020E945A07AFBE14FF81
:1035700056C08091AC02882309F451C02FB7F8944B
:103580001092AC0213FBAA24A0F8B12C41E050E049
:1035900060E070E0412C512C32018091AD0290919D
:1035A000AE02A091AF02B091B00284239523A6236E
:1035B000B723892B8A2B8B2B89F0E4E3F2E0EC0F05
:1035C000FD1FEB0DF11D30813F5FC75ADD4F988124
:1035D000C955D240391708F096C03083440F551FA3
:1035E000661F771FB394A0E1BA12D7CFA0FA13F9E0
:1035F0008091AD029091AE02A091AF02B091B00265
:10360000B301A201482759276A277B27CD5ADD4FEE
:10361000488359836A837B83C355D2402FBF13FFEE
:1036200028C0BFB6F894177FCD5ADD4F68817981E5
:103630008A819B81C355D2400E94EC06CD5ADD4F52
:10364000488059806A807B80C355D2404092AD0249
:103650005092AE026092AF027092B00245284628A6
:10366000472831F45C981F7E0E948C070E949707C0
:10367000BFBEAFB6F8942A9887E20E941C0780E08C
:103680000E941C07B82E80E00E941C079B2D2A9ADE
:1036900082FDCBC792FF0BC060E08FEF9DE30E94DD
:1036A000220790E061E084609D630E94220780E031
:1036B00080FB17F9AFBE17FF8EC0BFB6F8941F7717
:1036C0000E94910760E08FEF9FE60E942207882307
:1036D00011F160E08FEF94E20E942207282E2694D9
:1036E0000E9436072A9880E00E941C078FEF0E94F4
:1036F0001C07893240F5C057DE4F8883C059D1403E
:10370000AA24A3942DC0442A552A662A772A108217
:10371000AA24A39463CF61E081E093E20E94220790
:10372000412C512CEBE46E2E712C21E0421A5108F1
:103730006108710871F260E08FEF93E20E94220746
:1037400081FFF3CFC6CF88E2D6CF8FEF0E941C0750
:10375000E0E9F1E0EC0FFD1FEA0DF11D8083A39479
:10376000C057DE4F8881C059D1408A1570F72A9A18
:10377000C057DE4FE881C059D140E83208F0E7E297
:1037800080E08E1708F4D2C079EB472E552453946D
:103790004C0E5D1E4E0E511CF201108261E080E164
:1037A00098E20E9422075D98C754DE4F8881C95B6A
:1037B000D1408D3609F406C208F0CDC0863609F432
:1037C000E4C0893609F409C1833609F4C0C10A602E
:1037D0000E945A07BFBEC35BDD4F2881CD54D24043
:1037E0002C3910F40C942A0F302F3270B32E01FDB7
:1037F0004DC08091B7028C3F58F48091B6028C3F47
:1038000038F48091B4029091B502823F9240D0F199
:103810008FB6F8948091B7028C3F08F010C2809167
:10382000B6028C3F78F01092B60261E082E00E940E
:103830003408A12C83E492E00E947608A39474E1FA
:10384000A712F8CF8091B4029091B502823F9240C6
:10385000C0F01092B5021092B40261E083E00E94C1
:10386000340882E492E00E947608B39484E1B812AE
:10387000F8CF91E0C25BDD4F9883CE54D24043E055
:10388000C42E8FBE01FD02C00C942A0F6FB6F894AF
:103890000D7F02FF2AC061E081E00E9434088FE2C0
:1038A00092E00E947608C75BDD4F4880C954D24041
:1038B00083E392E04110FEC3CE51DE4F8881C25EA9
:1038C000D140893609F4E6C208F0C9C1833609F44B
:1038D000F6C3863609F4EAC10B7F81E08093B70214
:1038E000C75BDD4F1882C954D24003FF1CC061E0A2
:1038F00082E00E94340884E892E00E947608C7546F
:10390000DE4F8881C95BD140893609F4FAC408F0DA
:1039100079C4833609F4EEC5863609F47CC4077F82
:1039200081E08093B6026FBE0C942A0F282F30E0FE
:1039300069EB71E06C0F7D1F620F731F40E951E06E
:103940004C0F5D1F240F351FD90111969C91DB018F
:103950009C938F5F16CF803709F493C0843709F0AA
:1039600036CFC354DE4F8881CD5BD140815081F585
:10397000C85ADD4F8881C855D2400E94D40AC95A1E
:10398000DD4F8883C755D24022CFC454DE4F888193
:10399000CC5BD1408150B1F4EE2009F418CFC6546D
:1039A000DE4F8881CA5BD1408F1111CFC35BDD4FE1
:1039B000B881CD54D240BC3908F009CF12FD07CFF1
:1039C000146005CFA0E4B9E81197F1F70000E2CF49
:1039D000E3E5F1E93197F1F7C9CFC454DE4FD88060
:1039E000CC5BD140DA94D11046C080E7CE51DE4F97
:1039F0008883C25ED140CD51DE4F9882C35ED140F4
:103A0000CC51DE4FF882C45ED140C35BDD4F98815C
:103A1000CD54D24082E39C3910F40E948B04CB51E8
:103A2000DE4F8883C55ED140CA51DE4FE882C65E54
:103A3000D140C95ADD4F4880C755D240C951DE4FE9
:103A40004882C75ED14080E1C851DE4F8883C85E9E
:103A5000D14082E086BB1092850010928400809154
:103A6000B30282608093B3021092B2021092B1024C
:103A700010640064ACCE80E499E80197F1F700008F
:103A8000B1CFC054DE4F8881C05CD140815031F548
:103A9000C654DE4F8881CA5BD140853499F08823B3
:103AA00089F0891579F08150282F30E0E1E0F0E0CD
:103AB000EC0FFD1FB6E0B89FE00DF11D11248081D1
:103AC000882391F0CF59DD4FE881C156D240EF5F96
:103AD000CF59DD4FE883C156D24079CEABE8B9EA81
:103AE0001197F1F700C0D2CFC554DE4F8881CB5B70
:103AF000D1408083C454DE4F8881CC5BD140818328
:103B0000C354DE4F8881CD5BD14081111EC08EE64B
:103B100056E0452E429EF001439EF00D112466248E
:103B20006394712C6C0E7D1EE60DF71D8283C254CA
:103B3000DE4F8881CE5BD1408383C154DE4F8881C4
:103B4000CF5BD1408483258242CE8AE6E1CFC25446
:103B5000DE4F8881CE5BD140815069F5E11037CED0
:103B6000C654DE4F8881CA5BD140891130CEC5541E
:103B7000DE4F8881CB5BD1408F1129CEC454DE4FFC
:103B80008881CC5BD1409FEF980F923308F01FCE15
:103B9000C354DE4F6881CD5BD1409FEF960F9233C7
:103BA00008F015CE891103C06F1509F410CE0E94DC
:103BB000A70800620CCEA5E6B9E91197F1F700C09D
:103BC0000000CACFC454DE4F8881CC5BD140815005
:103BD00081F5C654DE4F8881CA5BD1408911F7CD8B
:103BE000FE01EE51FE4F8AE78083918280E182835D
:103BF00080E0DF01A80FB11D13961C928F5F80310A
:103C0000C1F7106482E086BB109285001092840098
:103C10008091B30282608093B302C859DD4F48801F
:103C20005980C856D2405092B2024092B102D12C73
:103C3000CECDE0E4F9E83197F1F70000C8CF10925B
:103C4000B70261E081E00E943408A12C83E492E095
:103C50000E947608A39454E1A512F8CFE0CD8037F6
:103C600009F466C1843709F037CE87E692E00E94F6
:103C7000760804FD5BC1C65ADD4F6881CA55D24043
:103C8000C15BDD4F8881CF54D2400E94340883E469
:103C900092E00E947608C25BDD4F6881CE54D2402C
:103CA0008C2D0E94340889E792E0D2C0CD51DE4FBE
:103CB0008881C35ED1408150823308F037C1CC5136
:103CC000DE4F8881C45ED1408150803108F02EC122
:103CD00061E080E00E94510885E492E00E9476084D
:103CE000CD51DE4F8881C35ED140282F30E050E0B7
:103CF00040E0C75BDD4F288339834A835B83C95427
:103D0000D24022E0AE01455F5D4FC75BDD4F688169
:103D100079818A819B81C954D2400E94BB04CE0123
:103D2000855F9D4F0E94760888E492E00E947608A5
:103D3000CC51DE4F8881C45ED140482F50E070E006
:103D400060E0C75BDD4F488359836A837B83C95436
:103D5000D24022E0AE01455F5D4FC75BDD4F688119
:103D600079818A819B81C954D2400E94BB04CE01D3
:103D7000855F9D4F0E9476088DE392E00E94760851
:103D800004FDD4C0C65ADD4F6881CA55D240C15B1C
:103D9000DD4F8881CF54D2400E94340883E492E002
:103DA0000E947608C25BDD4F6881CE54D2408C2DD4
:103DB0000E94340880E192E00E947608CD51DE4FE7
:103DC0008881C35ED140282F30E050E040E0C15BE5
:103DD000DD4F288339834A835B83CF54D24022E06E
:103DE000AE01455F5D4FC15BDD4F688179818A819E
:103DF0009B81CF54D2400E94BB04CE01855F9D4F72
:103E00000E94760861E080E00E945108CC51DE4FAC
:103E10008881C45ED140482F50E070E060E0C15B13
:103E2000DD4F488359836A837B83CF54D24022E09D
:103E3000AE01455F5D4FC15BDD4F688179818A814D
:103E40009B81CF54D2400E94BB04CE01855F9D4F21
:103E50000E947608C25BDD4F9881CE54D240995FB4
:103E60008C2D963118F081E08C0D91E0853008F0B2
:103E700083E021E030E03093B5022093B402C25BCE
:103E8000DD4F4880CE54D240C65ADD4F4882CA55D5
:103E9000D24041C08CE492E00E94760804FD46C006
:103EA000C65ADD4F6881CA55D240C15BDD4F88815B
:103EB000CF54D2400E94340883E492E00E947608F6
:103EC000C25BDD4F6881CE54D2408C2D0E943408F5
:103ED0008EE592E00E947608C25BDD4F9881CE5459
:103EE000D240995F8C2D963118F081E08C0D91E0D5
:103EF000853008F083E021E030E03093B502209374
:103F0000B402C25BDD4F5880CE54D240C65ADD4F5A
:103F10005882CA55D240C25BDD4F9883CE54D240FE
:103F2000C15BDD4FC882CF54D240C82E0F7ED4CCA7
:103F300082E892E00E947608CD51DE4F8881C35E10
:103F4000D140282F30E050E040E0C75BDD4F2883B0
:103F500039834A835B83C954D24022E0AE01455F76
:103F60005D4FC75BDD4F688179818A819B81C95430
:103F7000D2400E94BB04CE01855F9D4F0E9476080F
:103F800086E492E00E947608CC51DE4F8881C45EC0
:103F9000D140482F50E070E060E0C75BDD4F4883C0
:103FA00059836A837B83C954D24022E0AE01455FC6
:103FB0005D4FC75BDD4F688179818A819B81C954E0
:103FC000D2400E94BB04CE01855F9D4F0E947608BF
:103FD00083E492E00E947608CB51DE4F8881C55E73
:103FE000D140843620F483E492E00E947608CB51DD
:103FF000DE4F8881C55ED1403AE0B32E6B2D20D3D1
:10400000282F30E050E040E0C75BDD4F2883398344
:104010004A835B83C954D24021E0AE01455F5D4FC6
:10402000C75BDD4F688179818A819B81C954D24009
:104030000E94BB04CE01855F9D4F0E94760885E6F5
:1040400092E00E947608CB51DE4F8881C55ED14058
:104050006B2DF6D2492F50E070E060E0C75BDD4F7A
:10406000488359836A837B83C954D24021E0AE01DF
:10407000455F5D4FC75BDD4F688179818A819B8198
:10408000C954D2400E94BB04CE01855F9D4F0E945F
:10409000760883E492E00E947608CA51DE4F888158
:1040A000C65ED140811109C08EE661E00E945108D0
:1040B00080E492E00E9476080FCC8AE6F6CF82E890
:1040C00092E00E947608CD51DE4F8881C35ED140D8
:1040D000282F30E050E040E0C75BDD4F2883398374
:1040E0004A835B83C954D24022E0AE01455F5D4FF5
:1040F000C75BDD4F688179818A819B81C954D24039
:104100000E94BB04CE01855F9D4F0E94760885E426
:1041100092E00E947608CC51DE4F8881C45ED14087
:10412000482F50E070E060E0C75BDD4F4883598363
:104130006A837B83C954D24022E0AE01455F5D4F64
:10414000C75BDD4F688179818A819B81C954D240E8
:104150000E94BB04CE01855F9D4F0E94760880E8D7
:1041600092E00E947608CB51DE4F8881C55ED14037
:10417000282F30E050E040E0C75BDD4F28833983D3
:104180004A835B83C954D24022E0AE01455F5D4F54
:10419000C75BDD4F688179818A819B81C954D24098
:1041A0000E94BB04CE01855F9D4F0E94760885E486
:1041B00092E00E947608CA51DE4F8881C65ED140E7
:1041C000482F50E070E060E0C75BDD4F48835983C3
:1041D0006A837B83C954D24022E0AE01455F5D4FC4
:1041E000C75BDD4F688179818A819B81C954D24048
:1041F0000E94BB04CE01855F9D4F0E94760883E438
:1042000092E058CF803709F494C0843709F087CB07
:104210008BE992E078C0C654DE4FA880CA5BD140DB
:104220008FEF8A0D823308F07ACBC554DE4FB88009
:10423000CB5BD1408FEF8B0D803108F070CB61E00C
:1042400080E00E94510885E492E00E9476086A2D81
:1042500070E090E080E022E0AE01455F5D4F0E949B
:10426000BB04CE01855F9D4F0E94760888E492E0F2
:104270000E9476088B2D90E0B0E0A0E0CB5BDD4F94
:1042800088839983AA83BB83C554D24022E0AE01C0
:10429000455F5D4FBC01CD010E94BB04CE01855F2F
:1042A0009D4F0E94760885E992E00E9476082110D1
:1042B00005C088E892E00E94760831CB822D93E613
:1042C000921508F483E6282F30E050E040E0CB5B05
:1042D000DD4F288339834A835B83C554D24022E073
:1042E000AE01455F5D4FCB5BDD4F688179818A818F
:1042F0009B81C554D2400E94BB04CE01855F9D4F77
:10430000DACF8BE892E00E947608222091F2822D8B
:1043100033E6321508F483E6482F50E070E060E0A1
:10432000CB5BDD4F488359836A837B83C554D2407E
:10433000CDC082E892E00E947608C654DE4F8881A4
:10434000CA5BD140282F30E050E040E0CB5BDD4F2E
:10435000288339834A835B83C554D24022E0AE016F
:10436000455F5D4FCB5BDD4F688179818A819B81A1
:10437000C554D2400E94BB04CE01855F9D4F0E9470
:10438000760886E492E00E947608C554DE4F888164
:10439000CB5BD140482F50E070E060E0CB5BDD4F5D
:1043A000488359836A837B83C554D24022E0AE019F
:1043B000455F5D4FCB5BDD4F688179818A819B8151
:1043C000C554D2400E94BB04CE01855F9D4F0E9420
:1043D000760883E492E00E947608C454DE4FB880E9
:1043E000CC5BD14053E65B1520F083E492E00E9461
:1043F00076088B2D6AE024D1B92E282F30E050E0CA
:1044000040E0CB5BDD4F288339834A835B83C5540F
:10441000D24021E0AE01455F5D4FCB5BDD4F68814F
:1044200079818A819B81C554D2400E94BB04CE0110
:10443000855F9D4F0E94760885E692E00E9476088F
:104440004B2D50E070E060E0CB5BDD4F488359833B
:104450006A837B83C554D24021E0AE01455F5D4F46
:10446000CB5BDD4F688179818A819B81C554D240C5
:104470000E94BB04CE01855F9D4F0E94760883E4B5
:1044800092E00E947608C354DE4F8881CD5BD14014
:1044900081112EC08EE661E00E94510888E992E009
:1044A0000E947608222009F404CF822D53E652158B
:1044B00008F483E6282F30E050E040E0CB5BDD4F8E
:1044C000288339834A835B83C554D24022E0AE01FE
:1044D000455F5D4FCB5BDD4F688179818A819B8130
:1044E000C554D2400E94BB04CE01855F9D4FE3CEF0
:1044F0008AE6D1CFC654DE4F8880CA5BD14088207F
:1045000009F40DCAC554DE4FA880CB5BD140AA2068
:1045100009F405CAC454DE4FB880CC5BD140BB203F
:1045200009F4FDC9C354DE4F7880CD5BD1407720BC
:1045300009F4F5C932E3381508F4F1C93A1508F45D
:10454000EEC93B1508F4EBC982E892E00E947608B8
:10455000482D50E070E060E0CB5BDD4F488359832D
:104560006A837B83C554D24022E0AE01455F5D4F34
:10457000CB5BDD4F688179818A819B81C554D240B4
:104580000E94BB04CE01855F9D4F0E94760885E4A2
:1045900092E00E9476086A2D70E090E080E022E0D0
:1045A000AE01455F5D4F0E94BB04CE01855F9D4F0C
:1045B0000E94760880E892E00E9476088B2D90E0B9
:1045C000B0E0A0E022E0AE01455F5D4FBC01CD014F
:1045D0000E94BB04CE01855F9D4F0E94760885E452
:1045E00092E00E947608272D30E050E040E0CB5B5F
:1045F000DD4F288339834A835B83C554D24022E050
:10460000AE01455F5D4FCB5BDD4F688179818A816B
:104610009B81C554D2400E94BB04CE01855F9D4F53
:104620000E94760883E492E046CE80959095817052
:1046300099273EC8AA2011F40C948A0F0C943B13BE
:10464000991B79E004C0991F961708F0961B881FE4
:104650007A95C9F780950895052E97FB16F4009476
:104660000FD057FD05D04BD007FC02D046F408C050
:1046700050954095309521953F4F4F4F5F4F08958E
:1046800090958095709561957F4F8F4F9F4F0895BE
:104690002F923F924F925F926F927F928F929F9252
:1046A000AF92BF92CF92DF92EF92FF920F931F9340
:1046B000CF93DF93CDB7DEB7CA1BDB0B0FB6F894F1
:1046C000DEBF0FBECDBF09942A88398848885F8431
:1046D0006E847D848C849B84AA84B984C884DF80A2
:1046E000EE80FD800C811B81AA81B981CE0FD11D86
:1046F0000FB6F894DEBF0FBECDBFED010895A1E265
:104700001A2EAA1BBB1BFD010DC0AA1FBB1FEE1F4B
:10471000FF1FA217B307E407F50720F0A21BB30B96
:10472000E40BF50B661F771F881F991F1A9469F712
:1047300060957095809590959B01AC01BD01CF016E
:064740000895F894FFCF7C
:104746000300000500000300000002000002000054
:104756000002000000000002050000030000030044
:104766000000030000070000000400000000001322
:104776002020456C204675657261646F726F20203B
:104786000055555555555555555501005AC3BC6EDE
:1047960064626F782076312F7632005472616E73C0
:1047A6006D6974746572005AC3BC6E64626F78007A
:1047B600636F6E660072656D6F746500636C65612C
:1047C600726C6973740073656E6400666972650065
:1047D6006964656E740074656D70006F72646572ED
:1047E600730064697361726D00636C73006B696C4E
:1047F6006C0068770068617264776172650069674A
:104806006E697465720072666D000A0D4B6F6D6D90
:10481600616E646F202831362D4269742D486578A3
:104826002D466F726D61742C204D5342207A75208F
:1048360031207365747A656E2066C3BC722053633B
:1048460068726569627A756772696666293A2030A8
:1048560078000A0A0D006165736B6579005265730D
:10486600657474696E6720646576696365210054B2
:10487600783A004552524F522020202020202020F6
:104886002020202000205300204348004964656E04
:104896007469667920202020202020202000784975
:1048A60044454E54002E0054656D706572617475F2
:1048B6007265202020202020007854454D5020008D
:1048C6002D3E550052783A002D2D004964656E74D0
:1048D6006966792020202020202D0054656D7065A2
:0C48E6007261747572652020202D0000A6
:00000001FF
