:1000000078C4000092C4000090C400008EC40000B8
:100010008CC400000C94D30888C4000086C400007F
:1000200084C4000082C4000080C400000C94E40872
:100030007CC400007AC4000078C4000076C40000CC
:1000400074C4000072C4000070C400006EC40000DC
:100050006CC400006AC4000068C4000066C40000EC
:1000600064C4000062C400000A0D001B5B31442020
:100070001B5B3144000D0A000D0A417573776168FE
:100080006C3A202845292D416E7AC3BC6E64657296
:100090002C202846296C616D65722C20285429611A
:1000A0006C6F6E2C2041626272756368206D69749A
:1000B00020616E64657265722054617374653A20C4
:1000C00000452D414E5AC39C4E44455220283230A3
:1000D000206D732900464C414D4552202833353060
:1000E000206D73290054414C4F4E2028322E343558
:1000F000207329000D0A4465727A65697420656968
:100100006E67657374656C6C74657320416E7AC339
:10011000BC6E646D697474656C0D0A3D3D3D3D3D7A
:100120003D3D3D3D3D3D3D3D3D3D3D3D3D3D3D3DFF
:100130003D3D3D3D3D3D3D3D3D3D3D3D3D0D0A0A85
:10014000005665727363686CC3BC7373656C756EBF
:1001500067206E6963687420616B74697669657283
:100160007421000D0A4B65696E6520C3846E646559
:1001700072756E67656E2067657370656963686523
:100180007274210D0A0A000D0A4572666F6C67725F
:100190006569636820676573706569636865727413
:1001A0002C2044657669636520737461727465748C
:1001B000206E6575210D0A0A000D0A446965736594
:1001C0006E205363686CC3BC7373656C2073706579
:1001D00069636865726E20286A2F6E293F200020AF
:1001E000000D0A4162627275636820776567656E0B
:1001F00020756E7A756CC3A4737369676572204548
:10020000696E67616265210D0A4B65696E6520C381
:10021000846E646572756E67656E20676573706560
:10022000696368657274210D0A0A000D0A0A4E6539
:10023000756572205363686CC3BC7373656C3A2038
:10024000000A0D000D0A0A4E6575656E20285329B7
:1002500063686CC3BC7373656C2065696E676562A7
:10026000656E2C2041626272756368206D6974202E
:1002700062656C6965626967657220616E6465724A
:10028000657220546173746521200020000D0A53AB
:1002900063686CC3BC7373656C206C742E20454519
:1002A00050524F4D3A202020200020005665727396
:1002B00063686CC3BC7373656C756E6720616B7427
:1002C000697669657274210D0A5363686CC3BC73E7
:1002D00073656C206C742E2046756E6B6D6F647543
:1002E0006C3A20000A0D416B7475656C6C65204595
:1002F000696E7374656C6C756E673A20003D3D3DA8
:100300003D3D3D3D3D3D3D3D3D3D3D3D3D3D3D3D1D
:100310003D3D3D3D3D3D3D3D3D3D3D3D3D3D0A0D70
:10032000000A0D4B6F6E66696775726174696F6E56
:1003300020646572205665727363686CC3BC737306
:10034000656C756E670A0D000A0D4B65696E652058
:10035000C3846E646572756E6720766F7267656EB2
:100360006F6D6D656E0A0A0D000A0D4E657573742A
:100370006172742E2E2E0A0A0D004665686C657235
:10038000212042697474652065726E6575742076EB
:10039000657273756368656E210A0D000A0A0DC3E4
:1003A000846E646572756E67206572666F6C6772C5
:1003B00065696368210A0D001B5B33376D001B5BA9
:1003C00033316D002C20454E544552203D20616C48
:1003D0007465722057657274293A20003530000A1E
:1003E0000D4E65756520536C6176652D4944202856
:1003F00030312D001B5B33376D001B5B33316D00DB
:100400002C20454E544552203D20616C746572206D
:1004100057657274293A20003530004E65756520A5
:10042000556E697175652D4944202830312D000ABB
:100430000D000A0D00284929447320C3A46E646589
:10044000726E2C2041626272756368206D6974203F
:1004500062656C6965626967657220616E64657268
:1004600065722054617374652120000A0A0A0D0028
:100470001B5B33376D000A0D004645484C45520062
:100480001B5B33316D00416B7475656C6C6520537B
:100490006C6176652D49443A2020001B5B33376D33
:1004A000000A0D004645484C4552001B5B33316D38
:1004B000000A0A0D416B7475656C6C6520556E6998
:1004C0007175652D49443A20000A0D416E676573C8
:1004D00063686C6F7373656E6573204465766963DA
:1004E000653A20001B5B33376D001B5B33376D00B3
:1004F0000A0D4665686C6572206265696D20494425
:100500002D4C6164656E0A0D001B5B33316D000A72
:100510004B6F6E66696775726174696F6E73707226
:100520006F6772616D6D0A0D3D3D3D3D3D3D3D3D49
:100530003D3D3D3D3D3D3D3D3D3D3D3D3D3D0A0D4E
:10054000001B5B33336D0049442D57656368736549
:100550006C206D6974206A2062657374C3A4746929
:1005600067656E2C2061626272656368656E206DDE
:10057000697420616E64657265722054617374657C
:100580002120000A0A0D004E65756520536C6176C6
:10059000652D49443A20202020202020000A0D000B
:1005A0004E65756520556E697175652D49443A2013
:1005B0002020202020000A0D000A0D0042697368E7
:1005C000657269676520536C6176652D49443A20F0
:1005D00020000A0D004269736865726967652055DD
:1005E0006E697175652D49443A20001B5B33376D88
:1005F000000A0A52656D6F74652D4B6F6E666967F0
:1006000075726174696F6E7370726F6772616D6D10
:100610000A0D3D3D3D3D3D3D3D3D3D3D3D3D3D3D6D
:100620003D3D3D3D3D3D3D3D3D3D3D3D3D3D3D0A2D
:100630000D001B5B33336D000A0D000A0D46656823
:100640006C657268616674652F646F7070656C7438
:1006500065204944733A200009000A0D002D2D2D14
:100660002D002D00200020002C20002C20002D2DFE
:100670002D2D006E2E612E002C20002D002C200030
:100680002E002D2D2D2D002C2000300020002D2D92
:100690002D003A200030000A0D556E697175652DE8
:1006A00049443A20536C6176652D49442C204261BF
:1006B0007474657269657370616E6E756E672028FB
:1006C00056292C205363686172663F2C2054656D57
:1006D000706572617475722028C2B043292C204B5A
:1006E000616E616C7A61686C2C20525353492028EA
:1006F00064426D290A0D001B5B33376D003D3D3DA3
:100700003D3D3D3D3D3D3D3D3D3D3D3D0A0D000AEC
:100710000D53797374656DC3BC62657273696368E8
:10072000740A0D001B5B33336D000A0A0D000920AB
:100730000920092009000A0D002D2D2D003A200066
:100740000A0D536C6176652D49443A20416E7A61F9
:10075000686C20426F78656E0A0D000A0A0D00C2AF
:10076000B043006E2E612E0054656D706572617429
:1007700075723A2000556E67C3BC6C74696765205A
:1007800045696E6761626500203D20000A0D4B617E
:100790006E616C3A20200900536C6176652D4944E6
:1007A0003A09000D0A000A0D4D6F64757328662F13
:1007B000692F74293A20000A0A0D000A0D49442DB8
:1007C0004B6F6E66696775726174696F6E7362658F
:1007D0006665686C207769726420676573656E640E
:1007E0006574210A0D000A0D49447320776572640F
:1007F000656E206C6F6B616C20616E6765706173F4
:100800007374210A0D000A0A0D00303031360032AF
:10081000303232303430310044617465636F646566
:1008200020000A0D00202D20383638204D487A004F
:10083000484357000A0D52464D0061746D6567616B
:1008400033323870000A0D000A0D000D0A0A0A0042
:100850000D0A004F6666656E0020202020002000F3
:100860003D3D3D3D3D3D3D3D3D3D3D3D3D3D3D3DB8
:100870003D3D3D3D3D3D3D3D3D3D0A0D4B616E6184
:100880006C2057696465727374616E640D0A000AA6
:100890000A0D47656D657373656E65204B616E610A
:1008A0006C77696465727374C3A46E64650A0D0025
:1008B0000A0D00202D2D3E203A203078001B5B31A0
:1008C000440020001B5B3144001B5D303B454C2045
:1008D0004655455241444F524F07001B5B334A0077
:1008E0001B5B303B3048001B5B324A002D00300060
:1008F000200011241FBECFEFD8E0DEBFCDBF12E035
:10090000A0E0B1E0E8E3F0E402C005900D92A83168
:10091000B107D9F722E0A8E1B2E001C01D92A732E9
:10092000B207E1F7FAD40C9408206ACB9FEB980F3A
:100930009A3130F0843C21F0863D11F08C3D09F471
:1009400080620895FC01DB018C919081811104C0CB
:1009500081E0911105C00895319611968917A1F390
:1009600080E0F9CF40E050E066E970E04150510985
:100970006109710921F09091C00095FFF7CF809334
:10098000C60080E00895CF93DF93EC01FE018491CF
:100990002196882319F0E6DF8823C1F3DF91CF91F8
:1009A00008958F929F92AF92BF92EF92FF920F9312
:1009B0001F93CF93DF93CDB7DEB7A1970FB6F8940F
:1009C000DEBF0FBECDBF1A821982FE0133962FE122
:1009D000DF011D922A95E9F74836D9F510E011C0DC
:1009E000E1E0F0E0EC0FFD1FE10FF11D262F2F706D
:1009F000208344E095958795779567954A95D1F73B
:100A00001F5F611571058105910551F7112341F3B0
:100A100010FD1F5F111111C0A1960FB6F894DEBF33
:100A20000FBECDBFDF91CF911F910F91FF90EF903F
:100A3000BF90AF909F908F900895FE01E10FF11D40
:100A400080818A3020F0895C8DDF1150E3CF805D9A
:100A5000FBCF611571058105910521F48EEE98E0BB
:100A600092DFDACF00E097FF08C0909580957095EF
:100A700061957F4F8F4F9F4F01E010E03AE0832E4A
:100A8000912CA12CB12C611571058105910511F0F6
:100A9000113281F4002319F08CEE98E074DF1123F9
:100AA00009F4BACFFE01E10FF11D8081805D5ADFAC
:100AB0001150F5CFEE24E394F12CEC0EFD1EE10E67
:100AC000F11CA50194010E94961FF7016083B901F2
:100AD000CA011F5FD8CFCF92DF92EF92FF92CF93E0
:100AE000DF93CDB7DEB72A970FB6F894DEBF0FBEFF
:100AF000CDBF69837A838B839C83498789819A815F
:100B0000AB81BC818D839E83AF83B8871A868AE0D0
:100B1000C82ED12CE12CF12C8D819E81AF81B8851E
:100B2000892B8A2B8B2B01F589819A81AB81BC8122
:100B3000B7FF03C0998591509987AA85B985BA17DF
:100B400018F544E669817A818B819C812ADF2A9697
:100B50000FB6F894DEBF0FBECDBFDF91CF91FF90EF
:100B6000EF90DF90CF9008956D817E818F81988581
:100B7000A70196010E94961F2D833E834F835887BD
:100B80009A859F5F9A87C8CF89859A85891B8D83AF
:100B9000BD81BB23B1F280EF98E0F5DEAD81A150BD
:100BA000AD83F6CFCF93DF93EC0190E0888188236B
:100BB00011F0992319F0DF91CF9108952196D2DE9B
:100BC000982FF4CF80E090E0A6E9B0E00197A1096A
:100BD000B10939F02091C00027FFF8CF8091C600FD
:100BE000089580E00895CF93DF93ECDFC82F8A301B
:100BF00029F4DFEF8D2FDF91CF9108958D30C9F368
:100C000080ED8C0F863088F78C2FACDE8AE0C89F91
:100C1000C02D1124C051D6DF8A3059F38D3049F3ED
:100C2000D82FDC0F9FEF9D0F9233A8F79BDEE2CF0A
:100C300087EE98E0A8DE80EE98E0A5DE8BED98E0E8
:100C4000A2DE89EC98E09FCE0F931F93462F572F7B
:100C5000BC012B982D98429884E0072F112722275A
:100C600033270EBD762F652F542F44270DB407FE72
:100C7000FDCF815091F784E086B986B91F910F911D
:100C800008958EBD0DB407FEFDCF8EB50895CF93A8
:100C9000419887E2F6DF80E0F4DFC82F80E0F1DFE3
:100CA000419A9C2FCF910895CF93C82F892F662307
:100CB00061F080682D982B984198E3DF8C2FE1DF5D
:100CC000419A2B982D98CF9108958F77CFEFF2CF3F
:100CD000CF92DF92EF92FF9261E084E091E0E4DF57
:100CE000C12CD12C8BE4E82EF12C81E0C81AD1085C
:100CF000E108F10831F060E08FEF97E2D5DF87FF80
:100D0000F4CF81E0CD28CE28CF2809F080E0FF90F5
:100D1000EF90DF90CF900895BADF80FD19C082FD7B
:100D200015C092FF0BC060E08FEF9DE3BDDF90E048
:100D300061E084609D63B8DF82E0089584FF08C0AD
:100D400061E080E198E2B0DF84E0089581E00895F9
:100D500080E008955D9A5F9A5E9A289A08955D985A
:100D60005F985E98289808955D9A08955F9A08950F
:100D70005E9A0895289A08959B01F999FECF32BD95
:100D800021BD80BDFA9AF99A12BC11BC08959C014C
:100D9000F999FECF32BD21BDF89A80B512BC11BCC5
:100DA00008950F931F93462F572FBC012B982D9812
:100DB000409884E0072F1127222733270EBD762F76
:100DC000652F542F44270DB407FEFDCF815091F7B6
:100DD00081E086B986B91F910F910895862798E022
:100DE0002CE8382F31708695311182279150C9F740
:100DF0000895B0E0A0E0EFEFF6E00C94CB1F082FD1
:100E0000162FB82EB60E682F80E1E8DFE82E612F8E
:100E100080E1E4DFC82E612F8E2DE0DFD82E88E13F
:100E2000F82ECF2DD0E0BE01802FA6DFBE016F5F70
:100E30007F4F812FA1DFBE016E5F7F4F8B2D9CDF27
:100E4000BE016D5F7F4F8E2D97DFBE016C5F7F4FC0
:100E50008C2D92DFBE016B5F7F4F8D2D8DDF84E285
:100E6000F80E84E8F812DDCFCDB7DEB7E9E00C94D8
:100E7000E71FB0E0A0E0EFE3F7E00C94C91FD82F24
:100E8000C62F88E1F82E9D2E960E0F2D10E0C8017A
:100E90007EDFA82EC80101967ADFB82EC80102961F
:100EA00076DFC82EC801039672DFE82EC8010496CB
:100EB0006EDFD82EC80105966ADF182FAD1213C059
:100EC000BC1211C0C9100FC06D2F80E187DFE8127E
:100ED0000AC06C2F80E182DFD81205C06C2F8E2DE6
:100EE0007DDF181759F084E2F80E84E8F812CDCFB0
:100EF00080E0CDB7DEB7EBE00C94E51F81E0F9CFE1
:100F0000B0E0A0E0E6E8F7E00C94C91F7C016B01BB
:100F100000E084E2982E099D50011124C5014896F5
:100F200036DFC82FC501499632DFD82F682F8C2FA6
:100F3000A0DF182F882391F188E190E028DF182F97
:100F40008CE390E024DF1817F1F088E190E01FDFD8
:100F5000182F80E690E01BDF181315C089E190E0A0
:100F600016DF182F8DE390E012DF18130CC089E113
:100F700090E00DDF182F81E690E009DF181303C021
:100F80006D2F8C2F36DFF701C083F601D08311E07F
:100F9000812FCDB7DEB7EBE00C94E51F023061F492
:100FA0006D2F8C2F66DF811107C085E4F7018083E8
:100FB00085E6F6018083ECCF0F5F033009F0ABCFFD
:100FC000E7CF20917C00287F20937C0090917C00CB
:100FD000982B90937C0029E090E080E030917A009B
:100FE000306430937A0030917A0036FDFCCF409126
:100FF000780050917900840F951F293011F490E00A
:1010000080E0215059F723E0969587952A95E1F7DE
:101010000895CF92DF92EF92FF9261E08BE193E12E
:1010200043DE61E085E59AE53FDE61E080E79CE52F
:101030003BDE60E08FEF9DE337DE90E061E08460AF
:101040009D6332DE61E080E191E02EDEC12CD12C87
:101050008BE4E82EF12C81E0C81AD108E108F108F0
:1010600031F060E08FEF97E21FDE87FFF4CF81E081
:10107000CD28CE28CF2809F080E0FF90EF90DF90B8
:10108000CF900895219A9AE09A95F1F781112198CD
:1010900094E29A95F1F70000199B80E097E99A9500
:1010A000F1F7219896E09A95F1F700C00895CF9353
:1010B000DF93C82FD8E08C2F8170E4DFC6958111B3
:1010C000C068D150C1F78C2FDF91CF910895299836
:1010D000219A8CEC94E00197F1F700C00000219870
:1010E00098ED9A95F1F7000083B1EAE2F4E03197C8
:1010F000F1F700C0869581700895CF92DF92EF924C
:10110000FF92CF93DF93882309F44BC0E0DF8CEC90
:10111000CEDF8EE4CCDF8DE7CADF88EDC8DF8FE15C
:10112000C6DFD5DF8CECC3DF84E4C1DFC12C5CE219
:10113000D52EEE24E394F12C81E0C81AD108E10801
:10114000F10821F081E09EDF8823B1F3C0DF8CEC51
:10115000AEDF8EEBACDF8FEFAADFC82FD0E08FEFD2
:10116000A6DF90E0982F88278C0F9D1F9C012227D7
:10117000387F232BA1F09195819591092FEF089647
:1011800034E0969587953A95E1F7829F802D11245A
:10119000DF91CF91FF90EF90DF90CF90089521E005
:1011A000EECF80E8F5CF1F921FB61F9211248F93C8
:1011B00080912602811103C081E0809326028F91E5
:1011C0001F901FBE1F9018951F921FB61F921124CB
:1011D0002F933F938F939F93AF93BF93809125025B
:1011E0008F5F809325028D3708F43FC080912402E1
:1011F0008160809324021092250280912302811144
:1012000034C0209121023091220223303105D0F0E8
:1012100020912102309122022531310508F454C079
:1012200084E08093230280912102909122028F3FDB
:10123000910511F008F064C0809121029091220282
:10124000809320028091210290912202892B09F043
:1012500059C080911F028F5F80931F02893008F070
:1012600054C010922202109221028091240281FF28
:1012700009C080911D0290911E02019690931E025A
:1012800080931D028091190290911A02A0911B0275
:10129000B0911C02892B8A2B8B2B19F081E0809353
:1012A000180280912602882329F08091240284600C
:1012B00080932402BF91AF919F918F913F912F9185
:1012C0001F901FBE1F90189520912102309122027D
:1012D0002630310510F082E0A4CF20912102309118
:1012E00022022630310508F09ECF20912102309154
:1012F0002202909120029217130608F092CFEBCFB2
:101300008FEF9ECF10921F02ACCF8FEF80932302FE
:1013100010921F0210922002A4CFCDB7DEB7C252A6
:10132000D3400FB6F894DEBF0FBECDBF0FB6F89412
:10133000A8958091600088618093600010926000A1
:101340000FBE43983B9A5E012AE9A21A2EEFB20A19
:1013500080E8D5011D928A95E9F710E0FE01E75E6D
:10136000FD4F1192119288E2DF011D928A95E9F7F3
:10137000FE01E459FD4F1192119287E2DF01482EE0
:101380001D924A94E9F7FE01EB56FD4F119211921E
:10139000DF011D928A95E9F7FE01EA51FE4F119295
:1013A000119281E3DF011D928A95E9F7FE01E25473
:1013B000FD4F119211928EE1DF01482E1D924A9449
:1013C000E9F7FE01E252FD4F11921192DF011D92E9
:1013D0008A95E9F78091000190910101A0910201A5
:1013E000C250DD4F88839983AA83CE5FD2402A9A68
:1013F000229A5C9A239A549A259A3A9A389A2B9868
:10140000429840982D9893E020E234E041E084E255
:1014100023B923B98150E1F736B936B946B946B98F
:101420009150A9F7E9E9F9E03197F1F700C05C982C
:101430000CB406FC03C08CB581658CBD8091640042
:10144000806C8093640080B7806880BF8FEF9FE2DC
:1014500090938900809388008091810088608093B8
:10146000810080916F00826080936F008091810085
:101470008260809381002898209A5E98569A5F989F
:10148000579A5D98559A80B7806880BF80917C009C
:10149000856C80937C0080917A00866080937A00CE
:1014A00080917A00806880937A0080917A008064CD
:1014B00080937A0080917A00082F007486FDFACF1D
:1014C000809178009091790082E3CD5BDD4F888335
:1014D000C354D2408983BE016D5B7D4FCE0101961E
:1014E0000FDD811101C036DCCD5BDD4FF880C354C8
:1014F000D240D980DD2009F4C3C3FF2009F4C4C35E
:101500008DE691E044DCC65FDC4F8883CA50D3404F
:10151000853F71F0833261F0823051F06DE671E009
:1015200082E02ADCF2E0C65FDC4FF883CA50D34089
:1015300020E031E0822F90E0E9E1F2E0EC0FFD1FC6
:10154000E80FF91F3083E5E9F2E0EC0FFD1FE80F2B
:10155000F91F10824CE6442E42E0542E4C0E5D1EC4
:10156000840D951DDC011C922F5F283219F797E03E
:1015700080E8E1E0F0E0EC0FFD1F909FE00DF11D31
:1015800011241082118212828383858316820F5F59
:10159000023379F700E280E090E0A0E0B0E8202F8D
:1015A0002150330BF901EE0FFF1FEE0FFF1FEA0D65
:1015B000FB1D80839183A283B383B695A7959795EE
:1015C0008795015061F75A9A52988091680084601B
:1015D0008093680080916D00846080936D004398D3
:1015E0003B9ABDDB8FB7F8941092C5009FE39093B0
:1015F000C40098E19093C10096E09093C200589A7D
:101600008FBF85E0E82ECC24C39461DD93B196951D
:1016100091709C25980F090FEA94E110F6CF0023F2
:1016200009F442C32198299AC85EDC4F1882C85138
:10163000D340C85EDC4F8881C851D3405EDD382E70
:10164000419A2C9A2498239A259A399A0CB406FC2C
:1016500003C08CB581658CBD60E08FEF90E124DB29
:10166000C25EDC4F8883CE51D340B3E0EB2E86E6DA
:1016700096E20197F1F7000061E082E092E014DB6E
:10168000A0E84A2E512C612C712C78E1872E912CE8
:10169000A12CB12CA5019401C301B2010E94591FD4
:1016A0009B01AC0162E0220F331F441F551F6A9556
:1016B000D1F760E078E488EE91E00E94741F203258
:1016C00038434105510558F4D501C401840D951DD9
:1016D000A61DB71D4297A105B10508F0ECC276948E
:1016E00067945794479400E04114510461047104D5
:1016F00009F0FEC2F0E18F1A9108A108B10882E05A
:10170000B694A794979487948A95D1F7880C880CFF
:10171000880C082990E8492E512C612C712CF8E195
:101720008F2E912CA12CB12CA5019401C301B201E3
:101730000E94591F9B01AC01E2E0220F331F441F9E
:10174000551FEA95D1F760E078E488EE91E00E94B9
:10175000741F293139444105510558F4D501C4019C
:10176000840D951DA61DB71D4297A105B10508F072
:10177000C5C2769467945794479480E0411451040D
:101780006104710409F0D7C270E1871A9108A108B9
:10179000B10852E0B694A794979487945A95D1F7DC
:1017A000880C880C880C882A61E080E095E07CDA5F
:1017B00061E08DE996E078DA61E08DE093E074DA3B
:1017C00061E08DE094E070DA802F90E061E0806469
:1017D00099616ADA882D90E061E080649A6164DA48
:1017E00061E080E495E260DA61E087EA96E25CDA43
:1017F00061E08CE697E058DA61E080EA98E054DA3C
:1018000061E080E099E050DA61E080E997E34CDA4A
:1018100061E088E298E348DA61E080E89CE344DA3A
:1018200061E080E39DE340DA61E080E09CE23CDA45
:1018300061E084E09DE238DA61E088E89EE234DA33
:1018400061E08DE29FE230DA61E084ED90E32CDA32
:1018500061E080E098E128DA61E08DE298E524DA41
:1018600061E080E39FE620DA61E08FEC99E21CDA28
:1018700061E08DE29EE118DA61E080E09AE214DA3C
:101880009FE09150292F30E051F0F901EE0FFF1F3A
:10189000ED5FFE4F408151814832510590F361E088
:1018A000C901926101DA60E08FEF9DE2FDD9082F56
:1018B00060E08FEF9EE2F8D9282F30E083E0359585
:1018C00027958A95E1F7822F87700B5E800F8695AA
:1018D00090E061E09B62E8D961E08BE193E1E4D9BB
:1018E00061E085E791E1E0D9EA94E110C0CE61E0E2
:1018F00080E89AE0D9D9812C912CBBE4AB2EB12C95
:1019000081E0881A9108A108B10809F01AC281DBA8
:1019100060E080E097E0C8D9C250DD4F8883CE5F99
:10192000D24060E080E098E0BFD9C150DD4F8883AD
:10193000CF5FD24060E080E099E0B6D9C050DD4F83
:101940008883C050D34060E08FEF9DE3ADD990E035
:1019500061E081609D63A8D900E0A02EB12CC50193
:10196000809615DA9EE3A90EB11C61E09A2D9CD9F0
:101970000F5F003191F7F3D9AFEFBFE7E4E0A1507B
:10198000B040E040E1F700C000006FEF7FEFCB0117
:1019900008DAF0D9FFEF2FE734E0F1502040304073
:1019A000E1F700C00000E2D94FEF5FE764E041508B
:1019B00050406040E1F700C00000D6D97FEF8FE7CC
:1019C00094E0715080409040E1F700C00000D0D911
:1019D000AFEFBFE7E4E0A150B040E040E1F700C066
:1019E0000000BDD9FFEF2FE737E0F1502040304035
:1019F000E1F700C000000F2D02950F70F4FCBAD97A
:101A000001FDB4D902FDB0D9087009F0B1D94FEF8A
:101A10005FEF6BE3415050406040E1F700C00000D1
:101A20009ED97FEF8FE797E0715080409040E1F7BB
:101A300000C000009DD9AFEFBFE7E4E0A150B04087
:101A4000E040E1F700C000008FD9FFEF2FE734E05E
:101A5000F15020403040E1F700C0000087D94FEF3F
:101A60005FE764E0415050406040E1F700C0000093
:101A700081D97FEF8FE794E0715080409040E1F78B
:101A800000C000006CD9AFEFBFE7E7E0A150B04065
:101A9000E040E1F700C00000F0FC6CD9F1FC66D931
:101AA000F2FC62D9F3FC64D9FFEF2FEF3BE3F15076
:101AB00020403040E1F700C0000060E070E0CB0162
:101AC00070D94DD94FEF5FEF65E041505040604015
:101AD000E1F700C000C0222423944A9B3AC1212C84
:101AE0005E9880E7CB56DD4F8883C559D240CA56F1
:101AF000DD4FD882C659D240C956DD4FF882C7594A
:101B0000D24085E05EDA4BE0489F9001499F300D5E
:101B10001124205E3F4FF6E036952795FA95E1F7C0
:101B2000C856DD4F2883C859D240C756DD4F28829A
:101B3000C959D240C656DD4F3882CA59D24080E2D8
:101B4000C556DD4F8883CB59D24080E8C456DD4F5F
:101B50008883CC59D24060E080E099E2A5D8869590
:101B6000C356DD4F8883CD59D240106402E181E035
:101B70008093260278948D2D90E09C012F5F3F4F3B
:101B80004AE0429F2001439F500C1124C45EDC4F69
:101B900059824882CC51D34092012A503109C65E05
:101BA000DC4F39832883CA51D340CA5EDC4F188288
:101BB000C651D340C95EDC4F1882C751D340C75EBF
:101BC000DC4F1882C951D340CF5EDC4F1882198296
:101BD0001A821B82C151D340C35FDC4F1882198225
:101BE0001A821B82CD50D34030E7CA5FDC4F388366
:101BF000C650D340EE24E39441E0CB5EDC4F4883F3
:101C0000C551D34026EE31E02C0F3D1F2F0D311D65
:101C1000B90161507109C15EDC4F79836883CF518E
:101C2000D340019777E0789F9001799F300D112480
:101C300044244394512C4C0E5D1E420E531EC55F2E
:101C4000DC4F59824882CB50D34092012F5F3F4FE7
:101C5000CF5DDC4F39832883C152D3408091260267
:101C6000882309F487C0CFB6F8948091260281308A
:101C700009F471C0823009F4E3C01092260279C0E1
:101C800062E3D62EF11002C052E3F52E6F2D8D2D9A
:101C9000B0D888E19EE00FB6F894A89580936000D4
:101CA0000FBE90936000FFCF3FE6C85EDC4F3883E5
:101CB000C851D340BECC94E0891A9108A108B1085C
:101CC000A0E18A169104A104B10408F0E3CCF0E18C
:101CD0008F2E912CA12CB12CB1E04B165104610434
:101CE000710409F4D7CC7694679457944794CDCC7B
:101CF00076946794579447940F5FF6CC24E0821A49
:101D00009108A108B10830E183169104A104B1043F
:101D100008F00ACDB0E18B2E912CA12CB12C41E022
:101D2000441651046104710409F4FECC769467945E
:101D300057944794F4CC76946794579447948F5F64
:101D40001DCD60E080E09AE00E94540686FFD8CD69
:101D5000DECD0ED8C6CE82E080932602CA5EDC4F6E
:101D60001882C651D34031E0CB5EDC4F3883C55179
:101D7000D340CFBEC25EDC4F2881CE51D340243247
:101D800021F00E94B6060E94B4068091C00087FB35
:101D900010F9312F3170932E10FF7AC35FB6F8948B
:101DA0001E7F0E94BA060E94E205C75EDD4F88834F
:101DB000C951D2408F3709F43DC087FD96C028EF46
:101DC000280F263038F491E001C0990F2A95EAF7E0
:101DD000957281F50E949604C75EDD4F8883C951D4
:101DE000D2400E94B204B12C0E94E2050E949604E7
:101DF000C82E4DE0841709F44DC25AE0851709F446
:101E000049C268E0861719F07FE7871344C2B11012
:101E10003BC2C65EDD4F1882CA51D24084EC98E0C6
:101E20000E94C30482EC98E00E94C3048DEB98E00A
:101E30000E94C304C75EDD4F1882C951D24072C0F0
:101E40008091240282FF95CF809124028B7F809322
:101E50002402CB5EDC4F4880C551D340442031F191
:101E600099B1292F247092FB882780F9C75EDC4F37
:101E70005880C951D34058120C944D1FCA5EDC4F94
:101E80003881C651D3403F5FCA5EDC4F3883C651AC
:101E9000D3403F3110F40C94521F2224239421117B
:101EA000212CCB5EDC4F8883C551D3401092260293
:101EB000211003C043985E9807C00E94B80660E0F6
:101EC00070E0CB010E94D1060260CB5EDC4F4880FF
:101ED000C551D340C75EDC4F4882C951D340CB5E69
:101EE000DC4F1882C551D34044CF8F3F09F072CFE9
:101EF0000E94E205C65EDD4F8883CA51D2400E942F
:101F0000E205C55EDD4F8883CB51D2400E94E205D9
:101F1000C45EDD4F8883CC51D240C35EDD4F188252
:101F2000CD51D24063E571E0CE01875E9D4F0E94A6
:101F3000A204882311F01D7B126068E571E0CE01D8
:101F4000875E9D4F0E94A204882311F000641F7BCE
:101F50006FE571E0CE01875E9D4F0E94A204811162
:101F6000006169E671E0CE01875E9D4F0E94A20488
:101F700081111BC06EE671E0CE01875E9D4F0E940D
:101F8000A204811112C063E771E0CE01875E9D4F0C
:101F90000E94A204811109C069E771E0CE01875E49
:101FA0009D4F0E94A204882311F01F79106264E6FD
:101FB00071E0CE01875E9D4F0E94A204882311F03C
:101FC00001601F7B6EE771E0CE01875E9D4F0E942E
:101FD000A2048111066062E871E0CE01875E9D4F28
:101FE0000E94A20481110E94180666E871E0CE01E9
:101FF000875E9D4F0E94A204811108606BE871E02A
:10200000CE01875E9D4F0E94A204811108C06EE838
:1020100071E0CE01875E9D4F0E94A2048111006293
:1020200067E971E0CE01875E9D4F0E94A20488237C
:1020300061F184EF90E00E94C304C65FDC4F988199
:10204000CA50D340953F09F03DC185EE90E00E9413
:10205000C30488E790E00E94C3040E94E205C82EF2
:102060008823D9F30E94B20485E790E00E94C3045C
:102070008C2D8062863609F432C1843709F444C15C
:10208000E2E0CE2E853609F42CC16FE971E0CE0175
:10209000875E9D4F0E94A204882309F457C083EAFB
:1020A00091E00E94D205812C54E0752E90E080E0F2
:1020B0005C0144E0AA0CBB1C4A95E1F70E94E205D2
:1020C000C82E0E94B2048C2D806290ED980F9A3039
:1020D00038F09FE9980F963008F019C199EA980FE7
:1020E00081E09F3F09F080E0880E9501292BC9010E
:1020F0007A947110DDCF811025C08F3F980711F1C0
:10210000692F661F6627661F0E945406C82E83EB40
:1021100098E00E94C3044C2D50E070E060E0CE5F78
:10212000DC4F488359836A837B83C250D34048E69F
:10213000CE5FDC4F688179818A819B81C250D34018
:102140000E94D1048BEE91E00E94D2056FEE71E007
:10215000CE01875E9D4F0E94A204882309F435C1F9
:10216000FE01ED5BFD4F119211928EE0DF011D9299
:102170008A95E9F781E293E00E94C3048DEF92E033
:102180000E94C30484EE92E00E94C30460E08FEFDB
:102190009DE30E945406B82FB1708B2E80FF58C16A
:1021A0008CEA92E00E94C304AA24AA943EE3B32ED0
:1021B00060E0C5010E945406282F30E050E040E066
:1021C000CE5FDC4F288339834A835B83C250D34080
:1021D00048E6CE5FDC4F688179818A819B81C2505D
:1021E000D3400E94D1048AEA92E00E94C304B394CF
:1021F000A1144EE4B406E0F28DE892E00E94C3041C
:10220000C12C8C2D90E080960E94C706282F30E0CC
:1022100050E040E0CE5FDC4F288339834A835B8304
:10222000C250D34048E6CE5FDC4F688179818A8115
:102230009B81C250D3400E94D1048BE892E00E945F
:10224000C304C39430E1C312DCCF84E492E00E9463
:10225000C3040E94E2058823E1F3C82E6894C5F800
:102260008C2D0E94B20481E492E00E94C30443E7F3
:10227000C412ABC08BE292E00E94C304A12CB12C2B
:10228000612C92E0792E46C0BA948BE690E00E94D1
:10229000C304AACDC12CEAE1F2E0EC0FFD1FEB0D67
:1022A000F11DC0828C2D0E94B204CC2011F40C943C
:1022B000471FB39487E2B81297CD88E690E00E945A
:1022C000C30430CEC65FDC4FA881CA50D34085ED31
:1022D00090E0A33209F4BBCE81EC90E0B8CE73E27B
:1022E000C72EC65FDC4F4880CA50D3404C1409F457
:1022F000CCCE6DE671E08C2D0E94BC06C65FDC4F33
:10230000C882CA50D340C1CE65EFC62EEACF9FEF38
:10231000E7CE782C629420EF62220E94E205C82E5C
:102320000E94B2048C2D806290ED980F9A3030F0AC
:102330009FE9980F963090F499EA980F81E09F3FBB
:1023400009F080E0B80E692A51E07512E2CFBB2097
:1023500039F081EE91E00E94C30437C09FEFEECFC9
:102360008FED91E00E94C304E3E4F2E0EC0FFD1F67
:10237000EA0DF11D6082A39460E1A61280CF89EB83
:1023800091E00E94C3040E94E20580628A3629F02F
:102390008E36C9F783E691E0DECF8B2D90E0BC014D
:1023A000605E7F4FA3E4B2E0AC0FBD1F8A0F9B1F9E
:1023B000FC0180810E94BC06B394F0E1BF12EDCF16
:1023C00087E891E00E94C3040860C75EDD4F888102
:1023D000C951D2408F3F09F04DC0C65EDD4FC88065
:1023E000CA51D2408C0D823308F044C0C55EDD4F27
:1023F000B880CB51D2408FEF8B0D8032D8F5C45EC0
:10240000DD4FA880CC51D2406C2D80E00E94EE06BA
:102410006B2D0E94EE06A8122DC086E6CB56DD4F2E
:102420008883C559D240CA56DD4FC882C659D240AA
:10243000C956DD4FB882C759D2401064FC1459F018
:10244000E92CE6E6CA5FDC4FE883C650D34012C0F1
:1024500081E491E080CF12FD54C3C259DD4FB882B0
:10246000CE56D2401460E92C26E6CA5FDC4F2883A2
:10247000C650D3402898C75EDD4F8881C951D240ED
:1024800081508E3F20F480EB98E00E94C3045FBE31
:10249000CFB6F8940E948C0691E017FD03C08130FE
:1024A00009F090E090FB17F9823049F48091210205
:1024B0009091220201969093220280932102CFBE36
:1024C000211004C08091240280FD02C001FF92C04F
:1024D00017FD90C0912F907416FF08C0CA5FDC4FA3
:1024E0004881C650D3404A3709F084C04FB6F894AB
:1024F0000D7F809124028E7F80932402C12C99232A
:1025000051F081E0CA5FDC4F5881C650D3405A3742
:1025100009F080E0C82E4398712CCE5FDC4F188202
:1025200019821A821B82C250D340812C912C5401F3
:10253000839491E017FD06C00E948C0691E08130E3
:1025400009F090E090FB17F9C110E3C2812F012E32
:10255000000C990B692E661C6624661C97FD3FC013
:10256000C501B4010E94240683E393E10197F1F7CA
:1025700084E00E94E107A9E1A89F9001A99F300D86
:1025800011243395532E5694EEEBF2E0EC0FFD1F21
:10259000E70DF11D852D511001C081E0808360E0C1
:1025A00070E0CB010E942406B1E3B515A0F0CE5F28
:1025B000DC4F288139814A815B81C250D340282970
:1025C00039294A295B29CE5FDC4F288339834A8326
:1025D0005B83C250D340880C991CAA1CBB1C73940B
:1025E00030E2731609F497C2662009F4A2CF16FDF3
:1025F000A4C24FBE802F8670843009F05CC017FDE6
:102600005AC09FB6F8940B7F8FE898E00E94C304ED
:1026100080E698E00E94C304C12CB8E0BC1520F00D
:102620008EE598E00E94C304AC2CB12CC501019644
:102630002C01990F66087708CE5FDC4F48825982DB
:102640006A827B82C250D34044E6C301B2010E9439
:10265000D10489E598E00E94C304EEEBF2E0EC0FB0
:10266000FD1FEA0DFB1D8081823308F089C2282FEF
:1026700030E050E040E0CE5FDC4F288339834A836E
:102680005B83C250D34044E6CE5FDC4F68817981E2
:102690008A819B81C250D3400E94D10480E598E09A
:1026A0000E94C304C39430E2C312B7CF8BE498E016
:1026B0000E94C3049FBE05FF46C0CFB6F8940F7DAD
:1026C00088E498E00E94C30486EF91E00E94D2055E
:1026D00044E660E270E080E090E00E94D10485E092
:1026E00092E00E94D20585E498E00E94C3048AE348
:1026F00098E00E94C30484E398E00E94C30444E687
:1027000065E470E080E090E00E94D10480E398E00E
:102710000E94C30485E298E00E94C30482E298E02C
:102720000E94C30488E198E00E94C3048FE098E00F
:102730000E94C3048AE098E00E94C30486E098E007
:102740000E94C304CFBE11FF2EC1AFB6F8941D7F07
:102750000E94180681E495E00E94C3048FE095E092
:102760000E94C304BE016F5F7C4FCE018D5B9D4F05
:102770000E94800781110CC089E095E00E94C3048B
:1027800080EF94E00E94C3048AEE94E00E94C304A8
:1027900084EE94E00E94C30489EC94E00E94C30498
:1027A0008EE092E00E94D20581EB94E00E94C30487
:1027B0008BEA94E00E94C304CD5BDD4F8881C35453
:1027C000D240853409F4E1C18A3018F480E30E94D4
:1027D000B204CD5BDD4F8881C354D240482F50E016
:1027E00070E060E0CE5FDC4F488359836A837B836F
:1027F000C250D34044E6CE5FDC4F688179818A8144
:102800009B81C250D3400E94D10481EA94E00E948F
:10281000C3048BE994E00E94C30486E894E00E941C
:10282000C30480E894E00E94C304CF5FDC4F88813A
:10283000C150D340853609F4ADC18A3018F480E325
:102840000E94B204CF5FDC4F8881C150D340482E34
:10285000512C712C612CCE5FDC4F488259826A82E8
:102860007B82C250D34044E6C301B2010E94D1042E
:1028700086E794E00E94C30480E794E00E94C304CA
:102880008BE694E00E94C30485E394E00E94C304B5
:102890000E94E2058823E1F3C82E6894C5F88C2DC8
:1028A0000E94B20482E394E00E94C3048FE294E0A9
:1028B0000E94C304A9E65A2EC51080C18BE194E0A2
:1028C0000E94C30488E194E00E94C30480E094E085
:1028D0000E94C3048AEF93E00E94C304CD5BDD4FE6
:1028E000B880C354D2400E94F3058F3F09F457C10A
:1028F000CD5BDD4F8883C354D24084EF93E00E94C8
:10290000C3048FED93E00E94C3048CED93E00E941A
:10291000C30484EC93E00E94C3048EEB93E00E9416
:10292000C304CF5FDC4FC880C150D3400E94F30581
:102930008F3F09F43AC1CF5FDC4F8883C150D34049
:1029400088EB93E00E94C304CD5BDD4F8881C354C4
:10295000D240B81208C0CF5FDC4F9881C150D3403D
:10296000C91609F42BC1CF5FDC4F6881C150D34039
:102970000E94F906CF5FDC4F6881C150D340CD5B28
:10298000DD4F8881C354D2400E943907882309F45F
:1029900012C18CE993E00E94C30489E693E00E948F
:1029A000C3040860AFBE06FF8CC07FB6F8940F7BEF
:1029B00082E396E00E94C30481EF95E00E94C30485
:1029C0008BEE95E00E94C30485ED95E00E94C30460
:1029D0000E94F305882E82ED95E00E94C3046624D0
:1029E0006A94861409F46CC08CEB95E00E94C304D1
:1029F0000E94F305982E89EB95E00E94C30486EBB4
:102A000095E00E94C304961409F45AC080EA95E048
:102A10000E94C3040E94F305B82E8DE995E00E9440
:102A2000C304B61409F44CC087E895E00E94C304BF
:102A30000E94F305A82E83E895E00E94C304A61423
:102A400009F43EC08B1002C09A14D1F187E495E0DE
:102A50000E94C3040E94E205C82E8823D9F30E9475
:102A6000B2048C2D80628A3659F583E6CB56DD4F51
:102A70008883C559D240CA56DD4F8882C659D24094
:102A8000C956DD4F9882C759D240C856DD4FB8822B
:102A9000C859D240C756DD4FA882C959D240D81074
:102AA00092C0F91090C086EE97E00E94C3046A2D90
:102AB0008B2D0E94F906086087EB97E00E94C30403
:102AC0007FBE15FF2CC19FB6F8941F7DC75EDD4FFA
:102AD000C880C951D240F9E67F2EC7107AC0CB56C4
:102AE000DD4FC882C559D24084E6CA56DD4F88837F
:102AF000C659D24080E3C956DD4F8883C759D240BA
:102B0000EFC2E92C36E6CA5FDC4F3883C650D340AB
:102B1000B1CC612C25CD61106ACD60E070E0CB01B5
:102B2000211008C0CE5FDC4F688179818A819B814A
:102B3000C250D3400E94D1065ACDCA5FDC4F4881B3
:102B4000C650D3404A3709F054CDFE01EB56FD4F35
:102B50004083D18280E2828320E0CF01422F50E087
:102B6000FC01E40FF51F6EEB72E06C0F7D1F460F4A
:102B7000571FDA013C9133832F5F203279F739CD2B
:102B800083E598E00E94C30489CD84EA94E00E9422
:102B9000C3043BCE89E794E00E94C30469CECD5BB9
:102BA000DD4FB882C354D240A8CECF5FDC4FC8827D
:102BB000C150D340C5CE8AE793E0EDCE88E493E0E0
:102BC0000E94C304EFCE8BEB97E00E94C304106415
:102BD00073CFE4E7AE2ECA1045C0CB56DD4FC88296
:102BE000C559D240C85EDC4F8881C851D3400E948D
:102BF0007D08382E88E697E00E94C30460E8662EC0
:102C000083E697E0361499F044E0632D032C000C22
:102C1000770B880B990BCE5FDC4F688379838A83AF
:102C20009B83C250D3400E946B058FE597E00E94C2
:102C3000C30484E7CB56DD4F8883C559D24085E66F
:102C4000CA56DD4F8883C659D2408DE6C956DD4F3E
:102C50008883C759D24080E7C856DD4F8883C8595A
:102C6000D2403EC226E6C2120CC0CB56DD4FC8820F
:102C7000C559D240BB24B39488E997E02AE0A22E3C
:102C8000DFC186EA97E00E94C3040E94E205C82ED5
:102C90006894C5F88C2D0E94B20483EA97E00E94E4
:102CA000C304CB56DD4FC882C559D24036E6C316A1
:102CB00009F349E6C41609F417CF54E7C51609F419
:102CC00091CFC12C8BE597E00E94C304CC2009F47E
:102CD00014C2CB56DD4F4880C559D240CA5FDC4F85
:102CE0004882C650D3401064242D263691F4CA562B
:102CF000DD4F8881C659D2408F110BC0C956DD4FB8
:102D00008881C759D240C259DD4F8883CE56D24000
:102D100014608091C00087FDF3C19FBEEC2C302F62
:102D20003170932E00FF76C16FB6F8940E7F0E942B
:102D3000180684E297E00E94C3048FE097E00E94A7
:102D4000C3048DEF96E00E94C30487EF96E00E94D3
:102D5000C30487E996E00E94C304C12C4AE0442ED4
:102D600053E0552E48E04C1520F085E996E00E948E
:102D7000C3048C2D90E001969C01990F440B550BD8
:102D8000CE5FDC4F288339834A835B83C250D340B4
:102D900044E6CE5FDC4F688179818A819B81C25095
:102DA000D3400E94D10482E996E00E94C304AA2481
:102DB000A394B12CAC0EBD1E37E0C39EA00CB11C79
:102DC0001124D5018C9081109EC18EE896E00E945E
:102DD000C30487E896E00E94C304F50181818A302C
:102DE00008F0AEC182E896E00E94C3048DE796E049
:102DF0000E94C304882009F4D9C1D50112968C9190
:102E00000E94B20488E796E00E94C304F501838122
:102E1000803809F4D0C1282F880F330B440B550B91
:102E2000CE5FDC4F288339834A835B83C250D34013
:102E300044E0CE5FDC4F688179818A819B81C250FA
:102E4000D3400E946B058BE696E00E94C304D50137
:102E500014968C91282F30E050E040E0CE5FDC4F9C
:102E6000288339834A835B83C250D34044E6CE5FD4
:102E7000DC4F688179818A819B81C250D3400E9456
:102E8000D10488E696E00E94C304D5011596BC9053
:102E9000BB2009F499C1B3E6BB1520F086E696E0A5
:102EA0000E94C304E9E0EB1520F084E696E00E945E
:102EB000C30482E696E00E94C3042B2D30E050E06C
:102EC00040E0CE5FDC4F288339834A835B83C25066
:102ED000D34044E6CE5FDC4F688179818A819B8153
:102EE000C250D3400E94D1048C2D652DF1D7923071
:102EF00009F06FC18AE596E00E94C304C39432E3EF
:102F0000C31230CF8BE396E00E94C304C95EDC4F4E
:102F10004880C751D340842D90E0B0E0A0E044E663
:102F2000CE5FDC4F88839983AA83BB83C250D34092
:102F3000BC01CD010E94D10488E396E00E94C30445
:102F400090E080E0E1E0F0E0EC0FFD1F27E0522E82
:102F5000859DE00DF11D11242081291101C09F5F85
:102F60008F5F823379F7E5EEF1E0EC0FFD1FE90D9D
:102F7000F11D9083939493E3792E9710E1CF80E431
:102F800097E00E94C304C12C88E0A82EAC1418F06E
:102F900080E30E94B204AC2CB12CC50101969C01C7
:102FA000990F440B550BCE5FDC4F288339834A833E
:102FB0005B83C250D34044E6CE5FDC4F68817981A9
:102FC0008A819B81C250D3400E94D1048DE397E057
:102FD0000E94C304E6EEF1E0EC0FFD1FEA0DFB1DBD
:102FE00080818111F9C089E397E00E94C3048C2D90
:102FF00063E06ED7923009F007C186E397E00E9444
:10300000C304C39452E3C512BFCF8AE297E00E9483
:10301000C3046FBE602F6870962E03FFF8C0F8944B
:103020005C9A88E19EE00FB6F894A89580936000C2
:103030000FBE909360000E941806FFCF72E0B72E7B
:103040000E94C3040E94E205882E8823D9F30E94BF
:10305000B20460ED860E0E94E205C82E8823D9F3E3
:103060000E94B2048A9CC00C112470EDC70E88E83F
:1030700097E00E94C304CC20D9F18C2D90E0B0E001
:10308000A0E0CE5FDC4F88839983AA83BB83C250C4
:10309000D34092E0B91227C081E290E0A0E0B0E016
:1030A000CE5FDC4F488059806A807B80C250D3401D
:1030B000481659066A067B06D8F444E6C301B201F5
:1030C0000E94D104E5E9F2E0EC0FFD1FEB0DF11DCC
:1030D000C0828CE897E055245394B51409F4AECF20
:1030E000CC24C394EFCD83E390E0A0E0B0E0D8CF50
:1030F00085E797E00E94C304E4CD1F7BCE2C09CE68
:103100008091C60006CE8CE896E00E94C304B9E028
:10311000B81520F08AE896E00E94C304882D90E05C
:10312000B0E0A0E044E6CE5FDC4F88839983AA83B9
:10313000BB83C250D340BC01CD010E94D10449CE13
:10314000642DC6D6792E282F30E050E040E0CE5FC7
:10315000DC4F288339834A835B83C250D34042E0EB
:10316000CE5FDC4F688179818A819B81C250D340D8
:103170000E946B0580E896E00E94C304472D50E052
:1031800070E060E0CE5FDC4F488359836A837B83C5
:10319000C250D34044E6CE5FDC4F688179818A819A
:1031A0009B81C250D3400E94D10420CE8BE796E091
:1031B0000E94C30427CE83E796E0811002C08EE60A
:1031C00096E00E94C3043FCE8DE596E00E94C304C2
:1031D0008BCE88E596E090CE482F50E070E060E01E
:1031E000CE5FDC4F488359836A837B83C250D340D0
:1031F00043E0CE5FDC4F688179818A819B81C25038
:10320000D3400E946B05F3CE8EE297E0F8CE04FD2A
:103210000AC016FF75C0CB56DD4F8881C559D24014
:10322000893609F06DC0CFB6F8940F7E80E090E843
:10323000282F30E0E6EEF1E0EC0FFD1FE20FF31F68
:10324000108277E0729FF001739FF00D1124A1E0CE
:10325000B0E0AC0FBD1FEA0FFB1F1082118212827B
:103260009383958316828F5F823311F781E0C15E6D
:10327000DC4FE881F981CF51D3408083C55FDC4FBB
:10328000A881B981CB50D340FC9285E00E94E10730
:103290004BE0489F9001499F300D1124205E3F4F25
:1032A000B6E036952795BA95E1F7CF5DDC4FE8811A
:1032B000F981C152D34020838EE621108AE6C55F92
:1032C000DC4FA881B981CB50D34012968C931297D2
:1032D00013963C92139715961C9260E080E099E259
:1032E0000E9454068695C55FDC4FE881F981CB507A
:1032F000D3408683CFBEC95EDC4F1882C751D3400E
:10330000E11017C080912402F82FF270EF2E81FF98
:1033100010C080911D0290911E02EE24E394C45EC1
:10332000DC4F48805980CC51D3404816590608F0EC
:10333000E12C16FF39C0EE20B9F18FB6F8941F7B4F
:10334000CB56DD4F8881C559D2408356A12CB12C74
:10335000883148F490E0FC01E55CFE4FB0808D5D63
:103360009E4FDC01AC908B2D90E0E5E9F2E0EC0F94
:10337000FD1FE80FF91FA0821182CB56DD4F288177
:10338000C559D240263609F0F4C12110F2C180910E
:1033900024028D7F8093240210921E0210921D023F
:1033A0000E9409088FBEE12C12FF4AC0CFB6F894E4
:1033B0001B7F222009F441C0CF5EDC4F488059803A
:1033C0006A807B80C151D34041145104610471046F
:1033D000A1F110610E94AA068091190290911A022F
:1033E000A0911B02B0911C02482A592A6A2A7B2A02
:1033F000CE5FDC4F488259826A827B82C250D340C2
:10340000439ACE5FDC4F688179818A819B81C2506B
:10341000D3400E942406CE5FDC4F688179818A8187
:103420009B81C250D3400E94D10640921902509213
:103430001A0260921B0270921C020E940908CFBE01
:1034400014FF55C080911802882309F450C0BFB6FC
:10345000F8941092180213FBCC24C0F820E080E00E
:1034600090E0DC0141E050E060E070E04090190243
:1034700050901A0260901B0270901C024422552248
:103480006622772245284628472889F0EEEDF2E0AB
:10349000EC0FFD1FE20FF11D30813F5FC65FDC4F77
:1034A0005880CA50D340531608F473C13083440F78
:1034B000551F661F771F2F5F2032C1F6C0FA13F920
:1034C0004091190250911A0260911B0270911C02E6
:1034D0002C013D014426552666267726C35FDC4F26
:1034E000488259826A827B82CD50D340BFBE13FF8F
:1034F00032C0CFB6F894177FC35FDC4F6881798103
:103500008A819B81CD50D3400E942406C35FDC4F4B
:10351000688179818A819B81CD50D3400E94D106F8
:10352000C35FDC4F288139814A815B81CD50D34014
:103530002093190230931A0240931B0250931C02ED
:10354000232B242B252B31F443981F7E0E94AF069A
:103550000E94B806CFBECFB6F8940E948C0691E0C8
:1035600017FD03C0813009F090E090FB17F982301D
:1035700049F48091210290912202019690932202B7
:1035800080932102CFBE17FF9CC1CFB6F8941F775E
:103590000E94B40660E08FEF9FE60E9454068823E5
:1035A00009F4FFC060E08FEF94E20E945406882E79
:1035B0000E946806419880E00E9441068FEF0E94B9
:1035C0004106893208F006C1CD5BDD4F8883C354C4
:1035D000D240BB24B3940BC1282F30E063E472E0E7
:1035E0006C0F7D1F620F731FA5E94A2EA2E05A2EB1
:1035F0004C0E5D1E240D351DD9019C91DB011196E9
:103600009C938F5F59C0E3E4F2E0EC0FFD1FEC0DDB
:10361000F11D80810E944106C39476C060E080E085
:1036200098E20E9454068970C82ED301C2012C0171
:103630003D0131E0431A510861087108892B8A2B3A
:103640008B2B09F491C0CC2049F30E946806C0FA84
:10365000CC24C0F845284628472811F4CC24C3942C
:10366000CE5FDC4FA881B981C250D3408C9181508C
:103670008C93882331F0EFEFFFE23197F1F700C030
:103680000000C11001C05F98AA94AA2009F47FCE5F
:103690000E94B6060E94680661E080E198E20E94FE
:1036A0005406EB2DB7E2BB1508F4E7E2CD5BDD4F26
:1036B000E883C354D24080E08E1708F48DCFF3E442
:1036C0004F2EF2E05F2E4C0E5D1E4E0E511CF2018D
:1036D00011824198CD5BDD4F8881C354D24089323D
:1036E00038F078E2572ECD5BDD4F5882C354D2407C
:1036F00080E80E944106CD5BDD4F7880C354D24004
:10370000872D0E944106CE2C7C1408F07CCF419A74
:1037100061E08FE093E10E94540661E08DE59AE557
:103720000E94540661E08CE79CE50E94540661E02B
:103730008CE091E00E945406412C512C6BE4662EE3
:10374000712C21E0421A51086108710839F060E0DB
:103750008FEF97E20E94540687FFF3CFC12C8BECCA
:1037600092E1A0E0B0E063CF44244A94542C3201AB
:103770006CCFB39445E9442E42E0542E4C0E5D1EAE
:10378000480E591ECE5FDC4F59824882C250D3404A
:103790007CCF842B952BA62BB72B1082CC24C394E3
:1037A00086CE61E081E093E20E945406412C512CC8
:1037B000FBE46F2E712C31E0431A51086108710847
:1037C00009F4F0CE60E08FEF93E20E94540681FF8F
:1037D000F2CFE8CE88E2F8CE8FEF0E944106E3E414
:1037E000F2E0EC0FFD1FEB0DF11D8083B394CD5B78
:1037F000DD4F8881C354D2408B1570F7419ACD5B61
:10380000DD4F8881C354D240883208F087E2981691
:10381000E0F0A82EB12CECE6F2E0EC0FFD1FEA0D73
:10382000FB1D108261E080E198E20E9454065D98E1
:10383000C459DD4FE881CC56D240E356E23108F05E
:103840003DC0F0E0E65FFF4D8DC3292D30E0ECE692
:10385000F2E0EC0FFD1FE20FF31F43E452E04C0FC8
:103860005D1F240F351FD90111969C91908393946D
:10387000CECFFE01EA0DFB1DE559FD4F8081815041
:1038800009F053C0A5014250510957FF02C04F5FD4
:103890005F4F5595479512FB992790F9CF5EDC4F06
:1038A000188219821A821B82C151D340282F30E01E
:1038B000241735070CF443C090FB12F90E94090845
:1038C000CFBE80912302882311F40C942E0ECFB624
:1038D000F8940E94470684749170892B19F560E072
:1038E00080E099E20E9454069091230219160CF090
:1038F000C2C2873908F4BFC290912302282F30E05A
:10390000291B310997FD3395273931050CF4BDC2C8
:1039100090912302891B90E061E099620E94540615
:1039200010922302CFBE0C942E0EB1E8ECEDF0E025
:10393000B150E040F040E1F700C000C0A0CF22202D
:10394000E1F1220F331FECE6F2E0EC0FFD1FE20F76
:10395000F31F21812F1131C0E281E150E03268F57F
:1039600024E0E29FD001112466E671E06C0F7D1F18
:10397000A60FB71F8D909D90AD90BC90CF5EDC4F91
:10398000488059806A807B80C151D340482859289B
:103990006A287B28CF5EDC4F488259826A827B820C
:1039A000C151D3406EED662E62E0762E6C0E7D1E08
:1039B0006E0E711CF301108291E08F5F77CFFE01D4
:1039C000EA0DFB1DE559FD4F8081815049F4C85E29
:1039D000DC4F8881C851D3400E947D08382E6ECFBD
:1039E00021E83CED40E0215030404040E1F700C08C
:1039F00000C0EBCFFE01EA0DFB1DE559FD4FE08055
:103A0000EA94E1105EC080E7CB56DD4F8883C5594C
:103A1000D240CA56DD4FD882C659D240C956DD4F72
:103A2000F882C759D24085E00E94E1074BE0489FE9
:103A30009001499F300D1124205E3F4F56E036958E
:103A400027955A95E1F7C856DD4F2883C859D240CB
:103A5000C756DD4F2882C959D240C656DD4F38823D
:103A6000CA59D24080E2C556DD4F8883CB59D24037
:103A70008694C456DD4F8882CC59D24060E080E005
:103A800099E20E9454068695C356DD4F8883CD592E
:103A9000D24082E086BB1092850010928400809113
:103AA000240282608093240210921E0210921D0252
:103AB0001064006180E7CA5FDC4F8883C650D34042
:103AC000FDCE51E86CED70E0515060407040E1F780
:103AD00000C000C095CFACE6B2E0AC0FBD1FAA0E8F
:103AE000BB1EF50131978081815039F5C359DD4FF7
:103AF0008881CD56D2408534A1F0882391F08D1570
:103B000081F08150282F30E0E1E0F0E0EC0FFD1F64
:103B100047E0442E489EE00DF11D1124808188234A
:103B2000B1F0C95EDC4F2881C751D3402F5FC95E19
:103B3000DC4F2883C751D340C1CEB1E8ECEDF0E0B3
:103B4000B150E040F040E1F700C000C0CDCFC25915
:103B5000DD4F8881CE56D2408083C159DD4F8881A8
:103B6000CF56D2408183C059DD4F8881C057D240A3
:103B7000811127C08EE647E0429FF001439FF00D80
:103B8000112461E070E06C0F7D1FE60FF71F828348
:103B9000CF58DD4F8881C157D2408383CE58DD4F47
:103BA0008881C257D2408483CD58DD4F8881C35766
:103BB000D2408583CC58DD4F8881C457D24086835C
:103BC0007DCE8AE6D8CF8CE692E08C0F9D1FA80EA2
:103BD000B91EF50131978081815069F521106ECEB3
:103BE000C359DD4F8881CD56D2408D1167CEC25961
:103BF000DD4F8881CE56D2408F1160CEC159DD4F46
:103C00008881CF56D2409FEF980F923308F056CE5E
:103C1000C059DD4F6881C057D2409FEF960F923355
:103C200008F04CCE8D1103C06F1509F447CE0E94E9
:103C3000F906086043CE91E8ACEDB0E09150A040A9
:103C4000B040E1F700C000C0C7CFECE6F2E0EC0FF7
:103C5000FD1FAE0EBF1EF50131978081815031F5F9
:103C6000C359DD4F8881CD56D2408D1127CE0260D9
:103C7000106482E086BB10928500109284008091CF
:103C80002402826080932402C65EDC4F4880598003
:103C9000CA51D34050921E0240921D02E12C2AE7E5
:103CA000CA5FDC4F2883C650D34008CEF1E82CED24
:103CB00030E0F15020403040E1F700C000C0CECFEE
:103CC0004CE652E04C0F5D1FA40EB51EF501319776
:103CD0008081815059F4C359DD4F8881CD56D2403F
:103CE00090E061E099620E945406E8CD51E86CEDE5
:103CF00070E0515060407040E1F700C000C0E9CF73
:103D00008CE692E08C0F9D1FA80EB91EF50131972D
:103D10008081815009F0A0C0C359DD4F8881CD5604
:103D2000D2408D1519F08F3F09F0C8CD90E021E009
:103D30002223B9F0292F30E0ECE6F2E0EC0FFD1F72
:103D4000E20FF31F4281EEEFF2E0EC0FFD1F2E0FAA
:103D50003F1FD9018C91841709F488C081E04A3A49
:103D600009F080E0282F9F5F933011F7882309F432
:103D7000A5CD0E946806CF58DD4FA880C157D2401C
:103D80008A2D90E061E097600E945406CE58DD4F86
:103D9000B880C257D2408B2D90E061E098600E94BD
:103DA0005406CD58DD4FE880C357D2408E2D90E0A9
:103DB00061E099600E9454060E940908C250DD4FDC
:103DC000A882CE5FD240C150DD4FB882CF5FD240D3
:103DD000C050DD4FE882C050D34010648EE6CB5611
:103DE000DD4F8883C559D240CA56DD4FD882C659A7
:103DF000D240C956DD4FA882C759D240C856DD4FC0
:103E0000B882C859D240C756DD4FE882C959D2405E
:103E100082E086BB1092850010928400809124027B
:103E2000826080932402C359DD4F8881CD56D240F1
:103E30008F3FF1F0C65EDC4F88819981CA51D34033
:103E400090931E0280931D02E12CBEE6CA5FDC4FF8
:103E5000B883C650D34032CD91E8ACEDB0E091507C
:103E6000A040B040E1F700C000C053CF81E07ACF5E
:103E700090E080E0E5CF909123029F3F09F04BCD89
:103E80008F3F09F448CD8F5F46CD86E944CDBB20F6
:103E900011F40C940E0F0C945D11CA5EDC4F188265
:103EA000C651D340C75EDC4F8883C951D3400C94C0
:103EB000B90EDB018F939F935BD0BF91AF91A29F0F
:103EC000800D911DA39F900DB29F900D1124089518
:103ED000991B79E004C0991F961708F0961B881F5C
:103EE0007A95C9F780950895A1E21A2EAA1BBB1BEB
:103EF000FD010DC0AA1FBB1FEE1FFF1FA217B307B6
:103F0000E407F50720F0A21BB30BE40BF50B661FCB
:103F1000771F881F991F1A9469F76095709580958F
:103F200090959B01AC01BD01CF010895052E97FB33
:103F300016F400940FD057FD05D0D6DF07FC02D051
:103F400046F408C050954095309521953F4F4F4F0E
:103F50005F4F089590958095709561957F4F8F4F35
:103F60009F4F0895EE0FFF1F0590F491E02D0994E7
:103F700040D0A59F900DB49F900DA49F800D911DE2
:103F8000112408952F923F924F925F926F927F92E9
:103F90008F929F92AF92BF92CF92DF92EF92FF9259
:103FA0000F931F93CF93DF93CDB7DEB7CA1BDB0B05
:103FB0000FB6F894DEBF0FBECDBF09942A883988AA
:103FC00048885F846E847D848C849B84AA84B984B1
:103FD000C884DF80EE80FD800C811B81AA81B981BD
:103FE000CE0FD11D0FB6F894DEBF0FBECDBFED01D1
:103FF0000895A29FB001B39FC001A39F700D811DC2
:104000001124911DB29F700D811D1124911D0895E1
:10401000F894FFCFE31D5E1C5E1C391C5E1C801EE5
:10402000FA1C5E1C5E1C5E1C251E5E1C5E1C6B1D4D
:084030005E1C601E5E1CDF1C1B
:10403800000000480DD007E803F401FA007D006491
:10404800003E00320028001F00190014000F000C69
:10405800000A000300000300000300000002020041
:10406800020000000200000000000205000003003A
:104078000003000000030500090000000400000020
:10408800000023636F6E660072656D6F7465006370
:104098006C6561726C6973740073656E640066693F
:1040A8007265006964656E740074656D7000696D91
:1040B8007000636C73006B696C6C006877006861F2
:1040C8007264776172650069676E697465720072FF
:1040D800666D000A0D4B6F6D6D616E646F2028313F
:1040E800362D4269742D4865782D466F726D61745E
:1040F8002C204D5342207A752031207365747A65DF
:104108006E2066C3BC7220536368726569627A75F3
:104118006772696666293A203078000A0A0D0061DC
:1041280065736B6579005AC3BC6E64626F782076DC
:1041380033202D2000204B616EC3A46C65005AC348
:08414800BC6E64626F78000098
:00000001FF
