:100000000C9498020C94B5020C94B5020C94B502B1
:100010000C94440A0C94B5020C94B5020C94B502ED
:100020000C94B5020C94B5020C94B5020C94B50274
:100030000C94B5020C94B10A0C94B5020C94B50260
:100040000C94530A0C94B5020C94B5020C94B502AE
:100050000C94B5020C94B5020C94B5020C94B50244
:100060000C94B5020C94B5021B5B33376D000A0D7E
:100070004665686C6572206265696D204C616465D7
:100080006E20646572204944730A0D001B5B333196
:100090006D000A0D000A0D4B65696E6520C46E6423
:1000A0006572756E67656E20766F7267656E6F6DCF
:1000B0006D656E0A0A0D000A0D4E657573746172E6
:1000C000742E2E2E0A0A0D00446576696365206938
:1000D0007374206A65747A74205472616E736D69EA
:1000E00074746572210A0D001B5B33376D001B5B56
:1000F00033316D004E65756520556E697175652DDE
:100100004944202830312D3330293A20001B5B33FD
:10011000376D001B5B33316D004E65756520536C88
:100120006176652D4944202830312D3330293A201D
:1001300020000A0D000A0D002855296E69717565A9
:100140002D494420E46E6465726E2C202853296C7E
:100150006176652D494420E46E6465726E2C200A38
:100160000D7A752028542972616E736D69747465F7
:1001700072206D616368656E2C20416262727563E6
:1001800068206D69742062656C6965626967657273
:1001900020616E64657265722054617374652120FC
:1001A000000A0A0A0D000A0A0D4465766963652093
:1001B000697374206465727A65697420616C732058
:1001C0005472616E736D6974746572206B6F6E66C4
:1001D00069677572696572742E001B5B33376D0039
:1001E0000A0D004645484C4552001B5B33316D00FB
:1001F000416B7475656C6C6520536C6176652D4937
:10020000443A2020001B5B33376D000A0D00464541
:10021000484C4552001B5B33316D00416B74756572
:100220006C6C6520556E697175652D49443A2000E6
:100230001B5B33376D001B5B33376D000A0D466562
:10024000686C6572206265696D204C6164656E2022
:10025000646572204944730A0D001B5B33316D00E5
:100260000A0A4B6F6E66696775726174696F6E73A7
:1002700070726F6772616D6D0A0D3D3D3D3D3D3D94
:100280003D3D3D3D3D3D3D3D3D3D3D3D3D3D3D3D9E
:100290000A0D001B5B33336D000A0D001B5B333707
:1002A0006D004665686C65726861667465204944D6
:1002B000733A20001B5B33316D000A0D0A0D0020DC
:1002C00020202020000A0D002D2D2D2D002D002096
:1002D0002D002C20002D2D2D2D006E2E612E002C9A
:1002E00020002D002C20002E002D2D2D2D002C2047
:1002F00000300020002D2D2D003A20000A0A0D5557
:100300006E697175652D49443A20536C6176652D8F
:1003100049442C2042617474657269657370616E22
:100320006E756E67202856292C20536368617266AB
:100330003F2C2054656D706572617475722028B011
:1003400043292C2052535349202864426D290A0D19
:10035000001B5B33376D003D3D3D3D3D3D3D3D3D2B
:100360003D3D3D3D3D3D0A0D000A0A0D5379737434
:10037000656DFC62657273696368740A0D001B5BCE
:1003800033336D000A0D0020000A0D002D2D2D00C5
:100390003A20000A0A0D536C6176652D49443A20D3
:1003A000416E7A61686C20426F78656E0A0D000AB2
:1003B0000A0D00556E67FC6C746967652045696EAF
:1003C0006761626500203D20000A0D4B616E616C23
:1003D0003A20202020202000556E67FC6C7469674D
:1003E000652045696E6761626500203D20000A0D49
:1003F000536C6176652D49443A202020000A0D4D4A
:100400006F64757328662F69293A20000A0A0D0067
:100410000A0D526164696F206D6F64756C653A20D6
:1004200052464D0061746D65676133323870000A61
:100430000D436F6E74726F6C6C65723A20202000F1
:100440000A0D0A0D00B043006E2E612E0054656D3A
:10045000706572617475723A20000A0D000A0A0D07
:10046000576965646572686F6C7465732053656E57
:1004700064656E20646573206C65747A74656E20A3
:1004800042656665686C73204155530A0D000A0A7F
:100490000D576965646572686F6C74657320536588
:1004A0006E64656E20646573206C65747A74656E25
:1004B0002042656665686C732045494E0A0D00450B
:1004C000696E204665686C65722069737420617579
:1004D00066676574726574656E2E20426974746512
:1004E0002065726E657574207665727375636865D4
:1004F0006E210A0D000A0A0DC46E646572756E677E
:10050000206572666F6C67726569636820FC62655E
:10051000726E6F6D6D656E210A0D001B5B334A00B4
:100520001B5B303B3048001B5B324A002D00200033
:1005300011241FBECFEFD8E0DEBFCDBF11E0A0E099
:10054000B1E0EAE3F4E302C005900D92AC3DB107DF
:10055000D9F711E0ACEDB1E001C01D92A43EB107A6
:10056000E1F70E94C20A0C941B1A0C940000F9993E
:10057000FECF72BD61BD80BDFA9AF99A12BC11BC62
:100580000895F999FECF92BD81BDF89A80B512BC4D
:1005900011BC0895219A90E19A95F1F700C081115C
:1005A00021989EE29A95F1F7199B80E096E89A953A
:1005B000F1F700C021980895CF93DF93C82FD8E0BA
:1005C0008C2F81700E94CA02C6958111C068D150DB
:1005D000B9F78C2FDF91CF910895CF93C82F219A2F
:1005E0008CEC94E00197F1F700C00000219898EDA1
:1005F0009A95F1F70000199905C08AE294E00197F5
:10060000F1F700C08CEC0E94DC028C2FCF910C948F
:10061000DC021F93CF93DF9300D000D000D0CDB782
:10062000DEB719821A821B821C8220E82D831E826B
:100630002198299824EA2A95F1F7199B9BC0219AC1
:10064000E3E3F3E13197F1F72198F1E2FA95F1F75D
:1006500020E0199B08C02E3109F48EC031E23A9592
:10066000F1F72F5FF6CF293108F086C020E0199905
:1006700008C0293109F482C051E25A95F1F72F5F81
:10068000F6CF293109F47AC020E0199B08C029313E
:1006900009F476C0E1E2EA95F1F72F5FF6CF293150
:1006A00009F46EC0FE0131969E012A5F3F4F18E0AB
:1006B00042E3199907C0415048F050E15A95F1F7CB
:1006C00000C0F7CF411102C014E65FC04081440F63
:1006D000408352E65A95F1F70000199B02C0416031
:1006E000408342E3199B07C0415038F050E15A95CE
:1006F000F1F700C0F7CF442339F31150C9F6319612
:10070000E217F307A1F629815A814B81EC81352F3D
:10071000320F340F3E0FFD81F31334C0A42FAA1FF4
:10072000AA27AA1FAA0F30E0322F2227250F311D3A
:10073000293EF3E03F0740F54F7750E0542F442720
:100740004E0F511DE1E0F0E0EA1BF109E49FD001FA
:10075000E59FB00DF49FB00D1124AD0140575E4FE1
:10076000433E544088F4FC01B183A083FB013183F4
:1007700020830BC011E009C012E007C013E005C0E0
:1007800014E003C018EC01C019EC812F26960FB6B7
:10079000F894DEBF0FBECDBFDF91CF911F910895BA
:1007A0000F931F93CF93DF9300D000D0CDB7DEB768
:1007B00020E83FEF3C832B838436D1F18F3609F05C
:1007C0004FC084E40E94ED0281E00E94CA028823A7
:1007D000D9F38EEB0E94ED028FEF0E94DC02082F0E
:1007E00010E08FEF0E94DC02282F30E0322F22270A
:1007F000200F311FC9018827987F892B99F541E087
:1008000050E0C9010496220F331F220F331F820FBD
:10081000931F03E0969587950A95E1F7849F9001D1
:10082000859F300D949F300D11243C832B8307C08E
:10083000BE016F5F7F4FCE0103960E9409032B819B
:100840003C8137FF03C08BEF9FEF02C085E090E053
:10085000820F931F6AE070E00E94A319862F08C0E0
:1008600080E806C03195219531094FEF5FEFC9CF80
:100870000F900F900F900F90DF91CF911F910F91DC
:1008800008952D982B982A989EBD0DB407FEFDCF94
:100890009EB58EBD0DB407FEFDCF8EB52D982B985D
:1008A0002A9A089580E090E00C94410489E092E84F
:1008B0000E94410400C080E0089589ED92E80E9402
:1008C000410481E89AEC0E94410400C000C083E822
:1008D0009AEC0E94410480E0089580E090E8A5E24F
:1008E000B0E02091C00027FD08C00197A109B1091F
:1008F0000097A105B105A9F709C0892B8A2B8B2B7D
:1009000029F05A9A8091C6005A98089580E0089577
:100910000F931F9380917C00887F80937C0080914F
:100920007C00856080937C0068E000E010E0980126
:1009300080917A00806480937A0080917A0086FDAD
:10094000FCCF8091780090917900080F191F211D2C
:10095000311D615069F7A90198012C5F3F4F4F4F3E
:100960005F4F93E056954795379527959A95D1F720
:10097000A5E0B0E00E948C19605F7F4F8F4F9F4FC2
:1009800025E096958795779567952A95D1F7862FD7
:100990001F910F91089535B516BC81E085BB80EAA3
:1009A00086BD85E085BD80E095E541E050EA2FEF0A
:1009B000290F2E3F68F4990F21E0349B20E0922B01
:1009C000A89BFECF45BB56BD883088F78F5FEFCF21
:1009D000883088F335BD81E0911180E00895CF9390
:1009E000DF93FC01DF01EB018991BE01882329F02F
:1009F00031969C919817B1F303C081E090819111D9
:100A000080E0DF91CF91089540E050E865E270E02A
:100A10004B9B0AC0415051096109710941155105AB
:100A200061057105A9F719C0452B462B472BA9F085
:100A300040E050E865E270E09091C00095FD09C08B
:100A4000415051096109710941155105610571054F
:100A500099F78093C60080E0089581E00895CF93D0
:100A6000DF93D3E680ED8D0F843020F00E946D047B
:100A7000D82FF8CF8D2F0E940405C3E6D03341F460
:100A80008FEC8C0F893020F00E946D04C82FF8CFB6
:100A90008FEC8D0F823040F480ED8C0F8A3058F04F
:100AA0000E946D04C82FF8CFD33329F40E946D043F
:100AB000C82F8033D9F78C2F0E940405DD0F8D2FAE
:100AC000880F880F8D0F80518C0FDF91CF91089583
:100AD000CF93DF93EC01FE018491882329F00E94DB
:100AE000040521968823B9F3DF91CF9108954F92A1
:100AF0005F926F927F928F929F92AF92BF92CF92AE
:100B0000DF92EF92FF920F931F93CF93DF93CDB7B6
:100B1000DEB7A1970FB6F894DEBF0FBECDBF6B0155
:100B20007C018E010F5F1F4F81E2F80111928A95BF
:100B3000E9F7C701B601992493944AE0442E512C59
:100B4000612C712CA30192010E94B719CA01B9014D
:100B5000211531054105510511F09394F3CF892CEE
:100B6000F7FE0CC08CE295E00E946805F094E094DA
:100B7000D094C094C11CD11CE11CF11C3AE0432E5E
:100B8000512C612C712C992081F05E01A90CB11CB3
:100B9000C701B601A30192010E94B719605DF5017A
:100BA000608369017A019A94EECF78018E2D801BC3
:100BB000881530F4F70181917F010E940405F6CF7A
:100BC000A1960FB6F894DEBF0FBECDBFDF91CF91D7
:100BD0001F910F91FF90EF90DF90CF90BF90AF905B
:100BE0009F908F907F906F905F904F9008958F921D
:100BF0009F92AF92BF92CF92DF92EF92FF92CF93EC
:100C0000DF936B017C01C42FD0E05AE0852E912C3C
:100C1000A12CB12C611571058105910541F0A5014B
:100C200094010E94B719CA01B901DF5FF3CFF7FE43
:100C300002C0C111C150CD1770F4C701B601DF91D8
:100C4000CF91FF90EF90DF90CF90BF90AF909F90AB
:100C50008F900C947705CD1BD0E0DC1771F38EE2FA
:100C600095E00E946805DF5FF8CF87E295E00E947B
:100C7000680580E295E00E9468058BE195E00C94A0
:100C80006805419A389A399A3A9A3B9A409842981C
:100C9000439893E028E034E084E126B926B98150F6
:100CA000E1F736B936B99150B9F72FEF8FE791E0F8
:100CB000215080409040E1F700C000C04198089565
:100CC00040984398429860E120E030E878E0A9013C
:100CD00048235923452B09F0409A76B976B94098B4
:100CE00036952795615099F784E086B986B90895BD
:100CF0002B9800C02A9800C083B12A9A82958170EF
:100D00000895CF92DF92EF92FF92CF93DF93EC01A1
:100D1000C12CF6E9DF2EE12CF12C0E94780681111E
:100D20000CC081E0C81AD108E108F1088FEFC8169D
:100D3000D806E806F80689F707C0CD28CE28CF28C0
:100D400019F488818F5F888380E090EB0E944104D2
:100D5000DF91CF91FF90EF90DF90CF900895CF92E9
:100D6000DF92EF92FF92CF93C82FC12CA6E9DA2E23
:100D7000E12CF12C0E94780681110BC081E0C81A89
:100D8000D108E108F1088FEFC816D806E806F80682
:100D900089F78C2F90E098540E94410481E0CD287F
:100DA000CE28CF2809F080E0CF91FF90EF90DF9020
:100DB000CF900895CF93DF9300D000D0CDB7DEB7AA
:100DC0001C821B821A821982BE016F5F7F4FCE0187
:100DD00003960E940903882321F0843021F080E0EB
:100DE00003C084E601C08FE60F900F900F900F9024
:100DF000DF91CF9108955D985E985F982898089547
:100E0000289808954F925F926F927F929F92AF922F
:100E1000BF92CF92DF92EF92FF920F931F93CF93E7
:100E2000DF936B017C01EA01122F011103C097FFD0
:100E300012C002C097FF02C08DE201C08BE288831E
:100E4000F7FE08C0F094E094D094C094C11CD11C6B
:100E5000E11CF11C01E0111101C011E0C701B60154
:100E6000992493942AE0422E512C612C712CA301D9
:100E700092010E94B719CA01B90121153105410536
:100E8000510511F09394F3CF911608F4912E192D7A
:100E9000100FBAE04B2E512C612C712CA12EB12CCD
:100EA000101791F0AC0EBD1E81E0A81AB108C70161
:100EB000B601A30192010E94B719605DF50160833C
:100EC00069017A011150EACFC90DD11DCA0DDB1D90
:100ED0001882DF91CF911F910F91FF90EF90DF90DB
:100EE000CF90BF90AF909F907F906F905F904F900A
:100EF0000895439842984198409808951F93CF933E
:100F0000DF931F92CDB7DEB7339B02C080E101C0F3
:100F100080E0329B02C090E201C090E0982B319BB0
:100F200002C080E401C080E0982B309B02C080E8C2
:100F300001C080E0192F182B439A429A419A409A97
:100F40003B983A98399838985C98459A80E887FF9A
:100F500039C0449A00000000339B02C040E101C048
:100F600040E0329B02C030E201C030E0319B02C061
:100F700020E401C020E0309B02C090E801C090E076
:100F8000449800000000449A0000000086B183FBF2
:100F9000882780F9842B832B822B892B329B02C0DC
:100FA00092E001C090E0892B319B02C094E001C027
:100FB00090E0892B309B02C098E001C090E0892B23
:100FC0004498C5CF45983B9A3A9A399A389A89837A
:100FD0000E947907898114FD439A15FD429A16FDF6
:100FE000419A17FD409A0F90DF91CF911F9108957C
:100FF000449A00C000C044980895CF93C82F0E941F
:101000007907C4FD439AC5FD429AC6FD419AC7FDC2
:10101000409A0E94F8070E947907C0FD439AC1FDDB
:10102000429AC2FD419AC3FD409ACF910C94F807B1
:10103000853008F081E0653108F061E0282F30E06C
:10104000215031093595279545985C988095817098
:101050008295880F880F807C815894E1299F800DAC
:101060001124860F0E94FD070C947E07CF93DF9317
:101070001F92CDB7DEB74598611124C05C98698393
:101080000E94FD070E947E0769816623E9F00E94A5
:101090007E07803481F028F48431B1F461E082E08D
:1010A0000CC0843529F0883679F461E081E005C010
:1010B00061E083E002C061E084E00F90DF91CF91B6
:1010C0000C9418085C9ADBCF0F90DF91CF910895B4
:1010D000CF93DF93EC018991882321F061E00E9496
:1010E0003608F9CFDF91CF91089545985C9A0E9418
:1010F000FD070C947E07682788E09CE8262F217066
:101100006695211169278150C9F7862F08957F922E
:101110008F929F92AF92BF92CF92DF92EF92FF9207
:101120000F931F93CF93DF93082F162FC8E1D0E0C2
:10113000E82EE60ECE010E94C102982ECE01019645
:101140000E94C102A82ECE0102960E94C102B82EB2
:10115000CE0103960E94C102C82ECE0104960E94C1
:10116000C102D82ECE0105960E94C102882E602FA2
:1011700080E10E947B08F82E612F80E10E947B08AD
:10118000782E612F8F2D0E947B0890120AC0A11229
:1011900008C0BE1006C0CF1004C0D71002C0881609
:1011A00031F0A496C438D10529F680E001C081E071
:1011B000DF91CF911F910F91FF90EF90DF90CF9033
:1011C000BF90AF909F908F907F900895CF92DF92C5
:1011D000EF92FF920F931F93CF93DF93082F162F59
:1011E000C82EC60E682F80E10E947B08F82E612F62
:1011F00080E10E947B08D82E612F8F2D0E947B08F2
:10120000E82EC8E1D0E0BE01802F0E94B702BE01E7
:101210006F5F7F4F812F0E94B702BE016E5F7F4FCD
:101220008C2D0E94B702BE016D5F7F4F8F2D0E94F3
:10123000B702BE016C5F7F4F8D2D0E94B702BE01C9
:101240006B5F7F4F8E2D0E94B702A496C438D105E4
:10125000D1F6612F802F0E948708882319F085EF2F
:1012600094E002C08FEB94E0DF91CF911F910F913A
:10127000FF90EF90DF90CF900C946805BF92CF92D3
:10128000DF92EF92FF920F931F93CF93DF938C0126
:101290007B01C8E1D0E0B12CCE010E94C102D82E62
:1012A000CE0101960E94C102C82E682F8D2D0E948A
:1012B00087088823B1F188E190E00E94C102C82F1D
:1012C0008CE390E00E94C102C81729F188E190E008
:1012D0000E94C102C82F80E690E00E94C102C8139C
:1012E0001AC089E190E00E94C102C82F8DE390E00E
:1012F0000E94C102C8130FC089E190E00E94C102A0
:10130000C82F81E690E00E94C102C81304C06C2D72
:101310008D2D0E94E608F801D082F701C08281E09D
:1013200016C0F2E0BF120DC06C2D8D2D0E948708F3
:10133000811107C085E4F801808385E6F701808389
:1013400005C0B394A496F3E0BF12A6CF80E0DF916E
:10135000CF911F910F91FF90EF90DF90CF90BF90B2
:101360000895962748E09C01880F991F37FF04C015
:1013700021E2822720E192274150A9F70895AF92F8
:10138000BF92CF92DF92EF92FF920F931F93CF9372
:10139000DF931F92CDB7DEB7F82EE92EC62E0E943E
:1013A00056040E94520489E392E80E94410400C05E
:1013B0008AEA0E94AF06D82E8AEA0E94AF06D80EAB
:1013C0008AEA0E94AF06D80E8DE20E94AF06D80EC0
:1013D00084ED0E94AF06D80E8C2D0E94AF06D80E69
:1013E0006C2D8FE09DE10E94B1098C012C2D2F31D5
:1013F00008F02EE1CF2CAF2CBE2C8A2D8C19821731
:1014000080F47501F50181915F0129830E94AF0687
:10141000D80EF7016081C8010E94B1098C012981B1
:10142000ECCF00951095812F0E94AF06F82E802FEB
:101430000E94AF06082F8AEA0E94AF06182F8AEA98
:101440000E94AF06E82E8AEA0E94AF060F0D010F38
:101450000E0D080F0D0D89E092E80E94410400C0B6
:101460000E9452040E945D0481E0011101C080E0ED
:101470000F90DF91CF911F910F91FF90EF90DF9030
:10148000CF90BF90AF9008951F920F920FB60F921A
:1014900011248F9381E08093E3018F910F900FBE11
:1014A0000F901F9018951F920F920FB60F92112454
:1014B0002F938F939F938091E1019091E201892B6B
:1014C00049F08091E1019091E20101969093E2014F
:1014D0008093E1018091DF019091E001892B49F037
:1014E0008091DF019091E00101969093E00180935B
:1014F000DF018091DD019091DE01892B49F080911F
:10150000DD019091DE0101969093DE018093DD0173
:101510008091E1019091E201893E934020F0109288
:10152000E2011092E1018091DF019091E001893E9A
:10153000934020F01092E0011092DF018091DD01D4
:101540009091DE018131974220F01092DE011092DD
:10155000DD019F918F912F910F900FBE0F901F90E3
:1015600018951F920F920FB60F9211248F938091AE
:10157000DC018F5F8093DC018F910F900FBE0F9085
:101580001F901895CF93DF93CDB7DEB7C957D140E1
:101590000FB6F894DEBF0FBECDBF88E10FB6F8944A
:1015A00080936000109260000FBE10E0F12C4E019D
:1015B00009EC801A0EEF900A8FE1D401E82F1D92FA
:1015C000EA95E9F76E01F8EECF1AFEEFDF0AD601D1
:1015D000E82F1D92EA95E9F75E01F9EFAF0EB11C15
:1015E000D501E82F1D92EA95E9F79E0126523F4F5B
:1015F000C85ADE4F39832883C855D140D901E82F16
:101600001D92EA95E9F7FE01E554FF4FDF01082F2F
:101610001D920A95E9F79E0124563F4FC65ADE4FA8
:1016200039832883CA55D140D901E82F1D92EA9504
:10163000E9F79E0123583F4FC45ADE4F3983288370
:10164000CC55D140D901E82F1D92EA95E9F79E01CA
:10165000225A3F4FC25ADE4F39832883CE55D1409C
:10166000D901E82F1D92EA95E9F7FE01FF96DF0107
:10167000082F1D920A95E9F79E01205E3F4FC05A40
:10168000DE4F39832883C056D140D901E82F1D92FF
:10169000EA95E9F7FE013196DF011D928A95E9F797
:1016A0000E94410680916400806C8093640080B742
:1016B000806880BF809181008460809381000E9457
:1016C0000007209A5F98579A5E98569A5D98559AA7
:1016D000FE01E25AFF4F9E01205E3F4F29019E010D
:1016E00023583F4FAE0144565F4FBE0166527F4FB5
:1016F00080E090E0A0E47A2EEE24E394B0E86B2E34
:1017000079B8D401ED924D01D5011D925D01D6014C
:101710001D926D01DB011D92BD01DA011D92AD012B
:10172000D9011D929D01D2011D922D016192BFEF41
:101730000FE7A1E0B1500040A040E1F700C000C0B9
:1017400001968E319105E1F68EE1C95ADE4F88830C
:10175000C755D140CA5ADE4F8883C655D140BE0115
:10176000695A7E4FCE018A5A9E4F0E943E098111CE
:101770000CC08CE890E00E9468058EE690E00E9424
:10178000680588E690E00E946805C95ADE4F8881A6
:10179000C755D1408111E6C0CA5ADE4F8881C6556F
:1017A000D1408111DFC01092E0011092DF01109250
:1017B000E2011092E1011092DE011092DD014498E5
:1017C0003C9898B185B198130AC0809168008E7FCB
:1017D0008093680080916B008F7E80936B0098B13E
:1017E0008BB198130AC0809168008B7F809368004A
:1017F00080916D008F7E80936D0098B188B19813B1
:101800000AC0809168008D7F8093680080916C0091
:101810008F7E80936C001092E3010E94FB06449837
:1018200045985C980E9479073C9A3D9A549A3B9A55
:101830003A9A399A389ABFEFEFEFF5E0B150E040AD
:10184000F040E1F700C000C0429A439A0E94F807B6
:101850008FEF9FE50197F1F700C000000E94F807A5
:10186000AFEFBFE51197F1F700C000000E94F80745
:10187000EFEFFFE53197F1F700C000000E94790714
:10188000429A0E94F8070E947E0760E088E20E9468
:10189000360860E08CE00E94360860E086E00E9436
:1018A000360860E081E00E94360860E080E40E9433
:1018B000360884E00E94750884E00E9475088AE07A
:1018C0000E9475088AE00E94750885E10E947508EB
:1018D00081E10E9475088AE00E94750884E00E94F8
:1018E000750882E00E94750885E00E94750882E014
:1018F0000E94750880E00E94750880E00E947508CB
:1019000080E00E94750880E00E94750880E00E94D7
:10191000750860E080E80E94360861E082E00E947D
:10192000180861E080E00E94360861E080E00E94D3
:10193000360880E091E00E94680861E080E00E9443
:10194000360861E080E00E94360860E082E00E9494
:10195000360885B5856085BD80916E008160809375
:101960006E0052C00E944106449A3C9898B185B1DD
:1019700098130AC08091680081608093680080910C
:101980006B00806180936B0098B18BB198130AC093
:101990008091680084608093680080916D00806110
:1019A00080936D0098B188B198130AC08091680047
:1019B00082608093680080916C00806180936C00ED
:1019C00081E08093E30180B7806880BF80917C00D4
:1019D000856480937C0080917A00866080937A0091
:1019E00080917A00806880937A0080917A00806488
:1019F00080937A0080917A0086FDFCCF80917800F8
:101A0000909179000E94FB06C95ADE4FE880C755C5
:101A1000D140CA5ADE4F5880C655D1408FB7F8948E
:101A20005B9A5398529A1092C5009FE39093C4001A
:101A300098E19093C10096E09093C2008FBF5A98AE
:101A40000E94DA06C559DE4F8883CB56D1400E94EA
:101A5000D003C859DE4F8883C856D1402A9A2C9AA1
:101A60002498239A259A229A8CB580658CBDFFEF25
:101A70000FEF2EE0F15000402040E1F700C00000E1
:101A800005E080E090EC0E94410488EE90E80E941E
:101A9000410483E296EC0E94410482EC94E90E94A6
:101AA000410480E298E90E9441048CEA92EC0E9491
:101AB000410481E89AEC0E94410480E098EC0E9485
:101AC000410487EF94EC0E94410480E090EE0E9474
:101AD000410489E092E80E9441048FEE95EA0E9459
:101AE00041043FEF8FE791E0315080409040E1F7B3
:101AF00000C000C0015029F60E9452040E945D04FB
:101B0000E11033C0511031C089E6C750DF4F8883E0
:101B1000C95FD04084E6C650DF4F8883CA5FD0409B
:101B200080E3C550DF4F8883CB5FD04080916E004B
:101B3000816080936E0005E05E9A65E081E191E04E
:101B40000E94BF095E98AFEFBFEFEDE1A150B0403A
:101B5000E040E1F700C00000015071F760E081E073
:101B60000E943608212C33E030C080E7C750DF4F99
:101B70008883C95FD040C650DF4FE882CA5FD0403B
:101B8000C550DF4F5882CB5FD0400E948804C450BC
:101B9000DF4F8883CC5FD0400E94CB04282E88235F
:101BA00011F0289A02C00E940007C350DF4F28821C
:101BB000CD5FD040C859DE4F3881C856D140C250A1
:101BC000DF4F3883CE5FD04036E0CA59DE4F3883CE
:101BD000C656D1401061789434E0C459DE4F388342
:101BE000CC56D1403FE0C359DE4F3883CD56D1406B
:101BF00003E0402E31E0C959DE4F3883C756D1404B
:101C0000312C35E0C059DE4F3883C057D1403E01FA
:101C100088EE681A8EEF780ADE01DF96CE59DE4F25
:101C2000B983A883C256D140FE01E554FF4FCC5979
:101C3000DE4FF983E883C456D1402AED30E02C0F03
:101C40003D1F225E3F4FC958DE4F39832883C75757
:101C5000D1408091E301882371F00FB7F89410927E
:101C6000E3010E94CB04282E882311F0289A02C099
:101C70000E9400070FBF8091C000881F8827881F1F
:101C800080FB10F910FF8FC1DFB6F8941E7F289AF1
:101C90000E946D04082F8F3F01F5C95CDE4F8883D9
:101CA000C753D1400E946D04C85CDE4F8883C8537F
:101CB000D1400E946D04C75CDE4F8883C953D14078
:101CC0000E946D04C65CDE4F8883CA53D140C55C58
:101CD000DE4F1882CB53D1404BC00E9404059EEFCB
:101CE000C12C992319F13CE13C1518F10E946D04B7
:101CF000982F8D3011F08A3009F490E0E7E3F1E09D
:101D0000EC0FFD1FEC0DF11D9083992379F0892FC5
:101D1000C758DE4F9883C957D1400E940405C39429
:101D2000C758DE4F9881C957D140DBCF8C2DCC20CE
:101D300029F082E990E00E9468058C2DE7E3F1E04C
:101D4000EC0FFD1FEC0DF11D1182882361F0E7E31C
:101D5000F1E0EC0FFD1FE80FF11DDF0111979C91E1
:101D600090838150F2CFC95CDE4F0883C753D140C6
:101D700067E171E0CE01895C9E4F0E94EF048823E9
:101D800011F012601F7E6CE171E0CE01895C9E4F04
:101D90000E94EF04882331F0E11004C0511002C00A
:101DA0006894F5F866E271E0CE01895C9E4F0E946E
:101DB000EF04882331F0E11004C0511002C0186014
:101DC0001F7E61E271E0CE01895C9E4F0E94EF04AC
:101DD000882331F0E11004C0511002C010641F7E4E
:101DE0006BE271E0CE01895C9E4F0E94EF04882374
:101DF00059F0E11009C0511007C06894F1F86894D7
:101E0000F0F86894F2F8106862E371E0CE01895C42
:101E10009E4F0E94EF04882331F0E11002C055204C
:101E200011F06894F3F867E371E0CE01895C9E4F8E
:101E30000E94EF0481110E9435066BE371E0CE0130
:101E4000895C9E4F0E94EF04882311F06894F4F897
:101E500060E471E0CE01895C9E4F0E94EF0488230C
:101E600011F06894F6F865E471E0CE01895C9E4F4C
:101E70000E94EF04811109C068E471E0CE01895C21
:101E80009E4F0E94EF04882311F06894F7F861E5F3
:101E900071E0CE01895C9E4F0E94EF04882369F0B7
:101EA000E1100BC0511009C08EE894E00E94680553
:101EB00080916F00816080936F0066E571E0CE01D4
:101EC000895C9E4F0E94EF04882379F0E1100DC0D9
:101ED00051100BC08DE594E00E9468051092DC0162
:101EE00080916F008E7F80936F00C95CDE4F088108
:101EF000C753D1400F3F09F04DC0C85CDE4F688129
:101F0000C853D1408FEF860F8E3108F043C0C75CB5
:101F1000DE4FC880C953D1408FEF8C0D8031D0F592
:101F2000C65CDE4FB880CA53D14080E00E947B0877
:101F30006C2D0E947B0821E030E0B81611F020E003
:101F400030E0232B39F186E6C750DF4F8883C95F25
:101F5000D040C85CDE4F8881C853D140C650DF4FA7
:101F60008883CA5FD040C75CDE4F8881C953D140A7
:101F7000C550DF4F8883CB5FD04085E0C450DF4F32
:101F80008883CC5FD040106134E0CA59DE4F38837B
:101F9000C656D1400E9400070F3F21F08AE594E029
:101FA0000E946805DFBEF6FE8AC0DFB6F894E894AA
:101FB000F6F8C559DE4F8881CB56D1400E94D00338
:101FC000C859DE4F8883C856D1408DE494E00E9402
:101FD0006805C859DE4F3881C856D140303819F4E9
:101FE00088E494E010C044E0C859DE4F3881C856F8
:101FF000D140632F772767FD7095872F972F0E9419
:10200000F70585E494E00E94680580E494E00E946E
:102010006805E11053C0511051C081E090E09093E9
:10202000DE018093DD0161E083E00E9418088BE50A
:1020300091E00E946808C859DE4F3881C856D140E7
:10204000303829F48BE691E00E9468081EC001E058
:1020500022E0AE014F5F5F4FC859DE4F3881C8564E
:10206000D140632F772767FD7095872F972F0E94A8
:102070000207CE0101960E94680861E081E00E949B
:10208000360861E083E40E94360884E7C750DF4FDA
:102090008883C95FD04085E6C650DF4F8883CA5F1A
:1020A000D04080E7C550DF4F8883CB5FD0401061C0
:1020B00034E0CA59DE4F3883C656D140DFBEF7FE42
:1020C0001BC00FB7F894E894F7F88FE294E00E94F1
:1020D000680584E294E00E94680580E194E00E9433
:1020E00068056CE070E080E090E00E9477058CE08D
:1020F00094E00E9468050FBF11FF5BC1DFB6F89442
:102100001D7F81E086BB1092850010928400809133
:102110008100887F809381000E94350683E992E0E8
:102120000E94680580E692E00E946805BE01695A37
:102130007E4FCE018A5A9E4F0E943E0981110CC0EB
:102140008AE592E00E9468058CE392E00E946805AF
:1021500086E392E00E94680580E392E00E946805B1
:102160008BE192E00E94680585E192E00E9468059B
:10217000CA5ADE4F6881C655D140653431F070E0EF
:1021800080E090E00E94770504C08EE092E00E941B
:1021900068058BE092E00E94680585E092E00E946D
:1021A000680580EF91E00E9468058AEE91E00E9448
:1021B0006805C95ADE4F6881C755D140653631F090
:1021C00070E080E090E00E94770504C083EE91E02B
:1021D0000E94680580EE91E00E9468058AED91E01A
:1021E0000E946805C95ADE4F8881C755D140CA5A36
:1021F000DE4F9881C655D140891306C0811104C0B5
:1022000086EA91E00E94680581EA91E00E946805F3
:1022100088E391E00E9468050E946D04282F8823BE
:10222000D9F3C758DE4F2883C957D1400E9404050F
:1022300085E391E00E94680500E0C758DE4F2881E1
:10224000C957D14082E391E0C758DE4F2883C95770
:10225000D1400E946805C758DE4F2881C957D14038
:10226000253571F130F4233561F0243509F449C086
:102270007CC0243709F445C0253711F1233709F014
:1022800074C089E191E00E94680583E191E00E94B9
:102290006805C95ADE4FC880C755D1400E942F0536
:1022A000C95ADE4F8883C755D1408DE091E00E9426
:1022B0006805C95ADE4F8881C755D14025E71EC041
:1022C00084EF90E00E9468058EEE90E00E94680521
:1022D000CA5ADE4FC880C655D1400E942F05CA5A3F
:1022E000DE4F8883C655D14088EE90E00E94680595
:1022F000CA5ADE4F8881C655D14023E78C1134C0BD
:1023000034C0C95ADE4F8881C755D1408823A9F00F
:10231000CA5ADE4F8881C655D140882371F088ECB7
:1023200090E0C758DE4F2883C957D1400E94680506
:10233000C758DE4F2881C957D140C95ADE4F88811E
:10234000C755D140CA5ADE4F9881C655D140C95AA7
:10235000DE4F1882C755D140CA5ADE4F1882C65583
:10236000D140911101C0811101E0C95ADE4F68814D
:10237000C755D140CA5ADE4F8881C655D14031E099
:10238000811101C030E091E0611101C090E039138A
:1023900059CF002349F00E94E60887EB90E00E94A5
:1023A00068056894F4F804C085E990E00E94680527
:1023B000DFBE12FF35C00FB7F8941B7FC059DE4F48
:1023C0008881C057D140815031F0A9E9B9E6119711
:1023D000F1F700C0F8CFF301D2808FEF8D0D80317F
:1023E000E0F42220D1F020E180E090E0880F991FF6
:1023F0002D1101C081602150C9F70E94600689E952
:1024000099E60197F1F700C080E090E00E94600635
:10241000FE01ED0DF11D81E0878F0E945D040FBF6D
:10242000F3FE0DC02FB7F894E894F3F8CE01C096F0
:10243000FE01B0961192E817F907E1F72FBF13FFDD
:10244000CFC0DFB6F894177F89E6C750DF4F888387
:10245000C95FD04084E6C650DF4F8883CA5FD04052
:1024600080E3C550DF4F8883CB5FD04081E086BBDF
:10247000109285001092840080918100887F809363
:1024800081008DEF93E00E9468050E946D04982FF3
:102490008823D9F3C758DE4F9883C957D1400E948B
:1024A0000405C758DE4F9881C957D140C750DF4F48
:1024B0009883C95FD040963631F001E0993609F033
:1024C00000E033E066C08EEE93E00E9468050E9453
:1024D0006D04082F8823D9F30E94040580ED800F36
:1024E000880F082F000F000F080F0E946D04C82EE0
:1024F0008823D9F30E9404050C0D8AEE93E00E9414
:1025000068058FEC800F8E3108F000C70053602FF4
:1025100070E080E090E00E947705C650DF4F0883AE
:10252000CA5FD04001E089EC93E00E9468050E94F8
:102530006D04C82E8823D9F30E94040580ED8C0D0C
:10254000880FC82ECC0CCC0CC80E0E946D04B82E7F
:102550008823D9F30E940405CB0C85EC93E00E94FC
:1025600068058FEC8C0D8E31D0F480EDC80E6C2D8B
:1025700070E080E090E00E947705C550DF4FC88290
:10258000CB5FD04085E0C450DF4F8883CC5FD04024
:1025900034E0CA59DE4F3883C656D1400BC083EBB6
:1025A00093E00E94680533E0CA59DE4F3883C6566F
:1025B000D14000E08FEA93E00E946805002311F00B
:1025C000106101C01F7E8091C00087FF03C0809111
:1025D000C600F9CF80918100846080938100DFBEC6
:1025E00016FFCDC10FB7CA58DE4F0883C657D1407A
:1025F000F8941F7B0E9435068EE793E00E946805E1
:1026000089E693E00E94680587E593E00E946805EB
:1026100081E593E00E9468058CEF92E00E946805D6
:102620009E01225A3F4FCF58DE4F39832883C1572E
:10263000D1406E013DE7C30ED11C9E0124563F4F91
:10264000CC58DE4F39832883C457D1409E0126528F
:102650003F4FC259DE4F39832883CE56D1409E0169
:10266000215C3F4FC759DE4F39832883C956D1407B
:10267000812C912C54018394C759DE4F3881C9565F
:10268000D140CE59DE4F8881C256D140381BCD583B
:10269000DE4F3883C357D140393018F480E30E94AD
:1026A0000405C501B4010E94770589EF92E00E94FC
:1026B0006805C259DE4FA881B981CE56D1400C9130
:1026C000011105C085EF92E00E94680512C0043632
:1026D00050F483EF92E00E9468050A3020F481EF05
:1026E00092E00E946805602F70E080E090E00E9418
:1026F00077058EEE92E00E946805CC58DE4FE881A7
:10270000F981C457D1408191CC58DE4FF983E883D9
:10271000C457D1406AE00E949719092F811105C062
:1027200089EE92E00E94680511C0682F70E080E099
:1027300090E042E00E94F70587EE92E00E94680573
:10274000602F70E080E090E00E94770584EE92E0D8
:102750000E946805C259DE4FA881B981CE56D1408A
:102760000D91C259DE4FB983A883CE56D1400023C4
:1027700029F0F60180810E94040504C082EE92E0F7
:102780000E9468058FED92E00E946805CF58DE4FE9
:10279000A881B981C157D1406D91CF58DE4FB9831F
:1027A000A883C157D140603849F0772767FD7095FD
:1027B000872F972F44E00E94F70509C0002319F0E6
:1027C0008AED92E002C085ED92E00E94680582EDFC
:1027D00092E00E946805C759DE4FE881F981C95629
:1027E000D1400191C759DE4FF983E883C956D140E2
:1027F000002391F004361CF48FEC92E002C08DECC3
:1028000092E00E946805602F772767FD7095872FFB
:10281000972F0E94770504C088EC92E00E9468051B
:10282000CD58DE4F8881C357D14063E00E9497198D
:10283000923019F485EC92E002C08FEB92E00E9496
:102840006805FFEFCF1ADF0A0FEF801A900AA00A7F
:10285000B00A2FE182169104A104B10409F00CCF53
:102860008AEB92E00E946805332021F084EB92E02D
:102870000E94680582EA92E00E946805632D70E07C
:1028800080E090E00E947705332021F08CE992E00F
:102890000E94680589E992E00E946805DE01A5545E
:1028A000BF4F81E0FE01E652FF4F90E021912813D7
:1028B00001C09F5FC958DE4F28813981C757D14079
:1028C000E217F30799F79D938F5F8F3159F783E9EB
:1028D00093E00E946805CE0185549F4F6C01812CC6
:1028E000912C540183940C2DCC59DE4F9881C45601
:1028F000D140091B093018F480E30E940405C5018A
:10290000B4010E94770580E993E00E946805D60132
:102910006D916D01611105C08CE893E00E9468051E
:1029200006C070E080E090E043E00E94F705802F51
:1029300063E00E949719923029F489E893E00E949D
:10294000680507C00AE187E893E00E946805015026
:10295000D1F7BFEF8B1A9B0AAB0ABB0AEFE18E16C9
:102960009104A104B10409F0BECF84E893E00E9471
:102970006805CA58DE4F0881C657D1400FBFF4FE24
:102980001BC0F894E1100AC0511008C060E081E05B
:102990000E94360881E791E00E9468080E9435068F
:1029A0002CE088E190E00FB6F894A8958093600041
:1029B0000FBE20936000FFCFF5FC09C014FF35C0A7
:1029C000C750DF4F8881C95FD040893671F5DFB6C7
:1029D000F894E894F5F8AE0145545F4F9E01215CF0
:1029E0003F4F5901DE01A25ABF4FCE0183589F4F7E
:1029F0009E0124563F4FBE0166527F4F0EE1E0E834
:102A0000CE2EFB011192BF01FA011192AF01F90123
:102A100011929F01FC011192CF01CD92F50111920B
:102A20005F01015071F7DFBE312C14FD04C08091AD
:102A3000DC018430A8F10FB7F8941F7E1092DC01FE
:102A40005E9ACA59DE4F6881C656D140CE01875082
:102A50009F4F0E94BF09C750DF4F8881C95FD04098
:102A6000863631F05E9810686894F0F80FBF18C091
:102A7000C450DF4F8881CC5FD0408150C450DF4FBD
:102A80008883CC5FD040882369F3CA59DE4F6881C0
:102A9000C656D140CE0187509F4F0E94BF09E8CF54
:102AA0000E94780691E0811101C090E090FB15F939
:102AB00015FF3CC10FB7F8941F7D5D9ACA5ADE4FCF
:102AC0001882C655D1400E945204CE018A5A9E4FA8
:102AD0000E948106D82E682F8FE09DE10E94B109E7
:102AE0005C012D2D2F3108F02EE163018C2D86190C
:102AF0008217C0F4CE018A5A9E4FC758DE4F2883F2
:102B0000C957D1400E948106D6018D936D01682F6F
:102B1000C5010E94B1095C01C758DE4F2881C95721
:102B2000D140E4CFF301E20FF11D1082CE018A5AA9
:102B30009E4F0E948106C82ED12CDC2CCC24CE01C5
:102B40008A5A9E4F0E948106C82A81E89AEC0E9408
:102B500041040E94520400C083E89AEC0E944104A0
:102B6000A094B09481E0CA14DB0441F4CA5ADE4F49
:102B70009881C655D140911101C080E05D988823AD
:102B800021F085E6F3018083D0C0D3018C91893692
:102B9000C9F118F48636B1F0B4C0803709F471C0B9
:102BA000843709F0AEC00E94DA06C559DE4F88832B
:102BB000CB56D1400E94D003C859DE4F8883C856F7
:102BC000D1409FC0F30181818E119BC0E11003C0F1
:102BD000552009F496C0D30112968C918150FE01C4
:102BE000E80FF11D80A181118CC012FD8AC0146014
:102BF0000E945604F301F381C059DE4FF883C05799
:102C0000D1407FC00E94560480E7C750DF4F8883C1
:102C1000C95FD040C650DF4FE882CA5FD040C55080
:102C2000DF4F5882CB5FD040E11002C0552019F031
:102C30000E94880401C082E3C450DF4F8883CC5FC8
:102C4000D040E11004C0511002C080E001C0822DCC
:102C5000C350DF4F8883CD5FD040C859DE4F3881E5
:102C6000C856D140C250DF4F3883CE5FD04010618C
:102C70006894F3F836E0CA59DE4F3883C656D1401F
:102C800040C0E1103EC051103CC0D30112968C915F
:102C9000853411F0811102C0339433C0815090E02B
:102CA000EAEDF0E0EC0FFD1FE80FF91FD3011196DC
:102CB0002C9111972083FE01E456FF4FE80FF91F76
:102CC00013962C911397208314962C91222311F0A4
:102CD0002AE601C02EE6FE01E358FF4FE80FF91F78
:102CE0002083FE01E25AFF4FE80FF91FD30115962A
:102CF0002C912083EFE3F0E0EC0FFD1FE80FF91FAC
:102D0000108214FF0DC080E0851561F0B0E7EDEF93
:102D1000F0E0B150E040F040E1F700C08F5FF4CF49
:102D20000E945D0410686894F1F80FBF8091E10182
:102D30009091E2018C3F910578F48091DF019091B0
:102D4000E0018C3F910540F48091DD019091DE011E
:102D5000823F924008F45AC0E1100C94290E5110A1
:102D600058C017FD59C00FB7F8948091E1019091B8
:102D7000E2018C3F910540F48091DF019091E001E8
:102D80008C3F910510F111C01092E2011092E10107
:102D900061E081E00E94180854E1D52E89E691E0B7
:102DA0000E946808DA94D1F7E7CF1092E001109200
:102DB000DF0161E082E00E94180844E1D42E89E638
:102DC00091E00E946808DA94D1F78091DD0190913A
:102DD000DE01823F9240C0F01092DE011092DD01D0
:102DE00061E083E00E94180834E1D32E88E691E088
:102DF0000E946808DA94D1F723E0422E31E0C959E5
:102E0000DE4F3883C756D1400FBF06C0E1100C9487
:102E1000290E51100C94290E17FD02C00C94290E96
:102E2000CFB6F8941F77F0FEA9C161E081E00E945F
:102E3000180883E891E00E946808C750DF4F888136
:102E4000C95FD040893609F4B0C030F4813609F446
:102E500002C1863659F08AC1823709F480C18437AD
:102E600009F480C1803709F081C1F8C061E080E0D9
:102E70000E94360888E891E00E946808C650DF4F3B
:102E80006881CA5FD04070E080E090E000E022E01E
:102E9000AE014F5F5F4F0E940207CE0101960E9474
:102EA00068088BE891E00E946808C550DF4F688190
:102EB000CB5FD04070E080E090E022E0AE014F5F59
:102EC0005F4F0E940207CE0101960E946808F2FC43
:102ED000BFC0C359DE4F6881CD56D140C459DE4FC3
:102EE0008881CC56D1400E94180889E691E00E9462
:102EF0006808C959DE4F6881C756D140842D0E94A9
:102F000018088FE891E00E946808C650DF4F68817A
:102F1000CA5FD04070E080E090E022E0AE014F5FF9
:102F20005F4F0E940207CE0101960E94680861E08F
:102F300080E00E943608C550DF4F6881CB5FD040EB
:102F400070E080E090E022E0AE014F5F5F4F0E94B2
:102F50000207CE0101960E946808C959DE4F888198
:102F6000C756D140895F21E0863108F420E0240D66
:102F700065E10E949719392F253008F023E081E0A0
:102F800090E09093DE018093DD01C459DE4F4882CA
:102F9000CC56D140C959DE4F8881C756D140C3595C
:102FA000DE4F8883CD56D1404DC081E991E00E942B
:102FB0006808F2FC4DC0C359DE4F6881CD56D14040
:102FC000C459DE4F8881CC56D1400E94180889E64A
:102FD00091E00E946808C959DE4F6881C756D14008
:102FE000842D0E9418088FE891E00E9468088CE9FF
:102FF00091E00E946808C959DE4F8881C756D140C8
:10300000895F21E0863108F420E0240D65E10E940B
:103010009719392F253008F023E081E090E0909354
:10302000DE018093DD01C459DE4F4882CC56D14089
:10303000C959DE4F9881C756D140C359DE4F988396
:10304000CD56D140422EC959DE4F3883C756D140A4
:10305000E894F2F88BC082EA91E086C089E891E0BA
:103060000E946808C650DF4F6881CA5FD04070E098
:1030700080E090E000E022E0AE014F5F5F4F0E94F1
:103080000207CE0101960E94680885EA91E00E943D
:103090006808C550DF4F6881CB5FD04070E080E0AA
:1030A00090E022E0AE014F5F5F4F0E940207CE0129
:1030B00001960E94680889E691E00E946808C45061
:1030C000DF4F8881CC5FD040843620F489E691E0E0
:1030D0000E946808C450DF4F8881CC5FD0409AE0DE
:1030E000D92E6D2D0E949719682F70E080E090E036
:1030F00000E021E0AE014F5F5F4F0E940207CE016A
:1031000001960E94680888EA91E00E946808C4500D
:10311000DF4F8881CC5FD0406D2D0E949719692FB9
:1031200070E080E090E021E0AE014F5F5F4F0E94D1
:103130000207CE0101960E9468088AEA91E00E9487
:103140006808C350DF4F8881CD5FD040882311F0DD
:103150008AE601C08EE661E00E94360807C08DEA6B
:1031600091E002C084EB91E00E946808E894F0F8D6
:1031700081E090E09093E2018093E101F1FEC3C011
:1031800061E082E00E94180882EC91E00E946808E9
:10319000D3018C918636B1F040F4813681F08536CA
:1031A00009F0A9C084ED91E037C08037D9F18237AA
:1031B000B1F1893609F09FC08BEC91E02DC087EC0E
:1031C00091E02AC061E080E00E94360888E891E042
:1031D0000E946808F301618170E080E090E000E007
:1031E00022E0AE014F5F5F4F0E940207CE010196C1
:1031F0000E9468088BE891E00E946808D30112964B
:103200006C9170E080E090E022E0AE014F5F5F4F94
:103210000E940207CE0101960E9468086CC088EDEA
:1032200091E0FACF89E891E00E946808F30161819A
:1032300070E080E090E000E022E0AE014F5F5F4F81
:103240000E940207CE0101960E94680885EA91E07B
:103250000E946808D30112966C9170E080E090E0C3
:1032600022E0AE014F5F5F4F0E940207CE01019640
:103270000E94680889E691E00E946808F3010381D2
:10328000043620F489E691E00E946808802F6AE005
:103290000E949719D92E682F70E080E090E000E03E
:1032A00021E0AE014F5F5F4F0E940207CE01019601
:1032B0000E94680888EA91E00E9468086D2D70E01D
:1032C00080E090E021E0AE014F5F5F4F0E94020777
:1032D000CE0101960E9468088AEA91E00E9468087F
:1032E000D30114968C91882311F08AE601C08EE6F2
:1032F00061E00E943608E894F1F881E090E0909354
:10330000E0018093DF01CFBE0C94290E88ED93E09D
:103310000E94680500E007C90E94D619A59F900D7C
:10332000B49F900DA49F800D911D11240895991BA9
:1033300079E004C0991F961708F0961B881F7A95AC
:10334000C9F78095089597FB072E16F4009407D0CF
:1033500077FD09D00E94E51907FC05D03EF4909551
:1033600081959F4F0895709561957F4F0895052E23
:1033700097FB1EF400940E94CE1957FD07D00E94BF
:10338000F91907FC03D04EF40C94CE1950954095D2
:10339000309521953F4F4F4F5F4F08959095809501
:1033A000709561957F4F8F4F9F4F0895A29FB001F9
:1033B000B39FC001A39F700D811D1124911DB29F69
:1033C000700D811D1124911D0895AA1BBB1B51E195
:1033D00007C0AA1FBB1FA617B70710F0A61BB70B85
:1033E000881F991F5A95A9F780959095BC01CD012A
:1033F0000895A1E21A2EAA1BBB1BFD010DC0AA1F36
:10340000BB1FEE1FFF1FA217B307E407F50720F04D
:10341000A21BB30BE40BF50B661F771F881F991FC8
:103420001A9469F760957095809590959B01AC0111
:0A343000BD01CF010895F894FFCF0D
:10343A002020456C204675657261646F726F20208A
:10344A0000555555555500636F6E6600636C65618E
:10345A00726C6973740073656E64006F726465726E
:10346A0073007A65726F00636C73006B696C6C0031
:10347A0074656D700068770068617264776172655F
:10348A0000696E743100696E74300054656D706540
:10349A0072617475723A20202020006E2E612E20EF
:1034AA0000526573657474696E6720646576696332
:1034BA0065210054783A20002053002043480078C0
:1034CA00004964656E746966792020004944454E56
:1034DA0054004F4B002055002E00562000524550F4
:1034EA004541540054656D702E207265667265738D
:1034FA00680052783A20004F4B20004964656E7488
:0C350A006966790045525200524550009D
:00000001FF
